:020000040800F2
:10000000A804002045010008CB140008771200085E
:10001000C9140008ED010008B9170008000000002D
:10002000000000000000000000000000CF140008E5
:10003000EF01000800000000CD140008D1140008F2
:100040005F0100085F0100085F0100085F01000810
:100050005F0100085F0100085F0100085F01000800
:100060005F0100085F0100085F0100085F010008F0
:100070005F0100085F0100085F0100085F010008E0
:100080005F0100085F0100085F0100085F010008D0
:100090005F0100085F0100085F0100085F010008C0
:1000A0005F0100085F0100085F0100085F010008B0
:1000B0005F0100085F0100085F0100085F010008A0
:1000C0005F0100085F0100085F0100085F01000890
:1000D0005F010008AD1700085F0100085F0100081C
:1000E0005F0100085F0100085F0100085F01000870
:1000F0005F0100085F0100085F0100085F01000860
:100100005F0100085F0100085F0100085F0100084F
:100110005F0100085F0100085F0100085F0100083F
:100120005F0100085F0100085F0100085F0100082F
:10013000DFF80CD000F048F80048004785190008A7
:10014000A80400200648804706480047FEE7FEE76F
:10015000FEE7FEE7FEE7FEE7FEE7FEE7FEE7FEE777
:100160002115000831010008D2B201E000F8012B8E
:10017000491EFBD270470022F6E710B513460A4627
:1001800004461946FFF7F0FF204610BD421C10F848
:10019000011B0029FBD1801A704730B50B46014680
:1001A00000202022012409E021FA02F59D4205D316
:1001B00003FA02F5491B04FA02F52844151EA2F1C0
:1001C0000102F1DC30BD0000064C074D06E0E0689E
:1001D00040F0010394E8070098471034AC42F6D38E
:1001E000FFF7AAFF881A0008A81A0008FEE7704760
:1001F0002DE9F05F90F821100024022903D004219A
:100200008163012485E001680A6822F00E020A6019
:1002100001680A6822F001020A603F4E3E4FB215A3
:10022000DFF8F4C0DFF8F090DFF8ECA0DFF8E8B01A
:10023000DFF8E4E00168783F13011502ACF1640CCB
:10024000A9F15009AAF13C0AABF1280BAEF1140E4A
:100250004FF48018B14227D9B9420ED0614512D06F
:1002600049451DD0514518D0594518D0714501D187
:10027000424615E0294EB14201D1012210E0274E3D
:100280001436B14201D110220AE0244E2836B14280
:1002900006D0224A3C32914201D11A4600E02A4659
:1002A0001E49091F0A602BE0B94213D0614517D0DF
:1002B000494522D051451DD059451DD0714501D128
:1002C00042461AE0B14202D14FF0807215E0134E5F
:1002D000B14201D1012210E0104E1436B14201D1D9
:1002E00010220AE00D4E2836B14206D00B4A3C32AD
:1002F000914201D11A4600E02A46074980394A60F6
:10030000012180F82110002180F82010416B01B1FB
:1003100088472046BDE8F09F800002400804024064
:1003200070B5044600F00AF90546601C02D0044886
:100330000078044400F002F9401BA042FAD370BDDB
:10034000000000202DE9F84FDFF8C891002409F1E2
:10035000040A0AF1040B23460F270BF1040ED1E027
:100360000125A54006EA0502AA4276D1DFF8A8C118
:100370004E68A6EB0C0866452BD00DDC032E34D05E
:1003800005DC36B3012E19D0022E2FD11BE0112E21
:1003900016D0122E2AD119E0B8F5881F19D006DC24
:1003A000B8F5803F15D0B8F5801F1FD111E0B8F522
:1003B000001F0ED0B8F5041F18D10AE0CB6815E075
:1003C000CB681B1D12E0CB6808330FE0CB680C3301
:1003D0000CE08B682BB1012B4FF0080303D0456173
:1003E00004E0042302E0056100E00023FF2A01D8B5
:1003F000064601E000F104064FEA840501D9A5F1A3
:100400002005D6F8008007FA05FC28EA0C0803FA54
:1004100005F548EA0508C6F800804D68ED0070D57E
:100420003E4DAE6946F00106AE61AD6924F00306AB
:1004300005F0010500953A4D06EB050CDCF8085077
:10044000A607360F07FA06F825EA0805DFF8D48074
:10045000404503D14FF0000825E052E0DFF8C880A6
:10046000404502D14FF001081DE0DFF8C080404553
:1004700002D14FF0020816E0DFF8B480404502D107
:100480004FF003080FE0DFF8AC80404502D14FF099
:10049000040808E0DFF8A080404502D14FF00508CD
:1004A00001E04FF0060808FA06F848EA0508CCF81B
:1004B00008804D68D9F80060ED034D4601D516431C
:1004C00000E096432E604D68DAF80060AD035546B3
:1004D00001D5164300E096432E604D68DBF80060BE
:1004E000ED025D4601D5164300E096432E604D684F
:1004F000DEF80060AD02754601D5164300E0964374
:100500002E60641C0A681646E2407FF429AFBDE8FD
:10051000F88F00000004014000001110001002409C
:100520000000014000080140000C014000100140A3
:100530000014014000180140001C0140014880687F
:10054000704700000000002070B5040025D094F82A
:100550003D00002520B984F83C50204600F0DAF92F
:10056000242084F83D002068016821F00101016029
:100570002068016841F4004101602068016821F4AD
:100580000041016000F022FB4D4A6168914201D8B0
:100590004C4900E04C49884201D2012070BD4B49D2
:1005A0002368B0FBF1F15E6826F03F060E435E6003
:1005B0006368934206D94FF4967359434FF47A73A4
:1005C000B1FBF3F12368491C1E6A26F03F06314354
:1005D00019626168914210D84900401EB0FBF1F2E7
:1005E000521CC2F30B02042A01D2042022E0B0FB09
:1005F000F1F0401CC0F30B001CE0A268F2B301EB69
:10060000C10303EB0116431EB3FBF6F35B1C43F47B
:1006100080431B0549D092B301EBC10202EB0111EB
:10062000401EB0FBF1F0401CC0F30B0040F48040D2
:1006300040F400402168CA694CF6FF739A431043A6
:10064000C861D4E9071001432068026822F0C002A3
:1006500011430160D4E9030101432068826848F234
:10066000FF339A4311438160D4E9050108432168AF
:10067000CA6822F0FF021043C86001E00EE016E0F5
:100680002068016841F0010101602564202084F8A0
:100690003D00256384F83E50002070BD01EB41060B
:1006A000431EB3FBF6F35B1CB3E70120C2E701EB8B
:1006B0004101401EB0FBF1F0401CC0F30B00B7E756
:1006C000A086010080841E0000093D0040420F000A
:1006D0002DE9F84F0025DDF82890984617468A4600
:1006E00004460095FFF72AFF064694F83D002028AF
:1006F0007AD11923012283492046009600F032FE68
:100700000028F5D194F83C0001286DD0012084F830
:100710003C0020680168C90703D1016841F001016C
:1007200001602068016821F400610160222084F8E2
:100730003D00102084F83E0025646762A4F82A80FA
:10074000608D20857048E06233464A465146204617
:1007500000F092FD00287DD1208DDFF8B0812027A8
:1007600068B1012814D00228206801681ED041F425
:10077000806101602068416980690090B5E020686F
:10078000416981690091016841F400710160ACE048
:100790002068016821F48061016072B620684169B7
:1007A00081690091016841F400710AE041F400613F
:1007B000016072B62068416981690091016821F485
:1007C0008061016062B690E0032868D801280CD0EF
:1007D00002284B464FF000024146204600960FD0BB
:1007E00000F0C0FDB0BB10E08AE03246494620462A
:1007F00000F037FE70BB20680069616A08706BE02A
:1008000000F0B0FD30BB72B634E02068016821F41E
:100810008061016072B620680069616A0870606A70
:10082000401C6062208D401E2085608D401E6085CA
:10083000374846F2A8110068B0FBF1F0C0EBC000E9
:1008400000EB80000090401E009008D020684069B6
:10085000C04300E029E040070CD50098F3E744F8D6
:10086000305F6773A573206940F02000206162B695
:1008700025731AE02068016841F400710160206866
:100880000069616A0870606A401C6062218D491EBF
:100890002185618D491E618562B621681AE0324664
:1008A0004946204600F0DDFD10B10120BDE8F88F7B
:1008B00020680069616A0870606A401C6062218D6E
:1008C000491E2185618D491E618521684A69D2438F
:1008D00052070AD409690170606A401C6062208D69
:1008E000401E2085608D401E6085208D00287FF48D
:1008F0006BAF84F83D7084F83E5084F83C50D5E7E7
:100900000220D3E7020010000000FFFF04000100F6
:100910000C00002010B586B00021009101910291D9
:10092000039100680F4988421AD10F4CA06940F02A
:100930000800A061A069694600F008000490C0208A
:10094000009012200190032003900848FFF7FAFC62
:10095000E06940F40010E061E06900F400100490E8
:1009600006B010BD0054004000100240000C0140D1
:1009700002488168027811448160704700000020BD
:10098000074810B5016841F010010160032000F034
:1009900075F8002000F006F800F024F8002010BDE3
:1009A0000020024070B50D4D04464FF47A7128784E
:1009B000B1FBF0F00A490968B1FBF0F000F0ECFA85
:1009C00048B9102C07D200222146501E00F036F8FC
:1009D00000206C6070BD012070BD00000000002090
:1009E0000C0000200C4808B5816941F001018161CB
:1009F000816901F001010091C16941F08051C1613B
:100A0000C06900F0805000900448416821F0E06126
:100A100041F00071416008BD00100240000001403B
:100A2000002809DB00F01F020121914040098000ED
:100A300000F1E020C0F8001170470000F0B40E4B48
:100A40001B680C46C3F30223C3F10705042D00D92C
:100A50000425191D072901D2002300E0DB1E012611
:100A600006FA05F1491E214099409E40761E164027
:100A70003143F0BC00F0B6BE0CED00E0064900F0DA
:100A8000070208684FF6FF03184040EA0220034AB5
:100A900010430860704700000CED00E00000FA050C
:100AA0002DE9F0470F46050061D0434E306800F055
:100AB0000700B84209D2306820F0070038433060A0
:100AC000306800F00700B84251D128683B4C8107DC
:100AD00012D5400703D5606840F4E0606060287874
:100AE000000703D5606840F4605060606068A968E2
:100AF00020F0F000084360602878C00728D06868BC
:100B0000012810D02168022810D0890700292EDA88
:100B1000616821F0030101436160FFF70FFD80462A
:100B200041F288390DE021688903EFE78901EDE79B
:100B3000FFF704FDA0EB0801494502D90320BDE8F9
:100B4000F0876068696800F00C00B0EB810FEFD1AE
:100B5000306800F00700B8420BD9306820F0070079
:100B600038433060306800F00700B84201D00120FF
:100B7000E5E72878400705D56068E96820F4E0607B
:100B8000084360602878000706D56068296920F46A
:100B9000605040EAC100606000F038F86168084ABF
:100BA000C1F30311515CC84006490860064800685B
:100BB000FFF7F8FE0020C2E70020024000100240CC
:100BC000701A00080C0000200400002004480549A9
:100BD00000684968044AC1F30221515CC84070476B
:100BE0000C00002000100240801A0008044805494B
:100BF00000684968044AC1F3C221515CC84070478B
:100C00000C00002000100240801A000812A185B0DC
:100C10000FC98DE80F0014A0144A006804905168B1
:100C2000134801F00C03042B10D0082B0ED1C1F394
:100C30008343C9031DF803000AD5516804AAC1F310
:100C40004041515C0A4A5043B0FBF1F005B0704797
:100C500008494843FAE700000203040506070809AB
:100C60000A0B0C0D0E0F10100102000000100240C4
:100C700000127A0000093D002DE9F84F040070D001
:100C80002078C04DC00749D06868C0F381000128B2
:100C900007D06868C0F38100022809D16868C003E2
:100CA00006D52868800339D560680028E7D035E08C
:100CB0006068B0F5803F0BD010B1B0F5A02F11D017
:100CC000286820F480302860286820F4802002E022
:100CD000286840F480302860606890B1FFF72EFCEF
:100CE00006460AE0286840F480202860F0E700BF4C
:100CF000FFF724FC801B642873D828688003F7D58D
:100D00000CE0FFF71BFC064605E000BFFFF716FCF2
:100D1000801B6428F0D828688003F7D420789A4E86
:100D200080074FF001094FF0000839D5686810F0CE
:100D30000C0F07D06868C0F38100022809D16868E9
:100D4000C00306D42868800714D52069012808D17B
:100D500010E02069B0B1C6F80090FFF7EFFB07463E
:100D600005E00AE1FFF7EAFBC01B0228C4D82868A7
:100D70008007F7D52868616920F0F80040EAC100D3
:100D800028600DE0C6F80080FFF7D8FB074604E0B6
:100D9000FFF7D4FBC01B022823D828688007F7D4AC
:100DA000207800072CD57948A169D9B1C0F8009006
:100DB000FFF7C4FB074604E0FFF7C0FBC01B022897
:100DC0000FD8686A8007F7D571484FF4FA51006868
:100DD000B0FBF1F0009000BF0098411E0091FAD2E4
:100DE0000EE080E0C0F80080FFF7A8FB074604E0B3
:100DF000FFF7A4FBC01B022875D8686A8007F7D4E8
:100E00002078400760D5E8690027C00008D4E86969
:100E100040F08050E861E869012700F080500090C0
:100E20005C480168C90513D40168834641F48071A8
:100E30000160FFF783FB824606E000BFFFF77EFB01
:100E4000A0EB0A0064284ED8DBF80000C005F5D5F9
:100E5000E06801280AD008B1052813D0286A20F0DC
:100E600001002862286A20F0040002E0286A40F0AD
:100E700001002862E06841F2883B98B1FFF75EFB11
:100E800082460BE0286A40F004002862EEE700BFCB
:100E9000FFF754FBA0EB0A0159455AD8286A80078E
:100EA000F6D50CE0FFF74AFB824605E0FFF746FB6C
:100EB000A0EB0A0159454CD8286A8007F6D41FB127
:100EC000E86920F08050E861E06988B36968C1F39F
:100ED0008101022944D00228C6F8608004D0FFF7BF
:100EE0002DFB044638E034E0FFF728FB074604E01A
:100EF000FFF724FBC01B02282BD828688001F7D4F9
:100F0000206AB0F5803F05D16868A16820F4003000
:100F100008436860D4E908010843696821F4741142
:100F200008436860C6F86090FFF708FB044606E0D7
:100F300025E000BFFFF702FB001B022809D8286844
:100F40008001F7D51BE000BFFFF7F8FA001B02286D
:100F500002D90320BDE8F88F28688001F4D40EE0A0
:100F60000128F7D06868226A00F48031914204D1E8
:100F7000616A00F47010884201D00120EAE7002085
:100F8000E8E70000001002400000424280044242B4
:100F90000C0000200070004010B5401EB0F1807FB2
:100FA00001D3012010BD4FF0E02460610F216017D4
:100FB00000F018FC0020A06107202061002010BD77
:100FC0007047000070B5026804461068D168536924
:100FD00010F00F0F50D003F0010501F49076354367
:100FE0005DD0C20705D0CA0503D5E26B42F001020D
:100FF000E263420705D5DA0703D0E26B42F0020252
:10100000E263820705D5DA0703D0E26B42F00402FF
:10101000E263020705D5DA0703D0E26B42F008026B
:10102000E263E26B002A33D0800604D5880602D53D
:10103000204600F0AFFA20684069E16BC0F38010F1
:10104000090700D428B3204600F096FA20684169C9
:1010500049061AD5416921F040014161606BA0B198
:101060001B494163606BFFF7C3F8002810D0606B29
:10107000416BBDE870400847830610D58B060ED53E
:101080002046BDE8704000F085BA2046FFF798FF83
:1010900070BD2046FFF794FF0020E06370BD03069B
:1010A00006D50B0604D52046BDE8704000F01ABBFB
:1010B0004006F3D54806F1D5D168204621F040011D
:1010C000D160202184F8391000F0D4F870BD000000
:1010D0006915000870B5040004D094F839000025A3
:1010E00010B106E0012070BD84F83850204600F0B1
:1010F00023F8242084F839002068C16821F40051C5
:10110000C160204600F092FA2068016921F4904104
:1011100001612068416921F02A0141612068C168AC
:1011200041F40051C160E563202084F8390084F85F
:101130003A00002070BD000030B585B00024009456
:101140000194029403940068184988422CD11848ED
:10115000816941F480418161816901F48041049198
:10116000816941F0040181618069124D00F0040041
:1011700004904FF40070009002200190032003902F
:1011800069462846FFF7DEF82815CDE900046946D0
:1011900028460294FFF7D6F8002211462520FFF7D3
:1011A0004DFC2520FFF73CFC05B030BD0038014068
:1011B000001002400008014070472DE9F843044642
:1011C00090F839001F4616460D46202850D1A5B18B
:1011D0009EB194F8380001284AD0012084F83800E4
:1011E0004FF00008C4F83C80212084F83900FFF754
:1011F000A5F9A6848146E68426E00120BDE8F883AF
:10120000E08C401EE084A0684B46B0F5805F4FF054
:1012100000024FF080012046009703D000F093FABF
:10122000E8B90DE000F08FFAC8B928882168C0F34A
:1012300008004860206908B16D1C05E0AD1C03E0A2
:10124000216815F8010B4860E08C0028D8D14B4686
:10125000002240212046009700F075FA08B10320D3
:10126000CCE7202084F8390084F838800020C5E7D6
:101270000220C3E77047FEE72DE9F84F0446C06A35
:101280001E4693460D4621680A6842F480620A6051
:10129000082807D0012805D010F5803F02D0206B28
:1012A000112804D12068016841F4807101604FF079
:1012B00001195B46002249462046009600F052F88C
:1012C0004FF4007840B120680068C00501D5C4F82B
:1012D00040800320BDE8F88F2069DFF884A0B0F5D6
:1012E000804F0FD00620216800EAD51747F0F000A4
:1012F000086133465A460AF10601204600F066F8B6
:1013000058BB03E0E8B240F001001CE02168E8B2FD
:10131000086133465A465146204600F057F8E0B976
:101320002068416981690091016841F48071016020
:101330005B46002249462046009600F013F800283C
:10134000C1D147F0F1002168086133465A46514641
:10135000204600F03BF80028BCD00120BAE700008E
:10136000020001002DE9F0471E4690460D46044656
:10137000C1F30747DDF8209008E0701C06D0FFF7A6
:10138000DDF8A0EB0900B0420FD876B12068012F3C
:1013900018D0806925EA00000004000C14D0002158
:1013A0004145EAD00020BDE8F087002044F8300F26
:1013B00020216173A073216941F020012161207314
:1013C0000120F0E74069E5E70121E9E72DE9F04771
:1013D0009A4691460E46044600254FF02008C1F378
:1013E000074725E020684069C043400514D42068C1
:1013F000016841F40071016021686FF48060486108
:10140000256384F83D8084F83E50206C40F0040051
:10141000206484F83C501FE0B9F1FF3F08D0FFF78B
:101420008DF8A0EB0A0149450CD8B9F1000F09D09D
:101430002068012F13D0806926EA00000004000C08
:101440000BD0CFE744F8305F84F80D80A573206996
:1014500040F02000206125730120BDE8F08740693D
:10146000EAE72DE9F041002590460E460446202784
:1014700017E04069C043C0060CD454F8301B6FF02D
:101480001000486144F810596777A577206A2062F8
:10149000257717E0FFF752F8A0EB0800B04208D814
:1014A0003EB120684169C9434906E2D40020BDE845
:1014B000F08144F8305F6773A573206940F0200025
:1014C000206125730120F2E7FEE7704770477047FF
:1014D000FFF74EBA30B58FB028216846FEF74BFEB5
:1014E00014210AA8FEF747FE02250120049000956A
:1014F0001020059000244FF4E010CDE90840079536
:101500006846FFF7B9FB0F200A90CDE90B540D9404
:1015100001210AA80E94FFF7C3FA0FB030BD0000F6
:101520000D48016841F00101016041680B4A11401A
:10153000416001680A4A11400160016821F480217C
:101540000160416821F4FE0141604FF41F01816098
:101550000449C00308607047001002400000FFF813
:10156000FFFFF6FE08ED00E010B5406A0021C185DE
:10157000C184FFF725FD10BD0168CA6822F490728E
:10158000CA6001684A6922F001024A61202180F89C
:101590003A10704710B590F83A10222901D0022075
:1015A00010BD8168B1F5805F11D001690029016823
:1015B0001FD0496801F07F03816A4A1C82620B7068
:1015C000C18D491E0904090CC18518D02BE00269A0
:1015D000816A002A0268526805D0D2B20A80816A04
:1015E000491C8162ECE7C2F308020A80816A891C07
:1015F000F7E74A68816A4B1C83620A70E0E701687A
:10160000CA6822F02002CA600168CA6822F48072A7
:10161000CA6001684A6922F001024A61202180F80B
:101620003A10FFF7C9FD002010BD00002DE9F04180
:10163000044600680169E26821F4405111430161E8
:101640002169A0680843616908432168CA6841F2BA
:101650000C639A430243CA6020684169A26921F47D
:101660004071114341611E49206864253226884239
:1016700002D1FFF7BBFA01E0FFF7A8FA00EBC001C7
:1016800001EB001160686FF018078000B1FBF0F209
:10169000B2FBF5F2B1FBF0F37A4303EB8202B1FB4C
:1016A000F0F306EB0212B2FBF5F2B3FBF5F302F036
:1016B000F00202EB0312B1FBF0F3B1FBF0F0B0FB70
:1016C000F5F0784303EB800006EB0010B0FBF5F07B
:1016D000216800F00F0010448860BDE8F081000030
:1016E0000038014090F83910212901D002207047BC
:1016F0008168B1F5805F016A0BD04A1C0262026802
:1017000009785160C18C491E0904090CC1840ED0AE
:1017100017E009880268C1F30801516001690029D6
:10172000016A02D0491C0162ECE7891CFBE70168F1
:10173000CA6822F08002CA600068C16841F04001B6
:10174000C160002070472DE9F041984617460E46CB
:101750000446069D1DE0681C1BD02DB1FEF7EEFE71
:10176000A0EB0800A84214D92068C16821F4D07108
:10177000C1602068416921F001014161202084F8A5
:10178000390084F83A00002084F838000320BDE8CE
:10179000F0812068006836EA000004D00020B842DA
:1017A000D9D00020F3E70120F9E700000148FFF756
:1017B00009BC000064000020FEE700000FB4084BE5
:1017C00010B504A902AA039800F02CF8044602A957
:1017D000002000F0D1F8204610BC5DF814FB00009A
:1017E000791900080907090E002804DB00F1E02040
:1017F00080F80014704700F00F0000F1E02080F83E
:10180000141D704702E008C8121F08C1002AFAD14F
:1018100070477047002001E001C1121F002AFBD170
:10182000704700002DE9FF4F89B09B460446002514
:1018300006E025280BD05A460B999047641C6D1C76
:1018400020780028F5D10DB02846BDE8F08F00279C
:10185000B8460122474900E0074314F8013F203B06
:1018600002FA03F00842F7D120782E2819D114F893
:10187000010F47F004072A280ED06FF02F022078BE
:10188000A0F1300109290CD808EB880102EB4101D5
:1018900000EB0108641CF2E70A98641C50F8048B02
:1018A0000A9020780028CED0642808D0692806D075
:1018B00075281ED05A460B9990476D1C58E00A991E
:1018C0004FF00A0901C90A91002802DA40422D218D
:1018D00002E0390504D52B218DF82010012103E009
:1018E000F90704D02021F7E78A4608AE0DE0002171
:1018F000FAE70A994FF00A0901C90A91F7E7494640
:10190000FEF74BFC303106F8011D0028F7D1ADEB96
:10191000060000F12009780701D44FF00108C845FE
:1019200002DDA8EB090000E000208046002706E069
:1019300008A85A46C05D0B9990476D1C7F1C5745FF
:10194000F6DB04E030205A460B9990476D1CB8F145
:101950000001A8F10108F5DC05E016F8010B5A4674
:101960000B9990476D1CB9F10001A9F10109F4DC54
:10197000641C65E7092801000A68531C0B6010709D
:101980007047000088B0FEF7FBFFFFF7A3FD30486B
:10199000816941F020018161816901F0200100919C
:1019A000816941F004018161816901F004010091C4
:1019B000816941F0080181618069264900F00800D1
:1019C00000902548002401602449C0E901144FF427
:1019D0008041C0E9034144618461C4610462FEF74F
:1019E000B3FD1D481E49543001604FF4E131C0E998
:1019F00001140C21C460C0E904418461C461FFF793
:101A000069FB6924142101A8FEF7B5FB4FF4FA60C5
:101A1000FEF786FC4FF47A75022306AA21460E488B
:101A20000095FEF755FEBDF818200EA101A8FFF79E
:101A3000C5FE01A8FEF7AAFB82B20748642301A9EC
:101A40005430FFF7BAFB6420FEF76AFCE4E70000BD
:101A5000001002400054004010000020A086010049
:101A6000003801406164633A25640D0A00000000FB
:101A7000000000000000000001020304060708093E
:101A80000000000001020304A81A00080000002062
:101A90001000000004180008B81A00081000002008
:101AA0009804000014180008010000001000000055
:081AB000000000000024F40016
:0400000508000131BD
:00000001FF
