:020000040800F2
:1000000000000120D5150008CD140008D314000805
:10001000D9140008DF140008E514000800000000EF
:1000200000000000000000000000000081A00008A7
:10003000EB1400080000000061A20008A9A200085B
:100040001D1600081D1600081D1600081D160008C4
:100050001D1600081D1600081D1600081D160008B4
:100060001D1600081D1600081D1600081D160008A4
:10007000F91400080D1500081D1600081D160008CB
:100080001D1600081D1600081D1600081D16000884
:100090001D1600081D1600081D1600081D16000874
:1000A0001D160008211500081D1600081D16000861
:1000B0001D1600081D1600081D1600081D16000854
:1000C0001D1600081D1600081D160008351500082D
:1000D0001D160008491500081D1600081D16000809
:1000E0001D1600081D1600081D160008000000005F
:1000F0000000000000000000000000000000000000
:1001000000000000000000001D1600081D16000879
:100110001D1600081D1600081D1600081D160008F3
:100120001D1600081D1600081D1600081D160008E3
:100130001D1600081D1600081D1600081D160008D3
:100140001D1600081D1600081D1600081D160008C3
:10015000000000000000000000000000000000009F
:10016000000000000000000000000000000000008F
:10017000000000000000000000000000000000007F
:10018000000000000000000000000000000000006F
:10019000000000000000000000000000000000005F
:1001A000000000000000000000000000000000004F
:1001B000000000000000000000000000000000003F
:1001C000000000000000000000000000000000002F
:1001D000000000000000000000000000000000001F
:0401E0005FF8E0F1F3
:1001F00010B5054C237833B9044B13B10448AFF361
:1002000000800123237010BDC40000200000000006
:100210000CB1000808B5034B1BB103490348AFF309
:10022000008008BD00000000C80000200CB10008DC
:10023000034613F8012B002AFBD1181A0138704726
:1002400053B94AB9002908BF00281CBF4FF0FF313D
:100250004FF0FF3000F076B9ADF1080C6DE904CE37
:1002600000F006F8DDF804E0DDE9022304B0704791
:100270002DE9F047089E0D4604468846002B4DD1D7
:100280008A42944668D9B2FA82F252B101FA02F374
:10029000C2F1200120FA01F10CFA02FC41EA030844
:1002A00094404FEA1C41B8FBF1F71FFA8CFE01FBAA
:1002B000178807FB0EF0230C43EA084398420AD93B
:1002C0001CEB030307F1FF3580F01E81984240F2DA
:1002D0001B81023F63441B1AB3FBF1F001FB103397
:1002E00000FB0EFEA4B244EA0344A6450AD91CEB67
:1002F000040400F1FF3380F00981A64540F2068135
:10030000644402380021A4EB0E0440EA07401EB109
:100310000023D440C6E90043BDE8F0878B4208D9EA
:10032000002E00F0EE800021C6E900050846BDE879
:10033000F087B3FA83F100294AD1AB4202D382425B
:1003400000F2FC80841A65EB030301209846002E1E
:10035000E2D0C6E90048DFE702B9FFDEB2FA82F276
:10036000002A40F09180A1EB0C0001214FEA1C47CC
:100370001FFA8CFEB0FBF7F307FB1300250C45EAD0
:1003800000450EFB03F0A84208D91CEB050503F15C
:10039000FF3802D2A84200F2CE8043462D1AB5FBA8
:1003A000F7F007FB10550EFB00FEA4B244EA05442B
:1003B000A64508D91CEB040400F1FF3502D2A6457E
:1003C00000F2B6802846A4EB0E0440EA03409EE704
:1003D000C1F120078B4022FA07FC4CEA030C25FAF6
:1003E00007FA4FEA1C49BAFBF9F820FA07F309FBB0
:1003F00018AA8D401FFA8CFE1D4300FA01F308FB7A
:100400000EF02C0C44EA0A44A04202FA01F20BD985
:100410001CEB040408F1FF3A80F08880A04240F20F
:100420008580A8F102086444241AB4FBF9F009FBA2
:10043000104400FB0EFEADB245EA0444A64508D9BF
:100440001CEB040400F1FF356CD2A6456AD90238D2
:10045000644440EA0840A0FB0295A4EB0E04AC42C1
:10046000C846AE4656D353D0002E69D0B3EB08022F
:1004700064EB0E0422FA01F304FA07F71F43CC40A1
:10048000C6E90074002147E70CFA02FCC2F1200122
:1004900025FA01F34FEA1C4720FA01F195400D437C
:1004A000B3FBF7F107FB11331FFA8CFE280C40EA6F
:1004B000034001FB0EF3834204FA02F408D91CEB5B
:1004C000000001F1FF382FD283422DD90239604458
:1004D000C01AB0FBF7F307FB1300ADB245EA0045C5
:1004E00003FB0EF0A84208D91CEB050503F1FF3809
:1004F00016D2A84214D9023B6544281A43EA0141A6
:1005000038E73146304607E72F46E4E61846F9E675
:100510004B45A9D2B9EB020865EB0C0E0138A3E7F5
:100520004346EAE7284694E74146D1E7D0467BE7D1
:100530006444023847E7023B65442FE7084606E774
:100540003146E9E6704700BF80B582B000AF786001
:10055000396001223968786807F014FD0346002BE2
:1005600001D1002300E0012318460837BD4680BDB5
:1005700080B58CB000AF78607B68002283F81029CA
:100580007B68002283F818297B68012283F81929E7
:1005900003F04AFF0023FB6280E007F11403FA6ACC
:1005A000534918460AF0ECF9FB6A4FF4117202FB4A
:1005B00003F37A68134407F1140211461846FFF753
:1005C000C3FF0346002B5BD17A68FB6A4FF41171BD
:1005D00001FB03F3134403F50E7300221A707B68CA
:1005E00093F818390133DAB27B6883F8182907F1D8
:1005F0000C0207F1100107F11403184608F03FFC44
:100600000346002B47D17A68FB6A4FF4117101FB56
:1006100003F313441C331B68023B7968FA6A4FF4F6
:10062000117000FB02F20A440A32128802FB03F343
:100630007B627A68FB6A4FF4117101FB03F3134488
:100640000A331B881A463B6902FB03F33B627B6A51
:100650005A087968FB6A4FF4117000FB03F30B44EE
:1006600003F50F731A603B6A5A087968FB6A4FF406
:10067000117000FB03F30B4403F510731A600AE0DA
:100680007A68FB6A4FF4117101FB03F3134403F51D
:100690000E7301221A70FB6A0133FB62FB6A032BA3
:1006A0007FF77BAF0023BB6219E07A68BB6A4FF427
:1006B000117101FB03F3134403F50E731B78002B38
:1006C0000AD1BB6ADAB27B6883F810297B68002202
:1006D00083F81929002306E0BB6A0133BB62BB6AB9
:1006E000032BE2DD012318463037BD4680BD00BF35
:1006F00024B1000880B485B000AFF8607B600B4681
:10070000FB7213463B81FB7A07493A8921F8332073
:10071000FB7A054ADB0013447A685A6000231846C6
:100720001437BD4680BC7047E80D002080B485B00A
:1007300000AFF860B9607A60FB68064A1A60BB686F
:10074000054A1A607B6880221A6000BF1437BD46D4
:1007500080BC7047E000002094010020B0B588B054
:1007600000AF00F05DFF00F021F800F0EFF800F0BE
:10077000C7F800F09BF800F063F80A4B3C1D1D46DB
:100780000FCD0FC495E8070084E807003B1D00214A
:10079000184608F0B1FD0346034A136008F0A5FDB2
:1007A000FEE700BF34B10008B804002080B594B063
:1007B00000AF07F1180338220021184609F0CAFFDC
:1007C0003B1D00221A605A609A60DA601A610223A7
:1007D000BB610123FB6210233B630023FB61022307
:1007E000BB630023FB634FF4E0133B6400237B6493
:1007F00007F11803184601F0B5FD0346002B01D0A0
:1008000000F00AFA0F237B600223BB600023FB6029
:100810004FF480633B6100237B613B1D012118463F
:1008200002F0B6F80346002B01D000F0F5F9034BB7
:1008300001221A6000BF5037BD4680BD70004242A1
:1008400080B500AF174B184A1A60164B4FF48272EE
:100850005A60144B00229A60124B0022DA60114B4E
:1008600000221A610F4B00225A610E4B4FF40072A6
:100870009A610C4B0022DA610A4B00221A62094B82
:1008800000225A62074B00229A62064B0A22DA6261
:10089000044802F0C5FA0346002B01D000F0BCF971
:1008A00000BF80BD940300200030014080B500AF40
:1008B000114B124A1A60104B4FF4E1325A600E4B42
:1008C00000229A600C4B0022DA600B4B00221A6166
:1008D000094B0C225A61084B00229A61064B0022F8
:1008E000DA61054803F0C8F80346002B01D000F098
:1008F00093F900BF80BD00BF7404002000380140A0
:1009000080B582B000AF104B5B690F4A43F0010322
:1009100053610D4B5B6903F001037B607B68002230
:1009200005210C2000F063FF0C2000F07CFF00226A
:1009300005210D2000F05BFF0D2000F074FF00BFCB
:100940000837BD4680BD00BF0010024080B588B0AA
:1009500000AF07F1100300221A605A609A60DA6053
:100960002C4B9B692B4A43F020039361294B9B69D5
:1009700003F02003FB60FB68264B9B69254A43F08C
:1009800010039361234B9B6903F01003BB60BB68AA
:10099000204B9B691F4A43F0040393611D4B9B69E5
:1009A00003F004037B607B681A4B9B69194A43F090
:1009B00008039361174B9B6903F008033B603B6896
:1009C00001220221144801F0B5FC012286211348BE
:1009D00001F0B0FC02233B6101237B610023BB617A
:1009E0000323FB6107F1100319460B4801F01EFBBE
:1009F00086233B6101237B610023BB610323FB61F1
:100A000007F110031946054801F010FB00BF20371D
:100A1000BD4680BD001002400010014000080140AA
:100A200080B5ADF52A7D00AF07F52A73A3F52973CC
:100A300018604FF4FA7008F0ABFC07F522736349B5
:100A4000184609F09DFF07F522731846FFF7F0FBE3
:100A500003469AB207F5227164235D4803F059F802
:100A60005C4B022200215C48FFF744FE594B0422F4
:100A700001215948FFF73EFE584B022202215648F9
:100A8000FFF738FE534B802203215348FFF732FE15
:100A900007F522735249184609F072FF07F52273D1
:100AA0001846FFF7C5FB03469AB207F52271642387
:100AB000474803F02EF810E007F522731846FFF7B9
:100AC000B7FB03469AB207F522716423404803F04E
:100AD00020F84FF47A7008F05BFC3F48FFF748FDC0
:100AE0000346002BE8D13C4B93F818391A4607F51A
:100AF00022733C49184609F043FF07F52273184654
:100B0000FFF796FB03469AB207F52271642330483B
:100B100002F0FFFF304B93F8103919462E4A4FF47C
:100B2000117301FB03F3134403F510731A6807F5FF
:100B300022732D49184609F023FF07F52273184642
:100B4000FFF776FB03469AB207F52271642320482B
:100B500002F0DFFF204B93F810391A4607F51D739A
:100B60002249184609F00CFF07F51D7107F118031B
:100B70000A22184607F04CFA07F1140307F118008F
:100B800004221B4907F07FFE07F11803184608F0FE
:100B90004CF907F51D7107F118030122184607F0FB
:100BA00037FA07F1140307F1080107F118000422CE
:100BB00007F0EFFC07F1080164230422044802F067
:100BC000A8FF012008F0E4FBFBE700BF50B10008DC
:100BD0007404002000080140BC0400200010014003
:100BE0006CB100087CB1000890B10008A4B1000805
:100BF000B0B1000880B582B000AF78607B681B6838
:100C0000044A934201D100F021FD00BF0837BD46E0
:100C100080BD00BF002C014080B400AF72B600BFA1
:100C2000FEE7000080B483B000AF0346FB71FB79A0
:100C3000084A32F83320084B1A80FB79054ADB005A
:100C400013445B68054A136000BF0C37BD4680BC87
:100C5000704700BFE80D0020E20D0020E40D0020E9
:100C600080B500AF044B1B68044A11880022184667
:100C700001F060FB00BF80BDE40D0020E20D00200C
:100C800080B500AF044B1B68044A11880122184646
:100C900001F050FB00BF80BDE40D0020E20D0020FC
:100CA00080B584B000AF03463960FB7197F9073017
:100CB000002B0EDAFB7903F07F03FB710021772014
:100CC000FFF7EEFF0346BB73BB7B012B01D9BB7B58
:100CD00043E0FFF7D5FF00F068F9FFF7C1FF00F030
:100CE00064F9FB79184600F053F93B681B0EDBB240
:100CF000184600F04DF93B681B0CDBB2184600F0BB
:100D000047F93B681B0ADBB2184600F041F93B6823
:100D1000DBB2184600F03CF90123FB73FB79402B52
:100D200001D19523FB73FB79482B01D18723FB73FA
:100D3000FB7B184600F02CF90A23FB7300F035F911
:100D40000346BB7397F90E30002B05DAFB7B013BA2
:100D5000FB73FB7B002BF1D1BB7B18461037BD46E4
:100D600080BD000090B583B000AF574B00221A70D1
:100D7000FFF776FF00214020FFF792FF0346012B8B
:100D800040F09A8000F01EF94FF4D5714820FFF72B
:100D900087FF0346012B57D10023FB710CE0FC7940
:100DA00000F003F903461A4604F108033B4403F834
:100DB000082CFB790133FB71FB79032BEFD9BB784E
:100DC000012B7BD1FB78AA2B78D142F6E063BB8064
:100DD00005E0B7F904309BB2013B9BB2BB80B7F989
:100DE0000430002B07D04FF08041E920FFF758FF77
:100DF0000346002BEDD1B7F90430002B5ED0002163
:100E00007A20FFF74DFF0346002B57D10023FB71DB
:100E10000CE0FC7900F0C9F803461A4604F1080317
:100E20003B4403F8082CFB790133FB71FB79032B5E
:100E3000EFD93B7803F04003002B01D00C2200E0F7
:100E40000422214B1A7039E00021E920FFF728FF26
:100E50000346012B05D81C4B02221A70E923BB71F3
:100E600004E0194B01221A704123BB7146F2A8130A
:100E7000BB8005E0B7F904309BB2013B9BB2BB805D
:100E8000B7F90430002B07D0BB7900211846FFF7D3
:100E900007FF0346002BEDD1B7F90430002B07D034
:100EA0004FF400715020FFF7FBFE0346002B05D0E6
:100EB000054B00221A7001E0012300E000231846D0
:100EC0000C37BD4690BD00BFE00D002080B400AFE0
:100ED00000BFBD4680BC704780B582B000AF002324
:100EE000FB8000F062F803467B71FB880133FB80D6
:100EF0007B79FF2B04D0FB884FF6FF729342F0D131
:100F0000FB884FF6FF72934201D1012300E07B7909
:100F100018460837BD4680BD80B584B002AF786002
:100F200039603B689BB24FF0FF320092074A796804
:100F3000074801F0F9FF0346002B01D1002300E030
:100F4000012318460837BD4680BD00BF080E0020AB
:100F50009403002080B586B002AF0346FB710023E6
:100F6000FB7307F10F02F91D4FF480530093012327
:100F7000064801F0D9FF0346002B01D0FFF7A6FF7A
:100F8000FB7B18461037BD4680BD00BF9403002090
:100F900080B582B000AF0346FB71FB791846FFF7BE
:100FA000D9FF00BF0837BD4680BD80B582B000AF15
:100FB000FF20FFF7CFFF0346FB71FB791846083788
:100FC000BD4680BD80B500AFFF20FFF7C3FF00BF67
:100FD00080BD90B585B000AF786039603968512028
:100FE000FFF75EFE03467B737B7B002B01D005235E
:100FF0002FE0FFF7E7FF0023FB81FFF7D6FF034653
:101000007B73FB890133FB817B7BFE2B04D0FB8947
:101010004FF6FF729342F0D1FB894FF6FF72934275
:1010200001D1052315E00023FB8109E0FB897A68E3
:10103000D418FFF7BAFF03462370FB890133FB8105
:10104000FB89B3F5007FF1D3FFF7BCFFFFF7BAFFD1
:10105000002318461437BD4690BD000080B588B007
:1010600000AFF860B9601346FB8008F03DFD034611
:10107000394A1360B9685920FFF712FE0346FB7521
:10108000FB7D002B01D0062361E0FFF79BFF0023CF
:10109000BB6135E0FC20FFF77BFF4FF40071F8687F
:1010A000FFF73AFFFB6803F50073FB60FFF78AFF69
:1010B000FFF788FFFFF779FF0346FB75FB7D03F021
:1010C0001F03052B01D0062341E00023FB83FFF71C
:1010D0006CFF0346FB75FB8B0133FB83FB7DFF2B12
:1010E00004D0FB8B4FF6FF729342F0D1FB8B4FF68F
:1010F000FF72934201D1062329E0BB690133BB6132
:10110000FB88BA699A42C5DBFD20FFF741FFFFF774
:1011100059FF0023FB83FFF748FF0346FB75FB8B5A
:101120000133FB83FB7DFF2B04D0FB8B4FF6FF725B
:101130009342F0D1FB8B4FF6FF72934201D106230D
:1011400005E008F0D1FC0346044A1360002318466A
:101150002037BD4680BD00BFD80D0020DC0D00202B
:1011600080B584B000AF184B9B69174A43F0010368
:101170009361154B9B6903F00103BB60BB68124B85
:10118000DB69114A43F08053D3610F4BDB6903F0F5
:1011900080537B607B6800220F216FF0010000F01C
:1011A00026FB0A4B5B68FB60FB6823F0E063FB6097
:1011B000FB6843F00073FB60044AFB68536000BFA8
:1011C0001037BD4680BD00BF001002400000014046
:1011D00080B58AB000AF786007F1140300221A606E
:1011E0005A609A60DA607B681B684D4A934240F00F
:1011F00092804C4B9B694B4A43F480539361494B1B
:101200009B6903F480533B613B69464B9B69454AAC
:1012100043F008039361434B9B6903F00803FB60B1
:10122000FB6828237B610223BB6103233B6207F138
:10123000140319463C4800F0F9FE10237B6100239B
:10124000BB610023FB6107F114031946364800F027
:10125000EDFE364B5B687B627B6A43F0E0637B624A
:101260007B6A43F001037B62304A7B6A5360304BF8
:10127000304A1A602E4B00225A602D4B00229A6091
:101280002B4B8022DA602A4B00221A61284B002265
:101290005A61274B00229A61254B0022DA612448CB
:1012A00000F0D0FA0346002B01D0FFF7B5FC7B68B5
:1012B0001F4ADA641E4A7B6853621F4B1F4A1A603A
:1012C0001D4B10225A601C4B00229A601A4B802240
:1012D000DA60194B00221A61174B00225A61164B33
:1012E00000229A61144B0022DA61134800F0AAFA36
:1012F0000346002B01D0FFF78FFC7B680E4A9A64EF
:101300000D4A7B68536200220521232000F06FFA0A
:10131000232000F088FA00BF2837BD4680BD00BFFB
:101320000030014000100240000C0140000001406C
:10133000EC0300201C00024030040020300002407A
:1013400080B588B000AF786007F1100300221A6002
:101350005A609A60DA607B681B68204A934239D1F0
:101360001F4B9B691E4A43F4804393611C4B9B694E
:1013700003F48043FB60FB68194B9B69184A43F0F8
:1013800004039361164B9B6903F00403BB60BB68C5
:101390004FF400733B6102237B610323FB6107F180
:1013A000100319460F4800F041FE4FF480633B6183
:1013B00000237B610023BB6107F110031946094834
:1013C00000F034FE00220521252000F010FA25202F
:1013D00000F029FA00BF2037BD4680BD003801402B
:1013E000001002400008014080B58CB000AF78606A
:1013F0000023BB6200237B62002387F82F302E4B33
:101400009B692D4A43F4006393612B4B9B6903F462
:101410000063BB60BB6807F10C0207F110031146C3
:10142000184601F0AFFC01F099FCB862BB6A234A90
:10143000A2FB03239B0C013B7B62214B214A1A60D8
:101440001F4B40F2E732DA601D4A7B6A53601C4B47
:1014500000221A611A4B00229A60194B00229A61ED
:10146000174802F0ADF8034687F82F3097F82F3071
:10147000002B1BD1124802F0FBF8034687F82F30EF
:1014800097F82F30002B11D1192000F0CCF97B6890
:101490000F2B08D800227968192000F0A8F90A4A11
:1014A0007B68136002E0012387F82F3097F82F3014
:1014B00018463037BD4680BD0010024083DE1B4316
:1014C00008100020002C01400400002080B400AF70
:1014D000FEE780B400AFFEE780B400AFFEE780B463
:1014E00000AFFEE780B400AFFEE780B400AF00BFFE
:1014F000BD4680BC7047000080B500AF024800F0D8
:1015000059FB00BF80BD00BFEC03002080B500AFD9
:10151000024800F04FFB00BF80BD00BF3004002038
:1015200080B500AF024802F0FDF800BF80BD00BFEB
:101530000810002080B500AF024801F097FE00BF00
:1015400080BD00BF9403002080B500AF024802F0C8
:1015500073FB00BF80BD00BF7404002080B586B05F
:1015600000AF7860144A154BD31A7B617B693B61ED
:10157000134B1B68002B02D1114B124A1A60104BFF
:101580001A687B6813443A699A4207D209F0A8F8AE
:1015900003460C221A604FF0FF3309E0084B1B682A
:1015A000FB60074B1A687B681344054A1360FB68AD
:1015B00018461837BD4680BD000001200004000019
:1015C000501000205845002080B400AF00BFBD4639
:1015D00080BC70470C480D490D4A002302E0D458E6
:1015E000C4500433C4188C42F9D30A4A0A4C00236D
:1015F00001E013600432A242FBD3FFF7E5FF09F0DC
:1016000075F8FFF7ABF8704700000020C400002019
:1016100030B70008C400002054450020FEE7000059
:1016200080B500AF084B1B68074A43F010031360F6
:10163000032000F0D1F80F20FFF7D6FEFFF790FD52
:101640000023184680BD00BF0020024080B400AFD8
:10165000054B1B781A46054B1B681344034A13605D
:1016600000BFBD4680BC7047080000205410002019
:1016700080B400AF024B1B681846BD4680BC704763
:101680005410002080B485B000AF78607B6803F010
:101690000703FB600C4BDB68BB60BA684FF6FF03C7
:1016A0001340BB60FB681A02BB68134343F0BF637F
:1016B00043F40033BB60044ABB68D36000BF1437F7
:1016C000BD4680BC704700BF00ED00E080B400AFB5
:1016D000044BDB681B0A03F007031846BD4680BCB9
:1016E000704700BF00ED00E080B483B000AF034658
:1016F000FB7197F90730002B0BDBFB7903F01F021E
:10170000064997F907305B09012000FA02F241F817
:10171000232000BF0C37BD4680BC704700E100E0CD
:1017200080B483B000AF03463960FB7197F907308E
:10173000002B0ADB3B68DAB20C4997F9073012013B
:10174000D2B20B4483F800230AE03B68DAB20849BE
:10175000FB7903F00F03043B1201D2B20B441A765B
:1017600000BF0C37BD4680BC704700BF00E100E001
:1017700000ED00E080B489B000AFF860B9607A6035
:10178000FB6803F00703FB61FB69C3F10703042B4C
:1017900028BF0423BB61FB690433062B02D9FB6914
:1017A000033B00E000237B614FF0FF32BB6902FA8C
:1017B00003F3DA43BB681A407B699A404FF0FF316C
:1017C0007B6901FA03F3D9437B680B401343184646
:1017D0002437BD4680BC704780B582B000AF7860CA
:1017E0007868FFF74FFF00BF0837BD4680BD80B562
:1017F00086B000AF0346B9607A60FB7300237B615B
:10180000FFF764FF78617A68B9687869FFF7B2FF1B
:10181000024697F90F3011461846FFF781FF00BFC7
:101820001837BD4680BD80B582B000AF0346FB715E
:1018300097F907301846FFF757FF00BF0837BD4636
:1018400080BD000080B485B000AF78600023FB60ED
:101850007B68002B01D1012359E07B681B681A4685
:101860002D4B9A420FD87B681B681A462B4B1344AA
:101870002B4AA2FB03231B099A007B681A647B682E
:10188000284ADA630EE07B681B681A46264B13442D
:10189000234AA2FB03231B099A007B681A647B6816
:1018A000224ADA637B68022283F821207B681B6866
:1018B0001B68FB60FB6823F47F5323F03003FB605D
:1018C0007B685A687B689B681A437B68DB681A43AD
:1018D0007B681B691A437B685B691A437B689B6959
:1018E0001A437B68DB691343FA681343FB607B6828
:1018F0001B68FA681A607B6800229A637B68012281
:1019000083F821207B68002283F8202000231846DA
:101910001437BD4680BC704707040240F8FFFDBF86
:10192000CDCCCCCC00000240F8FBFDBF000402404F
:1019300080B485B000AF78600023FB737B6893F8B8
:101940002130022B08D07B6804229A637B68002236
:1019500083F82020012320E07B681B681A687B68DD
:101960001B6822F00E021A607B681B681A687B688D
:101970001B6822F001021A607B681A6C7B68DB6BC3
:10198000012101FA02F25A607B68012283F82120CA
:101990007B68002283F82020FB7B18461437BD4665
:1019A00080BC704780B584B000AF78600023FB73C3
:1019B0007B6893F82130022B05D07B6804229A6360
:1019C0000123FB73D6E07B681B681A687B681B6881
:1019D00022F00E021A607B681B681A687B681B681D
:1019E00022F001021A607B681B681A46644B9A4217
:1019F00058D97B681B68634A93424FD07B681B6849
:101A0000614A934248D07B681B68604A934240D049
:101A10007B681B685E4A934238D07B681B685D4ACE
:101A2000934230D07B681B685B4A934228D07B6826
:101A30001B68534A934220D07B681B68574A9342E5
:101A400019D07B681B68564A934212D07B681B688A
:101A5000544A93420AD07B681B68534A934202D18E
:101A60004FF480531BE04FF4803318E04FF4807341
:101A700015E0102313E0012311E04FF080730EE016
:101A80004FF480130BE04FF4803308E04FF48053A1
:101A900005E04FF4807302E0102300E00123434A85
:101AA000536057E07B681B68364A93424FD07B688F
:101AB0001B68354A934248D07B681B68334A93427F
:101AC00040D07B681B68324A934238D07B681B68E1
:101AD000304A934230D07B681B682F4A934228D00B
:101AE0007B681B68264A934220D07B681B682B4A80
:101AF000934219D07B681B68294A934212D07B68B5
:101B00001B68284A93420AD07B681B68264A934286
:101B100002D14FF480531BE04FF4803318E04FF4B0
:101B2000807315E0102313E0012311E04FF0807360
:101B30000EE04FF480130BE04FF4803308E04FF4D5
:101B4000805305E04FF4807302E0102300E001238E
:101B5000174A53607B68012283F821207B680022AA
:101B600083F820207B685B6B002B03D07B685B6B6A
:101B700078689847FB7B18461037BD4680BD00BF8C
:101B800080000240080002401C0002403000024079
:101B900044000240580002406C0002400804024029
:101BA0001C0402403004024044040240000402408D
:101BB0000000024080B584B000AF78607B68DB6BCA
:101BC0001B68FB607B681B681B68BB607B681B6CC9
:101BD00004229A40FB681340002B00F0F180BB68A0
:101BE00003F00403002B00F0EB807B681B681B688C
:101BF00003F02003002B07D17B681B681A687B6801
:101C00001B6822F004021A607B681B681A465F4B4F
:101C10009A4258D97B681B685D4A93424FD07B68D3
:101C20001B685C4A934248D07B681B685A4A9342BF
:101C300040D07B681B68594A934238D07B681B6848
:101C4000574A934230D07B681B68564A934228D04B
:101C50007B681B684D4A934220D07B681B68524AC0
:101C6000934219D07B681B68504A934212D07B681C
:101C70001B684F4A93420AD07B681B684D4A9342C7
:101C800002D14FF480431BE04FF4802318E04FF45F
:101C9000806315E0402313E0042311E04FF08063DC
:101CA0000EE04FF480030BE04FF4802308E04FF484
:101CB000804305E04FF4806302E0402300E004230A
:101CC0003D4A536057E07B681B68314A93424FD0CE
:101CD0007B681B682F4A934248D07B681B682E4A5A
:101CE000934240D07B681B682C4A934238D07B6873
:101CF0001B682B4A934230D07B681B68294A934269
:101D000028D07B681B68214A934220D07B681B68DF
:101D1000254A934219D07B681B68244A934212D00B
:101D20007B681B68224A93420AD07B681B68214A61
:101D3000934202D14FF480431BE04FF4802318E01C
:101D40004FF4806315E0402313E0042311E04FF0CB
:101D500080630EE04FF480030BE04FF4802308E033
:101D60004FF4804305E04FF4806302E0402300E03D
:101D70000423124A53607B68DB6A002B00F0368133
:101D80007B68DB6A7868984730E100BF80000240DA
:101D9000080002401C0002403000024044000240A3
:101DA000580002406C000240080402401C0402403B
:101DB000300402404404024000040240000002409B
:101DC0007B681B6C02229A40FB681340002B00F0DA
:101DD000DD80BB6803F00203002B00F0D7807B6836
:101DE0001B681B6803F02003002B0BD17B681B686A
:101DF0001A687B681B6822F00A021A607B6801225D
:101E000083F821207B681B681A467B4B9A4258D97D
:101E10007B681B68794A93424FD07B681B68784A7D
:101E2000934248D07B681B68764A934240D07B68D7
:101E30001B68754A934238D07B681B68734A93428B
:101E400030D07B681B68724A934228D07B681B683D
:101E5000694A934220D07B681B686E4A934219D02E
:101E60007B681B686C4A934212D07B681B686B4A84
:101E700093420AD07B681B68694A934202D14FF4AF
:101E800000531BE04FF4003318E04FF4007315E0EB
:101E9000202313E0022311E04FF000730EE04FF413
:101EA00000130BE04FF4003308E04FF4005305E05B
:101EB0004FF4007302E0202300E00223594A5360EC
:101EC00057E07B681B684D4A93424FD07B681B6884
:101ED0004B4A934248D07B681B684A4A934240D0A1
:101EE0007B681B68484A934238D07B681B68474A26
:101EF000934230D07B681B68454A934228D07B6868
:101F00001B683D4A934220D07B681B68414A93423C
:101F100019D07B681B68404A934212D07B681B68CB
:101F20003E4A93420AD07B681B683D4A934202D1E5
:101F30004FF400531BE04FF4003318E04FF40073EC
:101F400015E0202313E0022311E04FF000730EE0B0
:101F50004FF400130BE04FF4003308E04FF400534C
:101F600005E04FF4007302E0202300E002232E4A34
:101F700053607B68002283F820207B689B6A002BDB
:101F800034D07B689B6A786898472FE07B681B6C2D
:101F900008229A40FB681340002B28D0BB6803F04E
:101FA0000803002B23D07B681B681A687B681B68BA
:101FB00022F00E021A607B681A6C7B68DB6B0121D1
:101FC00001FA02F25A607B6801229A637B6801225F
:101FD00083F821207B68002283F820207B681B6B1C
:101FE000002B04D07B681B6B7868984700BF00BF4C
:101FF0001037BD4680BD00BF80000240080002408F
:102000001C000240300002404400024058000240E0
:102010006C000240080402401C04024030040240EC
:1020200044040240000402400000024080B48BB02F
:1020300000AF7860396000237B6200233B6269E176
:1020400001227B6A02FA03F3FB613B681B68FA69B1
:102050001340BB61BA69FB699A4240F058813B6802
:102060005B689A4A93425ED0984A934275D8984AE0
:10207000934258D0964A93426FD8964A934252D090
:10208000944A934269D8944A93424CD0924A9342DC
:1020900063D8924A934246D0904A93425DD8122B1D
:1020A0002AD8122B59D801A252F823F02721000870
:1020B0000121000813210008552100085B210008B8
:1020C0005B2100085B2100085B2100085B21000800
:1020D0005B2100085B2100085B2100085B210008F0
:1020E0005B2100085B2100085B2100085B210008E0
:1020F000092100081D210008794A934213D02CE0E1
:102100003B68DB683B6229E03B68DB6804333B6289
:1021100024E03B68DB6808333B621FE03B68DB6818
:102120000C333B621AE03B689B68002B02D104230E
:102130003B6213E03B689B68012B05D108233B629F
:102140007B68FA691A6109E008233B627B68FA69D7
:102150005A6103E000233B6200E000BFBB69FF2B34
:1021600001D87B6801E07B6804337B61BB69FF2B8E
:1021700002D87B6A9B0002E07B6A083B9B003B61C4
:102180007B691A680F213B6901FA03F3DB431A40AC
:10219000396A3B6901FA03F31A437B691A603B68A9
:1021A0005B6803F08053002B00F0B1804D4B9B69BE
:1021B0004C4A43F0010393614A4B9B6903F00103CE
:1021C000BB60BB68484A7B6A9B08023352F82330E5
:1021D000FB607B6A03F003039B000F2202FA03F308
:1021E000DB43FA681340FB607B68404A934213D09C
:1021F0007B683F4A93420DD07B683E4A934207D0AA
:102200007B683D4A934201D1032306E0042304E0A6
:10221000022302E0012300E000237A6A02F00302B5
:1022200092009340FA681343FB602F497B6A9B0836
:102230000233FA6841F823203B685B6803F480337B
:10224000002B06D02D4B1A682C49BB6913430B6039
:1022500006E02A4B1A68BB69DB43284913400B6030
:102260003B685B6803F40033002B06D0234B5A68AD
:102270002249BB6913434B6006E0204B5A68BB6997
:10228000DB431E4913404B603B685B6803F48013DB
:10229000002B06D0194B9A681849BB6913438B6011
:1022A00006E0164B9A68BB69DB43144913408B6008
:1022B0003B685B6803F40013002B21D00F4BDA68F6
:1022C0000E49BB691343CB6021E000BF0000321010
:1022D0000000311000002210000021100000121038
:1022E00000001110001002400000014000080140F1
:1022F000000C0140001001400014014000040140A6
:102300000B4BDA68BB69DB4309491340CB607B6A3E
:1023100001337B623B681A687B6A22FA03F3002B65
:102320007FF48EAE00BF00BF2C37BD4680BC704727
:102330000004014080B483B000AF78600B467B801E
:1023400013467B707B78002B03D07A887B681A61F8
:1023500003E07B881A047B681A6100BF0C37BD4616
:1023600080BC704780B586B000AF78607B68002B7A
:1023700001D1012304E37B681B6803F00103002BF8
:1023800000F08780924B5B6803F00C03042B0CD0A9
:102390008F4B5B6803F00C03082B12D18C4B5B68EE
:1023A00003F48033B3F5803F0BD1894B1B6803F4F2
:1023B0000033002B6CD07B689B68002B68D1012315
:1023C000DEE27B689B68B3F5803F06D1804B1B68DB
:1023D0007F4A43F4803313602EE07B689B68002BB8
:1023E0000CD17B4B1B687A4A23F480331360784B03
:1023F0001B68774A23F4802313601DE07B689B6889
:10240000B3F5A02F0CD1724B1B68714A43F48023A3
:1024100013606F4B1B686E4A43F4803313600BE00C
:102420006B4B1B686A4A23F480331360684B1B684C
:10243000674A23F4802313607B689B68002B13D0CA
:10244000FFF716F9386108E0FFF712F902463B6919
:10245000D31A642B01D9032392E25D4B1B6803F46A
:102460000033002BF0D014E0FFF702F9386108E0E8
:10247000FFF7FEF802463B69D31A642B01D9032308
:102480007EE2534B1B6803F40033002BF0D100E0D5
:1024900000BF7B681B6803F00203002B63D04C4B2A
:1024A0005B6803F00C03002B0BD0494B5B6803F017
:1024B0000C03082B1CD1464B5B6803F48033002BC4
:1024C00016D1434B1B6803F00203002B05D07B6839
:1024D0005B69012B01D0012352E23D4B1B6823F0C5
:1024E000F8027B689B69DB00394913430B603AE0D3
:1024F0007B685B69002B20D0364B01221A60FFF706
:10250000B7F8386108E0FFF7B3F802463B69D31A21
:10251000022B01D9032333E22D4B1B6803F0020386
:10252000002BF0D02A4B1B6823F0F8027B689B69D4
:10253000DB00274913430B6015E0264B00221A608D
:10254000FFF796F8386108E0FFF792F802463B691A
:10255000D31A022B01D9032312E21D4B1B6803F08F
:102560000203002BF0D17B681B6803F00803002BEB
:102570003AD07B68DB69002B19D0174B01221A6017
:10258000FFF776F8386108E0FFF772F802463B691A
:10259000D31A022B01D90323F2E10D4B5B6A03F03E
:1025A0000203002BF0D0012000F01CFC1CE00A4BC1
:1025B00000221A60FFF75CF838610FE0FFF758F867
:1025C00002463B69D31A022B08D90323D8E100BF86
:1025D0000010024000004242800442429B4B5B6A72
:1025E00003F00203002BE9D17B681B6803F00403AE
:1025F000002B00F0A6800023FB75944BDB6903F0F1
:102600008053002B0DD1914BDB69904A43F08053EE
:10261000D3618E4BDB6903F08053BB60BB68012341
:10262000FB758B4B1B6803F48073002B18D1884B10
:102630001B68874A43F480731360FFF719F8386109
:1026400008E0FFF715F802463B69D31A642B01D95D
:10265000032395E17E4B1B6803F48073002BF0D0BD
:102660007B681B69012B06D1784B1B6A774A43F0C4
:10267000010313622DE07B681B69002B0CD1734BA7
:102680001B6A724A23F001031362704B1B6A6F4A84
:1026900023F0040313621CE07B681B69052B0CD13B
:1026A0006A4B1B6A694A43F004031362674B1B6A57
:1026B000664A43F0010313620BE0644B1B6A634AF2
:1026C00023F001031362614B1B6A604A23F0040389
:1026D00013627B681B69002B15D0FEF7C9FF3861B8
:1026E0000AE0FEF7C5FF02463B69D31A41F2883281
:1026F000934201D9032343E1544B1B6A03F00203C5
:10270000002BEED014E0FEF7B3FF38610AE0FEF7CD
:10271000AFFF02463B69D31A41F28832934201D996
:1027200003232DE1494B1B6A03F00203002BEED17A
:10273000FB7D012B05D1454BDB69444A23F08053D7
:10274000D3617B68DB6A002B00F08C803F4B5B68B9
:1027500003F48033B3F5803F0ED13C4B5B6803F04C
:102760000C03082B08D1394BDB6A03F48033B3F533
:10277000803F01D1012303E17B68DB6A022B4ED14C
:10278000324B1B6803F08053002B09D02F4BDB6AC0
:1027900003F0F0027B685B6B9A4201D00123EFE00B
:1027A0002C4B00221A60FEF763FF386108E0FEF749
:1027B0005FFF02463B69D31A642B01D90323DFE094
:1027C000224B1B6803F00063002BF0D11F4BDB6A28
:1027D00023F0F0027B685B6B1C491343CB621B4BFD
:1027E000DB6A23F470627B681B6B18491343CB626E
:1027F000184B01221A60FEF73BFF386108E0FEF734
:1028000037FF02463B69D31A642B01D90323B7E093
:102810000E4B1B6803F00063002BF0D022E00B4B43
:10282000DB6A0A4A23F48033D3620A4B00221A601F
:10283000FEF71EFF38610FE0FEF71AFF02463B6904
:10284000D31A642B08D903239AE000BF001002407A
:1028500000700040680042424B4B1B6803F000636D
:10286000002BE9D17B681B6A002B00F08880464B67
:102870005B6803F00C03082B68D07B681B6A022B93
:102880004DD1424B00221A60FEF7F2FE386108E09B
:10289000FEF7EEFE02463B69D31A022B01D9032351
:1028A0006EE0394B1B6803F00073002BF0D17B689E
:1028B0005B6AB3F5803F0FD1334BDA6A7B685B68A4
:1028C00031491343CB62304BDB6A23F00F027B6844
:1028D000DB682D491343CB622B4B5B6823F47412E6
:1028E0007B68596A7B689B6A0B43274913434B609B
:1028F000264B01221A60FEF7BBFE386108E0FEF7A6
:10290000B7FE02463B69D31A022B01D9032337E0F5
:102910001D4B1B6803F00073002BF0D02FE01B4B06
:1029200000221A60FEF7A4FE386108E0FEF7A0FE60
:1029300002463B69D31A022B01D9032320E0124B34
:102940001B6803F00073002BF0D118E07B681B6A52
:10295000012B01D1012313E00B4B5B68FB60FB688B
:1029600003F480327B685B6A9A4206D1FB6803F409
:1029700070127B689B6A9A4201D0012300E0002319
:1029800018461837BD4680BD001002406000424224
:1029900080B584B000AF786039607B68002B01D1CE
:1029A0000123D0E06A4B1B6803F007033A689A42A0
:1029B00010D9674B1B6823F0070265493B68134336
:1029C0000B60634B1B6803F007033A689A4201D01F
:1029D0000123B8E07B681B6803F00203002B20D0C2
:1029E0007B681B6803F00403002B05D0594B5B6820
:1029F000584A43F4E06353607B681B6803F00803A4
:102A0000002B05D0534B5B68524A43F4605353602C
:102A1000504B5B6823F0F0027B689B684D49134381
:102A20004B607B681B6803F00103002B40D07B6880
:102A30005B68012B07D1474B1B6803F40033002B65
:102A400015D101237FE07B685B68022B07D1414BE6
:102A50001B6803F00073002B09D1012373E03D4B89
:102A60001B6803F00203002B01D101236BE0394BFB
:102A70005B6823F003027B685B68364913434B6055
:102A8000FEF7F6FDF8600AE0FEF7F2FD0246FB688D
:102A9000D31A41F28832934201D9032353E02D4BDC
:102AA0005B6803F00C027B685B689B009A42EBD189
:102AB000274B1B6803F007033A689A4210D2244B55
:102AC0001B6823F0070222493B6813430B60204B2D
:102AD0001B6803F007033A689A4201D0012332E0F1
:102AE0007B681B6803F00403002B08D0194B5B685C
:102AF00023F4E0627B68DB68164913434B607B6814
:102B00001B6803F00803002B09D0124B5B6823F409
:102B100060527B681B69DB000E4913434B6000F079
:102B200021F802460B4B5B681B0903F00F030A49AF
:102B3000CB5C22FA03F3094A1360094B1B68184661
:102B4000FEF752FC002318461037BD4680BD00BF7B
:102B5000002002400010024034B2000800000020B3
:102B6000040000202DE9F04F99B000AF664B07F14B
:102B700034040FCB07C42380644B07F124040FCB2C
:102B800084E80F0000237B6500233B650023FB6581
:102B90000023FB640023BB650023BB6400237B642C
:102BA0005B4B5B687B657B6D03F00C03042B02D0F1
:102BB000082B03D09FE0574BBB659FE07B6D9B0CC0
:102BC00003F00F03403307F12002134413F82C3CA9
:102BD000FB647B6D03F48033002B00F084804C4B4E
:102BE000DB6A03F00F03403307F12002134413F8AC
:102BF0003C3C3B65464BDB6A03F48033002B60D0E2
:102C0000434BDB6A1B0903F00F030133BB64404BEA
:102C1000DB6A1B0A03F00F0302337B647B6C002228
:102C20003B617A61FB6C0022BB61FA61D7E9043435
:102C30002246D7E9060184460CFB02F2C7E90601E9
:102C40008C4618462146034603FB0CF31344024608
:102C5000B969A2FB01894B4499462E4B03FB09F24B
:102C6000002303FB08F313442A4AA8FB02AB5B448E
:102C70009B46BB6C0022BB60FA603B6D00223B6050
:102C80007A60D7E902342246D7E90089414601FB40
:102C900002F2CC4618462146034603FB0CF31344CC
:102CA00002464146A2FB015633441E462A4633469D
:102CB00050465946FDF7C4FA02460B461346FB65DB
:102CC00007E0FB6C134A03FB02F23B6DB2FBF3F32C
:102CD000FB6597F841301A46FB6C934208D1FB6DB7
:102CE0005B08FB6504E0FB6C0B4A02FB03F3FB652E
:102CF000FB6DBB6502E0094BBB6500BFBB6D1846B1
:102D00006437BD46BDE8F08FB8B10008C8B100080F
:102D1000001002408096980000093D0000127A00E1
:102D200080B400AF024B1B681846BD4680BC70479C
:102D30000000002080B500AFFFF7F2FF0246054B10
:102D40005B681B0A03F007030349CB5C22FA03F319
:102D5000184680BD0010024044B2000880B500AFA4
:102D6000FFF7DEFF0246054B5B68DB0A03F0070353
:102D70000349CB5C22FA03F3184680BD00100240E1
:102D800044B2000880B483B000AF786039607B68DB
:102D90000F221A60114B5B6803F003027B685A60D4
:102DA0000E4B5B6803F0F0027B689A600B4B5B682C
:102DB00003F4E0627B68DA60084B5B68DB0803F4CD
:102DC000E0627B681A61064B1B6803F007023B68F0
:102DD0001A6000BF0C37BD4680BC7047001002402F
:102DE0000020024080B485B000AF78600A4B1B68B9
:102DF0000A4AA2FB03235B0A7A6802FB03F3FB6027
:102E000000BFFB685A1EFA60002BF9D100BF00BF5B
:102E10001437BD4680BC704700000020D34D6210BF
:102E200080B582B000AF78607B68002B01D10123B0
:102E300076E07B685B6A002B08D17B685B68B3F542
:102E4000827F09D07B680022DA6105E07B6800227E
:102E50001A617B6800225A617B6800229A627B6853
:102E600093F85130DBB2002B06D17B68002283F847
:102E700050207868FEF7ACF97B68022283F8512075
:102E80007B681B681A687B681B6822F040021A6026
:102E90007B685B6803F482727B689B6803F404437D
:102EA0001A437B68DB6803F400631A437B681B6981
:102EB00003F002031A437B685B6903F001031A43C2
:102EC0007B689B6903F400731A437B68DB6903F03A
:102ED00038031A437B681B6A03F0800342EA03014C
:102EE0007B689B6A03F400527B681B680A431A6084
:102EF0007B689B691A0C7B681B6802F004025A60AD
:102F00007B681B68DA697B681B6822F40062DA61FF
:102F10007B6800225A657B68012283F851200023D8
:102F200018460837BD4680BD80B58CB000AFF8604C
:102F3000B9607A607B800123FB62002387F82B3025
:102F4000FB6893F85030012B01D102238AE1FB6822
:102F5000012283F85020FEF78BFB7862FB6893F820
:102F6000513087F82330FB685B68FB617B887B838B
:102F700097F82330012B0FD0FB69B3F5827F07D17F
:102F8000FB689B68002B03D197F82330042B03D0F8
:102F9000022387F82B305BE1BB68002B05D07B68F0
:102FA000002B02D07B88002B03D1012387F82B3024
:102FB0004EE1FB6893F85130DBB2042B03D0FB6881
:102FC000052283F85120FB6800225A65FB687A6865
:102FD0009A63FB687A88DA87FB687A889A87FB6845
:102FE000BA681A63FB687A88DA86FB687A889A86F8
:102FF000FB6800221A64FB6800225A64FB681B68A5
:103000001B6803F04003402B07D0FB681B681A685D
:10301000FB681B6842F040021A60FB68DB68B3F58E
:10302000006F78D1FB685B68002B02D07B8B012B93
:1030300066D1FB681B6B1A88FB681B68DA60FB684B
:103040001B6B9A1CFB681A63FB68DB8E9BB2013B0F
:103050009AB2FB68DA8653E0FB681B689B6803F052
:103060000203022B1BD1FB68DB8E9BB2002B16D018
:10307000FB6A012B13D1FB681B6B1A88FB681B686A
:10308000DA60FB681B6B9A1CFB681A63FB68DB8EBB
:103090009BB2013B9AB2FB68DA860023FB62FB68B5
:1030A0001B689B6803F00103012B19D1FB68DB8FC0
:1030B0009BB2002B14D0FB681B68DA68FB689B6B23
:1030C00092B21A80FB689B6B9A1CFB689A63FB6840
:1030D000DB8F9BB2013B9AB2FB68DA870123FB626C
:1030E000FEF7C6FA02467B6AD31ABA6B9A4207D831
:1030F000BB6BB3F1FF3F03D0032387F82B30A7E06E
:10310000FB68DB8E9BB2002BA6D1FB68DB8F9BB2EA
:10311000002BA1D17CE0FB685B68002B02D07B8B8D
:10312000012B6BD1FB681A6BFB681B680C331278A0
:103130001A70FB681B6B5A1CFB681A63FB68DB8EFA
:103140009BB2013B9AB2FB68DA8657E0FB681B68CA
:103150009B6803F00203022B1CD1FB68DB8E9BB241
:10316000002B17D0FB6A012B14D1FB681A6BFB688C
:103170001B680C3312781A70FB681B6B5A1CFB68B7
:103180001A63FB68DB8E9BB2013B9AB2FB68DA865E
:103190000023FB62FB681B689B6803F00103012BA3
:1031A00019D1FB68DB8F9BB2002B14D0FB681B6826
:1031B000DA68FB689B6BD2B21A70FB689B6B5A1C77
:1031C000FB689A63FB68DB8F9BB2013B9AB2FB689A
:1031D000DA870123FB62FEF74BFA02467B6AD31AB9
:1031E000BA6B9A4203D8BB6BB3F1FF3F02D1BB6B02
:1031F000002B03D1032387F82B3029E0FB68DB8EFB
:103200009BB2002BA2D1FB68DB8F9BB2002B9DD120
:103210007A6AB96BF86800F0B5F90346002B06D05E
:10322000012387F82B30FB6820225A6510E0FB68E9
:103230009B68002B0BD100237B61FB681B68DB685C
:103240007B61FB681B689B687B617B6900E000BF5A
:10325000FB68012283F85120FB68002283F850208C
:1032600097F82B3018463037BD4680BD80B588B002
:1032700000AF78607B681B685B68FB617B681B68DC
:103280009B68BB61BB699B0903F00103002B0FD155
:10329000BB6903F00103002B0AD0FB699B0903F013
:1032A0000103002B04D07B681B6C78689847BEE054
:1032B000BB695B0803F00103002B0AD0FB69DB0943
:1032C00003F00103002B04D07B685B6C786898479F
:1032D000ADE0BB695B0903F00103002B06D1BB69BC
:1032E0009B0903F00103002B00F0A180FB695B093F
:1032F00003F00103002B00F09A80BB699B0903F0E7
:103300000103002B23D07B6893F85130DBB2032BF1
:1033100011D07B685B6D43F004027B685A65002323
:103320007B617B681B68DB687B617B681B689B68D3
:103330007B617B690BE000233B617B681B68DB687A
:103340003B617B681B689B683B613B696FE0BB69C5
:103350005B0903F00103002B14D07B685B6D43F025
:1033600001027B685A650023FB607B681B689B68D1
:10337000FB607B681B681A687B681B6822F0400250
:103380001A60FB687B685B6D002B4FD07B681B6805
:103390005A687B681B6822F0E0025A607B68012251
:1033A00083F85120FB6903F00203002B04D1FB6971
:1033B00003F00103002B34D07B681B685A687B68DC
:1033C0001B6822F003025A607B68DB6C002B11D073
:1033D0007B68DB6C174A5A637B68DB6C1846FEF728
:1033E000E1FA0346002B05D07B685B6D43F0400299
:1033F0007B685A657B689B6C002B16D07B689B6C46
:103400000C4A5A637B689B6C1846FEF7CBFA03465E
:10341000002B0AD07B685B6D43F040027B685A65E5
:1034200003E0786800F008F800E000BF00BF203734
:10343000BD4680BD4B34000880B483B000AF7860D7
:1034400000BF0C37BD4680BC704780B584B000AF6C
:1034500078607B685B6AFB60FB680022DA87FB6848
:103460000022DA86F868FFF7E7FF00BF1037BD4695
:1034700080BD000080B588B000AFF860B9603B60E7
:103480001346FB71FEF7F4F80246BB6A9B1A3A68D2
:103490001344FB61FEF7ECF8B861394B1B685B0124
:1034A0001B0DFA6902FB03F37B6154E03B68B3F147
:1034B000FF3F50D0FEF7DCF80246BB69D31AFA6929
:1034C0009A4202D9FB69002B3DD1FB681B685A6800
:1034D000FB681B6822F0E0025A60FB685B68B3F58A
:1034E000827F11D1FB689B68B3F5004F04D0FB6865
:1034F0009B68B3F5806F07D1FB681B681A68FB688F
:103500001B6822F040021A60FB689B6AB3F5005FFB
:103510000FD1FB681B681A68FB681B6822F4005215
:103520001A60FB681B681A68FB681B6842F400524B
:103530001A60FB68012283F85120FB68002283F89F
:103540005020032317E07B69002B01D10023FB618E
:103550007B69013B7B61FB681B689A68BB68134011
:10356000BA689A420CBF01230023DBB21A46FB79EA
:103570009A429BD1002318462037BD4680BD00BF2C
:103580000000002080B586B002AFF860B9607A60B4
:103590007B680093BB6800228021F868FFF76AFF10
:1035A0000346002B07D0FB685B6D43F02002FB68ED
:1035B0005A65032300E0002318461037BD4680BD3E
:1035C00080B582B000AF78607B68002B01D1012309
:1035D00041E07B6893F83D30DBB2002B06D17B687D
:1035E000002283F83C20786800F039F87B680222DA
:1035F00083F83D207B681A687B68043319461046BF
:1036000000F0BCF97B68012283F846207B68012228
:1036100083F83E207B68012283F83F207B680122EB
:1036200083F840207B68012283F841207B680122D7
:1036300083F842207B68012283F843207B680122C3
:1036400083F844207B68012283F845207B680122AF
:1036500083F83D20002318460837BD4680BD80B45E
:1036600083B000AF786000BF0C37BD4680BC7047A8
:1036700080B485B000AF78607B6893F83D30DBB2F2
:10368000012B01D001233FE07B68022283F83D201B
:103690007B681B68DA687B681B6842F00102DA60AD
:1036A0007B681B681B4A934213D07B681B68B3F18D
:1036B000804F0ED07B681B68174A934209D07B6805
:1036C0001B68164A934204D07B681B68144A9342D5
:1036D00011D17B681B689B6803F00703FB60FB68E4
:1036E000062B10D07B681B681A687B681B6842F049
:1036F00001021A6007E07B681B681A687B681B6818
:1037000042F001021A60002318461437BD4680BCFF
:10371000704700BF002C014000040040000800403A
:10372000000C004080B582B000AF78607B681B68F9
:103730001B6903F00203022B22D17B681B68DB6844
:1037400003F00203022B1BD17B681B686FF002029F
:103750001A617B6801221A777B681B689B6903F0FA
:103760000303002B03D0786800F0EDF805E07868DB
:1037700000F0E0F8786800F0EFF87B6800221A7734
:103780007B681B681B6903F00403042B22D17B6850
:103790001B68DB6803F00403042B1BD17B681B68E8
:1037A0006FF004021A617B6802221A777B681B683B
:1037B0009B6903F44073002B03D0786800F0C3F8D2
:1037C00005E0786800F0B6F8786800F0C5F87B6826
:1037D00000221A777B681B681B6903F00803082B1B
:1037E00022D17B681B68DB6803F00803082B1BD120
:1037F0007B681B686FF008021A617B6804221A77E5
:103800007B681B68DB6903F00303002B03D0786837
:1038100000F099F805E0786800F08CF8786800F01E
:103820009BF87B6800221A777B681B681B6903F092
:103830001003102B22D17B681B68DB6803F0100398
:10384000102B1BD17B681B686FF010021A617B681C
:1038500008221A777B681B68DB6903F44073002B2E
:1038600003D0786800F06FF805E0786800F062F83F
:10387000786800F071F87B6800221A777B681B6813
:103880001B6903F00103012B0ED17B681B68DB6809
:1038900003F00103012B07D17B681B686FF0010265
:1038A0001A617868FDF7A6F97B681B681B6903F04D
:1038B0008003802B0ED17B681B68DB6803F08003DC
:1038C000802B07D17B681B686FF080021A617868D3
:1038D00000F0C9F87B681B681B6903F04003402BAC
:1038E0000ED17B681B68DB6803F04003402B07D1D7
:1038F0007B681B686FF040021A61786800F035F849
:103900007B681B681B6903F02003202B0ED17B68AA
:103910001B68DB6803F02003202B07D17B681B6842
:103920006FF020021A61786800F094F800BF083741
:10393000BD4680BD80B483B000AF786000BF0C3757
:10394000BD4680BC704780B483B000AF786000BFD4
:103950000C37BD4680BC704780B483B000AF786040
:1039600000BF0C37BD4680BC704780B483B000AF49
:10397000786000BF0C37BD4680BC704780B485B00E
:1039800000AF786039607B681B68FB607B682D4AFC
:1039900093420FD07B68B3F1804F0BD07B682A4AEB
:1039A000934207D07B68294A934203D07B68284A18
:1039B000934208D1FB6823F07003FB603B685B68AF
:1039C000FA681343FB607B681E4A93420FD07B6802
:1039D000B3F1804F0BD07B681B4A934207D07B68C2
:1039E0001A4A934203D07B68194A934208D1FB6874
:1039F00023F44073FB603B68DB68FA681343FB60A9
:103A0000FB6823F080023B685B691343FB607B68C3
:103A1000FA681A603B689A687B68DA623B681A68E1
:103A20007B689A627B68074A934203D13B681A69B4
:103A30007B681A637B6801225A6100BF1437BD4658
:103A400080BC7047002C014000040040000800408A
:103A5000000C004080B483B000AF786000BF0C372A
:103A6000BD4680BC704780B483B000AF786000BFB3
:103A70000C37BD4680BC704780B582B000AF78601F
:103A80007B68002B01D101233FE07B6893F83D3038
:103A9000DBB2002B06D17B68002283F83C207868DB
:103AA000FDF74EFC7B68242283F83D207B681B6871
:103AB000DA687B681B6822F40052DA60786800F0EC
:103AC00025FC7B681B681A697B681B6822F490429E
:103AD0001A617B681B685A697B681B6822F02A029E
:103AE0005A617B681B68DA687B681B6842F4005285
:103AF000DA607B6800221A647B68202283F83D200C
:103B00007B68202283F83E20002318460837BD46F4
:103B100080BD80B58AB002AFF860B9603B601346E3
:103B2000FB8000237B61FB6893F83D30DBB2202BE8
:103B30007CD1BB68002B02D0FB88002B01D1012374
:103B400075E0FB6893F83C30012B01D102236EE055
:103B5000FB68012283F83C20FB6800221A64FB68A2
:103B6000212283F83D20FDF783FD7861FB68FA8808
:103B70009A84FB68FA88DA84FB689B68B3F5805FF7
:103B800008D1FB681B69002B04D10023FB61BB68D3
:103B9000BB6103E0BB68FB610023BB61FB680022E3
:103BA00083F83C202AE03B6800937B690022802157
:103BB000F86800F011FA0346002B01D0032336E029
:103BC000FB69002B0BD1BB691B881A46FB681B687D
:103BD000C2F308025A60BB690233BB6107E0FB69AC
:103BE0001A78FB681B685A60FB690133FB61FB684C
:103BF000DB8C9BB2013B9AB2FB68DA84FB68DB8CFE
:103C00009BB2002BCFD13B6800937B6900224021FF
:103C1000F86800F0E1F90346002B01D0032306E029
:103C2000FB68202283F83D20002300E00223184691
:103C30002037BD4680BD000080B58AB000AF7860F7
:103C40007B681B681B687B627B681B68DB683B6268
:103C50007B681B685B69FB610023BB6100237B61A0
:103C60007B6A03F00F03BB61BB69002B0DD17B6A3C
:103C700003F02003002B08D03B6A03F02003002B45
:103C800003D0786800F099FA7BE1BB69002B00F063
:103C9000B180FB6903F00103002B05D13B6A03F4FB
:103CA0009073002B00F0A6807B6A03F00103002BC9
:103CB0000AD03B6A03F48073002B05D07B681B6C31
:103CC00043F001027B681A647B6A03F00403002B53
:103CD0000AD0FB6903F00103002B05D07B681B6C45
:103CE00043F002027B681A647B6A03F00203002B34
:103CF0000AD0FB6903F00103002B05D07B681B6C25
:103D000043F004027B681A647B6A03F00803002B0B
:103D10000FD03B6A03F02003002B04D1FB6903F0B2
:103D20000103002B05D07B681B6C43F008027B6805
:103D30001A647B681B6C002B00F01E817B6A03F009
:103D40002003002B07D03B6A03F02003002B02D096
:103D5000786800F032FA7B681B685B6903F0400307
:103D6000002B14BF01230023DBB27B617B681B6C3B
:103D700003F00803002B02D17B69002B31D0786857
:103D800000F074F97B681B685B6903F04003002B4B
:103D900023D07B681B685A697B681B6822F040024D
:103DA0005A617B689B6B002B13D07B689B6B764AB8
:103DB0005A637B689B6B1846FDF7F4FD0346002BA6
:103DC00016D07B689B6B5B6B7A68926B104698474A
:103DD0000EE0786800F0ECF80AE0786800F0E8F8A7
:103DE00006E0786800F0E4F87B6800221A64C3E01B
:103DF00000BFC1E07B681B6B012B40F0A1807B6A98
:103E000003F01003002B00F09B803B6A03F01003CB
:103E1000002B00F095800023FB607B681B681B680B
:103E2000FB607B681B685B68FB60FB687B681B68EA
:103E30005B6903F04003002B4ED07B689B6B1B68D3
:103E40005B683B823B8A002B00F098807B689B8DEF
:103E50003A8A9A4280F092807B683A8ADA857B6857
:103E60009B6B9B69202B2BD07B681B68DA687B6877
:103E70001B6822F48072DA607B681B685A697B6871
:103E80001B6822F001025A617B681B685A697B68D3
:103E90001B6822F040025A617B68202283F83E2092
:103EA0007B6800221A637B681B68DA687B681B6882
:103EB00022F01002DA607B689B6B1846FDF738FD34
:103EC0007B689A8D7B68DB8D9BB2D31A9BB21946B7
:103ED000786800F076F851E07B689A8D7B68DB8D1E
:103EE0009BB2D31A7B827B68DB8D9BB2002B47D0C1
:103EF0007B8A002B44D07B681B68DA687B681B6870
:103F000022F49072DA607B681B685A697B681B68D0
:103F100022F001025A617B68202283F83E207B68F0
:103F200000221A637B681B68DA687B681B6822F0D2
:103F30001002DA607B8A1946786800F042F81FE0C8
:103F40007B6A03F08003002B08D03B6A03F08003F8
:103F5000002B03D0786800F0C9F812E07B6A03F008
:103F60004003002B0DD03B6A03F04003002B08D028
:103F7000786800F00AF904E000BF02E000BF00E04A
:103F800000BF2837BD4680BDC540000880B483B05F
:103F900000AF786000BF0C37BD4680BC704780B46E
:103FA00083B000AF786000BF0C37BD4680BC70475F
:103FB00080B483B000AF786000BF0C37BD4680BCD2
:103FC000704780B483B000AF78600B467B8000BF41
:103FD0000C37BD4680BC704780B584B000AFF86038
:103FE000B9603B601346FB712CE0BB69B3F1FF3F46
:103FF00028D0BB69002B07D0FDF73AFB02463B688F
:10400000D31ABA699A421DD2FB681B68DA68FB684A
:104010001B6822F4D072DA60FB681B685A69FB687F
:104020001B6822F001025A61FB68202283F83D20C0
:10403000FB68202283F83E20FB68002283F83C20A6
:1040400003230FE0FB681B681A68BB681340BA685B
:104050009A420CBF01230023DBB21A46FB799A4235
:10406000C3D0002318461037BD4680BD80B483B04E
:1040700000AF78607B681B68DA687B681B6822F495
:104080009072DA607B681B685A697B681B6822F053
:1040900001025A617B681B6B012B07D17B681B688F
:1040A000DA687B681B6822F01002DA607B682022E5
:1040B00083F83E207B6800221A6300BF0C37BD46A0
:1040C00080BC704780B584B000AF78607B685B6A65
:1040D000FB60FB680022DA85FB680022DA84F8685E
:1040E000FFF766FF00BF1037BD4680BD80B485B0C6
:1040F00000AF78607B6893F83D30DBB2212B3ED176
:104100007B689B68B3F5805F14D17B681B69002BCB
:1041100010D17B681B6AFB60FB681B881A467B68B2
:104120001B68C2F308025A607B681B6A9A1C7B6892
:104130001A6208E07B681B6A591C7A6811621A7857
:104140007B681B685A607B68DB8C9BB2013B9BB22F
:104150007A681946D184002B0FD17B681B68DA6816
:104160007B681B6822F08002DA607B681B68DA6873
:104170007B681B6842F04002DA60002300E0022303
:1041800018461437BD4680BC704780B582B000AF7A
:1041900078607B681B68DA687B681B6822F04002E5
:1041A000DA607B68202283F83D207868FFF7EEFE16
:1041B000002318460837BD4680BD80B586B000AFE5
:1041C00078607B6893F83E30DBB2222B40F0998018
:1041D0007B689B68B3F5805F17D17B681B69002BF8
:1041E00013D100237B617B689B6A3B617B681B6802
:1041F0005B689BB2C3F308039AB23B691A807B6881
:104200009B6A9A1C7B689A6226E07B689B6A7B614A
:1042100000233B617B689B68B3F5805F07D07B68B8
:104220009B68002B0AD17B681B69002B06D17B6839
:104230001B685B68DAB27B691A7008E07B681B68F0
:104240005B68DBB203F07F03DAB27B691A707B68CC
:104250009B6A5A1C7B689A627B68DB8D9BB2013B30
:104260009BB27A681946D185002B48D17B681B68C0
:10427000DA687B681B6822F02002DA607B681B68C2
:10428000DA687B681B6822F48072DA607B681B68DE
:104290005A697B681B6822F001025A617B68202200
:1042A00083F83E207B681B6B012B23D17B680022A7
:1042B0001A637B681B68DA687B681B6822F010024F
:1042C000DA607B681B681B6803F01003102B0AD1AF
:1042D0000023FB607B681B681B68FB607B681B68B6
:1042E0005B68FB60FB687B689B8D19467868FFF70D
:1042F00068FE02E07868FFF752FE002302E0002328
:1043000000E0022318461837BD4680BD80B584B052
:1043100000AF78607B681B681B6923F440517B68A1
:10432000DA687B681B680A431A617B689A687B6855
:104330001B691A437B685B691343BB607B681B681E
:10434000DB6823F4B05323F00C037A681268B96871
:104350000B43D3607B681B685B6923F440717B6807
:104360009A697B681B680A435A617B681B682C4A00
:10437000934203D1FEF7F2FCF86002E0FEF7DAFCAC
:10438000F860FA6813469B0013449A001A447B684D
:104390005B689B00B2FBF3F3224AA2FB03235B0999
:1043A0001901FA6813469B0013449A001A447B686B
:1043B0005B689B00B2FBF3F21A4BA3FB02035B09A1
:1043C000642000FB03F3D31A1B013233154AA2FB0E
:1043D00003235B0903F0F0031944FA6813469B00BA
:1043E00013449A001A447B685B689B00B2FBF3F2AB
:1043F0000C4BA3FB02035B09642000FB03F3D31AFD
:104400001B013233074AA2FB03235B0903F00F02AF
:104410007B681B680A449A6000BF1037BD4680BDA8
:10442000003801401F85EB5180B500AF08490948AD
:1044300004F072FE0849094804F06EFE0849094874
:1044400004F06AFE0849094804F066FE00BF80BD1A
:10445000581000200C0000205C10002020000020DC
:10446000601000203400002064100020480000206C
:1044700080B400AF00231846BD4680BC704780B5AD
:1044800082B000AF0346FB710020FCF7CBFBFB7949
:10449000184600F039F8034618460837BD4680BD77
:1044A00080B582B000AF0346FB710120FCF7BAFB78
:1044B000FB79184600F028F8034618460837BD4631
:1044C00080BD80B582B000AF0346FB710220FCF7CF
:1044D000A9FBFB79184600F017F803461846083781
:1044E000BD4680BD80B582B000AF0346FB7103209E
:1044F000FCF798FBFB79184600F006F803461846CF
:104500000837BD4680BD000080B582B000AF0346CD
:10451000FB71FCF7A5FBFCF725FC0346002B07D13C
:10452000084B1B78DBB223F00103DAB2054B1A709B
:10453000FCF7A6FB034B1B78DBB218460837BD46D9
:1045400080BD00BF0900002080B582B000AF0346E7
:10455000FB710020FCF766FBFB79184600F038F889
:10456000034618460837BD4680BD80B582B000AF0F
:104570000346FB710120FCF755FBFB79184600F060
:1045800027F8034618460837BD4680BD80B582B07F
:1045900000AF0346FB710220FCF744FBFB79184691
:1045A00000F016F8034618460837BD4680BD80B5B2
:1045B00082B000AF0346FB710320FCF733FBFB79AD
:1045C000184600F005F8034618460837BD4680BD7A
:1045D00080B582B000AF0346FB71FCF741FBFB796D
:1045E000002B01D0012304E0FCF74AFB034B1B78AE
:1045F000DBB218460837BD4680BD00BF0900002069
:1046000080B584B000AFB9607A603B600346FB734D
:104610000020FCF707FBF87B3B687A68B96800F07C
:1046200047F8034618461037BD4680BD80B584B0B4
:1046300000AFB9607A603B600346FB730120FCF772
:10464000F1FAF87B3B687A68B96800F031F8034604
:1046500018461037BD4680BD80B584B000AFB96044
:104660007A603B600346FB730220FCF7DBFAF87BC1
:104670003B687A68B96800F01BF8034618461037A3
:10468000BD4680BD80B584B000AFB9607A603B6044
:104690000346FB730320FCF7C5FAF87B3B687A6896
:1046A000B96800F005F8034618461037BD4680BDCE
:1046B00080B584B000AFB9607A603B600346FB739D
:1046C000FCF7CEFAFB7B002B02D13B68002B01D11B
:1046D000042343E0234B1B78DBB203F00103002BE0
:1046E00001D003233AE0204B1B78DBB203F0040334
:1046F000002B02D17B685B027B603B68012B06D1FB
:104700007968B868FCF765FC00233B601CE07968B9
:10471000B868FCF75EFC144B1B78DBB203F00403B3
:10472000002B04D17B6803F500737B6002E07B689B
:1047300001337B60BB6803F50073BB603B68013BE2
:104740003B603B68002BE2D1FCF73CFCFCF798FA9D
:104750003B68002B14BF01230023DBB2184610373F
:10476000BD4680BD09000020E00D002080B584B06A
:1047700000AFB9607A603B600346FB730020FCF732
:1047800051FAF87B3B687A68B96800F047F803464D
:1047900018461037BD4680BD80B584B000AFB96003
:1047A0007A603B600346FB730120FCF73BFAF87B21
:1047B0003B687A68B96800F031F80346184610374C
:1047C000BD4680BD80B584B000AFB9607A603B6003
:1047D0000346FB730220FCF725FAF87B3B687A68F6
:1047E000B96800F01BF8034618461037BD4680BD77
:1047F00080B584B000AFB9607A603B600346FB735C
:104800000320FCF70FFAF87B3B687A68B96800F080
:1048100005F8034618461037BD4680BD80B586B002
:1048200000AFB9607A603B600346FB73FCF718FA8F
:10483000FB7B002B02D13B68002B01D104232CE031
:10484000184B1B78DBB203F00103002B01D00323CC
:1048500023E0144B1B78DBB203F00403002B01D0E0
:1048600002231AE0104B1B78DBB203F00403002B89
:1048700002D17B685B027B603B689BB21A46796819
:10488000B868FCF7EBFB0346FB75FCF7F9F9FB7D19
:10489000002B14BF01230023DBB218461837BD4696
:1048A00080BD00BF09000020E00D002080B582B06F
:1048B00000AF03463A60FB710B46BB710020FCF76A
:1048C000B1F9B979FB793A68184600F047F8034620
:1048D00018460837BD4680BD80B582B000AF03469C
:1048E0003A60FB710B46BB710120FCF79BF9B9796B
:1048F000FB793A68184600F031F803461846083745
:10490000BD4680BD80B582B000AF03463A60FB7102
:104910000B46BB710220FCF785F9B979FB793A683F
:10492000184600F01BF8034618460837BD4680BD00
:1049300080B582B000AF03463A60FB710B46BB7195
:104940000320FCF76FF9B979FB793A68184600F053
:1049500005F8034618460837BD4680BD80B584B0CB
:1049600000AF03463A60FB710B46BB71FB791846FA
:10497000FCF758F9FCF774F9FB79002B01D00423FC
:104980002AE0174B1B78DBB203F00103002B01D0A8
:10499000032321E00123FB73BB79002B02D0022B00
:1049A0000AD010E0FCF75CF9FCF796FA0346FF2BFF
:1049B0000CD10023FB7309E03B684FF400721A80AE
:1049C0000023FB7303E00423FB7300E000BFFCF74C
:1049D000F9FAFCF755F9FB7B18461037BD4680BD48
:1049E0000900002080B584B000AF0346FB71FB795D
:1049F000084A9B0013445B685B68FA7905490A44DE
:104A0000127D104698470346FB73FB7B1846103710
:104A1000BD4680BDFC14002080B584B000AF0346C5
:104A2000FB710023FB73FB790D4AD35C002B11D182
:104A3000FB790B4A0121D154FB79094A9B001344AD
:104A40005B681B68FA7906490A44127D104698474C
:104A50000346FB73FB7B18461037BD4680BD00BF85
:104A6000FC14002090B587B000AFB9607A603B605D
:104A70000346FB73FB7B0A4A9B0013445B689C68FC
:104A8000FB7B074A1344187D3B687A68B968A047E6
:104A90000346FB75FB7D18461C37BD4690BD00BF25
:104AA000FC14002090B587B000AFB9607A603B601D
:104AB0000346FB73FB7B0A4A9B0013445B68DC687C
:104AC000FB7B074A1344187D3B687A68B968A047A6
:104AD0000346FB75FB7D18461C37BD4690BD00BFE5
:104AE000FC14002080B584B000AF03463A60FB712F
:104AF0000B46BB71FB79094A9B0013445B681B6939
:104B0000FA7906490A44107DB9793A68984703460C
:104B1000FB73FB7B18461037BD4680BDFC1400209C
:104B200080B485B000AF78607B6801331B78FB816F
:104B3000FB891B021AB27B681B781BB213431BB2A2
:104B4000FB81FB8918461437BD4680BC704780B492
:104B500085B000AF78607B6803331B78FB60FB682F
:104B60001B027A68023212781343FB60FB681B0257
:104B70007A68013212781343FB60FB681B027A6883
:104B800012781343FB60FB6818461437BD4680BC9F
:104B900070472DE9B00F9DB000AF78667B6E07338C
:104BA0001B78DBB200229A469346C7E91AABD7E9D5
:104BB0001A234FF000004FF00001190241EA126180
:104BC00010027B6E06331B78DBB200221C461546B2
:104BD00040EA040841EA0509C7E91A89D7E91A2316
:104BE0004FF000004FF00001190241EA126110027B
:104BF0007B6E05331B78DBB20022BB65FA65D7E913
:104C000016341A460243BA6223460B43FB62D7E9C5
:104C10000A34C7E91A34D7E91A234FF000004FF0DD
:104C20000001190241EA126110027B6E04331B7805
:104C3000DBB200223B657A65D7E914341A46024399
:104C40003A6223460B437B62D7E90834C7E91A343A
:104C5000D7E91A234FF000004FF00001190241EA92
:104C6000126110027B6E03331B78DBB20022BB643F
:104C7000FA64D7E912341A460243BA6123460B4359
:104C8000FB61D7E90634C7E91A34D7E91A234FF094
:104C900000004FF00001190241EA126110027B6E20
:104CA00002331B78DBB200223B647A64D7E910340C
:104CB0001A4602433A6123460B437B61D7E9043429
:104CC000C7E91A34D7E91A014FF000024FF0000388
:104CD0000B0243EA10630202796E01310978C9B20E
:104CE0000020B963F863D7E90E0104461443BC60A1
:104CF0001943F960D7E90234C7E91A34D7E91A0130
:104D00004FF000024FF000030B0243EA106302026F
:104D1000796E0978C9B2002039637863D7E90C014C
:104D2000044614433C6019437960D7E90034C7E96D
:104D30001A34D7E91A23104619467437BD46BDE820
:104D4000B00F704780B483B000AF78600B467B80B3
:104D50007B685A1C7A607A88D2B21A707B881B0AE8
:104D60007B807B685A1C7A607A88D2B21A7000BF46
:104D70000C37BD4680BC704780B483B000AF78600C
:104D800039607B685A1C7A603A68D2B21A703B6804
:104D90001B0A3B607B685A1C7A603A68D2B21A7070
:104DA0003B681B0A3B607B685A1C7A603A68D2B247
:104DB0001A703B681B0A3B607B685A1C7A603A6831
:104DC000D2B21A7000BF0C37BD4680BC704780B4A9
:104DD00085B000AFF860C7E90023FB685A1CFA6091
:104DE0003A781A70D7E900014FF000024FF0000343
:104DF000020A42EA01620B0AC7E90023FB685A1C57
:104E0000FA603A781A70D7E900014FF000024FF0CB
:104E10000003020A42EA01620B0AC7E90023FB68A9
:104E20005A1CFA603A781A70D7E900014FF0000274
:104E30004FF00003020A42EA01620B0AC7E90023AD
:104E4000FB685A1CFA603A781A70D7E900014FF0F3
:104E500000024FF00003020A42EA01620B0AC7E9AE
:104E60000023FB685A1CFA603A781A70D7E90001EF
:104E70004FF000024FF00003020A42EA01620B0AFF
:104E8000C7E90023FB685A1CFA603A781A70D7E920
:104E900000014FF000024FF00003020A42EA0162F3
:104EA0000B0AC7E90023FB685A1CFA603A781A70AB
:104EB000D7E900014FF000024FF00003020A42EA76
:104EC00001620B0AC7E90023FB685A1CFA603A78B2
:104ED0001A7000BF1437BD4680BC704780B487B0DD
:104EE00000AFF860B9607A60FB687B61BB683B61CA
:104EF0007B68002B0DD03A69531C3B617B69591CC0
:104F0000796112781A707B68013B7B607B68002BAB
:104F1000F1D100BF1C37BD4680BC704780B487B05C
:104F200000AFF860B9607A60FB687B617B695A1CEE
:104F30007A61BA68D2B21A707B68013B7B607B6889
:104F4000002BF3D100BF00BF1C37BD4680BC7047AB
:104F500080B489B000AFF860B9607A60FB68FB612B
:104F6000BB68BB6100237B61FB695A1CFA611B783B
:104F70001946BB695A1CBA611B78CB1A7B617B68E6
:104F8000013B7B607B68002B02D07B69002BEBD060
:104F90007B6918462437BD4680BC704780B483B017
:104FA00000AF7860396002E07B6801337B607B682A
:104FB0001B78002B05D07B681B781A463B68934210
:104FC000F2D17B681B7818460C37BD4680BC704711
:104FD00080B485B000AF786039600023BB60BB68E7
:104FE000FB6029E0264AFB681B0113441B68002B69
:104FF0001DD0234AFB681B0113441A687B681B6899
:105000009A4216D11E4AFB681B01134404331A68E6
:105010007B689B689A420CD1194AFB681B011344B8
:1050200008331A687B681B6B9A4202D107E00123A0
:10503000BB60FB680133FB60FB68012BD2D9FB68C6
:10504000022B09D1BB68002B02D13B68022B01D196
:10505000002310E012230EE03B68002B08D1084A21
:10506000FB681B0113440C331B88B3F5807F01D10F
:10507000102300E0002318461437BD4680BC70475B
:105080007C10002080B483B000AF00237B6002E07E
:105090007B6801337B607B68012B06D8084A7B68FC
:1050A0001B0113441B68002BF2D17B68022B14BF39
:1050B00001230023DBB218460C37BD4680BC704785
:1050C0007C10002080B485B000AF78603960002388
:1050D000FB601FE0414AFB681B0113441A687B68B0
:1050E0001B689A4213D13D4AFB681B0113440433E9
:1050F0001A687B689B689A4209D1384AFB681B0191
:10510000134408331A687B681B6B9A4206D0FB680D
:105110000133FB60FB68012BDCD900E000BFFB68BA
:10512000022B32D10023FB6002E0FB680133FB60FD
:10513000FB68012B06D8294AFB681B0113441B6836
:10514000002BF2D1FB68022B01D1002340E07B68E9
:105150001A682249FB681B010B441A607B689A6835
:105160001E49FB681B010B4404331A607B681A6BF1
:105170001A49FB681B010B4408331A60174AFB6885
:105180001B0113440C3300221A803B68002B09D00A
:10519000124AFB681B0113440C331B88002B01D0FF
:1051A000002315E03B68002B08D10C4AFB681B016B
:1051B00013440C331B8801339AB201E04FF4807220
:1051C0000649FB681B010B440C331A80FB68013352
:1051D00018461437BD4680BC704700BF7C100020C5
:1051E00080B485B000AF78607B68013B7B607B68F2
:1051F000012B25D8164A7B681B0113440C331B88EE
:10520000FB81FB89B3F5807F01D10023FB81FB8902
:10521000002B02D0FB89013BFB810D4A7B681B01FF
:1052200013440C33FA891A80FB89002B05D1084AF4
:105230007B681B01134400221A6000237B7301E08A
:1052400002237B737B7B18461437BD4680BC7047B6
:105250007C10002080B485B000AF78600023FB6034
:1052600010E00D4AFB681B0113441B687A689A42E0
:1052700005D1094AFB681B01134400221A60FB6830
:105280000133FB60FB68012BEBD900BF00BF143773
:10529000BD4680BC704700BF7C10002080B586B042
:1052A00000AF78600023FB737B68DB78002B34D081
:1052B0007B685B6B7B617B6858787B6803F13801A6
:1052C00001237A69FFF7EEFB0346002B02D001238E
:1052D000FB7322E07B680022DA707B689B6A7A6944
:1052E000D21A7B681B6A9A4217D27B689B783B6113
:1052F00010E07B681B6A7A6913447B617B6858788D
:105300007B6803F1380101237A69FFF7CBFB3B6926
:10531000013B3B613B69012BEBD8FB7B18461837FF
:10532000BD4680BD80B584B000AF78603960002391
:10533000FB737B685B6B3A689A421BD07868FFF717
:10534000ADFF0346FB73FB7B002B13D17B685878C2
:105350007B6803F1380101233A68FFF783FB0346BA
:10536000002B04D04FF0FF333B600123FB737B68BD
:105370003A685A63FB7B18461037BD4680BD000073
:1053800080B584B000AF78607868FFF787FF034688
:10539000FB73FB7B002B58D17B681B78032B48D118
:1053A0007B681B79012B44D17B6838334FF4007242
:1053B00000211846FFF7B2FD7B68383303F5FF7311
:1053C0004AF655211846FFF7BDFC7B683833214962
:1053D0001846FFF7D1FC7B68383303F5F2731E499A
:1053E0001846FFF7C9FC7B68383303F5F4727B6815
:1053F0009B6919461046FFF7BFFC7B68383303F5FD
:10540000F6727B685B6919461046FFF7B5FC7B684E
:105410005B6A5A1C7B685A637B6858787B6803F127
:1054200038017B685A6B0123FFF73CFB7B68002245
:105430001A717B685B78002200211846FFF752FB47
:105440000346002B01D00123FB73FB7B184610376A
:10545000BD4680BD525261417272416180B483B0D9
:1054600000AF786039603B68023B3B607B68DB697A
:10547000023B3A689A4201D3002308E07B685B89CB
:105480001A463B6803FB02F27B681B6B1344184609
:105490000C37BD4680BC704780B588B000AF7860DF
:1054A000396079680968B9613968012904D9B9692D
:1054B000C9693868884202D30123FB6101E14FF0DA
:1054C000FF31F961B96909780139032900F2ED80EA
:1054D00001A050F821F000BFE95400087155000800
:1054E000A7550008DF5500083B68FB60FB685B08B8
:1054F000FA681344FB60BB699A6AFB685B0A134451
:105500001946B869FFF70EFF0346002B40F0D08024
:10551000FB685A1CFA60C3F30803BA69134493F892
:105520003830BB60BB699A6AFB685B0A1344194652
:10553000B869FFF7F7FE0346002B40F0BB80FB681D
:10554000C3F30803BA69134493F838301B021A46B0
:10555000BB681343BB603B6803F00103002B02D020
:10556000BB681B0902E0BB68C3F30B03FB61A8E047
:10557000BB699A6A3B681B0A13441946B869FFF76E
:10558000D1FE0346002B40F09780BB6903F138023F
:105590003B685B0003F4FF7313441846FFF7C0FA3F
:1055A0000346FB618DE0BB699A6A3B68DB091344E3
:1055B0001946B869FFF7B6FE0346002B7ED1BB69DA
:1055C00003F138023B689B0003F4FE731344184652
:1055D000FFF7BDFA034623F07043FB6171E0796881
:1055E000D1E90401014360D0796889683868411ABB
:1055F00079617968D1E90401421E41F1FF334FF02E
:1056000000004FF00001500A40EAC350590A024618
:10561000BB695B89B2FBF3F33B617B68DB79022BEF
:105620000ED17A693B699A420AD87A693B699A42F3
:1056300002D03B68013301E06FF00043FB6140E0C2
:105640007B68DB79032B08D17B689B697A699A4276
:1056500003D23B680133FB6133E07B68DB79022BCB
:1056600023D07B68DB69002B03D06FF00043FB6124
:1056700027E0BB699A6A3B68DB0913441946B8699D
:10568000FFF750FE0346002B1AD1BB6903F1380225
:105690003B689B0003F4FE7313441846FFF757FA68
:1056A000034623F00043FB610BE00123FB6108E0AC
:1056B00000BF06E000BF04E000BF02E000BF00E062
:1056C00000BFFB6918462037BD4680BD90B589B044
:1056D00000AFF860B9607A600223FB77BB68012BEA
:1056E00040F2D680FB68DB69BA689A4280F0D080CD
:1056F000FB681B78042B00F3D480032B80F293808B
:10570000012B02D0022B6ED0CBE0BB68BB61BB6922
:105710005B08BA691344BB61FB689A6ABB695B0AA0
:1057200013441946F868FFF7FDFD0346FB77FB7F3E
:10573000002B40F0AF80FB6803F13802BB69591CB5
:10574000B961C3F3080313447B61BB6803F0010331
:10575000002B0DD07B691B785BB203F00F035AB2AC
:105760007B68DBB21B015BB213435BB2DBB201E0CF
:105770007B68DBB27A691370FB680122DA70FB6820
:105780009A6ABB695B0A13441946F868FFF7CAFDB9
:105790000346FB77FB7F002B7ED1FB6803F13802C9
:1057A000BB69C3F3080313447B61BB6803F00103C7
:1057B000002B03D07B681B09DBB20EE07B691B78F2
:1057C0005BB223F00F035AB27B681B0A5BB203F093
:1057D0000F035BB213435BB2DBB27A691370FB68F1
:1057E0000122DA705DE0FB689A6ABB681B0A134409
:1057F0001946F868FFF796FD0346FB77FB7F002B01
:105800004CD1FB6803F13802BB685B0003F4FF7303
:1058100013447A6892B211461846FFF793FAFB6870
:105820000122DA703DE0FB689A6ABB68DB09134429
:105830001946F868FFF776FD0346FB77FB7F002BE0
:105840002ED1FB681B78042B12D07B6823F07044A8
:10585000FB6803F13802BB689B0003F4FE7313443A
:105860001846FFF774F9034603F0704323437B6047
:10587000FB6803F13802BB689B0003F4FE7313441A
:1058800079681846FFF778FAFB680122DA7008E0B9
:1058900000BF06E000BF04E000BF02E000BF00E080
:1058A00000BFFB7F18462437BD4690BD80B58AB047
:1058B00000AFF860B9607A60BB68023BBB60FB6810
:1058C000DB69023BBA689A4201D30023BB60BB6824
:1058D000FB61FB69BB6100237B61FB681A6BFB69A1
:1058E0001B0B13441946F868FFF71CFD0346002BF9
:1058F00002D04FF0FF3351E0FB69DB08C3F308032C
:105900003B62FB6903F00703012202FA03F387F805
:105910002730FA683B6A134438331A7897F82730EF
:105920001340FB7497F827305B0087F82730FB693A
:105930000133FB61FB68DB69023BFA699A4207D3DA
:105940000023FB61002387F827304FF400733B628C
:10595000FB7C002B09D17B6901337B617A697B6811
:105960009A4206D1BB69023318E0FB69BB61002390
:105970007B61FA69BB689A4201D100230EE097F877
:105980002730002BC5D1012387F827303B6A01332C
:105990003B623B6AB3F5007FBBD39EE718462837CE
:1059A000BD4680BD80B588B000AFF860B9607A6050
:1059B0003B60BB68023BBB60FB681A6BBB681B0BA0
:1059C00013447B61BB68DB08C3F30803BB61BB689E
:1059D00003F00703012202FA03F3FB777B695A1CE9
:1059E0007A611946F868FFF79DFC0346002B01D049
:1059F00001233DE0FA68BB69134438331A78FB7F12
:105A00001340DBB2002B14BF01230023DBB21A4684
:105A10003B68934201D102232AE0FA68BB69134430
:105A200038331A78FB7F5340D9B2FA68BB69134404
:105A300038330A461A70FB680122DA707B68013B32
:105A40007B607B68002B01D1002311E0FB7F5B00B2
:105A5000FB77FB7F002BCDD10123FB77BB690133A3
:105A6000BB61BB69B3F5007FC4D30023BB61B5E75D
:105A700018462037BD4680BD80B586B000AF78603F
:105A80007B68DB79032B21D17B689B687B617B681A
:105A90009B693B6114E07B6818687B6901331A4697
:105AA0007969FFF713FE0346FB73FB7B002B01D0E4
:105AB000FB7B0CE07B6901337B613B69013B3B6114
:105AC0003B69002BE7D17B680022DA71002318467E
:105AD0001837BD4680BD80B586B000AFF860B960AC
