:020000040800F2
:1000000000000120E1170008D9140008DF140008DF
:10001000E5140008EB140008F114000800000000CB
:10002000000000000000000000000000D1030108F3
:10003000F714000800000000B1050108F9050108E7
:10004000291800082918000829180008291800088C
:10005000291800082918000829180008291800087C
:10006000291800082918000829180008291800086C
:10007000291800082918000829180008291800085C
:10008000291800082918000829180008291800084C
:10009000291800082918000829180008291800083C
:1000A0002918000805150008291800082918000853
:1000B000291800082918000829180008291800081C
:1000C000291800082918000829180008191500081F
:1000D000291800082D1500082918000829180008FB
:1000E0002918000829180008291800080000000035
:1000F0000000000000000000000000000000000000
:10010000000000000000000029180008291800085D
:1001100029180008291800082918000829180008BB
:1001200029180008291800082918000829180008AB
:10013000291800082918000829180008291800089B
:100140002918000829180008291800084115000876
:10015000000000000000000000000000000000009F
:10016000000000000000000000000000000000008F
:10017000000000000000000000000000000000007F
:10018000000000000000000000000000000000006F
:10019000000000000000000000000000000000005F
:1001A000000000000000000000000000000000004F
:1001B000000000000000000000000000000000003F
:1001C000000000000000000000000000000000002F
:1001D000000000000000000000000000000000001F
:0401E0005FF8E0F1F3
:1001F00010B5054C237833B9044B13B10448AFF361
:1002000000800123237010BDEC00002000000000DE
:10021000F81A010808B5034B1BB103490348AFF3B3
:10022000008008BD00000000F0000020F81A01085E
:10023000034613F8012B002AFBD1181A0138704726
:1002400053B94AB9002908BF00281CBF4FF0FF313D
:100250004FF0FF3000F076B9ADF1080C6DE904CE37
:1002600000F006F8DDF804E0DDE9022304B0704791
:100270002DE9F047089E0D4604468846002B4DD1D7
:100280008A42944668D9B2FA82F252B101FA02F374
:10029000C2F1200120FA01F10CFA02FC41EA030844
:1002A00094404FEA1C41B8FBF1F71FFA8CFE01FBAA
:1002B000178807FB0EF0230C43EA084398420AD93B
:1002C0001CEB030307F1FF3580F01E81984240F2DA
:1002D0001B81023F63441B1AB3FBF1F001FB103397
:1002E00000FB0EFEA4B244EA0344A6450AD91CEB67
:1002F000040400F1FF3380F00981A64540F2068135
:10030000644402380021A4EB0E0440EA07401EB109
:100310000023D440C6E90043BDE8F0878B4208D9EA
:10032000002E00F0EE800021C6E900050846BDE879
:10033000F087B3FA83F100294AD1AB4202D382425B
:1003400000F2FC80841A65EB030301209846002E1E
:10035000E2D0C6E90048DFE702B9FFDEB2FA82F276
:10036000002A40F09180A1EB0C0001214FEA1C47CC
:100370001FFA8CFEB0FBF7F307FB1300250C45EAD0
:1003800000450EFB03F0A84208D91CEB050503F15C
:10039000FF3802D2A84200F2CE8043462D1AB5FBA8
:1003A000F7F007FB10550EFB00FEA4B244EA05442B
:1003B000A64508D91CEB040400F1FF3502D2A6457E
:1003C00000F2B6802846A4EB0E0440EA03409EE704
:1003D000C1F120078B4022FA07FC4CEA030C25FAF6
:1003E00007FA4FEA1C49BAFBF9F820FA07F309FBB0
:1003F00018AA8D401FFA8CFE1D4300FA01F308FB7A
:100400000EF02C0C44EA0A44A04202FA01F20BD985
:100410001CEB040408F1FF3A80F08880A04240F20F
:100420008580A8F102086444241AB4FBF9F009FBA2
:10043000104400FB0EFEADB245EA0444A64508D9BF
:100440001CEB040400F1FF356CD2A6456AD90238D2
:10045000644440EA0840A0FB0295A4EB0E04AC42C1
:10046000C846AE4656D353D0002E69D0B3EB08022F
:1004700064EB0E0422FA01F304FA07F71F43CC40A1
:10048000C6E90074002147E70CFA02FCC2F1200122
:1004900025FA01F34FEA1C4720FA01F195400D437C
:1004A000B3FBF7F107FB11331FFA8CFE280C40EA6F
:1004B000034001FB0EF3834204FA02F408D91CEB5B
:1004C000000001F1FF382FD283422DD90239604458
:1004D000C01AB0FBF7F307FB1300ADB245EA0045C5
:1004E00003FB0EF0A84208D91CEB050503F1FF3809
:1004F00016D2A84214D9023B6544281A43EA0141A6
:1005000038E73146304607E72F46E4E61846F9E675
:100510004B45A9D2B9EB020865EB0C0E0138A3E7F5
:100520004346EAE7284694E74146D1E7D0467BE7D1
:100530006444023847E7023B65442FE7084606E774
:100540003146E9E6704700BF80B485B000AFF8607F
:10055000B9607A60FB68064A1A60BB68054A1A608F
:100560007B6880221A6000BF1437BD4680BC70478C
:1005700008010020BC010020B0B59AB000AF01F026
:1005800055F900F061F800F077F900F0C7F800F0D5
:1005900049F900F0F9F8244B07F158040FCB84E82F
:1005A0000F0007F15803002118460EF0E8F8034643
:1005B0001E4A13601E4B07F13C041D460FCD0FC4AD
:1005C00095E8070084E8070007F13C03002118467E
:1005D0000EF075F80346174A1360174B07F1200415
:1005E0001D460FCD0FC495E8070084E8070007F10A
:1005F0002003002118460EF062F803460F4A1360EC
:100600000F4B3C1D1D460FCD0FC495E8070084E835
:1006100007003B1D002118460EF051F80346094A19
:1006200013600EF045F8FEE7341B0108AC0400200F
:10063000441B0108A0040020601B0108A404002042
:100640007C1B0108A804002080B59CB000AF07F116
:10065000380338220021184610F072FD07F12403F8
:1006600000221A605A609A60DA601A613B1D2022EB
:100670000021184610F064FD0123BB634FF4803362
:100680003B6404237B640123FB644FF48033FB63EE
:100690000223BB654FF48033FB654FF4E0133B66E8
:1006A00002237B664FF4C063BB661023FB6607F131
:1006B0003803184603F0A8F90346002B01D000F0D8
:1006C000D7FA0F237B620223BB620023FB624FF445
:1006D00080633B6300237B6307F1240302211846F8
:1006E00003F0A8FC0346002B01D000F0C1FA102350
:1006F0007B6000233B623B1D184603F0E3FE03468C
:10070000002B01D000F0B4FA034B01221A6000BFA5
:100710007037BD4680BD00BF7000424280B500AF5B
:10072000174B184A1A60164B4FF482725A60144BDA
:1007300000229A60124B0022DA60114B00221A61EB
:100740000F4B00225A610E4B4FF400729A610C4B12
:100750000822DA610A4B00221A62094B00225A620F
:10076000074B00229A62064B0A22DA62044803F021
:10077000DBFF0346002B01D000F07AFA00BF80BDFA
:10078000BC0300200030014080B586B000AF07F107
:10079000080300221A605A609A60DA603B46002221
:1007A0001A605A601E4B4FF080421A601C4B49F68B
:1007B0003F425A601A4B00229A60194B4FF6FF7263
:1007C000DA60174B00221A61154B00229A61144817
:1007D00004F07AFB0346002B01D000F049FA4FF4F5
:1007E0008053BB6007F1080319460D4804F01EFD55
:1007F0000346002B01D000F03BFA00233B600023AE
:100800007B603B461946064804F0FAFE0346002B7F
:1008100001D000F02DFA00BF1837BD4680BD00BFE3
:100820001404002080B500AF114B124A1A60104B1F
:100830004FF4E1325A600E4B00229A600C4B0022BA
:10084000DA600B4B00221A61094B0C225A61084BEB
:1008500000229A61064B0022DA61054804F048FF45
:100860000346002B01D000F003FA00BF80BD00BF9B
:100870005C0400200038014080B588B000AF07F16B
:10088000100300221A605A609A60DA60364B9B6946
:10089000354A43F020039361334B9B6903F02003F7
:1008A000FB60FB68304B9B692F4A43F01003936158
:1008B0002D4B9B6903F01003BB60BB682A4B9B69FF
:1008C000294A43F004039361274B9B6903F0040317
:1008D0007B607B68244B9B69234A43F00803936148
:1008E000214B9B6903F008033B603B680122022116
:1008F0001E4801F097FB012286211D4801F092FB62
:10090000002201211B4801F08DFB02233B610123E2
:100910007B610023BB610223FB6107F110031946D1
:10092000124801F0FBF986233B6101237B61002320
:10093000BB610223FB6107F1100319460C4801F06B
:10094000EDF901233B6101237B610023BB6102239D
:10095000FB6107F110031946064801F0DFF900BFFB
:100960002037BD4680BD00BF00100240001001408E
:1009700000080140000C014080B483B000AF7860F3
:1009800000BF0C37BD4680BC704780B582B000AF59
:10099000786010F0B9F801200DF0DDFEFBE70000F3
:1009A00080B5ADF6E80D00AF07F6E803A3F6E40363
:1009B00018604FF4FA700DF0CEFE64230C226249E9
:1009C000624804F0E2FE624B02221A80604B614AE8
:1009D0005A605F4B04221A815D4B5E4ADA605C4BC1
:1009E00002221A825A4B5C4A5A61594B80221A835E
:1009F000574B584ADA6100F040F9642307225749FF
:100A0000524804F0C2FE07F5D6635549184600F077
:100A10003BF96423072253494C4804F0B6FE07F51E
:100A20008F635149184600F02FF9642307224F497C
:100A3000464804F0AAFE07F510734D49184600F029
:100A400023F9642307224B49404804F09EFE07F136
:100A500008034949184600F017F96423062247495C
:100A60003A4804F092FE07F5D6633D49184600F077
:100A700073F9642306224249344804F086FE07F5E0
:100A80008F633949184600F067F9642306223D490F
:100A90002E4804F07AFE07F510733549184600F029
:100AA0005BF9642306223849284804F06EFE07F1FA
:100AB00008033149184600F04FF93449344800F032
:100AC00085FD3449344800F081FD0822334930481F
:100AD00000F0F1FD082232492F4800F0ECFD2C48CF
:100AE00000F0BEFD2C4800F0BBFD642309222D4917
:100AF000164804F04AFE2C4800F0F8FD6423092251
:100B00002A49124804F041FE294800F0EFFD642311
:100B1000092228490D4804F038FE274800F0E6FD78
:100B2000642309222549094804F02FFE244800F0D7
:100B3000DDFD64230F222349044804F026FEC8206B
:100B40000DF009FEFBE700BF981B01085C040020C4
:100B5000280C00200008014000100140A81B0108DB
:100B6000B01B0108B41B0108BC1B0108C01B010815
:100B7000C81B0108CC1B0108D41B0108D81B0108A5
:100B8000E01B0108E81B0108F01B0108F81B010825
:100B9000B0040020041C010868080020101C010893
:100BA0001C1C0108281C0108341C0108381C010801
:100BB000441C0108481C0108541C0108581C010869
:100BC000641C0108681C010880B586B000AF78601D
:100BD0000FF09AFF184B196807F10C034FF0FF3222
:100BE00018460DF035FEFB68102B20D13B69032B16
:100BF00006D0032B1DD8012B12D0022B07D018E0F2
:100C0000642302220D490E4804F0BFFD12E0642364
:100C100002220C490A4804F0B8FD0FF047FF09E032
:100C2000642302220849064804F0AFFD02E000BF39
:100C3000D0E700BFCEE700BFAC040020781C01085D
:100C40005C0400207C1C0108801C010880B582B077
:100C500000AF78607B681B68044A934201D100F0C2
:100C6000FBFD00BF0837BD4680BD00BF002C014022
:100C700080B400AF72B600BFFEE780B500AF06F0EB
:100C800091F800BF80BD000080B584B000AF7860EF
:100C900039600122396878680BF0EAFF0346FB737C
:100CA000FB7B002B0FD0FB7B1A460949094810F04B
:100CB000A5FB0848FFF7BCFA03469AB2C8230549CA
:100CC000054804F062FD00BF1037BD4680BD00BF7F
:100CD000841C0108480C00205C04002080B483B010
:100CE00000AF0346FB71FB79084A32F83320084B0A
:100CF0001A80FB79054ADB0013445B68054A1360E0
:100D000000BF0C37BD4680BC704700BF280C0020D8
:100D1000220C0020240C002080B500AF044B1B687F
:100D2000044A11880022184601F07CF900BF80BDFA
:100D3000240C0020220C002080B500AF044B1B685F
:100D4000044A11880122184601F06CF900BF80BDE9
:100D5000240C0020220C002080B586B000AF786003
:100D600039603A1D07F10803194638680DF05AFA40
:100D70000346FB75FB7D002B0ED01A491A4810F074
:100D80003DFB1948FFF754FA03469AB2C8231649A7
:100D9000164804F0FAFC20E07B68DB69023B7A68C5
:100DA000528902FB03F33B617B685B891A46BB688F
:100DB00002FB03F3FB603B695A08FB685B080C49C4
:100DC000094810F01BFB0848FFF732FA03469AB2B5
:100DD000C8230549054804F0D8FC00BF1837BD46B4
:100DE00080BD00BF981C0108480C00205C04002056
:100DF000AC1C010880B584B000AF03463960FB71BC
:100E000097F90730002B0EDAFB7903F07F03FB71B3
:100E100000217720FFF7EEFF0346BB73BB7B012B5E
:100E200001D9BB7B43E0FFF787FF00F04AF9FFF7EA
:100E300073FF00F046F9FB79184600F035F93B687E
:100E40001B0EDBB2184600F02FF93B681B0CDBB21F
:100E5000184600F029F93B681B0ADBB2184600F07F
:100E600023F93B68DBB2184600F01EF90123FB733F
:100E7000FB79402B01D19523FB73FB79482B01D1E2
:100E80008723FB73FB7B184600F00EF90A23FB73E4
:100E900000F017F90346BB7397F90E30002B05DA03
:100EA000FB7B013BFB73FB7B002BF1D1BB7B18462B
:100EB0001037BD4680BD000090B583B000AF574BE2
:100EC00000221A70FFF728FF00214020FFF792FF51
:100ED0000346012B40F09A8000F000F94FF4D571E1
:100EE0004820FFF787FF0346012B57D10023FB71F2
:100EF0000CE0FC7900F0E5F803461A4604F108031B
:100F00003B4403F8082CFB790133FB71FB79032B7D
:100F1000EFD9BB78012B7BD1FB78AA2B78D142F695
:100F2000E063BB8005E0B7F904309BB2013B9BB2A4
:100F3000BB80B7F90430002B07D04FF08041E92087
:100F4000FFF758FF0346002BEDD1B7F90430002B13
:100F50005ED000217A20FFF74DFF0346002B57D1CA
:100F60000023FB710CE0FC7900F0ABF803461A4655
:100F700004F108033B4403F8082CFB790133FB71AF
:100F8000FB79032BEFD93B7803F04003002B01D012
:100F90000C2200E00422214B1A7039E00021E920E4
:100FA000FFF728FF0346012B05D81C4B02221A70BD
:100FB000E923BB7104E0194B01221A704123BB7174
:100FC00046F2A813BB8005E0B7F904309BB2013BA1
:100FD0009BB2BB80B7F90430002B07D0BB7900214E
:100FE0001846FFF707FF0346002BEDD1B7F9043091
:100FF000002B07D04FF400715020FFF7FBFE034693
:10100000002B05D0054B00221A7001E0012300E0FF
:10101000002318460C37BD4690BD00BF200C0020B1
:1010200080B400AF00BFBD4680BC704780B582B0C1
:1010300000AF0023FB8000F044F803467B71FB887F
:101040000133FB807B79FF2B04D0FB884FF6FF72C6
:101050009342F0D1FB884FF6FF72934201D10123F6
:1010600000E07B7918460837BD4680BD80B586B064
:1010700002AF0346FB710023FB7307F10F02F91D5A
:101080004FF4805300930123064803F0D1FB03463D
:10109000002B01D0FFF7C4FFFB7B18461037BD467D
:1010A00080BD00BFBC03002080B582B000AF034606
:1010B000FB71FB791846FFF7D9FF00BF0837BD4623
:1010C00080BD80B582B000AFFF20FFF7CFFF0346A1
:1010D000FB71FB7918460837BD4680BD80B500AF6F
:1010E000FF20FFF7C3FF00BF80BD90B585B000AF04
:1010F0007860396039685120FFF77CFE03467B73C6
:101100007B7B002B01D005232FE0FFF7E7FF0023B7
:10111000FB81FFF7D6FF03467B73FB890133FB811D
:101120007B7BFE2B04D0FB894FF6FF729342F0D1FC
:10113000FB894FF6FF72934201D1052315E000238E
:10114000FB8109E0FB897A68D418FFF7BAFF0346F0
:101150002370FB890133FB81FB89B3F5007FF1D359
:10116000FFF7BCFFFFF7BAFF002318461437BD4650
:1011700090BD80B584B000AF786039603968582080
:10118000FFF738FE03467B737B7B002B01D00623E1
:101190003DE0FFF7A3FFFE20FFF786FF0023FB8162
:1011A00009E0FB897A6813441B781846FFF77CFF37
:1011B000FB890133FB81FB89B3F5007FF1D3FFF796
:1011C0008DFFFFF78BFFFFF77CFF03467B737B7B75
:1011D00003F00503052B01D0062318E00023FB8153
:1011E000FFF76FFF03467B73FB890133FB817B7B3A
:1011F000FF2B04D0FB894FF6FF729342F0D1FB899D
:101200004FF6FF72934201D1062300E000231846F7
:101210001037BD4680BD000080B584B000AF184BCC
:101220009B69174A43F001039361154B9B6903F0D7
:101230000103BB60BB68124BDB69114A43F080536A
:10124000D3610F4BDB6903F080537B607B68002226
:101250000F216FF0010000F0F4FB0A4B5B68FB60AC
:10126000FB6823F0E063FB60FB6843F08063FB6096
:10127000044AFB68536000BF1037BD4680BD00BF05
:10128000001002400000014080B58AB000AF7860D5
:1012900007F1140300221A605A609A60DA607B68D2
:1012A0001B68264A934245D1254B9B69244A43F447
:1012B00080539361224B9B6903F480533B613B69EC
:1012C0001F4B9B691E4A43F0080393611C4B9B69AB
:1012D00003F00803FB60FB6828237B610223BB61EA
:1012E00003233B6207F114031946164800F016FD6C
:1012F00010237B610023BB610023FB6107F1140312
:101300001946104800F00AFD0F4B5B687B627B6A50
:1013100043F0E0637B627B6A43F001037B620A4A2D
:101320007B6A536000220521232000F08AFB2320E2
:1013300000F0A3FB00BF2837BD4680BD0030014050
:1013400000100240000C01400000014080B485B054
:1013500000AF78607B681B68B3F1804F0BD1084BFE
:10136000DB69074A43F00103D361054BDB6903F0F6
:101370000103FB60FB6800BF1437BD4680BC7047AB
:101380000010024080B588B000AF786007F110030C
:1013900000221A605A609A60DA607B681B68204AF3
:1013A000934239D11F4B9B691E4A43F4804393619A
:1013B0001C4B9B6903F48043FB60FB68194B9B69E2
:1013C000184A43F004039361164B9B6903F004032E
:1013D000BB60BB684FF400733B6102237B61032356
:1013E000FB6107F1100319460F4800F097FC4FF41A
:1013F00080633B6100237B610023BB6107F1100325
:101400001946094800F08AFC00220521252000F039
:1014100018FB252000F031FB00BF2037BD4680BD02
:1014200000380140001002400008014080B58CB037
:1014300000AF78600023FB620023BB620022796862
:10144000192000F0FEFA192000F017FB1E4B9B69D3
:101450001D4A43F4006393611B4B9B6903F40063D3
:10146000FB60FB6807F1100207F1140311461846F0
:1014700002F0DAFF02F0C4FFF862FB6A134AA2FB33
:1014800003239B0C013BBB62114B124A1A60104BA9
:1014900040F2E732DA600E4ABB6A53600C4B00221E
:1014A0001A610B4B00229A60094803F00DFD0346B8
:1014B000002B04D1064803F057FD034600E001234A
:1014C00018463037BD4680BD0010024083DE1B4306
:1014D000AC0C0020002C014080B400AFFEE780B4CB
:1014E00000AFFEE780B400AFFEE780B400AFFEE7D8
:1014F00080B400AFFEE780B400AF00BFBD4680BC43
:101500007047000080B500AF024803F087FD00BFC0
:1015100080BD00BFAC0C002080B500AF024803F0D6
:1015200029FB00BF80BD00BFBC03002080B500AF19
:10153000024804F0BDF900BF80BD00BF5C0400207C
:1015400080B500AF024800F0EBFF00BF80BD00BFD8
:10155000E045002080B586B000AF7860144A154B96
:10156000D31A7B617B693B61134B1B68002B02D153
:10157000114B124A1A60104B1A687B6813443A697F
:101580009A4207D20FF092FD03460C221A604FF0E8
:10159000FF3309E0084B1B68FB60074B1A687B6848
:1015A0001344054A1360FB6818461837BD4680BDD2
:1015B0000000012000040000F40C0020F848002086
:1015C00080B400AF00BFBD4680BC704780B582B01C
:1015D00000AF786039607B6804221D4918460FF01F
:1015E000A1FD7B68083304221A4918460FF09AFDC2
:1015F0007B680C330422184918460FF093FD7B6872
:1016000024330422154918460FF08CFD7B68002214
:1016100083F82C20002283F82D20002283F82E202E
:10162000002283F82F207B6830330A22396818465D
:101630000BF064FB7B6803F130014FF02C024FF09C
:10164000000308460CF017F900BF0837BD4680BDFF
:10165000E01C0108E81C0108F01C0108F81C010846
:1016600080B582B000AF78607B68DA6A7B689A6286
:101670007B68DB6A03F124027B685A607B6803F1B4
:1016800030014FF000024FF0000308460CF0F3F871
:101690007B6803F1300079687B6803F56A732C225C
:1016A0000BF0EDFD7B68303318460CF0BAF800BF44
:1016B0000837BD4680BD80B584B000AFF860B96022
:1016C0007A60FB68DA6A7B681A44FB68DA62FB6856
:1016D00003F13000FB6803F56A737A68B9680BF0B0
:1016E000CEFD00BF1037BD4680BD000080B5ADF512
:1016F000607D00AF07F56073A3F55F73186007F5B1
:101700006073A3F5BC714FF400724FF00003C1E9A0
:10171000002307F56073A3F55F7307F54A72196834
:1017200010460CF073FC034687F87F3397F87F333D
:10173000002B49D107F5027207F54A731146184686
:101740000CF033FD034687F87F3397F87F33002B87
:1017500035D107F56073A3F5BC739B7E002B2ED0AB
:1017600007F502731A33C7F87833D7F878331B7844
:10177000002B0CD0D7F87803FEF75AFD03469AB237
:101780004FF48053D7F87813124803F0FEFF07F5A3
:101790006073A3F5BC731B7B03F01003002B06D012
:1017A0004FF4805306220C490A4803F0EEFF4FF431
:1017B000805301220949074803F0E7FFBAE707F51C
:1017C0004A7318460CF0CBFC00BF07F56077BD46A6
:1017D00080BD00BF5C040020001D0108081D010839
:1017E0000C480D490D4A002302E0D458C45004337C
:1017F000C4188C42F9D30A4A0A4C002301E0136052
:101800000432A242FBD3FFF7DBFE0FF055FCFEF7DC
:10181000B3FE704700000020EC000020C022010849
:10182000EC000020F4480020FEE7000080B500AF87
:10183000084B1B68074A43F010031360032000F0B5
:10184000F5F80F20FFF7F2FDFFF7E6FC002318463E
:1018500080BD00BF0020024080B400AF054B1B7864
:101860001A46054B1B681344034A136000BFBD466C
:1018700080BC704708000020F80C002080B400AF46
:10188000024B1B681846BD4680BC7047F80C002010
:1018900080B584B000AF7860FFF7F0FFB8607B6878
:1018A000FB60FB68B3F1FF3F05D00A4B1B781A467B
:1018B000FB681344FB6000BFFFF7E0FF0246BB6814
:1018C000D31AFA689A42F7D800BF00BF1037BD4656
:1018D00080BD00BF0800002080B485B000AF7860F4
:1018E0007B6803F00703FB600C4BDB68BB60BA68E6
:1018F0004FF6FF031340BB60FB681A02BB6813433B
:1019000043F0BF6343F40033BB60044ABB68D36059
:1019100000BF1437BD4680BC704700BF00ED00E03B
:1019200080B400AF044BDB681B0A03F007031846C2
:10193000BD4680BC704700BF00ED00E080B483B0BE
:1019400000AF0346FB7197F90730002B0BDBFB79E7
:1019500003F01F02064997F907305B09012000FADE
:1019600002F241F8232000BF0C37BD4680BC70470F
:1019700000E100E080B483B000AF03463960FB7142
:1019800097F90730002B0ADB3B68DAB20C4997F96C
:1019900007301201D2B20B4483F800230AE03B68FF
:1019A000DAB20849FB7903F00F03043B1201D2B20B
:1019B0000B441A7600BF0C37BD4680BC704700BF91
:1019C00000E100E000ED00E080B489B000AFF86015
:1019D000B9607A60FB6803F00703FB61FB69C3F140
:1019E0000703042B28BF0423BB61FB690433062BC8
:1019F00002D9FB69033B00E000237B614FF0FF321B
:101A0000BB6902FA03F3DA43BB681A407B699A4068
:101A10004FF0FF317B6901FA03F3D9437B680B4038
:101A2000134318462437BD4680BC704780B582B04A
:101A300000AF78607868FFF74FFF00BF0837BD46FA
:101A400080BD80B586B000AF0346B9607A60FB7395
:101A500000237B61FFF764FF78617A68B968786971
:101A6000FFF7B2FF024697F90F3011461846FFF70D
:101A700081FF00BF1837BD4680BD80B582B000AF82
:101A80000346FB7197F907301846FFF757FF00BF71
:101A90000837BD4680BD80B485B000AF78600023B4
:101AA000FB737B6893F82130022B08D07B680422FB
:101AB0009A637B68002283F82020012320E07B6862
:101AC0001B681A687B681B6822F00E021A607B682C
:101AD0001B681A687B681B6822F001021A607B6829
:101AE0001A6C7B68DB6B012101FA02F25A607B6899
:101AF000012283F821207B68002283F82020FB7BD1
:101B000018461437BD4680BC7047000080B584B0CD
:101B100000AF78600023FB737B6893F82130022BC1
:101B200005D07B6804229A630123FB73D6E07B68AF
:101B30001B681A687B681B6822F00E021A607B68BB
:101B40001B681A687B681B6822F001021A607B68B8
:101B50001B681A46644B9A4258D97B681B68634AD3
:101B600093424FD07B681B68614A934248D07B68A0
:101B70001B68604A934240D07B681B685E4A934270
:101B800038D07B681B685D4A934230D07B681B6805
:101B90005B4A934228D07B681B68534A934220D00B
:101BA0007B681B68574A934219D07B681B68564A6A
:101BB000934212D07B681B68544A93420AD07B68D8
:101BC0001B68534A934202D14FF480531BE04FF4F9
:101BD000803318E04FF4807315E0102313E00123E5
:101BE00011E04FF080730EE04FF480130BE04FF4E0
:101BF000803308E04FF4805305E04FF4807302E037
:101C0000102300E00123434A536057E07B681B68C0
:101C1000364A93424FD07B681B68354A934248D07E
:101C20007B681B68334A934240D07B681B68324A0A
:101C3000934238D07B681B68304A934230D07B682F
:101C40001B682F4A934228D07B681B68264A934220
:101C500020D07B681B682B4A934219D07B681B6895
:101C6000294A934212D07B681B68284A93420AD0C3
:101C70007B681B68264A934202D14FF480531BE0D5
:101C80004FF4803318E04FF4807315E0102313E015
:101C9000012311E04FF080730EE04FF480130BE04E
:101CA0004FF4803308E04FF4805305E04FF4807325
:101CB00002E0102300E00123174A53607B680122F1
:101CC00083F821207B68002283F820207B685B6BEF
:101CD000002B03D07B685B6B78689847FB7B1846CA
:101CE0001037BD4680BD00BF8000024008000240A2
:101CF0001C000240300002404400024058000240F4
:101D00006C000240080402401C04024030040240FF
:101D100044040240000402400000024080B48BB042
:101D200000AF7860396000237B6200233B6269E189
:101D300001227B6A02FA03F3FB613B681B68FA69C4
:101D40001340BB61BA69FB699A4240F058813B6815
:101D50005B689A4A93425ED0984A934275D8984AF3
:101D6000934258D0964A93426FD8964A934252D0A3
:101D7000944A934269D8944A93424CD0924A9342EF
:101D800063D8924A934246D0904A93425DD8122B30
:101D90002AD8122B59D801A252F823F0171E000896
:101DA000F11D0008031E0008451E00084B1E000818
:101DB0004B1E00084B1E00084B1E00084B1E00085F
:101DC0004B1E00084B1E00084B1E00084B1E00084F
:101DD0004B1E00084B1E00084B1E00084B1E00083F
:101DE000F91D00080D1E0008794A934213D02CE01B
:101DF0003B68DB683B6229E03B68DB6804333B629D
:101E000024E03B68DB6808333B621FE03B68DB682B
:101E10000C333B621AE03B689B68002B02D1042321
:101E20003B6213E03B689B68012B05D108233B62B2
:101E30007B68FA691A6109E008233B627B68FA69EA
:101E40005A6103E000233B6200E000BFBB69FF2B47
:101E500001D87B6801E07B6804337B61BB69FF2BA1
:101E600002D87B6A9B0002E07B6A083B9B003B61D7
:101E70007B691A680F213B6901FA03F3DB431A40BF
:101E8000396A3B6901FA03F31A437B691A603B68BC
:101E90005B6803F08053002B00F0B1804D4B9B69D1
:101EA0004C4A43F0010393614A4B9B6903F00103E1
:101EB000BB60BB68484A7B6A9B08023352F82330F8
:101EC000FB607B6A03F003039B000F2202FA03F31B
:101ED000DB43FA681340FB607B68404A934213D0AF
:101EE0007B683F4A93420DD07B683E4A934207D0BD
:101EF0007B683D4A934201D1032306E0042304E0BA
:101F0000022302E0012300E000237A6A02F00302C8
:101F100092009340FA681343FB602F497B6A9B0849
:101F20000233FA6841F823203B685B6803F480338E
:101F3000002B06D02D4B1A682C49BB6913430B604C
:101F400006E02A4B1A68BB69DB43284913400B6043
:101F50003B685B6803F40033002B06D0234B5A68C0
:101F60002249BB6913434B6006E0204B5A68BB69AA
:101F7000DB431E4913404B603B685B6803F48013EE
:101F8000002B06D0194B9A681849BB6913438B6024
:101F900006E0164B9A68BB69DB43144913408B601B
:101FA0003B685B6803F40013002B21D00F4BDA6809
:101FB0000E49BB691343CB6021E000BF0000321023
:101FC000000031100000221000002110000012104B
:101FD0000000111000100240000001400008014004
:101FE000000C0140001001400014014000040140B9
:101FF0000B4BDA68BB69DB4309491340CB607B6A52
:1020000001337B623B681A687B6A22FA03F3002B78
:102010007FF48EAE00BF00BF2C37BD4680BC70473A
:102020000004014080B483B000AF78600B467B8031
:1020300013467B707B78002B03D07A887B681A610B
:1020400003E07B881A047B681A6100BF0C37BD4629
:1020500080BC7047F0B58FB00AAF78607B68002B0A
:1020600001D1012354E07B681B68FB607B6893F817
:10207000F932DBB2002B06D17B68002283F8F8220C
:1020800078680EF0A9FD7B68032283F8F922FB68CB
:10209000DB6B03F48073002B02D17B6800221A6192
:1020A0007B681B68184604F025F87B681B683B605A
:1020B0007E686D4606F110040FCC0FC50FCC0FC51E
:1020C00094E8030085E80300331D0ECB386803F065
:1020D000DFFF7B681B680121184604F01BF87B6852
:1020E0001B683B607E686D4606F110040FCC0FC57F
:1020F0000FCC0FC594E8030085E80300331D0ECB19
:10210000386804F079F97B68012283F8F92200230A
:1021100018461437BD46F0BD90B589B004AF78605D
:10212000084611461A460346FB700B46BB70134621
:102130007B707B6893F8F832012B01D1022376E0A3
:102140007B68012283F8F822FB787A682C2101FB56
:1021500003F313443D3300221A70FB787A682C2174
:1021600001FB03F3134438337A781A70FB787A68EA
:102170002C2101FB03F3134440333A8D1A80FB7882
:102180007A682C2101FB03F313443933FA781A706F
:10219000FB787A682C2101FB03F313443F3397F853
:1021A00024201A70FB78BA7802F07F02D0B27A68E5
:1021B0002C2101FB03F313443A3302461A7097F9BA
:1021C0000230002B09DAFB787A682C2101FB03F33B
:1021D00013443B3301221A7008E0FB787A682C2103
:1021E00001FB03F313443B3300221A70FB787A6837
:1021F0002C2101FB03F313443C3397F820201A7081
:102200007B6818687C78BA78F9783B8D029397F8E8
:102210002430019397F820300093234604F024FAE9
:102220000346FB737B68002283F8F822FB7B184689
:102230001437BD4690BD80B584B000AF78600B46C2
:10224000FB700023FB737B6893F8F832012B01D1FC
:1022500002230FE07B68012283F8F8227B681B6869
:10226000FA781146184604F0FFFB7B68002283F8D9
:10227000F822FB7B18461037BD4680BD80B582B082
:1022800000AF7860084611461A460346FB700B46BD
:10229000BB7013467B70FB787A682C2101FB03F33B
:1022A00013443B33BA781A70FB787A682C2101FB0F
:1022B00003F313443F337A781A703B7C002B12D11E
:1022C000FB787A682C2101FB03F313444233032289
:1022D0001A70FB787A682C2101FB03F313443D3319
:1022E0003A7F1A7008E0FB787A682C2101FB03F32F
:1022F0001344423302221A707B78032B00F2C6800B
:1023000001A252F823F000BF192300087924000825
:102310007D230008FB2300083B7C012B40F0B880A4
:10232000BB78002B40F0B4803B8B002B08D1FB78AE
:102330007A682C2101FB03F31344553301221A70F0
:10234000FB787A682C2101FB03F3134455331B7887
:10235000002B09D1FB787A682C2101FB03F313448D
:10236000423300221A7093E0FB787A682C2101FB3B
:1023700003F31344423302221A7089E0BB78002B26
:102380001DD1FB787A682C2101FB03F313445533EC
:102390001B78002B09D1FB787A682C2101FB03F311
:1023A0001344423300221A7073E0FB787A682C21C0
:1023B00001FB03F31344423302221A7069E0FB78F5
:1023C0007A682C2101FB03F3134454331B78002B50
:1023D00009D1FB787A682C2101FB03F313444233C3
:1023E00000221A7055E0FB787A682C2101FB03F378
:1023F0001344423302221A704BE0BB78002B1DD1EC
:10240000FB787A682C2101FB03F3134455331B78C6
:10241000002B09D1FB787A682C2101FB03F31344CC
:10242000423300221A7034E0FB787A682C2101FBD9
:1024300003F31344423302221A702AE0FB787A68CD
:102440002C2101FB03F3134454331B78002B09D1D7
:10245000FB787A682C2101FB03F3134442330022FA
:102460001A7016E0FB787A682C2101FB03F3134401
:10247000423302221A700CE0FB787A682C2101FBAF
:1024800003F31344423300221A7002E000BF00E05D
:1024900000BFFB787A682C2101FB03F3134444331B
:1024A0007A691A60FB783A8B79682C2000FB03F379
:1024B0000B444C331A60FB787A682C2101FB03F340
:1024C0001344603300221A70FB787A682C2101FBD8
:1024D00003F31344503300221A60FB787A682C21EE
:1024E00001FB03F313443933FA781A70FB787A68E6
:1024F0002C2101FB03F31344613300221A707B6823
:102500001868FB782C2202FB03F338337A681344F3
:10251000194604F0A1F9034618460837BD4680BDA8
:1025200080B586B000AF78607B681B683B613B6913
:10253000FB607B681B68184603F01EFF0346012BF7
:1025400040F0EF807B681B68184603F003FF0346EA
:10255000002B00F0E5807B681B68184603F0FAFE4C
:10256000034603F40013B3F5001F04D17B681B6816
:102570004FF400125A617B681B68184603F0EAFEAC
:10258000034603F48013B3F5801F04D17B681B68F6
:102590004FF480125A617B681B68184603F0DAFE1C
:1025A000034603F08063B3F1806F04D17B681B683E
:1025B0004FF080625A617B681B68184603F0CAFEC0
:1025C000034603F00203022B03D17B681B6802223F
:1025D0005A617B681B68184603F0BCFE034603F093
:1025E0000053B3F1005F15D17B681B684FF00052B8
:1025F0005A61FB6803F588631B6803F00103002B35
:1026000008D178680EF028FB7B681B68012118460A
:1026100003F068FF7B681B68184603F09BFE0346C7
:1026200003F08073B3F1807F02D1786801F078F90C
:102630007B681B68184603F08DFE034603F0080311
:10264000082B06D178680EF0EBFA7B681B6808222D
:102650005A617B681B68184603F07CFE034603F052
:102660001003102B01D1012300E00023002B12D016
:102670007B681B689A697B681B6822F010029A616C
:10268000786801F07BF87B681B689A697B681B6837
:1026900042F010029A617B681B68184603F05AFEEC
:1026A000034603F00073B3F1007F3AD17B681B68E7
:1026B000184604F0C9F9B86000237B6125E07B6906
:1026C00003F00F03BA6822FA03F303F00103002BAF
:1026D00018D07B695A01FB68134403F5A0631B689B
:1026E00003F40043B3F5004F06D17B69DBB2194612
:1026F000786800F0A9F805E07B69DBB219467868D4
:1027000000F0A2FC7B6901337B617B689B687A697E
:102710009A42D4D37B681B684FF000725A6100E084
:1027200000BF1837BD4680BD80B582B000AF78606D
:102730007B6893F8F832012B01D1022313E07B6808
:10274000012283F8F8227B681B680121184603F0F8
:102750002CFF7B681B68184603F0BCFC7B680022DA
:1027600083F8F822002318460837BD4680BD80B59F
:1027700082B000AF78607B6893F8F832012B01D10A
:1027800002230DE07B68012283F8F8227B681B6836
:10279000184604F084FA7B68002283F8F8220023AC
:1027A00018460837BD4680BD80B582B000AF78605E
:1027B0007B681B68184603F0CEFE034618460837B0
:1027C000BD4680BD80B483B000AF78600B46FB701F
:1027D000FB787A682C2101FB03F3134460331B78E8
:1027E00018460C37BD4680BC704780B483B000AF3C
:1027F00078600B46FB70FB787A682C2101FB03F3B1
:10280000134450331B6818460C37BD4680BC7047D4
:1028100080B582B000AF78607B681B68184603F013
:1028200012FF034618460837BD4680BD80B582B00A
:1028300000AF78607B681B68184603F0EEFE034625
:1028400018460837BD4680BD80B586B000AF7860B9
:102850000B46FB707B681B687B617B693B61FB7887
:10286000FB60FB685A013B69134403F5A0639B6856
:1028700003F00403042B19D1FB685A013B6913448C
:1028800003F5A0631A4604239360FB685A013B6971
:10289000134403F5A063DB68FA6851013A690A44FE
:1028A00002F5A06243F00203D36001E1FB685A0124
:1028B0003B69134403F5A0639B6803F48073B3F58D
:1028C000807F2BD1FB685A013B69134403F5A06359
:1028D0001A464FF4807393607A68FB682C2101FBE1
:1028E00003F31344613307221A70FB685A013B69F2
:1028F000134403F5A063DB68FA6851013A690A449E
:1029000002F5A06243F00203D3607B681B68FA689B
:10291000D2B21146184604F0A7F8C9E0FB685A0184
:102920003B69134403F5A0639B6803F02003202B4D
:1029300009D1FB685A013B69134403F5A0631A46A9
:1029400020239360B4E0FB685A013B69134403F50C
:10295000A0639B6803F00803082B33D1FB685A017E
:102960003B69134403F5A063DB68FA6851013A69D7
:102970000A4402F5A06243F00203D3607A68FB6860
:102980002C2101FB03F31344613305221A70FB6809
:102990005A013B69134403F5A0631A461023936060
:1029A000FB685A013B69134403F5A0631A460823E8
:1029B00093607B681B68FA68D2B21146184604F02F
:1029C00053F875E0FB685A013B69134403F5A063B3
:1029D0009B6803F48063B3F5806F34D1FB685A01C0
:1029E0003B69134403F5A063DB68FA6851013A6957
:1029F0000A4402F5A06243F00203D3607A68FB68E0
:102A00002C2101FB03F31344613308221A70FB6885
:102A10005A013B69134403F5A0631A4610239360DF
:102A2000FB685A013B69134403F5A0631A464FF44F
:102A3000806393607B681B68FA68D2B211461846BF
:102A400004F012F834E0FB685A013B69134403F5C3
:102A5000A0639B6803F08003802B29D1FB685A0197
:102A60003B69134403F5A063DB68FA6851013A69D6
:102A70000A4402F5A06243F00203D3607A68FB685F
:102A80002C2101FB03F31344613306221A707B6887
:102A90001B68FA68D2B21146184603F0E5FFFB68DE
:102AA0005A013B69134403F5A0631A4680239360DF
:102AB000FB685A013B69134403F5A0639B6803F468
:102AC0000073B3F5007F22D1FB685A013B691344C0
:102AD00003F5A063DB68FA6851013A690A4402F51C
:102AE000A06243F00203D3607B681B68FA68D2B22D
:102AF0001146184603F0B8FFFB685A013B691344BE
:102B000003F5A0631A464FF40073936098E2FB68E4
:102B10005A013B69134403F5A0639B6803F001036A
:102B2000012B40F0FD807A68FB682C2101FB03F348
:102B30001344613301221A707A68FB682C2101FB6F
:102B400003F313445C3300221A60FB685A013B69AB
:102B5000134403F5A0631A46012393607A68FB6867
:102B60002C2101FB03F313443F331B78002B09D0C6
:102B70007A68FB682C2101FB03F313443F331B7875
:102B8000022B21D1FB685A013B69134403F5A06372
:102B9000DB68FA6851013A690A4402F5A06243F021
:102BA0000203D3607B681B68FA68D2B211461846EC
:102BB00003F05AFFFB685A013B69134403F5A06315
:102BC0001A461023936066E07A68FB682C2101FBAB
:102BD00003F313443F331B78032B27D1FB685A01BF
:102BE0003B69134403F5A0631B68FA6851013A6915
:102BF0000A4402F5A06243F0005313607A68FB6850
:102C00002C2101FB03F31344603301221A70FB688B
:102C1000D9B27A68FB682C2000FB03F313446033BD
:102C20001B781A4678680EF025F834E07A68FB685D
:102C30002C2101FB03F313443F331B78012B2AD1D2
:102C40007A68FB682C2101FB03F3134460330122F3
:102C50001A707A68FB682C2101FB03F31344543388
:102C60001B7883F00103D8B27A68FB682C2101FB42
:102C700003F31344543302461A70FB68D9B27A68DE
:102C8000FB682C2000FB03F3134460331B781A46C7
:102C900078680DF0EFFF7B681B69012B2BD17A68F8
:102CA000FB682C2101FB03F3134448331B6879684C
:102CB000FA682C2000FB02F20A4440321288B3FB6F
:102CC000F2F303F00103002B00F0BA817A68FB688D
:102CD0002C2101FB03F3134454331B7883F00103CD
:102CE000D8B27A68FB682C2101FB03F313445433F8
:102CF00002461A70A4E17A68FB682C2101FB03F3F9
:102D0000134454331B7883F00103D8B27A68FB680C
:102D10002C2101FB03F31344543302461A708FE154
:102D2000FB685A013B69134403F5A0639B6803F0F9
:102D30000203022B40F00681FB685A013B691344F1
:102D400003F5A063DB68FA6851013A690A4402F5A9
:102D5000A06223F00203D3607A68FB682C2101FB98
:102D600003F3134461331B78012B09D17A68FB68A4
:102D70002C2101FB03F31344603301221A70C9E0D4
:102D80007A68FB682C2101FB03F3134461331B7841
:102D9000052B09D17A68FB682C2101FB03F313444E
:102DA000603305221A70B5E07A68FB682C2101FBBC
:102DB00003F3134461331B78062B09D07A68FB6850
:102DC0002C2101FB03F3134461331B78082B50D1F2
:102DD0007A68FB682C2101FB03F313445C331B6806
:102DE0005A1C7968FB682C2000FB03F30B445C330E
:102DF0001A607A68FB682C2101FB03F313445C33EF
:102E00001B68022B12D97A68FB682C2101FB03F3A3
:102E100013445C3300221A607A68FB682C2101FBA2
:102E200003F31344603304221A7073E07A68FB687A
:102E30002C2101FB03F31344603302221A70FB6858
:102E40005A013B69134403F5A0631B68BB60BB6870
:102E500023F08043BB60BB6843F00043BB60FB686A
:102E60005A013B69134403F5A0631A46BB6813601B
:102E700050E07A68FB682C2101FB03F313446133B3
:102E80001B78032B22D17A68FB682C2101FB03F30A
:102E90001344603302221A70FB685A013B691344E1
:102EA00003F5A0631B68BB60BB6823F08043BB6075
:102EB000BB6843F00043BB60FB685A013B691344A5
:102EC00003F5A0631A46BB68136023E07A68FB68C9
:102ED0002C2101FB03F3134461331B78072B19D119
:102EE0007A68FB682C2101FB03F313445C331B68F5
:102EF0005A1C7968FB682C2000FB03F30B445C33FD
:102F00001A607A68FB682C2101FB03F313446033D9
:102F100004221A70FB685A013B69134403F5A0634D
:102F20001A4602239360FB68D9B27A68FB682C20AA
:102F300000FB03F3134460331B781A4678680DF0E6
:102F400099FE7DE0FB685A013B69134403F5A063D9
:102F50009B6803F01003102B72D17A68FB682C2158
:102F600001FB03F313443F331B78032B21D17A6811
:102F7000FB682C2101FB03F313445C3300221A602D
:102F8000FB685A013B69134403F5A063DB68FA68E8
:102F900051013A690A4402F5A06243F00203D3608A
:102FA0007B681B68FA68D2B21146184603F05CFDD4
:102FB0003DE07A68FB682C2101FB03F313443F33A7
:102FC0001B78002B09D07A68FB682C2101FB03F3E6
:102FD00013443F331B78022B29D17A68FB682C21DC
:102FE00001FB03F313445C3300221A607A68FB6828
:102FF0002C2101FB03F31344613303221A70FB6895
:103000005A013B69134403F5A063DB68FA68510178
:103010003A690A4402F5A06243F00203D3607B6878
:103020001B68FA68D2B21146184603F01DFDFB6812
:103030005A013B69134403F5A0631A4610239360B9
:1030400000BF1837BD4680BD80B588B000AF78603E
:103050000B46FB707B681B68FB61FB69BB61FB78FF
:103060007B617B695A01BB69134403F5A0639B68CC
:1030700003F00403042B19D17B695A01BB69134483
:1030800003F5A0631A46042393607B695A01BB6968
:10309000134403F5A063DB687A695101BA690A44F5
:1030A00002F5A06243F00203D36063E37B695A0137
:1030B000BB69134403F5A0639B6803F02003202B36
:1030C0003ED17B695A01BB69134403F5A0631A46DC
:1030D000202393607A687B692C2101FB03F313445E
:1030E0003D331B78012B40F045837A687B692C21A6
:1030F00001FB03F313443D3300221A707A687B69A5
:103100002C2101FB03F31344603302221A707B6904
:103110005A01BB69134403F5A063DB687A69510166
:10312000BA690A4402F5A06243F00203D3607B68E7
:103130001B687A69D2B21146184603F095FC19E370
:103140007B695A01BB69134403F5A0639B6803F4D0
:103150000073B3F5007F22D17B695A01BB69134428
:1031600003F5A063DB687A695101BA690A4402F584
:10317000A06243F00203D3607B681B687A69D2B215
:103180001146184603F070FC7B695A01BB69134471
:1031900003F5A0631A464FF400739360EAE27B697B
:1031A0005A01BB69134403F5A0639B6803F0010354
:1031B000012B50D17A687B692C2101FB03F3134466
:1031C0005C3300221A607B695A01BB69134403F522
:1031D000A0639B6803F04003402B11D17A687B69A0
:1031E0002C2101FB03F313443D3301221A707B6948
:1031F0005A01BB69134403F5A0631A464023936048
:103200007B695A01BB69134403F5A063DB687A69E3
:103210005101BA690A4402F5A06243F00203D36087
:103220007B681B687A69D2B21146184603F01CFC11
:103230007B695A01BB69134403F5A0631A46012355
:1032400093607A687B692C2101FB03F3134461339B
:1032500001221A708EE27B695A01BB69134403F59F
:10326000A0639B6803F04003402B3CD17A687B69E4
:103270002C2101FB03F31344613304221A707A6892
:103280007B692C2101FB03F313443D3301221A70A7
:103290007A687B692C2101FB03F313445C33002221
:1032A0001A607B695A01BB69134403F5A063DB68AC
:1032B0007A695101BA690A4402F5A06243F0020337
:1032C000D3607B681B687A69D2B21146184603F056
:1032D000CBFB7B695A01BB69134403F5A0631A4613
:1032E0004023936046E27B695A01BB69134403F5AE
:1032F000A0639B6803F00803082B2AD17B695A015D
:10330000BB69134403F5A0631A46082393607B69E5
:103310005A01BB69134403F5A063DB687A69510164
:10332000BA690A4402F5A06243F00203D3607B68E5
:103330001B687A69D2B21146184603F095FB7A6889
:103340007B692C2101FB03F31344613305221A70BE
:1033500010E27B695A01BB69134403F5A0639B68C3
:1033600003F01003102B33D17A687B692C2101FB09
:1033700003F313445C3300221A607A687B692C21C2
:1033800001FB03F31344613303221A707B695A0172
:10339000BB69134403F5A063DB687A695101BA691C
:1033A0000A4402F5A06243F00203D3607B681B6805
:1033B0007A69D2B21146184603F056FB7B695A016E
:1033C000BB69134403F5A0631A4610239360D1E14F
:1033D0007B695A01BB69134403F5A0639B6803F042
:1033E0008003802B2AD17A687B692C2101FB03F3AF
:1033F0001344613306221A707B695A01BB69134476
:1034000003F5A063DB687A695101BA690A4402F5E1
:10341000A06243F00203D3607B681B687A69D2B272
:103420001146184603F020FB7B695A01BB6913441F
:1034300003F5A0631A46802393609BE17B695A01E0
:10344000BB69134403F5A0639B6803F48063B3F581
:10345000806F34D17B695A01BB69134403F5A063C3
:10346000DB687A695101BA690A4402F5A06243F047
:103470000203D3607B681B687A69D2B21146184692
:1034800003F0F2FA7B695A01BB69134403F5A063A8
:103490001A46102393607B695A01BB69134403F5F4
:1034A000A0631A464FF4806393607A687B692C218D
:1034B00001FB03F31344613308221A705AE17B695C
:1034C0005A01BB69134403F5A0639B6803F0020330
:1034D000022B40F04F817B695A01BB69134403F50D
:1034E000A063DB687A695101BA690A4402F5A062F7
:1034F00023F00203D3607A687B692C2101FB03F37C
:10350000134461331B78012B7DD17A687B692C21B0
:1035100001FB03F31344603301221A707A687B695C
:103520002C2101FB03F313443F331B78022B0AD0F9
:103530007A687B692C2101FB03F313443F331B782A
:10354000032B40F000817B681B69002B13D17A6844
:103550007B692C2101FB03F3134455331B7883F063
:103560000103D8B27A687B692C2101FB03F3134471
:10357000553302461A707B681B69012B40F0E380CB
:103580007A687B692C2101FB03F313444C331B68DD
:10359000002B00F0D8807A687B692C2101FB03F3B3
:1035A00013444C331B6879687A692C2000FB02F2C3
:1035B0000A44403212881344013B79687A692C200E
:1035C00000FB02F20A4440321288B3FBF2F3FB60C4
:1035D000FB6803F00103002B00F0B5807A687B697B
:1035E0002C2101FB03F3134455331B7883F00103B3
:1035F000D8B27A687B692C2101FB03F3134455335D
:1036000002461A709FE07A687B692C2101FB03F364
:10361000134461331B78032B09D17A687B692C2111
:1036200001FB03F31344603302221A708BE07A68C3
:103630007B692C2101FB03F3134461331B78042BBA
:1036400009D17A687B692C2101FB03F313446033B1
:1036500002221A7077E07A687B692C2101FB03F360
:10366000134461331B78052B09D17A687B692C21BF
:1036700001FB03F31344603305221A7063E07A6898
:103680007B692C2101FB03F3134461331B78062B68
:1036900009D07A687B692C2101FB03F31344613361
:1036A0001B78082B4FD17A687B692C2101FB03F32F
:1036B00013445C331B685A1C79687B692C2000FB1F
:1036C00003F30B445C331A607A687B692C2101FB9D
:1036D00003F313445C331B68022B12D97A687B69AD
:1036E0002C2101FB03F313445C3300221A607A6837
:1036F0007B692C2101FB03F31344603304221A700D
:1037000021E07A687B692C2101FB03F313446033C9
:1037100002221A707B695A01BB69134403F5A06346
:103720001B683B613B6923F080433B613B6943F08D
:1037300000433B617B695A01BB69134403F5A063F5
:103740001A463B6913607B695A01BB69134403F550
:10375000A0631A46022393607B69D9B27A687B69B9
:103760002C2000FB03F3134460331B781A4678685F
:103770000DF080FA00BF2037BD4680BD80B58AB00D
:1037800000AF78607B681B687B627B6A3B627B680A
:103790001B681B6AFB61FB6903F00F03BB61FB69DC
:1037A0005B0C03F00F037B61FB691B09C3F30A0386
:1037B0003B617B69022B04D07B69052B00F0A9805B
:1037C000AAE03B69002B00F0A6807A68BB692C2137
:1037D00001FB03F3134444331B68002B00F09B8070
:1037E0007A68BB692C2101FB03F3134450331A6838
:1037F0003B691A447968BB692C2000FB03F30B4436
:103800004C331B689A427AD87B6818687A68BB691F
:103810002C2101FB03F3134444331B683A6992B231
:10382000194602F040FD7A68BB692C2101FB03F3C5
:10383000134444331A683B691A447968BB692C20E5
:1038400000FB03F30B4444331A607A68BB692C21F4
:1038500001FB03F3134450331A683B691A44796837
:10386000BB692C2000FB03F30B4450331A60BB6987
:103870005A013B6A134403F5A0631B69DB0CC3F3D5
:103880000903FB607A68BB692C2101FB03F3134435
:1038900040331B881A463B6993423CD1FB68002B9E
:1038A00039D0BB695A013B6A134403F5A0631B6816
:1038B000BB60BB6823F08043BB60BB6843F0004340
:1038C000BB60BB695A013B6A134403F5A0631A4607
:1038D000BB6813607A68BB692C2101FB03F31344B6
:1038E00054331B7883F00103D8B27A68BB692C216A
:1038F00001FB03F31344543302461A700BE07A6859
:10390000BB692C2101FB03F31344603304221A70BA
:1039100001E000BF00E000BF00BF2837BD4680BD0A
:1039200080B586B000AF78607B681B687B617B697F
:103930003B613B6903F588631B68FB603B6903F5EA
:1039400088631B68BB60BB6823F02E03BB60FB6809
:1039500003F00203022B0BD1FB6803F00103012BE0
:1039600002D178680DF06AF9BB6843F00203BB60CE
:10397000FB6803F00803082B32D1BB6843F008034F
:10398000BB60FB6803F00403042B26D17B689B69B2
:10399000022B13D1FB6803F4C023B3F5802F06D1AB
:1039A0007B681B680221184602F09CFD11E07B68D1
:1039B0001B680121184602F095FD0AE07B68DB6870
:1039C000012B06D13B6903F580631A464EF660234E
:1039D000536078680DF060F902E078680DF06AF9DC
:1039E000FB6803F02003202B03D1BB6843F02003C6
:1039F000BB603B6903F588631A46BB68136000BF70
:103A00001837BD4680BD000080B586B000AF786035
:103A10007B68002B01D1012304E37B681B6803F062
:103A20000103002B00F08780924B5B6803F00C03CE
:103A3000042B0CD08F4B5B6803F00C03082B12D1C6
:103A40008C4B5B6803F48033B3F5803F0BD1894B1B
:103A50001B6803F40033002B6CD07B689B68002B41
:103A600068D10123DEE27B689B68B3F5803F06D115
:103A7000804B1B687F4A43F4803313602EE07B68E1
:103A80009B68002B0CD17B4B1B687A4A23F4803354
:103A90001360784B1B68774A23F4802313601DE082
:103AA0007B689B68B3F5A02F0CD1724B1B68714AE1
:103AB00043F4802313606F4B1B686E4A43F48033DA
:103AC00013600BE06B4B1B686A4A23F4803313606E
:103AD000684B1B68674A23F4802313607B689B68EC
:103AE000002B13D0FDF7CAFE386108E0FDF7C6FED3
:103AF00002463B69D31A642B01D9032392E25D4B42
:103B00001B6803F40033002BF0D014E0FDF7B6FE81
:103B1000386108E0FDF7B2FE02463B69D31A642B18
:103B200001D903237EE2534B1B6803F40033002BBF
:103B3000F0D100E000BF7B681B6803F00203002B9C
:103B400063D04C4B5B6803F00C03002B0BD0494B4C
:103B50005B6803F00C03082B1CD1464B5B6803F435
:103B60008033002B16D1434B1B6803F00203002B5C
:103B700005D07B685B69012B01D0012352E23D4BEC
:103B80001B6823F0F8027B689B69DB00394913430B
:103B90000B603AE07B685B69002B20D0364B01223A
:103BA0001A60FDF76BFE386108E0FDF767FE02461C
:103BB0003B69D31A022B01D9032333E22D4B1B6837
:103BC00003F00203002BF0D02A4B1B6823F0F8020D
:103BD0007B689B69DB00274913430B6015E0264B8C
:103BE00000221A60FDF74AFE386108E0FDF746FE44
:103BF00002463B69D31A022B01D9032312E21D4B63
:103C00001B6803F00203002BF0D17B681B6803F0F4
:103C10000803002B3AD07B68DB69002B19D0174BC7
:103C200001221A60FDF72AFE386108E0FDF726FE42
:103C300002463B69D31A022B01D90323F2E10D4B53
:103C40005B6A03F00203002BF0D0012000F01CFCA3
:103C50001CE00A4B00221A60FDF710FE38610FE0ED
:103C6000FDF70CFE02463B69D31A022B08D9032349
:103C7000D8E100BF001002400000424280044242EE
:103C80009B4B5B6A03F00203002BE9D17B681B6846
:103C900003F00403002B00F0A6800023FB75944B77
:103CA000DB6903F08053002B0DD1914BDB69904A07
:103CB00043F08053D3618E4BDB6903F08053BB60CC
:103CC000BB680123FB758B4B1B6803F48073002BCF
:103CD00018D1884B1B68874A43F480731360FDF743
:103CE000CDFD386108E0FDF7C9FD02463B69D31AF6
:103CF000642B01D9032395E17E4B1B6803F4807389
:103D0000002BF0D07B681B69012B06D1784B1B6A16
:103D1000774A43F0010313622DE07B681B69002B97
:103D20000CD1734B1B6A724A23F001031362704B70
:103D30001B6A6F4A23F0040313621CE07B681B6953
:103D4000052B0CD16A4B1B6A694A43F004031362CA
:103D5000674B1B6A664A43F0010313620BE0644B36
:103D60001B6A634A23F001031362614B1B6A604ABA
:103D700023F0040313627B681B69002B15D0FDF749
:103D80007DFD38610AE0FDF779FD02463B69D31AF3
:103D900041F28832934201D9032343E1544B1B6A19
:103DA00003F00203002BEED014E0FDF767FD38614D
:103DB0000AE0FDF763FD02463B69D31A41F28832FF
:103DC000934201D903232DE1494B1B6A03F00203FF
:103DD000002BEED1FB7D012B05D1454BDB69444A1D
:103DE00023F08053D3617B68DB6A002B00F08C806A
:103DF0003F4B5B6803F48033B3F5803F0ED13C4BFF
:103E00005B6803F00C03082B08D1394BDB6A03F421
:103E10008033B3F5803F01D1012303E17B68DB6A86
:103E2000022B4ED1324B1B6803F08053002B09D07C
:103E30002F4BDB6A03F0F0027B685B6B9A4201D088
:103E40000123EFE02C4B00221A60FDF717FD3861CB
:103E500008E0FDF713FD02463B69D31A642B01D934
:103E60000323DFE0224B1B6803F00063002BF0D13B
:103E70001F4BDB6A23F0F0027B685B6B1C4913432A
:103E8000CB621B4BDB6A23F470627B681B6B1849A7
:103E90001343CB62184B01221A60FDF7EFFC386127
:103EA00008E0FDF7EBFC02463B69D31A642B01D90D
:103EB0000323B7E00E4B1B6803F00063002BF0D028
:103EC00022E00B4BDB6A0A4A23F48033D3620A4BAD
:103ED00000221A60FDF7D2FC38610FE0FDF7CEFC3E
:103EE00002463B69D31A642B08D903239AE000BF2A
:103EF0000010024000700040680042424B4B1B68BB
:103F000003F00063002BE9D17B681B6A002B00F0F3
:103F10008880464B5B6803F00C03082B68D07B68F5
:103F20001B6A022B4DD1424B00221A60FDF7A6FC02
:103F3000386108E0FDF7A2FC02463B69D31A022B68
:103F400001D903236EE0394B1B6803F00073002B8B
:103F5000F0D17B685B6AB3F5803F0FD1334BDA6AEF
:103F60007B685B6831491343CB62304BDB6A23F0DB
:103F70000F027B68DB682D491343CB622B4B5B68D8
:103F800023F474127B68596A7B689B6A0B43274948
:103F900013434B60264B01221A60FDF76FFC38611A
:103FA00008E0FDF76BFC02463B69D31A022B01D9EE
:103FB000032337E01D4B1B6803F00073002BF0D088
:103FC0002FE01B4B00221A60FDF758FC386108E017
:103FD000FDF754FC02463B69D31A022B01D9032397
:103FE00020E0124B1B6803F00073002BF0D118E0A7
:103FF0007B681B6A012B01D1012313E00B4B5B682B
:10400000FB60FB6803F480327B685B6A9A4206D1EE
:10401000FB6803F470127B689B6A9A4201D001230B
:1040200000E0002318461837BD4680BD001002404E
:104030006000424280B584B000AF786039607B6830
:10404000002B01D10123D0E06A4B1B6803F007036A
:104050003A689A4210D9674B1B6823F007026549FA
:104060003B6813430B60634B1B6803F007033A681C
:104070009A4201D00123B8E07B681B6803F0020379
:10408000002B20D07B681B6803F00403002B05D0B5
:10409000594B5B68584A43F4E06353607B681B6884
:1040A00003F00803002B05D0534B5B68524A43F4DE
:1040B00060535360504B5B6823F0F0027B689B6851
:1040C0004D4913434B607B681B6803F00103002BD1
:1040D00040D07B685B68012B07D1474B1B6803F41A
:1040E0000033002B15D101237FE07B685B68022B36
:1040F00007D1414B1B6803F00073002B09D101234A
:1041000073E03D4B1B6803F00203002B01D1012338
:104110006BE0394B5B6823F003027B685B683649D0
:1041200013434B60FDF7AAFBF8600AE0FDF7A6FB1E
:104130000246FB68D31A41F28832934201D9032325
:1041400053E02D4B5B6803F00C027B685B689B00BF
:104150009A42EBD1274B1B6803F007033A689A4257
:1041600010D2244B1B6823F0070222493B681343FB
:104170000B60204B1B6803F007033A689A4201D09A
:10418000012332E07B681B6803F00403002B08D096
:10419000194B5B6823F4E0627B68DB6816491343C4
:1041A0004B607B681B6803F00803002B09D0124B9F
:1041B0005B6823F460527B681B69DB000E49134384
:1041C0004B6000F021F802460B4B5B681B0903F0C3
:1041D0000F030A49CB5C22FA03F3094A1360094B27
:1041E0001B681846FDF722F9002318461037BD4614
:1041F00080BD00BF0020024000100240C41D010825
:1042000000000020040000202DE9F04F99B000AF1D
:10421000664B07F134040FCB07C42380644B07F1CE
:1042200024040FCB84E80F0000237B6500233B654B
:104230000023FB650023FB640023BB650023BB64F4
:1042400000237B645B4B5B687B657B6D03F00C0339
:10425000042B02D0082B03D09FE0574BBB659FE097
:104260007B6D9B0C03F00F03403307F120021344D6
:1042700013F82C3CFB647B6D03F48033002B00F0BF
:1042800084804C4BDB6A03F00F03403307F12002BC
:10429000134413F83C3C3B65464BDB6A03F4803324
:1042A000002B60D0434BDB6A1B0903F00F03013383
:1042B000BB64404BDB6A1B0A03F00F0302337B64D1
:1042C0007B6C00223B617A61FB6C0022BB61FA616E
:1042D000D7E904342246D7E9060184460CFB02F2F2
:1042E000C7E906018C4618462146034603FB0CF33A
:1042F00013440246B969A2FB01894B4499462E4BEF
:1043000003FB09F2002303FB08F313442A4AA8FB2A
:1043100002AB5B449B46BB6C0022BB60FA603B6D0A
:1043200000223B607A60D7E902342246D7E900894F
:10433000414601FB02F2CC4618462146034603FBE8
:104340000CF3134402464146A2FB015633441E4679
:104350002A46334650465946FBF772FF02460B4643
:104360001346FB6507E0FB6C134A03FB02F23B6D4F
:10437000B2FBF3F3FB6597F841301A46FB6C9342AE
:1043800008D1FB6D5B08FB6504E0FB6C0B4A02FB8C
:1043900003F3FB65FB6DBB6502E0094BBB6500BF2A
:1043A000BB6D18466437BD46BDE8F08F0C1D010893
:1043B0001C1D0108001002408096980000093D0075
:1043C00000127A0080B400AF024B1B681846BD464D
:1043D00080BC70470000002080B500AFFFF7F2FFFF
:1043E0000246054B5B681B0A03F007030349CB5CDD
:1043F00022FA03F3184680BD00100240D41D0108C4
:1044000080B500AFFFF7DEFF0246054B5B68DB0AB5
:1044100003F007030349CB5C22FA03F3184680BD7F
:1044200000100240D41D010880B483B000AF786052
:1044300039607B680F221A60114B5B6803F003023E
:104440007B685A600E4B5B6803F0F0027B689A60F1
:104450000B4B5B6803F4E0627B68DA60084B5B68D7
:10446000DB0803F4E0627B681A61064B1B6803F00B
:1044700007023B681A6000BF0C37BD4680BC70471E
:10448000001002400020024080B485B000AF786088
:104490000A4B1B680A4AA2FB03235B0A7A6802FBE9
:1044A00003F3FB6000BFFB685A1EFA60002BF9D1D2
:1044B00000BF00BF1437BD4680BC7047000000201D
:1044C000D34D621080B588B000AF786000237B6167
:1044D00000233B610023FB617B681B6803F0010341
:1044E000002B7DD00023FB768B4BDB6903F08053E0
:1044F000002B0DD1884BDB69874A43F08053D36191
:10450000854BDB6903F08053FB60FB680123FB767E
:10451000824B1B6803F48073002B18D17F4B1B6800
:104520007E4A43F480731360FDF7A8F9786108E0D0
:10453000FDF7A4F902467B69D31A642B01D9032342
:10454000E5E0764B1B6803F48073002BF0D0724BD0
:104550001B6A03F440733B613B69002B2ED07B68E0
:104560005B6803F440733A699A4227D06A4B1B6A2E
:1045700023F440733B616A4B01221A60684B0022AE
:104580001A60654A3B6913623B6903F00103002B23
:1045900014D0FDF773F978610AE0FDF76FF9024670
:1045A0007B69D31A41F28832934201D90323AEE0EA
:1045B000594B1B6A03F00203002BEED0564B1B6ACB
:1045C00023F440727B685B68534913430B62FB7EA4
:1045D000012B05D1504BDB694F4A23F08053D36147
:1045E0007B681B6803F00203002B08D04A4B5B6812
:1045F00023F440427B689B68474913434B607B68C8
:104600001B6803F00403002B08D0434BDB6A23F440
:1046100000327B68DB6840491343CB627B681B68D0
:1046200003F00803002B08D03B4BDB6A23F4802205
:104630007B681B6938491343CB62374BDB6A03F451
:104640000033002B05D1344BDB6A03F48023002BAD
:1046500001D00123FB61FB69012B48D12E4B1B6864
:1046600003F08053002B38D12B4B1B6803F0806381
:10467000002B09D0284BDB6A03F0F0027B689B69B2
:104680009A4201D0012342E0234BDB6A23F0F0027F
:104690007B689B6920491343CB621F4BDB6A23F481
:1046A00070427B685B691C491343CB621D4B01223E
:1046B0001A60FDF7E3F8786108E0FDF7DFF80246DD
:1046C0007B69D31A642B01D9032320E0124B1B68AA
:1046D00003F00053002BF0D009E00F4BDB6A03F42A
:1046E00070427B685B699A4201D001230FE07B68CE
:1046F0001B6803F01003002B08D0074B5B6823F402
:1047000080027B68DB69044913434B600023184631
:104710002037BD4680BD00BF001002400070004041
:10472000400442427000424280B582B000AF7860DF
:104730007B68002B01D1012376E07B685B6A002B4C
:1047400008D17B685B68B3F5827F09D07B68002263
:10475000DA6105E07B6800221A617B6800225A61F9
:104760007B6800229A627B6893F85130DBB2002BA1
:1047700006D17B68002283F850207868FCF784FD1E
:104780007B68022283F851207B681B681A687B686B
:104790001B6822F040021A607B685B6803F4827237
:1047A0007B689B6803F404431A437B68DB6803F46B
:1047B00000631A437B681B6903F002031A437B689A
:1047C0005B6903F001031A437B689B6903F4007380
:1047D0001A437B68DB6903F038031A437B681B6A62
:1047E00003F0800342EA03017B689B6A03F40052F2
:1047F0007B681B680A431A607B689B691A0C7B689C
:104800001B6802F004025A607B681B68DA697B68E7
:104810001B6822F40062DA617B6800225A657B68BB
:10482000012283F85120002318460837BD4680BD79
:1048300080B58CB000AFF860B9607A607B800123EE
:10484000FB62002387F82B30FB6893F85030012B74
:1048500001D102238AE1FB68012283F85020FDF791
:104860000DF87862FB6893F8513087F82330FB68C5
:104870005B68FB617B887B8397F82330012B0FD02B
:10488000FB69B3F5827F07D1FB689B68002B03D1DE
:1048900097F82330042B03D0022387F82B305BE1F9
:1048A000BB68002B05D07B68002B02D07B88002BD7
:1048B00003D1012387F82B304EE1FB6893F8513088
:1048C000DBB2042B03D0FB68052283F85120FB6880
:1048D00000225A65FB687A689A63FB687A88DA87EF
:1048E000FB687A889A87FB68BA681A63FB687A88DB
:1048F000DA86FB687A889A86FB6800221A64FB686D
:1049000000225A64FB681B681B6803F04003402BBD
:1049100007D0FB681B681A68FB681B6842F04002FE
:104920001A60FB68DB68B3F5006F78D1FB685B68E1
:10493000002B02D07B8B012B66D1FB681B6B1A8886
:10494000FB681B68DA60FB681B6B9A1CFB681A63C8
:10495000FB68DB8E9BB2013B9AB2FB68DA8653E0C0
:10496000FB681B689B6803F00203022B1BD1FB68EA
:10497000DB8E9BB2002B16D0FB6A012B13D1FB6898
:104980001B6B1A88FB681B68DA60FB681B6B9A1C40
:10499000FB681A63FB68DB8E9BB2013B9AB2FB6833
:1049A000DA860023FB62FB681B689B6803F0010347
:1049B000012B19D1FB68DB8F9BB2002B14D0FB6855
:1049C0001B68DA68FB689B6B92B21A80FB689B6B72
:1049D0009A1CFB689A63FB68DB8F9BB2013B9AB21F
:1049E000FB68DA870123FB62FCF748FF02467B6A1B
:1049F000D31ABA6B9A4207D8BB6BB3F1FF3F03D00F
:104A0000032387F82B30A7E0FB68DB8E9BB2002BDB
:104A1000A6D1FB68DB8F9BB2002BA1D17CE0FB68A9
:104A20005B68002B02D07B8B012B6BD1FB681A6B70
:104A3000FB681B680C3312781A70FB681B6B5A1CDE
:104A4000FB681A63FB68DB8E9BB2013B9AB2FB6882
:104A5000DA8657E0FB681B689B6803F00203022BB1
:104A60001CD1FB68DB8E9BB2002B17D0FB6A012B9D
:104A700014D1FB681A6BFB681B680C3312781A7030
:104A8000FB681B6B5A1CFB681A63FB68DB8E9BB2CE
:104A9000013B9AB2FB68DA860023FB62FB681B6865
:104AA0009B6803F00103012B19D1FB68DB8F9BB2DC
:104AB000002B14D0FB681B68DA68FB689B6BD2B2D2
:104AC0001A70FB689B6B5A1CFB689A63FB68DB8F50
:104AD0009BB2013B9AB2FB68DA870123FB62FCF7C9
:104AE000CDFE02467B6AD31ABA6B9A4203D8BB6BDF
:104AF000B3F1FF3F02D1BB6B002B03D1032387F837
:104B00002B3029E0FB68DB8E9BB2002BA2D1FB6827
:104B1000DB8F9BB2002B9DD17A6AB96BF86800F0ED
:104B2000B5F90346002B06D0012387F82B30FB682C
:104B300020225A6510E0FB689B68002B0BD10023F4
:104B40007B61FB681B68DB687B61FB681B689B689B
:104B50007B617B6900E000BFFB68012283F8512084
:104B6000FB68002283F8502097F82B301846303726
:104B7000BD4680BD80B588B000AF78607B681B689B
:104B80005B68FB617B681B689B68BB61BB699B09B9
:104B900003F00103002B0FD1BB6903F00103002BCD
:104BA0000AD0FB699B0903F00103002B04D07B684A
:104BB0001B6C78689847BEE0BB695B0803F0010393
:104BC000002B0AD0FB69DB0903F00103002B04D0A2
:104BD0007B685B6C78689847ADE0BB695B0903F064
:104BE0000103002B06D1BB699B0903F00103002BD5
:104BF00000F0A180FB695B0903F00103002B00F0CA
:104C00009A80BB699B0903F00103002B23D07B68CA
:104C100093F85130DBB2032B11D07B685B6D43F00E
:104C200004027B685A6500237B617B681B68DB6834
:104C30007B617B681B689B687B617B690BE0002361
:104C40003B617B681B68DB683B617B681B689B681A
:104C50003B613B696FE0BB695B0903F00103002B1B
:104C600014D07B685B6D43F001027B685A650023BA
:104C7000FB607B681B689B68FB607B681B681A682D
:104C80007B681B6822F040021A60FB687B685B6DE2
:104C9000002B4FD07B681B685A687B681B6822F02A
:104CA000E0025A607B68012283F85120FB6903F01F
:104CB0000203002B04D1FB6903F00103002B34D065
:104CC0007B681B685A687B681B6822F003025A6085
:104CD0007B68DB6C002B11D07B68DB6C174A5A6356
:104CE0007B68DB6C1846FCF711FF0346002B05D0F0
:104CF0007B685B6D43F040027B685A657B689B6C08
:104D0000002B16D07B689B6C0C4A5A637B689B6CAB
:104D10001846FCF7FBFE0346002B0AD07B685B6D50
:104D200043F040027B685A6503E0786800F008F8B9
:104D300000E000BF00BF2037BD4680BD534D0008D6
:104D400080B483B000AF786000BF0C37BD4680BC34
:104D5000704780B584B000AF78607B685B6AFB60A9
:104D6000FB680022DA87FB680022DA86F868FFF722
:104D7000E7FF00BF1037BD4680BD000080B588B09A
:104D800000AFF860B9603B601346FB71FCF776FD3D
:104D90000246BB6A9B1A3A681344FB61FCF76EFD3E
:104DA000B861394B1B685B011B0DFA6902FB03F309
:104DB0007B6154E03B68B3F1FF3F50D0FCF75EFDF0
:104DC0000246BB69D31AFA699A4202D9FB69002BE1
:104DD0003DD1FB681B685A68FB681B6822F0E00243
:104DE0005A60FB685B68B3F5827F11D1FB689B68F2
:104DF000B3F5004F04D0FB689B68B3F5806F07D113
:104E0000FB681B681A68FB681B6822F040021A6086
:104E1000FB689B6AB3F5005F0FD1FB681B681A68DB
:104E2000FB681B6822F400521A60FB681B681A6852
:104E3000FB681B6842F400521A60FB68012283F889
:104E40005120FB68002283F85020032317E07B6980
:104E5000002B01D10023FB617B69013B7B61FB6877
:104E60001B689A68BB681340BA689A420CBF01235A
:104E70000023DBB21A46FB799A429BD100231846E5
:104E80002037BD4680BD00BF0000002080B586B041
:104E900002AFF860B9607A607B680093BB6800225B
:104EA0008021F868FFF76AFF0346002B07D0FB68F4
:104EB0005B6D43F02002FB685A65032300E000238A
:104EC00018461037BD4680BD80B582B000AF78600F
:104ED0007B68002B01D1012341E07B6893F83D30D2
:104EE000DBB2002B06D17B68002283F83C20786877
:104EF000FCF72CFA7B68022283F83D207B681A6855
:104F00007B6804331946104600F078FA7B6801226A
:104F100083F846207B68012283F83E207B680122CB
:104F200083F83F207B68012283F840207B680122C0
:104F300083F841207B68012283F842207B680122AC
:104F400083F843207B68012283F844207B68012298
:104F500083F845207B68012283F83D200023184612
:104F60000837BD4680BD000080B485B000AF7860D2
:104F70007B6893F83D30DBB2012B01D001233FE089
:104F80007B68022283F83D207B681B68DA687B68B7
:104F90001B6842F00102DA607B681B681B4A93427F
:104FA00013D07B681B68B3F1804F0ED07B681B6801
:104FB000174A934209D07B681B68164A934204D073
:104FC0007B681B68144A934211D17B681B689B68FD
:104FD00003F00703FB60FB68062B10D07B681B689F
:104FE0001A687B681B6842F001021A6007E07B6860
:104FF0001B681A687B681B6842F001021A60002374
:1050000018461437BD4680BC704700BF002C0140D5
:105010000004004000080040000C004080B582B051
:1050200000AF78607B681B681B6903F00203022BEA
:1050300022D17B681B68DB6803F00203022B1BD1C3
:105040007B681B686FF002021A617B6801221A7785
:105050007B681B689B6903F00303002B03D078680F
:1050600000F0B1F905E0786800F0A4F9786800F084
:10507000B3F97B6800221A777B681B681B6903F011
:105080000403042B22D17B681B68DB6803F0040354
:10509000042B1BD17B681B686FF004021A617B68CC
:1050A00002221A777B681B689B6903F44073002B0C
:1050B00003D0786800F087F905E0786800F07AF9A5
:1050C000786800F089F97B6800221A777B681B6892
:1050D0001B6903F00803082B22D17B681B68DB687F
:1050E00003F00803082B1BD17B681B686FF00802D4
:1050F0001A617B6804221A777B681B68DB6903F0FE
:105100000303002B03D0786800F05DF905E07868B0
:1051100000F050F9786800F05FF97B6800221A7798
:105120007B681B681B6903F01003102B22D17B687E
:105130001B68DB6803F01003102B1BD17B681B6816
:105140006FF010021A617B6808221A777B681B686F
:10515000DB6903F44073002B03D0786800F033F967
:1051600005E0786800F026F9786800F035F97B688A
:1051700000221A777B681B681B6903F00103012B6F
:105180000ED17B681B68DB6803F00103012B07D19C
:105190007B681B686FF001021A617868FBF756FDA7
:1051A0007B681B681B6903F08003802B0ED17B6832
:1051B0001B68DB6803F08003802B07D17B681B68CA
:1051C0006FF080021A61786800F089FA7B681B68CA
:1051D0001B6903F04003402B0ED17B681B68DB6822
:1051E00003F04003402B07D17B681B686FF040023F
:1051F0001A61786800F0F9F87B681B681B6903F096
:105200002003202B0ED17B681B68DB6803F0200392
:10521000202B07D17B681B686FF020021A61786829
:1052200000F054FA00BF0837BD4680BD80B584B099
:1052300000AF786039607B6893F83C30012B01D176
:105240000223B3E07B68012283F83C207B680222C2
:1052500083F83D207B681B689B68FB60FB6823F03C
:105260007703FB60FB6823F47F43FB607B681B686C
:10527000FA689A603B681B68B3F5005F3ED0B3F5EF
:10528000005F00F28780B3F5805F00F08580B3F5A2
:10529000805F7FD8702B1AD0702B7BD8602B50D0BA
:1052A000602B77D8502B3CD0502B73D8402B58D044
:1052B000402B6FD8302B64D0302B6BD8202B60D094
:1052C000202B67D8002B5CD0102B5AD062E07B6873
:1052D00018683B6899683B685A683B68DB6800F06F
:1052E00070F97B681B689B68FB60FB6843F0770381
:1052F000FB607B681B68FA689A604EE07B68186800
:105300003B6899683B685A683B68DB6800F059F96C
:105310007B681B689A687B681B6842F480429A60CD
:105320003BE07B6818683B6859683B68DB681A4655
:1053300000F0D0F87B681B685021184600F027F970
:105340002BE07B6818683B6859683B68DB681A4645
:1053500000F0EEF87B681B686021184600F017F932
:105360001BE07B6818683B6859683B68DB681A4635
:1053700000F0B0F87B681B684021184600F007F980
:105380000BE07B681A683B681B681946104600F002
:10539000FEF802E000BF00E000BF7B68012283F856
:1053A0003D207B68002283F83C20002318461037FC
:1053B000BD4680BD80B483B000AF786000BF0C37BD
:1053C000BD4680BC704780B483B000AF786000BF3A
:1053D0000C37BD4680BC704780B483B000AF7860A6
:1053E00000BF0C37BD4680BC704780B483B000AFAF
:1053F000786000BF0C37BD4680BC704780B485B074
:1054000000AF786039607B681B68FB607B682D4A61
:1054100093420FD07B68B3F1804F0BD07B682A4A50
:10542000934207D07B68294A934203D07B68284A7D
:10543000934208D1FB6823F07003FB603B685B6814
:10544000FA681343FB607B681E4A93420FD07B6867
:10545000B3F1804F0BD07B681B4A934207D07B6827
:105460001A4A934203D07B68194A934208D1FB68D9
:1054700023F44073FB603B68DB68FA681343FB600E
:10548000FB6823F080023B685B691343FB607B6829
:10549000FA681A603B689A687B68DA623B681A6847
:1054A0007B689A627B68074A934203D13B681A691A
:1054B0007B681A637B6801225A6100BF1437BD46BE
:1054C00080BC7047002C01400004004000080040F0
:1054D000000C004080B487B000AFF860B9607A601B
:1054E000FB681B6A7B61FB681B6A23F00102FB6897
:1054F0001A62FB689B693B613B6923F0F0033B61E7
:105500007B681B013A6913433B617B6923F00A0303
:105510007B617A69BB6813437B61FB683A699A6176
:10552000FB687A691A6200BF1C37BD4680BC7047B1
:1055300080B487B000AFF860B9607A60FB681B6A1E
:1055400023F01002FB681A62FB689B697B61FB68B1
:105550001B6A3B617B6923F470437B617B681B039F
:105560007A6913437B613B6923F0A0033B61BB680D
:105570001B013A6913433B61FB687A699A61FB68D6
:105580003A691A6200BF1C37BD4680BC704780B4C0
:1055900085B000AF786039607B689B68FB60FB6812
:1055A00023F07003FB603A68FB68134343F0070382
:1055B000FB607B68FA689A6000BF1437BD4680BC08
:1055C000704780B487B000AFF860B9607A603B6024
:1055D000FB689B687B617B6923F47F437B613B684D
:1055E0001A027B681A43BB6813437A6913437B61D1
:1055F000FB687A699A6000BF1C37BD4680BC704763
:1056000080B485B000AF786039607B6893F83C3037
:10561000012B01D102234BE07B68012283F83C205F
:105620007B68022283F83D207B681B685B68FB6017
:105630007B681B689B68BB60FB6823F07003FB60A2
:105640003B681B68FA681343FB607B681B68FA6859
:105650005A607B681B68194A934213D07B681B68A9
:10566000B3F1804F0ED07B681B68154A934209D076
:105670007B681B68134A934204D07B681B68124AFC
:1056800093420CD1BB6823F08003BB603B685B682E
:10569000BA681343BB607B681B68BA689A607B6812
:1056A000012283F83D207B68002283F83C20002300
:1056B00018461437BD4680BC704700BF002C01401F
:1056C0000004004000080040000C004080B483B09B
:1056D00000AF786000BF0C37BD4680BC704780B417
:1056E00083B000AF786000BF0C37BD4680BC704708
:1056F00080B582B000AF78607B68002B01D10123B8
:105700003FE07B6893F83D30DBB2002B06D17B682D
:10571000002283F83C207868FBF734FE7B68242263
:1057200083F83D207B681B68DA687B681B6822F47D
:105730000052DA60786800F01DFC7B681B681A690B
:105740007B681B6822F490421A617B681B685A6967
:105750007B681B6822F02A025A617B681B68DA6842
:105760007B681B6842F40052DA607B6800221A648E
:105770007B68202283F83D207B68202283F83E202E
:10578000002318460837BD4680BD80B58AB002AFF9
:10579000F860B9603B601346FB8000237B61FB68C7
:1057A00093F83D30DBB2202B7CD1BB68002B02D0BC
:1057B000FB88002B01D1012375E0FB6893F83C3096
:1057C000012B01D102236EE0FB68012283F83C200B
:1057D000FB6800221A64FB68212283F83D20FCF755
:1057E0004DF87861FB68FA889A84FB68FA88DA8455
:1057F000FB689B68B3F5805F08D1FB681B69002BD1
:1058000004D10023FB61BB68BB6103E0BB68FB61A3
:105810000023BB61FB68002283F83C202AE03B6840
:1058200000937B6900228021F86800F008FA0346A3
:10583000002B01D0032336E0FB69002B0BD1BB69A1
:105840001B881A46FB681B68C2F308025A60BB69D2
:105850000233BB6107E0FB691A78FB681B685A607A
:10586000FB690133FB61FB68DB8C9BB2013B9AB2A5
:10587000FB68DA84FB68DB8C9BB2002BCFD13B68E2
:1058800000937B6900224021F86800F0D8F90346B4
:10589000002B01D0032306E0FB68202283F83D2083
:1058A000002300E0022318462037BD4680BD0000DB
:1058B00080B58AB000AF78607B681B681B687B622C
:1058C0007B681B68DB683B627B681B685B69FB610C
:1058D0000023BB6100237B617B6A03F00F03BB6184
:1058E000BB69002B0DD17B6A03F02003002B08D08D
:1058F0003B6A03F02003002B03D0786800F090FA95
:105900007BE1BB69002B00F0B180FB6903F0010370
:10591000002B05D13B6A03F49073002B00F0A680A6
:105920007B6A03F00103002B0AD03B6A03F4807307
:10593000002B05D07B681B6C43F001027B681A6466
:105940007B6A03F00403002B0AD0FB6903F0010318
:10595000002B05D07B681B6C43F002027B681A6445
:105960007B6A03F00203002B0AD0FB6903F00103FA
:10597000002B05D07B681B6C43F004027B681A6423
:105980007B6A03F00803002B0FD03B6A03F020036F
:10599000002B04D1FB6903F00103002B05D07B68C9
:1059A0001B6C43F008027B681A647B681B6C002B3D
:1059B00000F01E817B6A03F02003002B07D03B6AB6
:1059C00003F02003002B02D0786800F029FA7B68EE
:1059D0001B685B6903F04003002B14BF0123002305
:1059E000DBB27B617B681B6C03F00803002B02D1E8
:1059F0007B69002B31D0786800F06BF97B681B68FD
:105A00005B6903F04003002B23D07B681B685A6955
:105A10007B681B6822F040025A617B689B6B002BFD
:105A200013D07B689B6B764A5A637B689B6B1846E6
:105A3000FCF76CF80346002B16D07B689B6B5B6B06
:105A40007A68926B104698470EE0786800F0E3F8A9
:105A50000AE0786800F0DFF806E0786800F0DBF82C
:105A60007B6800221A64C3E000BFC1E07B681B6B47
:105A7000012B40F0A1807B6A03F01003002B00F0A3
:105A80009B803B6A03F01003002B00F095800023FD
:105A9000FB607B681B681B68FB607B681B685B683E
:105AA000FB60FB687B681B685B6903F04003002BAD
:105AB0004ED07B689B6B1B685B683B823B8A002BEC
:105AC00000F098807B689B8D3A8A9A4280F09280A1
:105AD0007B683A8ADA857B689B6B9B69202B2BD08D
