:020000040800F2
:1000000000000120D10A0008390A00083F0A000850
:10001000450A00084B0A0008510A000800000000C9
:10002000000000000000000000000000570A000867
:10003000630A0008000000006F0A00087B0A00083D
:10004000190B0008190B0008190B0008190B000800
:10005000190B0008190B0008190B0008190B0008F0
:10006000190B0008190B0008190B0008190B0008E0
:10007000190B0008190B0008190B0008190B0008D0
:10008000190B0008190B0008190B0008190B0008C0
:10009000190B0008190B0008190B0008190B0008B0
:1000A000190B0008890A0008190B0008190B000831
:1000B000190B0008190B0008190B0008190B000890
:1000C000190B0008190B0008190B0008190B000880
:1000D000190B00089D0A0008190B0008190B0008ED
:1000E000190B0008190B0008190B0008000000008C
:1000F0000000000000000000000000000000000000
:100100000000000000000000190B0008190B000897
:10011000190B0008B10A0008190B0008190B000898
:10012000190B0008190B0008190B0008190B00081F
:10013000190B0008190B0008190B0008190B00080F
:10014000190B0008190B0008190B0008190B0008FF
:10015000000000000000000000000000000000009F
:10016000000000000000000000000000000000008F
:10017000000000000000000000000000000000007F
:10018000000000000000000000000000000000006F
:10019000000000000000000000000000000000005F
:1001A000000000000000000000000000000000004F
:1001B000000000000000000000000000000000003F
:1001C000000000000000000000000000000000002F
:1001D000000000000000000000000000000000001F
:0401E0005FF8E0F1F3
:1001E40010B5054C237833B9044B13B10448AFF36D
:1001F40000800123237010BD0C00002000000000CB
:10020400202C000808B5034B1BB103490348AFF386
:10021400008008BD0000000010000020202C000811
:1002240053B94AB9002908BF00281CBF4FF0FF3159
:100234004FF0FF3000F076B9ADF1080C6DE904CE53
:1002440000F006F8DDF804E0DDE9022304B07047AD
:100254002DE9F047089E0D4604468846002B4DD1F3
:100264008A42944668D9B2FA82F252B101FA02F390
:10027400C2F1200120FA01F10CFA02FC41EA030860
:1002840094404FEA1C41B8FBF1F71FFA8CFE01FBC6
:10029400178807FB0EF0230C43EA084398420AD957
:1002A4001CEB030307F1FF3580F01E81984240F2F6
:1002B4001B81023F63441B1AB3FBF1F001FB1033B3
:1002C40000FB0EFEA4B244EA0344A6450AD91CEB83
:1002D400040400F1FF3380F00981A64540F2068151
:1002E400644402380021A4EB0E0440EA07401EB126
:1002F4000023D440C6E90043BDE8F0878B4208D907
:10030400002E00F0EE800021C6E900050846BDE895
:10031400F087B3FA83F100294AD1AB4202D3824277
:1003240000F2FC80841A65EB030301209846002E3A
:10033400E2D0C6E90048DFE702B9FFDEB2FA82F292
:10034400002A40F09180A1EB0C0001214FEA1C47E8
:100354001FFA8CFEB0FBF7F307FB1300250C45EAEC
:1003640000450EFB03F0A84208D91CEB050503F178
:10037400FF3802D2A84200F2CE8043462D1AB5FBC4
:10038400F7F007FB10550EFB00FEA4B244EA054447
:10039400A64508D91CEB040400F1FF3502D2A6459A
:1003A40000F2B6802846A4EB0E0440EA03409EE720
:1003B400C1F120078B4022FA07FC4CEA030C25FA12
:1003C40007FA4FEA1C49BAFBF9F820FA07F309FBCC
:1003D40018AA8D401FFA8CFE1D4300FA01F308FB96
:1003E4000EF02C0C44EA0A44A04202FA01F20BD9A2
:1003F4001CEB040408F1FF3A80F08880A04240F22C
:100404008580A8F102086444241AB4FBF9F009FBBE
:10041400104400FB0EFEADB245EA0444A64508D9DB
:100424001CEB040400F1FF356CD2A6456AD90238EE
:10043400644440EA0840A0FB0295A4EB0E04AC42DD
:10044400C846AE4656D353D0002E69D0B3EB08024B
:1004540064EB0E0422FA01F304FA07F71F43CC40BD
:10046400C6E90074002147E70CFA02FCC2F120013E
:1004740025FA01F34FEA1C4720FA01F195400D4398
:10048400B3FBF7F107FB11331FFA8CFE280C40EA8B
:10049400034001FB0EF3834204FA02F408D91CEB77
:1004A400000001F1FF382FD283422DD90239604474
:1004B400C01AB0FBF7F307FB1300ADB245EA0045E1
:1004C40003FB0EF0A84208D91CEB050503F1FF3825
:1004D40016D2A84214D9023B6544281A43EA0141C2
:1004E40038E73146304607E72F46E4E61846F9E692
:1004F4004B45A9D2B9EB020865EB0C0E0138A3E712
:100504004346EAE7284694E74146D1E7D0467BE7ED
:100514006444023847E7023B65442FE7084606E790
:100524003146E9E6704700BF80B582B000AF78601D
:100534007B68104A93420AD106220F490D4801F004
:10054400EEFE01220D490B4801F02DFF0DE07B6802
:100554000B4A934209D106220A49064801F0DFFEFC
:1005640001220949064801F01EFF00BF0837BD46B5
:1005740080BD00BF6C000020382C0008B0000020B3
:1005840028000020402C0008B100002080B500AFF6
:1005940000F0C2FA00F02CF800F0CCF800F076F885
:1005A40000F09EF801220C490C4801F0FCFE0122E7
:1005B4000B490C4801F0F7FE06220B49074801F0ED
:1005C400AEFE06220949074801F0A9FE4FF4FA607D
:1005D40000F0D4FAF0E700BFB00000206C00002067
:1005E400B100002028000020382C0008402C00080E
:1005F40080B594B000AF07F11803382200211846E3
:1006040002F004FB3B1D00221A605A609A60DA6013
:100614001A610123BB614FF480333B6200237B6288
:100624000123FB620023FB610223BB634FF480338D
:10063400FB634FF440233B6400237B6407F11803FE
:10064400184600F065FE0346002B01D000F0B2F816
:100654000F237B600223BB600023FB604FF48063A5
:100664003B6100237B613B1D0221184601F066F9C2
:100674000346002B01D000F09DF8034B01221A60C1
:1006840000BF5037BD4680BD7000424280B500AF08
:10069400114B124A1A60104B4FF4E1325A600E4B60
:1006A40000229A600C4B0022DA600B4B00221A6184
:1006B400094B0C225A61084B00229A61064B002216
:1006C400DA61054801F0DEFD0346002B01D000F09D
:1006D40071F800BF80BD00BF28000020005000401A
:1006E40080B500AF114B124A1A60104B4FF4E1323F
:1006F4005A600E4B00229A600C4B0022DA600B4BBE
:1007040000221A61094B0C225A61084B00229A619B
:10071400064B0022DA61054801F0B4FD0346002BC4
:1007240001D000F047F800BF80BD00BF6C0000207E
:100734000038014080B485B000AF144B9B69134A64
:1007440043F020039361114B9B6903F02003FB608A
:10075400FB680E4B9B690D4A43F0040393610B4BFA
:100764009B6903F00403BB60BB68084B9B69074AA1
:1007740043F010039361054B9B6903F010037B6006
:100784007B6800BF1437BD4680BC70470010024030
:1007940080B582B000AF78607B681B68044A9342DE
:1007A40001D100F0CFF900BF0837BD4680BD00BFBE
:1007B400002C014080B400AF72B600BFFEE7000019
:1007C40080B483B000AF0E4B9B690D4A43F0010324
:1007D40093610B4B9B6903F001037B607B68084BBF
:1007E400DB69074A43F08053D361054BDB6903F0AF
:1007F40080533B603B6800BF0C37BD4680BC7047EC
:100804000010024080B58CB000AF786007F120037F
:1008140000221A605A609A60DA607B681B68464A54
:10082400934245D1454BDB69444A43F48013D36179
:10083400424BDB6903F48013FB61FB693F4B9B690B
:100844003E4A43F0100393613C4B9B6903F0100351
:10085400BB61BB69394B9B69384A43F02003936100
:10086400364B9B6903F020037B617B694FF4805313
:100874003B6202237B620323FB6207F120031946D8
:100884002F4800F0C1FB04233B6200237B6200235A
:10089400BB6207F1200319462A4800F0B5FB002289
:1008A4000021352000F043FA352000F05CFA3EE0E8
:1008B4007B681B68244A934239D1204B9B691F4AA9
:1008C40043F4804393611D4B9B6903F480433B6174
:1008D4003B691A4B9B69194A43F004039361174B14
:1008E4009B6903F00403FB60FB684FF400733B62F5
:1008F40002237B620323FB6207F12003194613489A
:1009040000F082FB4FF480633B6200237B62002390
:10091400BB6207F1200319460C4800F075FB002266
:100924000021252000F003FA252000F01CFA00BF66
:100934003037BD4680BD00BF00500040001002406B
:10094400001001400014014000380140000801403B
:1009540080B58CB000AF78600023BB6200237B625B
:10096400002387F82F302E4B9B692D4A43F40063F4
:1009740093612B4B9B6903F40063BB60BB6807F175
:100984000C0207F110031146184601F0D1F901F0E9
:10099400BBF9B862BB6A234AA2FB03239B0C013B4D
:1009A4007B62214B214A1A601F4B40F2E732DA6026
:1009B4001D4A7B6A53601C4B00221A611A4B0022A9
:1009C4009A60194B00229A61174801F0FFF9034617
:1009D40087F82F3097F82F30002B1BD1124801F0E5
:1009E4004DFA034687F82F3097F82F30002B11D19A
:1009F400192000F0B8F97B680F2B08D80022796819
:100A0400192000F094F90A4A7B68136002E001237C
:100A140087F82F3097F82F3018463037BD4680BD01
:100A24000010024083DE1B43B4000020002C014070
:100A34000400002080B400AFFEE780B400AFFEE7FE
:100A440080B400AFFEE780B400AFFEE780B400AF2F
:100A5400FEE780B400AF00BFBD4680BC704780B4E1
:100A640000AF00BFBD4680BC704780B400AF00BF7C
:100A7400BD4680BC704780B400AF00BFBD4680BC9B
:100A84007047000080B500AF024801F051FA00BF82
:100A940080BD00BFB400002080B500AF024801F063
:100AA400B3FC00BF80BD00BF6C00002080B500AF68
:100AB400024801F0A9FC00BF80BD00BF280000204F
:100AC40080B400AF00BFBD4680BC70470C480D49E0
:100AD4000D4A002302E0D458C4500433C4188C4295
:100AE400F9D30A4A0A4C002301E013600432A242FB
:100AF400FBD3FFF7E5FF02F065F8FFF747FD70470A
:100B0400000000200C000020902C00080C000020A5
:100B140000010020FEE7000080B500AF084B1B6811
:100B2400074A43F010031360032000F0F5F80F2088
:100B3400FFF70EFFFFF744FE0023184680BD00BFF9
:100B44000020024080B400AF054B1B781A46054BC9
:100B54001B681344034A136000BFBD4680BC704742
:100B640008000020FC00002080B400AF024B1B688A
:100B74001846BD4680BC7047FC00002080B584B098
:100B840000AF7860FFF7F0FFB8607B68FB60FB683C
:100B9400B3F1FF3F05D00A4B1B781A46FB68134498
:100BA400FB6000BFFFF7E0FF0246BB68D31AFA6898
:100BB4009A42F7D800BF00BF1037BD4680BD00BFC2
:100BC4000800002080B485B000AF78607B6803F033
:100BD4000703FB600C4BDB68BB60BA684FF6FF038E
:100BE4001340BB60FB681A02BB68134343F0BF6346
:100BF40043F40033BB60044ABB68D36000BF1437BE
:100C0400BD4680BC704700BF00ED00E080B400AF7B
:100C1400044BDB681B0A03F007031846BD4680BC7F
:100C2400704700BF00ED00E080B483B000AF03461E
:100C3400FB7197F90730002B0BDBFB7903F01F02E4
:100C4400064997F907305B09012000FA02F241F8DE
:100C5400232000BF0C37BD4680BC704700E100E094
:100C640080B483B000AF03463960FB7197F9073055
:100C7400002B0ADB3B68DAB20C4997F90730120102
:100C8400D2B20B4483F800230AE03B68DAB2084985
:100C9400FB7903F00F03043B1201D2B20B441A7622
:100CA40000BF0C37BD4680BC704700BF00E100E0C8
:100CB40000ED00E080B489B000AFF860B9607A60FC
:100CC400FB6803F00703FB61FB69C3F10703042B13
:100CD40028BF0423BB61FB690433062B02D9FB69DB
:100CE400033B00E000237B614FF0FF32BB6902FA53
:100CF40003F3DA43BB681A407B699A404FF0FF3133
:100D04007B6901FA03F3D9437B680B40134318460C
:100D14002437BD4680BC704780B582B000AF786090
:100D24007868FFF74FFF00BF0837BD4680BD80B528
:100D340086B000AF0346B9607A60FB7300237B6121
:100D4400FFF764FF78617A68B9687869FFF7B2FFE2
:100D5400024697F90F3011461846FFF781FF00BF8E
:100D64001837BD4680BD80B582B000AF0346FB7125
:100D740097F907301846FFF757FF00BF0837BD46FD
:100D840080BD80B485B000AF78600023FB737B68BE
:100D940093F82130022B08D07B6804229A637B6885
:100DA400002283F82020012320E07B681B681A6856
:100DB4007B681B6822F00E021A607B681B681A6845
:100DC4007B681B6822F001021A607B681A6C7B68DE
:100DD400DB6B012101FA02F25A607B68012283F87D
:100DE40021207B68002283F82020FB7B18461437DF
:100DF400BD4680BC7047000080B584B000AF786009
:100E04000023FB737B6893F82130022B05D07B68A9
:100E140004229A630123FB73D6E07B681B681A687B
:100E24007B681B6822F00E021A607B681B681A68D4
:100E34007B681B6822F001021A607B681B681A46F3
:100E4400644B9A4258D97B681B68634A93424FD0DB
:100E54007B681B68614A934248D07B681B68604A80
:100E6400934240D07B681B685E4A934238D07B68CB
:100E74001B685D4A934230D07B681B685B4A93428F
:100E840028D07B681B68534A934220D07B681B6838
:100E9400574A934219D07B681B68564A934212D032
:100EA4007B681B68544A93420AD07B681B68534A88
:100EB400934202D14FF480531BE04FF4803318E087
:100EC4004FF4807315E0102313E0012311E04FF079
:100ED40080730EE04FF480130BE04FF4803308E08E
:100EE4004FF4805305E04FF4807302E0102300E0D8
:100EF4000123434A536057E07B681B68364A934298
:100F04004FD07B681B68354A934248D07B681B6886
:100F1400334A934240D07B681B68324A934238D0AC
:100F24007B681B68304A934230D07B681B682F4A29
:100F3400934228D07B681B68264A934220D07B6862
:100F44001B682B4A934219D07B681B68294A934239
:100F540012D07B681B68284A93420AD07B681B68BE
:100F6400264A934202D14FF480531BE04FF480335E
:100F740018E04FF4807315E0102313E0012311E00F
:100F84004FF080730EE04FF480130BE04FF4803386
:100F940008E04FF4805305E04FF4807302E010231F
:100FA40000E00123174A53607B68012283F8212063
:100FB4007B68002283F820207B685B6B002B03D0C6
:100FC4007B685B6B78689847FB7B18461037BD4697
:100FD40080BD00BF80000240080002401C000240A7
:100FE4003000024044000240580002406C000240BD
:100FF400080402401C04024030040240440402403D
:10100400000402400000024080B48BB000AF78605E
:10101400396000237B6200233B6269E101227B6A21
:1010240002FA03F3FB613B681B68FA691340BB6176
:10103400BA69FB699A4240F058813B685B689A4AF6
:1010440093425ED0984A934275D8984A934258D0B6
:10105400964A93426FD8964A934252D0944A934206
:1010640069D8944A93424CD0924A934263D8924AA4
:10107400934246D0904A93425DD8122B2AD8122B21
:1010840059D801A252F823F007110008E110000812
:10109400F3100008351100083B1100083B1100084B
:1010A4003B1100083B1100083B1100083B110008EC
:1010B4003B1100083B1100083B1100083B110008DC
:1010C4003B1100083B1100083B110008E91000081F
:1010D400FD100008794A934213D02CE03B68DB688A
:1010E4003B6229E03B68DB6804333B6224E03B68F5
:1010F400DB6808333B621FE03B68DB680C333B6210
:101104001AE03B689B68002B02D104233B6213E086
:101114003B689B68012B05D108233B627B68FA6915
:101124001A6109E008233B627B68FA695A6103E0AB
:1011340000233B6200E000BFBB69FF2B01D87B6842
:1011440001E07B6804337B61BB69FF2B02D87B6AB7
:101154009B0002E07B6A083B9B003B617B691A6849
:101164000F213B6901FA03F3DB431A40396A3B69F7
:1011740001FA03F31A437B691A603B685B6803F066
:101184008053002B00F0B1804D4B9B694C4A43F0D7
:10119400010393614A4B9B6903F00103BB60BB6885
:1011A400484A7B6A9B08023352F82330FB607B6A0F
:1011B40003F003039B000F2202FA03F3DB43FA68F4
:1011C4001340FB607B68404A934213D07B683F4ADC
:1011D40093420DD07B683E4A934207D07B683D4AD8
:1011E400934201D1032306E0042304E0022302E036
:1011F400012300E000237A6A02F003029200934084
:10120400FA681343FB602F497B6A9B080233FA6830
:1012140041F823203B685B6803F48033002B06D03D
:101224002D4B1A682C49BB6913430B6006E02A4B0B
:101234001A68BB69DB43284913400B603B685B6851
:1012440003F40033002B06D0234B5A682249BB69B0
:1012540013434B6006E0204B5A68BB69DB431E49CD
:1012640013404B603B685B6803F48013002B06D08B
:10127400194B9A681849BB6913438B6006E0164BF7
:101284009A68BB69DB43144913408B603B685B6815
:1012940003F40013002B21D00F4BDA680E49BB690D
:1012A4001343CB6021E000BF000032100000311076
:1012B4000000221000002110000012100000111084
:1012C400001002400000014000080140000C0140F1
:1012D4000010014000140140000401400B4BDA6887
:1012E400BB69DB4309491340CB607B6A01337B62F2
:1012F4003B681A687B6A22FA03F3002B7FF48EAEF4
:1013040000BF00BF2C37BD4680BC704700040140BD
:1013140080B586B000AF78607B68002B01D10123D3
:1013240004E37B681B6803F00103002B00F0878053
:10133400924B5B6803F00C03042B0CD08F4B5B685F
:1013440003F00C03082B12D18C4B5B6803F480333D
:10135400B3F5803F0BD1894B1B6803F40033002B9A
:101364006CD07B689B68002B68D10123DEE27B682C
:101374009B68B3F5803F06D1804B1B687F4A43F4DA
:10138400803313602EE07B689B68002B0CD17B4B71
:101394001B687A4A23F480331360784B1B68774ABE
:1013A40023F4802313601DE07B689B68B3F5A02FB2
:1013B4000CD1724B1B68714A43F4802313606F4B4A
:1013C4001B686E4A43F4803313600BE06B4B1B685D
:1013D4006A4A23F480331360684B1B68674A23F41A
:1013E400802313607B689B68002B13D0FFF7BCFB42
:1013F400386108E0FFF7B8FB02463B69D31A642B57
:1014040001D9032392E25D4B1B6803F40033002BE4
:10141400F0D014E0FFF7A8FB386108E0FFF7A4FB65
:1014240002463B69D31A642B01D903237EE2534B52
:101434001B6803F40033002BF0D100E000BF7B688D
:101444001B6803F00203002B63D04C4B5B6803F072
:101454000C03002B0BD0494B5B6803F00C03082BE7
:101464001CD1464B5B6803F48033002B16D1434BED
:101474001B6803F00203002B05D07B685B69012B1A
:1014840001D0012352E23D4B1B6823F0F8027B6834
:101494009B69DB00394913430B603AE07B685B6965
:1014A400002B20D0364B01221A60FFF75DFB386118
:1014B40008E0FFF759FB02463B69D31A022B01D916
:1014C400032333E22D4B1B6803F00203002BF0D0FF
:1014D4002A4B1B6823F0F8027B689B69DB002749D1
:1014E40013430B6015E0264B00221A60FFF73CFB08
:1014F400386108E0FFF738FB02463B69D31A022B38
:1015040001D9032312E21D4B1B6803F00203002BD5
:10151400F0D17B681B6803F00803002B3AD07B688A
:10152400DB69002B19D0174B01221A60FFF71CFB53
:10153400386108E0FFF718FB02463B69D31A022B17
:1015440001D90323F2E10D4B5B6A03F00203002B84
:10155400F0D0012000F01CFC1CE00A4B00221A60B1
:10156400FFF702FB38610FE0FFF7FEFA02463B6922
:10157400D31A022B08D90323D8E100BF001002407C
:1015840000004242800442429B4B5B6A03F0020328
:10159400002BE9D17B681B6803F00403002B00F0E7
:1015A400A6800023FB75944BDB6903F08053002B6A
:1015B4000DD1914BDB69904A43F08053D3618E4B3C
:1015C400DB6903F08053BB60BB680123FB758B4B65
:1015D4001B6803F48073002B18D1884B1B68874A5F
:1015E40043F480731360FFF7BFFA386108E0FFF734
:1015F400BBFA02463B69D31A642B01D9032395E154
:101604007E4B1B6803F48073002BF0D07B681B694E
:10161400012B06D1784B1B6A774A43F0010313620E
:101624002DE07B681B69002B0CD1734B1B6A724A3B
:1016340023F001031362704B1B6A6F4A23F0040307
:1016440013621CE07B681B69052B0CD16A4B1B6A77
:10165400694A43F004031362674B1B6A664A43F00A
:10166400010313620BE0644B1B6A634A23F001031A
:101674001362614B1B6A604A23F0040313627B68A4
:101684001B69002B15D0FFF76FFA38610AE0FFF7EA
:101694006BFA02463B69D31A41F28832934201D96C
:1016A400032343E1544B1B6A03F00203002BEED0E7
:1016B40014E0FFF759FA38610AE0FFF755FA0246D9
:1016C4003B69D31A41F28832934201D903232DE1B5
:1016D400494B1B6A03F00203002BEED1FB7D012B67
:1016E40005D1454BDB69444A23F08053D3617B68C1
:1016F400DB6A002B00F08C803F4B5B6803F4803383
:10170400B3F5803F0ED13C4B5B6803F00C03082B10
:1017140008D1394BDB6A03F48033B3F5803F01D140
:10172400012303E17B68DB6A022B4ED1324B1B6839
:1017340003F08053002B09D02F4BDB6A03F0F00237
:101744007B685B6B9A4201D00123EFE02C4B0022B3
:101754001A60FFF709FA386108E0FFF705FA024654
:101764003B69D31A642B01D90323DFE0224B1B68A6
:1017740003F00063002BF0D11F4BDB6A23F0F0026F
:101784007B685B6B1C491343CB621B4BDB6A23F402
:1017940070627B681B6B18491343CB62184B0122A0
:1017A4001A60FFF7E1F9386108E0FFF7DDF9024656
:1017B4003B69D31A642B01D90323B7E00E4B1B6892
:1017C40003F00063002BF0D022E00B4BDB6A0A4AE3
:1017D40023F48033D3620A4B00221A60FFF7C4F962
:1017E40038610FE0FFF7C0F902463B69D31A642B56
:1017F40008D903239AE000BF0010024000700040A3
:10180400680042424B4B1B6803F00063002BE9D194
:101814007B681B6A002B00F08880464B5B6803F0F2
:101824000C03082B68D07B681B6A022B4DD1424BFA
:1018340000221A60FFF798F9386108E0FFF794F97D
:1018440002463B69D31A022B01D903236EE0394BBC
:101854001B6803F00073002BF0D17B685B6AB3F55F
:10186400803F0FD1334BDA6A7B685B68314913439D
:10187400CB62304BDB6A23F00F027B68DB682D49B7
:101884001343CB622B4B5B6823F474127B68596A55
:101894007B689B6A0B43274913434B60264B012209
:1018A4001A60FFF761F9386108E0FFF75DF9024655
:1018B4003B69D31A022B01D9032337E01D4B1B6864
:1018C40003F00073002BF0D02FE01B4B00221A60B2
:1018D400FFF74AF9386108E0FFF746F902463B6929
:1018E400D31A022B01D9032320E0124B1B6803F007
:1018F4000073002BF0D118E07B681B6A012B01D127
:10190400012313E00B4B5B68FB60FB6803F480323C
:101914007B685B6A9A4206D1FB6803F470127B68A9
:101924009B6A9A4201D0012300E00023184618372D
:10193400BD4680BD001002406000424280B584B0C4
:1019440000AF786039607B68002B01D10123D0E0BF
:101954006A4B1B6803F007033A689A4210D9674B35
:101964001B6823F0070265493B6813430B60634B14
:101974001B6803F007033A689A4201D00123B8E0D8
:101984007B681B6803F00203002B20D07B681B6874
:1019940003F00403002B05D0594B5B68584A43F409
:1019A400E06353607B681B6803F00803002B05D0D9
:1019B400534B5B68524A43F460535360504B5B682B
:1019C40023F0F0027B689B684D4913434B607B68AE
:1019D4001B6803F00103002B40D07B685B68012B7C
:1019E40007D1474B1B6803F40033002B15D10123A7
:1019F4007FE07B685B68022B07D1414B1B6803F0D7
:101A04000073002B09D1012373E03D4B1B6803F0E5
:101A14000203002B01D101236BE0394B5B6823F0F7
:101A240003027B685B68364913434B60FFF79CF8FD
:101A3400F8600AE0FFF798F80246FB68D31A41F20F
:101A44008832934201D9032353E02D4B5B6803F0A2
:101A54000C027B685B689B009A42EBD1274B1B68A6
:101A640003F007033A689A4210D2244B1B6823F010
:101A7400070222493B6813430B60204B1B6803F0A9
:101A840007033A689A4201D0012332E07B681B685D
:101A940003F00403002B08D0194B5B6823F4E062C5
:101AA4007B68DB68164913434B607B681B6803F053
:101AB4000803002B09D0124B5B6823F460527B6847
:101AC4001B69DB000E4913434B6000F021F802460A
:101AD4000B4B5B681B0903F00F030A49CB5C22FA2A
:101AE40003F3094A1360094B1B681846FEF730FFDD
:101AF400002318461037BD4680BD00BF00200240B9
:101B040000100240682C000800000020040000209F
:101B14002DE9F04F99B000AF664B07F134040FCBB9
:101B240007C42380644B07F124040FCB84E80F001F
:101B340000237B6500233B650023FB650023FB64D6
:101B44000023BB650023BB6400237B645B4B5B68A1
:101B54007B657B6D03F00C03042B02D0082B03D0B0
:101B64009FE0574BBB659FE07B6D9B0C03F00F031D
:101B7400403307F12002134413F82C3CFB647B6DC3
:101B840003F48033002B00F084804C4BDB6A03F0B9
:101B94000F03403307F12002134413F83C3C3B6528
:101BA400464BDB6A03F48033002B60D0434BDB6A83
:101BB4001B0903F00F030133BB64404BDB6A1B0AB0
:101BC40003F00F0302337B647B6C00223B617A6178
:101BD400FB6C0022BB61FA61D7E904342246D7E9E1
:101BE400060184460CFB02F2C7E906018C4618463E
:101BF4002146034603FB0CF313440246B969A2FBD6
:101C040001894B4499462E4B03FB09F2002303FB45
:101C140008F313442A4AA8FB02AB5B449B46BB6C03
:101C24000022BB60FA603B6D00223B607A60D7E91A
:101C340002342246D7E90089414601FB02F2CC4630
:101C440018462146034603FB0CF31344024641465F
:101C5400A2FB015633441E462A4633465046594693
:101C6400FEF7DEFA02460B461346FB6507E0FB6C03
:101C7400134A03FB02F23B6DB2FBF3F3FB6597F8E7
:101C840041301A46FB6C934208D1FB6D5B08FB653F
:101C940004E0FB6C0B4A02FB03F3FB65FB6DBB65C5
:101CA40002E0094BBB6500BFBB6D18466437BD46F7
:101CB400BDE8F08F482C0008582C000800100240A2
:101CC4008096980000093D0000127A0080B400AFAD
:101CD400024B1B681846BD4680BC704700000020BC
:101CE40080B500AFFFF7F2FF0246054B5B681B0AA5
:101CF40003F007030349CB5C22FA03F3184680BDC3
:101D040000100240782C000880B500AFFFF7DEFF1A
:101D14000246054B5B68DB0A03F007030349CB5C0F
:101D240022FA03F3184680BD00100240782C000804
:101D340080B483B000AF786039607B680F221A608A
:101D4400114B5B6803F003027B685A600E4B5B68BF
:101D540003F0F0027B689A600B4B5B6803F4E0626B
:101D64007B68DA60084B5B68DB0803F4E0627B683D
:101D74001A61064B1B6803F007023B681A6000BF38
:101D84000C37BD4680BC7047001002400020024062
:101D940080B485B000AF78600A4B1B680A4AA2FB86
:101DA40003235B0A7A6802FB03F3FB6000BFFB6852
:101DB4005A1EFA60002BF9D100BF00BF1437BD468C
:101DC40080BC704700000020D34D621080B582B003
:101DD40000AF78607B68002B01D1012341E07B6870
:101DE40093F83D30DBB2002B06D17B68002283F8E8
:101DF4003C20786800F039F87B68022283F83D20A3
:101E04007B681A687B6804331946104600F0BCF9F5
:101E14007B68012283F846207B68012283F83E20F8
:101E24007B68012283F83F207B68012283F84020ED
:101E34007B68012283F841207B68012283F84220D9
:101E44007B68012283F843207B68012283F84420C5
:101E54007B68012283F845207B68012283F83D20BA
:101E6400002318460837BD4680BD80B483B000AF58
:101E7400786000BF0C37BD4680BC704780B485B025
:101E840000AF78607B6893F83D30DBB2012B01D062
:101E940001233FE07B68022283F83D207B681B68B6
:101EA400DA687B681B6842F00102DA607B681B68B1
:101EB4001B4A934213D07B681B68B3F1804F0ED04A
:101EC4007B681B68174A934209D07B681B68164AD3
:101ED400934204D07B681B68144A934211D17B68F7
:101EE4001B689B6803F00703FB60FB68062B10D09C
:101EF4007B681B681A687B681B6842F001021A60E1
:101F040007E07B681B681A687B681B6842F0010263
:101F14001A60002318461437BD4680BC704700BFC2
:101F2400002C01400004004000080040000C004068
:101F340080B582B000AF78607B681B681B6903F0D2
:101F44000203022B22D17B681B68DB6803F00203C7
:101F5400022B1BD17B681B686FF002021A617B683D
:101F640001221A777B681B689B6903F00303002B2B
:101F740003D0786800F0EDF805E0786800F0E0F848
:101F8400786800F0EFF87B6800221A777B681B689A
:101F94001B6903F00403042B22D17B681B68DB68F4
:101FA40003F00403042B1BD17B681B686FF004024D
:101FB4001A617B6802221A777B681B689B6903F4A9
:101FC4004073002B03D0786800F0C3F805E078680C
:101FD40000F0B6F8786800F0C5F87B6800221A773C
:101FE4007B681B681B6903F00803082B22D17B68FC
:101FF4001B68DB6803F00803082B1BD17B681B6894
:102004006FF008021A617B6804221A777B681B68E8
:10201400DB6903F00303002B03D0786800F099F820
:1020240005E0786800F08CF8786800F09BF87B682D
:1020340000221A777B681B681B6903F01003102BBE
:1020440022D17B681B68DB6803F01003102B1BD1C3
:102054007B681B686FF010021A617B6808221A778C
:102064007B681B68DB6903F44073002B03D078683A
:1020740000F06FF805E0786800F062F8786800F026
:1020840071F87B6800221A777B681B681B6903F070
:102094000103012B0ED17B681B68DB6803F001038D
:1020A400012B07D17B681B686FF001021A61786805
:1020B400FEF76EFB7B681B681B6903F08003802BB3
:1020C4000ED17B681B68DB6803F08003802B07D18B
:1020D4007B681B686FF080021A61786800F0C9F8A9
:1020E4007B681B681B6903F04003402B0ED17B689F
:1020F4001B68DB6803F04003402B07D17B681B6837
:102104006FF040021A61786800F035F87B681B684C
:102114001B6903F02003202B0ED17B681B68DB684E
:1021240003F02003202B07D17B681B686FF020028B
:102134001A61786800F094F800BF0837BD4680BD86
:1021440080B483B000AF786000BF0C37BD4680BC5C
:10215400704780B483B000AF786000BF0C37BD46D1
:1021640080BC704780B483B000AF786000BF0C3788
:10217400BD4680BC704780B483B000AF786000BFB8
:102184000C37BD4680BC704780B485B000AF786022
:1021940039607B681B68FB607B682D4A93420FD0D3
:1021A4007B68B3F1804F0BD07B682A4A934207D0F7
:1021B4007B68294A934203D07B68284A934208D11A
:1021C400FB6823F07003FB603B685B68FA681343A9
:1021D400FB607B681E4A93420FD07B68B3F1804F4B
:1021E4000BD07B681B4A934207D07B681A4A934200
:1021F40003D07B68194A934208D1FB6823F44073E7
:10220400FB603B68DB68FA681343FB60FB6823F000
:1022140080023B685B691343FB607B68FA681A6061
:102224003B689A687B68DA623B681A687B689A62E2
:102234007B68074A934203D13B681A697B681A6337
:102244007B6801225A6100BF1437BD4680BC7047C9
:10225400002C01400004004000080040000C004035
:1022640080B483B000AF786000BF0C37BD4680BC3B
:10227400704780B483B000AF786000BF0C37BD46B0
:1022840080BC704780B582B000AF78607B68002B5B
:1022940001D101233FE07B6893F83D30DBB2002B92
:1022A40006D17B68002283F83C207868FEF7AAFAFE
:1022B4007B68242283F83D207B681B68DA687B688E
:1022C4001B6822F40052DA60786800F0EDFB7B684A
:1022D4001B681A697B681B6822F490421A617B6848
:1022E4001B685A697B681B6822F02A025A617B6862
:1022F4001B68DA687B681B6842F40052DA607B680A
:1023040000221A647B68202283F83D207B68202207
:1023140083F83E20002318460837BD4680BD80B4AC
:1023240085B000AFF860B9601346FB80FB6893F892
:102334003D30DBB2202B30D1BB68002B02D0FB88B0
:10234400002B01D1012329E0FB6893F83C30012BD9
:1023540001D1022322E0FB68012283F83C20FB68C0
:10236400BA681A62FB68FA889A84FB68FA88DA8485
:10237400FB6800221A64FB68212283F83D20FB6875
:10238400002283F83C20FB681B68DA68FB681B6842
:1023940042F08002DA60002300E00223184614377A
:1023A400BD4680BC704780B584B000AFF860B960AA
:1023B4001346FB80FB6893F83E30DBB2202B1DD123
:1023C400BB68002B02D0FB88002B01D1012316E04F
:1023D400FB6893F83C30012B01D102230FE0FB682A
:1023E400012283F83C20FB6800221A63FB881A460A
:1023F400B968F86800F0CFF9034600E002231846F4
:102404001037BD4680BD000080B58AB000AF78604B
:102414007B681B681B687B627B681B68DB683B62AC
:102424007B681B685B69FB610023BB6100237B61E4
:102434007B6A03F00F03BB61BB69002B0DD17B6A80
:1024440003F02003002B08D03B6A03F02003002B89
:1024540003D0786800F07FFA7BE1BB69002B00F0C1
:10246400B180FB6903F00103002B05D13B6A03F43F
:102474009073002B00F0A6807B6A03F00103002B0D
:102484000AD03B6A03F48073002B05D07B681B6C75
:1024940043F001027B681A647B6A03F00403002B97
:1024A4000AD0FB6903F00103002B05D07B681B6C89
:1024B40043F002027B681A647B6A03F00203002B78
:1024C4000AD0FB6903F00103002B05D07B681B6C69
:1024D40043F004027B681A647B6A03F00803002B50
:1024E4000FD03B6A03F02003002B04D1FB6903F0F7
:1024F4000103002B05D07B681B6C43F008027B684A
:102504001A647B681B6C002B00F01E817B6A03F04D
:102514002003002B07D03B6A03F02003002B02D0DA
:10252400786800F018FA7B681B685B6903F0400365
:10253400002B14BF01230023DBB27B617B681B6C7F
:1025440003F00803002B02D17B69002B31D078689B
:1025540000F05AF97B681B685B6903F04003002BA9
:1025640023D07B681B685A697B681B6822F0400291
:102574005A617B689B6B002B13D07B689B6B764AFC
:102584005A637B689B6B1846FEF736FC0346002BA8
:1025940016D07B689B6B5B6B7A68926B104698478E
:1025A4000EE0786800F0E3F80AE0786800F0DFF8FD
:1025B40006E0786800F0DBF87B6800221A64C3E068
:1025C40000BFC1E07B681B6B012B40F0A1807B6ADC
:1025D40003F01003002B00F09B803B6A03F0100310
:1025E400002B00F095800023FB607B681B681B6850
:1025F400FB607B681B685B68FB60FB687B681B682F
:102604005B6903F04003002B4ED07B689B6B1B6817
:102614005B683B823B8A002B00F098807B689B8D33
:102624003A8A9A4280F092807B683A8ADA857B689B
:102634009B6B9B69202B2BD07B681B68DA687B68BB
:102644001B6822F48072DA607B681B685A697B68B5
:102654001B6822F001025A617B681B685A697B6817
:102664001B6822F040025A617B68202283F83E20D6
:102674007B6800221A637B681B68DA687B681B68C6
:1026840022F01002DA607B689B6B1846FEF779FB38
:102694007B689A8D7B68DB8D9BB2D31A9BB21946FB
:1026A400786800F06DF851E07B689A8D7B68DB8D6B
:1026B4009BB2D31A7B827B68DB8D9BB2002B47D005
:1026C4007B8A002B44D07B681B68DA687B681B68B4
:1026D40022F49072DA607B681B685A697B681B6815
:1026E40022F001025A617B68202283F83E207B6835
:1026F40000221A637B681B68DA687B681B6822F017
:102704001002DA607B8A1946786800F039F81FE015
:102714007B6A03F08003002B08D03B6A03F080033C
:10272400002B03D0786800F0AFF812E07B6A03F066
:102734004003002B0DD03B6A03F04003002B08D06C
:10274400786800F0F0F804E000BF02E000BF00E0A9
:1027540000BF2837BD4680BD6528000880B483B01B
:1027640000AF786000BF0C37BD4680BC704780B4B2
:1027740083B000AF786000BF0C37BD4680BC7047A3
:1027840080B483B000AF78600B467B8000BF0C3709
:10279400BD4680BC704780B485B000AFF860B960B6
:1027A4001346FB80FB68BA689A62FB68FA889A85CC
:1027B400FB68FA88DA85FB6800221A64FB68222227
:1027C40083F83E20FB68002283F83C20FB681B68EA
:1027D400DA68FB681B6842F48072DA60FB681B6885
:1027E4005A69FB681B6842F001025A61FB681B6866
:1027F400DA68FB681B6842F02002DA60002318469E
:102804001437BD4680BC704780B483B000AF786095
:102814007B681B68DA687B681B6822F49072DA6054
:102824007B681B685A697B681B6822F001025A6145
:102834007B681B6B012B07D17B681B68DA687B689C
:102844001B6822F01002DA607B68202283F83E20A5
:102854007B6800221A6300BF0C37BD4680BC7047FA
:1028640080B584B000AF78607B685B6AFB60FB680E
:102874000022DA85FB680022DA84F868FFF777FF24
:1028840000BF1037BD4680BD80B485B000AF78600E
:102894007B6893F83D30DBB2212B3ED17B689B688B
:1028A400B3F5805F14D17B681B69002B10D17B6862
:1028B4001B6AFB60FB681B881A467B681B68C2F3B3
:1028C40008025A607B681B6A9A1C7B681A6208E0DB
:1028D4007B681B6A591C7A6811621A787B681B68CA
:1028E4005A607B68DB8C9BB2013B9BB27A681946C9
:1028F400D184002B0FD17B681B68DA687B681B6866
:1029040022F08002DA607B681B68DA687B681B68E7
:1029140042F04002DA60002300E002231846143734
:10292400BD4680BC704780B582B000AF78607B68DC
:102934001B68DA687B681B6822F04002DA607B68F7
:10294400202283F83D207868FFF708FF002318460B
:102954000837BD4680BD80B586B000AF78607B681F
:1029640093F83E30DBB2222B40F099807B689B6861
:10297400B3F5805F17D17B681B69002B13D100234B
:102984007B617B689B6A3B617B681B685B689BB26D
:10299400C3F308039AB23B691A807B689B6A9A1C4A
:1029A4007B689A6226E07B689B6A7B6100233B61BB
:1029B4007B689B68B3F5805F07D07B689B68002BBE
:1029C4000AD17B681B69002B06D17B681B685B6896
:1029D400DAB27B691A7008E07B681B685B68DBB25B
:1029E40003F07F03DAB27B691A707B689B6A5A1C16
:1029F4007B689A627B68DB8D9BB2013B9BB27A68F1
:102A04001946D185002B48D17B681B68DA687B683E
:102A14001B6822F02002DA607B681B68DA687B6836
:102A24001B6822F48072DA607B681B685A697B68D1
:102A34001B6822F001025A617B68202283F83E2041
:102A44007B681B6B012B23D17B6800221A637B6894
:102A54001B68DA687B681B6822F01002DA607B6806
:102A64001B681B6803F01003102B0AD10023FB60C2
:102A74007B681B681B68FB607B681B685B68FB608A
:102A8400FB687B689B8D19467868FFF779FE02E046
:102A94007868FDF749FD002302E0002300E00223EB
:102AA40018461837BD4680BD80B584B000AF786045
:102AB4007B681B681B6923F440517B68DA687B6878
:102AC4001B680A431A617B689A687B681B691A430E
:102AD4007B685B691343BB607B681B68DB6823F41A
:102AE400B05323F00C037A681268B9680B43D360BF
:102AF4007B681B685B6923F440717B689A697B6817
:102B04001B680A435A617B681B682C4A934203D1B1
:102B1400FFF7FAF8F86002E0FFF7E2F8F860FA6805
:102B240013469B0013449A001A447B685B689B001D
:102B3400B2FBF3F3224AA2FB03235B091901FA68EF
:102B440013469B0013449A001A447B685B689B00FD
:102B5400B2FBF3F21A4BA3FB02035B09642000FBF4
:102B640003F3D31A1B013233154AA2FB03235B0977
:102B740003F0F0031944FA6813469B0013449A00C7
:102B84001A447B685B689B00B2FBF3F20C4BA3FB1B
:102B940002035B09642000FB03F3D31A1B013233E5
:102BA400074AA2FB03235B0903F00F027B681B683F
:102BB4000A449A6000BF1037BD4680BD003801400A
:102BC4001F85EB5170B500260C4D0D4C641BA410F1
:102BD400A64209D100F022F800260A4D0A4C641BD3
:102BE400A410A64205D170BD55F8043B98470136A0
:102BF400EEE755F8043B98470136F2E7882C0008C5
:102C0400882C0008882C00088C2C000803460244F9
:102C1400934200D1704703F8011BF9E7F8B500BFF0
:102C2400F8BC08BC9E467047F8B500BFF8BC08BCA9
:042C34009E46704701
:102C380075617274310A000075617274350A00009A
:102C4800000004050607080900000000000D000048
:102C58000102030405060708090A0B0C0D0E0F10E4
:102C68000000000000000000010203040607080934
:082C780000000000010203044A
:082C8000D4D5FF7F0100000024
:042C88000902000835
:042C8C00E501000856
:0C2C90000024F40010000000010000000F
:0400000508000AD114
:00000001FF
