:020000040800F2
:1000000000000120A1400008713E0008773E000872
:100010007D3E0008833E0008893E00080000000085
:1000200000000000000000000000000061E6000881
:100030008F3E00080000000041E8000889E8000841
:10004000E9400008E9400008E9400008E9400008EC
:10005000E9400008E9400008E9400008E9400008DC
:10006000E9400008E9400008E9400008E9400008CC
:100070009D3E0008B13E0008E9400008E940000844
:10008000E9400008E9400008E9400008E9400008AC
:10009000E9400008E9400008E9400008E94000089C
:1000A000E9400008C53E0008E9400008E9400008B2
:1000B000E9400008E9400008E9400008E94000087C
:1000C000E9400008E9400008E9400008D93E00087E
:1000D000E9400008ED3E0008E9400008E94000085A
:1000E000E9400008E9400008E9400008E94000084C
:1000F000E9400008E9400008E9400008E94000083C
:10010000E9400008E9400008E9400008E94000082B
:10011000E9400008013F0008E9400008E940000804
:10012000E9400008E9400008E9400008E94000080B
:1001300000000000000000000000000000000000BF
:1001400000000000000000000000000000000000AF
:10015000000000000000000000000000000000009F
:10016000000000000000000000000000000000008F
:10017000000000000000000000000000000000007F
:10018000000000000000000000000000000000006F
:10019000000000000000000000000000000000005F
:1001A000000000000000000000000000000000004F
:1001B000000000000000000000000000000000003F
:1001C000000000000000000000000000000000002F
:1001D000000000000000000000000000000000001F
:0401E0005FF8E0F1F3
:1001F00010B5054C237833B9044B13B10448AFF361
:1002000000800123237010BD700200200000000058
:10021000E021010808B5034B1BB103490348AFF3C4
:10022000008008BD0000000074020020E0210108E9
:10023000034613F8012B002AFBD1181A0138704726
:1002400081F0004102E000BF83F0004330B54FEA87
:1002500041044FEA430594EA050F08BF90EA020FF4
:100260001FBF54EA000C55EA020C7FEA645C7FEA87
:10027000655C00F0E2804FEA5454D4EB5555B8BFAA
:100280006D420CDD2C4480EA020281EA030382EA1B
:10029000000083EA010180EA020281EA0303362DAD
:1002A00088BF30BD11F0004F4FEA01314FF4801C80
:1002B0004CEA113102D0404261EB410113F0004F92
:1002C0004FEA03334CEA133302D0524263EB430349
:1002D00094EA050F00F0A780A4F10104D5F1200EE7
:1002E0000DDB02FA0EFC22FA05F2801841F1000142
:1002F00003FA0EF2801843FA05F359410EE0A5F116
:1003000020050EF1200E012A03FA0EFC28BF4CF046
:10031000020C43FA05F3C01851EBE37101F00045FC
:1003200007D54FF0000EDCF1000C7EEB00006EEB09
:100330000101B1F5801F1BD3B1F5001F0CD3490893
:100340005FEA30004FEA3C0C04F101044FEA4452EA
:1003500012F5800F80F09A80BCF1004F08BF5FEA71
:10036000500C50F1000041EB045141EA050130BD51
:100370005FEA4C0C404141EB0101013C28BFB1F563
:10038000801FE9D291F0000F04BF01460020B1FAAE
:1003900081F308BF2033A3F10B03B3F120020CDA81
:1003A0000C3208DD02F1140CC2F10C0201FA0CF05F
:1003B00021FA02F10CE002F11402D8BFC2F1200CC4
:1003C00001FA02F120FA0CFCDCBF41EA0C0190407A
:1003D000E41AA2BF01EB0451294330BD6FEA0404C3
:1003E0001F3C1CDA0C340EDC04F11404C4F12002AE
:1003F00020FA04F001FA02F340EA030021FA04F3C0
:1004000045EA030130BDC4F10C04C4F1200220FA16
:1004100002F001FA04F340EA0300294630BD21FA54
:1004200004F0294630BD94F0000F83F4801306BF1A
:1004300081F480110134013D4EE77FEA645C18BF0E
:100440007FEA655C29D094EA050F08BF90EA020FA5
:1004500005D054EA000C04BF1946104630BD91EA9D
:10046000030F1EBF0021002030BD5FEA545C05D1A0
:100470004000494128BF41F0004130BD14F58004DF
:100480003CBF01F5801130BD01F0004545F0FE4153
:1004900041F470014FF0000030BD7FEA645C1ABF88
:1004A000194610467FEA655C1CBF0B46024650EABF
:1004B000013406BF52EA033591EA030F41F40021EB
:1004C00030BD00BF90F0000F04BF0021704730B571
:1004D0004FF4806404F132044FF000054FF0000146
:1004E00050E700BF90F0000F04BF0021704730B507
:1004F0004FF4806404F1320410F0004548BF4042DC
:100500004FF000013EE700BF42004FEAE2014FEA30
:1005100031014FEA02701FBF12F07F4393F07F4F0B
:1005200081F06051704732F07F4208BF704793F00E
:100530007F4F04BF41F40021704730B54FF4607421
:1005400001F0004521F000411CE700BF50EA010224
:1005500008BF704730B54FF000050AE050EA0102CD
:1005600008BF704730B511F0004502D5404261EB3D
:1005700041014FF4806404F132045FEA915C3FF47E
:10058000D8AE4FF003025FEADC0C18BF03325FEA1B
:10059000DC0C18BF033202EBDC02C2F1200300FACC
:1005A00003FC20FA02F001FA03FE40EA0E0021FAF1
:1005B00002F11444BDE600BF70B54FF0FF0C4CF4DF
:1005C000E06C1CEA11541DBF1CEA135594EA0C0F91
:1005D00095EA0C0F00F0DEF82C4481EA030621EACC
:1005E0004C5123EA4C5350EA013518BF52EA033507
:1005F00041F4801143F4801338D0A0FB02CE4FF0B9
:100600000005E1FB02E506F00042E0FB03E54FF0E8
:100610000006E1FB03569CF0000F18BF4EF0010EE0
:10062000A4F1FF04B6F5007F64F5407404D25FEADC
:100630004E0E6D4146EB060642EAC62141EA55518F
:100640004FEAC52040EA5E504FEACE2EB4F1FD0CD1
:1006500088BFBCF5E06F1ED8BEF1004F08BF5FEA4F
:10066000500E50F1000041EB045170BD06F0004601
:1006700046EA010140EA020081EA0301B4EB5C04AE
:10068000C2BFD4EB0C0541EA045170BD41F48011A6
:100690004FF0000E013C00F3AB8014F1360FDEBFCB
:1006A000002001F0004170BDC4F10004203C35DAA7
:1006B0000C341BDC04F11404C4F1200500FA05F32A
:1006C00020FA04F001FA05F240EA020001F00042CB
:1006D00021F0004110EBD37021FA04F642EB060141
:1006E0005EEA430E08BF20EAD37070BDC4F10C046B
:1006F000C4F1200500FA04F320FA05F001FA04F22F
:1007000040EA020001F0004110EBD37041F100011A
:100710005EEA430E08BF20EAD37070BDC4F1200525
:1007200000FA05F24EEA020E20FA04F301FA05F28D
:1007300043EA020321FA04F001F0004121FA04F235
:1007400020EA020000EBD3705EEA430E08BF20EA05
:10075000D37070BD94F0000F0FD101F0004640003F
:1007600041EB010111F4801F08BF013CF7D041EAC1
:10077000060195F0000F18BF704703F000465200C5
:1007800043EB030313F4801F08BF013DF7D043EA96
:100790000603704794EA0C0F0CEA135518BF95EA4C
:1007A0000C0F0CD050EA410618BF52EA4306D1D1D3
:1007B00081EA030101F000414FF0000070BD50EAF2
:1007C000410606BF1046194652EA430619D094EA7C
:1007D0000C0F02D150EA013613D195EA0C0F05D166
:1007E00052EA03361CBF104619460AD181EA0301BA
:1007F00001F0004141F0FE4141F470014FF0000072
:1008000070BD41F0FE4141F4780170BD70B54FF00C
:10081000FF0C4CF4E06C1CEA11541DBF1CEA13558C
:1008200094EA0C0F95EA0C0F00F0A7F8A4EB05046E
:1008300081EA030E52EA03354FEA013100F0888065
:100840004FEA03334FF0805545EA131343EA12632E
:100850004FEA022245EA111545EA10654FEA0026E3
:100860000EF000419D4208BF964244F1FD0404F59C
:10087000407402D25B084FEA3202B61A65EB0305F8
:100880005B084FEA32024FF480104FF4002CB6EBB5
:10089000020E75EB030E22BFB61A754640EA0C0035
:1008A0005B084FEA3202B6EB020E75EB030E22BF75
:1008B000B61A754640EA5C005B084FEA3202B6EBB6
:1008C000020E75EB030E22BFB61A754640EA9C0075
:1008D0005B084FEA3202B6EB020E75EB030E22BF45
:1008E000B61A754640EADC0055EA060E18D04FEA03
:1008F000051545EA16754FEA06164FEAC30343EAA3
:1009000052734FEAC2025FEA1C1CC0D111F4801F6F
:100910000BD141EA00014FF000004FF0004CB6E768
:1009200011F4801F04BF01430020B4F1FD0C88BF07
:10093000BCF5E06F3FF6AFAEB5EB030C04BFB6EB12
:10094000020C5FEA500C50F1000041EB045170BD05
:100950000EF0004E4EEA113114EB5C04C2BFD4EB32
:100960000C0541EA045170BD41F480114FF0000EB6
:10097000013C90E645EA060E8DE60CEA135594EA32
:100980000C0F08BF95EA0C0F3FF43BAF94EA0C0F35
:100990000AD150EA01347FF434AF95EA0C0F7FF4AA
:1009A00025AF104619462CE795EA0C0F06D152EAFE
:1009B00003353FF4FDAE1046194622E750EA4106E2
:1009C00018BF52EA43067FF4C5AE50EA41047FF4F3
:1009D0000DAF52EA43057FF4EBAE12E74FF0FF3C58
:1009E00006E000BF4FF0010C02E000BF4FF0010C29
:1009F0004DF804CD4FEA410C7FEA6C5C4FEA430CA2
:100A000018BF7FEA6C5C1BD001B050EA410C0CBFF0
:100A100052EA430C91EA030F02BF90EA020F002052
:100A2000704710F1000F91EA030F58BF994208BFB9
:100A300090422CBFD8176FEAE37040F00100704776
:100A40004FEA410C7FEA6C5C02D150EA013C07D1CD
:100A50004FEA430C7FEA6C5CD6D152EA033CD3D018
:100A60005DF8040B704700BF8446104662468C4612
:100A70001946634600E000BF01B5FFF7B7FF002845
:100A800048BF10F1000F01BD4DF808EDFFF7F4FF6E
:100A90000CBF012000205DF808FB00BF4DF808EDF9
:100AA000FFF7EAFF34BF012000205DF808FB00BF1C
:100AB0004DF808EDFFF7E0FF94BF012000205DF83E
:100AC00008FB00BF4DF808EDFFF7CEFF94BF0120F3
:100AD00000205DF808FB00BF4DF808EDFFF7C4FFEC
:100AE00034BF012000205DF808FB00BF4FEA410C35
:100AF0007FEA6C5C02D150EA013C0AD14FEA430C18
:100B00007FEA6C5C02D152EA033C02D14FF0000054
:100B100070474FF0010070474A0011D212F50012E1
:100B200011D20DD56FF47873B3EB62520ED44FEA45
:100B3000C12343F0004343EA505323FA02F07047C5
:100B40004FF00000704750EA013002D14FF0FF3003
:100B500070474FF0000070474FEA4102B2F1E043A6
:100B600024BFB3F5001CDCF1FE5C0DD901F0004C94
:100B70004FEAC0024CEA5070B2F1004F40EB8300E4
:100B800008BF20F00100704711F0804F21D113F110
:100B90003872BCBF01F00040704741F480114FEA49
:100BA0005252C2F11802C2F1200C10FA0CF320FAD2
:100BB00002F018BF40F001004FEAC1234FEAD323EF
:100BC00003FA0CFC40EA0C0023FA02F34FEA430359
:100BD000CCE77FEA625307D150EA01331EBF4FF0E2
:100BE000FE4040F44000704701F0004040F0FE40FD
:100BF00040F40000704700BF4FF0FF3C06E000BF2C
:100C00004FF0010C02E000BF4FF0010C4DF804CD95
:100C10004FEA40024FEA41037FEA226C18BF7FEAA5
:100C2000236C11D001B052EA530C18BF90EA010FA7
:100C300058BFB2EB030088BFC81738BF6FEAE17036
:100C400018BF40F0010070477FEA226C02D15FEAD2
:100C5000402C05D17FEA236CE4D15FEA412CE1D03E
:100C60005DF8040B704700BF844608466146FFE705
:100C70000FB5FFF7C9FF002848BF10F1000F0FBDE7
:100C80004DF808EDFFF7F4FF0CBF012000205DF8E0
:100C900008FB00BF4DF808EDFFF7EAFF34BF012065
:100CA00000205DF808FB00BF4DF808EDFFF7E0FFFE
:100CB00094BF012000205DF808FB00BF4DF808ED4F
:100CC000FFF7D2FF94BF012000205DF808FB00BFB2
:100CD0004DF808EDFFF7C8FF34BF012000205DF894
:100CE00008FB00BF4FEA40024FEA41037FEA226C53
:100CF00002D15FEA402C08D17FEA236C02D15FEA7F
:100D0000412C02D14FF0000070474FF001007047B6
:100D100053B94AB9002908BF00281CBF4FF0FF3162
:100D20004FF0FF3000F0AEB9ADF1080C6DE904CE24
:100D300000F03EF8DDF804E0DDE9022304B070477E
:100D400038B505460C460022002328462146FFF709
:100D5000A5FE28B928462146BDE8384000F00AB86B
:100D6000284604F1004100F005F8404261EB4101E2
:100D700038BD00BFD0B500220B4B06460F46FFF72B
:100D80001BFCFFF7C9FE0446FFF79CFB0022074B44
:100D9000FFF712FC02460B4630463946FFF754FA7D
:100DA000FFF7BAFE2146D0BD0000F03D0000F04143
:100DB0002DE9F047089E0D4604468846002B4DD18C
:100DC0008A42944668D9B2FA82F252B101FA02F329
:100DD000C2F1200120FA01F10CFA02FC41EA0308F9
:100DE00094404FEA1C41B8FBF1F71FFA8CFE01FB5F
:100DF000178807FB0EF0230C43EA084398420AD9F0
:100E00001CEB030307F1FF3580F01E81984240F28E
:100E10001B81023F63441B1AB3FBF1F001FB10334B
:100E200000FB0EFEA4B244EA0344A6450AD91CEB1B
:100E3000040400F1FF3380F00981A64540F20681E9
:100E4000644402380021A4EB0E0440EA07401EB1BE
:100E50000023D440C6E90043BDE8F0878B4208D99F
:100E6000002E00F0EE800021C6E900050846BDE82E
:100E7000F087B3FA83F100294AD1AB4202D3824210
:100E800000F2FC80841A65EB030301209846002ED3
:100E9000E2D0C6E90048DFE702B9FFDEB2FA82F22B
:100EA000002A40F09180A1EB0C0001214FEA1C4781
:100EB0001FFA8CFEB0FBF7F307FB1300250C45EA85
:100EC00000450EFB03F0A84208D91CEB050503F111
:100ED000FF3802D2A84200F2CE8043462D1AB5FB5D
:100EE000F7F007FB10550EFB00FEA4B244EA0544E0
:100EF000A64508D91CEB040400F1FF3502D2A64533
:100F000000F2B6802846A4EB0E0440EA03409EE7B8
:100F1000C1F120078B4022FA07FC4CEA030C25FAAA
:100F200007FA4FEA1C49BAFBF9F820FA07F309FB64
:100F300018AA8D401FFA8CFE1D4300FA01F308FB2E
:100F40000EF02C0C44EA0A44A04202FA01F20BD93A
:100F50001CEB040408F1FF3A80F08880A04240F2C4
:100F60008580A8F102086444241AB4FBF9F009FB57
:100F7000104400FB0EFEADB245EA0444A64508D974
:100F80001CEB040400F1FF356CD2A6456AD9023887
:100F9000644440EA0840A0FB0295A4EB0E04AC4276
:100FA000C846AE4656D353D0002E69D0B3EB0802E4
:100FB00064EB0E0422FA01F304FA07F71F43CC4056
:100FC000C6E90074002147E70CFA02FCC2F12001D7
:100FD00025FA01F34FEA1C4720FA01F195400D4331
:100FE000B3FBF7F107FB11331FFA8CFE280C40EA24
:100FF000034001FB0EF3834204FA02F408D91CEB10
:10100000000001F1FF382FD283422DD9023960440C
:10101000C01AB0FBF7F307FB1300ADB245EA004579
:1010200003FB0EF0A84208D91CEB050503F1FF38BD
:1010300016D2A84214D9023B6544281A43EA01415A
:1010400038E73146304607E72F46E4E61846F9E62A
:101050004B45A9D2B9EB020865EB0C0E0138A3E7AA
:101060004346EAE7284694E74146D1E7D0467BE786
:101070006444023847E7023B65442FE7084606E729
:101080003146E9E6704700BFB0B596B000AF786072
:10109000786800F06FFB3E4B07F148040FCB84E803
:1010A0000F0007F14803002118460AF02FFE024600
:1010B0007B689A60374B07F138040FCB84E80F0048
:1010C00007F13803002118460AF020FE02467B682B
:1010D0001A60314B07F128040FCB84E80F0007F1A9
:1010E0002803002118460AF011FE02467B685A6068
:1010F0002A4B07F10C041D460FCD0FC495E80700DD
:1011000084E8070007F10C03796818460AF037FDF8
:101110007B68002283F81024002283F811247B6866
:10112000002283F86D25002283F86E25002283F8C3
:101130006F25002283F870257B68002283F87925CB
:10114000002283F87A25002283F87B25002283F889
:101150007C257B68002283F87525002283F876259C
:10116000002283F87725002283F878257B68002207
:1011700083F87125002283F87225002283F87325F5
:10118000002283F8742500BF5837BD46B0BD00BFAC
:1011900098220108A8220108B8220108C8220108E3
:1011A00080B582B000AF78600B46FB707B68DB7B5C
:1011B000012B60D17B68B3F810349BB21A467B6870
:1011C0001344FA781A74FB780D2B02D0FB780A2BA3
:1011D00032D17B68B3F810349BB21A467B68134453
:1011E00000221A747B6818687B68B3F812349BB2CB
:1011F000012219460AF0B2FD7B68B3F810349BB2A5
:10120000B3F5407F07D97B68002283F810240022C1
:1012100083F8112408E07B68B3F810349BB20133E3
:101220009AB27B68A3F810247B68B3F810349AB2A2
:101230007B68A3F8122408E07B68B3F810349BB2F3
:1012400001339AB27B68A3F810247B68B3F810349A
:101250009BB2B3F5806F1CD17B68002283F8102409
:10126000002283F811247B68B3F810349AB27B68AB
:10127000A3F812240DE07B68002283F810240022DA
:1012800083F811247B68B3F810349AB27B68A3F812
:10129000122400BF0837BD4680BD80B584B000AFC2
:1012A00078607B681B6807F10A01012218460BF081
:1012B0008BF90346002B08D07B6810337A891344DE
:1012C000FB60F968786800F005FA01200AF0A3FCD9
:1012D000E7E780B586B000AF786039607B68596811
:1012E00007F10C03012218460AF078FDFB68102B69
:1012F00005D13B69DAB23B681A70002300E0012394
:1013000018461837BD4680BD90B59BB000AFF86059
:101310000B467A60FB7214200AF07DFCFB7A092BE5
:1013200000F2BE8101A252F823F000BF9F13000813
:10133000E913000833140008A71400084716000832
:10134000A1160008F114000861150008FD15000839
:101350005513000800233B74C14B5A6A07F1100370
:10136000114618460DF095FF00237B660DE0FB68E3
:10137000586807F110027B6E13441B78002219464F
:101380000AF0ECFC7B6E01337B6607F11003184614
:10139000FEF74EFF02467B6E9A42E8D880E10023BA
:1013A0003B74AF4B1A6807F11003114618460DF055
:1013B00070FF00233B660DE0FB68586807F11002E0
:1013C0003B6E13441B78002219460AF0C7FC3B6EA3
:1013D00001333B6607F110031846FEF729FF02466A
:1013E0003B6E9A42E8D85BE100233B749C4B5A6801
:1013F00007F11003114618460DF04BFF0023FB6563
:101400000DE0FB68586807F11002FB6D13441B7870
:10141000002219460AF0A2FCFB6D0133FB6507F1BF
:1014200010031846FEF704FF0246FB6D9A42E8D807
:1014300036E100233B748A4B9A6807F1100311468A
:1014400018460DF026FF07F11003796818460DF0D5
:1014500020FF07F110031846FEF7EAFE03461A467E
:1014600007F1100313447F4A1188927819809A700B
:101470000023BB650DE0FB68586807F11002BB6DE7
:1014800013441B78002219460AF068FCBB6D013337
:10149000BB6507F110031846FEF7CAFE0246BB6D96
:1014A0009A42E8D8FCE000233B746D4BDA6807F100
:1014B0001003114618460DF0ECFE00237B650DE08D
:1014C000FB68586807F110027B6D13441B780022FB
:1014D00019460AF043FC7B6D01337B6507F110036D
:1014E0001846FEF7A5FE02467B6D9A42E8D8D7E083
:1014F00000233B745A4B5A6907F1100311461846F2
:101500000DF0C7FE07F110031846FEF791FE0346E3
:101510001A4607F110031344534A1C46134607CBDF
:1015200020606160A2601B88A38100233B650DE001
:10153000FB68586807F110023B6D13441B780022CA
:1015400019460AF00BFC3B6D01333B6507F11003B4
:101550001846FEF76DFE02463B6D9A42E8D89FE0C2
:1015600000233B743E4B5A6907F11003114618469D
:101570000DF08FFE07F110031846FEF759FE0346E3
:101580001A4607F11003134438491A460B4603CB99
:101590001060516019889B781181937207F11003D4
:1015A000796818460DF075FE07F110031846FEF72E
:1015B0003FFE03461A4607F110031344294A1188D7
:1015C000927819809A700023FB640DE0FB685868DC
:1015D00007F11002FB6C13441B78002219460AF035
:1015E000BDFBFB6C0133FB6407F110031846FEF7EB
:1015F0001FFE0246FB6C9A42E8D851E000233B7480
:10160000174B1A6A07F11003114618460DF041FEF8
:101610000023BB640DE0FB68586807F11002BB6C47
:1016200013441B78002219460AF098FBBB6C013367
:10163000BB6407F110031846FEF7FAFD0246BB6CC7
:101640009A42E8D82CE000233B74054B1A6907F155
:101650001003114618460DF01CFE00237B6415E0B4
:1016600000000020E4220108E8220108F822010815
:10167000FB68586807F110027B6C13441B7800224A
:1016800019460AF06BFB7B6C01337B6407F1100396
:101690001846FEF7CDFD02467B6C9A42E8D800BFA3
:1016A00000BF6C37BD4690BD80B582B000AF78609A
:1016B00039607B689B680122396818460AF084FF0C
:1016C0000346002B01D0002300E001231846083711
:1016D000BD4680BD90B587B000AF786039602249C3
:1016E00038680EF05FFC386100237B6133E03869B5
:1016F000FEF79EFD04461D4A7B6952F823301846CA
:10170000FEF796FD03469C4222D10023FB60174A58
:101710007B6952F82330194638690DF0D1FDF86025
:10172000FB68002B14D0124A7B6952F82340F868FA
:10173000FEF77EFD034601333A6813441946786884
:10174000A0470346002B01D1002308E0012306E057
:101750007B6901337B617B69022BC8DD012318465D
:101760001C37BD4690BD00BF04230108980200202D
:101770008C02002080B483B000AF78600B4B0C4A21
:101780001A600A4B0B4A5A60084B0B4A9A600B4B83
:101790000B4A1A60094B0B4A5A60084B0A4A9A6076
:1017A00000BF0C37BD4680BC704700BF8C020020D4
:1017B000CD17000815190008E91700089802002045
:1017C00008230108102301081823010880B483B0FE
:1017D00000AF786039607B6801225A730023184695
:1017E0000C37BD4680BC704780B584B000AF7860D0
:1017F00039607B685B7B022B40F084804449386809
:101800000EF0D0FBF860424900200EF0CBFBF860F0
:101810003F4900200EF0C6FBF8603D4900200EF065
:10182000C1FBF8603A4900200EF0BCFBF860384973
:1018300000200EF0B7FBF8607B68002283F81325C8
:101840007B6803F21353F96818460DF031FD3049F7
:1018500000200EF0A7FBF8607B68002283F82225A9
:101860007B6803F22253F96818460DF021FD2849E0
:1018700000200EF097FBF860254900200EF092FB47
:10188000F8607B68002283F840257B6803F5A86335
:10189000F96818460DF00CFD1D4900200EF082FB82
:1018A000F8601B4900200EF07DFBF8607B68002289
:1018B00083F84F257B6803F24F53F96818460DF003
:1018C000F7FC134900200EF06DFBF8601049002072
:1018D0000EF068FBF8600E4900200EF063FBF86024
:1018E0007B68002283F85E257B6803F25E53F9680B
:1018F00018460DF0DDFC7B689B680122022118462A
:101900000AF02CFA002318461037BD4680BD00BFF0
:101910000423010880B584B000AF786039607B682B
:101920005B7B022B40F05081AA4938680EF03AFBED
:10193000F860A84900200EF035FBF860A5490020AA
:101940000EF030FBF860A34900200EF02BFBF8608E
:10195000A04900200EF026FBF8609E4900200EF002
:1019600021FBF8607B68002283F814247B6803F273
:101970001443F96818460DF09BFC964900200EF0C0
:1019800011FBF8607B68002283F823247B6803F254
:101990002343F96818460DF08BFC8E4900200EF0A9
:1019A00001FBF8607B68002283F832247B6803F235
:1019B0003243F96818460DF07BFC864900200EF092
:1019C000F1FAF8607B68002283F841247B6803F217
:1019D0004143F96818460DF06BFC7E4900200EF07B
:1019E000E1FAF8607B68002283F850247B6803F5F5
:1019F0008A63F96818460DF05BFC764900200EF00A
:101A0000D1FAF8607B68002283F85F247B6803F2D8
:101A10005F43F96818460DF04BFC6E4900200EF04C
:101A2000C1FAF8607B68002283F86E247B6803F2B9
:101A30006E43F96818460DF03BFC664900200EF035
:101A4000B1FAF8607B68002283F87D247B6803F29A
:101A50007D43F96818460DF02BFC5E4900200EF01E
:101A6000A1FAF8607B68002283F88C247B6803F27B
:101A70008C43F96818460DF01BFC564900200EF007
:101A800091FAF8607B68002283F891247B6803F266
:101A90009143F96818460DF00BFC4E4900200EF0FA
:101AA00081FAF8607B68002283F896247B6803F251
:101AB0009643F96818460DF0FBFB464900200EF0EE
:101AC00071FAF8607B68002283F89B247B6803F23C
:101AD0009B43F96818460DF0EBFB3E4900200EF0E1
:101AE00061FAF8607B68002283F8AA247B6803F21D
:101AF000AA43F96818460DF0DBFB364900200EF0CA
:101B000051FAF8607B68002283F8B9247B6803F2FD
:101B1000B943F96818460DF0CBFB2E4900200EF0B2
:101B200041FAF8607B68002283F8C8247B6803F5DB
:101B30009963F96818460DF0BBFB264900200EF0AA
:101B400031FAF8607B68002283F8D7247B6803F2BF
:101B5000D743F96818460DF0ABFB1E4900200EF084
:101B600021FAF8607B68002283F8E6247B6803F2A0
:101B7000E643F96818460DF09BFB164900200EF06D
:101B800011FAF8607B68002283F8F5247B6803F281
:101B9000F543F96818460DF08BFB0F4900200EF055
:101BA00001FAF8607B68002283F804257B6803F261
:101BB0000453F96818460DF07BFB7B689B68012293
:101BC000012118460AF0CAF8002318461037BD460E
:101BD00080BD00BF042301082023010880B582B026
:101BE00000AF7860396001223968786808F0FAFD42
:101BF0000346002B01D1002300E0012318460837DB
:101C0000BD4680BD80B58CB000AF78607B68002297
:101C100083F844227B68002283F84C227B680122EF
:101C200083F84D220023FB6293E05E49FA6A134673
:101C30005B0013449B000B44093301221A707A683D
:101C4000FB6A4FF4117101FB03F3134400221A7075
:101C500007F11403FA6A544918460DF0B7FAFB6A03
:101C60004FF4117202FB03F37A68134407F1140274
:101C700011461846FFF7B2FF0346002B5BD17A6886
:101C8000FB6A4FF4117101FB03F3134403F50E7368
:101C900000221A707B6893F84C320133DAB27B6809
:101CA00083F84C2207F10C0207F1100107F114032D
:101CB000184609F014FD0346002B47D17A68FB6AE9
:101CC0004FF4117101FB03F313441C331B68023BF7
:101CD0007968FA6A4FF4117000FB02F20A440A3282
:101CE000128802FB03F37B627A68FB6A4FF411717E
:101CF00001FB03F313440A331B881A463B6902FBBA
:101D000003F33B627B6A5A087968FB6A4FF41170EF
:101D100000FB03F30B4403F50F731A603B6A5A0888
:101D20007968FB6A4FF4117000FB03F30B4403F571
:101D300010731A600AE07A68FB6A4FF4117101FBB4
:101D400003F3134403F50E7301221A70FB6A013387
:101D5000FB62FB6A002B7FF768AF0023BB6219E0D0
:101D60007A68BB6A4FF4117101FB03F3134403F566
:101D70000E731B78002B0AD1BB6ADAB27B6883F83A
:101D800044227B68002283F84D22002306E0BB6AD0
:101D90000133BB62BB6A002BE2DD012318463037FA
:101DA000BD4680BDB01700202423010880B584B053
:101DB00000AFF8607B600B46FB7213463B81FA7AFA
:101DC000164913465B0013449B000B443A891A8062
:101DD000FA7A124913465B0013449B000B44043308
:101DE0007A681A60FA7A0D4913465B0013449B0027
:101DF0000B44093301221A703B89002B08D07B6801
:101E0000002B05D03B8901221946786803F008F8B9
:101E1000002318461037BD4680BD00BFB017002014
:101E200080B485B000AFF860B9607A60FB68064A9C
:101E30001A60BB68054A1A607B6880221A6000BF7E
:101E40001437BD4680BC7047A40200205803002010
:101E500080B485B000AFF860B9607A60FB68074A6B
:101E60001A60BB68064A1A607B684FF480721A6079
:101E700000BF1437BD4680BC704700BF5805002026
:101E80000C060020B0B594B000AF02F02FF900F0BE
:101E90008FF800F07FF900F057F900F0CBF800F070
:101EA000FFF800F027F9324B00221A70314B002264
:101EB0001A70314801F078F93048FFF7E5F801224F
:101EC0002F49304804F0E1FA01222F492F4804F04D
:101ED000DCFA0023BB640023FB6407F14803012103
:101EE000184609F0E1FE0346294A136000233B64CB
:101EF00000237B6407F140030121184609F0D4FE5A
:101F00000346244A1360244BBB630023FB6307F1A1
:101F1000380300220021184609F092FE03461F4AAA
:101F200013601F4B07F11C041D460FCD0FC495E82D
:101F3000070084E8070007F11C030021184609F098
:101F40001EFE0346174A1360174B3C461D460FCD35
:101F50000FC495E8070084E807003B4600211846B7
:101F600009F00DFE0346114A136009F001FEFEE779
:101F7000A0170020A1170020880B0020C40F00200C
:101F8000D00F0020300B0020940B0020EC0A002022
:101F9000800B0020840B0020712B00087C0B00209C
:101FA00040230108740B00205C230108780B0020FB
:101FB00080B590B000AF07F1180328220021184621
:101FC0000CF0EDFF3B1D00221A605A609A60DA6047
:101FD0001A610223BB610123BB621023FB6202234F
:101FE0007B630023BB634FF42013FB6307F11803EB
:101FF000184602F02DFF0346002B01D000F0D4FD5F
:102000000F237B600223BB600023FB604FF48063DF
:102010003B6100237B613B1D0121184603F09AF9C7
:102020000346002B01D000F0BFFD00BF4037BD4686
:1020300080BD000080B500AF174B184A1A60164BE0
:102040004FF482725A60144B00229A60124B0022A5
:10205000DA60114B00221A610F4B00225A610E4BBD
:102060004FF400729A610C4B0822DA610A4B00228D
:102070001A62094B00225A62074B00229A62064BF1
:102080000A22DA62044803F02FFB0346002B01D03A
:1020900000F08AFD00BF80BD0C0A00200030014026
:1020A00080B500AF114B124A1A60104B4FF4165214
:1020B0005A600E4B00229A600C4B0022DA600B4BE8
:1020C00000221A61094B0C225A61084B00229A61C6
:1020D000064B0022DA61054804F046F90346002B5E
:1020E00001D000F061FD00BF80BD00BFEC0A002000
:1020F0000050004080B500AF114B124A1A60104BDF
:102100004FF416525A600E4B00229A600C4B00227C
:10211000DA600B4B00221A61094B0C225A61084B02
:1021200000229A61064B0022DA61054804F01CF98E
:102130000346002B01D000F037FD00BF80BD00BF7B
:10214000300B00200038014080B582B000AF104B4A
:102150005B690F4A43F0010353610D4B5B6903F068
:1021600001037B607B68002205210C2002F0A5F8AA
:102170000C2002F0BEF8002205210D2002F09DF88F
:102180000D2002F0B6F800BF0837BD4680BD00BF85
:102190000010024080B588B000AF07F110030022A4
:1021A0001A605A609A60DA60234B9B69224A43F0B6
:1021B00004039361204B9B6903F00403FB60FB68FD
:1021C0001D4B9B691C4A43F0100393611A4B9B699A
:1021D00003F01003BB60BB68174B9B69164A43F0C2
:1021E00020039361144B9B6903F020037B607B68A1
:1021F000114B9B69104A43F0080393610E4B9B6996
:1022000003F008033B603B68012202210B4802F007
:1022100007FE02233B6101237B610023BB61032393
:10222000FB6107F110031946044802F065FC00BF8A
:102230002037BD4680BD00BF0010024000080140AD
:1022400080B582B000AF78607B68114A93420BD1B1
:10225000104B1B7B19460F48FEF7A2FF01220E49C7
:102260000B4804F012F90EE07B680C4A93420AD145
:102270000B4B1B7B19460A4801F013F80122094950
:10228000064804F002F900BF0837BD4680BD00BF14
:10229000300B0020C40F0020D00F0020EC0A0020DB
:1022A000880B0020940B002080B582B000AF7860CE
:1022B0007B68124A93420CD111491248FFF709F882
:1022C0000346002B15D101220D490C4804F099F862
:1022D0000FE07B680C4A93420BD10C490C4801F08B
:1022E00060F80346002B04D101220849064804F097
:1022F00088F800BF0837BD4680BD00BF300B002006
:10230000A3170020C40F0020EC0A0020A217002011
:10231000880B002090B5ADF2D47D08AF07F5F663C9
:10232000A3F2AC731860C82009F075FC04F0B4FC8B
:10233000C84B02220021C848FFF738FD03E04FF4E4
:10234000FA7009F068FCC448FFF75CFC0346002BF8
:10235000F5D1C14B93F844321A46C04B1A6001F0D4
:10236000EBFA0346012B03D101F0CCFA01F030FB6C
:10237000BA4B9B68BA4AC2F86D35B84BDB68B84AAD
:10238000C2F87135B54B1B69B54AC2F87535B34B08
:102390005B69B34AC2F87935B24B02221A70002247
:1023A0000021B14801F018F807F29F731946AE48B2
:1023B00001F05CF80346002B40F0438297F89F370A
:1023C000092B00F2418201A252F823F023250008D4
:1023D00075240008412700084D27000879260008C9
:1023E0003527000869240008F52300082F24000879
:1023F000E7270008002200219948FEF785FF4FF4E7
:102400007A7009F008FC002208219548FEF77CFF4D
:102410004FF47A7009F0FFFB002201219048FEF78B
:1024200073FF00220021904800F0D6FF0CE200224A
:1024300000218B48FEF768FF4FF47A7009F0EBFB40
:10244000002204218648FEF75FFF4FF47A7009F0FE
:10245000E2FB002201218248FEF756FF0022002104
:10246000814800F0B9FFEFE1002200217E4800F032
:10247000B3FFE9E17C4BDB7B1A467B4BD3F832346C
:102480009A422AD1002200217548FEF73DFF4FF401
:102490007A7009F0C0FB002206217148FEF734FF74
:1024A0004FF47A7009F0B7FB6F4B5B7C012B08D1BE
:1024B000002204216A48FEF727FF4FF47A7009F0E2
:1024C000AAFB002201216648FEF71EFF4FF47A7036
:1024D00009F0A1FB644B00225A7407F5906318467B
:1024E00009F0D3F85E4BD3F86D355C4A93605C4BD2
:1024F000D3F87135594AD360594BD3F87535574ADB
:102500001361574BD3F87935544A536101F060FA9F
:10251000534B03225A7300220021534800F05CFF02
:1025200092E1514BD3F836344D4AC2F87D354E4BCB
:10253000DB7B012B4ED1494B5B680133474A53602B
:10254000464B1A68454B5B6807F502704749019195
:102550000093474B47490CF039FE07F5027107F528
:1025600090630A22184608F083F93D4B002283F855
:102570006D25002283F86E25002283F86F25002246
:1025800083F87025364B002283F87125002283F8EA
:102590007225002283F87325002283F87425304BBE
:1025A000002283F87525002283F87625002283F81F
:1025B0007725002283F87825294B002283F8792596
:1025C000002283F87A25002283F87B25002283F8F5
:1025D0007C2518E0244BDB7B022B14D11F4B1A689F
:1025E0001E4B5B6807F50270204901910093204B58
:1025F00020490CF0EBFD07F5027107F590633222DC
:10260000184608F035F9164B02225A73164B1B7CFC
:10261000002B19D1002200211148FEF775FE4FF45E
:102620007A7009F0F8FA002203210D48FEF76CFEDB
:102630004FF47A7009F0EFFA002201210848FEF702
:1026400063FE094B01221A7400220021064800F0A3
:10265000C3FEF9E00008014048150020401A0020A0
:10266000C40F0020A0170020880B00209023010831
:10267000782301088423010800220021BC4800F0CF
:10268000ABFEBC4B1B78002B40F0DD80BA4B1B68C7
:102690004FF0FF3118460AF077F8B64B01221A7056
:1026A00007F5F0631A460021B448FEF72DFE4FF4FB
:1026B0007A7009F0B0FAAE4A07F5F0631A32106882
:1026C000516803C307F5F06308330322AC49184689
:1026D0000CF057FC07F5F0630B33A5491A4601F1DE
:1026E000220319685B681160536007F5F0631333C8
:1026F0000222A44918460CF044FC002387F89537C1
:1027000007F5F0631A4602219C48FEF7FDFD4FF4E1
:102710007A7009F080FA07F5F0631A4601219748AC
:10272000FEF7F2FD944B186800230022002109F007
:10273000B5FD88E0002200218D4800F04DFE83E0C9
:10274000002200218A4800F047FE7DE08E4B5B6846
:1027500007F502708D4A00928D4A8E490CF036FDC5
:1027600007F5027107F590630122184608F080F81A
:102770000346002B31D107F50273C7F8783707F508
:1027800002731846FDF754FD0346C7F87C3707F57A
:10279000EF631A460121764800F01EFE07F5DB6361
:1027A00007F5DC6107F59060322208F022FB034652
:1027B000002B0ED107F5DC63C7F87837D7F8D83689
:1027C000C7F87C3707F5EF631A460121684800F027
:1027D00003FED7F8D836322BE0D00022002164481F
:1027E00000F0FAFD30E0654BD3F86D15634BD3F87C
:1027F0007145624BD3F87535604AD2F8792507F5F3
:10280000DC600192009323460A4663490CF0DEFC2B
:1028100007F5DC63C7F8783707F5DC631846FDF782
:1028200007FD0346C7F87C3707F5EF631A46012119
:102830004F4800F0D1FD002200214D4800F0CCFDB2
:1028400002E000BF00E000BF07F29F7319464B484B
:10285000FEF72AFF0346002B40F02A8197F89F37A6
:10286000012B03D0022B00F0B58026E107F5F663BB
:10287000A3F5F56300221A70404BD3F87D35032B86
:1028800038D801A252F823F0F5280008992800084A
:10289000AD280008C928000807F108003F4B009345
:1028A0003F4B404A40490CF091FC23E007F10800FF
:1028B0003E4B02933E4B0193384B0093384B394AC1
:1028C0003C490CF083FC15E007F10800374B0693F8
:1028D000374B0593384B0493384B03932F4B02939C
:1028E000374B0193374B00932E4B2D4A36490CF052
:1028F0006DFC00BF07F108031846FDF799FC02467E
:1029000007F2DC6307F1080107F5906008F0EBFBC4
:102910000A22002122480DF01DFC0346C7F8A43707
:102920000A22002129480DF015FC0346C7F8A037FC
:10293000D7F8A437264A934206D9104BD3F86D3501
:1029400001330E4AC2F86D35D7F8A037B3F5C86F1A
:1029500005D8D7F8A037B3F5967F80F0AB80074B4A
:10296000D3F879350133054AC2F87935A2E000BFC2
:10297000880B0020A1170020840B0020C40F00202A
:10298000982301089C230108401A00209023010885
:1029900078230108A0230108A82301085F14002060
:1029A00023140020B9140020D42301087D14002032
:1029B0006E140020E4230108E7130020D813002040
:1029C000C81400208C140020F823010805140020EE
:1029D000B0AD010007F5F663A3F5F56300221A70A8
:1029E000384BD3F87D35032B24D801A252F823F0BD
:1029F000352A0008012A0008112A0008212A0008A7
:102A000007F10800304B314A31490CF0DFFB11E08F
:102A100007F108002C4B2D4A2D490CF0D7FB09E09B
:102A200007F108002B4B0093284B274A2A490CF04A
:102A3000CDFB00BF07F108031846FDF7F9FB02467E
:102A400007F2DC6307F1080107F5906008F04BFB23
:102A50000A2200211C480DF07DFB0346C7F8AC3765
:102A60000A2200211B480DF075FB0346C7F8A83762
:102A7000D7F8AC37194A934206D9124BD3F87135BF
:102A80000133104AC2F87135D7F8A83747F2481217
:102A9000934205D8D7F8A83746F6771293420BD859
:102AA000084BD3F875350133064AC2F8753503E093
:102AB00000BF02E000BF00E000BF012009F0ABF85A
:102AC00072E400BFC40F002022150020131500205F
:102AD000182401080415002024240108084C0100D2
:102AE00080B584B000AF78601C4B0A225A731C4B2F
:102AF0000122DA731B4B1B78022B2BD11A4B93F854
:102B00003D30DBB2212B0FD007F10F0319461348DC
:102B100000F047FC0346002B06D107F10F0301220A
:102B20001946114803F06DFC104B93F83D30DBB2B1
:102B3000212B0FD007F10E0319460948FEF7C9FBF8
:102B40000346002B06D107F10E0301221946074860
:102B500003F057FC012009F05EF8CBE7880B00205A
:102B6000C40F0020A0170020EC0A0020300B00202A
:102B700080B483B000AF786000BF0C37BD4680BC26
:102B80007047000080B582B000AF78607B681B683A
:102B9000044A934201D101F0BFFA00BF0837BD4695
:102BA00080BD00BF002C014080B400AF72B600BFF2
:102BB000FEE7000080B485B000AF78603960FF2385
:102BC000FB73FF23BB7314E097F90E207B68591C3D
:102BD00079601B785340BB600F4ABB68134493F97C
:102BE0000020FB7B5340BB730C4ABB6813441B782B
:102BF000FB733B685A1E3A60002BE5D197F90F3002
:102C00001B021AB297F90E301BB213431BB21846BF
:102C10001437BD4680BC70479425010894260108EE
:102C200080B483B000AF0346FB71FA7916491346AE
:102C30005B0013449B000B441A88144B1A80FA79EA
:102C4000114913465B0013449B000B4404331B687B
:102C50000F4A1360FA7913465B0013449B00083354
:102C6000094A13440B4A1360FA7913465B00134474
:102C70009B000833044A13440133074A136000BF22
:102C80000C37BD4680BC7047B0170020A817002045
:102C9000AC170020A4170020BC1A002080B500AF9C
:102CA000044B1B68044A11880022184602F0B8F849
:102CB00000BF80BDAC170020A817002080B500AF72
:102CC000044B1B68044A11880122184602F0A8F838
:102CD00000BF80BDAC170020A817002080B584B0CD
:102CE00000AF03463960FB7197F90730002B0EDA0D
:102CF000FB7903F07F03FB7100217720FFF7EEFFE4
:102D00000346BB73BB7B012B01D9BB7B3BE0FB794B
:102D1000184600F061F93B681B0EDBB2184600F064
:102D20005BF93B681B0CDBB2184600F055F93B68B9
:102D30001B0ADBB2184600F04FF93B68DBB21846BD
:102D400000F04AF90123FB73FB79402B01D1952355
:102D5000FB73FB79482B01D18723FB73FB7B184660
:102D600000F03AF90A23FB7300F043F90346BB7302
:102D700097F90E30002B05DAFB7B013BFB73FB7BE5
:102D8000002BF1D1BB7B18461037BD4680BD00003B
:102D900090B585B000AF0523FB725D4B1B68002228
:102DA0001A7000214020FFF799FF0346BB72BB7ADF
:102DB000012B05D0FB7A013BFB72FB7A002BF0D193
:102DC000BB7A012B40F09F8000F020F94FF4D571C1
:102DD0004820FFF783FF0346012B58D10023FB73E4
:102DE0000CE0FC7B00F005F903461A4604F11003E1
:102DF0003B4403F80C2CFB7B0133FB73FB7B032B65
:102E0000EFD9BB79012B7CD1FB79AA2B79D142F682
:102E1000E063BB8105E0B7F90C309BB2013B9BB28C
:102E2000BB81B7F90C30002B07D04FF08041E9206F
:102E3000FFF754FF0346002BEDD1B7F90C30002B00
:102E40005FD000217A20FFF749FF0346002B58D1BD
:102E50000023FB730CE0FC7B00F0CBF803461A4622
:102E600004F110033B4403F80C2CFB7B0133FB7390
:102E7000FB7B032BEFD93B7903F04003002B01D000
:102E80000C2200E00422224B1B681A7039E000215A
:102E9000E920FFF723FF0346012B06D81C4B1B68D4
:102EA00002221A70E923BB7305E0194B1B6801224B
:102EB0001A704123BB7346F2A813BB8105E0B7F932
:102EC0000C309BB2013B9BB2BB81B7F90C30002B9D
:102ED00007D0BB7B00211846FFF700FF0346002BFD
:102EE000EDD1B7F90C30002B07D04FF40071502012
:102EF000FFF7F4FE0346002B03D0054B1B680022AE
:102F00001A70002300E0012318461437BD4690BD17
:102F1000A417002080B400AF00BFBD4680BC70473E
:102F200080B582B000AF0023FB8000F062F803465A
:102F30007B71FB880133FB807B79FF2B04D0FB88FE
:102F40004FF6FF729342F0D1FB884FF6FF72934227
:102F500001D1012300E07B7918460837BD4680BDCA
:102F600080B584B002AF786039603B689BB24FF0A7
:102F7000FF320092074A7968074802F039FC03469D
:102F8000002B01D1002300E0012318460837BD467D
:102F900080BD00BFE01700200C0A002080B586B07D
:102FA00002AF0346FB710023FB7307F10F02F91D0B
:102FB0004FF4805300930123064802F019FC0346A6
:102FC000002B01D0FFF7A6FFFB7B18461037BD464C
:102FD00080BD00BF0C0A002080B582B000AF034660
:102FE000FB71FB791846FFF7D9FF00BF0837BD46D4
:102FF00080BD80B582B000AFFF20FFF7CFFF034652
:10300000FB71FB7918460837BD4680BD80B500AF1F
:10301000FF20FFF7C3FF00BF80BD90B585B000AFB4
:103020007860396039685120FFF758FE03467B739A
:103030007B7B002B01D005232FE0FFF7E7FF002368
:10304000FB81FFF7D6FF03467B73FB890133FB81CE
:103050007B7BFE2B04D0FB894FF6FF729342F0D1AD
:10306000FB894FF6FF72934201D1052315E000233F
:10307000FB8109E0FB897A68D418FFF7BAFF0346A1
:103080002370FB890133FB81FB89B3F5007FF1D30A
:10309000FFF7BCFFFFF7BAFF002318461437BD4601
:1030A00090BD000080B588B000AFF860B9601346ED
:1030B000FB800AF069F90346394A1360B968592060
:1030C000FFF70CFE0346FB75FB7D002B01D00623AA
:1030D00061E0FFF79BFF0023BB6135E0FC20FFF7B9
:1030E0007BFF4FF40071F868FFF73AFFFB6803F5C8
:1030F0000073FB60FFF78AFFFFF788FFFFF779FF98
:103100000346FB75FB7D03F01F03052B01D006234F
:1031100041E00023FB83FFF76CFF0346FB75FB8B4D
:103120000133FB83FB7DFF2B04D0FB8B4FF6FF723B
:103130009342F0D1FB8B4FF6FF72934201D10623ED
:1031400029E0BB690133BB61FB88BA699A42C5DBE0
:10315000FD20FFF741FFFFF759FF0023FB83FFF737
:1031600048FF0346FB75FB8B0133FB83FB7DFF2B85
:1031700004D0FB8B4FF6FF729342F0D1FB8B4FF6DE
:10318000FF72934201D1062305E00AF0FDF80346E1
:10319000044A1360002318462037BD4680BD00BF97
:1031A000981700209C170020B0B596B000AF78604B
:1031B0007B684FF00002C3F812207B684FF00002DA
:1031C000C3F816207B680022DA737B6800221A7429
:1031D0007B6801225A74786800F092F9204B07F15D
:1031E00048040FCB84E80F0007F14803002118467C
:1031F00008F08CFD02467B689A601A4B07F1380490
:103200000FCB84E80F0007F138030021184608F0BF
:103210007DFD02467B681A60134B07F128040FCB33
:1032200084E80F0007F128030021184608F06EFD1E
:1032300002467B685A600D4B07F10C041D460FCD0A
:103240000FC495E8070084E8070007F10C037968CC
:10325000184608F094FC00BF5837BD46B0BD00BF0B
:103260004C2401085C2401086C2401087C2401081A
:1032700080B584B000AF78607B681B6807F10A01F5
:103280000022184609F0A0F90346002BF4D07B6811
:103290002A337A891344FB60F968786800F0FCF8F7
:1032A000EAE780B582B000AF78600B46FB707B68C0
:1032B0005B7B0A2B62D1FB78002B5FD07B68B3F875
:1032C0002A349BB21A467B681344FA7883F82A2082
:1032D000FB780D2B33D17B68B3F82A349BB21A46A6
:1032E0007B681344002283F82A207B6818687B6877
:1032F000B3F82C349BB20122194608F02FFD7B68ED
:10330000B3F82A349BB2B3F5407F07D97B6800221B
:1033100083F82A24002283F82B2408E07B68B3F882
:103320002A349BB201339AB27B68A3F82A247B68C3
:10333000B3F82A349AB27B68A3F82C2408E07B689F
:10334000B3F82A349BB201339AB27B68A3F82A24DB
:103350007B68B3F82A349BB2B3F5806F1DD17B68CC
:10336000002283F82A24002283F82B247B68B3F8F8
:103370002A349AB27B68A3F82C240EE07B680022E2
:1033800083F82A24002283F82B247B68B3F82A349C
:103390009AB27B68A3F82C2400BF00BF0837BD4653
:1033A00080BD80B586B000AF786039607B685968B1
:1033B00007F10C030022184608F010FDFB68102BE3
:1033C00005D13B69DAB23B681A70002300E00123A3
:1033D00018461837BD4680BD80B588B000AFF8608C
:1033E0000B467A60FB72FB7A002B02D0012B1CD0BB
:1033F00035E00023FB610EE0FB6858681A4B1A6841
:10340000FB6913441B784FF0FF32194608F0A6FC05
:10341000FB690133FB61144B1B681846FCF708FF7E
:103420000246FB699A42E7D819E07B687B6100237A
:10343000BB610EE0FB6858687B691A68BB6913447E
:103440001B784FF0FF32194608F088FCBB69013346
:10345000BB617B695A68BB699A42EBD800BF00BF69
:103460002037BD4680BD00BF2800002080B582B057
:1034700000AF786039607B689B6801223968184624
:1034800009F0A2F80346002B01D0002300E001233D
:1034900018460837BD4680BD80B584B000AF78605F
:1034A00039600023FB601EE00023BB60124AFB680A
:1034B00052F82330194638680BF002FFB860BB6839
:1034C000002B0DD00D4AFB6852F82330396878681C
:1034D00098470346002B01D1002308E0012306E0B2
:1034E000FB680133FB60FB680B2BDDDD0123184615
:1034F0001037BD4680BD00BF101A0020E019002023
:1035000080B483B000AF7860264B274A1A60254B01
:10351000264A5A60234B264A9A60224B254ADA6093
:10352000204B254A1A611F4B244A5A611D4B244ADD
:103530009A611C4B234ADA611A4B234A1A62194BCF
:10354000224A5A62174B224A9A62164B214ADA6281
:10355000214B224A1A60204B214A5A601E4B214AB5
:103560009A601D4B204ADA601B4B204A1A611A4BA5
:103570001F4A5A61184B1F4A9A61174B1E4ADA615B
:10358000154B1E4A1A62144B1D4A5A62124B1D4AB1
:103590009A62114B1C4ADA6200BF0C37BD4680BCF0
:1035A000704700BFE01900200D3600089D36000866
:1035B000AD370008F9360008CF370008E5370008B6
:1035C000FB3700081D3800087D3800089F380008C8
:1035D000C1380008E3380008101A002098240108B8
:1035E000A0240108A8240108B8240108C024010867
:1035F000CC240108D4240108DC240108E4240108B7
:10360000EC240108F4240108FC24010880B584B0EE
:1036100000AF786039601F4938680CF0C3FCF8606F
:103620001D4900200CF0BEFCF8607B68D3F8122026
:1036300013461A467B68C3F816200021F8680CF080
:103640005FFC02467B68C3F81220134900200CF08F
:10365000A9FCF8607B681A330822F96818460BF059
:1036600090FC0D4900200CF09DFCF8607B68223333
:103670000622F96818460BF084FC7B689B680122DF
:103680000621184608F06AFB002318461037BD468D
:1036900080BD00BF042501080825010880B584B05D
:1036A00000AF78603960124938680CF07BFCF86034
:1036B000104900200CF076FCF860FB681B78612B49
:1036C00003D17B680122DA7306E0FB681B78622B6A
:1036D00002D17B680222DA737B689B680122012198
:1036E000184608F03BFB002318461037BD4680BD46
:1036F000042501080825010880B584B000AF786072
:103700003960284938680CF04DFCF86026490020E3
:103710000CF048FCF8600A220021F8680CF01AFD51
:103720000346DAB27B685A741F4900200CF03AFC59
:10373000F8600A220021F8680CF00CFD03461A46D6
:103740007B68C3F83224184900200CF02BFCF86089
:103750000A220021F8680CF0FDFC03461A467B683B
:10376000C3F83624104900200CF01CFCF860FB68FC
:103770001B78612B03D17B680122DA7306E0FB68BA
:103780001B78622B02D17B680222DA737B689B680C
:1037900001220021184608F0E1FA002318461037EC
:1037A000BD4680BD042501080825010880B582B00A
:1037B00000AF786039607B689B680122032118465E
:1037C00008F0CCFA002318460837BD4680BD80B407
:1037D00083B000AF78603960002318460C37BD46CF
:1037E00080BC704780B483B000AF7860396000233C
:1037F00018460C37BD4680BC704780B582B000AF1C
:10380000786039607B689B6801220221184608F0C5
:10381000A5FA002318460837BD4680BD80B584B0A0
:1038200000AF78603960144938680CF0BBFBF86071
:10383000114900200CF0B6FBF8607B681A330822AF
:10384000F96818460BF09DFB0B4900200CF0AAFB11
:10385000F8607B6822330822F96818460BF091FB68
:103860007B689B6801220421184608F077FA002340
:1038700018461037BD4680BD0425010880B582B0CA
:1038800000AF786039607B689B680122052118468B
:1038900008F064FA002318460837BD4680BD80B59D
:1038A00082B000AF786039607B689B680122072195
:1038B000184608F053FA002318460837BD4680BD65
:1038C00080B582B000AF786039607B689B68012268
:1038D0000821184608F042FA002318460837BD466A
:1038E00080BD80B582B000AF786039607B689B682E
:1038F00001220921184608F031FA0023184608373A
:10390000BD4680BD80B400AF0A4B00225A60094B0F
:1039100000221A83074B00229A60064B0022DA60CD
:10392000044B00221A61034B00225A6100BFBD46BE
:1039300080BC7047401A002080B5ADF5207D00AFF7
:10394000204B1A683846204B20490BF03FFC394683
:1039500007F120030122184606F08AFF0346002BD8
:1039600029D107F51E7307F120001A22154907F027
:1039700040FA0346002B1CD107F12003184607F03C
:1039800084FED7F878321A2B01D0012314E01821D5
:103990000C48FFF70FF90346A7F87E32094BB3F93D
:1039A0001830B7F97E229A4201D1002304E00123A6
:1039B00002E0012300E00123184607F52077BD4609
:1039C00080BD00BF401A00202C0000200C250108FB
:1039D00080B5ADF5207D00AF1D4B1A6838461D4BF4
:1039E0001D490BF0F3FB394607F120030A22184664
:1039F00006F03EFF0346002B24D118211448FFF7A0
:103A0000D9F80346A7F87E32114AB7F87E321383FD
:103A100007F51E7307F120001A220D4907F063FB1A
:103A20000346002B0CD1D7F878321A2B06D107F1B8
:103A30002003184607F029FE002304E0012302E0DA
:103A4000012300E00123184607F52077BD4680BD1D
:103A5000401A00202C0000200C25010880B584B0FD
:103A600000AF184B9B69174A43F001039361154B54
:103A70009B6903F00103BB60BB68124BDB69114A11
:103A800043F08053D3610F4BDB6903F080537B60BD
:103A90007B6800220F216FF0010000F00EFC0A4B42
:103AA0005B68FB60FB6823F0E063FB60FB6843F04E
:103AB0000073FB60044AFB68536000BF1037BD46CB
:103AC00080BD00BF001002400000014080B58AB0F8
:103AD00000AF786007F1140300221A605A609A6000
:103AE000DA607B681B684E4A934240F094804D4BED
:103AF0009B694C4A43F4805393614A4B9B6903F49E
:103B000080533B613B69474B9B69464A43F008033E
:103B10009361444B9B6903F00803FB60FB68282317
:103B20007B610223BB6103233B6207F11403194647
:103B30003D4800F0E1FF10237B610023BB610023BF
:103B4000FB6107F114031946374800F0D5FF374BE6
:103B50005B687B627B6A43F0E0637B627B6A43F075
:103B600001037B62314A7B6A5360314B314A1A60F0
:103B70002F4B00225A602E4B00229A602C4B802241
:103B8000DA602B4B00221A61294B00225A61284B24
:103B900000229A61264B4FF48052DA61244800F0EB
:103BA000B7FB0346002B01D0FEF7FEFF7B68204ADF
:103BB000DA641F4A7B6853621F4B204A1A601E4B0F
:103BC00010225A601C4B00229A601B4B8022DA6044
:103BD000194B00221A61184B00225A61164B002221
:103BE0009A61154B4FF48052DA61134800F090FB54
:103BF0000346002B01D0FEF7D7FF7B680E4A9A647C
:103C00000D4A7B68536200220521232000F055FBFA
:103C1000232000F06EFB00BF2837BD4680BD00BFEB
:103C20000030014000100240000C01400000014043
:103C3000640A00201C000240A80A00203000024054
:103C400080B58CB000AF786007F1200300221A60C5
:103C50005A609A60DA607B681B68464A934245D195
:103C6000454BDB69444A43F48013D361424BDB6923
:103C700003F48013FB61FB693F4B9B693E4A43F0B1
:103C8000100393613C4B9B6903F01003BB61BB695C
:103C9000394B9B69384A43F020039361364B9B694B
:103CA00003F020037B617B694FF480533B62022366
:103CB0007B620323FB6207F1200319462F4800F0C3
:103CC0001BFF04233B6200237B620023BB6207F1DE
:103CD000200319462A4800F00FFF00220521352055
:103CE00000F0EBFA352000F004FB3EE07B681B6837
:103CF000244A934239D1204B9B691F4A43F48043A5
:103D000093611D4B9B6903F480433B613B691A4BF4
:103D10009B69194A43F004039361174B9B6903F0B5
:103D20000403FB60FB684FF400733B6202237B6279
:103D30000323FB6207F120031946134800F0DCFE61
:103D40004FF480633B6200237B620023BB6207F178
:103D5000200319460C4800F0CFFE00220521252043
:103D600000F0ABFA252000F0C4FA00BF3037BD46A2
:103D700080BD00BF00500040001002400010014014
:103D800000140140003801400008014080B58CB0AB
:103D900000AF78600023BB6200237B62002387F8BA
:103DA0002F302E4B9B692D4A43F4006393612B4BBC
:103DB0009B6903F40063BB60BB6807F10C0207F169
:103DC00010031146184601F041FC01F02BFCB862CB
:103DD000BB6A234AA2FB03239B0C013B7B62214B62
:103DE000214A1A601F4B40F2E732DA601D4A7B6AB3
:103DF00053601C4B00221A611A4B00229A60194B27
:103E000000229A61174802F03FF8034687F82F30E6
:103E100097F82F30002B1BD1124802F08DF8034683
:103E200087F82F3097F82F30002B11D1192000F090
:103E300060FA7B680F2B08D800227968192000F0FF
:103E40003CFA0A4A7B68136002E0012387F82F30AE
:103E500097F82F3018463037BD4680BD001002401D
:103E600083DE1B435C1A0020002C01404000002030
:103E700080B400AFFEE780B400AFFEE780B400AFCF
:103E8000FEE780B400AFFEE780B400AFFEE780B489
:103E900000AF00BFBD4680BC7047000080B500AFDA
:103EA000024800F0EDFB00BF80BD00BF640A0020A7
:103EB00080B500AF024800F0E3FB00BF80BD00BF4B
:103EC000A80A002080B500AF024802F095F800BFB4
:103ED00080BD00BF5C1A002080B500AF024801F031
:103EE00029FE00BF80BD00BF0C0A002080B500AFD6
:103EF000024802F0FBFA00BF80BD00BF300B00207B
:103F000080B500AF024802F0F1FA00BF80BD00BFEB
:103F1000EC0A002080B400AF01231846BD4680BCE7
:103F2000704780B582B000AF786039600AF006FF54
:103F3000034616221A604FF0FF3318460837BD4675
:103F400080BD80B582B000AF78604FF0FF317868F7
:103F5000FFF7E7FFFEE780B586B000AFF860B96015
:103F60007A6000237B610AE0AFF300800146BB6802
:103F70005A1CBA60CAB21A707B6901337B617A69D4
:103F80007B689A42F0DB7B6818461837BD4680BDD7
:103F900080B586B000AFF860B9607A6000237B61BD
:103FA00009E0BB685A1CBA601B781846AFF3008062
:103FB0007B6901337B617A697B689A42F1DB7B68BC
:103FC00018461837BD4680BD80B483B000AF786016
:103FD0004FF0FF3318460C37BD4680BC704780B4A5
:103FE00083B000AF786039603B684FF400525A608C
:103FF000002318460C37BD4680BC704780B483B0A0
:1040000000AF7860012318460C37BD4680BC70476E
:1040100080B485B000AFF860B9607A6000231846BC
:104020001437BD4680BC704780B586B000AF78605D
:10403000144A154BD31A7B617B693B61134B1B6898
:10404000002B02D1114B124A1A60104B1A687B6880
:1040500013443A699A4207D20AF070FE03460C22D2
:104060001A604FF0FF3309E0084B1B68FB60074BF9
:104070001A687B681344054A1360FB6818461837B2
:10408000BD4680BD0000012000040000A41A0020ED
:104090003897002080B400AF00BFBD4680BC704799
:1040A0000C480D490D4A002302E0D458C450043393
:1040B000C4188C42F9D30A4A0A4C002301E0136069
:1040C0000432A242FBD3FFF7E5FF0AF033FFFDF70E
:1040D000D9FE7047000000207002002088300108DF
:1040E0007002002038970020FEE7000080B500AF86
:1040F000084B1B68074A43F010031360032000F0CD
:10410000D1F80F20FFF742FEFFF7A8FC0023184666
:1041100080BD00BF0020024080B400AF054B1B787B
:104120001A46054B1B681344034A136000BFBD4683
:1041300080BC704744000020A81A002080B400AF63
:10414000024B1B681846BD4680BC7047A81A002069
:1041500080B485B000AF78607B6803F00703FB6034
:104160000C4BDB68BB60BA684FF6FF031340BB60C3
:10417000FB681A02BB68134343F0BF6343F4003388
:10418000BB60044ABB68D36000BF1437BD4680BC27
:10419000704700BF00ED00E080B400AF044BDB6867
:1041A0001B0A03F007031846BD4680BC704700BFDA
:1041B00000ED00E080B483B000AF0346FB7197F9D7
:1041C0000730002B0BDBFB7903F01F02064997F940
:1041D00007305B09012000FA02F241F8232000BFFA
:1041E0000C37BD4680BC704700E100E080B483B06E
:1041F00000AF03463960FB7197F90730002B0ADBEB
:104200003B68DAB20C4997F907301201D2B20B447D
:1042100083F800230AE03B68DAB20849FB7903F02F
:104220000F03043B1201D2B20B441A7600BF0C37C5
:10423000BD4680BC704700BF00E100E000ED00E03B
:1042400080B489B000AFF860B9607A60FB6803F0B1
:104250000703FB61FB69C3F10703042B28BF042399
:10426000BB61FB690433062B02D9FB69033B00E009
:1042700000237B614FF0FF32BB6902FA03F3DA439C
:10428000BB681A407B699A404FF0FF317B6901FAA5
:1042900003F3D9437B680B40134318462437BD46CC
:1042A00080BC704780B582B000AF78607868FFF757
:1042B0004FFF00BF0837BD4680BD80B586B000AF58
:1042C0000346B9607A60FB7300237B61FFF764FFEC
:1042D00078617A68B9687869FFF7B2FF024697F9A2
:1042E0000F3011461846FFF781FF00BF1837BD4653
:1042F00080BD80B582B000AF0346FB7197F90730EF
:104300001846FFF757FF00BF0837BD4680BD0000C5
:1043100080B485B000AF78600023FB607B68002B21
:1043200001D1012359E07B681B681A462D4B9A4244
:104330000FD87B681B681A462B4B13442B4AA2FBF1
:1043400003231B099A007B681A647B68284ADA6396
:104350000EE07B681B681A46264B1344234AA2FBD7
:1043600003231B099A007B681A647B68224ADA637C
:104370007B68022283F821207B681B681B68FB6036
:10438000FB6823F47F5323F03003FB607B685A689B
:104390007B689B681A437B68DB681A437B681B69F0
:1043A0001A437B685B691A437B689B691A437B6885
:1043B000DB691343FA681343FB607B681B68FA6888
:1043C0001A607B6800229A637B68012283F82120AF
:1043D0007B68002283F82020002318461437BD464E
:1043E00080BC704707040240F8FFFDBFCDCCCCCCA9
:1043F00000000240F8FBFDBF0004024080B485B01D
:1044000000AF78600023FB737B6893F82130022BA8
:1044100008D07B6804229A637B68002283F82020FE
:10442000012320E07B681B681A687B681B6822F008
:104430000E021A607B681B681A687B681B6822F092
:1044400001021A607B681A6C7B68DB6B012101FA40
:1044500002F25A607B68012283F821207B680022E7
:1044600083F82020FB7B18461437BD4680BC70477C
:1044700080B584B000AF78600023FB737B6893F84D
:104480002130022B05D07B6804229A630123FB7341
:10449000D6E07B681B681A687B681B6822F00E02F6
:1044A0001A607B681B681A687B681B6822F001022F
:1044B0001A607B681B681A46644B9A4258D97B681D
:1044C0001B68634A93424FD07B681B68614A9342E2
:1044D00048D07B681B68604A934240D07B681B6869
:1044E0005E4A934238D07B681B685D4A934230D065
:1044F0007B681B685B4A934228D07B681B68534AE1
:10450000934220D07B681B68574A934219D07B683E
:104510001B68564A934212D07B681B68544A9342E8
:104520000AD07B681B68534A934202D14FF48053F0
:104530001BE04FF4803318E04FF4807315E0102334
:1045400013E0012311E04FF080730EE04FF480136D
:104550000BE04FF4803308E04FF4805305E04FF454
:10456000807302E0102300E00123434A536057E0C8
:104570007B681B68364A93424FD07B681B68354A7C
:10458000934248D07B681B68334A934240D07B6893
:104590001B68324A934238D07B681B68304A93428A
:1045A00030D07B681B682F4A934228D07B681B68F9
:1045B000264A934220D07B681B682B4A934219D02D
:1045C0007B681B68294A934212D07B681B68284A83
:1045D00093420AD07B681B68264A934202D14FF46B
:1045E00080531BE04FF4803318E04FF4807315E0E4
:1045F000102313E0012311E04FF080730EE04FF41D
:1046000080130BE04FF4803308E04FF4805305E053
:104610004FF4807302E0102300E00123174A536037
:104620007B68012283F821207B68002283F8202008
:104630007B685B6B002B03D07B685B6B786898476B
:10464000FB7B18461037BD4680BD00BF800002408E
:10465000080002401C0002403000024044000240BA
:10466000580002406C000240080402401C04024052
:1046700030040240440402400004024000000240B2
:1046800080B584B000AF78607B68DB6B1B68FB6033
:104690007B681B681B68BB607B681B6C04229A40AC
:1046A000FB681340002B00F0F180BB6803F00403AB
:1046B000002B00F0EB807B681B681B6803F0200375
:1046C000002B07D17B681B681A687B681B6822F087
:1046D00004021A607B681B681A465F4B9A4258D9DD
:1046E0007B681B685D4A93424FD07B681B685C4ABD
:1046F000934248D07B681B685A4A934240D07B68FB
:104700001B68594A934238D07B681B68574A9342CA
:1047100030D07B681B68564A934228D07B681B6860
:104720004D4A934220D07B681B68524A934219D06D
:104730007B681B68504A934212D07B681B684F4AC3
:1047400093420AD07B681B684D4A934202D14FF4D2
:1047500080431BE04FF4802318E04FF4806315E0A2
:10476000402313E0042311E04FF080630EE04FF488
:1047700080030BE04FF4802308E04FF4804305E012
:104780004FF4806302E0402300E004233D4A53607D
:1047900057E07B681B68314A93424FD07B681B68A7
:1047A0002F4A934248D07B681B682E4A934240D0E0
:1047B0007B681B682C4A934238D07B681B682B4A65
:1047C000934230D07B681B68294A934228D07B688B
:1047D0001B68214A934220D07B681B68254A93427C
:1047E00019D07B681B68244A934212D07B681B68EF
:1047F000224A93420AD07B681B68214A934202D125
:104800004FF480431BE04FF4802318E04FF48063A3
:1048100015E0402313E0042311E04FF080630EE025
:104820004FF480030BE04FF4802308E04FF4804303
:1048300005E04FF4806302E0402300E00423124AC5
:1048400053607B68DB6A002B00F036817B68DB6A93
:104850007868984730E100BF8000024008000240BD
:104860001C00024030000240440002405800024058
:104870006C000240080402401C0402403004024064
:104880004404024000040240000002407B681B6CAC
:1048900002229A40FB681340002B00F0DD80BB68C9
:1048A00003F00203002B00F0D7807B681B681B68B5
:1048B00003F02003002B0BD17B681B681A687B6810
:1048C0001B6822F00A021A607B68012283F821200B
:1048D0007B681B681A467B4B9A4258D97B681B68D9
:1048E000794A93424FD07B681B68784A934248D0FC
:1048F0007B681B68764A934240D07B681B68754A88
:10490000934238D07B681B68734A934230D07B68EF
:104910001B68724A934228D07B681B68694A93429D
:1049200020D07B681B686E4A934219D07B681B6855
:104930006C4A934212D07B681B686B4A93420AD040
:104940007B681B68694A934202D14FF400531BE015
:104950004FF4003318E04FF4007315E0202313E008
:10496000022311E04FF000730EE04FF400130BE050
:104970004FF4003308E04FF4005305E04FF40073A8
:1049800002E0202300E00223594A536057E07B688D
:104990001B684D4A93424FD07B681B684B4A934239
:1049A00048D07B681B684A4A934240D07B681B68AA
:1049B000484A934238D07B681B68474A934230D0BC
:1049C0007B681B68454A934228D07B681B683D4A38
:1049D000934220D07B681B68414A934219D07B6880
:1049E0001B68404A934212D07B681B683E4A934240
:1049F0000AD07B681B683D4A934202D14FF40053B2
:104A00001BE04FF4003318E04FF4007315E020234F
:104A100013E0022311E04FF000730EE04FF4001397
:104A20000BE04FF4003308E04FF4005305E04FF47F
:104A3000007302E0202300E002232E4A53607B68CB
:104A4000002283F820207B689B6A002B34D07B688F
:104A50009B6A786898472FE07B681B6C08229A4015
:104A6000FB681340002B28D0BB6803F00803002B21
:104A700023D07B681B681A687B681B6822F00E02D3
:104A80001A607B681A6C7B68DB6B012101FA02F209
:104A90005A607B6801229A637B68012283F8212097
:104AA0007B68002283F820207B681B6B002B04D0DE
:104AB0007B681B6B7868984700BF00BF1037BD4606
:104AC00080BD00BF80000240080002401C00024080
:104AD0003000024044000240580002406C00024096
:104AE000080402401C040240300402404404024016
:104AF000000402400000024080B48BB000AF786038
:104B0000396000237B6200233B6279E101227B6AEA
:104B100002FA03F3FB613B681B68FA691340BB614F
:104B2000BA69FB699A4240F068813B685B68964AC3
:104B300093425ED0944A934275D8944A934258D097
:104B4000924A93426FD8924A934252D0904A9342EB
:104B500069D8904A93424CD08E4A934263D88E4A89
:104B6000934246D08C4A93425DD8122B2AD8122BFE
:104B700059D801A252F823F0F34B0008CD4B00089E
:104B8000DF4B0008214C0008274C0008274C000888
:104B9000274C0008274C0008274C0008274C000829
:104BA000274C0008274C0008274C0008274C000819
:104BB000274C0008274C0008274C0008D54B00085C
:104BC000E94B0008754A934213D02CE03B68DB6840
:104BD0003B6229E03B68DB6804333B6224E03B68CE
:104BE000DB6808333B621FE03B68DB680C333B62E9
:104BF0001AE03B689B68002B02D104233B6213E060
:104C00003B689B68012B05D108233B627B68FA69EE
:104C10001A6109E008233B627B68FA695A6103E084
:104C200000233B6200E000BFBB69FF2B01D87B681B
:104C300001E07B6804337B61BB69FF2B02D87B6A90
:104C40009B0002E07B6A083B9B003B617B691A6822
:104C50000F213B6901FA03F3DB431A40396A3B69D0
:104C600001FA03F31A437B691A603B685B6803F03F
:104C70008053002B00F0C180494B9B69484A43F0A8
:104C800001039361464B9B6903F00103BB60BB6862
:104C9000444A7B6A9B08023352F82330FB607B6AEC
:104CA00003F003039B000F2202FA03F3DB43FA68CD
:104CB0001340FB607B683C4A93421FD07B683B4AB1
:104CC000934219D07B683A4A934213D07B68394AA1
:104CD00093420DD07B68384A934207D07B68374AAD
:104CE000934201D105230AE0062308E0042306E0ED
:104CF000032304E0022302E0012300E000237A6A98
:104D000002F0030292009340FA681343FB602549C6
:104D10007B6A9B080233FA6841F823203B685B6892
:104D200003F48033002B06D0254B1A682449BB6955
:104D300013430B6006E0224B1A68BB69DB43204932
:104D400013400B603B685B6803F40033002B06D014
:104D50001B4B5A681A49BB6913434B6006E0184B5A
:104D60005A68BB69DB43164913404B603B685B687C
:104D700003F48013002B25D0114B9A681049BB69AE
:104D800013438B6025E000BF00003210000031109B
:104D9000000022100000211000001210000011106D
:104DA000001002400000014000080140000C0140DA
:104DB000001001400014014000180140001C014097
:104DC00000040140154B9A68BB69DB43134913404B
:104DD0008B603B685B6803F40013002B06D00F4B1D
:104DE000DA680E49BB691343CB6006E00B4BDA6807
:104DF000BB69DB4309491340CB607B6A01337B62AB
:104E00003B681A687B6A22FA03F3002B7FF47EAEBC
:104E100000BF00BF2C37BD4680BC70470004014076
:104E200080B483B000AF78600B467B8013467B7004
:104E30007B78002B03D07A887B681A6103E07B883B
:104E40001A047B681A6100BF0C37BD4680BC7047EE
:104E500080B586B000AF78607B68002B01D101235C
:104E600072E27B681B6803F00103002B00F087806F
:104E7000924B5B6803F00C03042B0CD08F4B5B68E8
:104E800003F00C03082B12D18C4B5B6803F48033C6
:104E9000B3F5803F0BD1894B1B6803F40033002B23
:104EA0006CD07B685B68002B68D101234CE27B6887
:104EB0005B68B3F5803F06D1804B1B687F4A43F4A3
:104EC000803313602EE07B685B68002B0CD17B4B3A
:104ED0001B687A4A23F480331360784B1B68774A47
:104EE00023F4802313601DE07B685B68B3F5A02F7B
:104EF0000CD1724B1B68714A43F4802313606F4BD3
:104F00001B686E4A43F4803313600BE06B4B1B68E5
:104F10006A4A23F480331360684B1B68674A23F4A2
:104F2000802313607B685B68002B13D0FFF706F9C2
:104F3000386108E0FFF702F902463B69D31A642B97
:104F400001D9032300E25D4B1B6803F40033002BFF
:104F5000F0D014E0FFF7F2F8386108E0FFF7EEF860
:104F600002463B69D31A642B01D90323ECE1534B6E
:104F70001B6803F40033002BF0D100E000BF7B6816
:104F80001B6803F00203002B63D04C4B5B6803F0FB
:104F90000C03002B0BD0494B5B6803F00C03082B70
:104FA0001CD1464B5B6803F48033002B16D1434B76
:104FB0001B6803F00203002B05D07B681B69012BE3
:104FC00001D00123C0E13D4B1B6823F0F8027B6850
:104FD0005B69DB00394913430B603AE07B681B696E
:104FE000002B20D0364B01221A60FFF7A7F838615A
:104FF00008E0FFF7A3F802463B69D31A022B01D958
:105000000323A1E12D4B1B6803F00203002BF0D01A
:105010002A4B1B6823F0F8027B685B69DB00274999
:1050200013430B6015E0264B00221A60FFF786F849
:10503000386108E0FFF782F802463B69D31A022B79
:1050400001D9032380E11D4B1B6803F00203002BF1
:10505000F0D17B681B6803F00803002B3AD07B6813
:105060009B69002B19D0174B01221A60FFF766F8D5
:10507000386108E0FFF762F802463B69D31A022B59
:1050800001D9032360E10D4B5B6A03F00203002B9F
:10509000F0D0012000F00AFB1CE00A4B00221A604D
:1050A000FFF74CF838610FE0FFF748F802463B691C
:1050B000D31A022B08D9032346E100BF0010024097
:1050C0000000424280044242924B5B6A03F00203BA
:1050D000002BE9D17B681B6803F00403002B00F070
:1050E000A6800023FB758B4BDB6903F08053002BFC
:1050F0000DD1884BDB69874A43F08053D361854BE0
:10510000DB6903F08053BB60BB680123FB75824BF6
:105110001B6803F48073002B18D17F4B1B687E4AF9
:1051200043F480731360FFF709F8386108E0FFF774
:1051300005F802463B69D31A642B01D9032303E126
:10514000754B1B6803F48073002BF0D07B68DB6821
:10515000012B06D16F4B1B6A6E4A43F001031362A9
:105160002DE07B68DB68002B0CD16A4B1B6A694A17
:1051700023F001031362674B1B6A664A23F00403A2
:1051800013621CE07B68DB68052B0CD1614B1B6A4A
:10519000604A43F0040313625E4B1B6A5D4A43F0AE
:1051A000010313620BE05B4B1B6A5A4A23F00103B5
:1051B0001362584B1B6A574A23F0040313627B683F
:1051C000DB68002B15D0FEF7B9FF38610AE0FEF767
:1051D000B5FF02463B69D31A41F28832934201D9A6
:1051E0000323B1E04B4B1B6A03F00203002BEED00C
:1051F00014E0FEF7A3FF38610AE0FEF79FFF0246C6
:105200003B69D31A41F28832934201D903239BE0D0
:10521000404B1B6A03F00203002BEED1FB7D012BF8
:1052200005D13C4BDB693B4A23F08053D3617B685B
:10523000DB69002B00F08780364B5B6803F00C03C2
:10524000082B61D07B68DB69022B46D1334B0022EF
:105250001A60FEF773FF386108E0FEF76FFF024641
:105260003B69D31A022B01D903236DE0294B1B683C
:1052700003F00073002BF0D17B681B6AB3F5803F0D
:1052800008D1244B5B6823F400327B689B6821497A
:1052900013434B601F4B5B6823F474127B68196ADD
:1052A0007B685B6A0B431B4913434B601B4B01221A
:1052B0001A60FEF743FF386108E0FEF73FFF024641
:1052C0003B69D31A022B01D903233DE0114B1B6824
:1052D00003F00073002BF0D035E0104B00221A6071
:1052E000FEF72CFF386108E0FEF728FF02463B6915
:1052F000D31A022B01D9032326E0064B1B6803F0C7
:105300000073002BF0D11EE07B68DB69012B07D115
:10531000012319E00010024000700040600042428A
:105320000B4B5B68FB60FB6803F480327B681B6A95
:105330009A4206D1FB6803F470127B685B6A9A425A
:1053400001D0012300E0002318461837BD4680BD78
:105350000010024080B584B000AF786039607B688F
:10536000002B01D10123D0E06A4B1B6803F0070337
:105370003A689A4210D9674B1B6823F007026549C7
:105380003B6813430B60634B1B6803F007033A68E9
:105390009A4201D00123B8E07B681B6803F0020346
:1053A000002B20D07B681B6803F00403002B05D082
:1053B000594B5B68584A43F4E06353607B681B6851
:1053C00003F00803002B05D0534B5B68524A43F4AB
:1053D00060535360504B5B6823F0F0027B689B681E
:1053E0004D4913434B607B681B6803F00103002B9E
:1053F00040D07B685B68012B07D1474B1B6803F4E7
:105400000033002B15D101237FE07B685B68022B02
:1054100007D1414B1B6803F00073002B09D1012316
:1054200073E03D4B1B6803F00203002B01D1012305
:105430006BE0394B5B6823F003027B685B6836499D
:1054400013434B60FEF77AFEF8600AE0FEF776FE43
:105450000246FB68D31A41F28832934201D90323F2
:1054600053E02D4B5B6803F00C027B685B689B008C
:105470009A42EBD1274B1B6803F007033A689A4224
:1054800010D2244B1B6823F0070222493B681343C8
:105490000B60204B1B6803F007033A689A4201D067
:1054A000012332E07B681B6803F00403002B08D063
:1054B000194B5B6823F4E0627B68DB681649134391
:1054C0004B607B681B6803F00803002B09D0124B6C
:1054D0005B6823F460527B681B69DB000E49134351
:1054E0004B6000F021F802460B4B5B681B0903F090
:1054F0000F030A49CB5C22FA03F3094A1360094BF4
:105500001B681846FEF742FC002318461037BD46BC
:1055100080BD00BF00200240001002409427010817
:105520003C0000204000002090B48AB000AF294B1E
:105530003C1D0FCB84E80F0040F201233B80002389
:10554000FB610023BB6100237B6200237B6100239E
:105550003B62214B5B68FB61FB6903F00C03042B8E
:1055600002D0082B03D02BE01C4B3B622BE0FB69E5
:105570009B0C03F00F0328333B4413F8243C7B615E
:10558000FB6903F48033002B12D0134B5B685B0C78
:1055900003F0010328333B4413F8283CBB617B69CB
:1055A0000E4A03FB02F2BB69B2FBF3F37B6204E039
:1055B0007B690B4A02FB03F37B627B6A3B6202E07E
:1055C000084B3B6200BF3B6A18462837BD4690BC7B
:1055D000704700BF142501080010024040787D018B
:1055E00000093D0000127A0080B400AF024B1B6836
:1055F0001846BD4680BC70473C00002080B500AF17
:10560000FFF7F2FF0246054B5B681B0A03F0070336
:105610000349CB5C22FA03F3184680BD0010024018
:10562000A427010880B500AFFFF7DEFF0246054B57
:105630005B68DB0A03F007030349CB5C22FA03F340
:10564000184680BD00100240A427010880B483B032
:1056500000AF786039607B680F221A60114B5B687D
:1056600003F003027B685A600E4B5B6803F0F002A4
:105670007B689A600B4B5B6803F4E0627B68DA60DE
:10568000084B5B68DB0803F4E0627B681A61064B39
:105690001B6803F007023B681A6000BF0C37BD4669
:1056A00080BC7047001002400020024080B485B0EA
:1056B00000AF78600A4B1B680A4AA2FB03235B0A0F
:1056C0007A6802FB03F3FB6000BFFB685A1EFA60B6
:1056D000002BF9D100BF00BF1437BD4680BC704716
:1056E0003C000020D34D621080B582B000AF7860DE
:1056F0007B68002B01D1012376E07B685B6A002B7D
:1057000008D17B685B68B3F5827F09D07B68002293
:10571000DA6105E07B6800221A617B6800225A6129
:105720007B6800229A627B6893F85130DBB2002BD1
:1057300006D17B68002283F850207868FEF7C6F90E
:105740007B68022283F851207B681B681A687B689B
:105750001B6822F040021A607B685B6803F4827267
:105760007B689B6803F404431A437B68DB6803F49B
:1057700000631A437B681B6903F002031A437B68CA
:105780005B6903F001031A437B689B6903F40073B0
:105790001A437B68DB6903F038031A437B681B6A92
:1057A00003F0800342EA03017B689B6A03F4005222
:1057B0007B681B680A431A607B689B691A0C7B68CC
:1057C0001B6802F004025A607B681B68DA697B6818
:1057D0001B6822F40062DA617B6800225A657B68EC
:1057E000012283F85120002318460837BD4680BDAA
:1057F00080B58CB000AFF860B9607A607B8001231F
:10580000FB62002387F82B30FB6893F85030012BA4
:1058100001D102238AE1FB68012283F85020FEF7C0
:105820008DFC7862FB6893F8513087F82330FB6871
:105830005B68FB617B887B8397F82330012B0FD05B
:10584000FB69B3F5827F07D1FB689B68002B03D10E
:1058500097F82330042B03D0022387F82B305BE129
:10586000BB68002B05D07B68002B02D07B88002B07
:1058700003D1012387F82B304EE1FB6893F85130B8
:10588000DBB2042B03D0FB68052283F85120FB68B0
:1058900000225A65FB687A689A63FB687A88DA871F
:1058A000FB687A889A87FB68BA681A63FB687A880B
:1058B000DA86FB687A889A86FB6800221A64FB689D
:1058C00000225A64FB681B681B6803F04003402BEE
:1058D00007D0FB681B681A68FB681B6842F040022F
:1058E0001A60FB68DB68B3F5006F78D1FB685B6812
:1058F000002B02D07B8B012B66D1FB681B6B1A88B7
:10590000FB681B68DA60FB681B6B9A1CFB681A63F8
:10591000FB68DB8E9BB2013B9AB2FB68DA8653E0F0
:10592000FB681B689B6803F00203022B1BD1FB681A
:10593000DB8E9BB2002B16D0FB6A012B13D1FB68C8
:105940001B6B1A88FB681B68DA60FB681B6B9A1C70
:10595000FB681A63FB68DB8E9BB2013B9AB2FB6863
:10596000DA860023FB62FB681B689B6803F0010377
:10597000012B19D1FB68DB8F9BB2002B14D0FB6885
:105980001B68DA68FB689B6B92B21A80FB689B6BA2
:105990009A1CFB689A63FB68DB8F9BB2013B9AB24F
:1059A000FB68DA870123FB62FEF7C8FB02467B6ACD
:1059B000D31ABA6B9A4207D8BB6BB3F1FF3F03D03F
:1059C000032387F82B30A7E0FB68DB8E9BB2002B0C
:1059D000A6D1FB68DB8F9BB2002BA1D17CE0FB68DA
:1059E0005B68002B02D07B8B012B6BD1FB681A6BA1
:1059F000FB681B680C3312781A70FB681B6B5A1C0F
:105A0000FB681A63FB68DB8E9BB2013B9AB2FB68B2
:105A1000DA8657E0FB681B689B6803F00203022BE1
:105A20001CD1FB68DB8E9BB2002B17D0FB6A012BCD
:105A300014D1FB681A6BFB681B680C3312781A7060
:105A4000FB681B6B5A1CFB681A63FB68DB8E9BB2FE
:105A5000013B9AB2FB68DA860023FB62FB681B6895
:105A60009B6803F00103012B19D1FB68DB8F9BB20C
:105A7000002B14D0FB681B68DA68FB689B6BD2B202
:105A80001A70FB689B6B5A1CFB689A63FB68DB8F80
:105A90009BB2013B9AB2FB68DA870123FB62FEF7F7
:105AA0004DFB02467B6AD31ABA6B9A4203D8BB6B92
:105AB000B3F1FF3F02D1BB6B002B03D1032387F867
:105AC0002B3029E0FB68DB8E9BB2002BA2D1FB6858
:105AD000DB8F9BB2002B9DD17A6AB96BF86800F01E
