:020000040800F2
:10000000000001207D2E0008892C00088F2C00089C
:10001000952C00089B2C0008A12C00080000000073
:100020000000000000000000000000003170000827
:10003000A72C000800000000117200085972000887
:10004000C52E0008C52E0008C52E0008C52E0008C4
:10005000C52E0008C52E0008C52E0008C52E0008B4
:10006000C52E0008C52E0008C52E0008C52E0008A4
:10007000C52E0008C52E0008C52E0008C52E000894
:10008000C52E0008C52E0008C52E0008C52E000884
:10009000C52E0008C52E0008C52E0008C52E000874
:1000A000C52E0008B52C0008C52E0008C52E000876
:1000B000C52E0008C52E0008C52E0008C52E000854
:1000C000C52E0008C52E0008C52E0008C52E000844
:1000D000C52E0008C92C0008C52E0008C52E000832
:1000E000C52E0008C52E0008C52E0008000000001F
:1000F0000000000000000000000000000000000000
:100100000000000000000000C52E0008C52E0008F9
:10011000C52E0008DD2C0008C52E0008C52E0008DD
:10012000C52E0008C52E0008C52E0008C52E0008E3
:10013000C52E0008C52E0008C52E0008C52E0008D3
:10014000C52E0008C52E0008C52E0008C52E0008C3
:10015000000000000000000000000000000000009F
:10016000000000000000000000000000000000008F
:10017000000000000000000000000000000000007F
:10018000000000000000000000000000000000006F
:10019000000000000000000000000000000000005F
:1001A000000000000000000000000000000000004F
:1001B000000000000000000000000000000000003F
:1001C000000000000000000000000000000000002F
:1001D000000000000000000000000000000000001F
:0401E0005FF8E0F1F3
:1001F00010B5054C237833B9044B13B10448AFF361
:1002000000800123237010BDF801002000000000D1
:10021000B8AA000808B5034B1BB103490348AFF364
:10022000008008BD00000000FC010020B8AA000802
:10023000034613F8012B002AFBD1181A0138704726
:1002400081F0004102E000BF83F0004330B54FEA87
:1002500041044FEA430594EA050F08BF90EA020FF4
:100260001FBF54EA000C55EA020C7FEA645C7FEA87
:10027000655C00F0E2804FEA5454D4EB5555B8BFAA
:100280006D420CDD2C4480EA020281EA030382EA1B
:10029000000083EA010180EA020281EA0303362DAD
:1002A00088BF30BD11F0004F4FEA01314FF4801C80
:1002B0004CEA113102D0404261EB410113F0004F92
:1002C0004FEA03334CEA133302D0524263EB430349
:1002D00094EA050F00F0A780A4F10104D5F1200EE7
:1002E0000DDB02FA0EFC22FA05F2801841F1000142
:1002F00003FA0EF2801843FA05F359410EE0A5F116
:1003000020050EF1200E012A03FA0EFC28BF4CF046
:10031000020C43FA05F3C01851EBE37101F00045FC
:1003200007D54FF0000EDCF1000C7EEB00006EEB09
:100330000101B1F5801F1BD3B1F5001F0CD3490893
:100340005FEA30004FEA3C0C04F101044FEA4452EA
:1003500012F5800F80F09A80BCF1004F08BF5FEA71
:10036000500C50F1000041EB045141EA050130BD51
:100370005FEA4C0C404141EB0101013C28BFB1F563
:10038000801FE9D291F0000F04BF01460020B1FAAE
:1003900081F308BF2033A3F10B03B3F120020CDA81
:1003A0000C3208DD02F1140CC2F10C0201FA0CF05F
:1003B00021FA02F10CE002F11402D8BFC2F1200CC4
:1003C00001FA02F120FA0CFCDCBF41EA0C0190407A
:1003D000E41AA2BF01EB0451294330BD6FEA0404C3
:1003E0001F3C1CDA0C340EDC04F11404C4F12002AE
:1003F00020FA04F001FA02F340EA030021FA04F3C0
:1004000045EA030130BDC4F10C04C4F1200220FA16
:1004100002F001FA04F340EA0300294630BD21FA54
:1004200004F0294630BD94F0000F83F4801306BF1A
:1004300081F480110134013D4EE77FEA645C18BF0E
:100440007FEA655C29D094EA050F08BF90EA020FA5
:1004500005D054EA000C04BF1946104630BD91EA9D
:10046000030F1EBF0021002030BD5FEA545C05D1A0
:100470004000494128BF41F0004130BD14F58004DF
:100480003CBF01F5801130BD01F0004545F0FE4153
:1004900041F470014FF0000030BD7FEA645C1ABF88
:1004A000194610467FEA655C1CBF0B46024650EABF
:1004B000013406BF52EA033591EA030F41F40021EB
:1004C00030BD00BF90F0000F04BF0021704730B571
:1004D0004FF4806404F132044FF000054FF0000146
:1004E00050E700BF90F0000F04BF0021704730B507
:1004F0004FF4806404F1320410F0004548BF4042DC
:100500004FF000013EE700BF42004FEAE2014FEA30
:1005100031014FEA02701FBF12F07F4393F07F4F0B
:1005200081F06051704732F07F4208BF704793F00E
:100530007F4F04BF41F40021704730B54FF4607421
:1005400001F0004521F000411CE700BF50EA010224
:1005500008BF704730B54FF000050AE050EA0102CD
:1005600008BF704730B511F0004502D5404261EB3D
:1005700041014FF4806404F132045FEA915C3FF47E
:10058000D8AE4FF003025FEADC0C18BF03325FEA1B
:10059000DC0C18BF033202EBDC02C2F1200300FACC
:1005A00003FC20FA02F001FA03FE40EA0E0021FAF1
:1005B00002F11444BDE600BF70B54FF0FF0C4CF4DF
:1005C000E06C1CEA11541DBF1CEA135594EA0C0F91
:1005D00095EA0C0F00F0DEF82C4481EA030621EACC
:1005E0004C5123EA4C5350EA013518BF52EA033507
:1005F00041F4801143F4801338D0A0FB02CE4FF0B9
:100600000005E1FB02E506F00042E0FB03E54FF0E8
:100610000006E1FB03569CF0000F18BF4EF0010EE0
:10062000A4F1FF04B6F5007F64F5407404D25FEADC
:100630004E0E6D4146EB060642EAC62141EA55518F
:100640004FEAC52040EA5E504FEACE2EB4F1FD0CD1
:1006500088BFBCF5E06F1ED8BEF1004F08BF5FEA4F
:10066000500E50F1000041EB045170BD06F0004601
:1006700046EA010140EA020081EA0301B4EB5C04AE
:10068000C2BFD4EB0C0541EA045170BD41F48011A6
:100690004FF0000E013C00F3AB8014F1360FDEBFCB
:1006A000002001F0004170BDC4F10004203C35DAA7
:1006B0000C341BDC04F11404C4F1200500FA05F32A
:1006C00020FA04F001FA05F240EA020001F00042CB
:1006D00021F0004110EBD37021FA04F642EB060141
:1006E0005EEA430E08BF20EAD37070BDC4F10C046B
:1006F000C4F1200500FA04F320FA05F001FA04F22F
:1007000040EA020001F0004110EBD37041F100011A
:100710005EEA430E08BF20EAD37070BDC4F1200525
:1007200000FA05F24EEA020E20FA04F301FA05F28D
:1007300043EA020321FA04F001F0004121FA04F235
:1007400020EA020000EBD3705EEA430E08BF20EA05
:10075000D37070BD94F0000F0FD101F0004640003F
:1007600041EB010111F4801F08BF013CF7D041EAC1
:10077000060195F0000F18BF704703F000465200C5
:1007800043EB030313F4801F08BF013DF7D043EA96
:100790000603704794EA0C0F0CEA135518BF95EA4C
:1007A0000C0F0CD050EA410618BF52EA4306D1D1D3
:1007B00081EA030101F000414FF0000070BD50EAF2
:1007C000410606BF1046194652EA430619D094EA7C
:1007D0000C0F02D150EA013613D195EA0C0F05D166
:1007E00052EA03361CBF104619460AD181EA0301BA
:1007F00001F0004141F0FE4141F470014FF0000072
:1008000070BD41F0FE4141F4780170BD70B54FF00C
:10081000FF0C4CF4E06C1CEA11541DBF1CEA13558C
:1008200094EA0C0F95EA0C0F00F0A7F8A4EB05046E
:1008300081EA030E52EA03354FEA013100F0888065
:100840004FEA03334FF0805545EA131343EA12632E
:100850004FEA022245EA111545EA10654FEA0026E3
:100860000EF000419D4208BF964244F1FD0404F59C
:10087000407402D25B084FEA3202B61A65EB0305F8
:100880005B084FEA32024FF480104FF4002CB6EBB5
:10089000020E75EB030E22BFB61A754640EA0C0035
:1008A0005B084FEA3202B6EB020E75EB030E22BF75
:1008B000B61A754640EA5C005B084FEA3202B6EBB6
:1008C000020E75EB030E22BFB61A754640EA9C0075
:1008D0005B084FEA3202B6EB020E75EB030E22BF45
:1008E000B61A754640EADC0055EA060E18D04FEA03
:1008F000051545EA16754FEA06164FEAC30343EAA3
:1009000052734FEAC2025FEA1C1CC0D111F4801F6F
:100910000BD141EA00014FF000004FF0004CB6E768
:1009200011F4801F04BF01430020B4F1FD0C88BF07
:10093000BCF5E06F3FF6AFAEB5EB030C04BFB6EB12
:10094000020C5FEA500C50F1000041EB045170BD05
:100950000EF0004E4EEA113114EB5C04C2BFD4EB32
:100960000C0541EA045170BD41F480114FF0000EB6
:10097000013C90E645EA060E8DE60CEA135594EA32
:100980000C0F08BF95EA0C0F3FF43BAF94EA0C0F35
:100990000AD150EA01347FF434AF95EA0C0F7FF4AA
:1009A00025AF104619462CE795EA0C0F06D152EAFE
:1009B00003353FF4FDAE1046194622E750EA4106E2
:1009C00018BF52EA43067FF4C5AE50EA41047FF4F3
:1009D0000DAF52EA43057FF4EBAE12E74FF0FF3C58
:1009E00006E000BF4FF0010C02E000BF4FF0010C29
:1009F0004DF804CD4FEA410C7FEA6C5C4FEA430CA2
:100A000018BF7FEA6C5C1BD001B050EA410C0CBFF0
:100A100052EA430C91EA030F02BF90EA020F002052
:100A2000704710F1000F91EA030F58BF994208BFB9
:100A300090422CBFD8176FEAE37040F00100704776
:100A40004FEA410C7FEA6C5C02D150EA013C07D1CD
:100A50004FEA430C7FEA6C5CD6D152EA033CD3D018
:100A60005DF8040B704700BF8446104662468C4612
:100A70001946634600E000BF01B5FFF7B7FF002845
:100A800048BF10F1000F01BD4DF808EDFFF7F4FF6E
:100A90000CBF012000205DF808FB00BF4DF808EDF9
:100AA000FFF7EAFF34BF012000205DF808FB00BF1C
:100AB0004DF808EDFFF7E0FF94BF012000205DF83E
:100AC00008FB00BF4DF808EDFFF7CEFF94BF0120F3
:100AD00000205DF808FB00BF4DF808EDFFF7C4FFEC
:100AE00034BF012000205DF808FB00BF4FEA410C35
:100AF0007FEA6C5C02D150EA013C0AD14FEA430C18
:100B00007FEA6C5C02D152EA033C02D14FF0000054
:100B100070474FF0010070474A0011D212F50012E1
:100B200011D20DD56FF47873B3EB62520ED44FEA45
:100B3000C12343F0004343EA505323FA02F07047C5
:100B40004FF00000704750EA013002D14FF0FF3003
:100B500070474FF0000070474FEA4102B2F1E043A6
:100B600024BFB3F5001CDCF1FE5C0DD901F0004C94
:100B70004FEAC0024CEA5070B2F1004F40EB8300E4
:100B800008BF20F00100704711F0804F21D113F110
:100B90003872BCBF01F00040704741F480114FEA49
:100BA0005252C2F11802C2F1200C10FA0CF320FAD2
:100BB00002F018BF40F001004FEAC1234FEAD323EF
:100BC00003FA0CFC40EA0C0023FA02F34FEA430359
:100BD000CCE77FEA625307D150EA01331EBF4FF0E2
:100BE000FE4040F44000704701F0004040F0FE40FD
:100BF00040F40000704700BF80F0004002E000BFFA
:100C000081F0004142001FBF5FEA410392EA030FF7
:100C10007FEA226C7FEA236C6AD04FEA1262D2EB41
:100C20001363C1BFD218414048404140B8BF5B4246
:100C3000192B88BF704710F0004F40F4000020F0DF
:100C40007F4018BF404211F0004F41F4000121F0F5
:100C50007F4118BF494292EA030F3FD0A2F101023F
:100C600041FA03FC10EB0C00C3F1200301FA03F17D
:100C700000F0004302D5494260EB4000B0F5000FA0
:100C800013D3B0F1807F06D340084FEA310102F15F
:100C90000102FE2A51D2B1F1004F40EBC25008BF11
:100CA00020F0010040EA03007047490040EB0000DB
:100CB000013A28BFB0F5000FEDD2B0FA80FCACF1DC
:100CC000080CB2EB0C0200FA0CF0AABF00EBC25009
:100CD00052421843BCBFD0401843704792F0000FF7
:100CE00081F4000106BF80F400000132013BB5E74A
:100CF0004FEA41037FEA226C18BF7FEA236C21D0C0
:100D000092EA030F04D092F0000F08BF0846704724
:100D100090EA010F1CBF0020704712F07F4F04D1F2
:100D2000400028BF40F00040704712F100723CBF05
:100D300000F50000704700F0004343F0FE4040F42F
:100D4000000070477FEA226216BF08467FEA2363ED
:100D50000146420206BF5FEA412390EA010F40F4D8
:100D6000800070474FF0000304E000BF10F0004324
:100D700048BF40425FEA000C08BF704743F096430B
:100D800001464FF000001CE050EA010208BF704726
:100D90004FF000030AE000BF50EA010208BF7047AD
:100DA00011F0004302D5404261EB41015FEA010CC2
:100DB00002BF84460146002043F0B64308BFA3F1BA
:100DC0008053A3F50003BCFA8CF2083AA3EBC2539C
:100DD00010DB01FA02FC634400FA02FCC2F12002BB
:100DE000BCF1004F20FA02F243EB020008BF20F0F2
:100DF0000100704702F1200201FA02FCC2F1200258
:100E000050EA4C0021FA02F243EB020008BF20EA4C
:100E1000DC7070474FF0FF3C06E000BF4FF0010C64
:100E200002E000BF4FF0010C4DF804CD4FEA400244
:100E30004FEA41037FEA226C18BF7FEA236C11D08E
:100E400001B052EA530C18BF90EA010F58BFB2EB41
:100E5000030088BFC81738BF6FEAE17018BF40F0C1
:100E6000010070477FEA226C02D15FEA402C05D175
:100E70007FEA236CE4D15FEA412CE1D05DF8040BFA
:100E8000704700BF844608466146FFE70FB5FFF78D
:100E9000C9FF002848BF10F1000F0FBD4DF808ED45
:100EA000FFF7F4FF0CBF012000205DF808FB00BF36
:100EB0004DF808EDFFF7EAFF34BF012000205DF890
:100EC00008FB00BF4DF808EDFFF7E0FF94BF0120DD
:100ED00000205DF808FB00BF4DF808EDFFF7D2FFDA
:100EE00094BF012000205DF808FB00BF4DF808ED1D
:100EF000FFF7C8FF34BF012000205DF808FB00BFEA
:100F00004FEA40024FEA41037FEA226C02D15FEAD6
:100F1000402C08D17FEA236C02D15FEA412C02D138
:100F20004FF0000070474FF00100704753B94AB9C5
:100F3000002908BF00281CBF4FF0FF314FF0FF30E1
:100F400000F0AEB9ADF1080C6DE904CE00F03EF84A
:100F5000DDF804E0DDE9022304B0704738B505464A
:100F60000C460022002328462146FFF797FD28B9AA
:100F700028462146BDE8384000F00AB8284604F16A
:100F8000004100F005F8404261EB410138BD00BF6F
:100F9000D0B500220B4B06460F46FFF70DFBFFF7BF
:100FA000BBFD0446FFF78EFA0022074BFFF704FB58
:100FB00002460B4630463946FFF746F9FFF7ACFDCF
:100FC0002146D0BD0000F03D0000F0412DE9F04782
:100FD000089E0D4604468846002B4DD18A42944611
:100FE00068D9B2FA82F252B101FA02F3C2F12001D9
:100FF00020FA01F10CFA02FC41EA030894404FEA9E
:101000001C41B8FBF1F71FFA8CFE01FB178807FBA8
:101010000EF0230C43EA084398420AD91CEB030361
:1010200007F1FF3580F01E81984240F21B81023F9C
:1010300063441B1AB3FBF1F001FB103300FB0EFEFF
:10104000A4B244EA0344A6450AD91CEB040400F107
:10105000FF3380F00981A64540F2068164440238DE
:101060000021A4EB0E0440EA07401EB10023D44047
:10107000C6E90043BDE8F0878B4208D9002E00F096
:10108000EE800021C6E900050846BDE8F087B3FA06
:1010900083F100294AD1AB4202D3824200F2FC80A4
:1010A000841A65EB030301209846002EE2D0C6E9BE
:1010B0000048DFE702B9FFDEB2FA82F2002A40F010
:1010C0009180A1EB0C0001214FEA1C471FFA8CFE16
:1010D000B0FBF7F307FB1300250C45EA00450EFBB8
:1010E00003F0A84208D91CEB050503F1FF3802D232
:1010F000A84200F2CE8043462D1AB5FBF7F007FB5D
:1011000010550EFB00FEA4B244EA0544A64508D9DA
:101110001CEB040400F1FF3502D2A64500F2B680B4
:101120002846A4EB0E0440EA03409EE7C1F12007E5
:101130008B4022FA07FC4CEA030C25FA07FA4FEA27
:101140001C49BAFBF9F820FA07F309FB18AA8D40ED
:101150001FFA8CFE1D4300FA01F308FB0EF02C0C65
:1011600044EA0A44A04202FA01F20BD91CEB04043F
:1011700008F1FF3A80F08880A04240F28580A8F113
:1011800002086444241AB4FBF9F009FB104400FB84
:101190000EFEADB245EA0444A64508D91CEB040492
:1011A00000F1FF356CD2A6456AD90238644440EAA2
:1011B0000840A0FB0295A4EB0E04AC42C846AE4624
:1011C00056D353D0002E69D0B3EB080264EB0E0463
:1011D00022FA01F304FA07F71F43CC40C6E9007472
:1011E000002147E70CFA02FCC2F1200125FA01F3C5
:1011F0004FEA1C4720FA01F195400D43B3FBF7F18C
:1012000007FB11331FFA8CFE280C40EA034001FB58
:101210000EF3834204FA02F408D91CEB000001F13A
:10122000FF382FD283422DD902396044C01AB0FB57
:10123000F7F307FB1300ADB245EA004503FB0EF0E0
:10124000A84208D91CEB050503F1FF3816D2A842C5
:1012500014D9023B6544281A43EA014138E7314674
:10126000304607E72F46E4E61846F9E64B45A9D293
:10127000B9EB020865EB0C0E0138A3E74346EAE739
:10128000284694E74146D1E7D0467BE764440238DC
:1012900047E7023B65442FE7084606E73146E9E6A3
:1012A000704700BFB0B596B000AF7860786800F0C6
:1012B0002DFA204B07F148040FCB84E80F0007F10B
:1012C00048030021184604F0B8F802467B689A608B
:1012D000194B07F138040FCB84E80F0007F13803EE
:1012E0000021184604F0A9F802467B681A60134BE7
:1012F00007F128040FCB84E80F0007F12803002131
:10130000184604F09AF802467B685A600C4B07F1C5
:101310000C041D460FCD0FC495E8070084E80700B4
:1013200007F10C037968184604F027F800BF583716
:10133000BD46B0BD1CAB00082CAB00083CAB0008A0
:101340004CAB000880B582B000AF78600B46FB70F4
:101350007B689B7B012B5FD17B68B3F85A349BB2CF
:101360001A467B681344FA7883F85A20FB780A2BD4
:1013700033D17B68B3F85A349BB21A467B68134466
:10138000002283F85A207B6818687B68B3F85C34C5
:101390009BB20122194604F079F87B68B3F85A34FD
:1013A0009BB2B3F5407F07D97B68002283F85A24AB
:1013B000002283F85B2408E07B68B3F85A349BB2C0
:1013C00001339AB27B68A3F85A247B68B3F85A3485
:1013D0009AB27B68A3F85C2408E07B68B3F85A34BF
:1013E0009BB201339AB27B68A3F85A247B68B3F8A6
:1013F0005A349BB2B3F5806F1CD17B68002283F80E
:101400005A24002283F85B247B68B3F85A349AB2DA
:101410007B68A3F85C240DE07B68002283F85A24E3
:10142000002283F85B247B68B3F85A349AB27B6855
:10143000A3F85C2400BF0837BD4680BD80B584B0EA
:1014400000AF78607B681B6807F10A01002218462C
:1014500004F052FC0346002B08D07B685A337A898B
:101460001344FB60F968786800F000F9012003F08C
:10147000D0FFE7E780B586B000AF786039607B6861
:10148000596807F10C030022184604F03FF8FB6886
:10149000102B05D13B69DAB23B681A70002300E0DB
:1014A000012318461837BD4680BD000080B592B0B4
:1014B00000AFF8600B467A60FB7200237B640DE09E
:1014C000FB6858685C4B9A687B6C13441B7800225D
:1014D000194603F0DBFF7B6C01337B64564B9B6842
:1014E0001846FEF7A5FE02467B6C9A42E8D8142007
:1014F00003F08FFFFB7A032B41D0032B00F397807F
:10150000002B02D0012B74D091E000233B744A4B96
:101510001A6807F110031146184606F057F907F14B
:1015200010037968184606F051F907F110031846C0
:10153000FEF77EFE03461A4607F1100313443F4AA6
:101540001188927819809A7000233B640DE0FB6843
:10155000586807F110023B6C13441B7800221946AF
:1015600003F094FF3B6C01333B6407F11003184612
:10157000FEF75EFE02463B6C9A42E8D857E0002335
:101580003B742D4BDA6807F110031146184606F03C
:101590001DF907F110037968184606F017F907F1ED
:1015A00010031846FEF744FE03461A4607F11003DF
:1015B0001344224A1188927819809A700023FB63A1
:1015C0000DE0FB68586807F11002FB6B13441B78B1
:1015D0000022194603F05AFFFB6B0133FB6307F14E
:1015E00010031846FEF724FE0246FB6B9A42E8D829
:1015F0001DE00023BB630DE0FB6858680E4B5A6882
:10160000BB6B13441B780022194603F03FFFBB6BF2
:101610000133BB63084B5B681846FEF709FE0246C0
:10162000BB6B9A42E8D8FB6801225A7300BF00BF27
:101630004837BD4680BD00BF0000002068AB0008F1
:1016400080B582B000AF786039607B689B6801220A
:101650003968184604F050FB0346002B01D00023E4
:1016600000E0012318460837BD4680BD90B587B01D
:1016700000AF786039602249386806F027FF38618A
:1016800000237B6133E03869FEF7D2FD04461D4A32
:101690007B6952F823301846FEF7CAFD03469C4288
:1016A00022D10023FB60174A7B6952F82330194688
:1016B000386906F09AF8F860FB68002B14D0124ADB
:1016C0007B6952F82340F868FEF7B2FD0346013308
:1016D0003A68134419467868A0470346002B01D1A5
:1016E000002308E0012306E07B6901337B617B690D
:1016F000032BC8DD012318461C37BD4690BD00BF33
:101700006CAB0008240200201402002080B483B0D7
:1017100000AF78600E4B0F4A1A600D4B0E4A5A60AC
:101720000B4B0E4A9A600A4B0D4ADA600D4B0E4A7B
:101730001A600C4B0D4A5A600A4B0D4A9A60094BCD
:101740000C4ADA6000BF0C37BD4680BC704700BF52
:101750001402002079170008A1170008B917000823
:10176000F11800082402002070AB000878AB0008D4
:1017700084AB000890AB000880B582B000AF786001
:1017800039607B689B6801220021184603F07EFEC9
:101790007B6801225A73002318460837BD4680BD76
:1017A00080B483B000AF78603960002318460C37EE
:1017B000BD4680BC7047000080B586B000AF786041
:1017C00039604949386806F081FEF8600021F86800
:1017D00006F02AFE03461846FFF7C8FA02467B6861
:1017E000C3F80F204049002006F070FEF8607B68C7
:1017F00013330822F968184605F0B2FF3A49002071
:1018000006F064FEF8607B681B330622F968184610
:1018100005F0A6FF3449002006F058FEF8600022CB
:101820000021F86806F020FF0346DAB27B6883F8EF
:1018300021202D49002006F049FEF8600021F868BB
:1018400006F0F2FD03461846FFF790FA02467B6861
:10185000C3F8222000237B6118E02349002006F012
:1018600035FEF860FB68002B0DD000220021F868DF
:1018700006F0FAFE034699B27A687B690C335B0086
:1018800013440A46DA817B6901337B617B69112B42
:10189000E3DD00233B6117E01449002006F016FE4B
:1018A000F860FB68002B0CD000220021F86806F0DD
:1018B000DBFE0346D9B27A683B6913444A330A46D1
:1018C0001A703B6901333B613B690F2BE4DD7B6898
:1018D0009B6801220121184603F0D8FD0023184619
:1018E0001837BD4680BD00BF6CAB00089CAB00083C
:1018F00080B582B000AF786039607B689B68012258
:101900000321184603F0C2FD7B6802225A730023AC
:1019100018460837BD4680BD80B485B000AFF8607A
:10192000B9607A60FB68064A1A60BB68054A1A60AB
:101930007B6880221A6000BF1437BD4680BC7047A8
:101940003402002088020020B0B58EB000AF01F054
:10195000BBFA00F057F800F0F7F800F0A1F800F03B
:10196000C9F81D48FFF79EFC01221C491C4803F0E2
:10197000CEF81C4800F02EFD01221B491B4803F045
:10198000C6F852211A4800F0DEFB1A4B07F11C047E
:101990001D460FCD0FC495E8070084E8070007F146
:1019A0001C030021184603F0E8FC0346124A1360AA
:1019B000124B3C461D460FCD0FC495E8070084E846
:1019C00007003B460021184603F0D7FC03460C4AAB
:1019D000136003F0CBFCFEE718050020240500206F
:1019E000CC0400207809002084090020880400200D
:1019F000A40D0020B8AB000810050020D4AB0008EF
:101A00001405002080B594B000AF07F11803382208
:101A10000021184605F0B2FE3B1D00221A605A60F4
:101A20009A60DA601A610123BB614FF480333B6234
:101A300004237B620123FB620023FB610223BB635F
:101A40004FF48033FB634FF480133B6400237B64CB
:101A500007F11803184602F00FF80346002B01D0D7
:101A600000F04AFB0F237B600223BB600023FB6076
:101A700000233B6100237B613B1D0121184602F0DE
:101A800011FB0346002B01D000F036FB034B012273
:101A90001A6000BF5037BD4680BD00BF7000424293
:101AA00080B500AF114B124A1A60104B4FF4E1326F
:101AB0005A600E4B00229A600C4B0022DA600B4BEE
:101AC00000221A61094B0C225A61084B00229A61CC
:101AD000064B0022DA61054802F088FF0346002B1E
:101AE00001D000F009FB00BF80BD00BF88040020CA
:101AF0000050004080B500AF114B124A1A60104BE5
:101B00004FF416425A600E4B00229A600C4B002292
:101B1000DA600B4B00221A61094B0C225A61084B08
:101B200000229A61064B0022DA61054802F05EFF4E
:101B30000346002B01D000F0DFFA00BF80BD00BFDC
:101B4000CC0400200038014080B485B000AF144BB5
:101B50009B69134A43F020039361114B9B6903F087
:101B60002003FB60FB680E4B9B690D4A43F00403A6
:101B700093610B4B9B6903F00403BB60BB68084B8C
:101B80009B69074A43F010039361054B9B6903F07F
:101B900010037B607B6800BF1437BD4680BC704774
:101BA0000010024080B582B000AF78607B68114AB7
:101BB00093420BD1104B1B7B19460F48FFF7C2FB1A
:101BC00001220E490B4802F0A2FF0EE07B680C4A8E
:101BD00093420AD10B4B1B7B19460A4800F06DFC5F
:101BE00001220949064802F092FF00BF0837BD46AE
:101BF00080BD00BFCC040020180500202405002073
:101C000088040020780900208409002080B582B073
:101C100000AF78607B68124A93420CD11149124898
:101C2000FFF728FC0346002B15D101220D490C4873
:101C300002F029FF0FE07B680C4A93420BD10C495C
:101C40000C4800F0BAFC0346002B04D101220849DD
:101C5000064802F018FF00BF0837BD4680BD00BF30
:101C6000CC040020B935002018050020880400208D
:101C7000B835002078090020B0B59EB004AF786078
:101C8000B74800F09BFA002387F86730002387F8F5
:101C9000663007F14B031946B24800F0F1FC0346E9
:101CA000002B40F0228197F84B30062B00F2208168
:101CB00001A252F823F000BFAD1D0008711E0008FC
:101CC000971E0008BD1E0008591E0008651E00086A
:101CD000D51C0008A34A07F14C031732106851685D
:101CE00003C307F14C03083301229F49184605F04E
:101CF00037FD07F14C0309339A491A4601F11F03D6
:101D0000196811609B889380002387F85B30954B9E
:101D1000D3F80F3095491846FFF7E8F80346002B33
:101D20001AD0904BD3F8133090491846FFF7CAF8F1
:101D30000346002B10D0002201218D48FFF7B6FB8F
:101D40004FF47A7003F065FB07F14C031A46032148
:101D50008748FFF7ABFB23E0824BD3F80F30834972
:101D60001846FFF7AFF80346002B19D07D4BD3F888
:101D700013307E491846FFF7B9F80346002B0FD001
:101D8000002201217A48FFF791FB4FF47A7003F0AB
:101D900040FB07F14C031A4600217548FFF786FB0C
:101DA000002200216F4800F023FCA1E0704B5B7B18
:101DB000012B03D04FF4FA6003F02BFB6C4B5B7BE1
:101DC000012B40F09480674A07F14C0317321068EA
:101DD000516803C307F14C030833012262491846D6
:101DE00005F0BEFC07F14C0309335E491A4601F1C8
:101DF0001F03196811609B889380002387F85B306C
:101E0000574800F0B5FA574BD3F80F3057491846EA
:101E1000FFF758F80346002B07D007F14C031A468A
:101E200000215348FFF742FB10E04E4BD3F80F3030
:101E30004E491846FFF75AF80346002B06D007F123
:101E40004C031A4603214A48FFF730FB00220021C9
:101E5000444800F0CDFB4BE000220021414800F057
:101E6000C7FB45E0002200213E4800F0C1FB3FE0F7
:101E7000002201213E48FFF719FB4FF47A7003F06E
:101E8000C8FA3C49364800F0DDF900220021354807
:101E900000F0AEFB2CE0324BDB68FB60304B5B6844
:101EA0003B6107F10C031A4601212E4800F0A0FB0C
:101EB000002200212B4800F09BFB19E02E49284806
:101EC00000F0C0F9264BDB68FB60254B5B683B618B
:101ED00007F10C031A460121224800F089FB002279
:101EE0000021204800F084FB02E000BF00E000BFBA
:101EF00007F14B0319461E48FFF7A2FB0346002BD0
:101F000040F0988097F84B30002B02D0012B06D080
:101F100093E000220021134800F06AFB8DE097F85F
:101F20006630013387F8663097F86620134BA3FBC1
:101F30000213D9080B469B000B445B00D31A87F8A9
:101F400066300B4B5B7B022B76D197F86630012B0A
:101F500072D1002387F8673000233B6640E000BF62
:101F6000A40D002078090020F0AB00080000C84252
:101F700018050020AB0512FAFE34AB12CDCCCCCC48
:101F8000304A3B6E0C335B001344DA893B6E0133FD
:101F90002C490C335B000B44DB8913449AB23B6E33
:101FA000023328490C335B000B44DB89134499B29C
:101FB0003B6E0333234A0C335B001344DA8997F8F2
:101FC00067300A4492B25B0068333B4423F8542CD8
:101FD00097F86730013387F867303B6E04333B6610
:101FE0003B6E0C2BCCDD174BB3F84620154BB3F8EA
:101FF000483013449BB2BB83BB8A1C46FB8A1D46F8
:102000003B8B7A8BB98B07F12000029101920093F0
:102010002B4622460C4905F0B9FB07F12003184670
:10202000FEF706F9024607F120031946074800F0BB
:1020300068F801E000BF00E000BF012003F0E9F90B
:1020400027E600BF18050020F4AB0008A40D00200F
:1020500080B584B000AF78601A4B01229A731A4B96
:102060000A225A73194B93F83D30DBB2212B0FD063
:1020700007F10F031946144800F09FFA0346002B9E
:1020800006D107F10F0301221946104802F0FBFCAC
:102090000F4B93F83D30DBB2212B0FD007F10E032D
:1020A00019460848FFF7E6F90346002B06D107F169
:1020B0000E0301221946064802F0E5FC012003F058
:1020C000A8F9CFE71805002078090020880400202F
:1020D000CC04002080B582B000AF78607B681B68BC
:1020E000044A934201D100F005FF00BF0837BD4606
:1020F00080BD00BF002C014080B400AF72B600BFAD
:10210000FEE780B584B000AFF860B9607A60FB6824
:102110005A687B681344B3F5205F10D2FB6803F163
:102120001402FB685B6813447A68B968184605F0C6
:1021300017FBFB685A687B681A44FB685A6000BF4B
:102140001037BD4680BD80B483B000AF7860396081
:102150003B6803F58033DA027B689A607B689B6892
:1021600003F500627B68DA607B68002242F00602B9
:102170001A7400225A7400229A740022DA747B685E
:10218000002262F054021A70002242F005025A70D6
:10219000002242F012029A70002262F00502DA7008
:1021A0007B6800221A7100225A7100229A71002263
:1021B000DA7100BF0C37BD4680BC704780B582B075
:1021C00000AF786078687B689B680822194605F044
:1021D000C7FA7B681B68194A93421FD07B681B684B
:1021E000174A93421AD07B68002262F054021A7098
:1021F000002242F005025A70002242F012029A7048
:10220000002262F00502DA707B6800221A71002257
:102210005A7100229A710022DA710BE07B6803F197
:1022200014007B68DB6819467B685B681A4605F01A
:1022300097FA00BF00BF0837BD4680BDAB0512FA54
:10224000FE34AB122DE9B0438CB000AF786039603A
:102250007B683A681A607B689B687B6201F0F8F8DB
:1022600007F10C0300221A605A609A60DA607B6AF8
:102270007B617B681B69BB610023BB6007F10802BF
:1022800007F10C031146184601F0CAF9BB68B3F117
:10229000FF3F02D001F002F966E00023FB627B6899
:1022A0003B620823FB6124E03A6AFB6A13441B7813
:1022B0007B85FB6A0133FA699A420BD9FB6A0133C9
:1022C0003A6A13441B781B021AB2B7F92A30134337
:1022D0001BB27B857A6AFB6AD1187B8D00229846F7
:1022E000914642464B46012001F042F8FB6A023318
:1022F000FB62FA6AFB699A42D6D30023FB627B68D1
:10230000DB687B627B6814333B627B685B68FB61E4
:1023100024E03A6AFB6A13441B787B85FB6A01332D
:10232000FA699A420BD9FB6A01333A6A13441B7863
:102330001B021AB2B7F92A3013431BB27B857A6AA3
:10234000FB6AD1187B8D00221C46154622462B467F
:10235000012001F00DF8FB6A0233FB62FA6AFB69A7
:102360009A42D6D301F09AF83037BD46BDE8B08323
:1023700080B582B000AF78607B681B68134A9342D7
:1023800020D17B68002262F054021A70002242F0D1
:1023900005025A70002242F012029A70002262F086
:1023A0000502DA707B6800221A7100225A7100223D
:1023B0009A710022DA7106497868FFF743FF78685E
:1023C000FFF7FCFE00BF0837BD4680BDFE34AB12F0
:1023D000AB0512FAB0B596B000AF78607B684FF0ED
:1023E0000002C3F80F207B684FF00002C3F81320EF
:1023F000786800F08FF9204B07F148040FCB84E890
:102400000F0007F148030021184603F016F80246B2
:102410007B689A60194B07F138040FCB84E80F00F2
:1024200007F138030021184603F007F802467B68DD
:102430001A60134B07F128040FCB84E80F0007F153
:1024400028030021184602F0F8FF02467B685A6014
:102450000C4B07F10C041D460FCD0FC495E8070087
:1024600084E8070007F10C037968184602F085FF3D
:1024700000BF5837BD46B0BD1CAC00082CAC0008EE
:102480003CAC00084CAC000880B584B000AF78606C
:102490007B681B6807F10A010022184603F02CFC38
:1024A0000346002BF4D07B6825337A891344FB6004
:1024B000F968786800F0FAF8EAE780B582B000AF12
:1024C00078600B46FB707B685B7B0A2B62D1FB78E4
:1024D000002B5FD07B68B3F825349BB21A467B682B
:1024E0001344FA7883F82520FB780D2B33D17B68D1
:1024F000B3F825349BB21A467B681344002283F854
:1025000025207B6818687B68B3F827349BB20122CA
:10251000194602F0BBFF7B68B3F825349BB2B3F5D4
:10252000407F07D97B68002283F82524002283F8A6
:10253000262408E07B68B3F825349BB201339AB2B5
:102540007B68A3F825247B68B3F825349AB27B68AE
:10255000A3F8272408E07B68B3F825349BB2013345
:102560009AB27B68A3F825247B68B3F825349BB224
:10257000B3F5806F1DD17B68002283F825240022EB
:1025800083F826247B68B3F825349AB27B68A3F8D5
:1025900027240EE07B68002283F82524002283F89C
:1025A00026247B68B3F825349AB27B68A3F82724E5
:1025B00000BF00BF0837BD4680BD80B586B000AF04
:1025C000786039607B68596807F10C03002218466F
:1025D00002F09CFFFB68102B05D13B69DAB23B6827
:1025E0001A70002300E0012318461837BD4680BD4D
:1025F00080B588B000AFF8600B467A60FB72FB7A5A
:10260000002B02D0012B1BD034E00023FB610DE036
:10261000FB685868194B1A68FB6913441B78012240
:10262000194602F033FFFB690133FB61134B1B6852
:102630001846FDF7FDFD0246FB699A42E8D819E00D
:102640007B687B610023BB610EE0FB6858687B6997
:102650001A68BB6913441B784FF0FF32194602F029
:1026600015FFBB690133BB617B695A68BB699A423C
:10267000EBD800BF00BF2037BD4680BD1000002052
:1026800080B582B000AF786039607B689B680122BA
:102690003968184603F030FB0346002B01D00023B5
:1026A00000E0012318460837BD4680BD80B584B0E0
:1026B00000AF786039600023FB601EE00023BB6040
:1026C000124AFB6852F823301946386805F08DF835
:1026D000B860BB68002B0DD00D4AFB6852F8233060
:1026E0003968786898470346002B01D1002308E039
:1026F000012306E0FB680133FB60FB68082BDDDD8E
:10270000012318461037BD4680BD00BFE0350020CC
:10271000BC35002080B483B000AF78601D4B1E4AEA
:102720001A601C4B1D4A5A601A4B1D4A9A60194B7D
:102730001C4ADA60174B1C4A1A61164B1B4A5A6135
:10274000144B1B4A9A61134B1A4ADA61114B1A4A0D
:102750001A621A4B1A4A1A60184B1A4A5A60174BD7
:10276000194A9A60154B194ADA60144B184A1A61D3
:10277000124B184A5A61114B174A9A610F4B174A6C
:10278000DA610E4B164A1A6200BF0C37BD4680BC98
:10279000704700BFBC350020E527000875280008F9
:1027A00029290008992800084B29000861290008F8
:1027B0007729000899290008FD290008E035002044
:1027C00068AC000870AC000878AC000888AC000861
:1027D00090AC00089CAC0008A4AC0008ACAC0008AD
:1027E000B4AC000880B584B000AF786039601F4990
:1027F000386805F06BFEF8601D49002005F066FEA4
:10280000F8607B68D3F80F2013461A467B68C3F83C
:1028100013200021F86805F007FE02467B68C3F824
:102820000F201349002005F051FEF8607B68173334
:102830000822F968184604F093FF0D49002005F0BE
:1028400045FEF8607B681F330622F968184604F0DD
:1028500087FF7B689B6801220621184602F016FE5E
:10286000002318461037BD4680BD00BFBCAC000831
:10287000C0AC000880B582B000AF786039607B687A
:102880009B6801220121184602F000FE0023184631
:102890000837BD4680BD000080B584B000AF7860C9
:1028A00039601F49386805F011FEF8601D490020A5
:1028B00005F00CFEF8607B68D3F80F2013461A462B
:1028C0007B68C3F813200021F86805F0ADFD0246CF
:1028D0007B68C3F80F201349002005F0F7FDF8606E
:1028E0007B6817330822F968184604F039FF0D4950
:1028F000002005F0EBFDF8607B681F330622F968C5
:10290000184604F02DFF7B689B68012200211846C1
:1029100002F0BCFD002318461037BD4680BD00BF45
:10292000BCAC0008C0AC000880B582B000AF7860D5
:1029300039607B689B6801220321184602F0A6FDDE
:10294000002318460837BD4680BD80B483B000AF71
:1029500078603960002318460C37BD4680BC70474C
:1029600080B483B000AF78603960002318460C371C
:10297000BD4680BC704780B582B000AF78603960DA
:102980007B689B6801220221184602F07FFD00232C
:1029900018460837BD4680BD80B584B000AF78606A
:1029A00039601449386805F091FDF860124900203B
:1029B00005F08CFDF8607B6817330822F96818462B
:1029C00004F0CEFE0C49002005F080FDF8607B6825
:1029D0001F330622F968184604F0C2FE7B689B6824
:1029E00001220421184602F051FD00231846103739
:1029F000BD4680BDC4AC0008C8AC000880B582B03C
:102A000000AF786039607B689B6801220521184619
:102A100002F03CFD002318460837BD4680BD00008B
:102A200080B584B000AF184B9B69174A43F001038F
:102A30009361154B9B6903F00103BB60BB68124BAC
:102A4000DB69114A43F08053D3610F4BDB6903F01C
:102A500080537B607B6800220F216FF0010000F043
:102A60001AFB0A4B5B68FB60FB6823F0E063FB60CA
:102A7000FB6843F08063FB60044AFB68536000BF5F
:102A80001037BD4680BD00BF00100240000001406D
:102A900080B58CB000AF786007F1200300221A6087
:102AA0005A609A60DA607B681B68464A934245D157
:102AB000454BDB69444A43F48013D361424BDB69E5
:102AC00003F48013FB61FB693F4B9B693E4A43F073
:102AD000100393613C4B9B6903F01003BB61BB691E
:102AE000394B9B69384A43F020039361364B9B690D
:102AF00003F020037B617B694FF480533B62022328
:102B00007B620323FB6207F1200319462F4800F084
:102B10002FFE04233B6200237B620023BB6207F18C
:102B2000200319462A4800F023FE00220521352003
:102B300000F0B1FA352000F0CAFA3EE07B681B686D
:102B4000244A934239D1204B9B691F4A43F4804366
:102B500093611D4B9B6903F480433B613B691A4BB6
:102B60009B69194A43F004039361174B9B6903F077
:102B70000403FB60FB684FF400733B6202237B623B
:102B80000323FB6207F120031946134800F0F0FD10
:102B90004FF480633B6200237B620023BB6207F13A
:102BA000200319460C4800F0E3FD002205212520F2
:102BB00000F071FA252000F08AFA00BF3037BD46D8
:102BC00080BD00BF005000400010024000100140D6
:102BD00000140140003801400008014080B58CB06D
:102BE00000AF78600023FB620023BB62002279689B
:102BF000192000F050FA192000F069FA1E4B9B6969
:102C00001D4A43F4006393611B4B9B6903F400630B
:102C1000FB60FB6807F1100207F114031146184628
:102C200001F03AFC01F024FCF862FB6A134AA2FBB3
:102C300003239B0C013BBB62114B124A1A60104BE1
:102C400040F2E732DA600E4ABB6A53600C4B002256
:102C50001A610B4B00229A60094801F06BFC034695
:102C6000002B04D1064801F0BDFC034600E001231F
:102C700018463037BD4680BD0010024083DE1B433E
:102C800004360020002C014080B400AFFEE780B481
:102C900000AFFEE780B400AFFEE780B400AFFEE710
:102CA00080B400AFFEE780B400AF00BFBD4680BC7B
:102CB0007047000080B500AF024801F0EDFC00BF96
:102CC00080BD00BF0436002080B500AF024801F08F
:102CD0004FFF00BF80BD00BFCC04002080B500AF17
:102CE000024801F045FF00BF80BD00BF88040020FE
:102CF00080B400AF01231846BD4680BC704780B544
:102D000082B000AF7860396004F000FD03461622FF
:102D10001A604FF0FF3318460837BD4680BD80B5B6
:102D200082B000AF78604FF0FF317868FFF7E7FFBF
:102D3000FEE780B586B000AFF860B9607A60002326
:102D40007B610AE0AFF300800146BB685A1CBA60A1
:102D5000CAB21A707B6901337B617A697B689A42D7
:102D6000F0DB7B6818461837BD4680BD80B586B05D
:102D700000AFF860B9607A6000237B6109E0BB684E
:102D80005A1CBA601B781846AFF300807B69013388
:102D90007B617A697B689A42F1DB7B681846183759
:102DA000BD4680BD80B483B000AF78604FF0FF3384
:102DB00018460C37BD4680BC704780B483B000AF66
:102DC000786039603B684FF400525A60002318461F
:102DD0000C37BD4680BC704780B483B000AF7860CC
:102DE000012318460C37BD4680BC704780B485B0BF
:102DF00000AFF860B9607A60002318461437BD460A
:102E000080BC704780B586B000AF7860144A154B1F
:102E1000D31A7B617B693B61134B1B68002B02D18A
:102E2000114B124A1A60104B1A687B6813443A69B6
:102E30009A4207D204F06AFC03460C221A604FF053
:102E4000FF3309E0084B1B68FB60074B1A687B687F
:102E50001344054A1360FB6818461837BD4680BD09
:102E600000000120000400004C36002090C000202B
:102E700080B400AF00BFBD4680BC7047002103E0B6
:102E80000B4B5B58435004310A480B4B42189A4293
:102E9000F6D30A4A02E0002342F8043B084B9A4268
:102EA000F9D3FFF7E5FF04F037FCFEF74DFD70475F
:102EB000A8B1000800000020F8010020F80100205F
:102EC0008CC00020FEE7000080B500AF084B1B68F7
:102ED000074A43F010031360032000F0D1F80020EC
:102EE000FFF77CFEFFF79CFD0023184680BD00BF66
:102EF0000020024080B400AF054B1B781A46054BFA
:102F00001B681344034A136000BFBD4680BC704772
:102F10001C0000205036002080B400AF024B1B681C
:102F20001846BD4680BC70475036002080B485B03E
:102F300000AF78607B6803F00703FB600C4BDB6835
:102F4000BB60BA684FF6FF031340BB60FB681A0210
:102F5000BB68134343F0BF6343F40033BB60044AD0
:102F6000BB68D36000BF1437BD4680BC704700BF4C
:102F700000ED00E080B400AF044BDB681B0A03F0F7
:102F800007031846BD4680BC704700BF00ED00E057
:102F900080B483B000AF0346FB7197F90730002B74
:102FA0000BDBFB7903F01F02064997F907305B0939
:102FB000012000FA02F241F8232000BF0C37BD4681
:102FC00080BC704700E100E080B483B000AF0346EE
:102FD0003960FB7197F90730002B0ADB3B68DAB2E6
:102FE0000C4997F907301201D2B20B4483F8002341
:102FF0000AE03B68DAB20849FB7903F00F03043BAF
:103000001201D2B20B441A7600BF0C37BD4680BC09
:10301000704700BF00E100E000ED00E080B489B03F
:1030200000AFF860B9607A60FB6803F00703FB61EA
:10303000FB69C3F10703042B28BF0423BB61FB69B1
:103040000433062B02D9FB69033B00E000237B61BC
:103050004FF0FF32BB6902FA03F3DA43BB681A4050
:103060007B699A404FF0FF317B6901FA03F3D94342
:103070007B680B40134318462437BD4680BC70471D
:1030800080B582B000AF78607868FFF74FFF00BF6F
:103090000837BD4680BD80B586B000AF0346B96035
:1030A0007A60FB7300237B61FFF764FF78617A68C5
:1030B000B9687869FFF7B2FF024697F90F301146F9
:1030C0001846FFF781FF00BF1837BD4680BD80B5A9
:1030D00082B000AF0346FB7197F907301846FFF73F
:1030E00057FF00BF0837BD4680BD80B485B000AF34
:1030F00078600023FB737B6893F82130022B08D0A3
:103100007B6804229A637B68002283F820200123D5
:1031100020E07B681B681A687B681B6822F00E023F
:103120001A607B681B681A687B681B6822F00102C2
:103130001A607B681A6C7B68DB6B012101FA02F272
:103140005A607B68012283F821207B68002283F883
:103150002020FB7B18461437BD4680BC704700001A
:1031600080B584B000AF78600023FB737B6893F870
:103170002130022B05D07B6804229A630123FB7364
:10318000D6E07B681B681A687B681B6822F00E0219
:103190001A607B681B681A687B681B6822F0010252
:1031A0001A607B681B681A46644B9A4258D97B6840
:1031B0001B68634A93424FD07B681B68614A934205
:1031C00048D07B681B68604A934240D07B681B688C
:1031D0005E4A934238D07B681B685D4A934230D088
:1031E0007B681B685B4A934228D07B681B68534A04
:1031F000934220D07B681B68574A934219D07B6862
:103200001B68564A934212D07B681B68544A93420B
:103210000AD07B681B68534A934202D14FF4805313
:103220001BE04FF4803318E04FF4807315E0102357
:1032300013E0012311E04FF080730EE04FF4801390
:103240000BE04FF4803308E04FF4805305E04FF477
:10325000807302E0102300E00123434A536057E0EB
:103260007B681B68364A93424FD07B681B68354A9F
:10327000934248D07B681B68334A934240D07B68B6
:103280001B68324A934238D07B681B68304A9342AD
:1032900030D07B681B682F4A934228D07B681B681C
:1032A000264A934220D07B681B682B4A934219D050
:1032B0007B681B68294A934212D07B681B68284AA6
:1032C00093420AD07B681B68264A934202D14FF48E
:1032D00080531BE04FF4803318E04FF4807315E007
:1032E000102313E0012311E04FF080730EE04FF440
:1032F00080130BE04FF4803308E04FF4805305E077
:103300004FF4807302E0102300E00123174A53605A
:103310007B68012283F821207B68002283F820202B
:103320007B685B6B002B03D07B685B6B786898478E
:10333000FB7B18461037BD4680BD00BF80000240B1
:10334000080002401C0002403000024044000240DD
:10335000580002406C000240080402401C04024075
:1033600030040240440402400004024000000240D5
:10337000F0B587B000AFF860B960C7E9002301235A
:10338000FB750023BB7500237B752F4B1B7E012B28
:1033900001D1022354E02C4B01221A764CF250301A
:1033A00000F0A8F80346FB75FB7D002B44D1FB68B9
:1033B000012B02D101237B7507E0FB68022B02D1B0
:1033C00002237B7501E004237B750023BB752DE090
:1033D000BB7D5A00BB6802EB030CBB7D1901D7E92A
:1033E0000023C1F12006A1F1200022FA01F403FA22
:1033F00006F6344323FA00F0044323FA01F5A3B29E
:103400001946604600F05AF84CF2503000F072F85D
:103410000346FB750D4B1B690C4A23F00103136136
:10342000FB7D002B07D1BB7D0133BB75BA7D7B7D56
:103430009A42CDD300E000BF034B00221A76FB7DF9
:1034400018461C37BD46F0BD58360020002002400B
:1034500080B483B000AF0023FB710D4B1B6903F0F8
:103460008003002B0DD00A4B0A4A5A60084B0A4AC7
:103470005A60074B1B6903F08003002B01D0012326
:10348000FB71FB7918460C37BD4680BC704700BF06
:103490000020024023016745AB89EFCD80B400AF27
:1034A000054B1B69044A43F080031361002318464F
:1034B000BD4680BC704700BF0020024080B483B08E
:1034C00000AF78600B467B80084B0022DA61084B26
:1034D0001B69074A43F0010313617B687A881A80ED
:1034E00000BF0C37BD4680BC704700BF5836002077
:1034F0000020024080B584B000AF7860FFF70CFD7B
:10350000F86010E07B68B3F1FF3F0CD07B68002BC4
:1035100007D0FFF701FD0246FB68D31A7A689A428A
:1035200001D2032325E0154BDB6803F00103002BD8
:10353000E8D1124BDB6803F02003002B02D00F4BC5
:103540002022DA600D4BDB6803F01003002B0BD157
:103550000A4BDB6903F00103002B05D1074BDB6845
:1035600003F00403002B03D000F00AF8012300E06D
:10357000002318461037BD4680BD00BF0020024022
:1035800080B483B000AF00237B60234BDB6803F083
:103590001003002B09D0214BDB6943F002031F4AC3
:1035A000D3617B6843F010037B601B4BDB6803F047
:1035B0000403002B09D0194BDB6943F00103174AC0
:1035C000D3617B6843F004037B60134BDB6903F03A
:1035D0000103002B0BD0114BDB6943F004030F4AAE
:1035E000D3610D4BDB690C4A23F00103D3617B6887
:1035F00040F20112934206D1074BDB69064A23F0E1
:103600000103D36102E0044A7B68D36000BF0C373A
:10361000BD4680BC704700BF0020024058360020E5
:1036200080B584B000AF786039600123FB7300235C
:10363000BB602F4B1B7E012B01D1022353E02C4B8F
:1036400001221A767B681B68022B16D14CF250308F
:10365000FFF750FF0346002B41D1012000F04CF84A
:103660004CF25030FFF746FF0346FB73214B1B69BA
:10367000204A23F00403136131E04CF25030FFF78D
:1036800039FF0346002B2AD13B684FF0FF321A6006
:103690007B689B68BB6019E0B86800F049F84CF2A1
:1036A0005030FFF727FF0346FB73124B1B69114A8B
:1036B00023F002031361FB7B002B03D03B68BA6845
:1036C0001A600CE0BB6803F50063BB607B68DB68D5
:1036D000DA027B689B681344BA689A42DCD3044BD5
:1036E00000221A76FB7B18461037BD4680BD00BF0E
:1036F000583600200020024080B483B000AF7860CC
:10370000094B0022DA61094B1B69084A43F00403A4
:103710001361064B1B69054A43F04003136100BF68
:103720000C37BD4680BC7047583600200020024050
:1037300080B483B000AF78600B4B0022DA610B4B92
:103740001B690A4A43F002031361084A7B6853610C
:10375000064B1B69054A43F04003136100BF0C3759
:10376000BD4680BC704700BF583600200020024094
:1037700080B48BB000AF7860396000237B62002397
:103780003B6269E101227B6A02FA03F3FB613B6859
:103790001B68FA691340BB61BA69FB699A4240F041
:1037A00058813B685B689A4A93425ED0984A93423C
:1037B00075D8984A934258D0964A93426FD8964A01
:1037C000934252D0944A934269D8944A93424CD03F
:1037D000924A934263D8924A934246D0904A934287
:1037E0005DD8122B2AD8122B59D801A252F823F0F7
:1037F0006B38000845380008573800089938000829
:103800009F3800089F3800089F3800089F3800083C
:103810009F3800089F3800089F3800089F3800082C
:103820009F3800089F3800089F3800089F3800081C
:103830009F3800084D38000861380008794A9342E3
:1038400013D02CE03B68DB683B6229E03B68DB6817
:1038500004333B6224E03B68DB6808333B621FE0D3
:103860003B68DB680C333B621AE03B689B68002BCB
:1038700002D104233B6213E03B689B68012B05D116
:1038800008233B627B68FA691A6109E008233B62FE
:103890007B68FA695A6103E000233B6200E000BFE5
:1038A000BB69FF2B01D87B6801E07B6804337B6137
:1038B000BB69FF2B02D87B6A9B0002E07B6A083B56
:1038C0009B003B617B691A680F213B6901FA03F396
:1038D000DB431A40396A3B6901FA03F31A437B69F7
:1038E0001A603B685B6803F08053002B00F0B180E6
:1038F0004D4B9B694C4A43F0010393614A4B9B69D2
:1039000003F00103BB60BB68484A7B6A9B08023333
:1039100052F82330FB607B6A03F003039B000F2205
:1039200002FA03F3DB43FA681340FB607B68404A0A
:10393000934213D07B683F4A93420DD07B683E4A46
:10394000934207D07B683D4A934201D1032306E0AE
:10395000042304E0022302E0012300E000237A6A4A
:1039600002F0030292009340FA681343FB602F4970
:103970007B6A9B080233FA6841F823203B685B6846
:1039800003F48033002B06D02D4B1A682C49BB69F9
:1039900013430B6006E02A4B1A68BB69DB432849D6
:1039A00013400B603B685B6803F40033002B06D0C8
:1039B000234B5A682249BB6913434B6006E0204BF6
:1039C0005A68BB69DB431E4913404B603B685B6828
:1039D00003F48013002B06D0194B9A681849BB6971
:1039E00013438B6006E0164B9A68BB69DB431449AE
:1039F00013408B603B685B6803F40013002B21D0FD
:103A00000F4BDA680E49BB691343CB6021E000BF5E
:103A100000003210000031100000221000002110C0
:103A200000001210000011100010024000000140C0
:103A300000080140000C014000100140001401404A
:103A4000000401400B4BDA68BB69DB4309491340B2
:103A5000CB607B6A01337B623B681A687B6A22FA1F
:103A600003F3002B7FF48EAE00BF00BF2C37BD46A2
:103A700080BC70470004014080B586B000AF78601C
:103A80007B68002B01D1012304E37B681B6803F0F2
:103A90000103002B00F08780924B5B6803F00C035E
:103AA000042B0CD08F4B5B6803F00C03082B12D156
:103AB0008C4B5B6803F48033B3F5803F0BD1894BAB
:103AC0001B6803F40033002B6CD07B689B68002BD1
:103AD00068D10123DEE27B689B68B3F5803F06D1A5
:103AE000804B1B687F4A43F4803313602EE07B6871
:103AF0009B68002B0CD17B4B1B687A4A23F48033E4
:103B00001360784B1B68774A23F4802313601DE011
:103B10007B689B68B3F5A02F0CD1724B1B68714A70
:103B200043F4802313606F4B1B686E4A43F4803369
:103B300013600BE06B4B1B686A4A23F480331360FD
:103B4000684B1B68674A23F4802313607B689B687B
:103B5000002B13D0FFF7E0F9386108E0FFF7DCF93C
:103B600002463B69D31A642B01D9032392E25D4BD1
:103B70001B6803F40033002BF0D014E0FFF7CCF9FE
:103B8000386108E0FFF7C8F902463B69D31A642B95
:103B900001D903237EE2534B1B6803F40033002B4F
:103BA000F0D100E000BF7B681B6803F00203002B2C
:103BB00063D04C4B5B6803F00C03002B0BD0494BDC
:103BC0005B6803F00C03082B1CD1464B5B6803F4C5
:103BD0008033002B16D1434B1B6803F00203002BEC
:103BE00005D07B685B69012B01D0012352E23D4B7C
:103BF0001B6823F0F8027B689B69DB00394913439B
:103C00000B603AE07B685B69002B20D0364B0122C9
:103C10001A60FFF781F9386108E0FFF77DF9024685
:103C20003B69D31A022B01D9032333E22D4B1B68C6
:103C300003F00203002BF0D02A4B1B6823F0F8029C
:103C40007B689B69DB00274913430B6015E0264B1B
:103C500000221A60FFF760F9386108E0FFF75CF9AD
:103C600002463B69D31A022B01D9032312E21D4BF2
:103C70001B6803F00203002BF0D17B681B6803F084
:103C80000803002B3AD07B68DB69002B19D0174B57
:103C900001221A60FFF740F9386108E0FFF73CF9AC
:103CA00002463B69D31A022B01D90323F2E10D4BE3
:103CB0005B6A03F00203002BF0D0012000F01CFC33
:103CC0001CE00A4B00221A60FFF726F938610FE06A
:103CD000FFF722F902463B69D31A022B08D90323C6
:103CE000D8E100BF0010024000004242800442427E
:103CF0009B4B5B6A03F00203002BE9D17B681B68D6
:103D000003F00403002B00F0A6800023FB75944B06
:103D1000DB6903F08053002B0DD1914BDB69904A96
:103D200043F08053D3618E4BDB6903F08053BB605B
:103D3000BB680123FB758B4B1B6803F48073002B5E
:103D400018D1884B1B68874A43F480731360FFF7D0
:103D5000E3F8386108E0FFF7DFF802463B69D31A61
:103D6000642B01D9032395E17E4B1B6803F4807318
:103D7000002BF0D07B681B69012B06D1784B1B6AA6
:103D8000774A43F0010313622DE07B681B69002B27
:103D90000CD1734B1B6A724A23F001031362704B00
:103DA0001B6A6F4A23F0040313621CE07B681B69E3
:103DB000052B0CD16A4B1B6A694A43F0040313625A
:103DC000674B1B6A664A43F0010313620BE0644BC6
:103DD0001B6A634A23F001031362614B1B6A604A4A
:103DE00023F0040313627B681B69002B15D0FFF7D7
:103DF00093F838610AE0FFF78FF802463B69D31A5F
:103E000041F28832934201D9032343E1544B1B6AA8
:103E100003F00203002BEED014E0FFF77DF83861C9
:103E20000AE0FFF779F802463B69D31A41F288327B
:103E3000934201D903232DE1494B1B6A03F002038E
:103E4000002BEED1FB7D012B05D1454BDB69444AAC
:103E500023F08053D3617B68DB6A002B00F08C80F9
:103E60003F4B5B6803F48033B3F5803F0ED13C4B8E
:103E70005B6803F00C03082B08D1394BDB6A03F4B1
:103E80008033B3F5803F01D1012303E17B68DB6A16
:103E9000022B4ED1324B1B6803F08053002B09D00C
:103EA0002F4BDB6A03F0F0027B685B6B9A4201D018
:103EB0000123EFE02C4B00221A60FFF72DF8386148
:103EC00008E0FFF729F802463B69D31A642B01D9B1
:103ED0000323DFE0224B1B6803F00063002BF0D1CB
:103EE0001F4BDB6A23F0F0027B685B6B1C491343BA
:103EF000CB621B4BDB6A23F470627B681B6B184937
:103F00001343CB62184B01221A60FFF705F83861A2
:103F100008E0FFF701F802463B69D31A642B01D988
:103F20000323B7E00E4B1B6803F00063002BF0D0B7
:103F300022E00B4BDB6A0A4A23F48033D3620A4B3C
:103F400000221A60FEF7E8FF38610FE0FEF7E4FF99
:103F500002463B69D31A642B08D903239AE000BFB9
:103F60000010024000700040680042424B4B1B684A
:103F700003F00063002BE9D17B681B6A002B00F083
:103F80008880464B5B6803F00C03082B68D07B6885
:103F90001B6A022B4DD1424B00221A60FEF7BCFF78
:103FA000386108E0FEF7B8FF02463B69D31A022BDE
:103FB00001D903236EE0394B1B6803F00073002B1B
:103FC000F0D17B685B6AB3F5803F0FD1334BDA6A7F
:103FD0007B685B6831491343CB62304BDB6A23F06B
:103FE0000F027B68DB682D491343CB622B4B5B6868
:103FF00023F474127B68596A7B689B6A0B432749D8
:1040000013434B60264B01221A60FEF785FF38618F
:1040100008E0FEF781FF02463B69D31A022B01D963
:10402000032337E01D4B1B6803F00073002BF0D017
:104030002FE01B4B00221A60FEF76EFF386108E08C
:10404000FEF76AFF02463B69D31A022B01D903230C
:1040500020E0124B1B6803F00073002BF0D118E036
:104060007B681B6A012B01D1012313E00B4B5B68BA
:10407000FB60FB6803F480327B685B6A9A4206D17E
:10408000FB6803F470127B689B6A9A4201D001239B
:1040900000E0002318461837BD4680BD00100240DE
:1040A0006000424280B584B000AF786039607B68C0
:1040B000002B01D10123D0E06A4B1B6803F00703FA
:1040C0003A689A4210D9674B1B6823F0070265498A
:1040D0003B6813430B60634B1B6803F007033A68AC
:1040E0009A4201D00123B8E07B681B6803F0020309
:1040F000002B20D07B681B6803F00403002B05D045
:10410000594B5B68584A43F4E06353607B681B6813
:1041100003F00803002B05D0534B5B68524A43F46D
:1041200060535360504B5B6823F0F0027B689B68E0
:104130004D4913434B607B681B6803F00103002B60
:1041400040D07B685B68012B07D1474B1B6803F4A9
:104150000033002B15D101237FE07B685B68022BC5
:1041600007D1414B1B6803F00073002B09D10123D9
:1041700073E03D4B1B6803F00203002B01D10123C8
:104180006BE0394B5B6823F003027B685B68364960
:1041900013434B60FEF7C0FEF8600AE0FEF7BCFE7A
:1041A0000246FB68D31A41F28832934201D90323B5
:1041B00053E02D4B5B6803F00C027B685B689B004F
:1041C0009A42EBD1274B1B6803F007033A689A42E7
:1041D00010D2244B1B6823F0070222493B6813438B
:1041E0000B60204B1B6803F007033A689A4201D02A
:1041F000012332E07B681B6803F00403002B08D026
:10420000194B5B6823F4E0627B68DB681649134353
:104210004B607B681B6803F00803002B09D0124B2E
:104220005B6823F460527B681B69DB000E49134313
:104230004B6000F021F802460B4B5B681B0903F052
:104240000F030A49CB5C22FA03F3094A1360094BB6
:104250001B681846FEF7C2FC002318461037BD46FF
:1042600080BD00BF0020024000100240F4AC0008F6
:1042700014000020180000202DE9F04F99B000AF85
:10428000664B07F134040FCB07C42380644B07F15E
:1042900024040FCB84E80F0000237B6500233B65DB
:1042A0000023FB650023FB640023BB650023BB6484
:1042B00000237B645B4B5B687B657B6D03F00C03C9
:1042C000042B02D0082B03D09FE0574BBB659FE027
:1042D0007B6D9B0C03F00F03403307F12002134466
:1042E00013F82C3CFB647B6D03F48033002B00F04F
:1042F00084804C4BDB6A03F00F03403307F120024C
:10430000134413F83C3C3B65464BDB6A03F48033B3
:10431000002B60D0434BDB6A1B0903F00F03013312
:10432000BB64404BDB6A1B0A03F00F0302337B6460
:104330007B6C00223B617A61FB6C0022BB61FA61FD
:10434000D7E904342246D7E9060184460CFB02F281
:10435000C7E906018C4618462146034603FB0CF3C9
:1043600013440246B969A2FB01894B4499462E4B7E
:1043700003FB09F2002303FB08F313442A4AA8FBBA
:1043800002AB5B449B46BB6C0022BB60FA603B6D9A
:1043900000223B607A60D7E902342246D7E90089DF
:1043A000414601FB02F2CC4618462146034603FB78
:1043B0000CF3134402464146A2FB015633441E4609
:1043C0002A46334650465946FCF7B0FD02460B4696
:1043D0001346FB6507E0FB6C134A03FB02F23B6DDF
:1043E000B2FBF3F3FB6597F841301A46FB6C93423E
:1043F00008D1FB6D5B08FB6504E0FB6C0B4A02FB1C
:1044000003F3FB65FB6DBB6502E0094BBB6500BFB9
:10441000BB6D18466437BD46BDE8F08FCCAC0008D4
:10442000DCAC00080010024040787D0100093D002E
:1044300000127A0080B400AF024B1B681846BD46DC
:1044400080BC70471400002080B500AFFFF7F2FF7A
:104450000246054B5B681B0A03F007030349CB5C6C
:1044600022FA03F3184680BD0010024004AD000894
:1044700080B500AFFFF7DEFF0246054B5B68DB0A45
:1044800003F007030349CB5C22FA03F3184680BD0F
:104490000010024004AD000880B483B000AF786023
:1044A00039607B680F221A60114B5B6803F00302CE
:1044B0007B685A600E4B5B6803F0F0027B689A6081
:1044C0000B4B5B6803F4E0627B68DA60084B5B6867
:1044D000DB0803F4E0627B681A61064B1B6803F09B
:1044E00007023B681A6000BF0C37BD4680BC7047AE
:1044F000001002400020024080B485B000AF786018
:104500000A4B1B680A4AA2FB03235B0A7A6802FB78
:1045100003F3FB6000BFFB685A1EFA60002BF9D161
:1045200000BF00BF1437BD4680BC70471400002098
:10453000D34D621080B582B000AF78607B68002BED
:1045400001D1012341E07B6893F83D30DBB2002BC1
:1045500006D17B68002283F83C20786800F039F8A7
:104560007B68022283F83D207B681A687B680433ED
:104570001946104600F0BCF97B68012283F84620FA
:104580007B68012283F83E207B68012283F83F206C
:104590007B68012283F840207B68012283F8412058
:1045A0007B68012283F842207B68012283F8432044
:1045B0007B68012283F844207B68012283F8452030
:1045C0007B68012283F83D20002318460837BD464A
:1045D00080BD80B483B000AF786000BF0C37BD46AB
:1045E00080BC704780B485B000AF78607B6893F87A
:1045F0003D30DBB2012B01D001233FE07B6802227A
:1046000083F83D207B681B68DA687B681B6842F092
:104610000102DA607B681B681B4A934213D07B68F7
:104620001B68B3F1804F0ED07B681B68174A93421A
:1046300009D07B681B68164A934204D07B681B68CC
:10464000144A934211D17B681B689B6803F00703EF
:10465000FB60FB68062B10D07B681B681A687B68C0
:104660001B6842F001021A6007E07B681B681A6849
:104670007B681B6842F001021A6000231846143759
:10468000BD4680BC704700BF002C014000040040C4
:1046900000080040000C004080B582B000AF786098
:1046A0007B681B681B6903F00203022B22D17B6825
:1046B0001B68DB6803F00203022B1BD17B681B68BD
:1046C0006FF002021A617B6801221A777B681B680F
:1046D0009B6903F00303002B03D0786800F0EDF82A
:1046E00005E0786800F0E0F8786800F0EFF87B68A3
:1046F00000221A777B681B681B6903F00403042BF4
:1047000022D17B681B68DB6803F00403042B1BD1F8
:104710007B681B686FF004021A617B6802221A77BB
:104720007B681B689B6903F44073002B03D0786897
:1047300000F0C3F805E0786800F0B6F8786800F09B
:10474000C5F87B6800221A777B681B681B6903F039
:104750000803082B22D17B681B68DB6803F0080381
:10476000082B1BD17B681B686FF008021A617B68FD
:1047700004221A777B681B68DB6903F00303002BB4
:1047800003D0786800F099F805E0786800F08CF8BC
:10479000786800F09BF87B6800221A777B681B68BA
:1047A0001B6903F01003102B22D17B681B68DB68A8
:1047B00003F01003102B1BD17B681B686FF01002F5
:1047C0001A617B6808221A777B681B68DB6903F42F
:1047D0004073002B03D0786800F06FF805E078682C
:1047E00000F062F8786800F071F87B6800221A77B0
:1047F0007B681B681B6903F00103012B0ED17B68EA
:104800001B68DB6803F00103012B07D17B681B6881
:104810006FF001021A617868FDF75CFC7B681B6829
:104820001B6903F08003802B0ED17B681B68DB685B
:1048300003F08003802B07D17B681B686FF0800238
:104840001A61786800F0C9F87B681B681B6903F07F
:104850004003402B0ED17B681B68DB6803F04003EC
:10486000402B07D17B681B686FF040021A617868A3
:1048700000F035F87B681B681B6903F02003202BD0
:104880000ED17B681B68DB6803F02003202B07D167
:104890007B681B686FF020021A61786800F094F85A
:1048A00000BF0837BD4680BD80B483B000AF7860DC
:1048B00000BF0C37BD4680BC704780B483B000AFEA
:1048C000786000BF0C37BD4680BC704780B483B0B1
:1048D00000AF786000BF0C37BD4680BC704780B425
:1048E00083B000AF786000BF0C37BD4680BC704716
:1048F00080B485B000AF786039607B681B68FB606E
:104900007B682D4A93420FD07B68B3F1804F0BD068
:104910007B682A4A934207D07B68294A934203D096
:104920007B68284A934208D1FB6823F07003FB6040
:104930003B685B68FA681343FB607B681E4A9342DE
:104940000FD07B68B3F1804F0BD07B681B4A93423A
:1049500007D07B681A4A934203D07B68194A934276
:1049600008D1FB6823F44073FB603B68DB68FA689E
:104970001343FB60FB6823F080023B685B691343D1
:10498000FB607B68FA681A603B689A687B68DA6249
:104990003B681A687B689A627B68074A934203D136
:1049A0003B681A697B681A637B6801225A6100BF01
:1049B0001437BD4680BC7047002C01400004004005
:1049C00000080040000C004080B483B000AF786065
:1049D00000BF0C37BD4680BC704780B483B000AFC9
:1049E000786000BF0C37BD4680BC704780B582B090
:1049F00000AF78607B68002B01D101233FE07B682A
:104A000093F83D30DBB2002B06D17B68002283F89F
:104A10003C207868FEF73CF87B68242283F83D2030
:104A20007B681B68DA687B681B6822F40052DA60D6
:104A3000786800F0E5FB7B681B681A697B681B6877
:104A400022F490421A617B681B685A697B681B6874
:104A500022F02A025A617B681B68DA687B681B684F
:104A600042F40052DA607B6800221A647B682022DC
:104A700083F83D207B68202283F83E2000231846DF
:104A80000837BD4680BD80B485B000AFF860B9601E
:104A90001346FB80FB6893F83D30DBB2202B30D10E
:104AA000BB68002B02D0FB88002B01D1012329E039
:104AB000FB6893F83C30012B01D1022322E0FB6814
:104AC000012283F83C20FB68BA681A62FB68FA8806
:104AD0009A84FB68FA88DA84FB6800221A64FB680F
:104AE000212283F83D20FB68002283F83C20FB68EC
:104AF0001B68DA68FB681B6842F08002DA600023FA
:104B000000E0022318461437BD4680BC704780B5CC
:104B100084B000AFF860B9601346FB80FB6893F87F
:104B20003E30DBB2202B1DD1BB68002B02D0FB88AE
:104B3000002B01D1012316E0FB6893F83C30012BD8
:104B400001D102230FE0FB68012283F83C20FB68BF
:104B500000221A63FB881A46B968F86800F0C6F9A3
:104B6000034600E0022318461037BD4680BD000012
:104B700080B58AB000AF78607B681B681B687B6279
:104B80007B681B68DB683B627B681B685B69FB6159
:104B90000023BB6100237B617B6A03F00F03BB61D1
:104BA000BB69002B0DD17B6A03F02003002B08D0DA
:104BB0003B6A03F02003002B03D0786800F076FAFC
:104BC0007BE1BB69002B00F0B180FB6903F00103BE
:104BD000002B05D13B6A03F49073002B00F0A680F4
:104BE0007B6A03F00103002B0AD03B6A03F4807355
:104BF000002B05D07B681B6C43F001027B681A64B4
:104C00007B6A03F00403002B0AD0FB6903F0010365
:104C1000002B05D07B681B6C43F002027B681A6492
:104C20007B6A03F00203002B0AD0FB6903F0010347
:104C3000002B05D07B681B6C43F004027B681A6470
:104C40007B6A03F00803002B0FD03B6A03F02003BC
:104C5000002B04D1FB6903F00103002B05D07B6816
:104C60001B6C43F008027B681A647B681B6C002B8A
:104C700000F01E817B6A03F02003002B07D03B6A03
:104C800003F02003002B02D0786800F00FFA7B6855
:104C90001B685B6903F04003002B14BF0123002352
:104CA000DBB27B617B681B6C03F00803002B02D135
:104CB0007B69002B31D0786800F051F97B681B6864
:104CC0005B6903F04003002B23D07B681B685A69A3
:104CD0007B681B6822F040025A617B689B6B002B4B
:104CE00013D07B689B6B764A5A637B689B6B184634
:104CF000FEF736FA0346002B16D07B689B6B5B6B86
:104D00007A68926B104698470EE0786800F0DAF8FF
:104D10000AE0786800F0D6F806E0786800F0D2F88B
:104D20007B6800221A64C3E000BFC1E07B681B6B94
:104D3000012B40F0A1807B6A03F01003002B00F0F0
:104D40009B803B6A03F01003002B00F0958000234A
:104D5000FB607B681B681B68FB607B681B685B688B
:104D6000FB60FB687B681B685B6903F04003002BFA
:104D70004ED07B689B6B1B685B683B823B8A002B39
:104D800000F098807B689B8D3A8A9A4280F09280EE
:104D90007B683A8ADA857B689B6B9B69202B2BD0DA
:104DA0007B681B68DA687B681B6822F48072DA60B3
:104DB0007B681B685A697B681B6822F001025A6194
:104DC0007B681B685A697B681B6822F040025A6145
:104DD0007B68202283F83E207B6800221A637B6870
:104DE0001B68DA687B681B6822F01002DA607B6857
:104DF0009B6B1846FEF779F97B689A8D7B68DB8D93
:104E00009BB2D31A9BB21946786800F064F851E05F
:104E10007B689A8D7B68DB8D9BB2D31A7B827B6823
:104E2000DB8D9BB2002B47D07B8A002B44D07B6864
:104E30001B68DA687B681B6822F49072DA607B6812
:104E40001B685A697B681B6822F001025A617B6803
:104E5000202283F83E207B6800221A637B681B684F
:104E6000DA687B681B6822F01002DA607B8A1946D8
:104E7000786800F030F81FE07B6A03F08003002BB5
:104E800008D03B6A03F08003002B03D0786800F061
:104E9000A6F812E07B6A03F04003002B0DD03B6ABA
:104EA00003F04003002B08D0786800F0E7F804E036
:104EB00000BF02E000BF00E000BF2837BD4680BD54
:104EC000B74F000880B483B000AF786000BF0C37E4
:104ED000BD4680BC704780B483B000AF78600B469D
:104EE0007B8000BF0C37BD4680BC704780B485B066
:104EF00000AFF860B9601346FB80FB68BA689A623D
:104F0000FB68FA889A85FB68FA88DA85FB680022D4
:104F10001A64FB68222283F83E20FB68002283F893
:104F20003C20FB681B68DA68FB681B6842F48072EF
:104F3000DA60FB681B685A69FB681B6842F0010273
:104F40005A61FB681B68DA68FB681B6842F0200244
:104F5000DA60002318461437BD4680BC704780B421
:104F600083B000AF78607B681B68DA687B681B6879
:104F700022F49072DA607B681B685A697B681B6850
:104F800022F001025A617B681B6B012B07D17B6801
:104F90001B68DA687B681B6822F01002DA607B68A5
:104FA000202283F83E207B6800221A6300BF0C3762
:104FB000BD4680BC704780B584B000AF78607B6828
:104FC0005B6AFB60FB680022DA85FB680022DA84FA
:104FD000F868FFF777FF00BF1037BD4680BD80B48B
:104FE00085B000AF78607B6893F83D30DBB2212B51
:104FF0003ED17B689B68B3F5805F14D17B681B69E9
:10500000002B10D17B681B6AFB60FB681B881A466B
:105010007B681B68C2F308025A607B681B6A9A1C93
:105020007B681A6208E07B681B6A591C7A68116207
:105030001A787B681B685A607B68DB8C9BB2013BEB
:105040009BB27A681946D184002B0FD17B681B680C
:10505000DA687B681B6822F08002DA607B681B6874
:10506000DA687B681B6842F04002DA60002300E0E7
:10507000022318461437BD4680BC704780B582B005
:1050800000AF78607B681B68DA687B681B6822F079
:105090004002DA607B68202283F83D207868FCF7C4
:1050A000B5FD002318460837BD4680BD80B586B0E3
:1050B00000AF78607B6893F83E30DBB2222B40F083
:1050C00099807B689B68B3F5805F17D17B681B690B
:1050D000002B13D100237B617B689B6A3B617B685B
:1050E0001B685B689BB2C3F308039AB23B691A80E2
:1050F0007B689B6A9A1C7B689A6226E07B689B6A45
:105100007B6100233B617B689B68B3F5805F07D0C0
:105110007B689B68002B0AD17B681B69002B06D13A
:105120007B681B685B68DAB27B691A7008E07B6891
:105130001B685B68DBB203F07F03DAB27B691A702D
:105140007B689B6A5A1C7B689A627B68DB8D9BB28A
:10515000013B9BB27A681946D185002B48D17B6808
:105160001B68DA687B681B6822F02002DA607B68C3
:105170001B68DA687B681B6822F48072DA607B68DF
:105180001B685A697B681B6822F001025A617B68C0
:10519000202283F83E207B681B6B012B23D17B6888
:1051A00000221A637B681B68DA687B681B6822F040
:1051B0001002DA607B681B681B6803F01003102B79
:1051C0000AD10023FB607B681B681B68FB607B685F
:1051D0001B685B68FB60FB687B689B8D1946786881
:1051E000FFF779FE02E07868FCF7DCFC002302E0C0
:1051F000002300E0022318461837BD4680BD00009A
:1052000080B584B000AF78607B681B681B6923F4AD
:1052100040517B68DA687B681B680A431A617B68C7
:105220009A687B681B691A437B685B691343BB60A0
:105230007B681B68DB6823F4B05323F00C037A68A7
:105240001268B9680B43D3607B681B685B6923F401
:1052500040717B689A697B681B680A435A617B6866
:105260001B682C4A934203D1FFF702F9F86002E071
:10527000FFF7EAF8F860FA6813469B0013449A00B7
:105280001A447B685B689B00B2FBF3F3224AA2FBE3
:1052900003235B091901FA6813469B0013449A0023
:1052A0001A447B685B689B00B2FBF3F21A4BA3FBCA
:1052B00002035B09642000FB03F3D31A1B013233A2
:1052C000154AA2FB03235B0903F0F0031944FA68B3
:1052D00013469B0013449A001A447B685B689B004A
:1052E000B2FBF3F20C4BA3FB02035B09642000FB4F
:1052F00003F3D31A1B013233074AA2FB03235B09D2
:1053000003F00F027B681B680A449A6000BF1037E5
:10531000BD4680BD003801401F85EB5180B485B08B
:1053200000AF0346FB800023FB60B7F90630842BF7
:1053300005D0B7F90620FB6813440333FB60FB6814
:1053400018461437BD4680BC704780B483B000AFA8
:10535000EFF305837B607B68002B14BF01230023E0
:10536000DBB218460C37BD4680BC704780B500AF35
:1053700001F0F0F80023184680BDF0B589B004AF05
:10538000786039607B685B69002B20D07B689B6903
:10539000002B1CD07B685C687B681D687B681E697D
:1053A0007B68B3F908301846FFF7B8FF01467B6801
:1053B0005B697A6892690292019300913B68324678
:1053C0002946204600F008FF0346FB601CE07B688E
:1053D0005C687B681D687B681B699EB27B68B3F95B
:1053E00008301846FFF79AFF024607F10C030193B5
:1053F00000923B6832462946204600F049FF0346AA
:10540000012B01D0002300E0FB6818461437BD468D
:10541000F0BD80B584B000AF78607B68FB60FB684E
:10542000002B01D0FB6800E00123184601F05EF874
:10543000002318461037BD4680BD90B585B002AF39
:10544000786039607B689B68002B11D07B68DB68D3
:10545000002B0DD07B6818687B6859687B689A6858
:105460007B68DB680024009400F0DCF9034608E068
:105470007B6818687B685B680022194600F049FA6F
:10548000034618460C37BD4690BD000080B586B077
:1054900000AFF860B9607A6000233B617B687B6194
:1054A0007B69002B01D101237B61FFF74EFF03468F
:1054B000002B18D007F1100207F108010023F8684B
:1054C00000F082FB0346012B01D0FF2318E03B696B
:1054D000002B14D00C4B4FF080521A60BFF34F8F4B
:1054E000BFF36F8F0BE007F1080100237A69F868BA
:1054F00000F06CFA0346012B01D0FF2300E00023EB
:1055000018461837BD4680BD04ED00E090B58BB05D
:1055100000AFF860B9607A60BB68FB610023BB61D3
:10552000BB68002B0AD180237B61FB681C4607F116
:10553000140393E8070084E8070054E000233B626B
:1055400000237B627B68B3F1FF3F03D14FF0FF3351
:105550007B6209E07B68002B06D07B687B627B6AFC
:10556000002B01D101237B62FFF7EFFE0346002BE6
:105570001CD007F1200207F1140304331946B86860
:1055800000F09AFC0346012B02D110237B6101E05D
:1055900000237B613B6A002B1DD0154B4FF08052DE
:1055A0001A60BFF34F8FBFF36F8F14E007F114033E
:1055B00004337A6A1946B86800F09EFB0346012B53
:1055C00002D110237B6106E07B6A002B01D100230E
:1055D00000E040237B61FB681C4607F1140393E85D
:1055E000070084E80700F8682C37BD4690BD00BF6F
:1055F00004ED00E080B483B000AF78607B6803F115
:1056000008027B685A607B684FF0FF329A607B68C3
:1056100003F108027B68DA607B6803F108027B68AB
:105620001A617B6800221A6000BF0C37BD4680BC3F
:10563000704780B483B000AF78607B6800221A6145
:1056400000BF0C37BD4680BC704780B485B000AF4A
:10565000786039607B685B68FB603B68FA685A6019
:10566000FB689A683B689A60FB689B683A685A6076
:10567000FB683A689A603B687A681A617B681B68C5
:105680005A1C7B681A6000BF1437BD4680BC704747
:1056900080B485B000AF786039603B681B68BB6040
:1056A000BB68B3F1FF3F03D17B681B69FB600CE073
:1056B0007B680833FB6002E0FB685B68FB60FB68AB
:1056C0005B681B68BA689A42F6D2FB685A683B6806
:1056D0005A603B685B683A689A603B68FA689A600F
:1056E000FB683A685A603B687A681A617B681B6895
:1056F0005A1C7B681A6000BF1437BD4680BC7047D7
:1057000080B485B000AF78607B681B69FB607B6804
:105710005B687A6892689A607B689B687A6852686E
:105720005A60FB685B687A689A4203D17B689A6822
:10573000FB685A607B6800221A61FB681B685A1E6E
:10574000FB681A60FB681B6818461437BD4680BCAE
:105750007047000080B584B000AF786039607B6826
:10576000FB60FB68002B0AD14FF0500383F31188D4
:10577000BFF36F8FBFF34F8FBB6000BFFEE701F039
:10578000EDFCFB681A68FB68DB6BF968096C01FBD0
:1057900003F31A44FB685A60FB6800229A63FB68B3
:1057A0001A68FB689A60FB681A68FB68DB6B013B50
:1057B000F968096C01FB03F31A44FB68DA60FB68C3
:1057C000FF2283F84420FB68FF2283F845203B68D2
:1057D000002B14D1FB681B69002B1AD0FB68103317
:1057E000184601F0FDF80346002B12D00C4B4FF089
:1057F00080521A60BFF34F8FBFF36F8F09E0FB68D1
:1058000010331846FFF7F6FEFB6824331846FFF7FF
:10581000F1FE01F0D3FC012318461037BD4680BDD0
:1058200004ED00E080B58EB002AFF860B9607A6038
:105830003B60FB68002B0AD14FF0500383F31188C3
:10584000BFF36F8FBFF34F8FBB6200BFFEE73B68B4
:10585000002B0AD14FF0500383F31188BFF36F8FF1
:10586000BFF34F8F7B6200BFFEE77B68002B02D047
:10587000BB68002B01D0012300E00023002B0AD1DC
:105880004FF0500383F31188BFF36F8FBFF34F8F37
:105890003B6200BFFEE77B68002B02D1BB68002B98
:1058A00001D1012300E00023002B0AD14FF0500367
:1058B00083F31188BFF36F8FBFF34F8FFB6100BF7E
:1058C000FEE748237B617B69482B0AD04FF05003E9
:1058D00083F31188BFF36F8FBFF34F8FBB6100BF9E
:1058E000FEE73B68FB62FB6A002B0DD0FB6A0122DE
:1058F00083F8462097F83820FB6A009313467A68AD
:10590000B968F86800F043F8FB6A18463037BD46BE
:1059100080BD80B58AB002AFF860B9601346FB71F4
:10592000FB68002B0AD14FF0500383F31188BFF3BB
:105930006F8FBFF34F8F3B6100BFFEE7BB68002B4B
:1059400002D10023FB6104E0FB68BA6802FB03F3A9
:10595000FB61FB694833184601F000FDB861BB6983
:10596000002B0FD0BB6948337B61BB69002283F8F1
:105970004620FA79BB69009313467A69B968F868DA
:1059800000F005F8BB6918462037BD4680BD80B5DC
:1059900084B000AFF860B9607A60FB70BB68002B20
:1059A00003D1BB69BA691A6002E0BB697A681A6000
:1059B000BB69FA68DA63BB69BA681A640121B8691D
:1059C000FFF7C8FE00BF1037BD4680BD80B58EB062
:1059D00000AFF860B9607A603B6000237B63FB68CE
:1059E0003B633B6B002B0AD14FF0500383F31188CC
:1059F000BFF36F8FBFF34F8FBB6200BFFEE7BB6883
:105A0000002B03D13B6B1B6C002B01D1012300E069
:105A10000023002B0AD14FF0500383F31188BFF30A
:105A20006F8FBFF34F8F7B6200BFFEE73B68022B97
:105A300003D13B6BDB6B012B01D1012300E0002381
:105A4000002B0AD14FF0500383F31188BFF36F8FFF
:105A5000BFF34F8F3B6200BFFEE701F081F90346C1
:105A6000002B02D17B68002B01D1012300E0002331
:105A7000002B0AD14FF0500383F31188BFF36F8FCF
:105A8000BFF34F8FFB6100BFFEE701F067FB3B6B8D
:105A90009A6B3B6BDB6B9A4202D33B68022B29D19A
:105AA0003A68B968386B00F087FAF8623B6B5B6A5A
:105AB000002B10D03B6B2433184600F091FF0346B7
:105AC000002B13D03F4B4FF080521A60BFF34F8F23
:105AD000BFF36F8F0AE0FB6A002B07D0394B4FF002
