:020000040800F2
:1000000000000120190B0008110A00081D0A000851
:10001000230A0008290A00082F0A0008000000002F
:10002000000000000000000000000000350A000889
:10003000410A0008000000004D0A0008590A0008A3
:10004000610B0008610B0008610B0008610B0008E0
:10005000610B0008610B0008610B0008610B0008D0
:10006000610B0008610B0008610B0008610B0008C0
:10007000610B0008610B0008610B0008610B0008B0
:10008000610B0008610B0008610B0008650A00089D
:10009000790A00088D0A0008610B0008610B00084E
:1000A000610B0008610B0008610B0008610B000880
:1000B000610B0008610B0008610B0008610B000870
:1000C000610B0008610B0008610B0008610B000860
:1000D000610B0008610B0008610B0008610B000850
:1000E000610B0008610B0008610B000800000000B4
:1000F0000000000000000000000000000000000000
:100100000000000000000000610B0008610B000807
:10011000610B0008610B0008610B0008610B00080F
:10012000610B0008610B0008610B0008610B0008FF
:10013000610B0008610B0008610B0008610B0008EF
:10014000610B0008610B0008610B0008610B0008DF
:10015000000000000000000000000000000000009F
:10016000000000000000000000000000000000008F
:10017000000000000000000000000000000000007F
:10018000000000000000000000000000000000006F
:10019000000000000000000000000000000000005F
:1001A000000000000000000000000000000000004F
:1001B000000000000000000000000000000000003F
:1001C000000000000000000000000000000000002F
:1001D000000000000000000000000000000000001F
:0401E0005FF8E0F1F3
:1001E40010B5054C237833B9044B13B10448AFF36D
:1001F40000800123237010BD700000200000000067
:100204004832000808B5034B1BB103490348AFF358
:10021400008008BD0000000074000020483200087F
:10022400034613F8012B002AFBD1181A0138704732
:1002340053B94AB9002908BF00281CBF4FF0FF3149
:100244004FF0FF3000F074B9ADF1080C6DE904CE45
:1002540000F006F8DDF804E0DDE9022304B070479D
:100264002DE9F0478C460446089E002B4BD18A4268
:10027400154667D9B2FA82F24AB1C2F1200701FAEF
:1002840002F320FA07F7954047EA030C94404FEA3B
:10029400154EBCFBFEF71FFA85F80EFB17C307FBD0
:1002A40008F9210C41EA0343994509D9EB1807F1F0
:1002B400FF3180F01C81994540F21981023F2B44A3
:1002C400A3EB0903B3FBFEF00EFB103300FB08F1B4
:1002D400A4B244EA0344A14209D92C1900F1FF3322
:1002E40080F00781A14240F2048102382C4440EAA4
:1002F40007400027641A1EB10023D440C6E9004316
:100304003946BDE8F0878B4209D9002E00F0EC8015
:100314000027C6E9000138463946BDE8F087B3FA3C
:1003240083F7002F48D18B4202D3824200F2FB8034
:10033400841A61EB030301209C46002EE0D0C6E939
:10034400004CDDE702B9FFDEB2FA82F2002A40F087
:100354008F800127491B4FEA15481FFA85F9B1FB25
:10036400F8FE08FB1E1109FB0EF04FEA144C4CEA90
:100374000143984207D9EB180EF1FF3102D298429B
:1003840000F2CD808E461B1AB3FBF8F008FB103345
:1003940009FB00F9A4B244EA0344A14507D92C1986
:1003A40000F1FF3302D2A14500F2B6801846A4EB57
:1003B400090440EA0E409EE7C7F12005BB4022FA3B
:1003C40005FC4CEA030C21FA05F44FEA1C4EB4FB7D
:1003D400FEF91FFA8CF80EFB194420FA05F3B94014
:1003E40009FB08FA19430B0C43EA0444A24502FA38
:1003F40007F200FA07F30BD91CEB040409F1FF30F0
:1004040080F08880A24540F28580A9F10209644405
:10041400A4EB0A04B4FBFEF00EFB104400FB08FA44
:1004240089B241EA0444A24508D91CEB040400F152
:10043400FF316BD2A24569D90238644440EA0940CD
:10044400A0FB0289A4EB0A044C454146CE4654D392
:1004540051D0002E69D05A1A64EB0E0404FA05F543
:1004640022FA07F3FC401D43C6E90054002747E77E
:100474009540C2F1200321FA03F04FEA1548B0FB7E
:10048400F8F71FFA85F908FB170024FA03F39140E3
:1004940007FB09FC0B43190C41EA00418C4504FAA3
:1004A40002F407D9691807F1FF3031D28C452FD9EE
:1004B400023F2944A1EB0C01B1FBF8F008FB101C2E
:1004C40000FB09FE99B241EA0C418E4507D969182F
:1004D40000F1FF3318D28E4516D902382944A1EB16
:1004E4000E0140EA07473AE73746304608E70F4629
:1004F400E6E61846FBE64345ABD2B8EB020169EBEE
:100504000C0201389646A4E71846E8E7084695E742
:100514000746CFE781467BE702382C4447E7AEF134
:10052400020E2B442FE7384607E73746E8E600BFBC
:10053400704700BF80B5B4B000AF00F011FB00F00D
:100544004BF800F0F9F800F095F800F0CBF800F063
:1005540015F91D4800F064FD4FF4FA6000F062FBE9
:1005640064230C2219491A4802F0BDF807F1640209
:1005740007F1CB0107F1CC03184600F01FF903463D
:10058400002B1BD0D7F8CC2097F8CB303846114934
:1005940002F046FA3B461846FFF742FE03469AB27B
:1005A400394664230A4802F09EF897F8CB309AB291
:1005B40007F164016423064802F095F84FF47A7059
:1005C40000F030FBD2E700BFDC00002060320008FE
:1005D400980000206C32000880B594B000AF07F199
:1005E400180338220021184602F012FA3B1D00229B
:1005F4001A605A609A60DA601A610123BB614FF491
:1006040080333B6201237B620123FB620023FB6195
:100614000223BB634FF48033FB634FF400233B643A
:1006240000237B6407F11803184601F003FB03461B
:10063400002B01D000F002F90F237B600223BB6082
:100644000023FB6000233B6100237B613B1D0021F1
:10065400184601F005FE0346002B01D000F0EEF829
:10066400034B01221A6000BF5037BD4680BD00BF56
:100674007000424280B500AF184B194A1A60174BFC
:1006840005225A60154B00229A60144B4FF04072B9
:10069400DA60124B4FF440221A61104B4FF480126F
:1006A4005A610E4B00221A760C4B00225A760B4BE1
:1006B40000229A76094B0022DA76084B00221A7738
:1006C400064B00225A77054800F0CEFA0346002B69
:1006D40001D000F0B3F800BF80BD00BFDC000020F3
:1006E4000064004080B500AF114B124A1A60104BF1
:1006F4004FF4E1325A600E4B00229A600C4B0022F8
:10070400DA600B4B00221A61094B0C225A61084B28
:1007140000229A61064B0022DA61054801F096FF37
:100724000346002B01D000F089F800BF80BD00BF54
:10073400980000200038014080B483B000AF0E4B15
:100744009B690D4A43F0200393610B4B9B6903F0B3
:1007540020037B607B68084B9B69074A43F00403D2
:100764009361054B9B6903F004033B603B6800BF46
:100774000C37BD4680BC70470010024080B58AB07B
:1007840000AF01237B610023BB610123FB610023D4
:100794003B6000237B600023BB600023FB600023DD
:1007A4003B6101233B623B461946034800F058FB7A
:1007B40000BF2837BD4680BDDC00002080B584B072
:1007C40000AFF860B9607A6000211A4800F07DFD3E
:1007D4000346002B10D07B68174A0021154800F00F
:1007E40063FC154B1B69DAB2BB681A70124B5A686A
:1007F400FB681A60012318E001210E4800F065FD32
:100804000346002B10D07B680B4A0021094800F0F6
:100814004BFC094B1B69DAB2BB681A70064B5A6869
:10082400FB681A60012300E0002318461037BD4618
:1008340080BD00BFDC0000201C01002080B400AF9C
:1008440000BFBD4680BC704780B485B000AF154B77
:100854009B69144A43F001039361124B9B6903F0B3
:100864000103BB60BB680F4BDB690E4A43F0805346
:10087400D3610C4BDB6903F080537B607B680A4BCC
:100884005B68FB60FB6823F0E063FB60FB6843F09C
:100894008063FB60044AFB68536000BF1437BD46A5
:1008A40080BC7047001002400000014080B588B051
:1008B40000AF786007F1100300221A605A609A6052
:1008C400DA607B681B68284A934249D1274BDB696D
:1008D400264A43F00073D361244BDB6903F00073B1
:1008E400FB60FB68214B9B69204A43F0040393613E
:1008F4001E4B9B6903F00403BB60BB684FF40063A9
:100904003B6100237B610023BB6107F1100319469F
:10091400174801F035F84FF480533B6102237B61A3
:100924000323FB6107F110031946114801F028F86D
:1009340000220021132000F0ECFF132001F005F841
:1009440000220021142000F0E4FF142000F0FDFF39
:1009540000220021152000F0DCFF152000F0F5FF37
:1009640000BF2037BD4680BD006400400010024037
:100974000008014080B588B000AF786007F110032B
:1009840000221A605A609A60DA607B681B681C4A0D
:10099400934231D11B4B9B691A4A43F480439361C0
:1009A400184B9B6903F48043FB60FB68154B9B6900
:1009B400144A43F004039361124B9B6903F004034C
:1009C400BB60BB684FF400733B6102237B6103236C
:1009D400FB6107F1100319460B4800F0D1FF4FF4F7
:1009E40080633B6100237B610023BB6107F110033B
:1009F4001946054800F0C4FF00BF2037BD4680BD3E
:100A040000380140001002400008014080B400AFEB
:100A140000BFBD4680BC704780B400AFFEE780B421
:100A240000AFFEE780B400AFFEE780B400AFFEE79E
:100A340080B400AF00BFBD4680BC704780B400AF37
:100A440000BFBD4680BC704780B400AF00BFBD4648
:100A540080BC704780B500AF00F0C8F800BF80BD0F
:100A640080B500AF024800F057FC00BF80BD00BF56
:100A7400DC00002080B500AF024800F04DFC00BF50
:100A840080BD00BFDC00002080B500AF024800F04C
:100A940043FC00BF80BD00BFDC00002080B586B0F1
:100AA40000AF7860144A154BD31A7B617B693B61B4
:100AB400134B1B68002B02D1114B124A1A60104BC6
:100AC4001A687B6813443A699A4207D201F076FFA8
:100AD40002460C2313604FF0FF3309E0084B1B68F8
:100AE400FB60074B1A687B681344054A1360FB6874
:100AF40018461837BD4680BD0000012000040000E0
:100B04008C0000204001002080B400AF00BFBD462F
:100B140080BC7047002103E00B4B5B584350043109
:100B24000A480B4B42189A42F6D30A4A02E00023C1
:100B340042F8043B084B9A42F9D3FFF7E5FF01F072
:100B440043FFFFF7F7FC7047F8320008000000206D
:100B5400700000207000002040010020FEE700002B
:100B640080B500AF084B1B68074A43F010031360BD
:100B7400032000F0C3FE002000F008F8FFF764FE35
:100B84000023184680BD00BF0020024080B582B01B
:100B940000AF7860124B1A68124B1B7819464FF459
:100BA4007A73B3FBF1F3B2FBF3F3184600F0DBFE08
:100BB4000346002B01D001230EE07B680F2B0AD8DB
:100BC400002279684FF0FF3000F0A3FE064A7B68EC
:100BD4001360002300E0012318460837BD4680BD9A
:100BE40000000020080000200400002080B400AFB2
:100BF400054B1B781A46054B1B681344034A1360C4
:100C040000BFBD4680BC70470800002038010020AA
:100C140080B400AF024B1B681846BD4680BC7047C9
:100C24003801002080B584B000AF7860FFF7F0FF92
:100C3400B8607B68FB60FB68B3F1FF3F05D0094BEC
:100C44001B781A46FB681344FB6000BFFFF7E0FF04
:100C54000246BB68D31AFA689A42F7D800BF103725
:100C6400BD4680BD0800002080B584B000AF786028
:100C74007B68002B01D10123EDE07B6893F82030E1
:100C8400DBB2002B02D17868FFF710FE7B681B688B
:100C94001A687B681B6822F002021A60FFF7B8FF2B
:100CA400F86012E0FFF7B4FF0246FB68D31A0A2B80
:100CB4000BD97B685B6A43F400327B685A627B68B9
:100CC400052283F820200123C5E07B681B685B684C
:100CD40003F00203002BE5D17B681B681A687B686C
:100CE4001B6842F001021A60FFF792FFF86012E0FD
:100CF400FFF78EFF0246FB68D31A0A2B0BD97B68D9
:100D04005B6A43F400327B685A627B68052283F88D
:100D1400202001239FE07B681B685B6803F00103CC
:100D2400002BE5D07B681B7E012B08D17B681B68F8
:100D34001A687B681B6842F080021A6007E07B68CF
:100D44001B681A687B681B6822F080021A607B6843
:100D54005B7E012B08D17B681B681A687B681B6863
:100D640042F040021A6007E07B681B681A687B68DF
:100D74001B6822F040021A607B689B7E012B08D11D
:100D84007B681B681A687B681B6842F020021A6043
:100D940007E07B681B681A687B681B6822F02002E6
:100DA4001A607B68DB7E012B08D17B681B681A689C
:100DB4007B681B6822F010021A6007E07B681B68DE
:100DC4001A687B681B6842F010021A607B681B7FFC
:100DD400012B08D17B681B681A687B681B6842F08A
:100DE40008021A6007E07B681B681A687B681B6846
:100DF40022F008021A607B685B7F012B08D17B68B4
:100E04001B681A687B681B6842F004021A6007E0DA
:100E14007B681B681A687B681B6822F004021A60EE
:100E24007B689A687B68DB681A437B681B691A4392
:100E34007B685B6942EA03017B685B685A1E7B68D6
:100E44001B680A43DA617B6800225A627B680122CC
:100E540083F82020002318461037BD4680BD0000CB
:100E640080B487B000AF786039607B681B687B61B1
:100E74007B6893F82030FB74FB7C012B03D0FB7C54
:100E8400022B40F0BE80654B7B617B69D3F8003256
:100E940043F001027B69C3F800227B69D3F8003276
:100EA40023F47C527B69C3F800227B69D3F80022C7
:100EB4003B685B6A1B021A437B69C3F800223B68E8
:100EC4005B6903F01F03012202FA03F3FB607B69F1
:100ED400D3F81C22FB68DB431A407B69C3F81C224D
:100EE4003B68DB69002B23D17B69D3F80C22FB68B8
:100EF400DB431A407B69C3F80C223B68DB681904A6
:100F04003B685B689BB23A68526919437B69483213
:100F140043F832103B689B6819043B681B689AB21B
:100F24003B685B690A4379694833DB000B445A60C8
:100F34003B68DB69012B22D17B69D3F80C22FB6867
:100F44001A437B69C3F80C223B681B6819043B688D
:100F54005B689BB23A68526919437B69483243F82B
:100F640032103B689B6819043B68DB689AB23B68A3
:100F74005B690A4379694833DB000B445A603B6878
:100F84009B69002B09D17B69D3F80422FB68DB43FE
:100F94001A407B69C3F8042207E07B69D3F8042272
:100FA400FB681A437B69C3F804223B681B69002B66
:100FB40009D17B69D3F81422FB68DB431A407B69AF
:100FC400C3F8142207E07B69D3F81422FB681A43A0
:100FD4007B69C3F814223B681B6A012B07D17B6928
:100FE400D3F81C22FB681A437B69C3F81C227B6973
:100FF400D3F8003223F001027B69C3F800220023F6
:1010040006E07B685B6A43F480227B685A620123B2
:1010140018461C37BD4680BC704700BF00640040C2
:1010240080B584B000AF78607B6893F82030DBB281
:10103400012B2ED17B68022283F820207B681B6859
:101044001A687B681B6822F001021A60FFF7E0FD52
:10105400F86012E0FFF7DCFD0246FB68D31A0A2BA6
:101064000BD97B685B6A43F400327B685A627B6805
:10107400052283F82020012312E07B681B685B684B
:1010840003F00103002BE5D17B6800225A620023A0
:1010940006E07B685B6A43F400227B685A620123A2
:1010A40018461037BD4680BD80B487B000AFF860E5
:1010B400B9607A603B60FB6893F82030FB75FB7D78
:1010C400012B03D0FB7D022B40F0F380BB68002B87
:1010D4000ED1FB681B68DB6803F00303002B16D1F9
:1010E400FB685B6A43F40012FB685A620123E7E081
:1010F400FB681B681B6903F00303002B07D1FB6823
:101104005B6A43F40012FB685A620123D8E0FB686F
:101114001A68BB681B331B0113441B6803F00402E9
:101124007B689A607B689B68002B0CD1FB681A680B
:10113400BB681B331B0113441B685B0DC3F30A021A
:101144007B681A600BE0FB681A68BB681B331B01E1
:1011540013441B68DB0823F060427B685A60FB6819
:101164001A68BB681B331B0113441B6803F002029B
:101174007B68DA60FB681A68BB681B331B01134485
:1011840004331B6803F00F027B681A61FB681A685A
:10119400BB681B331B01134404331B681B0ADAB2FC
:1011A4007B689A61FB681A68BB681B331B01134494
:1011B40004331B681B0C9AB27B685A61FB681A687B
:1011C400BB681B01134403F5DC731B68DAB23B688C
:1011D4001A70FB681A68BB681B01134403F5DC73BF
:1011E4001B681A0A3B680133D2B21A70FB681A688A
:1011F400BB681B01134403F5DC731B681A0C3B68C2
:101204000233D2B21A70FB681A68BB681B0113441C
:1012140003F5DC731B681A0E3B680333D2B21A70F1
:10122400FB681A68BB681B01134403F5DE731A6874
:101234003B680433D2B21A70FB681A68BB681B019E
:10124400134403F5DE731B681A0A3B680533D2B2F4
:101254001A70FB681A68BB681B01134403F5DE733C
:101264001B681A0C3B680633D2B21A70FB681A6802
:10127400BB681B01134403F5DE731B681A0E3B683D
:101284000733D2B21A70BB68002B08D1FB681B6805
:10129400DA68FB681B6842F02002DA6007E0FB684A
:1012A4001B681A69FB681B6842F020021A6100235C
:1012B40006E0FB685B6A43F48022FB685A62012300
:1012C40018461C37BD4680BC704780B485B000AF5B
:1012D400786039600023FB607B6893F82030FB72F0
:1012E400FB7A012B02D0FB7A022B0FD13B68002B37
:1012F40006D17B681B68DB6803F00303FB6005E031
:101304007B681B681B6903F00303FB60FB681846DA
:101314001437BD4680BC704780B58AB000AF786092
:1013240000237B627B681B685B693B627B681B688C
:101334005B68FB617B681B689B68BB617B681B689F
:10134400DB687B617B681B681B693B617B681B688E
:101354009B69FB603B6A03F00103002B7CD0BB69F3
:1013640003F00103002B23D07B681B6801229A60E1
:10137400BB6903F00203002B03D0786800F07DF909
:1013840016E0BB6903F00403002B04D07B6A43F42A
:1013940000637B620CE0BB6903F00803002B04D0FC
:1013A4007B6A43F480537B6202E0786800F080F942
:1013B400BB6903F48073002B24D07B681B684FF453
:1013C40080729A60BB6903F40073002B03D07868C1
:1013D40000F05CF916E0BB6903F48063002B04D0D1
:1013E4007B6A43F400537B620CE0BB6903F4006343
:1013F400002B04D07B6A43F480437B6202E078686C
:1014040000F05FF9BB6903F48033002B24D07B68C0
:101414001B684FF480329A60BB6903F40033002BDD
:1014240003D0786800F03BF916E0BB6903F480232D
:10143400002B04D07B6A43F400437B620CE0BB695D
:1014440003F40023002B04D07B6A43F480337B62D3
:1014540002E0786800F03EF93B6A03F00803002BD1
:101464000CD07B6903F01003002B07D07B6A43F494
:1014740000737B627B681B681022DA603B6A03F0AE
:101484000403002B0BD07B6903F00803002B06D068
:101494007B681B680822DA60786800F02DF93B6AE3
:1014A40003F00203002B09D07B681B68DB6803F0A0
:1014B4000303002B02D0786800F015F93B6A03F0AF
:1014C4004003002B0CD03B6903F01003002B07D022
:1014D4007B6A43F480637B627B681B6810221A6119
:1014E4003B6A03F02003002B0BD03B6903F0080395
:1014F400002B06D07B681B6808221A61786800F00C
:101504000DF93B6A03F01003002B09D07B681B68BC
:101514001B6903F00303002B02D0786800F0F5F890
:101524003B6A03F40033002B0BD0FB6903F0100378
:10153400002B06D07B681B6810225A60786800F084
:10154400F6F83B6A03F48033002B0BD0FB6903F0FD
:101554000803002B06D07B681B6808225A60786851
:1015640000F0EEF83B6A03F40043002B75D0FB69EE
:1015740003F00403002B6CD03B6A03F48073002B4C
:1015840008D0FB6803F00103002B03D07B6A43F00F
:1015940001037B623B6A03F40073002B08D0FB68F1
:1015A40003F00203002B03D07B6A43F002037B6247
:1015B4003B6A03F48063002B08D0FB6803F0040348
:1015C400002B03D07B6A43F004037B623B6A03F481
:1015D4000063002B3DD0FB6803F07003002B38D070
:1015E400FB6803F07003302B17D0302B04D8102B7A
:1015F40009D0202B0CD024E0502B18D0602B1BD00A
:10160400402B0FD01DE07B6A43F008037B6218E097
:101614007B6A43F010037B6213E07B6A43F0200390
:101624007B620EE07B6A43F040037B6209E07B6AE5
:1016340043F080037B6204E07B6A43F480737B6243
:1016440000BF7B681B689A697B681B6822F0700284
:101654009A617B681B6804225A607B6A002B08D05D
:101664007B685A6A7B6A1A437B685A62786800F01E
:1016740070F800BF2837BD4680BD80B483B000AF8A
:10168400786000BF0C37BD4680BC704780B483B01F
:1016940000AF786000BF0C37BD4680BC704780B493
:1016A40083B000AF786000BF0C37BD4680BC704784
:1016B40080B483B000AF786000BF0C37BD4680BCF7
:1016C400704780B483B000AF786000BF0C37BD466C
:1016D40080BC704780B483B000AF786000BF0C3723
:1016E400BD4680BC704780B483B000AF786000BF53
:1016F4000C37BD4680BC704780B483B000AF7860BF
:1017040000BF0C37BD4680BC704780B483B000AFC7
:10171400786000BF0C37BD4680BC704780B483B08E
:1017240000AF786000BF0C37BD4680BC704780B402
:1017340083B000AF786000BF0C37BD4680BC7047F3
:1017440080B483B000AF786000BF0C37BD4680BC66
:10175400704780B483B000AF786000BF0C37BD46DB
:1017640080BC704780B485B000AF78607B6803F0BC
:101774000703FB600C4BDB68BB60BA684FF6FF03E2
:101784001340BB60FB681A02BB68134343F0BF639A
:1017940043F40033BB60044ABB68D36000BF143712
:1017A400BD4680BC704700BF00ED00E080B400AFD0
:1017B400044BDB681B0A03F007031846BD4680BCD4
:1017C400704700BF00ED00E080B483B000AF034673
:1017D400FB7197F90730002B0BDBFB7903F01F0239
:1017E400064997F907305B09012000FA02F241F833
:1017F400232000BF0C37BD4680BC704700E100E0E9
:1018040080B483B000AF03463960FB7197F90730A9
:10181400002B0ADB3B68DAB20C4997F90730120156
:10182400D2B20B4483F800230AE03B68DAB20849D9
:10183400FB7903F00F03043B1201D2B20B441A7676
:1018440000BF0C37BD4680BC704700BF00E100E01C
:1018540000ED00E080B489B000AFF860B9607A6050
:10186400FB6803F00703FB61FB69C3F10703042B67
:1018740028BF0423BB61FB690433062B02D9FB692F
:10188400033B00E000237B614FF0FF32BB6902FAA7
:1018940003F3DA43BB681A407B699A404FF0FF3187
:1018A4007B6901FA03F3D9437B680B401343184661
:1018B4002437BD4680BC704780B582B000AF7860E5
:1018C4007B68013BB3F1807F01D301230FE00A4A17
:1018D4007B68013B53600F214FF0FF30FFF790FF0F
:1018E400054B00229A60044B07221A600023184615
:1018F4000837BD4680BD00BF10E000E080B582B06F
:1019040000AF78607868FFF72DFF00BF0837BD4649
:1019140080BD80B586B000AF0346B9607A60FB73C2
:1019240000237B61FFF742FF78617A68B9687869C0
:10193400FFF790FF024697F90F3011461846FFF75C
:101944005FFF00BF1837BD4680BD80B582B000AFD1
:101954000346FB7197F907301846FFF735FF00BFC0
:101964000837BD4680BD80B582B000AF7860786826
:10197400FFF7A2FF034618460837BD4680BD0000A6
:1019840080B48BB000AF7860396000237B620023A1
:101994003B6227E101227B6A02FA03F3FB613B68A5
:1019A4001B68FA691340BB61BA69FB699A4240F04B
:1019B40016813B685B68122B34D0122B0DD8022B96
:1019C4002BD0022B04D8002B31D0012B1CD048E0A3
:1019D400032B43D0112B1BD043E0894A934226D0DA
:1019E400874A934206D8874A934220D0864A934234
:1019F4001DD036E0854A934219D0854A934216D0C9
:101A0400844A934213D02CE03B68DB683B6228E0B5
:101A14003B68DB6804333B6223E03B68DB680833E4
:101A24003B621EE03B68DB680C333B6219E03B68B9
:101A34009B68002B02D104233B6212E03B689B6845
:101A4400012B05D108233B627B68FA691A6108E01F
:101A540008233B627B68FA695A6102E000233B6217
:101A640000BFBB69FF2B01D87B6801E07B680433AE
:101A74007B61BB69FF2B02D87B6A9B0002E07B6A17
:101A8400083B9B003B617B691A680F213B6901FAA3
:101A940003F3DB431A40396A3B6901FA03F31A433F
:101AA4007B691A603B685B6803F08053002B00F08D
:101AB4009680594B9B69584A43F001039361564BF6
:101AC4009B6903F00103BB60BB68544A7B6A9B08B3
:101AD400023352F82330FB607B6A03F003039B005C
:101AE4000F2202FA03F3DB43FA681340FB607B68BE
:101AF4004B4A934213D07B684A4A93420DD07B6889
:101B0400494A934207D07B68484A934201D1032350
:101B140006E0042304E0022302E0012300E00023A2
:101B24007A6A02F0030292009340FA681343FB605E
:101B34003A497B6A9B080233FA6841F823203B68E0
:101B44005B6803F48033002B06D0394B1A6838499C
:101B5400BB6913430B6006E0354B1A68BB69DB4372
:101B6400334913400B603B685B6803F40033002B7C
:101B740006D02F4B5A682E49BB6913434B6006E0CD
:101B84002B4B5A68BB69DB43294913404B603B68C4
:101B94005B6803F48013002B06D0254B9A68244914
:101BA400BB6913438B6006E0214B9A68BB69DB4336
:101BB4001F4913408B603B685B6803F40013002BE0
:101BC40006D01B4BDA681A49BB691343CB6006E0A5
:101BD400174BDA68BB69DB4315491340CB607B6A5A
:101BE40001337B623B681A687B6A22FA03F3002B99
:101BF4007FF4D0AE00BF2C37BD4680BC704700BF19
:101C0400000021100000111000001210000031101B
:101C140000003210000022100010024000000140B9
:101C240000080140000C0140001001400014014074
:101C34000004014080B586B000AF78607B68002B5B
:101C440001D1012304E37B681B6803F00103002B2B
:101C540000F08780924B5B6803F00C03042B0CD0DC
:101C64008F4B5B6803F00C03082B12D18C4B5B6821
:101C740003F48033B3F5803F0BD1894B1B6803F425
:101C84000033002B6CD07B689B68002B68D1012348
:101C9400DEE27B689B68B3F5803F06D1804B1B680E
:101CA4007F4A43F4803313602EE07B689B68002BEB
:101CB4000CD17B4B1B687A4A23F480331360784B36
:101CC4001B68774A23F4802313601DE07B689B68BC
:101CD400B3F5A02F0CD1724B1B68714A43F48023D7
:101CE40013606F4B1B686E4A43F4803313600BE040
:101CF4006B4B1B686A4A23F480331360684B1B6880
:101D0400674A23F4802313607B689B68002B13D0FD
:101D1400FEF77EFF386108E0FEF77AFF02463B6972
:101D2400D31A642B01D9032392E25D4B1B6803F49D
:101D34000033002BF0D014E0FEF76AFF386108E0AE
:101D4400FEF766FF02463B69D31A642B01D90323CD
:101D54007EE2534B1B6803F40033002BF0D100E008
:101D640000BF7B681B6803F00203002B63D04C4B5D
:101D74005B6803F00C03002B0BD0494B5B6803F04A
:101D84000C03082B1CD1464B5B6803F48033002BF7
:101D940016D1434B1B6803F00203002B05D07B686C
:101DA4005B69012B01D0012352E23D4B1B6823F0F8
:101DB400F8027B689B69DB00394913430B603AE006
:101DC4007B685B69002B20D0364B01221A60FEF73A
:101DD4001FFF386108E0FEF71BFF02463B69D31A78
:101DE400022B01D9032333E22D4B1B6803F00203BA
:101DF400002BF0D02A4B1B6823F0F8027B689B6908
:101E0400DB00274913430B6015E0264B00221A60C0
:101E1400FEF7FEFE386108E0FEF7FAFE02463B6973
:101E2400D31A022B01D9032312E21D4B1B6803F0C2
:101E34000203002BF0D17B681B6803F00803002B1E
:101E44003AD07B68DB69002B19D0174B01221A604A
:101E5400FEF7DEFE386108E0FEF7DAFE02463B6973
:101E6400D31A022B01D90323F2E10D4B5B6A03F071
:101E74000203002BF0D0012000F0CAFB1CE00A4B47
:101E840000221A60FEF7C4FE38610FE0FEF7C0FEC0
:101E940002463B69D31A022B08D90323D8E100BFB9
:101EA4000010024000004242800442429B4B5B6AA5
:101EB40003F00203002BE9D17B681B6803F00403E1
:101EC400002B00F0A6800023FB75944BDB6903F024
:101ED4008053002B0DD1914BDB69904A43F0805322
:101EE400D3618E4BDB6903F08053BB60BB68012375
:101EF400FB758B4B1B6803F48073002B18D1884B44
:101F04001B68874A43F480731360FEF781FE3861CF
:101F140008E0FEF77DFE02463B69D31A642B01D923
:101F2400032395E17E4B1B6803F48073002BF0D0F0
:101F34007B681B69012B06D1784B1B6A774A43F0F7
:101F4400010313622DE07B681B69002B0CD1734BDA
:101F54001B6A724A23F001031362704B1B6A6F4AB7
:101F640023F0040313621CE07B681B69052B0CD16E
:101F74006A4B1B6A694A43F004031362674B1B6A8A
:101F8400664A43F0010313620BE0644B1B6A634A25
:101F940023F001031362614B1B6A604A23F00403BC
:101FA40013627B681B69002B15D0FEF731FE386184
:101FB4000AE0FEF72DFE02463B69D31A41F288324D
:101FC400934201D9032343E1544B1B6A03F00203F8
:101FD400002BEED014E0FEF71BFE38610AE0FEF79A
:101FE40017FE02463B69D31A41F28832934201D963
:101FF40003232DE1494B1B6A03F00203002BEED1AE
:10200400FB7D012B05D1454BDB69444A23F080530A
:10201400D3617B68DB6A002B00F08C803F4B5B68EC
:1020240003F48033B3F5803F0ED13C4B5B6803F07F
:102034000C03082B08D1394BDB6A03F48033B3F566
:10204400803F01D1012303E17B68DB6A022B4ED17F
:10205400324B1B6803F08053002B09D02F4BDB6AF3
:1020640003F0F0027B685B6B9A4201D00123EFE03E
:102074002C4B00221A60FEF7CBFD386108E0FEF716
:10208400C7FD02463B69D31A642B01D90323DFE061
:10209400224B1B6803F00063002BF0D11F4BDB6A5B
:1020A40023F0F0027B685B6B1C491343CB621B4B30
:1020B400DB6A23F470627B681B6B18491343CB62A1
:1020C400184B01221A60FEF7A3FD386108E0FEF701
:1020D4009FFD02463B69D31A642B01D90323B7E061
:1020E4000E4B1B6803F00063002BF0D022E00B4B77
:1020F400DB6A0A4A23F48033D3620A4B00221A6053
:10210400FEF786FD38610FE0FEF782FD02463B696B
:10211400D31A642B08D903239AE000BF00100240AD
:1021240000700040680042424B4B1B6803F00063A0
:10213400002BE9D17B681B6A002B00F08880464B9A
:102144005B6803F00C03082B68D07B681B6A022BC6
:102154004DD1424B00221A60FEF75AFD386108E067
:10216400FEF756FD02463B69D31A022B01D903231D
:102174006EE0394B1B6803F00073002BF0D17B68D1
:102184005B6AB3F5803F0FD1334BDA6A7B685B68D7
:1021940031491343CB62304BDB6A23F00F027B6877
:1021A400DB682D491343CB622B4B5B6823F4741219
:1021B4007B68596A7B689B6A0B43274913434B60CE
:1021C400264B01221A60FEF723FD386108E0FEF772
:1021D4001FFD02463B69D31A022B01D9032337E0C2
:1021E4001D4B1B6803F00073002BF0D02FE01B4B3A
:1021F40000221A60FEF70CFD386108E0FEF708FDC6
:1022040002463B69D31A022B01D9032320E0124B67
:102214001B6803F00073002BF0D118E07B681B6A85
:10222400012B01D1012313E00B4B5B68FB60FB68BE
:1022340003F480327B685B6A9A4206D1FB6803F43C
:1022440070127B689B6A9A4201D0012300E000234C
:1022540018461837BD4680BD001002406000424257
:1022640080B584B000AF786039607B68002B01D101
:102274000123D0E06A4B1B6803F007033A689A42D3
:1022840010D9674B1B6823F0070265493B68134369
:102294000B60634B1B6803F007033A689A4201D052
:1022A4000123B8E07B681B6803F00203002B20D0F5
:1022B4007B681B6803F00403002B05D0594B5B6853
:1022C400584A43F4E06353607B681B6803F00803D7
:1022D400002B05D0534B5B68524A43F46053536060
:1022E400504B5B6823F0F0027B689B684D491343B5
:1022F4004B607B681B6803F00103002B40D07B68B4
:102304005B68012B07D1474B1B6803F40033002B98
:1023140015D101237FE07B685B68022B07D1414B19
:102324001B6803F00073002B09D1012373E03D4BBC
:102334001B6803F00203002B01D101236BE0394B2E
:102344005B6823F003027B685B68364913434B6088
:10235400FEF75EFCF8600AE0FEF75AFC0246FB68F2
:10236400D31A41F28832934201D9032353E02D4B0F
:102374005B6803F00C027B685B689B009A42EBD1BC
:10238400274B1B6803F007033A689A4210D2244B88
:102394001B6823F0070222493B6813430B60204B60
:1023A4001B6803F007033A689A4201D0012332E024
:1023B4007B681B6803F00403002B08D0194B5B688F
:1023C40023F4E0627B68DB68164913434B607B6847
:1023D4001B6803F00803002B09D0124B5B6823F43D
:1023E40060527B681B69DB000E4913434B6000F0AD
:1023F40021F801460B4B5B681B0903F00F030A4AE3
:10240400D35C21FA03F3094A1360094B1B6818468D
:10241400FEF7BCFB002318461037BD4680BD00BF45
:1024240000200240001002409C32000800000020FE
:1024340004000020F0B591B000AF564B07F114042E
:102444000FCB07C42380544B3C1D0FCB84E80F00F3
:1024540000237B6300233B630023FB630023FB62B5
:102464000023BB630023BB6200237B624B4B5B688E
:102474007B637B6B03F00C03042B02D0082B03D08B
:102484007FE0474BBB637FE07B6B9B0C03F00F0348
:1024940007F14002134413F82C3CFB627B6B03F4FA
:1024A4008033002B65D03D4BDB6A03F00F0307F14B
:1024B4004002134413F83C3C3B63384BDB6A03F49F
:1024C4008033002B43D0354BDB6A1B0903F00F0329
:1024D4000133BB62314BDB6A1B0A03F00F03023387
:1024E4007B627B6A19464FF00002FB6A4FF00004DE
:1024F40003FB02F501FB04F02844A1FB0334021999
:102504001446274A02FB04F1002202FB03F20A44A8
:102514002349A3FB015693191E46BB6A19464FF083
:1025240000023B6B4FF0000403FB02FC01FB04F0D0
:102534006044A1FB0334021914461A462346284674
:102544003146FDF775FE03460C46FB6307E0FB6A64
:10255400134A02FB03F23B6BB2FBF3F3FB6397F802
:1025640021301A46FB6A934208D1FB6B5B08FB637C
:1025740004E0FB6A0B4A02FB03F3FB63FB6BBB63E4
:1025840002E0094BBB6300BFBB6B18464437BD4632
:10259400F0BD00BF7C3200088C32000800100240FD
:1025A4008096980000093D0000127A0080B400AFC4
:1025B400024B1B681846BD4680BC704700000020D3
:1025C40080B500AFFFF7F2FF0146054B5B681B0ABD
:1025D40003F00703034AD35C21FA03F3184680BDD2
:1025E40000100240AC32000880B500AFFFF7DEFFF8
:1025F4000146054B5B68DB0A03F00703034AD35C1F
:1026040021FA03F3184680BD00100240AC320008E2
:1026140080B485B000AF78600A4B1B680A4AA2FBFD
:1026240003235B0A7A6802FB03F3FB6000BFFB68C9
:102634005A1EFA60002BF9D100BF1437BD4680BC86
:10264400704700BF00000020D34D621080B582B0F7
:1026540000AF78607B68002B01D101233FE07B68E9
:1026640093F83930DBB2002B06D17B68002283F863
:1026740038207868FEF77EF97B68242283F83920B5
:102684007B681B68DA687B681B6822F40052DA6096
:10269400786800F005F97B681B681A697B681B6819
:1026A40022F490421A617B681B685A697B681B6834
:1026B40022F02A025A617B681B68DA687B681B680F
:1026C40042F40052DA607B680022DA637B682022DD
:1026D40083F839207B68202283F83A2000231846A7
:1026E4000837BD4680BD80B58AB002AFF860B960D6
:1026F4003B601346FB8000237B61FB6893F8393011
:10270400DBB2202B7CD1BB68002B02D0FB88002BD2
:1027140001D1012375E0FB6893F83830012B01D116
:1027240002236EE0FB68012283F83820FB68002254
:10273400DA63FB68212283F83920FEF769FA7861AD
:10274400FB68FA889A84FB68FA88DA84FB689B68D9
:10275400B3F5805F08D1FB681B69002B04D100230B
:10276400FB61BB68BB6103E0BB68FB610023BB6129
:10277400FB68002283F838202AE03B6800937B69D9
:1027840000228021F86800F040F80346002B01D0B5
:10279400032336E0FB69002B0BD1BB691B881A4667
:1027A400FB681B68C2F308025A60BB690233BB6151
:1027B40007E0FB691A78FB681B685A60FB69013300
:1027C400FB61FB68DB8C9BB2013B9AB2FB68DA8449
:1027D400FB68DB8C9BB2002BCFD13B6800937B69F9
:1027E40000224021F86800F010F80346002B01D0C5
:1027F400032306E0FB68202283F83920002300E04D
:10280400022318462037BD4680BD80B584B000AF92
:10281400F860B9603B601346FB712CE0BB69B3F10F
:10282400FF3F28D0BB69002B07D0FEF7F1F9024621
:102834003B68D31ABA699A421DD2FB681B68DA68EE
:10284400FB681B6822F4D072DA60FB681B685A6963
:10285400FB681B6822F001025A61FB68202283F89E
:102864003920FB68202283F83A20FB68002283F891
:10287400382003230FE0FB681B681A68BB68134009
:10288400BA689A420CBF01230023DBB21A46FB79D3
:102894009A42C3D0002318461037BD4680BD0000BD
:1028A40080B584B000AF78607B681B681B6923F433
:1028B40040517B68DA687B681B680A431A617B684D
:1028C4009A687B681B691A437B685B691343BB6026
:1028D4007B681B68DB6823F4B05323F00C037A682D
:1028E4001268B9680B43D3607B681B685B6923F487
:1028F40040717B689A697B681B680A435A617B68EC
:102904001B682C4A934203D1FFF76EFEF86002E085
:10291400FFF756FEF860FA6813469B0013449A00CA
:102924001A447B685B689B00B2FBF3F3224AA2FB68
:1029340003235B091901FA6813469B0013449A00A8
:102944001A447B685B689B00B2FBF3F21A4BA3FB4F
:1029540002035B09642000FB03F3D31A1B01323327
:10296400154AA2FB03235B0903F0F0031944FA6838
:1029740013469B0013449A001A447B685B689B00CF
:10298400B2FBF3F20C4BA3FB02035B09642000FBD4
:1029940003F3D31A1B013233074AA2FB03235B0957
:1029A40003F00F027B681B680A449A6000BF10376B
:1029B400BD4680BD003801401F85EB51014B1868AE
:1029C400704700BF0C00002070B500250C4E0D4C64
:1029D400A41BA410A54209D100F034FC00250A4E22
:1029E4000A4CA41BA410A54205D170BD56F825308D
:1029F40098470135EEE756F8253098470135F2E758
:102A0400F0320008F0320008F0320008F432000816
:102A140003460244934200D1704703F8011BF9E7CF
:102A24000EB46FF0004100B59CB01DAB029006904F
:102A3400079104910848094953F8042B059100684B
:102A440002A9019300F066F80022029B1A701CB0E0
:102A54005DF804EB03B070470C0000200802FFFF90
:102A64002DE9F0478E6882469E420C469046994670
:102A740037D88A8912F4906F31D002232568096906
:102A84006F1A656905EB450595FBF3F509F101033B
:102A94003B449D4238BF1D46530530D5294600F0BE
:102AA40037FB064650B90C234FF0FF30CAF800300C
:102AB400A38943F04003A381BDE8F0873A46216926
:102AC40000F0B6FAA38923F4906343F08003A38152
:102AD40026613E4426604E466561ED1BA5604E4569
:102AE40000D94E4632464146206800F0ACFAA3684D
:102AF40000209B1BA36023681E442660DCE72A4653
:102B040000F060FB06460028E2D12169504600F03F
:102B1400B3FAC8E72DE9F04F1D468B899DB01F0617
:102B240080460C4616460FD50B696BB9402100F060
:102B3400EFFA2060206128B90C23C8F800304FF068
:102B4400FF30C8E0402363610023099320238DF8FC
:102B5400293030234FF0010B8DF82A300395374686
:102B64003D4615F8013B0BB1252B3ED1B7EB060AC8
:102B74000BD05346324621464046FFF771FF0130E1
:102B840000F0A480099B534409933B78002B00F088
:102B94009D8000234FF0FF32CDE905230493079372
:102BA4008DF853301A932F46052217F8011B50480D
:102BB40000F030FA049BD0B9D90644BF20228DF826
:102BC40053201A0744BF2B228DF853202A782A2A2F
:102BD40015D02F4600200A25079A394611F8013BE3
:102BE400303B092B4DD9B8B10FE02F46B8E7404A26
:102BF4003D46801A0BFA00F018430490D3E7039A79
:102C0400111D12680391002A01DB079204E052426D
:102C140043F00203079204933B782E2B0CD17B786C
:102C24002A2B33D1039B02371A1D1B680392002BF6
:102C3400B8BF4FF0FF3305932E4D03223978284651
:102C440000F0E8F938B14023401B03FA00F0049B7C
:102C54000137034304933978062227487E1C8DF8F4
:102C6400281000F0D7F9002838D0244B13BB039B5D
:102C7400073323F0070308330393099B4B44099359
:102C84006DE705FB023201200F46A6E700230A2563
:102C9400194601370593384610F8012B303A092AB2
:102CA40003D9002BC8D00591C6E705FB01210123F8
:102CB4000746F0E703AB00932246114B04A94046B4
:102CC400AFF30080B0F1FF3F8146D6D1A3895B0604
:102CD4003FF535AF09981DB0BDE8F08F03AB009305
:102CE4002246074B04A9404600F082F8EAE700BFF9
:102CF400B4320008BA320008BE32000800000000F6
:102D0400652A00082DE9F04791461F468A680B6939
:102D140006469342B8BF1346C9F8003091F84320E1
:102D24000C46DDF8208012B10133C9F80030236865
:102D3400990642BFD9F800300233C9F8003025683B
:102D440015F0060507D104F1190AE368D9F8002043
:102D54009B1AAB4229DC94F843302268003318BF35
:102D6400012392062ED404F1430239463046C0476B
:102D7400013021D02368E56803F00603042B18BF53
:102D84000025D9F800204FF0000908BFAD1AA36848
:102D9400226908BF25EAE5759342C4BF9B1AED1862
:102DA4001A344D451AD1002008E001235246394611
:102DB4003046C047013003D14FF0FF30BDE8F08703
:102DC4000135C2E73020E11881F843005A1C94F819
:102DD40045102244023382F84310C4E701232246FB
:102DE40039463046C0470130E6D009F10109D8E739
:102DF4002DE9F04301F1430C0C46097E85B06E29A0
:102E04001746064698460C9A00F0B38022D86329E8
:102E140036D00AD8002900F0B980582900F0838000
:102E240004F1420584F8421032E0642901D0692992
:102E3400F6D120681368050603F104012AD51B683E
:102E44001160002B03DA2D225B4284F843206F4883
:102E54000A2239E0732900F09D8008D86F2920D018
:102E64007029DDD1236843F02003236003E0752932
:102E740017D07829D4D17823654884F8453055E0B3
:102E8400136804F14205191D1B68116084F842306F
:102E940001238CE01B6810F0400F116018BF1BB2B7
:102EA400CFE713682568181D1060280601D51B6834
:102EB40002E06806FBD51B886F2914BF0A2208228A
:102EC4005248002184F843106568002DA560C0F2C3
:102ED4009580216821F004012160002B3DD1002D53
:102EE40040F08E806546082A0BD12368DB0708D59D
:102EF400236962689A42DEBF302305F8013C05F17C
:102F0400FF35ACEB05032361CDF800803B4603AAF3
:102F140021463046FFF7F6FE01304DD14FF0FF3029
:102F240005B0BDE8F083394884F84510136821687A
:102F34001D1D1B6815600A060BD5CA0744BF41F066
:102F4400200121601BB9226822F020022260102295
:102F5400B7E74D0648BF9BB2EFE76546B3FBF2F116
:102F640002FB1133C35C05F8013D0B460029F5D182
:102F7400B9E713682568181D6169106028061B6885
:102F840001D5196002E06A06FBD519800023654665
:102F94002361B9E71368191D11601D686268002177
:102FA400284600F037F808B1401B6060636823616D
:102FB400002384F84330A7E723692A46394630467C
:102FC400C0470130AAD023689B0713D4E068039B51
:102FD4009842B8BF1846A3E701234A46394630460B
:102FE400C04701309AD00135E368039A9B1AAB427B
:102FF400F2DCEBE7002504F11909F5E7002BACD16D
:10300400037804F1420584F842306CE7C5320008C5
:10301400D632000810B5C9B202449042034601D129
:10302400002303E01C7801308C42F6D1184610BD11
:1030340010B5431E0A44914200D110BD11F8014B52
:1030440003F8014FF7E7884210B501EB020307D8F4
:10305400421E99420AD011F8014B02F8014FF8E7D9
:103064008342F5D98118D21AD34200D110BD13F886
:10307400014D01F8014DF7E738B50546002943D065
:1030840051F8043C0C1F002BB8BFE41800F0D0F832
:103094001E4A1368104633B9636014602846BDE8BD
:1030A400384000F0C6B8A3420BD921686218934295
:1030B40001BF1A685B685218226063600460EDE720
:1030C40013465A680AB1A242FAD919685818A0429C
:1030D4000BD120680144581882421960DED110686F
:1030E4005268014419605A60D8E702D90C232B6056
:1030F400D4E7206821188A4201BF11685268091870
:10310400216062605C60C9E738BD00BF90000020A8
:1031140070B5CD1C25F0030508350C2D38BF0C25E2
:10312400002D064601DBA94203D90C23336000209D
:1031340070BD00F07DF8214A1468214691B9204CF5
:1031440023681BB9304600F063F8206029463046F6
:1031540000F05EF8431C24D10C233046336000F0A9
:1031640068F8E4E70B685B1B18D40B2B0FD90B60D2
:10317400CC18CD50304600F05CF804F10B00231D50
:1031840020F00700C31AD3D05A42E250D0E74B686C
:103194008C4216BF636013600C46EBE70C4649682B
:1031A400CCE7C41C24F00304A04205D0211A304605
:1031B40000F02EF80130CFD02560DBE7900000202E
:1031C40094000020F8B5074614460E4621B9BDE820
:1031D400F8401146FFF79CBF22B9FFF74DFF254683
:1031E4002846F8BD00F026F8A0420FD22146384602
:1031F400FFF78EFF05460028F2D031462246FFF73E
:1032040017FF31463846FFF737FFE9E73546E7E76A
:1032140038B50023054C054608462360FDF73EFCFF
:10322400431C02D1236803B12B6038BD3C0100204C
:103234007047704751F8043C181F002BBCBF0B5853
:10324400C0187047F8B500BFF8BC08BC9E4670476C
:0C325400F8B500BFF8BC08BC9E467047EF
:1032600043414E5F4D4F44554C450A0049443A2571
:10327000642C4C454E3A2564000000000000040513
:103280000607080900000000000D00000102030409
:1032900005060708090A0B0C0D0E0F1000000000B0
:1032A00000000000010203040607080900000000F6
:1032B00001020304232D302B2000686C4C0065664E
:1032C0006745464700303132333435363738394177
:1032D000424344454600303132333435363738398D
:0832E000616263646566000091
:0832E8007CCFFF7F0100000014
:0432F00009020008C7
:0432F400E5010008E8
:1032F8000024F4001000000001000000100000206D
:1033080000000000000000000000000000000000B5
:1033180000000000000000000000000000000000A5
:103328000000000000000000000000000000000095
:103338000000000000000000000000000000000085
:103348000000000000000000000000000000000075
:103358000000000000000000000000000000000065
:0400000508000B19CB
:00000001FF
