:020000040800F2
:100000000000012005550008D5520008DB52000809
:10001000E1520008E7520008ED520008000000001D
:1000200000000000000000000000000081FF000848
:10003000F35200080000000061010108A901010855
:100040004D5500084D5500084D5500084D55000808
:100050004D5500084D5500084D5500084D550008F8
:100060004D5500084D5500084D5500084D550008E8
:1000700001530008155300084D5500084D55000860
:100080004D5500084D5500084D5500084D550008C8
:100090004D5500084D5500084D5500084D550008B8
:1000A0004D550008295300084D5500084D550008CE
:1000B0004D5500084D5500084D5500084D55000898
:1000C0004D5500084D5500084D5500083D5300089A
:1000D0004D550008515300084D5500084D55000876
:1000E0004D5500084D5500084D5500084D55000868
:1000F0004D5500084D5500084D5500084D55000858
:100100004D5500084D5500084D5500084D55000847
:100110004D550008655300084D5500084D55000821
:100120004D5500084D5500084D5500084D55000827
:1001300000000000000000000000000000000000BF
:1001400000000000000000000000000000000000AF
:10015000000000000000000000000000000000009F
:10016000000000000000000000000000000000008F
:10017000000000000000000000000000000000007F
:10018000000000000000000000000000000000006F
:10019000000000000000000000000000000000005F
:1001A000000000000000000000000000000000004F
:1001B000000000000000000000000000000000003F
:1001C000000000000000000000000000000000002F
:1001D000000000000000000000000000000000001F
:0401E0005FF8E0F1F3
:1001F00010B5054C237833B9044B13B10448AFF361
:1002000000800123237010BDF803002000000000CF
:10021000984E010808B5034B1BB103490348AFF3DF
:10022000008008BD00000000FC030020984E01087B
:10023000034613F8012B002AFBD1181A0138704726
:1002400081F0004102E000BF83F0004330B54FEA87
:1002500041044FEA430594EA050F08BF90EA020FF4
:100260001FBF54EA000C55EA020C7FEA645C7FEA87
:10027000655C00F0E2804FEA5454D4EB5555B8BFAA
:100280006D420CDD2C4480EA020281EA030382EA1B
:10029000000083EA010180EA020281EA0303362DAD
:1002A00088BF30BD11F0004F4FEA01314FF4801C80
:1002B0004CEA113102D0404261EB410113F0004F92
:1002C0004FEA03334CEA133302D0524263EB430349
:1002D00094EA050F00F0A780A4F10104D5F1200EE7
:1002E0000DDB02FA0EFC22FA05F2801841F1000142
:1002F00003FA0EF2801843FA05F359410EE0A5F116
:1003000020050EF1200E012A03FA0EFC28BF4CF046
:10031000020C43FA05F3C01851EBE37101F00045FC
:1003200007D54FF0000EDCF1000C7EEB00006EEB09
:100330000101B1F5801F1BD3B1F5001F0CD3490893
:100340005FEA30004FEA3C0C04F101044FEA4452EA
:1003500012F5800F80F09A80BCF1004F08BF5FEA71
:10036000500C50F1000041EB045141EA050130BD51
:100370005FEA4C0C404141EB0101013C28BFB1F563
:10038000801FE9D291F0000F04BF01460020B1FAAE
:1003900081F308BF2033A3F10B03B3F120020CDA81
:1003A0000C3208DD02F1140CC2F10C0201FA0CF05F
:1003B00021FA02F10CE002F11402D8BFC2F1200CC4
:1003C00001FA02F120FA0CFCDCBF41EA0C0190407A
:1003D000E41AA2BF01EB0451294330BD6FEA0404C3
:1003E0001F3C1CDA0C340EDC04F11404C4F12002AE
:1003F00020FA04F001FA02F340EA030021FA04F3C0
:1004000045EA030130BDC4F10C04C4F1200220FA16
:1004100002F001FA04F340EA0300294630BD21FA54
:1004200004F0294630BD94F0000F83F4801306BF1A
:1004300081F480110134013D4EE77FEA645C18BF0E
:100440007FEA655C29D094EA050F08BF90EA020FA5
:1004500005D054EA000C04BF1946104630BD91EA9D
:10046000030F1EBF0021002030BD5FEA545C05D1A0
:100470004000494128BF41F0004130BD14F58004DF
:100480003CBF01F5801130BD01F0004545F0FE4153
:1004900041F470014FF0000030BD7FEA645C1ABF88
:1004A000194610467FEA655C1CBF0B46024650EABF
:1004B000013406BF52EA033591EA030F41F40021EB
:1004C00030BD00BF90F0000F04BF0021704730B571
:1004D0004FF4806404F132044FF000054FF0000146
:1004E00050E700BF90F0000F04BF0021704730B507
:1004F0004FF4806404F1320410F0004548BF4042DC
:100500004FF000013EE700BF42004FEAE2014FEA30
:1005100031014FEA02701FBF12F07F4393F07F4F0B
:1005200081F06051704732F07F4208BF704793F00E
:100530007F4F04BF41F40021704730B54FF4607421
:1005400001F0004521F000411CE700BF50EA010224
:1005500008BF704730B54FF000050AE050EA0102CD
:1005600008BF704730B511F0004502D5404261EB3D
:1005700041014FF4806404F132045FEA915C3FF47E
:10058000D8AE4FF003025FEADC0C18BF03325FEA1B
:10059000DC0C18BF033202EBDC02C2F1200300FACC
:1005A00003FC20FA02F001FA03FE40EA0E0021FAF1
:1005B00002F11444BDE600BF70B54FF0FF0C4CF4DF
:1005C000E06C1CEA11541DBF1CEA135594EA0C0F91
:1005D00095EA0C0F00F0DEF82C4481EA030621EACC
:1005E0004C5123EA4C5350EA013518BF52EA033507
:1005F00041F4801143F4801338D0A0FB02CE4FF0B9
:100600000005E1FB02E506F00042E0FB03E54FF0E8
:100610000006E1FB03569CF0000F18BF4EF0010EE0
:10062000A4F1FF04B6F5007F64F5407404D25FEADC
:100630004E0E6D4146EB060642EAC62141EA55518F
:100640004FEAC52040EA5E504FEACE2EB4F1FD0CD1
:1006500088BFBCF5E06F1ED8BEF1004F08BF5FEA4F
:10066000500E50F1000041EB045170BD06F0004601
:1006700046EA010140EA020081EA0301B4EB5C04AE
:10068000C2BFD4EB0C0541EA045170BD41F48011A6
:100690004FF0000E013C00F3AB8014F1360FDEBFCB
:1006A000002001F0004170BDC4F10004203C35DAA7
:1006B0000C341BDC04F11404C4F1200500FA05F32A
:1006C00020FA04F001FA05F240EA020001F00042CB
:1006D00021F0004110EBD37021FA04F642EB060141
:1006E0005EEA430E08BF20EAD37070BDC4F10C046B
:1006F000C4F1200500FA04F320FA05F001FA04F22F
:1007000040EA020001F0004110EBD37041F100011A
:100710005EEA430E08BF20EAD37070BDC4F1200525
:1007200000FA05F24EEA020E20FA04F301FA05F28D
:1007300043EA020321FA04F001F0004121FA04F235
:1007400020EA020000EBD3705EEA430E08BF20EA05
:10075000D37070BD94F0000F0FD101F0004640003F
:1007600041EB010111F4801F08BF013CF7D041EAC1
:10077000060195F0000F18BF704703F000465200C5
:1007800043EB030313F4801F08BF013DF7D043EA96
:100790000603704794EA0C0F0CEA135518BF95EA4C
:1007A0000C0F0CD050EA410618BF52EA4306D1D1D3
:1007B00081EA030101F000414FF0000070BD50EAF2
:1007C000410606BF1046194652EA430619D094EA7C
:1007D0000C0F02D150EA013613D195EA0C0F05D166
:1007E00052EA03361CBF104619460AD181EA0301BA
:1007F00001F0004141F0FE4141F470014FF0000072
:1008000070BD41F0FE4141F4780170BD70B54FF00C
:10081000FF0C4CF4E06C1CEA11541DBF1CEA13558C
:1008200094EA0C0F95EA0C0F00F0A7F8A4EB05046E
:1008300081EA030E52EA03354FEA013100F0888065
:100840004FEA03334FF0805545EA131343EA12632E
:100850004FEA022245EA111545EA10654FEA0026E3
:100860000EF000419D4208BF964244F1FD0404F59C
:10087000407402D25B084FEA3202B61A65EB0305F8
:100880005B084FEA32024FF480104FF4002CB6EBB5
:10089000020E75EB030E22BFB61A754640EA0C0035
:1008A0005B084FEA3202B6EB020E75EB030E22BF75
:1008B000B61A754640EA5C005B084FEA3202B6EBB6
:1008C000020E75EB030E22BFB61A754640EA9C0075
:1008D0005B084FEA3202B6EB020E75EB030E22BF45
:1008E000B61A754640EADC0055EA060E18D04FEA03
:1008F000051545EA16754FEA06164FEAC30343EAA3
:1009000052734FEAC2025FEA1C1CC0D111F4801F6F
:100910000BD141EA00014FF000004FF0004CB6E768
:1009200011F4801F04BF01430020B4F1FD0C88BF07
:10093000BCF5E06F3FF6AFAEB5EB030C04BFB6EB12
:10094000020C5FEA500C50F1000041EB045170BD05
:100950000EF0004E4EEA113114EB5C04C2BFD4EB32
:100960000C0541EA045170BD41F480114FF0000EB6
:10097000013C90E645EA060E8DE60CEA135594EA32
:100980000C0F08BF95EA0C0F3FF43BAF94EA0C0F35
:100990000AD150EA01347FF434AF95EA0C0F7FF4AA
:1009A00025AF104619462CE795EA0C0F06D152EAFE
:1009B00003353FF4FDAE1046194622E750EA4106E2
:1009C00018BF52EA43067FF4C5AE50EA41047FF4F3
:1009D0000DAF52EA43057FF4EBAE12E74FF0FF3C58
:1009E00006E000BF4FF0010C02E000BF4FF0010C29
:1009F0004DF804CD4FEA410C7FEA6C5C4FEA430CA2
:100A000018BF7FEA6C5C1BD001B050EA410C0CBFF0
:100A100052EA430C91EA030F02BF90EA020F002052
:100A2000704710F1000F91EA030F58BF994208BFB9
:100A300090422CBFD8176FEAE37040F00100704776
:100A40004FEA410C7FEA6C5C02D150EA013C07D1CD
:100A50004FEA430C7FEA6C5CD6D152EA033CD3D018
:100A60005DF8040B704700BF8446104662468C4612
:100A70001946634600E000BF01B5FFF7B7FF002845
:100A800048BF10F1000F01BD4DF808EDFFF7F4FF6E
:100A90000CBF012000205DF808FB00BF4DF808EDF9
:100AA000FFF7EAFF34BF012000205DF808FB00BF1C
:100AB0004DF808EDFFF7E0FF94BF012000205DF83E
:100AC00008FB00BF4DF808EDFFF7CEFF94BF0120F3
:100AD00000205DF808FB00BF4DF808EDFFF7C4FFEC
:100AE00034BF012000205DF808FB00BF4FEA410C35
:100AF0007FEA6C5C02D150EA013C0AD14FEA430C18
:100B00007FEA6C5C02D152EA033C02D14FF0000054
:100B100070474FF0010070474FEA410212F5001292
:100B200015D211D56FF47873B3EB625212D94FEA34
:100B3000C12343F0004343EA505311F0004F23FA1E
:100B400002F018BF404270474FF00000704750EA73
:100B5000013005D111F0004008BF6FF00040704730
:100B60004FF00000704700BF4A0011D212F500128A
:100B700011D20DD56FF47873B3EB62520ED44FEAF5
:100B8000C12343F0004343EA505323FA02F0704775
:100B90004FF00000704750EA013002D14FF0FF30B3
:100BA00070474FF0000070474FEA4102B2F1E04356
:100BB00024BFB3F5001CDCF1FE5C0DD901F0004C44
:100BC0004FEAC0024CEA5070B2F1004F40EB830094
:100BD00008BF20F00100704711F0804F21D113F1C0
:100BE0003872BCBF01F00040704741F480114FEAF9
:100BF0005252C2F11802C2F1200C10FA0CF320FA82
:100C000002F018BF40F001004FEAC1234FEAD3239E
:100C100003FA0CFC40EA0C0023FA02F34FEA430308
:100C2000CCE77FEA625307D150EA01331EBF4FF091
:100C3000FE4040F44000704701F0004040F0FE40AC
:100C400040F40000704700BF80F0004002E000BFA9
:100C500081F0004142001FBF5FEA410392EA030FA7
:100C60007FEA226C7FEA236C6AD04FEA1262D2EBF1
:100C70001363C1BFD218414048404140B8BF5B42F6
:100C8000192B88BF704710F0004F40F4000020F08F
:100C90007F4018BF404211F0004F41F4000121F0A5
:100CA0007F4118BF494292EA030F3FD0A2F10102EF
:100CB00041FA03FC10EB0C00C3F1200301FA03F12D
:100CC00000F0004302D5494260EB4000B0F5000F50
:100CD00013D3B0F1807F06D340084FEA310102F10F
:100CE0000102FE2A51D2B1F1004F40EBC25008BFC1
:100CF00020F0010040EA03007047490040EB00008B
:100D0000013A28BFB0F5000FEDD2B0FA80FCACF18B
:100D1000080CB2EB0C0200FA0CF0AABF00EBC250B8
:100D200052421843BCBFD0401843704792F0000FA6
:100D300081F4000106BF80F400000132013BB5E7F9
:100D40004FEA41037FEA226C18BF7FEA236C21D06F
:100D500092EA030F04D092F0000F08BF08467047D4
:100D600090EA010F1CBF0020704712F07F4F04D1A2
:100D7000400028BF40F00040704712F100723CBFB5
:100D800000F50000704700F0004343F0FE4040F4DF
:100D9000000070477FEA226216BF08467FEA23639D
:100DA0000146420206BF5FEA412390EA010F40F488
:100DB000800070474FF0000304E000BF10F00043D4
:100DC00048BF40425FEA000C08BF704743F09643BB
:100DD00001464FF000001CE050EA010208BF7047D6
:100DE0004FF000030AE000BF50EA010208BF70475D
:100DF00011F0004302D5404261EB41015FEA010C72
:100E000002BF84460146002043F0B64308BFA3F169
:100E10008053A3F50003BCFA8CF2083AA3EBC2534B
:100E200010DB01FA02FC634400FA02FCC2F120026A
:100E3000BCF1004F20FA02F243EB020008BF20F0A1
:100E40000100704702F1200201FA02FCC2F1200207
:100E500050EA4C0021FA02F243EB020008BF20EAFC
:100E6000DC7070474FF0FF0C1CEAD0521EBF1CEA2A
:100E7000D15392EA0C0F93EA0C0F6FD01A4480EA18
:100E8000010C400218BF5FEA41211ED04FF0006301
:100E900043EA501043EA5111A0FB01310CF000402D
:100EA000B1F5000F3EBF490041EAD3715B0040EA53
:100EB000010062F17F02FD2A1DD8B3F1004F40EB23
:100EC000C25008BF20F00100704790F0000F0CF0F6
:100ED000004C08BF49024CEA502040EA51207F3ABA
:100EE000C2BFD2F1FF0340EAC250704740F4000095
:100EF0004FF00003013A5DDC12F1190FDCBF00F086
:100F000000407047C2F10002410021FA02F1C2F133
:100F1000200200FA02FC5FEA310040F1000053EACF
:100F20004C0308BF20EADC70704792F0000F00F01D
:100F3000004C02BF400010F4000F013AF9D040EA23
:100F40000C0093F0000F01F0004C02BF490011F4B7
:100F5000000F013BF9D041EA0C018FE70CEAD153B5
:100F600092EA0C0F18BF93EA0C0F0AD030F0004C35
:100F700018BF31F0004CD8D180EA010000F00040E9
:100F8000704790F0000F17BF90F0004F084691F0A7
:100F9000000F91F0004F14D092EA0C0F01D14202E1
:100FA0000FD193EA0C0F03D14B0218BF084608D1AA
:100FB00080EA010000F0004040F0FE4040F40000F4
:100FC000704740F0FE4040F4400070474FF0FF0C87
:100FD0001CEAD0521EBF1CEAD15392EA0C0F93EACE
:100FE0000C0F69D0A2EB030280EA010C49024FEA20
:100FF000402037D04FF0805343EA111143EA1013D9
:101000000CF000408B4238BF5B0042F17D024FF490
:10101000000C8B4224BF5B1A40EA0C00B3EB510F6B
:1010200024BFA3EB510340EA5C00B3EB910F24BF54
:10103000A3EB910340EA9C00B3EBD10F24BFA3EBD9
:10104000D10340EADC001B0118BF5FEA1C1CE0D1A1
:10105000FD2A3FF650AF8B4240EBC25008BF20F054
:10106000010070470CF0004C4CEA50207F32C2BFA8
:10107000D2F1FF0340EAC250704740F400004FF045
:101080000003013A37E792F0000F00F0004C02BF76
:10109000400010F4000F013AF9D040EA0C0093F040
:1010A000000F01F0004C02BF490011F4000F013B9A
:1010B000F9D041EA0C0195E70CEAD15392EA0C0F02
:1010C00008D142027FF47DAF93EA0C0F7FF470AF3A
:1010D000084676E793EA0C0F04D14B023FF44CAF7D
:1010E00008466EE730F0004C18BF31F0004CCAD112
:1010F00030F000427FF45CAF31F000437FF43CAF4E
:101100005FE700BF4FF0FF3C06E000BF4FF0010C6F
:1011100002E000BF4FF0010C4DF804CD4FEA400251
:101120004FEA41037FEA226C18BF7FEA236C11D09B
:1011300001B052EA530C18BF90EA010F58BFB2EB4E
:10114000030088BFC81738BF6FEAE17018BF40F0CE
:10115000010070477FEA226C02D15FEA402C05D182
:101160007FEA236CE4D15FEA412CE1D05DF8040B07
:10117000704700BF844608466146FFE70FB5FFF79A
:10118000C9FF002848BF10F1000F0FBD4DF808ED52
:10119000FFF7F4FF0CBF012000205DF808FB00BF43
:1011A0004DF808EDFFF7EAFF34BF012000205DF89D
:1011B00008FB00BF4DF808EDFFF7E0FF94BF0120EA
:1011C00000205DF808FB00BF4DF808EDFFF7D2FFE7
:1011D00094BF012000205DF808FB00BF4DF808ED2A
:1011E000FFF7C8FF34BF012000205DF808FB00BFF7
:1011F0004FEA40024FEA41037FEA226C02D15FEAE4
:10120000402C08D17FEA236C02D15FEA412C02D145
:101210004FF0000070474FF00100704753B94AB9D2
:10122000002908BF00281CBF4FF0FF314FF0FF30EE
:1012300000F0AEB9ADF1080C6DE904CE00F03EF857
:10124000DDF804E0DDE9022304B0704738B5054657
:101250000C460022002328462146FFF71FFC28B930
:1012600028462146BDE8384000F00AB8284604F177
:10127000004100F005F8404261EB410138BD00BF7C
:10128000D0B500220B4B06460F46FFF795F9FFF746
:101290006BFC0446FFF716F90022074BFFF78CF9A9
:1012A00002460B4630463946FEF7CEFFFFF75CFCA0
:1012B0002146D0BD0000F03D0000F0412DE9F0478F
:1012C000089E0D4604468846002B4DD18A4294461E
:1012D00068D9B2FA82F252B101FA02F3C2F12001E6
:1012E00020FA01F10CFA02FC41EA030894404FEAAB
:1012F0001C41B8FBF1F71FFA8CFE01FB178807FBB6
:101300000EF0230C43EA084398420AD91CEB03036E
:1013100007F1FF3580F01E81984240F21B81023FA9
:1013200063441B1AB3FBF1F001FB103300FB0EFE0C
:10133000A4B244EA0344A6450AD91CEB040400F114
:10134000FF3380F00981A64540F2068164440238EB
:101350000021A4EB0E0440EA07401EB10023D44054
:10136000C6E90043BDE8F0878B4208D9002E00F0A3
:10137000EE800021C6E900050846BDE8F087B3FA13
:1013800083F100294AD1AB4202D3824200F2FC80B1
:10139000841A65EB030301209846002EE2D0C6E9CB
:1013A0000048DFE702B9FFDEB2FA82F2002A40F01D
:1013B0009180A1EB0C0001214FEA1C471FFA8CFE23
:1013C000B0FBF7F307FB1300250C45EA00450EFBC5
:1013D00003F0A84208D91CEB050503F1FF3802D23F
:1013E000A84200F2CE8043462D1AB5FBF7F007FB6A
:1013F00010550EFB00FEA4B244EA0544A64508D9E8
:101400001CEB040400F1FF3502D2A64500F2B680C1
:101410002846A4EB0E0440EA03409EE7C1F12007F2
:101420008B4022FA07FC4CEA030C25FA07FA4FEA34
:101430001C49BAFBF9F820FA07F309FB18AA8D40FA
:101440001FFA8CFE1D4300FA01F308FB0EF02C0C72
:1014500044EA0A44A04202FA01F20BD91CEB04044C
:1014600008F1FF3A80F08880A04240F28580A8F120
:1014700002086444241AB4FBF9F009FB104400FB91
:101480000EFEADB245EA0444A64508D91CEB04049F
:1014900000F1FF356CD2A6456AD90238644440EAAF
:1014A0000840A0FB0295A4EB0E04AC42C846AE4631
:1014B00056D353D0002E69D0B3EB080264EB0E0470
:1014C00022FA01F304FA07F71F43CC40C6E900747F
:1014D000002147E70CFA02FCC2F1200125FA01F3D2
:1014E0004FEA1C4720FA01F195400D43B3FBF7F199
:1014F00007FB11331FFA8CFE280C40EA034001FB66
:101500000EF3834204FA02F408D91CEB000001F147
:10151000FF382FD283422DD902396044C01AB0FB64
:10152000F7F307FB1300ADB245EA004503FB0EF0ED
:10153000A84208D91CEB050503F1FF3816D2A842D2
:1015400014D9023B6544281A43EA014138E7314681
:10155000304607E72F46E4E61846F9E64B45A9D2A0
:10156000B9EB020865EB0C0E0138A3E74346EAE746
:10157000284694E74146D1E7D0467BE764440238E9
:1015800047E7023B65442FE7084606E73146E9E6B0
:10159000704700BFB0B592B000AF7860396078682E
:1015A00000F0ECF97B6802225A737B683A689A6013
:1015B000184B07F138040FCB84E80F0007F138030C
:1015C000002118460CF036F802467B681A60124B70
:1015D00007F128040FCB84E80F0007F1280300214E
:1015E00018460CF027F802467B685A600B4B07F14F
:1015F0000C041D460FCD0FC495E8070084E80700D2
:1016000007F10C03796818460BF0FDFE00BF483760
:10161000BD46B0BDF44E0108044F0108144F010847
:1016200080B582B000AF78600B46FB707B689B7B17
:10163000012B60D17B68B3F8C1389BB21A467B6836
:101640001344FA7883F8C120FB780A2B34D17B68E5
:10165000B3F8C1389BB21A467B681344002283F862
:10166000C1207B6818687B68B3F8C3389BB201223D
:1016700019460CF007F87B68B3F8C1389BB240F20A
:10168000DC52934207D97B68002283F8C1280022EC
:1016900083F8C22808E07B68B3F8C1389BB20133F5
:1016A0009AB27B68A3F8C1287B68B3F8C1389AB2B4
:1016B0007B68A3F8C32808E07B68B3F8C1389BB205
:1016C00001339AB27B68A3F8C1287B68B3F8C138AC
:1016D0009BB2B3F5006F1CD17B68002283F8C12850
:1016E000002283F8C2287B68B3F8C1389AB27B68BD
:1016F000A3F8C3280DE07B68002283F8C1280022EC
:1017000083F8C2287B68B3F8C1389AB27B68A3F823
:10171000C32800BF0837BD4680BD80B584B000AF88
:1017200078607B681B6807F10A01002218460CF0FC
:101730006DFC0346002B08D07B68C1337A891344C3
:10174000FB60F968786800F0C9F801200BF0A7FE8B
:10175000E7E780B586B000AF786039607B6859688C
:1017600007F10C03002218460BF0CCFFFB68102B8E
:1017700005D13B69DAB23B681A70002300E001230F
:1017800018461837BD4680BD80B592B000AFF860EE
:101790000B467A60FB72FB7A032B41D0032B00F3DC
:1017A0009480002B02D0012B74D08EE000233B7577
:1017B000484B1A6807F11403114618460FF0B1FEA2
:1017C00007F11403796818460FF0ABFE07F1140314
:1017D0001846FEF72DFD03461A4607F1140313447D
:1017E0003D4A1188927819809A7000237B640DE03D
:1017F000FB68586807F114027B6C13441B780022C5
:1018000019460BF03FFF7B6C01337B6407F1140337
:101810001846FEF70DFD02467B6C9A42E8D854E06C
:1018200000233B752B4BDA6807F114031146184669
:101830000FF077FE07F11403796818460FF071FE78
:1018400007F114031846FEF7F3FC03461A4607F1A6
:1018500014031344204A1188927819809A70002347
:101860003B640DE0FB68586807F114023B6C1344BD
:101870001B78002219460BF005FF3B6C01333B64DB
:1018800007F114031846FEF7D3FC02463B6C9A425C
:10189000E8D81AE00023FB630DE0FB6858680D4BA5
:1018A0005A68FB6B13441B78002219460BF0EAFEC2
:1018B000FB6B0133FB63074B5B681846FEF7B8FC14
:1018C0000246FB6B9A42E8D800BF00BF4837BD46CE
:1018D00080BD00BF00000020304F010890B587B0E8
:1018E00000AF786039602249386810F0A3FC386195
:1018F00000237B6133E03869FEF79AFC04461D4AF9
:101900007B6952F823301846FEF792FC03469C424E
:1019100022D10023FB60174A7B6952F82330194615
:1019200038690FF015FEF860FB68002B14D0124ADE
:101930007B6952F82340F868FEF77AFC03460133CE
:101940003A68134419467868A0470346002B01D132
:10195000002308E0012306E07B6901337B617B699A
:10196000062BC8DD012318461C37BD4690BD00BFBD
:10197000344F0108300400201404002080B483B0E8
:1019800000AF7860174B184A1A60164B174A5A6016
:10199000144B174A9A60134B164ADA60114B164AD9
:1019A0001A61104B154A5A610E4B154A9A61154B34
:1019B000154A1A60134B154A5A60124B144A9A6022
:1019C000104B144ADA600F4B134A1A610D4B134A3D
:1019D0005A610C4B124A9A6100BF0C37BD4680BC5D
:1019E000704700BF14040020251A0008491A000897
:1019F000611A0008791B00089D1B0008C11B000824
:101A0000091C000830040020384F0108404F01082D
:101A10004C4F0108584F0108644F0108704F0108EE
:101A20007C4F010880B582B000AF786039607B6878
:101A30009B6801224FF4FA7118460BF023FE002335
:101A400018460837BD4680BD80B483B000AF7860CB
:101A50003960002318460C37BD4680BC7047000033
:101A600080B586B000AF786039604149386810F0C1
:101A7000E1FBF8600021F86810F08AFB02467B6801
:101A8000C3F80F203A49002010F0D4FBF8607B68BF
:101A90001333F96818460FF053FD3549002010F054
:101AA000C9FBF8607B681D33F96818460FF048FDE4
:101AB0002F49002010F0BEFBF86000220021F868DA
:101AC00010F00CFD02467B685A622949002010F094
:101AD000B1FBF8600021F86810F05AFB02467B6801
:101AE0009A6200237B6116E02149002010F0A2FBDE
:101AF000F860FB68002B0BD000220021F86810F082
:101B0000EDFC01467A687B6908339B001344D96079
:101B10007B6901337B617B69112BE5DD00233B6130
:101B200016E01449002010F085FBF860FB68002BDC
:101B30000BD000220021F86810F0D0FC01467A6832
:101B40003B691A339B001344D9603B6901333B6105
:101B50003B69112BE5DD7B689B68012240F2F511A2
:101B600018460BF08FFD002318461837BD4680BD80
:101B7000884F01088C4F010880B582B000AF7860B3
:101B800039607B689B68012240F2F71118460BF020
:101B900079FD002318460837BD4680BD80B582B068
:101BA00000AF786039607B689B6801224FF4FC715C
:101BB00018460BF067FD002318460837BD4680BD68
:101BC00080B584B000AF786039600E49386810F095
:101BD00031FBF8600A220021F86810F003FC03468C
:101BE0001A467B68C3F8BC207B689B68012240F2E0
:101BF000F91118460BF046FD002318461037BD4674
:101C000080BD00BF904F010880B582B000AF786002
:101C100039607B689B6801224FF4FD7118460BF018
:101C200031FD002318460837BD4680BD80B586B01B
:101C300000AF786039607B68D3F8841107F10C033A
:101C4000012218460BF05EFDFB68102B04D13A69A7
:101C50003B681A60002304E0FB68402B01D102239B
:101C6000FFE718461837BD4680BD80B584B000AF89
:101C7000F860B9607A6001227968B8680BF002FDFB
:101C80000346002B01D0002300E001231846103743
:101C9000BD4680BD80B584B000AFF860B9607A60A1
:101CA000FB68BA68C3F88021FB687A68C3F88421AE
:101CB00001F040FD00BF1037BD4680BD90B589B032
:101CC00000AFF860B9607A603B6097F83030002B65
:101CD00013D1254B07F110040FCB84E80F0007F157
:101CE0001003002118460BF0A5FC0146FA68BB68FA
:101CF0005B0113440833196006E0FA68BB685B01B6
:101D0000134408333A681A60FB68D3F88421F968F1
:101D1000BB685B010B440C331A60FA68BB685B015B
:101D2000134404337A6B1A607A68F968BB685B0104
:101D30000B441A60FA68BB685B0113441833BA6B32
:101D40001A60FA68BB685B0113441C33FA6B1A60B3
:101D5000FA68BB685B011344143300221A7000BF99
:101D60002437BD4690BD00BF944F010880B584B0B4
:101D700000AFF860B9607A60FA68BB685B01134431
:101D800014331B78012B1FD0FA68BB685B01134426
:101D900014331B78022B17D0FA68BB685B0113441D
:101DA00010337A681A60FA68BB685B011344143315
:101DB00002221A70FB68D3F880310122B9681846F4
:101DC0000BF060FC002300E0012318461037BD46ED
:101DD00080BD80B582B000AF786039607A683B68BA
:101DE0005B011344143301221A707A683B685B016B
:101DF00013441B683A68520179680A440432104659
:101E000098477A683B685B011344143300221A70C8
:101E100000BF0837BD4680BD80B483B000AF786096
:101E200039607B683A68C3F8882100BF0C37BD462B
:101E300080BC704780B59EB000AF786007F16C033E
:101E400019467868FFF7F2FE0346002BF6D100230F
:101E50007B6721E07A687B6F5B01134414331B7846
:101E6000012B16D1F86E7B6F5B0118337A6813442F
:101E7000194600F036F80346002B0AD17A687B6FCA
:101E80005B01134408331B68FA6E19467868FFF744
:101E9000ECFE7B6F01337B677B6F0B2BDADD00235E
:101EA0003B6716E07B68D3F888315A683B6FDB00EC
:101EB00013441A68FB6E9A4208D17B68D3F88831C4
:101EC0005A683B6FDB0013445B6898473B6F0133F4
:101ED0003B677B68D3F888311A683B6F9A42E1D838
:101EE000ACE780B485B000AF786039600023FB6058
:101EF0000DE03B685A68FB689B0013441B687A68D6
:101F00009A4201D1002308E0FB680133FB603B6883
:101F10001A68FB689A42ECD8012318461437BD466C
:101F200080BC704780B582B000AF78603960012214
:101F3000396878680AF09AF80346002B01D100232B
:101F400000E0012318460837BD4680BD80B58CB03F
:101F500000AF786039607B683A68C3F850227B68CC
:101F6000002283F844227B68002283F84C227B689D
:101F7000012283F84D220023FB6293E05E49FA6A56
:101F800013465B0013449B000B44093301221A7073
:101F90007A68FB6A4FF4117101FB03F313440022CA
:101FA0001A7007F11403FA6A544918460FF056FAEA
:101FB000FB6A4FF4117202FB03F37A68134407F1D2
:101FC000140211461846FFF7ADFF0346002B5BD104
:101FD0007A68FB6A4FF4117101FB03F3134403F5B4
:101FE0000E7300221A707B6893F84C320133DAB218
:101FF0007B6883F84C2207F10C0207F1100107F10E
:10200000140318460AF0AFFF0346002B47D17A6845
:10201000FB6A4FF4117101FB03F313441C331B687B
:10202000023B7968FA6A4FF4117000FB02F20A442D
:102030000A32128802FB03F37B627A68FB6A4FF470
:10204000117101FB03F313440A331B881A463B69E1
:1020500002FB03F33B627B6A5A087968FB6A4FF420
:10206000117000FB03F30B4403F50F731A603B6A16
:102070005A087968FB6A4FF4117000FB03F30B44B4
:1020800003F510731A600AE07A68FB6A4FF4117165
:1020900001FB03F3134403F50E7301221A70FB6A6C
:1020A0000133FB62FB6A002B7FF768AF0023BB6242
:1020B00019E07A68BB6A4FF4117101FB03F3134412
:1020C00003F50E731B78002B0AD1BB6ADAB27B686A
:1020D00083F844227B68002283F84D22002306E027
:1020E000BB6A0133BB62BB6A002BE2DD01231846E9
:1020F0003037BD4680BD00BFD8250020A44F010861
:1021000080B584B000AFF8607B600B46FB7213466D
:102110003B81FA7A164913465B0013449B000B443B
:102120003A891A80FA7A124913465B0013449B00DD
:102130000B4404337A681A60FA7A0D4913465B003F
:1021400013449B000B44093301221A703B89002B76
:1021500008D07B68002B05D03B890122194678689E
:1021600004F092F8002318461037BD4680BD00BF2A
:10217000D825002090B5ADF5277D00AF07F5267472
:10218000A4F52374206007F52670A0F52470016083
:1021900007F52671A1F525710A6007F52672A2F5EB
:1021A0002672136007F52673A3F523731B68D3F813
:1021B00050324FF0FF3118460BF0B8F907F526738F
:1021C000A3F523731B6893F844321A4607F5267368
:1021D000A3F5267307F110001B6853490FF03EF971
:1021E00007F1100107F138030122184609F084FFB6
:1021F0000346002B40F0878007F1300307F5267275
:10220000A2F5257207F52671A1F5247107F13800B2
:10221000126809680AF031FA0346002B67D107F506
:102220002673A3F51A731B6807F52672A2F52572AB
:1022300012689A4210D007F1380318460AF069FE76
:1022400007F52673A3F523731B68D3F8503218469D
:102250000BF0BAF9012361E007F1300307F1360111
:1022600007F1380002220AF008FA0346002B04D1D5
:1022700007F1380318460AF04CFE07F52673A3F55C
:102280001A731B68022B01D0012347E007F5267360
:10229000A3F5257207F52673A3F524731168186852
:1022A00001F052FF0346A7F8963207F52673A3F212
:1022B0006223B3F90030B7F996229A420BD107F5A1
:1022C0002673A3F523731B68D3F8503218460BF01E
:1022D0007BF9002322E007F52673A3F523731B681F
:1022E000D3F8503218460BF06FF9012316E007F5CA
:1022F0002673A3F523731B68D3F8503218460BF0EE
:1023000063F901230AE007F52673A3F523731B681D
:10231000D3F8503218460BF057F90123184607F549
:102320002777BD4690BD00BFA84F010890B5ADF519
:10233000277D00AF07F52674A4F52374206007F508
:102340002670A0F52470016007F52671A1F52571AE
:102350000A6007F52672A2F52672136007F5267348
:10236000A3F523731B68D3F850324FF0FF311846A2
:102370000BF0DCF807F52673A3F523731B6893F8BD
:1023800044321A4607F52673A3F5267307F11800A1
:102390001B6843490FF062F807F1180107F1380391
:1023A0000A22184609F0A8FE0346002B67D107F55C
:1023B0002673A3F5257207F52673A3F52473116818
:1023C000186801F0C1FE03461A4607F52673A3F20A
:1023D00082231A8007F5257307F52672A2F5257268
:1023E00007F52671A1F5247107F138001268096814
:1023F0000AF0BDFA0346002B35D1D7F8943207F521
:102400002672A2F5257212689A4220D107F525732B
:1024100007F1160107F1380002220AF0A8FA034674
:10242000002B14D1D7F89432022B10D107F13803C6
:1024300018460AF06EFD07F52673A3F523731B6893
:10244000D3F8503218460BF0BFF8002322E007F50E
:102450002673A3F523731B68D3F8503218460BF08C
:10246000B3F8012316E007F52673A3F523731B6861
:10247000D3F8503218460BF0A7F801230AE007F50D
:102480002673A3F523731B68D3F8503218460BF05C
:102490009BF80123184607F52777BD4690BD00BF7E
:1024A000A84F010880B584B000AF786039603B6800
:1024B000D3F819307A68926A11461846FEF7CAFBBB
:1024C00003461A463B68C3F819203B681B687A68C4
:1024D000D2F80F2011461846FEF7BCFB03461A46F9
:1024E0003B681A603B68D3F815207B685B6A1A4426
:1024F0003B68C3F815200023FB6034E03A68FB68B2
:1025000006339B001344D3F805207968FB68083331
:102510009B000B44DB681A443968FB6806339B0058
:102520000B44C3F805203A68FB6818339B0013443A
:10253000D3F805207968FB681A339B000B44D968EF
:102540007868FB6808339B000344DB6801FB03F3F6
:102550001A443968FB6818339B000B44C3F8052004
:10256000FB680133FB60FB68112BC7DD00BF00BFB8
:102570001037BD4680BD90B587B000AFF860B96038
:102580007A607B681B68002B01D1012352E0BB6895
:10259000D3F8194023461C467B681B681846FEF793
:1025A00009FC034619462046FEF710FD03461A466D
:1025B000BB68C3F81920BB681C6823461C467B68AF
:1025C0001B681846FEF7F6FB034619462046FEF741
:1025D000FDFC03461A46BB681A6000237B6122E0BB
:1025E000BA687B6906339B001344D3F80530002B8F
:1025F00016D0BA687B6918339B001344D3F80520C2
:10260000B9687B6906339B000B44D3F80530B2FBF5
:10261000F3F2B9687B6918339B000B44C3F80520BB
:102620007B6901337B617B69112BD9DD7B680022DB
:102630001A60002318461C37BD4690BD2DE9F04FA7
:10264000D7B02EAFC7F89C00C7F89810C7F89420F1
:10265000C7F89030D7F89020D7F89410D7F89C009E
:10266000FFF789FF0346002B40F04E81D7F89430E6
:102670000433C7F88C30D7F8943003F10E01C7F853
:102680008810D7F894301B681846FDF73DFF804648
:102690008946A04B1B681846FDF736FF82468B46DD
:1026A0009D4B1B681846FDF72FFFC7E92001D7F89F
:1026B0009430D3F81540FC67D7F89430D3F819302C
:1026C0001846FDF721FFC7E91C01D7F89430D3F86D
:1026D0001D50BD67D7F89430D3F82160FE66D7F857
:1026E0009430D3F825C0C7F868C0D7F89430D3F831
:1026F00029E0C7F864E0D7F89430D3F82D203A6683
:10270000D7F89430D3F83140FC65D7F89430D3F83B
:102710003550BD65D7F89430D3F839607E65D7F869
:102720009430D3F83DC0C7F850C0D7F89430D3F8F0
:1027300041E0C7F84CE0D7F89430D3F84530BB649B
:10274000D7F89430D3F849207A64D7F89430D3F886
:102750004D003864D7F89430D3F85140FC63D7F873
:102760009430D3F85550BD63D7F89430D3F85960FE
:102770007E63D7F89430D3F85DC0C7F830C0D7F87F
:102780009430D3F861E0C7F82CE0D7F89430D3F850
:102790006530BB62D7F89430D3F869207A62D7F8F5
:1027A0009430D3F86D103962D7F89430D3F87100B3
:1027B000F861D7F89430D3F87540BC61D7F89430FD
:1027C000D3F879507D61D7F89430D3F87D603E61BD
:1027D000D7F89430D3F881C0C7F80CC0D7F894303C
:1027E000D3F885E0C7F808E0D7F89430D3F88930FB
:1027F0007B60D7F89430D3F88D203A60D7F89430C6
:10280000D3F89160D7F89430D3F89550D7F8943036
:10281000D3F89940D7F89430D3F89D00D7F8943086
:10282000D3F8A110D7F89430D3F8A520D7F8943076
:10283000D3F8A9302D932C922B912A902994289586
:1028400027963A6826927B682593D7F808E0CDF85A
:1028500090E0D7F80CC0CDF88CC03E6922967D6917
:102860002195BC692094F8691F90396A1E917A6A93
:102870001D92BB6A1C93D7F82CE0CDF86CE0D7F81A
:1028800030C0CDF868C07E6B1996BD6B1895FC6B97
:102890001794386C16907A6C1592BB6C1493D7F819
:1028A0004CE0CDF84CE0D7F850C0CDF848C07E6D74
:1028B0001196BD6D1095FC6D0F943A6E0E92D7F87F
:1028C00064E0CDF834E0D7F868C0CDF830C0FE6ED3
:1028D0000B96BD6F0A95D7E91C12CDE90812FC6F63
:1028E0000694D7E92012CDE90412CDE902ABCDE977
:1028F0000089D7F88830D7F88C200849D7F8980095
:102900000EF0ACFD002300E001231846A437BD46BD
:10291000BDE8F08F181300201C130020B04F0108F1
:1029200080B485B000AFF860B9607A60FB68064A91
:102930001A60BB68054A1A607B6880221A6000BF73
:102940001437BD4680BC70474C04002000050020B1
:1029500080B485B000AFF860B9607A60FB68074A60
:102960001A60BB68064A1A607B684FF480721A606E
:1029700000BF1437BD4680BC704700BF0007002071
:10298000B407002080B582B000AF786005F0C8FDC4
:10299000114B022200211148FFF7B2FB09E04FF46E
:1029A000FA700AF07CFD7B689B686521184600F090
:1029B000A7FF0B4B1B6819460848FFF7C7FA0346E9
:1029C000002BECD17B689B686421184600F098FFCF
:1029D00000BF0837BD4680BD00080140E02100204F
:1029E000D414002080B582B000AF786002F03CFAC9
:1029F0000346012B0BD102F02BFA02F04BFA7B6855
:102A00009B6840F22D11184600F07AFF06E07B68C3
:102A10009B684FF49671184600F072FF00BF0837AC
:102A2000BD4680BD80B5AEB002AF78603A4B1B6842
:102A300007F17400394A3A490EF010FD07F17403AA
:102A4000C7F8A83007F174031846FDF7F1FB0346F9
:102A5000C7F8AC3007F1A8031A460121314801F04C
:102A60009FFF314B93F8443219462B4B1B6807F1FB
:102A700074002E4A01920093284B0A462C490EF00E
:102A8000EDFC294BD3F850324FF0FF3118460AF0D5
:102A90004DFD07F1740301221946264809F02CFB6D
:102AA0000346002B23D107F10C0307F1100132225A
:102AB000204809F0E2FD0346002B0DD107F1100379
:102AC000C7F8A830FB68C7F8AC3007F1A8031A466E
:102AD0000121144801F064FFFB68322BE3D07B68CE
:102AE0009B684FF49971184600F00AFF06E07B6876
:102AF0009B6840F23311184600F002FF0D480AF0BF
:102B000008FA094BD3F8503218460AF05DFD00BFB1
:102B1000B037BD4680BD00BF682800204050010886
:102B200048500108D8140020E0210020645001081A
:102B300058500108B80B002080B58CB002AF786007
:102B4000524BD3F850324FF0FF3118460AF0EEFCEA
:102B50004F4BDB7C012B5CD14E4B1B6801334D4A44
:102B600013604A4B93F8443219464A4B1B6807F1ED
:102B70000800494A01920093484B0A4648490EF022
:102B80006DFC07F108030A221946464809F0B4FA19
:102B90000346002B0DD07B689B6840F23D11184620
:102BA00000F0AEFE394BD3F8503218460AF00CFD57
:102BB00068E0364B93F844321946364B1B6807F1F0
:102BC0000800394A01920093344B0A4634490EF00A
:102BD00045FC07F108030A221946344809F08CFA2B
:102BE0000346002B0DD07B689B6840F23D111846D0
:102BF00000F086FE254BD3F8503218460AF0E4FC6C
:102C000040E07B689B684FF49C71184600F078FEAA
:102C100032E01F4BDB7C022B2ED11C4B93F844324D
:102C200019461C4B1B6807F108001B4A01920093D0
:102C30001A4B0A461A490EF011FC07F1080332221A
:102C40001946184809F058FA0346002B0DD07B6846
:102C50009B6840F23D11184600F052FE0B4BD3F832
:102C6000503218460AF0B0FC0CE07B689B6840F2DA
:102C70003911184600F044FE044BD3F85032184680
:102C80000AF0A2FC2837BD4680BD00BFE02100202D
:102C9000D814002068280020645001084050010822
:102CA00058500108B80B00206C500108100E00208D
:102CB00080B582B000AF78600E4BD3F850324FF041
:102CC000FF3118460AF032FC0B480AF022F9094B92
:102CD000D3F8503218460AF077FC02F0DBF87B6834
:102CE0009B684FF49D71184600F00AFE00BF08373C
:102CF000BD4680BDE0210020B80B002080B584B027
:102D000000AF78600023BB601048FDF791FA0246DF
:102D100007F108030D490E4809F029FE0346FB732D
:102D2000FB7B002B07D17B689B6840F2451118465E
:102D300000F0E6FD06E07B689B684FF4A37118463F
:102D400000F0DEFD00BF1037BD4680BD1C11002025
:102D5000B80B002080B586B000AF78607B681B6838
:102D60003B610A23FB750A23BB75002201213869E8
:102D7000FEF70AFD7B685B6807F1080141F28832C3
:102D8000184600F0CCFD0346FB73FB7B002B0ED1F5
:102D9000BB68B3F5FD7F17D0BB6840F2F9129342D0
:102DA0000BD1BB7D013BBB750A23FB7505E0FB7BAB
:102DB000022B02D1FB7D013BFB75FB7D002B04D078
:102DC000BB7D002BD1D100E000BFBB7D002B0DD11E
:102DD0007B689B684FF4FE71184600F091FD7B689C
:102DE0009B684FF4A171184600F08AFDFB7D002B13
:102DF0000ED17B689B6840F2FB11184600F080FD05
:102E00007B689B684FF4A171184600F079FD06E0DD
:102E10007B689B6840F24311184600F071FD00BFCB
:102E20001837BD4680BD80B586B000AF78607B683E
:102E30001B683B610A23FB750A23BB750022032133
:102E40003869FEF7A1FC7B685B6807F1080141F275
:102E50008832184600F063FD0346FB73FB7B002BB2
:102E60000ED1BB68B3F5FC7F17D0BB6840F2F912F6
:102E700093420BD1BB7D013BBB750A23FB7505E07B
:102E8000FB7B022B02D1FB7D013BFB75FB7D002B05
:102E900004D0BB7D002BD1D100E000BFBB7D002B57
:102EA0000DD17B689B684FF4FE71184600F028FD39
:102EB0007B689B6840F24111184600F021FDFB7DC4
:102EC000002B0ED17B689B6840F2FB11184600F086
:102ED00017FD7B689B6840F24111184600F010FD19
:102EE00006E07B689B6840F2FD11184600F008FD83
:102EF00000BF1837BD4680BD80B586B000AF786092
:102F00007B681B683B610A23FB750A23BB750022A3
:102F100000213869FEF738FC7B685B6807F108011F
:102F200041F28832184600F0FAFC0346FB73FB7B43
:102F3000002B0ED1BB68B3F5FC7F17D0BB6840F205
:102F4000F91293420BD1BB7D013BBB750A23FB7584
:102F500005E0FB7B022B02D1FB7D013BFB75FB7D7A
:102F6000002B04D0BB7D002BD1D100E000BFBB7D86
:102F7000002B0DD17B689B684FF4FE71184600F062
:102F8000BFFC7B689B6840F24111184600F0B8FC1A
:102F9000FB7D002B0ED17B689B6840F2FB1118462D
:102FA00000F0AEFC7B689B6840F24111184600F0CF
:102FB000A7FC06E07B689B684FF4FF71184600F0A1
:102FC0009FFC00BF1837BD4680BD000080B586B0AD
:102FD00000AF78607B681B683B617B685B6807F1CA
:102FE0000C014FF0FF32184600F099FC0346002B0D
:102FF000F3D1FB6840F2F512934251D1414B1B686B
:103000000133404A13603F4B1B68012B29D13B69B8
:103010000F333D4A10461946AD231A460DF052FCB7
:1030200000237B6119E0384A7B6918339B00134405
:10303000D3F8052034497B6906339B000B44D3F851
:10304000053003FB02F230497B6918339B000B44C7
:10305000C3F805207B6901337B617B69112BE2DDBD
:1030600003E029493869FFF71DFA284B1B684FF028
:1030700000011846FEF78AF80346002B41D0214B89
:10308000214A23493869FFF7D9FA0346002BA4D116
:103090007B689B6840F20221184600F031FC9CE7F7
:1030A000FB6840F2012293421CD1164B1B68002B97
:1030B00010D0144B144A16493869FFF7BFFA03467B
:1030C000002B8AD17B689B6840F20221184600F0F1
:1030D00017FC82E77B689B684FF40171184600F08B
:1030E0000FFC7AE7FB68B3F5A07F7FF476AF054B62
:1030F00000221A607B689B6840F20321184600F0AA
:10310000FFFB6AE7681000206C10002010130020FD
:103110001C11002090B585B000AF78607B681B68FB
:10312000FB60984B012283F8C0207B685B6807F145
:1031300008014FF0FF32184600F0F1FB0346002B68
:10314000F3D1BB6840F25E22934240F02F81FB68CE
:10315000D3F819308C491846FEF740F80346002B87
:1031600015D0FB68D3F8153087491846FEF722F8CA
:103170000346002B0BD0834B012283F8C0207B68D1
:103180009B6840F20621184600F0BAFB1EE0FB687F
:10319000D3F819307C491846FEF702F80346002B95
:1031A00014D0FB68D3F8153077491846FEF70CF8B1
:1031B0000346002B0AD0734B002283F8C0207B68A3
:1031C0009B6840F20521184600F09AFB6F4BD3F83C
:1031D00015306F4A126811461846FDF7E1FF0346A5
:1031E000002B66D0694BD3F8154023461C46684B2C
:1031F0001B68684A126811461846FDF729FD034608
:1032000019462046FDF7CCFF0346002B0BD15F4B40
:10321000D3F815304FF080411846FDF7C1FF034643
:10322000002B00F00C81594BD3F81530584A13602D
:10323000574B1B6858491846FDF7D0FF0346002B33
:1032400003D0544B554A1A602BE0514B1B6854492C
:103250001846FDF7C3FF0346002B03D04D4B4F4AE2
:103260001A601EE04A4B1B6847491846FDF7B6FF37
:103270000346002B03D0474B4A4A1A6011E0444BE7
:103280001B684FF080411846FDF7A8FF0346002B4E
:1032900003D0404B444A1A6003E03E4B4FF000021B
:1032A0001A607B689B6840F20121184600F028FBF9
:1032B0003BE7364BD3F81530354A126811461846AD
:1032C000FDF78CFF0346002B00F0B9802F4BD3F89D
:1032D000154023461C462E4B1B682E4A1268114689
:1032E0001846FDF7B7FC034619462046FDF776FF62
:1032F0000346002B00F0A380244BD3F81530244A5A
:103300001360234B1B6824491846FDF767FF0346EB
:10331000002B03D01F4B214A1A602BE01C4B1B686B
:103320001F491846FDF75AFF0346002B03D0194BDF
:103330001A4A1A601EE0164B1B6813491846FDF71F
:103340004DFF0346002B03D0124B164A1A6011E0C2
:103350000F4B1B684FF080411846FDF73FFF0346B7
:10336000002B03D00B4B104A1A6003E0094B4FF0BF
:1033700000021A607B689B6840F20121184600F049
:10338000BFFAD2E6181900200000C842D814002065
:10339000141300201013002000007A440000A04104
:1033A0000000FA43000020410000A040BB6840F24A
:1033B0000222934205D0BB6840F2032293427FF47D
:1033C000B4AE1F4BD3F815301E4A13601D4B1B685B
:1033D0001D491846FDF702FF0346002B03D01B4B87
:1033E0001B4A1A60A1E6174B1B681A491846FDF7DD
:1033F000F5FE0346002B03D0144B154A1A6094E6E1
:10340000104B1B6814491846FDF7E8FE0346002BD5
:1034100003D00E4B114A1A6087E60A4B1B684FF027
:1034200080411846FDF7DAFE0346002B03D0074B18
:103430000B4A1A6079E6054B4FF000021A6074E6F9
:10344000D81400201413002000007A441013002028
:103450000000A0410000FA430000C84200002041E3
:103460000000A04080B586B000AF78607B681B6824
:103470007B6164200AF013F87B685B6807F10C013C
:103480004FF0FF32184600F04AFA0346FB74FB7C0B
:10349000002BF1D1FB681946786901F05BFAEBE784
:1034A00080B500AF00F0C0F8002201210748FEF708
:1034B0005DFC00220A210548FEF758FC0022092184
:1034C0000248FEF753FC00BF80BD00BF342400203B
:1034D00080B500AF002200210248FEF747FC00BF84
:1034E00080BD00BF3424002080B500AF0022002141
:1034F000024801F055FA00BF80BD00BFD81400207B
:1035000080B500AF002202210248FEF72FFC00BF69
:1035100080BD00BF3424002080B500AF002203210D
:103520000248FEF723FC00BF80BD00BF342400200A
:1035300080B500AF0B4B93F8C030012B05D10022B2
:1035400008210948FEF712FC09E0064B93F8C03049
:10355000002B04D1002207210348FEF707FC00BF1F
:1035600080BD00BF181900203424002080B500AFB2
:10357000044BD3F884314FF4A071184600F0C0F921
:1035800000BF80BD3424002080B500AF044BD3F8C9
:10359000843140F20121184600F0B2F900BF80BD2D
:1035A0003424002080B500AF00220B210248FEF732
:1035B000DDFB00BF80BD00BF3424002080B500AF1C
:1035C000002206210248FEF7D1FB00BF80BD00BFEC
:1035D0003424002080B500AF002205210248FEF708
:1035E000C5FB00BF80BD00BF3424002080B500AF04
:1035F0000B4BD3F884314FF4A271184600F080F9D8
:1036000008490748FEF708FC054BD3F88431C92167
:10361000184600F075F9FFF7DDFF00BF80BD00BF61
:10362000342400208C01002080B500AF06490748F3
:10363000FEF7F2FB054BD3F88431C821184600F0A1
:103640005FF900BF80BD00BF84010020342400204A
:1036500080B500AF07490848FEF7DEFB064BD3F8FC
:103660008431C921184600F04BF9FFF73DFF00BF38
:1036700080BD00BF8C0100203424002080B500AF45
:1036800008490948FEF7C8FB002204210648FEF756
:103690006DFB054BD3F88431CA21184600F030F990
:1036A00000BF80BD940100203424002080B500AF0D
:1036B00007490848FEF7B0FB064BD3F88431CB210D
:1036C000184600F01DF9FFF70FFF00BF80BD00BFD7
:1036D0009C0100203424002080B500AF084909482F
:1036E000FEF79AFB002206210648FEF73FFB054B3A
:1036F000D3F88431CC21184600F002F900BF80BD18
:10370000A40100203424002080B500AF07490848F8
:10371000FEF782FB064BD3F88431C921184600F02E
:10372000EFF8FFF7E1FE00BF80BD00BF8C01002075
:103730003424002080B584B004AF564B039300239B
:10374000029300230193002300930023524A002197
:103750005248FEF7B3FA524B03931B230293514B8B
:1037600001930023009300234F4A01214B48FEF7A9
:10377000A5FA4E4B0393002302934A4B0193002377
:10378000009300234A4A02214448FEF797FA494B26
:10379000039300230293002301930023009300234B
:1037A000454A03213D48FEF789FA444B0393002321
:1037B000029300230193002300930023404A042135
:1037C0003648FEF77BFA3F4B039300230293002316
:1037D00001930023009300233B4A05212F48FEF765
:1037E0006DFA3A4B039302230293394B0193002362
:1037F00000930023374A06212848FEF75FFA364B2C
:10380000039302230293324B01930023009300237E
:10381000324A07212148FEF751FA314B0393022324
:1038200002932B4B01930023009300232D4A082180
:103830001A48FEF743FA2C4B039303230293244BBD
:103840000193002300930023284A09211348FEF71F
:1038500035FA274B039303230293124B0193002362
:1038600000930023234A0A210C48FEF727FA224B33
:10387000039300230293002301930023009300236A
:103880001E4A0B210548FEF719FAFFF709FE00BF93
:10389000BD4680BD20130020852900083424002067
:1038A00040000020D81400206534000824130020B4
:1038B000E529000828130020252A000828130020E5
:1038C000392B000828130020B12C0008100000201C
:1038D00018190020552D000818000020272E000878
:1038E00020000020F92E000828000020CD2F00081D
:1038F000340000201531000828130020FD2C00089A
:1039000080B582B000AF786039604FF0FF3239681F
:10391000786809F0B7FE00BF0837BD4680BD80B5A6
:1039200088B000AFF860B9607A6007F114037A6874
:10393000F968184609F0E6FE7B69102B04D1BA69D4
:10394000BB681A60002305E07B69402B01D102238C
:1039500000E0012318462037BD4680BDB0B5D2B087
:1039600000AF01F0F5FD00F05DF900F04DFA00F058
:1039700025FA00F099F900F0CDF900F0F5F90023EF
:10398000C7F840310023C7F8443107F5A07301217F
:10399000184609F098FD0346884A13600023C7F8CB
:1039A00038310023C7F83C3107F59C7301211846D4
:1039B00009F089FD0346824A13600023C7F83031BD
:1039C0000023C7F8343107F598730121184609F030
:1039D0007AFD03467B4A13600023C7F82831002391
:1039E000C7F82C3107F594730121184609F06BFDD7
:1039F0000346754A13600023C7F820310023C7F837
:103A0000243107F590730121184609F05CFD034647
:103A10006E4A13606E4B07F588740FCB84E80F0075
:103A200007F588730021184609F004FE0346694A29
:103A30001360674B07F580740FCB84E80F0007F520
:103A400080730021184609F0F5FD0346624A1360B1
:103A5000624B07F1E4041D460FCD0FC495E8070043
:103A600084E8070007F1E4030021184609F0CBFCC5
:103A700003465B4A13605B4B07F1C8041D460FCD3C
:103A80000FC495E8070084E8070007F1C803002188
:103A9000184609F0B8FC0346534A1360534B07F12C
:103AA000AC041D460FCD0FC495E8070084E807005D
:103AB00007F1AC030021184609F0A5FC03464C4A67
:103AC00013604C4B07F190041D460FCD0FC495E8D1
:103AD000070084E8070007F190030021184609F069
:103AE00092FC0346444A1360444B07F174041D469C
:103AF0000FCD0FC495E8070084E8070007F17403B1
:103B00000021184609F07FFC03463D4A13603D4BF7
:103B100007F158041D460FCD0FC495E8070084E84F
:103B2000070007F158030021184609F06CFC034612
:103B3000354A136007F5A473A3F58673334A1C4610
:103B400015460FCD0FC495E8070084E8070007F17C
:103B50003C030021184609F056FC03462C4A13602A
:103B600007F5A473A3F594732A4A1C4615460FCD96
:103B70000FC495E8070084E8070007F1200300213F
:103B8000184609F040FC0346234A136007F5A47366
:103B9000A3F5A273214A1C4615460FCD0FC495E824
:103BA000070084E807003B1D0021184609F02BFCA4
:103BB00003461B4A136009F01FFCFEE7C4140020F3
:103BC000C8140020CC140020D0140020D4140020ED
:103BD000E8500108BC140020C0140020F85001086F
:103BE00098140020145101089C1400203051010841
:103BF000A01400204C510108A414002068510108B1
:103C0000A814002084510108AC140020A051010820
:103C1000B0140020BC510108B4140020D851010890
:103C2000B814002080B590B000AF07F11803282227
:103C3000002118460CF054FE3B1D00221A605A6009
:103C40009A60DA601A610223BB610123BB62102310
:103C5000FB6202237B630023BB634FF42013FB63EF
:103C600007F11803184602F027FB0346002B01D08A
:103C700000F05AFA0F237B600223BB600023FB6035
:103C80004FF480633B6100237B613B1D012118469B
:103C900002F094FD0346002B01D000F045FA00BF6E
:103CA0004037BD4680BD000080B500AF174B184AB5
:103CB0001A60164B4FF482725A60144B00229A60BD
:103CC000124B0022DA60114B00221A610F4B0022C6
:103CD0005A610E4B4FF400729A610C4B0822DA6164
:103CE0000A4B00221A62094B00225A62074B00223B
:103CF0009A62064B0A22DA62044802F01FFF03466A
:103D0000002B01D000F010FA00BF80BD2813002066
:103D10000030014080B500AF114B124A1A60104BC1
:103D20004FF4E1325A600E4B00229A600C4B002295
:103D3000DA600B4B00221A61094B0C225A61084BC6
:103D400000229A61064B0022DA61054803F044FD27
:103D50000346002B01D000F0E7F900BF80BD00BF93
:103D6000081400200050004080B500AF114B124AEB
:103D70001A60104B4FF416425A600E4B00229A60A4
:103D80000C4B0022DA600B4B00221A61094B0C220B
:103D90005A61084B00229A61064B0022DA610548FD
:103DA00003F01AFD0346002B01D000F0BDF900BF5F
:103DB00080BD00BF501400200038014080B582B0A3
:103DC00000AF104B5B690F4A43F0010353610D4B89
:103DD0005B6903F001037B607B68002205210C20F6
:103DE00001F09DFC0C2001F0B6FC002205210D2005
:103DF00001F095FC0D2001F0AEFC00BF0837BD4678
:103E000080BD00BF0010024080B588B000AF07F150
:103E1000100300221A605A609A60DA60234B9B6993
:103E2000224A43F020039361204B9B6903F0200357
:103E3000FB60FB681D4B9B691C4A43F004039361C4
:103E40001A4B9B6903F00403BB60BB68174B9B696B
:103E5000164A43F010039361144B9B6903F010035F
:103E60007B607B68114B9B69104A43F008039361A8
:103E70000E4B9B6903F008033B603B680122022163
:103E80000B4802F001FA02233B6101237B6100230E
:103E9000BB610323FB6107F110031946044802F0DC
:103EA0005FF800BF2037BD4680BD00BF0010024054
:103EB0000008014080B582B000AF78607B68114A8D
:103EC00093420BD1104B1B7B19460F48FDF7A8FB03
:103ED00001220E490B4803F087FD0EE07B680C4A77
:103EE00093420AD10B4B1B7C19460A4800F097FC01
:103EF00001220949064803F077FD00BF0837BD4697
:103F000080BD00BF50140020181900202419002083
:103F100008140020D8140020E814002080B582B0D6
:103F200000AF78607B68184A934212D1174918484D
:103F3000FDF70FFC0346002B05D10122134912485F
:103F400003F01DFD1BE0134B1B68184609F03CFBFA
:103F500015E07B68104A934211D11049104800F0D7
:103F6000DEFC0346002B05D101220C490A4803F070
:103F700006FD04E00B4B1B68184609F025FB00BF4B
:103F80000837BD4680BD00BF50140020C925002061
:103F900018190020D014002008140020C825002083
:103FA000D8140020CC14002080B582B000AF786017
:103FB000134B1B68134A12681946134800F0BEFBE6
:103FC00001221249124803F00FFD0D4B1B681946E0
:103FD0001048FDF7DFFA01220F49104803F004FDF5
:103FE0000F4B1B68064A126819460E48FDF752FE31
:103FF0000C48FDF71FFF00BF0837BD4680BD00BF5E
:10400000C0140020C4140020D8140020E81400209C
:104010000814002018190020241900205014002032
:10402000BC1400203424002080B584B000AF786038
:10403000114B0A225A74114B1B684FF0FF3118467E
:1040400009F074FA07F10F0319460B4800F067FCFA
:104050000346002B07D107F10F0301221946084838
:1040600003F08DFC04E0054B1B68184609F0ACFA20
:10407000012009F014FADEE7D8140020CC14002047
:104080000814002080B586B000AF7860084B19682E
:1040900007F10C034FF0FF32184609F033FBFB68C1
:1040A000102BF3D13B6919460248FDF792FEEDE76C
:1040B000BC1400203424002080B584B000AF7860A8
:1040C0000E4B01229A730E4B93F84130DBB2212B39
:1040D0000FD007F10F0319460848FDF73AFB0346D6
:1040E000002B06D107F10F0301221946044803F003
:1040F00046FC012009F0D3F9E5E700BF18190020BC
:104100005014002080B582B000AF78607B681B68D7
:10411000044A934201D101F031FA00BF0837BD468D
:1041200080BD00BF002C014080B500AF72B600BF5B
:10413000642306220249034803F09EFBFEE700BF0A
:10414000F45101080814002080B485B000AF7860F5
:104150003960FF23FB73FF23BB7314E097F90E2034
:104160007B68591C79601B785340BB600F4ABB6861
:10417000134493F90020FB7B5340BB730C4ABB688C
:1041800013441B78FB733B685A1E3A60002BE5D141
:1041900097F90F301B021AB297F90E301BB2134376
:1041A0001BB218461437BD4680BC70474053010807
:1041B0004054010880B483B000AF0346FB71FA7924
:1041C000164913465B0013449B000B441A88144B9A
:1041D0001A80FA79114913465B0013449B000B4483
:1041E00004331B680F4A1360FA7913465B001344CB
:1041F0009B000833094A13440B4A1360FA791346AB
:104200005B0013449B000833044A13440133074AFC
:10421000136000BF0C37BD4680BC7047D825002016
:10422000D0250020D4250020CC250020CC2800203B
:1042300080B500AF044B1B68044A11880022184661
:1042400002F022F800BF80BDD4250020D025002038
:1042500080B500AF044B1B68044A11880122184640
:1042600002F012F800BF80BDD4250020D025002028
:1042700080B584B000AF03463960FB7197F9073011
:10428000002B0EDAFB7903F07F03FB71002177200E
:10429000FFF7EEFF0346BB73BB7B012B01D9BB7B52
:1042A0003BE0FB79184600F061F93B681B0EDBB27E
:1042B000184600F05BF93B681B0CDBB2184600F0B7
:1042C00055F93B681B0ADBB2184600F04FF93B6812
:1042D000DBB2184600F04AF90123FB73FB79402B4F
:1042E00001D19523FB73FB79482B01D18723FB7305
:1042F000FB7B184600F03AF90A23FB7300F043F900
:104300000346BB7397F90E30002B05DAFB7B013BAC
:10431000FB73FB7B002BF1D1BB7B18461037BD46EE
:1043200080BD000090B585B000AF0523FB725D4BEA
:104330001B6800221A7000214020FFF799FF0346F6
:10434000BB72BB7A012B05D0FB7A013BFB72FB7A77
:10435000002BF0D1BB7A012B40F09F8000F020F9B8
:104360004FF4D5714820FFF783FF0346012B58D146
:104370000023FB730CE0FC7B00F005F903461A46B2
:1043800004F110033B4403F80C2CFB7B0133FB735B
:10439000FB7B032BEFD9BB79012B7CD1FB79AA2BBB
:1043A00079D142F6E063BB8105E0B7F90C309BB2EE
:1043B000013B9BB2BB81B7F90C30002B07D04FF00B
:1043C0008041E920FFF754FF0346002BEDD1B7F9F8
:1043D0000C30002B5FD000217A20FFF749FF034605
:1043E000002B58D10023FB730CE0FC7B00F0CBF8D2
:1043F00003461A4604F110033B4403F80C2CFB7BE4
:104400000133FB73FB7B032BEFD93B7903F04003B4
:10441000002B01D00C2200E00422224B1B681A70F2
:1044200039E00021E920FFF723FF0346012B06D8DE
:104430001C4B1B6802221A70E923BB7305E0194B61
:104440001B6801221A704123BB7346F2A813BB817B
:1044500005E0B7F90C309BB2013B9BB2BB81B7F9C9
:104460000C30002B07D0BB7B00211846FFF700FF64
:104470000346002BEDD1B7F90C30002B07D04FF4D9
:1044800000715020FFF7F4FE0346002B03D0054BCC
:104490001B6800221A70002300E00123184614371D
:1044A000BD4690BDCC25002080B400AF00BFBD4606
:1044B00080BC704780B582B000AF0023FB8000F065
:1044C00062F803467B71FB880133FB807B79FF2B0D
:1044D00004D0FB884FF6FF729342F0D1FB884FF671
:1044E000FF72934201D1012300E07B79184608371F
:1044F000BD4680BD80B584B002AF786039603B684E
:104500009BB24FF0FF320092074A7968074802F0E9
:1045100099FB0346002B01D1002300E0012318463C
:104520000837BD4680BD00BF0826002028130020A4
:1045300080B586B002AF0346FB710023FB7307F121
:104540000F02F91D4FF4805300930123064802F037
:1045500079FB0346002B01D0FFF7A6FFFB7B184633
:104560001037BD4680BD00BF2813002080B582B043
:1045700000AF0346FB71FB791846FFF7D9FF00BF78
:104580000837BD4680BD80B582B000AFFF20FFF781
:10459000CFFF0346FB71FB7918460837BD4680BD47
:1045A00080B500AFFF20FFF7C3FF00BF80BD90B50F
:1045B00085B000AF7860396039685120FFF758FE48
:1045C00003467B737B7B002B01D005232FE0FFF795
:1045D000E7FF0023FB81FFF7D6FF03467B73FB89D0
:1045E0000133FB817B7BFE2B04D0FB894FF6FF72EE
:1045F0009342F0D1FB894FF6FF72934201D105231C
:1046000015E00023FB8109E0FB897A68D418FFF7E5
:10461000BAFF03462370FB890133FB81FB89B3F5A5
:10462000007FF1D3FFF7BCFFFFF7BAFF0023184666
:104630001437BD4690BD000080B588B000AFF8606B
:10464000B9601346FB800AF0C1FB0346394A136088
:10465000B9685920FFF70CFE0346FB75FB7D002B64
:1046600001D0062361E0FFF79BFF0023BB6135E02B
:10467000FC20FFF77BFF4FF40071F868FFF73AFF6B
:10468000FB6803F50073FB60FFF78AFFFFF788FF05
:10469000FFF779FF0346FB75FB7D03F01F03052B36
:1046A00001D0062341E00023FB83FFF76CFF0346A4
:1046B000FB75FB8B0133FB83FB7DFF2B04D0FB8B56
:1046C0004FF6FF729342F0D1FB8B4FF6FF7293428D
:1046D00001D1062329E0BB690133BB61FB88BA69BC
:1046E0009A42C5DBFD20FFF741FFFFF759FF00238A
:1046F000FB83FFF748FF0346FB75FB8B0133FB830E
:10470000FB7DFF2B04D0FB8B4FF6FF729342F0D161
:10471000FB8B4FF6FF72934201D1062305E00AF0AE
:1047200055FB0346044A1360002318462037BD4654
:1047300080BD00BFC0250020C4250020B0B594B0C6
:1047400000AFF860B9607A60FB684FF00002C3F810
:104750001520FB684FF00002C3F81920FB68002207
:10476000DA74FB6800221A75F86800F0A7F9FB6894
:10477000BA689A60FB687A68DA60194B07F14004FE
:104780000FCB84E80F0007F140030021184608F022
:1047900051FF0246FB681A60124B07F130040FCB41
:1047A00084E80F0007F130030021184608F042FFAB
:1047B0000246FB685A600C4B07F114041D460FCDEE
:1047C0000FC495E8070084E8070007F11403F968AF
:1047D000184608F018FE00BF5037BD46B0BD00BFF8
:1047E0001C5201082C5201083C52010880B584B0CB
:1047F00000AF78607B681B6807F10A010022184649
:1048000009F004FC0346002BF4D07B682D337A8931
:104810001344FB60F968786800F01CF9EAE780B59A
:1048200082B000AF78600B46FB707B685B7C0A2B24
:1048300062D1FB78002B5FD07B68B3F82D349BB23C
:104840001A467B681344FA7883F82D20FB780D2BE9
:1048500033D17B68B3F82D349BB21A467B6813447E
:10486000002283F82D207B6818687B68B3F82F340A
:104870009BB20122194608F005FF7B68B3F82D347E
:104880009BB2B3F5407F07D97B68002283F82D24C3
:10489000002283F82E2408E07B68B3F82D349BB205
:1048A00001339AB27B68A3F82D247B68B3F82D34CA
:1048B0009AB27B68A3F82F2408E07B68B3F82D3404
:1048C0009BB201339AB27B68A3F82D247B68B3F8BE
:1048D0002D349BB2B3F5806F1DD17B68002283F825
:1048E0002D24002283F82E247B68B3F82D349AB24D
:1048F0007B68A3F82F240EE07B68002283F82D2428
:10490000002283F82E247B68B3F82D349AB27B689A
:10491000A3F82F2400BF00BF0837BD4680BD80B577
:1049200086B000AF786039607B68596807F10C0386
:104930000022184608F0E6FEFB68102B05D13B6903
:10494000DAB23B681A70002300E0012318461837DA
:10495000BD4680BD80B584B000AF786039604FF44B
:1049600080600BF09FFF0346FB600B4B5A683B686F
:104970000A49F8680CF072FDF868FBF759FC034629
:104980001A46F968786800F039F8F8680BF092FF79
:1049900000BF1037BD4680BDAC0100205852010851
:1049A00090B587B000AFF8600B467A60FB72FB7A77
:1049B000002B02D0012B0ED019E00F4B1C680E4BC0
:1049C0001B681846FBF734FC03461A462146F86874
:1049D00000F014F80BE07B687B617B691B6819466B
:1049E0007B695B681A46F86800F008F800BF00BFF2
:1049F0001C37BD4690BD00BFAC01002080B586B01D
:104A000000AFF860B9607A60FB68DB684FF0FF3197
:104A1000184608F08BFD00237B610DE0FB685868A9
:104A20007B69BA6813441B784FF0FF32194608F0CF
:104A300029FE7B6901337B617B697A689A42EDD8F4
:104A4000FB68DB68184608F0BFFD00BF1837BD469D
:104A500080BD000080B584B000AF7860396000236D
:104A6000FB601EE00023BB60124AFB6852F8233053
:104A7000194638680CF06CFDB860BB68002B0DD08F
:104A80000D4AFB6852F82330396878689847034626
:104A9000002B01D1002308E0012306E0FB6801336D
:104AA000FB60FB680B2BDDDD012318461037BD468C
:104AB00080BD00BF382800200828002080B483B0C3
:104AC00000AF7860264B274A1A60254B264A5A6069
:104AD000234B264A9A60224B254ADA60204B254A0E
:104AE0001A611F4B244A5A611D4B244A9A611C4B80
:104AF000234ADA611A4B234A1A62194B224A5A6234
:104B0000174B224A9A62164B214ADA62214B224AFB
:104B10001A60204B214A5A601E4B214A9A601D4B55
:104B2000204ADA601B4B204A1A611A4B1F4A5A610D
:104B3000184B1F4A9A61174B1E4ADA61154B1E4AE1
:104B40001A62144B1D4A5A62124B1D4A9A62114B4B
:104B50001C4ADA6200BF0C37BD4680BC704700BFFC
:104B600008280020C94B0008294C0008E94C00081F
:104B7000894C00080D4D0008234D0008394D0008F0
:104B80005D4D0008C14D0008E54D0008094E0008C4
:104B90002D4E000838280020605201086852010894
:104BA000705201088052010888520108945201088D
:104BB0009C520108A4520108AC520108B4520108E9
:104BC000BC520108C452010880B584B000AF7860BF
:104BD0003960134938680DF02DFBF8601149002049
:104BE0000DF028FBF8607B68D3F8152013461A46B1
:104BF0007B68C3F819200021F8680DF0C9FA024655
:104C00007B68C3F815207B689B68012240F25E2117
:104C1000184608F037FD002318461037BD4680BD02
:104C2000CC520108D052010880B584B000AF786042
:104C30003960134938680DF0FDFAF8601149002019
:104C40000DF0F8FAF860FB681B78612B03D17B68E4
:104C50000122DA7406E0FB681B78622B02D17B68C4
:104C60000222DA747B689B68012240F259211846BF
:104C700008F008FD002318461037BD4680BD00BF70
:104C8000CC520108D052010880B584B000AF7860E2
:104C90003960134938680DF0CDFAF86011490020E9
:104CA0000DF0C8FAF860FB681B78612B03D17B68B4
:104CB0000122DA7406E0FB681B78622B02D17B6864
:104CC0000222DA747B689B6801224FF41671184641
:104CD00008F0D8FC002318461037BD4680BD00BF41
:104CE000CC520108D052010880B582B000AF786084
:104CF00039607B689B68012240F25B21184608F00E
:104D0000C1FC002318460837BD4680BD80B483B07F
:104D100000AF78603960002318460C37BD4680BC70
:104D2000704780B483B000AF7860396000231846C4
:104D30000C37BD4680BC704780B582B000AF78604C
:104D400039607B689B68012240F25A21184608F0BE
:104D500099FC002318460837BD4680BD80B584B055
:104D600000AF78603960154938680DF063FAF86073
:104D7000124900200DF05EFAF8607B681D330822AE
:104D8000F96818460BF09EFD0C4900200DF052FA10
:104D9000F8607B6825330822F96818460BF092FD0D
:104DA0007B689B6801224FF41771184608F06AFC73
:104DB000002318461037BD4680BD00BFCC52010805
:104DC00080B582B000AF786039607B689B68012253
:104DD00040F25D21184608F055FC002318460837BC
:104DE000BD4680BD80B582B000AF786039607B6819
:104DF0009B68012240F25F21184608F043FC002323
:104E000018460837BD4680BD80B582B000AF7860D7
:104E100039607B689B6801224FF41871184608F0CE
:104E200031FC002318460837BD4680BD80B582B0EE
:104E300000AF786039607B689B68012240F2612195
:104E4000184608F01FFC002318460837BD4680BDF1
:104E500080B400AF034B00221A6000BFBD4680BC87
:104E6000704700BF6828002080B500AF064B0422C1
:104E700006490748FDF77EF90346002B01D10023C0
:104E800000E00123184680BDB401002068280020FE
:104E9000E021002080B500AF064B042206490748F8
:104EA000FDF744FA0346002B01D1002300E0012363
:104EB000184680BDB401002068280020E0210020B1
:104EC00080B584B000AF184B9B69174A43F00103CB
:104ED0009361154B9B6903F00103BB60BB68124BE8
:104EE000DB69114A43F08053D3610F4BDB6903F058
:104EF00080537B607B6800220F216FF0010000F07F
:104F00000EFC0A4B5B68FB60FB6823F0E063FB6010
:104F1000FB6843F00073FB60044AFB68536000BF0A
:104F20001037BD4680BD00BF0010024000000140A8
:104F300080B58AB000AF786007F1140300221A60D0
:104F40005A609A60DA607B681B684E4A934240F070
:104F500094804D4B9B694C4A43F4805393614A4B78
:104F60009B6903F480533B613B69474B9B69464A0D
:104F700043F008039361444B9B6903F00803FB6013
:104F8000FB6828237B610223BB6103233B6207F19B
:104F9000140319463D4800F0E3FF10237B61002312
:104FA000BB610023FB6107F114031946374800F089
:104FB000D7FF374B5B687B627B6A43F0E0637B62C1
:104FC0007B6A43F001037B62314A7B6A5360314B59
:104FD000314A1A602F4B00225A602E4B00229A60F1
:104FE0002C4B8022DA602B4B00221A61294B0022C5
:104FF0005A61284B00229A61264B4FF48052DA61A5
:10500000244800F0B7FB0346002B01D0FFF78CF8D3
:105010007B68204ADA641F4A7B6853621F4B204A30
:105020001A601E4B10225A601C4B00229A601B4BC8
:105030008022DA60194B00221A61184B00225A6153
:10504000164B00229A61154B4FF48052DA611348D7
:1050500000F090FB0346002B01D0FFF765F87B685A
:105060000E4A9A640D4A7B68536200220521232070
:1050700000F055FB232000F06EFB00BF2837BD4633
:1050800080BD00BF0030014000100240000C014014
:1050900000000140801300201C000240C4130020C7
:1050A0003000024080B58CB000AF786007F120037B
:1050B00000221A605A609A60DA607B681B68464A70
:1050C000934245D1454BDB69444A43F48013D36195
:1050D000424BDB6903F48013FB61FB693F4B9B6927
:1050E0003E4A43F0100393613C4B9B6903F010036D
:1050F000BB61BB69394B9B69384A43F0200393611C
:10510000364B9B6903F020037B617B694FF480532E
:105110003B6202237B620323FB6207F120031946F3
:105120002F4800F01DFF04233B6200237B62002315
:10513000BB6207F1200319462A4800F011FF002244
:105140000521352000F0EBFA352000F004FB3EE0AD
:105150007B681B68244A934239D1204B9B691F4AC4
:1051600043F4804393611D4B9B6903F480433B618F
:105170003B691A4B9B69194A43F004039361174B2F
:105180009B6903F00403FB60FB684FF400733B6210
:1051900002237B620323FB6207F1200319461348B5
:1051A00000F0DEFE4FF480633B6200237B6200234D
:1051B000BB6207F1200319460C4800F0D1FE002223
:1051C0000521252000F0ABFA252000F0C4FA00BF2D
:1051D0003037BD4680BD00BF005000400010024087
:1051E0000010014000140140003801400008014057
:1051F00080B58CB000AF78600023BB6200237B6277
:10520000002387F82F302E4B9B692D4A43F400630F
:1052100093612B4B9B6903F40063BB60BB6807F190
:105220000C0207F110031146184601F039FC01F099
:1052300023FCB862BB6A234AA2FB03239B0C013BFD
:105240007B62214B214A1A601F4B40F2E732DA6041
:105250001D4A7B6A53601C4B00221A611A4B0022C4
:105260009A60194B00229A61174802F045F80346EC
:1052700087F82F3097F82F30002B1BD1124802F0FF
:1052800093F8034687F82F3097F82F30002B11D171
:10529000192000F060FA7B680F2B08D8002279688B
:1052A000192000F03CFA0A4A7B68136002E00123EF
:1052B00087F82F3097F82F3018463037BD4680BD1D
:1052C0000010024083DE1B436C280020002C0140AC
:1052D000C801002080B400AFFEE780B400AFFEE755
:1052E00080B400AFFEE780B400AFFEE780B400AF4B
:1052F000FEE780B400AF00BFBD4680BC7047000031
:1053000080B500AF024800F0EFFB00BF80BD00BFDA
:105310008013002080B500AF024800F0E5FB00BF1D
:1053200080BD00BFC413002080B500AF024802F06A
:105330009BF800BF80BD00BF6C28002080B500AF87
:10534000024801F02FFE00BF80BD00BF28130020DF
:1053500080B500AF024802F06DFB00BF80BD00BF0A
:105360005014002080B500AF024802F063FB00BF7C
:1053700080BD00BF0814002080B400AF0123184690
:10538000BD4680BC704780B582B000AF78603960A0
:105390000BF064F9034616221A604FF0FF331846EB
:1053A0000837BD4680BD80B582B000AF78604FF051
:1053B000FF317868FFF7E7FFFEE780B586B000AF02
:1053C000F860B9607A6000237B610AE0AFF3008087
:1053D0000146BB685A1CBA60CAB21A707B690133B5
:1053E0007B617A697B689A42F0DB7B6818461837E4
:1053F000BD4680BD80B586B000AFF860B9607A6008
:1054000000237B6109E0BB685A1CBA601B78184610
:10541000AFF300807B6901337B617A697B689A42D4
:10542000F1DB7B6818461837BD4680BD80B483B079
:1054300000AF78604FF0FF3318460C37BD4680BC94
:10544000704780B483B000AF786039603B684FF438
:1054500000525A60002318460C37BD4680BC704786
:1054600080B483B000AF7860012318460C37BD4686
:1054700080BC704780B485B000AFF860B9607A60D6
:10548000002318461437BD4680BC704780B586B0EF
:1054900000AF7860144A154BD31A7B617B693B617E
:1054A000134B1B68002B02D1114B124A1A60104B90
:1054B0001A687B6813443A699A4207D20BF0CEF817
:1054C00003460C221A604FF0FF3309E0084B1B68BB
:1054D000FB60074B1A687B681344054A1360FB683E
:1054E00018461837BD4680BD0000012000040000AA
:1054F000B428002058CC002080B400AF00BFBD46C7
:1055000080BC70470C480D490D4A002302E0D45876
:10551000C4500433C4188C42F9D30A4A0A4C0023FD
:1055200001E013600432A242FBD3FFF7E5FF0BF06A
:1055300091F9FEF713FA704700000020F8030020ED
:10554000B85E0108F803002058CC0020FEE70000F8
:1055500080B500AF084B1B68074A43F01003136087
:10556000032000F0D1F80F20FFF742FEFFF7A8FC60
:105570000023184680BD00BF0020024080B400AF69
:10558000054B1B781A46054B1B681344034A1360EE
:1055900000BFBD4680BC7047CC010020B828002069
:1055A00080B400AF024B1B681846BD4680BC7047F4
:1055B000B828002080B485B000AF78607B6803F025
:1055C0000703FB600C4BDB68BB60BA684FF6FF0358
:1055D0001340BB60FB681A02BB68134343F0BF6310
:1055E00043F40033BB60044ABB68D36000BF143788
:1055F000BD4680BC704700BF00ED00E080B400AF46
:10560000044BDB681B0A03F007031846BD4680BC49
:10561000704700BF00ED00E080B483B000AF0346E8
:10562000FB7197F90730002B0BDBFB7903F01F02AE
:10563000064997F907305B09012000FA02F241F8A8
:10564000232000BF0C37BD4680BC704700E100E05E
:1056500080B483B000AF03463960FB7197F907301F
:10566000002B0ADB3B68DAB20C4997F907301201CC
:10567000D2B20B4483F800230AE03B68DAB208494F
:10568000FB7903F00F03043B1201D2B20B441A76EC
:1056900000BF0C37BD4680BC704700BF00E100E092
:1056A00000ED00E080B489B000AFF860B9607A60C6
:1056B000FB6803F00703FB61FB69C3F10703042BDD
:1056C00028BF0423BB61FB690433062B02D9FB69A5
:1056D000033B00E000237B614FF0FF32BB6902FA1D
:1056E00003F3DA43BB681A407B699A404FF0FF31FD
:1056F0007B6901FA03F3D9437B680B4013431846D7
:105700002437BD4680BC704780B582B000AF78605A
:105710007868FFF74FFF00BF0837BD4680BD80B5F2
:1057200086B000AF0346B9607A60FB7300237B61EB
:10573000FFF764FF78617A68B9687869FFF7B2FFAC
:10574000024697F90F3011461846FFF781FF00BF58
:105750001837BD4680BD80B582B000AF0346FB71EF
:1057600097F907301846FFF757FF00BF0837BD46C7
:1057700080BD000080B485B000AF78600023FB607E
:105780007B68002B01D1012359E07B681B681A4616
:105790002D4B9A420FD87B681B681A462B4B13443B
:1057A0002B4AA2FB03231B099A007B681A647B68BF
:1057B000284ADA630EE07B681B681A46264B1344BE
:1057C000234AA2FB03231B099A007B681A647B68A7
:1057D000224ADA637B68022283F821207B681B68F7
:1057E0001B68FB60FB6823F47F5323F03003FB60EE
:1057F0007B685A687B689B681A437B68DB681A433E
:105800007B681B691A437B685B691A437B689B69E9
:105810001A437B68DB691343FA681343FB607B68B8
:105820001B68FA681A607B6800229A637B68012211
:1058300083F821207B68002283F82020002318466B
:105840001437BD4680BC704707040240F8FFFDBF17
:10585000CDCCCCCC00000240F8FBFDBF00040240E0
:1058600080B485B000AF78600023FB737B6893F849
:105870002130DBB2022B08D07B6804229A637B685C
:10588000002283F82020012320E07B681B681A682F
:105890007B681B6822F00E021A607B681B681A681E
:1058A0007B681B6822F001021A607B681A6C7B68B7
:1058B000DB6B012101FA02F25A607B68012283F856
:1058C00021207B68002283F82020FB7B18461437B8
:1058D000BD4680BC7047000080B584B000AF7860E2
:1058E0000023FB737B6893F82130DBB2022B05D0D9
:1058F0007B6804229A630123FB73D6E07B681B68F4
:105900001A687B681B6822F00E021A607B681B68AD
:105910001A687B681B6822F001021A607B681B68AA
:105920001A46644B9A4258D97B681B68624A934274
:105930004FD07B681B68614A934248D07B681B68E4
:105940005F4A934240D07B681B685E4A934238D0DE
:105950007B681B685C4A934230D07B681B685B4A5B
:10596000934228D07B681B68524A934220D07B68C0
:105970001B68574A934219D07B681B68554A93426B
:1059800012D07B681B68544A93420AD07B681B681C
:10599000524A934202D14FF480531BE04FF48033BC
:1059A00018E04FF4807315E0102313E0012311E099
:1059B0004FF080730EE04FF480130BE04FF4803310
:1059C00008E04FF4805305E04FF4807302E01023A9
:1059D00000E00123424A536057E07B681B68364A67
:1059E00093424FD07B681B68344A934248D07B680F
:1059F0001B68334A934240D07B681B68314A93420C
:105A000038D07B681B68304A934230D07B681B6873
:105A10002E4A934228D07B681B68264A934220D0A6
:105A20007B681B682A4A934219D07B681B68294A05
:105A3000934212D07B681B68274A93420AD07B6846
:105A40001B68264A934202D14FF480531BE04FF467
:105A5000803318E04FF4807315E0102313E0012326
:105A600011E04FF080730EE04FF480130BE04FF421
:105A7000803308E04FF4805305E04FF4807302E078
:105A8000102300E00123174A53607B68012283F84A
:105A900021207B68002283F820207B685B6B002B31
:105AA00003D07B685B6B78689847FB7B18461037A0
:105AB000BD4680BD80000240080002401C0002403C
:105AC0003000024044000240580002406C00024096
:105AD000080402401C040240300402404404024016
