:020000040800F2
:100000000000012051080008C9070008D5070008B2
:10001000DB070008E1070008E70700080000000010
:10002000000000000000000000000000ED070008D4
:10003000F907000800000000050800081108000882
:10004000990800089908000899080008990800080C
:1000500099080008990800089908000899080008FC
:1000600099080008990800089908000899080008EC
:1000700099080008990800089908000899080008DC
:1000800099080008990800089908000899080008CC
:1000900099080008990800089908000899080008BC
:1000A00099080008990800089908000899080008AC
:1000B000990800089908000899080008990800089C
:1000C000990800089908000899080008990800088C
:1000D000990800081D0800089908000899080008F8
:1000E0009908000899080008990800080000000015
:1000F0000000000000000000000000000000000000
:10010000000000000000000099080008990800089D
:10011000990800089908000899080008990800083B
:10012000990800089908000899080008990800082B
:10013000990800089908000899080008990800081B
:100140009908000899080008990800083108000873
:10015000000000000000000000000000000000009F
:10016000000000000000000000000000000000008F
:10017000000000000000000000000000000000007F
:10018000000000000000000000000000000000006F
:10019000000000000000000000000000000000005F
:1001A000000000000000000000000000000000004F
:1001B000000000000000000000000000000000003F
:1001C000000000000000000000000000000000002F
:1001D000000000000000000000000000000000001F
:0401E0005FF8E0F1F3
:1001E40010B5054C237833B9044B13B10448AFF36D
:1001F40000800123237010BD7C010020000000005A
:10020400A068000808B5034B1BB103490348AFF3CA
:10021400008008BD0000000080010020A0680008E4
:1002240053B94AB9002908BF00281CBF4FF0FF3159
:100234004FF0FF3000F074B9ADF1080C6DE904CE55
:1002440000F006F8DDF804E0DDE9022304B07047AD
:100254002DE9F0478C460446089E002B4BD18A4278
:10026400154667D9B2FA82F24AB1C2F1200701FAFF
:1002740002F320FA07F7954047EA030C94404FEA4B
:10028400154EBCFBFEF71FFA85F80EFB17C307FBE0
:1002940008F9210C41EA0343994509D9EB1807F100
:1002A400FF3180F01C81994540F21981023F2B44B3
:1002B400A3EB0903B3FBFEF00EFB103300FB08F1C4
:1002C400A4B244EA0344A14209D92C1900F1FF3332
:1002D40080F00781A14240F2048102382C4440EAB4
:1002E40007400027641A1EB10023D440C6E9004326
:1002F4003946BDE8F0878B4209D9002E00F0EC8026
:100304000027C6E9000138463946BDE8F087B3FA4C
:1003140083F7002F48D18B4202D3824200F2FB8044
:10032400841A61EB030301209C46002EE0D0C6E949
:10033400004CDDE702B9FFDEB2FA82F2002A40F097
:100344008F800127491B4FEA15481FFA85F9B1FB35
:10035400F8FE08FB1E1109FB0EF04FEA144C4CEAA0
:100364000143984207D9EB180EF1FF3102D29842AB
:1003740000F2CD808E461B1AB3FBF8F008FB103355
:1003840009FB00F9A4B244EA0344A14507D92C1996
:1003940000F1FF3302D2A14500F2B6801846A4EB67
:1003A400090440EA0E409EE7C7F12005BB4022FA4B
:1003B40005FC4CEA030C21FA05F44FEA1C4EB4FB8D
:1003C400FEF91FFA8CF80EFB194420FA05F3B94024
:1003D40009FB08FA19430B0C43EA0444A24502FA48
:1003E40007F200FA07F30BD91CEB040409F1FF3000
:1003F40080F08880A24540F28580A9F10209644416
:10040400A4EB0A04B4FBFEF00EFB104400FB08FA54
:1004140089B241EA0444A24508D91CEB040400F162
:10042400FF316BD2A24569D90238644440EA0940DD
:10043400A0FB0289A4EB0A044C454146CE4654D3A2
:1004440051D0002E69D05A1A64EB0E0404FA05F553
:1004540022FA07F3FC401D43C6E90054002747E78E
:100464009540C2F1200321FA03F04FEA1548B0FB8E
:10047400F8F71FFA85F908FB170024FA03F39140F3
:1004840007FB09FC0B43190C41EA00418C4504FAB3
:1004940002F407D9691807F1FF3031D28C452FD9FE
:1004A400023F2944A1EB0C01B1FBF8F008FB101C3E
:1004B40000FB09FE99B241EA0C418E4507D969183F
:1004C40000F1FF3318D28E4516D902382944A1EB26
:1004D4000E0140EA07473AE73746304608E70F4639
:1004E400E6E61846FBE64345ABD2B8EB020169EBFE
:1004F4000C0201389646A4E71846E8E7084695E753
:100504000746CFE781467BE702382C4447E7AEF144
:10051400020E2B442FE7384607E73746E8E600BFCC
:10052400704700BF80B500AF00F0B6F900F008F8DE
:1005340000F09AF800F06EF805F0A8FCFEE7000061
:1005440080B59CB000AF07F138033822002118466B
:1005540006F09CF907F1240300221A605A609A609D
:10056400DA601A613B1D20220021184606F08EF93C
:100574000123BB634FF480333B6404237B64012376
:10058400FB644FF48033FB630223BB654FF4803379
:10059400FB654FF480133B6602237B664FF4C06314
:1005A400BB661023FB6607F13803184601F092FD81
:1005B4000346002B01D000F079F80F237B6202235D
:1005C400BB628023FB624FF480633B6300237B6345
:1005D40007F124030121184602F092F80346002B88
:1005E40001D000F063F810237B604FF480033B627A
:1005F4003B1D184602F07AFA0346002B01D000F0A6
:1006040055F8034B01221A6000BF7037BD4680BD08
:100614007000424280B500AF114B124A1A60104B71
:100624004FF4E1325A600E4B00229A600C4B0022C8
:10063400DA600B4B00221A61094B0C225A61084BF9
:1006440000229A61064B0022DA61054802F080FB21
:100654000346002B01D000F029F800BF80BD00BF85
:10066400BC0300200038014080B483B000AF0E4BBF
:100674009B690D4A43F0200393610B4B9B6903F084
:1006840020037B607B68084B9B69074A43F00403A3
:100694009361054B9B6903F004033B603B6800BF17
:1006A4000C37BD4680BC70470010024080B400AFD8
:1006B40000BFBD4680BC704780B485B000AF154B09
:1006C4009B69144A43F001039361124B9B6903F045
:1006D4000103BB60BB680F4BDB690E4A43F08053D8
:1006E400D3610C4BDB6903F080537B607B680A4B5E
:1006F4005B68FB60FB6823F0E063FB60FB6843F02E
:100704008063FB60044AFB68536000BF1437BD4636
:1007140080BC7047001002400000014080B588B0E2
:1007240000AF786007F1100300221A605A609A60E3
:10073400DA607B681B68204A934239D11F4B9B695E
:100744001E4A43F4804393611C4B9B6903F480432A
:10075400FB60FB68194B9B69184A43F004039361DF
:10076400164B9B6903F00403BB60BB684FF4007332
:100774003B6102237B610323FB6107F110031946EC
:100784000F4800F023FB4FF480633B6100237B613F
:100794000023BB6107F110031946094800F016FB5A
:1007A40000220021252000F0D2F9252000F0EBF9E9
:1007B40000BF2037BD4680BD003801400010024014
:1007C4000008014080B400AF00BFBD4680BC704744
:1007D40080B400AFFEE780B400AFFEE780B400AFA2
:1007E400FEE780B400AFFEE780B400AF00BFBD46B3
:1007F40080BC704780B400AF00BFBD4680BC70476A
:1008040080B400AF00BFBD4680BC704780B500AF68
:1008140000F088F800BF80BD80B500AF024802F048
:10082400E5FA00BF80BD00BFBC03002080B500AF67
:10083400024800F064FD00BF80BD00BF9C10002092
:1008440080B400AF00BFBD4680BC7047002103E008
:100854000B4B5B58435004310A480B4B42189A42E5
:10086400F6D30A4A02E0002342F8043B084B9A42BA
:10087400F9D3FFF7E5FF05F0E5FFFFF753FE7047F7
:1008840048690008000000207C0100207C01002051
:100894009C140020FEE7000080B500AF084B1B68E5
:1008A400074A43F010031360032000F045F90020C9
:1008B40000F008F8FFF700FF0023184680BD00BFD2
:1008C4000020024080B582B000AF7860124B1A68F5
:1008D400124B1B7819464FF47A73B3FBF1F3B2FB56
:1008E400F3F3184600F05DF90346002B01D0012311
:1008F4000EE07B680F2B0AD8002279684FF0FF3096
:1009040000F025F9064A7B681360002300E0012308
:1009140018460837BD4680BD0000002008000020AE
:100924000400002080B400AF054B1B781A46054B29
:100934001B681344034A136000BFBD4680BC704764
:1009440008000020FC03002080B400AF024B1B68A9
:100954001846BD4680BC7047FC03002080B584B0B7
:1009640000AF7860FFF7F0FFB8607B68FB60FB685E
:10097400B3F1FF3F05D0094B1B781A46FB681344BB
:10098400FB6000BFFFF7E0FF0246BB68D31AFA68BA
:100994009A42F7D800BF1037BD4680BD080000203A
:1009A40080B485B000AF78607B6803F00703FB6018
:1009B4000C4BDB68BB60BA684FF6FF031340BB60A7
:1009C400FB681A02BB68134343F0BF6343F400336C
:1009D400BB60044ABB68D36000BF1437BD4680BC0B
:1009E400704700BF00ED00E080B400AF044BDB684B
:1009F4001B0A03F007031846BD4680BC704700BFBE
:100A040000ED00E080B483B000AF0346FB7197F9BA
:100A14000730002B0BDBFB7903F01F02064997F923
:100A240007305B09012000FA02F241F8232000BFDD
:100A34000C37BD4680BC704700E100E080B483B051
:100A440000AF03463960FB7197F90730002B0ADBCE
:100A54003B68DAB20C4997F907301201D2B20B4461
:100A640083F800230AE03B68DAB20849FB7903F013
:100A74000F03043B1201D2B20B441A7600BF0C37A9
:100A8400BD4680BC704700BF00E100E000ED00E01F
:100A940080B489B000AFF860B9607A60FB6803F095
:100AA4000703FB61FB69C3F10703042B28BF04237D
:100AB400BB61FB690433062B02D9FB69033B00E0ED
:100AC40000237B614FF0FF32BB6902FA03F3DA4380
:100AD400BB681A407B699A404FF0FF317B6901FA89
:100AE40003F3D9437B680B40134318462437BD46B0
:100AF40080BC704780B582B000AF78607B68013BF2
:100B0400B3F1807F01D301230FE00A4A7B68013BE4
:100B140053600F214FF0FF30FFF790FF054B002289
:100B24009A60044B07221A60002318460837BD4612
:100B340080BD00BF10E000E080B582B000AF7860F7
:100B44007868FFF72DFF00BF0837BD4680BD80B52C
:100B540086B000AF0346B9607A60FB7300237B6103
:100B6400FFF742FF78617A68B9687869FFF790FF08
:100B7400024697F90F3011461846FFF75FFF00BF92
:100B84001837BD4680BD80B582B000AF0346FB7107
:100B940097F907301846FFF735FF00BF0837BD4601
:100BA40080BD80B582B000AF78607868FFF7A2FF9F
:100BB400034618460837BD4680BD000080B584B0A2
:100BC40000AF78600023FB737B6893F82130022B1D
:100BD40005D07B6804229A630123FB73D6E07B680B
:100BE4001B681A687B681B6822F00E021A607B6817
:100BF4001B681A687B681B6822F001021A607B6814
:100C04001B681A46644B9A4258D97B681B68634A2E
:100C140093424FD07B681B68614A934248D07B68FB
:100C24001B68604A934240D07B681B685E4A9342CB
:100C340038D07B681B685D4A934230D07B681B6860
:100C44005B4A934228D07B681B68534A934220D066
:100C54007B681B68574A934219D07B681B68564AC5
:100C6400934212D07B681B68544A93420AD07B6833
:100C74001B68534A934202D14FF480531BE04FF454
:100C8400803318E04FF4807315E0102313E0012340
:100C940011E04FF080730EE04FF480130BE04FF43B
:100CA400803308E04FF4805305E04FF4807302E092
:100CB400102300E00123434A536057E07B681B681C
:100CC400364A93424FD07B681B68354A934248D0DA
:100CD4007B681B68334A934240D07B681B68324A66
:100CE400934238D07B681B68304A934230D07B688B
:100CF4001B682F4A934228D07B681B68264A93427C
:100D040020D07B681B682B4A934219D07B681B68F0
:100D1400294A934212D07B681B68284A93420AD01E
:100D24007B681B68264A934202D14FF480531BE030
:100D34004FF4803318E04FF4807315E0102313E070
:100D4400012311E04FF080730EE04FF480130BE0A9
:100D54004FF4803308E04FF4805305E04FF4807380
:100D640002E0102300E00123174A53607B6801224C
:100D740083F821207B68002283F820207B685B6B4A
:100D8400002B03D07B685B6B78689847FB7B184625
:100D94001037BD4680BD00BF8000024008000240FD
:100DA4001C0002403000024044000240580002404F
:100DB4006C000240080402401C040240300402405B
:100DC40044040240000402400000024080B48BB09E
:100DD40000AF7860396000237B6200233B6227E127
:100DE40001227B6A02FA03F3FB613B681B68FA6920
:100DF4001340BB61BA69FB699A4240F016813B68B3
:100E04005B68122B34D0122B0DD8022B2BD0022B63
:100E140004D8002B31D0012B1CD048E0032B43D045
:100E2400112B1BD043E0894A934226D0874A934230
:100E340006D8874A934220D0864A93421DD036E092
:100E4400854A934219D0854A934216D0844A9342E4
:100E540013D02CE03B68DB683B6228E03B68DB682E
:100E640004333B6223E03B68DB6808333B621EE0EB
:100E74003B68DB680C333B6219E03B689B68002BE2
:100E840002D104233B6212E03B689B68012B05D12D
:100E940008233B627B68FA691A6108E008233B6215
:100EA4007B68FA695A6102E000233B6200BFBB69B8
:100EB400FF2B01D87B6801E07B6804337B61BB694D
:100EC400FF2B02D87B6A9B0002E07B6A083B9B00F5
:100ED4003B617B691A680F213B6901FA03F3DB4329
:100EE4001A40396A3B6901FA03F31A437B691A60B1
:100EF4003B685B6803F08053002B00F09680594BED
:100F04009B69584A43F001039361564B9B6903F074
:100F14000103BB60BB68544A7B6A9B08023352F8E6
:100F24002330FB607B6A03F003039B000F2202FA69
:100F340003F3DB43FA681340FB607B684B4A93423C
:100F440013D07B684A4A93420DD07B68494A934246
:100F540007D07B68484A934201D1032306E0042367
:100F640004E0022302E0012300E000237A6A02F095
:100F7400030292009340FA681343FB603A497B6A88
:100F84009B080233FA6841F823203B685B6803F44A
:100F94008033002B06D0394B1A683849BB69134398
:100FA4000B6006E0354B1A68BB69DB4333491340D9
:100FB4000B603B685B6803F40033002B06D02F4BB7
:100FC4005A682E49BB6913434B6006E02B4B5A68A1
:100FD400BB69DB43294913404B603B685B6803F4FE
:100FE4008013002B06D0254B9A682449BB69134310
:100FF4008B6006E0214B9A68BB69DB431F491340B1
:101004008B603B685B6803F40013002B06D01B4B1A
:10101400DA681A49BB691343CB6006E0174BDA68F8
:10102400BB69DB4315491340CB607B6A01337B62A8
:101034003B681A687B6A22FA03F3002B7FF4D0AE74
:1010440000BF2C37BD4680BC704700BF0000211094
:1010540000001110000012100000311000003210C6
:10106400000022100010024000000140000801406E
:10107400000C014000100140001401400004014034
:10108400F0B58FB00AAF78607B68002B01D10123E3
:101094000FE17B681B68BB607B6893F8BD33DBB2F0
:1010A400002B06D17B68002283F8BC23786805F006
:1010B400F9F87B68032283F8BD23BB68DB6B03F478
:1010C4008073002B02D17B6800221A617B681B6845
:1010D400184602F041FA7B681B683B607E686D46E7
:1010E40006F110040FCC0FC50FCC0FC594E8030014
:1010F40085E80300331D0ECB386802F039F9034646
:10110400002B05D07B68022283F8BD230123D0E0A5
:101114007B681B680021184602F02EFA0023FB733B
:101124004AE0FA7B79681346DB009B1A9B000B4468
:101134003D3301221A70FA7B79681346DB009B1A4F
:101144009B000B443C33FA7B1A70FA7BFB7B98B20E
:1011540079681346DB009B1A9B000B44423302461A
:101164001A80FA7B79681346DB009B1A9B000B44B8
:101174003F3300221A70FA7B79681346DB009B1A0E
:101184009B000B44443300221A60FA7B79681346AF
:10119400DB009B1A9B000B44483300221A60FA7B45
:1011A40079681346DB009B1A9B000B4450330022E2
:1011B4001A60FB7B0133FB73FA7B7B685B689A42A2
:1011C400AFD30023FB7344E0FA7B79681346DB005A
:1011D4009B1A9B000B4403F2FD1300221A70FA7B46
:1011E40079681346DB009B1A9B000B4403F5FE73DE
:1011F400FA7B1A70FA7B79681346DB009B1A9B0012
:101204000B4403F2FF1300221A70FA7B7968134629
:10121400DB009B1A9B000B4403F5017300221A6048
:10122400FA7B79681346DB009B1A9B000B4403F599
:10123400027300221A60FA7B79681346DB009B1A5A
:101244009B000B4403F5047300221A60FB7B0133FB
:10125400FB73FA7B7B685B689A42B5D37B681B6837
:101264003B607E686D4606F110040FCC0FC50FCCB1
:101274000FC594E8030085E80300331D0ECB3868DE
:1012840002F0A4F90346002B05D07B68022283F800
:10129400BD2301230DE07B68002283F838207B689E
:1012A400012283F8BD237B681B68184603F0FEF80F
:1012B400002318461437BD46F0BD80B582B000AF98
:1012C40078607B6893F8BC33012B01D1022312E0D0
:1012D4007B68012283F8BC237B681B68184602F0F4
:1012E4002BF97B681B68184603F0C0F87B68002262
:1012F40083F8BC23002318460837BD4680BD90B54B
:101304008DB000AF78607B681B683B623B6AFB6111
:101314007B681B68184603F077F90346002B40F0FE
:1013240054837B681B68184603F0E0F80346002BDF
:1013340000F04A837B681B68184603F0D7F803461D
:1013440003F00203022B07D17B681B685A697B6890
:101354001B6802F002025A617B681B68184603F09E
:10136400C5F8034603F01003102B61D17B681B689A
:101374009A697B681B6822F010029A613B6A1B6AB7
:10138400BB61BB6903F00F021346DB009B1A9B0091
:1013940003F5FC737A68134404337B61BB695B0C0B
:1013A40003F00F03022B24D1BA6947F6F0731340FC
:1013B400002B35D07B69D968BB691B099BB2C3F389
:1013C4000A039BB21A46386A02F031FF7B69DA6875
:1013D400BB691B09C3F30A031A447B69DA607B699E
:1013E4009A69BB691B09C3F30A031A447B699A61AE
:1013F40016E0BB695B0C03F00F03062B10D17B686E
:1014040003F5717308221946386A02F010FF7B69EC
:101414009A69BB691B09C3F30A031A447B699A617D
:101424007B681B689A697B681B6842F010029A61AA
:101434007B681B68184603F059F8034603F400233D
:10144400B3F5002F6ED100237B627B681B681846BE
:1014540003F05EF8B86262E0BB6A03F00103002B9C
:1014640057D07B681B687A6AD2B21146184603F0DB
:1014740081F838613B6903F00103002B0CD07B6ACF
:101484005A01FB69134403F530631A460123936040
:10149400796A786800F046FD3B6903F00803002B85
:1014A4000CD07B6A5A01FB69134403F530631A4676
:1014B40008239360796A786800F082FD3B6903F041
:1014C4001003002B08D07B6A5A01FB69134403F50F
:1014D40030631A46102393603B6903F02003002B0A
:1014E40008D07B6A5A01FB69134403F530631A463A
:1014F400202393603B6903F40053002B09D07B6ADB
:101504005A01FB69134403F530631A464FF4005340
:1015140093607B6A01337B62BB6A5B08BB62BB6A14
:10152400002B99D17B681B68184602F0DFFF034645
:1015340003F48023B3F5802F40F087807B681B6819
:10154400184602F0FEFFB86200237B627AE0BB6AB1
:1015540003F00103002B6FD07B681B687A6AD2B258
:101564001146184603F023F838613B6903F0010380
:10157400002B20D07B6A03F00F03012202FA03F34D
:10158400FB60FB6903F500635A6BFB68DB43F96995
:1015940001F5006113404B637B6A5A01FB691344F4
:1015A40003F510631A46012393607B6ADBB2194684
:1015B400786804F0C8FE3B6903F00803002B08D0E8
:1015C4007B6A5A01FB69134403F510631A46082326
:1015D40093603B6903F01003002B08D07B6A5A0127
:1015E400FB69134403F510631A46102393603B69A7
:1015F40003F04003002B08D07B6A5A01FB691344B3
:1016040003F510631A46402393603B6903F0020319
:10161400002B08D07B6A5A01FB69134403F510635D
:101624001A46022393603B6903F08003002B03D026
:10163400796A786800F0EDFB7B6A01337B62BB6AF0
:101644005B08BB62BB6A002B81D17B681B681846B0
:1016540002F04CFF034603F00043B3F1004F14D1F2
:10166400FB6903F500635B68FA6902F5006223F025
:1016740001035360786804F0D3FE7B681B685A69E1
:101684007B681B6802F000425A617B681B6818463D
:1016940002F02CFF034603F40063B3F5006F12D18C
:1016A400FB6903F500639B6803F00103012B02D17E
:1016B400786804F08FFE7B681B685A697B681B6836
:1016C40002F400625A617B681B68184602F00EFF40
:1016D400034603F48053B3F5805F40F0C580FB6993
:1016E40003F500635B68FA6902F5006223F0010305
:1016F40053607B681B681021184602F093F800239E
:10170400FB6256E0FB6A5A01FB69134403F510635C
:101714001A464FF67F339360FB6A5A01FB69134400
:1017240003F510631B68FA6A5101FA690A4402F569
:10173400106223F400131360FB6A5A01FB6913441B
:1017440003F510631B68FA6A5101FA690A4402F549
:10175400106243F000631360FB6A5A01FB6913448F
:1017640003F530631A464FF67F339360FB6A5A01E0
:10177400FB69134403F530631B68FA6A5101FA6983
:101784000A4402F5306223F400131360FB6A5A0121
:10179400FB69134403F530631B68FA6A5101FA6963
:1017A4000A4402F5306243F000631360FB6A0133BC
:1017B400FB627B685B68FA6A9A42A3D3FB6903F510
:1017C4000063DB69FA6902F5006243F00113D36137
:1017D4007B681B6B002B16D0FB6903F50063D3F801
:1017E4008430FA6902F5006243F00B03C2F88430D6
:1017F400FB6903F500635B6CFA6902F5006243F070
:101804000B03536415E0FB6903F500635B69FA6934
:1018140002F5006243F4005343F02B035361FB6968
:1018240003F500631B69FA6902F5006243F00B03D8
:101834001361FB6903F500631B68FA6902F5006232
:1018440023F4FE6313607B681A687B6803F5717385
:101854001946104602F008FF7B681B685A697B68CA
:101864001B6802F480525A617B681B68184602F0B8
:101874003DFE034603F40053B3F5005F24D17B68B7
:101884001B68184602F0CDFE7B681B68184602F000
:1018940025F803461A467B68DA607B681C6801F009
:1018A400D5F801467B68DB68DBB21A46204601F0B6
:1018B400A7FD786804F06FFD7B681B685A697B6834
:1018C4001B6802F400525A617B681B68184602F0D8
:1018D4000DFE034603F00803082B0AD1786804F0D0
:1018E4004CFD7B681B685A697B681B6802F0080220
:1018F4005A617B681B68184602F0F8FD034603F43E
:101904008013B3F5801F0FD100237B627B6ADBB2A7
:101914001946786804F0A4FD7B681B685A697B68E3
:101924001B6802F480125A617B681B68184602F037
:10193400DDFD034603F40013B3F5001F0FD10023AC
:101944007B627B6ADBB21946786804F077FD7B68BA
:101954001B685A697B681B6802F400125A617B6831
:101964001B68184602F0C2FD034603F08043B3F13E
:10197400804F0AD1786804F085FD7B681B685A693A
:101984007B681B6802F080425A617B681B681846BA
:1019940002F0ACFD034603F00403042B15D17B686D
:1019A4001B685B68BB61BB6903F00403002B02D0B6
:1019B400786804F075FD7B681B6859687B681B6850
:1019C400BA690A435A6000E000BF3437BD4690BD8F
:1019D40080B582B000AF78600B46FB707B6893F8EB
:1019E400BC33012B01D1022313E07B68012283F86D
:1019F400BC237B68FA7883F838207B681B68FA7804
:101A04001146184602F00DFD7B68002283F8BC23C2
:101A1400002318460837BD4680BD80B584B000AFAA
:101A24007860084611461A460346FB700B463B8015
:101A34001346BB700023FB7297F90330002B0FDAB7
:101A4400FB7803F00F021346DB009B1A9B0038332C
:101A54007A6813440433FB60FB6801225A700FE078
:101A6400FB7803F00F021346DB009B1A9B0003F57F
:101A7400FC737A6813440433FB60FB6800225A70D9
:101A8400FB7803F00F03DAB2FB681A703A88FB683C
:101A94009A60FB68BA78DA70FB685B78002B04D034
:101AA400FB681B789AB2FB68DA80BB78022B02D100
:101AB400FB6800221A717B6893F8BC33012B01D1B7
:101AC40002230EE07B68012283F8BC237B681B6839
:101AD400F968184601F020FF7B68002283F8BC23D4
:101AE400FB7A18461037BD4680BD80B584B000AF80
:101AF40078600B46FB7097F90330002B0FDAFB7804
:101B040003F00F021346DB009B1A9B0038337A68FC
:101B140013440433FB60FB6801225A700FE0FB7826
:101B240003F00F021346DB009B1A9B0003F5FC73C2
:101B34007A6813440433FB60FB6800225A70FB7814
:101B440003F00F03DAB2FB681A707B6893F8BC33B6
:101B5400012B01D102230EE07B68012283F8BC2310
:101B64007B681B68F968184601F05CFF7B680022FB
:101B740083F8BC23002318461037BD4680BD80B5CA
:101B840086B000AFF8607A603B600B46FB72FB7A6C
:101B940003F00F021346DB009B1A9B0003F5FC7352
:101BA400FA68134404337B617B697A68DA607B6981
:101BB4003A685A617B6900229A617B6900225A70F3
:101BC400FB7A03F00F03DAB27B691A70FB7A03F035
:101BD4000F03002B06D1FB681B687969184602F0D5
:101BE400D9F905E0FB681B687969184601F0F6FF2E
:101BF400002318461837BD4680BD80B483B000AFBB
:101C040078600B46FB70FB7803F00F02796813468B
:101C1400DB009B1A9B000B4403F505731B681846F5
:101C24000C37BD4680BC704780B586B000AFF86005
:101C34007A603B600B46FB72FB7A03F00F0213469B
:101C4400DB009B1A9B003833FA68134404337B612E
:101C54007B697A68DA607B693A685A617B69002239
:101C64009A617B6901225A70FB7A03F00F03DAB29E
:101C74007B691A70FB7A03F00F03002B06D1FB6813
:101C84001B687969184602F085F905E0FB681B6852
:101C94007969184601F0A2FF002318461837BD469B
:101CA40080BD80B584B000AF78600B46FB70FB78D4
:101CB40003F00F027B685B689A4201D901234EE06E
:101CC40097F90330002B0FDAFB7803F00F02134669
:101CD400DB009B1A9B0038337A6813440433FB609F
:101CE400FB6801225A700DE0FA781346DB009B1A58
:101CF4009B0003F5FC737A6813440433FB60FB68B0
:101D040000225A70FB6801229A70FB7803F00F03DB
:101D1400DAB2FB681A707B6893F8BC33012B01D1EB
:101D240002231CE07B68012283F8BC237B681B68C8
:101D3400F968184602F0A3FAFB7803F00F03002BAE
:101D440008D17B681A687B6803F5717319461046DD
:101D540002F08AFC7B68002283F8BC230023184627
:101D64001037BD4680BD80B584B000AF78600B46A7
:101D7400FB70FB7803F00F027B685B689A4201D921
:101D8400012342E097F90330002B0FDAFB7803F0CC
:101D94000F021346DB009B1A9B0038337A68134406
:101DA4000433FB60FB6801225A700FE0FB7803F0F8
:101DB4000F021346DB009B1A9B0003F5FC737A6841
:101DC40013440433FB60FB6800225A70FB68002252
:101DD4009A70FB7803F00F03DAB2FB681A707B6821
:101DE40093F8BC33012B01D102230EE07B6801225E
:101DF40083F8BC237B681B68F968184602F0ACFAC8
:101E04007B68002283F8BC23002318461037BD46A4
:101E140080BD80B588B000AF786039607B681B688E
:101E24007B617B693B613A681346DB009B1A9B002C
:101E340038337A6813440433FB60FB689A69FB689F
:101E44005B699A4201D9012367E0FB685A69FB6820
:101E54009B69D31AFB61FB689B68FA699A4202D9B1
:101E6400FB689B68FB61FB6903339B08BB6126E04D
:101E7400FB685A69FB689B69D31AFB61FB689B6822
:101E8400FA699A4202D9FB689B68FB61FB690333D8
:101E94009B08BB61FB68D9683B68DAB2FB699BB2FB
:101EA400786902F094F9FB68DA68FB691A44FB6804
:101EB400DA60FB689A69FB691A44FB689A613B68BB
:101EC4005A013B69134403F510639B699BB2BA69D9
:101ED4009A4209D8FB689A69FB685B699A4203D203
:101EE400FB685B69002BC3D1FB685A69FB689B697B
:101EF4009A4211D83B6803F00F03012202FA03F35C
:101F0400BB603B6903F500635A6BBB68DB4339690B
:101F140001F5006113404B63002318462037BD468A
:101F240080BD000080B586B000AF786039607B6802
:101F34001B687B617B693B617B693C3304331B68B1
:101F4400FB603B685A013B69134403F530639B68AB
:101F5400BB60FB68194A934224D1BB6803F4004375
:101F6400002B0AD03B685A013B69134403F53063E4
:101F74001A464FF4004393601AE0BB6803F0200351
:101F8400002B08D03B685A013B69134403F53063C6
:101F94001A46202393603B68DBB21946786804F044
:101FA400B7F905E03B68DBB21946786804F0B0F98C
:101FB400002318461837BD4680BD00BF0A31544F70
:101FC40080B586B000AF786039607B681B687B6140
:101FD4007B693B617B693C3304331B68FB603B6872
:101FE4005A013B69134403F530639B68BB60FB688B
:101FF4000C4A93420ED9BB6803F40043002B09D06A
:102004003B685A013B69134403F530631A464FF4A5
:1020140000439360786804F069F900231846183780
:10202400BD4680BD0A30544F80B485B000AF78609F
:102034000B46FB7013463B807B681B685B6ABB6086
:10204400FB78002B07D13B8819047B681B68BA68AE
:102054000A439A6228E07B681B689B6A1B0CBA6877
:102064001344BB600023FB730DE07B681A68FB7BA1
:1020740040339B0013445B681B0CBA681344BB6079
:10208400FB7B0133FB73FA7BFB78013B9A42ECD375
:102094003B8818047B681968FB78013BBA680243E3
:1020A40040339B000B445A60002318461437BD4646
:1020B40080BC704780B483B000AF78600B467B80EF
:1020C4007B681B687A885A62002318460C37BD4621
:1020D40080BC704780B586B000AF78607B68002B09
:1020E40001D1012304E37B681B6803F00103002B87
:1020F40000F08780924B5B6803F00C03042B0CD038
:102104008F4B5B6803F00C03082B12D18C4B5B687C
:1021140003F48033B3F5803F0BD1894B1B6803F480
:102124000033002B6CD07B689B68002B68D10123A3
:10213400DEE27B689B68B3F5803F06D1804B1B6869
:102144007F4A43F4803313602EE07B689B68002B46
:102154000CD17B4B1B687A4A23F480331360784B91
:102164001B68774A23F4802313601DE07B689B6817
:10217400B3F5A02F0CD1724B1B68714A43F4802332
:1021840013606F4B1B686E4A43F4803313600BE09B
:102194006B4B1B686A4A23F480331360684B1B68DB
:1021A400674A23F4802313607B689B68002B13D059
:1021B400FEF7CAFB386108E0FEF7C6FB02463B693E
:1021C400D31A642B01D9032392E25D4B1B6803F4F9
:1021D4000033002BF0D014E0FEF7B6FB386108E0C2
:1021E400FEF7B2FB02463B69D31A642B01D90323E1
:1021F4007EE2534B1B6803F40033002BF0D100E064
:1022040000BF7B681B6803F00203002B63D04C4BB8
:102214005B6803F00C03002B0BD0494B5B6803F0A5
:102224000C03082B1CD1464B5B6803F48033002B52
:1022340016D1434B1B6803F00203002B05D07B68C7
:102244005B69012B01D0012352E23D4B1B6823F053
:10225400F8027B689B69DB00394913430B603AE061
:102264007B685B69002B20D0364B01221A60FEF795
:102274006BFB386108E0FEF767FB02463B69D31A43
:10228400022B01D9032333E22D4B1B6803F0020315
:10229400002BF0D02A4B1B6823F0F8027B689B6963
:1022A400DB00274913430B6015E0264B00221A601C
:1022B400FEF74AFB386108E0FEF746FB02463B693D
:1022C400D31A022B01D9032312E21D4B1B6803F01E
:1022D4000203002BF0D17B681B6803F00803002B7A
:1022E4003AD07B68DB69002B19D0174B01221A60A6
:1022F400FEF72AFB386108E0FEF726FB02463B693D
:10230400D31A022B01D90323F2E10D4B5B6A03F0CC
:102314000203002BF0D0012000F0CAFB1CE00A4BA2
:1023240000221A60FEF710FB38610FE0FEF70CFB89
:1023340002463B69D31A022B08D90323D8E100BF14
:102344000010024000004242800442429B4B5B6A00
:1023540003F00203002BE9D17B681B6803F004033C
:10236400002B00F0A6800023FB75944BDB6903F07F
:102374008053002B0DD1914BDB69904A43F080537D
:10238400D3618E4BDB6903F08053BB60BB680123D0
:10239400FB758B4B1B6803F48073002B18D1884B9F
:1023A4001B68874A43F480731360FEF7CDFA3861E3
:1023B40008E0FEF7C9FA02463B69D31A642B01D937
:1023C400032395E17E4B1B6803F48073002BF0D04C
:1023D4007B681B69012B06D1784B1B6A774A43F053
:1023E400010313622DE07B681B69002B0CD1734B36
:1023F4001B6A724A23F001031362704B1B6A6F4A13
:1024040023F0040313621CE07B681B69052B0CD1C9
:102414006A4B1B6A694A43F004031362674B1B6AE5
:10242400664A43F0010313620BE0644B1B6A634A80
:1024340023F001031362614B1B6A604A23F0040317
:1024440013627B681B69002B15D0FEF77DFA386197
:102454000AE0FEF779FA02463B69D31A41F2883260
:10246400934201D9032343E1544B1B6A03F0020353
:10247400002BEED014E0FEF767FA38610AE0FEF7AD
:1024840063FA02463B69D31A41F28832934201D976
:1024940003232DE1494B1B6A03F00203002BEED109
:1024A400FB7D012B05D1454BDB69444A23F0805366
:1024B400D3617B68DB6A002B00F08C803F4B5B6848
:1024C40003F48033B3F5803F0ED13C4B5B6803F0DB
:1024D4000C03082B08D1394BDB6A03F48033B3F5C2
:1024E400803F01D1012303E17B68DB6A022B4ED1DB
:1024F400324B1B6803F08053002B09D02F4BDB6A4F
:1025040003F0F0027B685B6B9A4201D00123EFE099
:102514002C4B00221A60FEF717FA386108E0FEF728
:1025240013FA02463B69D31A642B01D90323DFE073
:10253400224B1B6803F00063002BF0D11F4BDB6AB6
:1025440023F0F0027B685B6B1C491343CB621B4B8B
:10255400DB6A23F470627B681B6B18491343CB62FC
:10256400184B01221A60FEF7EFF9386108E0FEF714
:10257400EBF902463B69D31A642B01D90323B7E074
:102584000E4B1B6803F00063002BF0D022E00B4BD2
:10259400DB6A0A4A23F48033D3620A4B00221A60AE
:1025A400FEF7D2F938610FE0FEF7CEF902463B6937
:1025B400D31A642B08D903239AE000BF0010024009
:1025C40000700040680042424B4B1B6803F00063FC
:1025D400002BE9D17B681B6A002B00F08880464BF6
:1025E4005B6803F00C03082B68D07B681B6A022B22
:1025F4004DD1424B00221A60FEF7A6F9386108E07B
:10260400FEF7A2F902463B69D31A022B01D9032330
:102614006EE0394B1B6803F00073002BF0D17B682C
:102624005B6AB3F5803F0FD1334BDA6A7B685B6832
:1026340031491343CB62304BDB6A23F00F027B68D2
:10264400DB682D491343CB622B4B5B6823F4741274
:102654007B68596A7B689B6A0B43274913434B6029
:10266400264B01221A60FEF76FF9386108E0FEF785
:102674006BF902463B69D31A022B01D9032337E0D5
:102684001D4B1B6803F00073002BF0D02FE01B4B95
:1026940000221A60FEF758F9386108E0FEF754F991
:1026A40002463B69D31A022B01D9032320E0124BC3
:1026B4001B6803F00073002BF0D118E07B681B6AE1
:1026C400012B01D1012313E00B4B5B68FB60FB681A
:1026D40003F480327B685B6A9A4206D1FB6803F498
:1026E40070127B689B6A9A4201D0012300E00023A8
:1026F40018461837BD4680BD0010024060004242B3
:1027040080B584B000AF786039607B68002B01D15C
:102714000123D0E06A4B1B6803F007033A689A422E
:1027240010D9674B1B6823F0070265493B681343C4
:102734000B60634B1B6803F007033A689A4201D0AD
:102744000123B8E07B681B6803F00203002B20D050
:102754007B681B6803F00403002B05D0594B5B68AE
:10276400584A43F4E06353607B681B6803F0080332
:10277400002B05D0534B5B68524A43F460535360BB
:10278400504B5B6823F0F0027B689B684D49134310
:102794004B607B681B6803F00103002B40D07B680F
:1027A4005B68012B07D1474B1B6803F40033002BF4
:1027B40015D101237FE07B685B68022B07D1414B75
:1027C4001B6803F00073002B09D1012373E03D4B18
:1027D4001B6803F00203002B01D101236BE0394B8A
:1027E4005B6823F003027B685B68364913434B60E4
:1027F400FEF7AAF8F8600AE0FEF7A6F80246FB68BE
:10280400D31A41F28832934201D9032353E02D4B6A
:102814005B6803F00C027B685B689B009A42EBD117
:10282400274B1B6803F007033A689A4210D2244BE3
:102834001B6823F0070222493B6813430B60204BBB
:102844001B6803F007033A689A4201D0012332E07F
:102854007B681B6803F00403002B08D0194B5B68EA
:1028640023F4E0627B68DB68164913434B607B68A2
:102874001B6803F00803002B09D0124B5B6823F498
:1028840060527B681B69DB000E4913434B6000F008
:1028940021F801460B4B5B681B0903F00F030A4A3E
:1028A400D35C21FA03F3094A1360094B1B681846E9
:1028B400FEF708F8002318461037BD4680BD00BF58
:1028C400002002400010024020690008000000209F
:1028D40004000020F0B591B000AF564B07F114048A
:1028E4000FCB07C42380544B3C1D0FCB84E80F004F
:1028F40000237B6300233B630023FB630023FB6211
:102904000023BB630023BB6200237B624B4B5B68E9
:102914007B637B6B03F00C03042B02D0082B03D0E6
:102924007FE0474BBB637FE07B6B9B0C03F00F03A3
:1029340007F14002134413F82C3CFB627B6B03F455
:102944008033002B65D03D4BDB6A03F00F0307F1A6
:102954004002134413F83C3C3B63384BDB6A03F4FA
:102964008033002B43D0354BDB6A1B0903F00F0384
:102974000133BB62314BDB6A1B0A03F00F030233E2
:102984007B627B6A19464FF00002FB6A4FF0000439
:1029940003FB02F501FB04F02844A1FB03340219F4
:1029A4001446274A02FB04F1002202FB03F20A4404
:1029B4002349A3FB015693191E46BB6A19464FF0DF
:1029C40000023B6B4FF0000403FB02FC01FB04F02C
:1029D4006044A1FB0334021914461A4623462846D0
:1029E4003146FDF71DFC03460C46FB6307E0FB6A1A
:1029F400134A02FB03F23B6BB2FBF3F3FB6397F85E
:102A040021301A46FB6A934208D1FB6B5B08FB63D7
:102A140004E0FB6A0B4A02FB03F3FB63FB6BBB633F
:102A240002E0094BBB6300BFBB6B18464437BD468D
:102A3400F0BD00BFB8680008C86800080010024074
:102A44008096980000093D0000127A0080B400AF1F
:102A5400024B1B681846BD4680BC7047000000202E
:102A640080B500AFFFF7F2FF0146054B5B681B0A18
:102A740003F00703034AD35C21FA03F3184680BD2D
:102A8400001002403069000880B500AFFFF7DEFF98
:102A94000146054B5B68DB0A03F00703034AD35C7A
:102AA40021FA03F3184680BD001002403069000883
:102AB40080B485B000AF78600A4B1B680A4AA2FB59
:102AC40003235B0A7A6802FB03F3FB6000BFFB6825
:102AD4005A1EFA60002BF9D100BF1437BD4680BCE2
:102AE400704700BF00000020D34D621080B588B04D
:102AF40000AF786000237B6100233B610023FB610E
:102B04007B681B6803F00103002B7DD00023FB7658
:102B14008B4BDB6903F08053002B0DD1884BDB69B1
:102B2400874A43F08053D361854BDB6903F08053BC
:102B3400FB60FB680123FB76824B1B6803F4807304
:102B4400002B18D17F4B1B687E4A43F480731360BB
:102B5400FDF7FAFE786108E0FDF7F6FE02467B69B0
:102B6400D31A642B01D90323E5E0764B1B6803F4E5
:102B74008073002BF0D0724B1B6A03F440733B61EB
:102B84003B69002B2ED07B685B6803F440733A6981
:102B94009A4227D06A4B1B6A23F440733B616A4B09
:102BA40001221A60684B00221A60654A3B6913626D
:102BB4003B6903F00103002B14D0FDF7C5FE7861D7
:102BC4000AE0FDF7C1FE02467B69D31A41F288325E
:102BD400934201D90323AEE0594B1B6A03F002036D
:102BE400002BEED0564B1B6A23F440727B685B6863
:102BF400534913430B62FB7E012B05D1504BDB6918
:102C04004F4A23F08053D3617B681B6803F00203AF
:102C1400002B08D04A4B5B6823F440427B689B68D6
:102C2400474913434B607B681B6803F00403002B84
:102C340008D0434BDB6A23F400327B68DB684049ED
:102C44001343CB627B681B6803F00803002B08D096
:102C54003B4BDB6A23F480227B681B6938491343AE
:102C6400CB62374BDB6A03F40033002B05D1344BC2
:102C7400DB6A03F48023002B01D00123FB61FB6991
:102C8400012B48D12E4B1B6803F08053002B38D105
:102C94002B4B1B6803F08063002B09D0284BDB6AA5
:102CA40003F0F0027B689B699A4201D0012342E061
:102CB400234BDB6A23F0F0027B689B6920491343B2
:102CC400CB621F4BDB6A23F470427B685B691C494F
:102CD4001343CB621D4B01221A60FDF735FE786168
:102CE40008E0FDF731FE02467B69D31A642B01D953
:102CF400032320E0124B1B6803F00053002BF0D099
:102D040009E00F4BDB6A03F470427B685B699A420B
:102D140001D001230FE07B681B6803F01003002B34
:102D240008D0074B5B6823F480027B68DB690449A5
:102D340013434B60002318462037BD4680BD00BFB7
:102D440000100240007000404004424270004242C1
:102D540080B582B000AF78607B68002B01D101237D
:102D64003FE07B6893F83930DBB2002B06D17B68F7
:102D7400002283F838207868FDF7D0FC7B68242291
:102D840083F839207B681B68DA687B681B6822F447
:102D94000052DA60786800F05DFA7B681B681A6993
:102DA4007B681B6822F490421A617B681B685A692D
:102DB4007B681B6822F02A025A617B681B68DA6808
:102DC4007B681B6842F40052DA607B680022DA6395
:102DD4007B68202283F839207B68202283F83A20FC
:102DE400002318460837BD4680BD000080B588B072
:102DF40000AF78607B681B681B68FB617B681B689D
:102E0400DB68BB617B681B685B697B6100233B619A
:102E14000023FB60FB6903F00F033B613B69002B5C
:102E24000DD1FB6903F02003002B08D0BB6903F02C
:102E34002003002B03D0786800F08BF9D1E03B69C4
:102E4400002B00F0B0807B6903F00103002B05D157
:102E5400BB6903F49073002B00F0A580FB6903F0B9
:102E64000103002B0AD0BB6903F48073002B05D047
:102E74007B68DB6B43F001027B68DA63FB6903F078
:102E84000403002B0AD07B6903F00103002B05D057
:102E94007B68DB6B43F002027B68DA63FB6903F057
:102EA4000203002B0AD07B6903F00103002B05D039
:102EB4007B68DB6B43F004027B68DA63FB6903F035
:102EC4000803002B0FD0BB6903F02003002B04D1AF
:102ED4007B6903F00103002B05D07B68DB6B43F0B7
:102EE40008027B68DA637B68DB6B002B78D0FB69B4
:102EF40003F02003002B07D0BB6903F02003002B51
:102F040002D0786800F025F97B681B685B6903F0E0
:102F14004003002B14BF01230023DBB2FB607B685A
:102F2400DB6B03F00803002B02D1FB68002B31D0CC
:102F3400786800F076F87B681B685B6903F04003EF
:102F4400002B23D07B681B685A697B681B6822F0BE
:102F540040025A617B685B6B002B13D07B685B6B10
:102F6400214A5A637B685B6B1846FDF727FE0346CC
:102F7400002B16D07B685B6B5B6B7A68526B1046D8
:102F840098470EE0786800F043F80AE0786800F0AB
:102F94003FF806E0786800F03BF87B680022DA63CB
:102FA4001EE000BF1CE0FB6903F08003002B08D087
:102FB400BB6903F08003002B03D0786800F062F84B
:102FC4000FE0FB6903F04003002B0AD0BB6903F058
:102FD4004003002B05D0786800F0A3F800BF00E0A0
:102FE40000BF2037BD4680BD6130000880B483B087
:102FF40000AF786000BF0C37BD4680BC704780B41A
:1030040083B000AF786000BF0C37BD4680BC70470A
:1030140080B483B000AF786000BF0C37BD4680BC7D
:10302400704780B483B000AF78607B681B68DA684F
:103034007B681B6822F49072DA607B681B685A69AB
:103044007B681B6822F001025A617B68202283F8A6
:103054003A2000BF0C37BD4680BC704780B584B0B1
:1030640000AF78607B685B6AFB60FB680022DA85EE
:10307400FB680022DA84F868FFF7CAFF00BF103744
:10308400BD4680BD80B485B000AF78607B6893F89E
:103094003930DBB2212B3ED17B689B68B3F5805F6E
:1030A40014D17B681B69002B10D17B681B6AFB6001
:1030B400FB681B881A467B681B68C2F308025A60C7
:1030C4007B681B6A9A1C7B681A6208E07B681B6A2F
:1030D400591C7A6811621A787B681B685A607B688D
:1030E400DB8C9BB2013B9BB27A681946D184002BDE
:1030F4000FD17B681B68DA687B681B6822F080024A
:10310400DA607B681B68DA687B681B6842F04002FF
:10311400DA60002300E0022318461437BD4680BC61
:10312400704780B582B000AF78607B681B68DA684E
:103134007B681B6822F04002DA607B68202283F8F7
:1031440039207868FFF752FF002318460837BD4638
:1031540080BD80B584B000AF78607B6893F83A3066
:10316400DBB2222B70D17B689B68B3F5805F17D1EB
:103174007B681B69002B13D10023FB607B689B6A6F
:10318400BB607B681B685B689BB2C3F308039AB29D
:10319400BB681A807B689B6A9A1C7B689A6226E0EB
:1031A4007B689B6AFB600023BB607B689B68B3F50C
:1031B400805F07D07B689B68002B0AD17B681B6902
:1031C400002B06D17B681B685B68DAB2FB681A7057
:1031D40008E07B681B685B68DBB203F07F03DAB24C
:1031E400FB681A707B689B6A5A1C7B689A627B68CE
:1031F400DB8D9BB2013B9BB27A681946D185002BCB
:1032040020D17B681B68DA687B681B6822F0200287
:10321400DA607B681B68DA687B681B6822F480725A
:10322400DA607B681B685A697B681B6822F00102BC
:103234005A617B68202283F83A207868FFF7DFFE22
:10324400002302E0002300E0022318461037BD46A5
:1032540080BD000080B584B000AF78607B681B68D7
:103264001B6923F440517B68DA687B681B680A4356
:103274001A617B689A687B681B691A437B685B697F
:103284001343BB607B681B68DB6823F4B05323F0F3
:103294000C037A681268B9680B43D3607B681B68B7
:1032A4005B6923F440717B689A697B681B680A43F5
:1032B4005A617B681B682C4A934203D1FFF7E4FBF5
:1032C400F86002E0FFF7CCFBF860FA6813469B0055
:1032D40013449A001A447B685B689B00B2FBF3F3C7
:1032E400224AA2FB03235B091901FA6813469B00D7
:1032F40013449A001A447B685B689B00B2FBF3F2A8
:103304001A4BA3FB02035B09642000FB03F3D31AEB
:103314001B013233154AA2FB03235B0903F0F003BC
:103324001944FA6813469B0013449A001A447B68B4
:103334005B689B00B2FBF3F20C4BA3FB02035B093B
:10334400642000FB03F3D31A1B013233074AA2FBA8
:1033540003235B0903F00F027B681B680A449A602D
:1033640000BF1037BD4680BD003801401F85EB51BA
:1033740084B080B584B000AF786007F11C0080E8A9
:103384000E003B6B012B22D17B689B6B23F48032B4
:103394007B689A637B68DB6823F4840323F040032F
:1033A4007A68D3607B68DB6823F440127B68DA6058
:1033B400FB6C012B05D17B68DB6843F480127B68CE
:1033C400DA60786801F098F90346FB7310E07B68D3
:1033D400DB6843F040027B68DA60786801F08CF9BE
:1033E4000346FB737B689B6B43F480327B689A6370
:1033F400FB7B18461037BD46BDE8804004B07047DB
:1034040080B487B000AFF860B9601346FB71FB79F4
:10341400022B65D1BB683E4A934206D9BB683D4A3C
:10342400934202D80F237B615CE0BB68394A934224
:1034340006D9BB68384A934202D80E237B6151E017
:10344400BB68354A934206D9BB68344A934202D8D2
:103454000D237B6146E0BB68304A934206D9BB68C2
:103464002F4A934202D80C237B613BE0BB682C4A71
:10347400934206D9BB682B4A934202D80B237B6143
:1034840030E0BB68274A934206D9BB68264A934278
:1034940002D80A237B6125E0BB68234A934206D9FC
:1034A400BB68224A934202D809237B611AE0BB68B5
:1034B4001E4A934206D9BB681D4A934202D8082388
:1034C4007B610FE0BB681A4A934206D9BB68194A6C
:1034D400934202D807237B6104E006237B6101E069
:1034E40009237B61FB68DB6823F47052FB68DA60B4
:1034F400FB68DA687B699B0203F470531A43FB6828
:10350400DA60002318461C37BD4680BC704700BFF4
:10351400BFACD800BFE1E400FF23F4007F730601D1
:103524009F491A01FF2C31013FA44C01FF356E0164
:103534001FABA601FF47E80180B483B000AF7860F9
:103544007B689B6843F001027B689A6000231846FD
:103554000C37BD4680BC704780B483B000AF786040
:103564007B689B6823F001027B689A6000231846FD
:103574000C37BD4680BC704780B582B000AF786020
:103584000B46FB707B68DB6823F0C0427B68DA6023
:10359400FB78012B06D17B68DB6843F000527B6823
:1035A400DA600BE0FB78002B06D17B68DB6843F024
:1035B40080427B68DA6001E0012303E03220FDF7FA
:1035C400CDF9002318460837BD4680BD84B080B5C8
:1035D40086B000AF786007F1240080E80E00002375
:1035E400FB757B68FB6000233B6109E07A683B69FB
:1035F40040339B00134400225A603B6901333B6112
:103604003B690E2BF2D97B689B6B43F400227B68E9
:103614009A63FB6803F560631A4600231360FB6832
:1036240003F500631946FB6803F500631A460B684B
:1036340013600321786800F039F91021786800F0EC
:10364400F1F80346002B01D00123FB75786800F0E4
:103654000DF90346002B01D00123FB75FB6803F52C
:1036640000631A4600231361FB6803F500631A46DE
:1036740000235361FB6803F500631A460023D361FA
:1036840000233B6143E03B695A01FB68134403F5A3
:1036940010631B6803F00043B3F1004F18D13B697A
:1036A400002B0AD13B695A01FB68134403F51063EC
:1036B4001A464FF00063136013E03B695A01FB683C
:1036C400134403F510631A464FF09043136008E067
:1036D4003B695A01FB68134403F510631A4600233F
:1036E40013603B695A01FB68134403F510631A46DF
:1036F400002313613B695A01FB68134403F510630B
:103704001A464FF67F3393603B6901333B617B6A12
:103714003A699A42B7D300233B6143E03B695A01BB
:10372400FB68134403F530631B6803F00043B3F1F3
:10373400004F18D13B69002B0AD13B695A01FB6841
:10374400134403F530631A464FF00063136013E02B
:103754003B695A01FB68134403F530631A464FF082
:103764009043136008E03B695A01FB68134403F576
:1037740030631A46002313603B695A01FB68134403
:1037840003F530631A46002313613B695A01FB6851
:10379400134403F530631A464FF67F3393603B6955
:1037A40001333B617B6A3A699A42B7D3FB6803F5FC
:1037B40000631B69FA6802F5006223F480731361E5
:1037C4007B6800229A617B686FF080425A617B6853
:1037D4009B6943F010027B689A617B689A69104B7D
:1037E40013437A689361FB6B002B05D07B689B695C
:1037F40043F008027B689A61FB6C012B07D17B685C
:103804009B6943F0804343F004037A689361FB7D32
:1038140018461837BD46BDE8804004B0704700BF65
:1038240000383C8080B485B000AF786039600023F4
:10383400FB603B689B0143F020027B681A61FB68D4
:103844000133FB60FB68084A934201D9032306E075
:103854007B681B6903F02003202BF0D0002318465B
:103864001437BD4680BC7047400D030080B485B05A
:1038740000AF78600023FB607B6810221A61FB684C
:103884000133FB60FB68084A934201D9032306E035
:103894007B681B6903F01003102BF0D0002318463B
:1038A4001437BD4680BC7047400D030080B485B01A
:1038B40000AF78600B46FB707B68FB60FB6803F528
:1038C40000631A68FB78F96801F5006113430B6023
:1038D400002318461437BD4680BC704780B487B0B7
:1038E40000AF78607B683B613B6903F500639B68CC
:1038F40003F00603FB60FB68022B02D0FB68062B77
:1039040002D10223FB7501E00F23FB75FB7D1846F2
:103914001C37BD4680BC704780B485B000AF78606A
:1039240039607B68FB603B681B78BB603B685B78F5
:10393400012B3AD1FB6803F50063DA693B681B7815
:1039440003F00F03012101FA03F39BB2F96801F5B7
:1039540000611343CB61BB685A01FB68134403F550
:1039640010631B6803F40043002B55D1BB685A0154
:10397400FB68134403F510631A683B689B68C3F340
:103984000A013B68DB789B041943BB689B050B4326
:103994001343BA685101FA680A4402F5106243F00D
:1039A400805343F40043136036E0FB6803F500637F
:1039B400DA693B681B7803F00F03012101FA03F372
:1039C4001B04F96801F500611343CB61BB685A011C
:1039D400FB68134403F530631B6803F40043002BB6
:1039E4001AD1BB685A01FB68134403F530631A68A3
:1039F4003B689B68C3F30A013B68DB789B040B4379
:103A04001343BA685101FA680A4402F5306243F07C
:103A1400805343F400431360002318461437BD4613
:103A240080BC704780B485B000AF786039607B6833
:103A3400FB603B681B78BB603B685B78012B61D102
:103A4400BB685A01FB68134403F510631B6803F059
:103A54000043B3F1004F1FD1BB685A01FB68134404
:103A640003F510631B68BA685101FA680A4402F549
:103A7400106243F000631360BB685A01FB6813448F
:103A840003F510631B68BA685101FA680A4402F529
:103A9400106243F080431360FB6803F50063DA6B44
:103AA4003B681B7803F00F03012101FA03F39BB277
:103AB400DB43F96801F500611340CB63FB6803F550
:103AC4000063DA693B681B7803F00F03012101FAF4
:103AD40003F39BB2DB43F96801F500611340CB614A
:103AE400BB685A01FB68134403F510631A68BB688A
:103AF4005901FB680B4403F510631946354B134019
:103B04000B6060E0BB685A01FB68134403F5306343
:103B14001B6803F00043B3F1004F1FD1BB685A0187
:103B2400FB68134403F530631B68BA685101FA68F3
:103B34000A4402F5306243F000631360BB685A0123
:103B4400FB68134403F530631B68BA685101FA68D3
:103B54000A4402F5306243F080431360FB6803F5C6
:103B64000063DA6B3B681B7803F00F03012101FA51
:103B740003F31B04DB43F96801F500611340CB63D5
:103B8400FB6803F50063DA693B681B7803F00F03F5
:103B9400012101FA03F31B04DB43F96801F5006119
:103BA4001340CB61BB685A01FB68134403F53063CF
:103BB4001A68BB685901FB680B4403F53063194666
:103BC400054B13400B60002318461437BD4680BCD8
:103BD400704700BF007833EC0078F3EF80B586B00F
:103BE40000AF786039607B687B613B681B783B6120
:103BF4003B685B78012B40F00A813B685B69002BD2
:103C040032D13B695A017B69134403F510631B6984
:103C14003A6951017A690A4402F5106223F0FF53AC
:103C240023F4C01313613B695A017B69134403F500
:103C340010631B693A6951017A690A4402F51062FA
:103C440043F4002313613B695A017B69134403F570
:103C540010631B693A6951017A690A4402F51062DA
:103C6400DB0CDB04136174E03B695A017B69134488
:103C740003F510631B693A6951017A690A4402F534
:103C84001062DB0CDB0413613B695A017B6913444A
:103C940003F510631B693A6951017A690A4402F514
:103CA400106223F0FF5323F4C01313613B695A01DC
:103CB4007B69134403F510631A693B6859693B68CF
:103CC4009B680B44591E3B689B68B1FBF3F3D90412
:103CD400AF4B0B40396948017969014401F5106122
:103CE40013430B613B695A017B69134403F5106369
:103CF4001A693B685B69C3F312033969480179693E
:103D0400014401F5106113430B613B68DB78012B1F
:103D14001FD13B695A017B69134403F510631B6986
:103D24003A6951017A690A4402F5106223F0C043EA
:103D340013613B695A017B69134403F510631B69E2
:103D44003A6951017A690A4402F5106243F000535A
:103D540013613B695A017B69134403F510631B68C3
:103D64003A6951017A690A4402F5106243F0044346
:103D740013603B68DB78012B15D03B685B69002B33
:103D840000F000817B6903F500635A6B3B681B7884
:103D940003F00F03012101FA03F3796901F50061CE
:103DA40013434B63EEE07B6903F500639B6803F404
:103DB4008073002B10D13B695A017B69134403F5CE
:103DC40010631B683A6951017A690A4402F510626A
:103DD40043F0005313600FE03B695A017B691344BD
:103DE40003F510631B683A6951017A690A4402F5C4
:103DF400106243F0805313603B68D9683B681A78BB
:103E04003B685B699BB2786800F0E1F9BAE03B6912
:103E14005A017B69134403F530631B693A69510104
:103E24007A690A4402F53062DB0CDB0413613B69F6
:103E34005A017B69134403F530631B693A695101E4
:103E44007A690A4402F5306223F0FF5323F4C01365
:103E540013613B685B69002B23D13B695A017B6981
:103E6400134403F530631A693B689B68C3F3120378
:103E7400396948017969014401F5306113430B61E3
:103E84003B695A017B69134403F530631B693A6942
:103E940051017A690A4402F5306243F40023136144
:103EA40033E03B685A693B689B6813445A1E3B687D
:103EB4009B68B2FBF3F3FB813B695A017B691344B2
:103EC40003F530631A69FB89D904314B0B40396916
:103ED40048017969014401F5306113430B613B6981
:103EE4005A017B69134403F530631A693B689B6884
:103EF400F98901FB03F3C3F31203396948017969B2
:103F0400014401F5306113430B613B68DB78012BFD
:103F140028D17B6903F500639B6803F48073002B4D
:103F240010D13B695A017B69134403F530631B6864
:103F34003A6951017A690A4402F5306243F0005348
:103F440013600FE03B695A017B69134403F5306346
:103F54001B683A6951017A690A4402F5306243F0F8
:103F6400805313603B695A017B69134403F5306342
:103F74001B683A6951017A690A4402F5306243F0D8
:103F840004431360002318461837BD4680BD00BFA4
:103F94000000F81F80B485B000AF786039607B689A
:103FA400FB603B681B78BB603B685B78012B40F08F
:103FB400AB803B685B69002B32D1BB685A01FB685C
:103FC400134403F510631B69BA685101FA680A4483
:103FD40002F5106223F0FF5323F4C0131361BB688E
:103FE4005A01FB68134403F510631B69BA68510155
:103FF400FA680A4402F5106243F400231361BB68B3
:104004005A01FB68134403F510631B69BA68510134
:10401400FA680A4402F51062DB0CDB0413614EE01B
:10402400BB685A01FB68134403F510631B69BA6843
:104034005101FA680A4402F51062DB0CDB041361D7
:10404400BB685A01FB68134403F510631B69BA6823
:104054005101FA680A4402F5106223F0FF5323F475
:10406400C01313613B685A693B689B689A4203D941
:104074003B689A683B685A61BB685A01FB68134401
:1040840003F510631B69BA685101FA680A4402F522
:10409400106243F400231361BB685A01FB681344A4
:1040A40003F510631A693B685B69C3F31203B968CB
:1040B4004801F968014401F5106113430B61BB68C1
:1040C4005A01FB68134403F510631B68BA68510175
:1040D400FA680A4402F5106243F0044313603B6833
:1040E4005B69002B6DD0FB6803F500635A6B3B687A
:1040F4001B7803F00F03012101FA03F3F96801F5BA
:10410400006113434B635CE0BB685A01FB681344D2
:1041140003F530631B69BA685101FA680A4402F571
:104124003062DB0CDB041361BB685A01FB68134487
:1041340003F530631B69BA685101FA680A4402F551
:10414400306223F0FF5323F4C01313613B685B69AF
:10415400002B03D03B689A683B685A61BB685A01DC
:10416400FB68134403F530631B69BA685101FA68AC
:104174000A4402F5306243F400231361BB685A0118
:10418400FB68134403F530631A693B689B68C3F307
:104194001203B9684801F968014401F53061134319
:1041A4000B61BB685A01FB68134403F530631B6859
:1041B400BA685101FA680A4402F5306243F00443D4
:1041C4001360002318461437BD4680BC704780B482
:1041D40089B000AFF860B96011461A460B46FB710E
:1041E4001346BB80FB687B61BB68FB61BB88033300
:1041F4009B083B610023BB610FE0FB791A037B69D9
:10420400134403F580531A46FB691B681360FB696A
:104214000433FB61BB690133BB61BA693B699A42F0
:10422400EBD3002318462437BD4680BC704780B4C6
:1042340089B000AFF860B9601346FB80FB687B610E
:10424400BB68FB61FB8803339B083B610023BB61B4
:104254000BE07B6903F580531A68FB691A60FB69FC
:104264000433FB61BB690133BB61BA693B699A42A0
:10427400EFD3FB6918462437BD4680BC704780B431
:1042840085B000AF786039607B68FB603B681B7861
:10429400BB603B685B78012B2CD1BB685A01FB687F
:1042A400134403F510631B68002B12DBBB68002B5F
:1042B4000FD0BB685A01FB68134403F510631B68F5
:1042C400BA685101FA680A4402F5106223F0804387
:1042D4001360BB685A01FB68134403F510631B6841
:1042E400BA685101FA680A4402F5106243F40013F3
:1042F40013602BE0BB685A01FB68134403F5306379
:104304001B68002B12DBBB68002B0FD0BB685A0163
:10431400FB68134403F530631B68BA685101FA68FB
:104324000A4402F5306223F080431360BB685A01EB
:10433400FB68134403F530631B68BA685101FA68DB
:104344000A4402F5306243F4001313600023184654
:104354001437BD4680BC704780B485B000AF786028
:1043640039607B68FB603B681B78BB603B685B78AB
:10437400012B28D1BB685A01FB68134403F5106371
:104384001B68BA685101FA680A4402F5106223F402
:10439400001313603B68DB78032B03D03B68DB78A6
:1043A400022B38D1BB685A01FB68134403F5106330
:1043B4001B68BA685101FA680A4402F5106243F0B6
:1043C4008053136027E0BB685A01FB68134403F56C
:1043D40030631B68BA685101FA680A4402F5306216
:1043E40023F4001313603B68DB78032B03D03B6892
:1043F400DB78022B0FD1BB685A01FB68134403F529
:1044040030631B68BA685101FA680A4402F53062E5
:1044140043F080531360002318461437BD4680BC14
:10442400704780B485B000AF78600B46FB707B6842
:10443400FB60FB6803F500631B68FA6802F5006221
:1044440023F4FE631360FB6803F500631A68FB78CA
:104454001B0103F4FE63F96801F5006113430B606B
:10446400002318461437BD4680BC704780B485B01D
:1044740000AF78607B68FB60FB6803F560631B68D2
:10448400FA6802F5606223F003031360FB6803F526
:1044940000635B68FA6802F5006223F0020353606C
:1044A400002318461437BD4680BC704780B485B0DD
:1044B40000AF78607B68FB60FB6803F560631B6892
:1044C400FA6802F5606223F003031360FB6803F5E6
:1044D40000635B68FA6802F5006243F0020353600C
:1044E400002318461437BD4680BC704780B485B09D
:1044F40000AF78607B685B69FB607B689B69FA68E6
:104504001340FB60FB6818461437BD4680BC7047F7
:1045140080B485B000AF78607B68FB60FB6803F50E
:1045240000639B69BB60FB6803F50063DB69BA68E1
:104534001340BB60BB681B0C18461437BD4680BCD7
:10454400704780B485B000AF78607B68FB60FB681F
:1045540003F500639B69BB60FB6803F50063DB69DB
:10456400BA681340BB60BB689BB218461437BD469B
:1045740080BC704780B485B000AF78600B46FB7098
:104584007B68FB60FB785A01FB68134403F53063D6
:104594009B68BB60FB6803F500635B69BA68134002
:1045A400BB60BB6818461437BD4680BC704780B4F6
:1045B40087B000AF78600B46FB707B687B617B69DA
:1045C40003F500631B693B617B6903F500635B6B67
:1045D400FB60FB7803F00F03FA6822FA03F3DB01B4
:1045E400DBB23A6913433B61FB785A017B6913449C
:1045F40003F510639B683A691340BB60BB681846B7
:104604001C37BD4680BC704780B483B000AF78606F
:104614007B685B6903F0010318460C37BD4680BC18
:10462400704780B485B000AF78607B68FB60FB683E
:1046340003F510631B68FA6802F5106223F4FF6344
:1046440023F007031360FB6803F500635B68FA68F3
:1046540002F5006243F48073536000231846143754
:10466400BD4680BC7047000080B485B000AF786060
:1046740039607B68FB607B683C3304331B68BB6038
:10468400BB681C4A93420AD9FB6803F530631B6874
:1046940003F00043B3F1004F01D1002324E0FB6891
:1046A40003F530631A4600231361FB6803F5306396
:1046B4001B69FA6802F5306243F400231361FB6856
:1046C40003F530631B69FA6802F5306243F018039E
:1046D4001361FB6803F530631B69FA6802F5306205
:1046E40043F0C0431361002318461437BD4680BC11
:1046F400704700BF0A30544F80B485B000AF786073
:104704000023FB60FB680133FB60FB68124A9342A1
:1047140001D903231BE07B681B69002BF2DA002319
:10472400FB607B681B6943F001027B681A61FB68CC
:104734000133FB60FB68084A934201D9032306E076
:104744007B681B6903F00103012BF0D0002318469A
:104754001437BD4680BC7047400D030080B584B05B
:1047640000AF78600B46FB700023FB737B681B7CF7
:10477400002B15D14FF4007302228121786801F0D7
:10478400F8FE7B680122DA624FF4007302220121F1
:10479400786801F0EEFE7B680122C3F86C2112E018
:1047A400402302228121786801F0E3FE7B68012224
:1047B400DA62402302220121786801F0DAFE7B6884
:1047C4000122C3F86C21082303228221786801F0B6
:1047D400D0FE7B6801221A644FF4077001F0F0FFE9
:1047E40002467B68C3F8B8227B68D3F8B832002B42
:1047F40002D10123FB7326E07B68D3F8B832BB6097
:104804007B68D3F8BC321B689847BB680022C3F8A6
:104814001422BB680022C3F818227B681B7C002B7F
:1048240009D1BB68D3F804224FF4007301217868DE
:1048340001F08FFF07E0BB68D3F804224023012175
:10484400786801F086FFFB7B18461037BD4680BDB3
:1048540080B584B000AF78600B46FB700023FB7317
:104864008121786801F0ABFE7B680022DA620121C5
:10487400786801F0A4FE7B680022C3F86C218221D1
:10488400786801F09CFE7B6800221A647B68D3F888
:10489400B832002B0ED07B68D3F8BC325B689847E3
:1048A4007B68D3F8B832184601F096FF7B68002283
:1048B400C3F8B822FB7B18461037BD4680BD80B5CF
:1048C40086B000AF786039607B68D3F8B8323B615A
:1048D4000023FB730023BB810023FB753B681B781B
:1048E40003F06003002B39D0202B7CD13B68DB889C
:1048F400002B29D03B681B785BB2002B11DA7B6854
:10490400D3F8BC329B683A68507839693A68D288DF
:10491400984739693B68DB881A46786801F032FAAF
:1049240068E03B685A783B6983F800223B68DB887F
:10493400DAB23B6983F8012239693B68DB881A469D
:10494400786801F04DFA55E07B68D3F8BC329B6877
:104954003A6850780022396898474BE03B685B78A6
:104964000A2B17D00B2B29D0002B33D17B6893F85B
:104974009C32032B07D107F10C03022219467868F5
:1049840001F000FA2EE03968786801F091F9022309
:10499400FB7527E07B6893F89C32032B07D107F162
:1049A4000F0301221946786801F0ECF91AE039681E
:1049B400786801F07DF90223FB7513E07B6893F8B6
:1049C4009C32032B0DD03968786801F071F9022309
:1049D400FB7506E03968786801F06AF90223FB7513
:1049E40000E000BF06E03968786801F061F902234D
:1049F400FB7500BFFB7D18461837BD4680BD80B5EA
:104A040084B000AF78600B46FB707B68D3F8B83293
:104A1400FB607B68D3F8C032BB607B68D3F8B832E4
:104A2400002B3AD0FA78796813469B0013449B0014
:104A34000B441C331B68002B29D0FA787968134681
:104A44009B0013449B000B441C331A68F978B86824
:104A54000B46DB005B1A9B00034444331B68B2FB28
:104A6400F3F103FB01F3D31A002B10D1FA78796820
:104A740013469B0013449B000B441C3300221A6012
:104A8400F97800230022786801F040FE03E0FB6817
:104A94000022C3F81422002300E002231846103732
:104AA400BD4680BD80B584B000AF78600B46FB7016
:104AB4007B68D3F8B832FB60FB781946786801F05C
:104AC4006BFE0246FB68C3F80C227B68D3F8B8324D
:104AD400002B0DD07B68D3F8BC32DB68FA68D2F8BF
:104AE4000402FA6802F5037211469847002300E0B5
:104AF400022318461037BD4680BD80B584B000AF90
:104B040078607B68D3F8B832FB607B68D3F8BC323A
:104B1400002B15D0FB6893F80032FF2B10D07B6874
:104B2400D3F8BC329B68FA6892F80002F968FA6814
:104B340092F8012292B29847FB68FF2283F8002280
:104B4400002318461037BD4680BD000080B483B0F2
:104B540000AF78607B6843221A80034B18460C37F9
:104B6400BD4680BC704700BF9400002080B483B071
:104B740000AF78607B6843221A80034B18460C37D9
:104B8400BD4680BC704700BF5000002080B483B095
:104B940000AF78607B6843221A80034B18460C37B9
:104BA400BD4680BC704700BFD800002080B483B0ED
:104BB40000AF78607B680A221A80034B18460C37D2
:104BC400BD4680BC704700BF0C00002080B485B097
:104BD40000AF786039600223FB733B68002B05D07B
:104BE4007B683A68C3F8BC220023FB73FB7B18463E
:104BF4001437BD4680BC704780B487B000AFF860FE
:104C0400B9601346FB80FB68D3F8B8327B617B69DB
:104C1400BA68C3F80822FA887B69C3F81022002313
:104C240018461C37BD4680BC704780B485B000AFC1
:104C3400786039607B68D3F8B832FB60FB683A6807
:104C4400C3F80422002318461437BD4680BC7047BD
:104C540080B584B000AF78607B68D3F8B832FB606D
:104C64007B68D3F8B832002B1CD0FB68D3F814321D
:104C7400002B15D1FB680122C3F81422FB68D3F87A
:104C840010227B681A63FB68D3F80822FB68D3F808
:104C940010329BB28121786801F038FD002302E0D4
:104CA400012300E0022318461037BD4680BD80B5BD
:104CB40084B000AF78607B68D3F8B832FB607B685F
:104CC400D3F8B832002B17D07B681B7C002B09D19A
:104CD400FB68D3F804224FF400730121786801F0D3
:104CE40038FD07E0FB68D3F80422402301217868EB
:104CF40001F02FFD002300E0022318461037BD46C3
:104D040080BD80B584B000AFF860B9601346FB7114
:104D1400FB68002B01D102231AE0FB68D3F8B432FC
:104D2400002B03D0FB680022C3F8B422BB68002B1D
:104D340003D0FB68BA68C3F8B022FB68012283F889
:104D44009C22FB68FA791A70F86801F0B7FB00231B
:104D540018461037BD4680BD80B485B000AF78607A
:104D640039600023FB733B68002B06D07B683A68EC
:104D7400C3F8B4220023FB7301E00223FB73FB7B23
:104D840018461437BD4680BC704780B582B000AF6A
:104D94007860786801F0D2FB002318460837BD46D6
:104DA40080BD80B483B000AF7860002318460C3710
:104DB400BD4680BC704780B584B000AF78600B46B8
:104DC400FB700223FB737B68D3F8B432002B0CD046
:104DD4007B68D3F8B4321B68FA7811467868984730
:104DE4000346002B01D10023FB73FB7B18461037CD
:104DF400BD4680BD80B582B000AF78600B46FB70C5
:104E04007B68D3F8B4325B68FA78114678689847BF
:104E1400002318460837BD4680BD80B582B000AF78
:104E2400786039607B6803F52A733968184600F0A6
:104E340003FF7B680122C3F894227B68B3F8AE3287
:104E44001A467B68C3F898227B6893F8A83203F06B
:104E54001F03012B0CD0012B02D3022B10D017E01F
:104E64007B6803F52A731946786800F003FA1AE0A0
:104E74007B6803F52A731946786800F065FA12E036
:104E84007B6803F52A731946786800F0A3FA0AE0F0
:104E94007B6893F8A83223F07F03DBB21946786865
:104EA40001F0ACFB00BF002318460837BD4680BDA7
:104EB40080B586B000AFF8600B467A60FB72FB7A6F
:104EC400002B4BD1FB6803F5AA737B61FB68D3F815
:104ED4009432032B34D17B69DA687B691B699A426B
:104EE40019D97B69DA687B691B69D21A7B69DA6034
:104EF4007B69DA687B691B699A4203D27B69DB6848
:104F04009BB202E07B691B699BB21A467968F86818
:104F140000F084FF38E0FB68D3F8B4321B69002B3F
:104F24000AD0FB6893F89C32032B05D1FB68D3F8B5
:104F3400B4321B69F8689847F86800F081FF23E0F1
:104F4400FB68D3F89432052B1ED1FB680022C3F80A
:104F540094220021F86801F051FB15E0FB68D3F8B6
:104F6400B4329B69002B0DD0FB6893F89C32032B61
:104F740008D1FB68D3F8B4329B69FA7A1146F86811
:104F8400984701E0022300E0002318461837BD4685
:104F940080BD80B586B000AFF8600B467A60FB72C6
:104FA400FB7A002B7FD1FB6814337B61FB68D3F859
:104FB4009432022B5CD17B69DA687B691B699A4263
:104FC40015D97B69DA687B691B69D21A7B69DA6057
:104FD4007B69DB689BB21A467968F86800F0EEFEDC
:104FE400002300220021F86801F0B3FB4EE07B6946
:104FF4009B687A691269B3FBF2F102FB01F29B1A16
:10500400002B1CD17B699A687B691B699A4216D371
:105014007B699A68FB68D3F898329A420FD20022CF
:105024000021F86800F0CAFEFB680022C3F8982249
:10503400002300220021F86801F08BFB26E0FB68C6
:10504400D3F8B432DB68002B0AD0FB6893F89C32A7
:10505400032B05D1FB68D3F8B432DB68F8689847B2
:105064008021F86801F0CAFAF86800F0FCFE0DE04F
:10507400FB68D3F89432042B04D0FB68D3F8943241
:10508400002B03D18021F86801F0B8FAFB6893F88B
:10509400A032012B1DD1F868FFF783FEFB680022C4
:1050A40083F8A02215E0FB68D3F8B4325B69002BC7
:1050B4000DD0FB6893F89C32032B08D1FB68D3F81E
:1050C400B4325B69FA7A1146F868984701E0022322
:1050D40000E0002318461837BD4680BD80B582B075
:1050E40000AF7860402300220021786801F041FA83
:1050F4007B680122C3F858217B684022C3F86421ED
:10510400402300228021786801F033FA7B68012271
:105114009A617B6840225A627B68012283F89C2250
:105124007B680022C3F894227B6800225A607B6863
:105134000022C3F8A4227B68D3F8B832002B09D02C
:105144007B68D3F8B4325B687A685268D2B211468D
:1051540078689847002318460837BD4680BD80B458
:1051640083B000AF78600B46FB707B68FA781A74E2
:10517400002318460C37BD4680BC704780B483B00A
:1051840000AF78607B6893F89C227B6883F89D224B
:105194007B68042283F89C22002318460C37BD4602
:1051A40080BC704780B483B000AF78607B6893F8AC
:1051B4009C32042B05D17B6893F89D227B6883F88D
:1051C4009C22002318460C37BD4680BC704780B52E
:1051D40082B000AF78607B6893F89C32032B0BD1CC
:1051E4007B68D3F8B432DB69002B05D07B68D3F835
:1051F400B432DB6978689847002318460837BD46FF
:1052040080BD80B483B000AF78600B46FB70002390
:1052140018460C37BD4680BC704780B483B000AFDD
:1052240078600B46FB70002318460C37BD4680BCE3
:10523400704780B483B000AF7860002318460C3701
:10524400BD4680BC704780B582B000AF78607B6893
:10525400012283F89C227B68D3F8B4325B687A68B5
:105264005268D2B211467868984700231846083726
:10527400BD4680BD80B584B000AF7860396000233E
:10528400FB733B681B7803F06003202B04D0402B96
:1052940002D0002B08D04CE07B68D3F8B4329B6872
:1052A40039687868984749E03B685B78092B3AD8B5
:1052B40001A252F823F000BF0D5300082153000847
:1052C4002B530008175300082B530008EF52000813
:1052D400E55200082B53000803530008F952000854
:1052E4003968786800F0D4F922E03968786800F009
:1052F40037FB1DE03968786800F074FB18E0396802
:10530400786800F0FDFB13E03968786800F02CFC45
:105314000EE03968786800F05AFC09E0396878686A
:1053240000F069FC04E03968786800F0C1FC00BF53
:1053340004E03968786800F0BBFC00BFFB7B1846CA
:105344001037BD4680BD00BF80B584B000AF786023
:1053540039600023FB733B681B7803F06003202B48
:1053640003D0402B01D0002B2AD17B6893F89C32C8
:10537400013B022B1DD83B689B88DBB2012B13D861
:105384007B68D3F8B4329B683968786898470346D9
:10539400FB733B68DB88002B10D1FB7B002B0DD10A
:1053A400786800F04DFD09E03968786800F080FC09
:1053B40004E03968786800F07BFC00E000BF04E09A
:1053C4003968786800F074FC00BF00231846103771
:1053D400BD4680BD80B584B000AF786039600023DD
:1053E400FB733B689B88BB733B681B7803F06003CB
:1053F400202B04D0402B02D0002B08D03DE17B6849
:10540400D3F8B4329B683968786898473AE13B68C6
:105414001B7803F06003202B0AD17B68D3F8B432E5
:105424009B683968786898470346FB73FB7B2AE1DD
:105434003B685B78012B3ED0032B02D0002B70D04D
:1054440015E17B6893F89C32022B02D0032B15D014
:105454002BE0BB7B002B0CD0BB7B802B09D0BB7B10
:105464001946786801F0CAF88021786801F0C6F816
:1054740020E03968786800F01BFC1BE03B685B881F
:10548400002B0ED1BB7B002B0BD0BB7B802B08D019
:105494003B68DB88002B04D1BB7B1946786801F09C
:1054A400ADF8786800F0CCFC04E03968786800F066
:1054B400FFFB00BFE0E07B6893F89C32022B02D034
:1054C400032B15D026E0BB7B002B0CD0BB7B802BA1
:1054D40009D0BB7B1946786801F090F88021786880
:1054E40001F08CF81CE03968786800F0E1FB17E003
:1054F4003B685B88002B12D1BB7B03F07F03002B3E
:1055040004D0BB7B1946786801F097F8786800F0FE
:1055140097FC04E03968786800F0CAFB00E000BF3B
:10552400AAE07B6893F89C32022B02D0032B32D082
:1055340097E0BB7B002B07D0BB7B802B04D0396862
:10554400786800F0B5FB91E097F90E30002B0BDA88
:10555400BB7B03F07F0213469B0013449B00103374
:105564007A68134404330BE0BB7B03F07F021346D9
:105574009B0013449B0003F5A8737A681344043317
:10558400BB60BB6800221A60BB68022219467868B7
:1055940000F0F8FB6AE097F90E30002B11DABB7BC0
:1055A40003F00F02796813469B0013449B000B44DD
:1055B40018331B68002B17D13968786800F078FB22
:1055C40054E0BB7B03F00F02796813469B0013443D
:1055D4009B000B4403F5AC731B68002B04D13968A2
:1055E400786800F065FB41E097F90E30002B0BDA88
:1055F400BB7B03F07F0213469B0013449B001033D4
:105604007A68134404330BE0BB7B03F07F02134638
:105614009B0013449B0003F5A8737A681344043376
:10562400BB60BB7B002B02D0BB7B802B03D1BB6850
:1056340000221A600EE0BB7B1946786801F01CF862
:105644000346002B03D0BB6801221A6002E0BB684A
:1056540000221A60BB6802221946786800F092FBA7
:1056640004E03968786800F023FB00BF04E039687F
:10567400786800F01DFB00BF04E03968786800F02A
:1056840017FB00BFFB7B18461037BD4680BD0000EA
:1056940080B584B000AF7860396000233B8100237B
:1056A400FB600023FB723B685B881B0A9BB2013BD7
:1056B400062B00F2288101A252F823F0DD560008DF
:1056C400F5560008355700080B5900080B59000817
:1056D400AB580008D75800087B68D3F8B0321B6871
:1056E4007A68127C07F1080110469847F86012E1C5
:1056F4007B681B7C002B0DD17B68D3F8B4329B6A8A
:1057040007F1080210469847F860FB68013302224B
:105714001A7000E17B68D3F8B432DB6A07F108023F
:1057240010469847F860FB68013302221A70F2E0D1
:105734003B685B88DBB2052B00F2AC8001A252F817
:1057440023F000BF6157000895570008C9570008A7
:10575400FD57000831580008655800087B68D3F8E5
:10576400B0325B68002B0BD07B68D3F8B0325B6837
:105774007A68127C07F1080110469847F86091E0B6
:105784003968786800F094FAFB7A0133FB7289E097
:105794007B68D3F8B0329B68002B0BD07B68D3F8BE
:1057A400B0329B687A68127C07F10801104698476A
:1057B400F86077E03968786800F07AFAFB7A0133A8
:1057C400FB726FE07B68D3F8B032DB68002B0BD040
:1057D4007B68D3F8B032DB687A68127C07F1080181
:1057E40010469847F8605DE03968786800F060FA20
:1057F400FB7A0133FB7255E07B68D3F8B0321B6946
:10580400002B0BD07B68D3F8B0321B697A68127C0A
:1058140007F1080110469847F86043E03968786852
:1058240000F046FAFB7A0133FB723BE07B68D3F865
:10583400B0325B69002B0BD07B68D3F8B0325B6964
:105844007A68127C07F1080110469847F86029E04D
:105854003968786800F02CFAFB7A0133FB7221E096
:105864007B68D3F8B0329B69002B0BD07B68D3F8EC
:10587400B0329B697A68127C07F108011046984798
:10588400F8600FE03968786800F012FAFB7A0133A7
:10589400FB7207E03968786800F00AFAFB7A013392
:1058A400FB7238E037E07B681B7C002B09D17B68F6
:1058B400D3F8B4325B6B07F1080210469847F860DE
:1058C40029E03968786800F0F3F9FB7A0133FB7258
:1058D40021E07B681B7C002B0DD17B68D3F8B432AC
:1058E4001B6B07F1080210469847F860FB68013308
:1058F40007221A700FE03968786800F0D9F9FB7A4A
:105904000133FB7207E03968786800F0D1F9FB7A5B
:105914000133FB7200BFFB7A002B1CD13B89002BA7
:1059240011D03B68DB88002B0DD03B68DA883B89BB
:10593400934228BF13469BB23B813B891A46F968C0
:10594400786800F01FFA3B68DB88002B04D1786884
:1059540000F076FA00E000BF1037BD4680BD00BFFE
:1059640080B584B000AF786039603B689B88002BB9
:1059740030D13B68DB88002B2CD13B685B887F2BC4
:1059840028D83B685B88DBB203F07F03FB737B683A
:1059940093F89C32032B04D13968786800F088F9B5
:1059A4001CE07B68FA7B83F89E22FB7B19467868AF
:1059B40000F08DFE786800F043FAFB7B002B04D0E6
:1059C4007B68022283F89C2208E07B68012283F82A
:1059D4009C2203E03968786800F06AF900BF103748
:1059E400BD4680BD80B582B000AF786039603B6849
:1059F4005B88DAB2414B1A70404B1B78012B04D9F7
:105A04003968786800F054F975E07B6893F89C3243
:105A1400022B02D0032B23D062E0384B1B78002BDF
:105A24001AD0364B1B781A467B685A607B6803226F
:105A340083F89C22314B1B7819467868FFF7BBF931
:105A44000346022B04D13968786800F031F952E03A
:105A5400786800F0F5F94EE0786800F0F1F94AE072
:105A6400264B1B78002B12D17B68022283F89C22E0
:105A7400224B1B781A467B685A60204B1B781946C8
:105A84007868FFF7B7F9786800F0DAF933E01B4B70
:105A94001B781A467B685B689A421DD07B685B68FA
:105AA400DBB219467868FFF7A5F9144B1B781A4640
:105AB4007B685A60114B1B7819467868FFF77BF9AD
:105AC4000346022B04D13968786800F0F1F812E03B
