:020000040800F2
:1000000000000120910B0008AD0A0008B90A0008A1
:10001000BF0A0008C50A0008CB0A0008000000005B
:10002000000000000000000000000000F194000843
:10003000D10A000800000000D196000819970008B6
:10004000D90B0008D90B0008D90B0008D90B000800
:10005000D90B0008D90B0008D90B0008D90B0008F0
:10006000D90B0008D90B0008D90B0008D90B0008E0
:10007000D90B0008D90B0008D90B0008D90B0008D0
:10008000D90B0008D90B0008D90B0008D90B0008C0
:10009000D90B0008D90B0008D90B0008D90B0008B0
:1000A000D90B0008DD0A0008D90B0008D90B00089D
:1000B000D90B0008D90B0008D90B0008D90B000890
:1000C000D90B0008D90B0008D90B0008D90B000880
:1000D000D90B0008F10A0008D90B0008D90B000859
:1000E000D90B0008D90B0008D90B0008000000004C
:1000F0000000000000000000000000000000000000
:100100000000000000000000D90B0008D90B000817
:10011000D90B0008D90B0008D90B0008D90B00082F
:10012000D90B0008D90B0008D90B0008D90B00081F
:10013000D90B0008D90B0008D90B0008D90B00080F
:10014000D90B0008D90B0008D90B0008050B0008D3
:10015000000000000000000000000000000000009F
:10016000000000000000000000000000000000008F
:10017000000000000000000000000000000000007F
:10018000000000000000000000000000000000006F
:10019000000000000000000000000000000000005F
:1001A000000000000000000000000000000000004F
:1001B000000000000000000000000000000000003F
:1001C000000000000000000000000000000000002F
:1001D000000000000000000000000000000000001F
:0401E0005FF8E0F1F3
:1001F00010B5054C237833B9044B13B10448AFF361
:1002000000800123237010BD9C000020000000002E
:1002100084A4000808B5034B1BB103490348AFF39E
:10022000008008BD00000000A000002084A4000899
:1002300053B94AB9002908BF00281CBF4FF0FF314D
:100240004FF0FF3000F076B9ADF1080C6DE904CE47
:1002500000F006F8DDF804E0DDE9022304B07047A1
:100260002DE9F047089E0D4604468846002B4DD1E7
:100270008A42944668D9B2FA82F252B101FA02F384
:10028000C2F1200120FA01F10CFA02FC41EA030854
:1002900094404FEA1C41B8FBF1F71FFA8CFE01FBBA
:1002A000178807FB0EF0230C43EA084398420AD94B
:1002B0001CEB030307F1FF3580F01E81984240F2EA
:1002C0001B81023F63441B1AB3FBF1F001FB1033A7
:1002D00000FB0EFEA4B244EA0344A6450AD91CEB77
:1002E000040400F1FF3380F00981A64540F2068145
:1002F000644402380021A4EB0E0440EA07401EB11A
:100300000023D440C6E90043BDE8F0878B4208D9FA
:10031000002E00F0EE800021C6E900050846BDE889
:10032000F087B3FA83F100294AD1AB4202D382426B
:1003300000F2FC80841A65EB030301209846002E2E
:10034000E2D0C6E90048DFE702B9FFDEB2FA82F286
:10035000002A40F09180A1EB0C0001214FEA1C47DC
:100360001FFA8CFEB0FBF7F307FB1300250C45EAE0
:1003700000450EFB03F0A84208D91CEB050503F16C
:10038000FF3802D2A84200F2CE8043462D1AB5FBB8
:10039000F7F007FB10550EFB00FEA4B244EA05443B
:1003A000A64508D91CEB040400F1FF3502D2A6458E
:1003B00000F2B6802846A4EB0E0440EA03409EE714
:1003C000C1F120078B4022FA07FC4CEA030C25FA06
:1003D00007FA4FEA1C49BAFBF9F820FA07F309FBC0
:1003E00018AA8D401FFA8CFE1D4300FA01F308FB8A
:1003F0000EF02C0C44EA0A44A04202FA01F20BD996
:100400001CEB040408F1FF3A80F08880A04240F21F
:100410008580A8F102086444241AB4FBF9F009FBB2
:10042000104400FB0EFEADB245EA0444A64508D9CF
:100430001CEB040400F1FF356CD2A6456AD90238E2
:10044000644440EA0840A0FB0295A4EB0E04AC42D1
:10045000C846AE4656D353D0002E69D0B3EB08023F
:1004600064EB0E0422FA01F304FA07F71F43CC40B1
:10047000C6E90074002147E70CFA02FCC2F1200132
:1004800025FA01F34FEA1C4720FA01F195400D438C
:10049000B3FBF7F107FB11331FFA8CFE280C40EA7F
:1004A000034001FB0EF3834204FA02F408D91CEB6B
:1004B000000001F1FF382FD283422DD90239604468
:1004C000C01AB0FBF7F307FB1300ADB245EA0045D5
:1004D00003FB0EF0A84208D91CEB050503F1FF3819
:1004E00016D2A84214D9023B6544281A43EA0141B6
:1004F00038E73146304607E72F46E4E61846F9E686
:100500004B45A9D2B9EB020865EB0C0E0138A3E705
:100510004346EAE7284694E74146D1E7D0467BE7E1
:100520006444023847E7023B65442FE7084606E784
:100530003146E9E6704700BF80B485B000AFF8608F
:10054000B9607A60FB68064A1A60BB68054A1A609F
:100550007B6880221A6000BF1437BD4680BC70479C
:10056000B80000200C010020B0B592B000AF00F040
:1005700035FB00F05BF800F0EDF800F0C1F84FF447
:100580007A7000F05DFB642305221F491F4803F0C9
:100590004CFD01221E491D4803F0D9FD1D4B07F1FA
:1005A00038040FCB84E80F0007F138030021184608
:1005B00007F0A5F90346184A1360184B07F11C040D
:1005C0001D460FCD0FC495E8070084E8070007F12A
:1005D0001C030021184607F032F90346104A136045
:1005E000104B3C461D460FCD0FC495E8070084E82C
:1005F00007003B460021184607F021F903460A4A46
:10060000136007F015F9FEE7B0A400080C03002002
:10061000AC240020B8A4000858030020C8A4000897
:1006200050030020E4A400085403002080B59CB0CF
:1006300000AF07F1380338220021184609F020FEE8
:1006400007F1240300221A605A609A60DA601A6186
:100650003B1D20220021184609F012FE0123BB6336
:100660004FF480333B6404237B640123FB644FF429
:100670008033FB630223BB654FF48033FB654FF48B
:1006800080133B6602237B664FF4C063BB66102376
:10069000FB6607F13803184602F08EFB0346002B79
:1006A00001D000F01BF90F237B620223BB62002301
:1006B000FB624FF480633B6300237B6307F12403F9
:1006C0000121184602F08EFE0346002B01D000F0F7
:1006D00005F910237B604FF480033B623B1D1846F5
:1006E00003F0C8F80346002B01D000F0F7F8034BE5
:1006F00001221A6000BF7037BD4680BD70004242C3
:1007000080B500AF114B124A1A60104B4FF4E13222
:100710005A600E4B00229A600C4B0022DA600B4BA1
:1007200000221A61094B0C225A61084B00229A617F
:10073000064B0022DA61054803F02AFC0346002B31
:1007400001D000F0CBF800BF80BD00BF0C0300203B
:100750000038014080B588B000AF07F110030022D7
:100760001A605A609A60DA601D4B9B691C4A43F01C
:10077000200393611A4B9B6903F02003FB60FB6825
:10078000174B9B69164A43F008039361144B9B690E
:1007900003F00803BB60BB68114B9B69104A43F030
:1007A000040393610E4B9B6903F004037B607B6839
:1007B000002201210B4800F00DFE01233B610123C3
:1007C0007B610023BB610223FB6107F11003194623
:1007D000044800F07BFC00BF2037BD4680BD00BF51
:1007E00000100240000C014080B582B000AF78607C
:1007F00009F0ECF901220449044803F0A8FC00BF09
:100800000837BD4680BD00BFAC2400200C0300208B
:1008100080B586B000AF786009F018FA1C4B1968F3
:1008200007F10C034FF0FF32184607F0D1F8FB68D0
:10083000102B29D13B69032B06D0032B26D8012B83
:1008400018D0022B0AD021E0124B03221A70642325
:1008500002221149114803F0E8FB18E00D4B022277
:100860001A70642302220E490C4803F0DEFB09F0E3
:10087000ADF90CE0074B01221A70642302220949EA
:10088000064803F0D2FB02E000BFC7E700BFC5E7A0
:10089000580300209428002000A500080C03002025
:1008A00004A5000808A5000880B582B000AF7860F4
:1008B000012007F010F8FBE780B582B000AF786048
:1008C0007B681B68044A934201D100F09DF900BF88
:1008D0000837BD4680BD00BF002C014080B400AF8A
:1008E00000BFBD4680BC704780B584B000AF184BD8
:1008F0009B69174A43F001039361154B9B6903F011
:100900000103BB60BB68124BDB69114A43F08053A3
:10091000D3610F4BDB6903F080537B607B6800225F
:100920000F216FF0010000F064FA0A4B5B68FB6076
:10093000FB6823F0E063FB60FB6843F08063FB60CF
:10094000044AFB68536000BF1037BD4680BD00BF3E
:10095000001002400000014080B588B000AF786010
:1009600007F1100300221A605A609A60DA607B680F
:100970001B68204A934239D11F4B9B691E4A43F49E
:10098000804393611C4B9B6903F48043FB60FB68CD
:10099000194B9B69184A43F004039361164B9B69FA
:1009A00003F00403BB60BB684FF400733B61022398
:1009B0007B610323FB6107F1100319460F4800F028
:1009C00085FB4FF480633B6100237B610023BB61A7
:1009D00007F110031946094800F078FB00220521B1
:1009E000252000F006FA252000F01FFA00BF20376E
:1009F000BD4680BD003801400010024000080140A3
:100A000080B58CB000AF78600023FB620023BB622E
:100A100000227968192000F0ECF9192000F005FA9D
:100A20001E4B9B691D4A43F4006393611B4B9B69FA
:100A300003F40063FB60FB6807F1100207F1140385
:100A40001146184602F0C8FE02F0B2FEF862FB6AD8
:100A5000134AA2FB03239B0C013BBB62114B124ABE
:100A60001A60104B40F2E732DA600E4ABB6A5360FC
:100A70000C4B00221A610B4B00229A60094803F0CC
:100A80002BF80346002B04D1064803F07DF80346FB
:100A900000E0012318463037BD4680BD00100240FB
:100AA00083DE1B435C030020002C014080B400AFB8
:100AB00000BFBD4680BC704780B400AFFEE780B485
:100AC00000AFFEE780B400AFFEE780B400AFFEE702
:100AD00080B400AF00BFBD4680BC704780B500AF9A
:100AE000024803F0ABF800BF80BD00BF5C030020EC
:100AF00080B500AF024803F05BFB00BF80BD00BFC4
:100B00000C03002080B500AF024800F0E1FE00BFFA
:100B100080BD00BF9828002080B586B000AF786007
:100B2000144A154BD31A7B617B693B61134B1B68DD
:100B3000002B02D1114B124A1A60104B1A687B68C5
:100B400013443A699A4207D209F052FB03460C2239
:100B50001A604FF0FF3309E0084B1B68FB60074B3E
:100B60001A687B681344054A1360FB6818461837F7
:100B7000BD4680BD0000012000040000A403002049
:100B8000B02B002080B400AF00BFBD4680BC7047D2
:100B9000002103E00B4B5B58435004310A480B4BD8
:100BA00042189A42F6D30A4A02E0002342F8043B74
:100BB000084B9A42F9D3FFF7E5FF09F01FFBFFF757
:100BC000D3FC704798A50008000000209C0000207E
:100BD0009C000020AC2B0020FEE7000080B500AF99
:100BE000084B1B68074A43F010031360032000F012
:100BF000F5F80F20FFF704FFFFF776FE00231846F5
:100C000080BD00BF0020024080B400AF054B1B78C0
:100C10001A46054B1B681344034A136000BFBD46C8
:100C200080BC704708000020A803002080B400AFFB
:100C3000024B1B681846BD4680BC7047A8030020C5
:100C400080B584B000AF7860FFF7F0FFB8607B68D4
:100C5000FB60FB68B3F1FF3F05D00A4B1B781A46D7
:100C6000FB681344FB6000BFFFF7E0FF0246BB6870
:100C7000D31AFA689A42F7D800BF00BF1037BD46B2
:100C800080BD00BF0800002080B485B000AF786050
:100C90007B6803F00703FB600C4BDB68BB60BA6842
:100CA0004FF6FF031340BB60FB681A02BB68134397
:100CB00043F0BF6343F40033BB60044ABB68D360B6
:100CC00000BF1437BD4680BC704700BF00ED00E098
:100CD00080B400AF044BDB681B0A03F0070318461F
:100CE000BD4680BC704700BF00ED00E080B483B01B
:100CF00000AF0346FB7197F90730002B0BDBFB7944
:100D000003F01F02064997F907305B09012000FA3A
:100D100002F241F8232000BF0C37BD4680BC70476B
:100D200000E100E080B483B000AF03463960FB719E
:100D300097F90730002B0ADB3B68DAB20C4997F9C8
:100D400007301201D2B20B4483F800230AE03B685B
:100D5000DAB20849FB7903F00F03043B1201D2B267
:100D60000B441A7600BF0C37BD4680BC704700BFED
:100D700000E100E000ED00E080B489B000AFF86071
:100D8000B9607A60FB6803F00703FB61FB69C3F19C
:100D90000703042B28BF0423BB61FB690433062B24
:100DA00002D9FB69033B00E000237B614FF0FF3277
:100DB000BB6902FA03F3DA43BB681A407B699A40C5
:100DC0004FF0FF317B6901FA03F3D9437B680B4095
:100DD000134318462437BD4680BC704780B582B0A7
:100DE00000AF78607868FFF74FFF00BF0837BD4657
:100DF00080BD80B586B000AF0346B9607A60FB73F2
:100E000000237B61FFF764FF78617A68B9687869CD
:100E1000FFF7B2FF024697F90F3011461846FFF769
:100E200081FF00BF1837BD4680BD80B582B000AFDE
:100E30000346FB7197F907301846FFF757FF00BFCD
:100E40000837BD4680BD80B485B000AF7860002310
:100E5000FB737B6893F82130022B08D07B68042257
:100E60009A637B68002283F82020012320E07B68BE
:100E70001B681A687B681B6822F00E021A607B6888
:100E80001B681A687B681B6822F001021A607B6885
:100E90001A6C7B68DB6B012101FA02F25A607B68F5
:100EA000012283F821207B68002283F82020FB7B2D
:100EB00018461437BD4680BC7047000080B584B02A
:100EC00000AF78600023FB737B6893F82130022B1E
:100ED00005D07B6804229A630123FB73D6E07B680C
:100EE0001B681A687B681B6822F00E021A607B6818
:100EF0001B681A687B681B6822F001021A607B6815
:100F00001B681A46644B9A4258D97B681B68634A2F
:100F100093424FD07B681B68614A934248D07B68FC
:100F20001B68604A934240D07B681B685E4A9342CC
:100F300038D07B681B685D4A934230D07B681B6861
:100F40005B4A934228D07B681B68534A934220D067
:100F50007B681B68574A934219D07B681B68564AC6
:100F6000934212D07B681B68544A93420AD07B6834
:100F70001B68534A934202D14FF480531BE04FF455
:100F8000803318E04FF4807315E0102313E0012341
:100F900011E04FF080730EE04FF480130BE04FF43C
:100FA000803308E04FF4805305E04FF4807302E093
:100FB000102300E00123434A536057E07B681B681D
:100FC000364A93424FD07B681B68354A934248D0DB
:100FD0007B681B68334A934240D07B681B68324A67
:100FE000934238D07B681B68304A934230D07B688C
:100FF0001B682F4A934228D07B681B68264A93427D
:1010000020D07B681B682B4A934219D07B681B68F1
:10101000294A934212D07B681B68284A93420AD01F
:101020007B681B68264A934202D14FF480531BE031
:101030004FF4803318E04FF4807315E0102313E071
:10104000012311E04FF080730EE04FF480130BE0AA
:101050004FF4803308E04FF4805305E04FF4807381
:1010600002E0102300E00123174A53607B6801224D
:1010700083F821207B68002283F820207B685B6B4B
:10108000002B03D07B685B6B78689847FB7B184626
:101090001037BD4680BD00BF8000024008000240FE
:1010A0001C00024030000240440002405800024050
:1010B0006C000240080402401C040240300402405C
:1010C00044040240000402400000024080B48BB09F
:1010D00000AF7860396000237B6200233B6269E1E6
:1010E00001227B6A02FA03F3FB613B681B68FA6921
:1010F0001340BB61BA69FB699A4240F058813B6872
:101100005B689A4A93425ED0984A934275D8984A4F
:10111000934258D0964A93426FD8964A934252D0FF
:10112000944A934269D8944A93424CD0924A93424B
:1011300063D8924A934246D0904A93425DD8122B8C
:101140002AD8122B59D801A252F823F0C71100084F
:10115000A1110008B3110008F5110008FB110008E7
:10116000FB110008FB110008FB110008FB1100082F
:10117000FB110008FB110008FB110008FB1100081F
:10118000FB110008FB110008FB110008FB1100080F
:10119000A9110008BD110008794A934213D02CE030
:1011A0003B68DB683B6229E03B68DB6804333B62F9
:1011B00024E03B68DB6808333B621FE03B68DB6888
:1011C0000C333B621AE03B689B68002B02D104237E
:1011D0003B6213E03B689B68012B05D108233B620F
:1011E0007B68FA691A6109E008233B627B68FA6947
:1011F0005A6103E000233B6200E000BFBB69FF2BA4
:1012000001D87B6801E07B6804337B61BB69FF2BFD
:1012100002D87B6A9B0002E07B6A083B9B003B6133
:101220007B691A680F213B6901FA03F3DB431A401B
:10123000396A3B6901FA03F31A437B691A603B6818
:101240005B6803F08053002B00F0B1804D4B9B692D
:101250004C4A43F0010393614A4B9B6903F001033D
:10126000BB60BB68484A7B6A9B08023352F8233054
:10127000FB607B6A03F003039B000F2202FA03F377
:10128000DB43FA681340FB607B68404A934213D00B
:101290007B683F4A93420DD07B683E4A934207D019
:1012A0007B683D4A934201D1032306E0042304E016
:1012B000022302E0012300E000237A6A02F0030225
:1012C00092009340FA681343FB602F497B6A9B08A6
:1012D0000233FA6841F823203B685B6803F48033EB
:1012E000002B06D02D4B1A682C49BB6913430B60A9
:1012F00006E02A4B1A68BB69DB43284913400B60A0
:101300003B685B6803F40033002B06D0234B5A681C
:101310002249BB6913434B6006E0204B5A68BB6906
:10132000DB431E4913404B603B685B6803F480134A
:10133000002B06D0194B9A681849BB6913438B6080
:1013400006E0164B9A68BB69DB43144913408B6077
:101350003B685B6803F40013002B21D00F4BDA6865
:101360000E49BB691343CB6021E000BF000032107F
:1013700000003110000022100000211000001210A7
:101380000000111000100240000001400008014060
:10139000000C014000100140001401400004014015
:1013A0000B4BDA68BB69DB4309491340CB607B6AAE
:1013B00001337B623B681A687B6A22FA03F3002BD5
:1013C0007FF48EAE00BF00BF2C37BD4680BC704797
:1013D0000004014080B483B000AF78600B467B808E
:1013E00013467B707B78002B03D07A887B681A6168
:1013F00003E07B881A047B681A6100BF0C37BD4686
:1014000080BC7047F0B58FB00AAF78607B68002B66
:1014100001D1012354E07B681B68FB607B6893F873
:10142000F932DBB2002B06D17B68002283F8F82268
:10143000786808F073FC7B68032283F8F922FB6864
:10144000DB6B03F48073002B02D17B6800221A61EE
:101450007B681B68184603F005FB7B681B683B60D4
:101460007E686D4606F110040FCC0FC50FCC0FC57A
:1014700094E8030085E80300331D0ECB386803F0C1
:10148000BFFA7B681B680121184603F0FBFA7B68F2
:101490001B683B607E686D4606F110040FCC0FC5DB
:1014A0000FCC0FC594E8030085E80300331D0ECB75
:1014B000386803F059FC7B68012283F8F922002385
:1014C00018461437BD46F0BD90B589B004AF7860BA
:1014D000084611461A460346FB700B46BB7013467E
:1014E0007B707B6893F8F832012B01D1022376E000
:1014F0007B68012283F8F822FB787A682C2101FBB3
:1015000003F313443D3300221A70FB787A682C21D0
:1015100001FB03F3134438337A781A70FB787A6846
:101520002C2101FB03F3134440333A8D1A80FB78DE
:101530007A682C2101FB03F313443933FA781A70CB
:10154000FB787A682C2101FB03F313443F3397F8AF
:1015500024201A70FB78BA7802F07F02D0B27A6841
:101560002C2101FB03F313443A3302461A7097F916
:101570000230002B09DAFB787A682C2101FB03F397
:1015800013443B3301221A7008E0FB787A682C215F
:1015900001FB03F313443B3300221A70FB787A6893
:1015A0002C2101FB03F313443C3397F820201A70DD
:1015B0007B6818687C78BA78F9783B8D029397F845
:1015C0002430019397F820300093234603F004FD64
:1015D0000346FB737B68002283F8F822FB7B1846E6
:1015E0001437BD4690BD80B584B000AF78600B461F
:1015F000FB700023FB737B6893F8F832012B01D159
:1016000002230FE07B68012283F8F8227B681B68C5
:10161000FA781146184603F0DFFE7B68002283F853
:10162000F822FB7B18461037BD4680BD80B582B0DE
:1016300000AF7860084611461A460346FB700B4619
:10164000BB7013467B70FB787A682C2101FB03F397
:1016500013443B33BA781A70FB787A682C2101FB6B
:1016600003F313443F337A781A703B7C002B12D17A
:10167000FB787A682C2101FB03F3134442330322E5
:101680001A70FB787A682C2101FB03F313443D3375
:101690003A7F1A7008E0FB787A682C2101FB03F38B
:1016A0001344423302221A707B78032B00F2C68067
:1016B00001A252F823F000BFC9160008291800083B
:1016C0002D170008AB1700083B7C012B40F0B880B9
:1016D000BB78002B40F0B4803B8B002B08D1FB780B
:1016E0007A682C2101FB03F31344553301221A704D
:1016F000FB787A682C2101FB03F3134455331B78E4
:10170000002B09D1FB787A682C2101FB03F31344E9
:10171000423300221A7093E0FB787A682C2101FB97
:1017200003F31344423302221A7089E0BB78002B82
:101730001DD1FB787A682C2101FB03F31344553348
:101740001B78002B09D1FB787A682C2101FB03F36D
:101750001344423300221A7073E0FB787A682C211C
:1017600001FB03F31344423302221A7069E0FB7851
:101770007A682C2101FB03F3134454331B78002BAC
:1017800009D1FB787A682C2101FB03F3134442331F
:1017900000221A7055E0FB787A682C2101FB03F3D4
:1017A0001344423302221A704BE0BB78002B1DD148
:1017B000FB787A682C2101FB03F3134455331B7823
:1017C000002B09D1FB787A682C2101FB03F3134429
:1017D000423300221A7034E0FB787A682C2101FB36
:1017E00003F31344423302221A702AE0FB787A682A
:1017F0002C2101FB03F3134454331B78002B09D134
:10180000FB787A682C2101FB03F313444233002256
:101810001A7016E0FB787A682C2101FB03F313445D
:10182000423302221A700CE0FB787A682C2101FB0B
:1018300003F31344423300221A7002E000BF00E0B9
:1018400000BFFB787A682C2101FB03F31344443377
:101850007A691A60FB783A8B79682C2000FB03F3D5
:101860000B444C331A60FB787A682C2101FB03F39C
:101870001344603300221A70FB787A682C2101FB34
:1018800003F31344503300221A60FB787A682C214A
:1018900001FB03F313443933FA781A70FB787A6842
:1018A0002C2101FB03F31344613300221A707B687F
:1018B0001868FB782C2202FB03F338337A68134450
:1018C000194603F081FC034618460837BD4680BD23
:1018D00080B586B000AF78607B681B683B613B6970
:1018E000FB607B681B68184603F0FEF90346012B7A
:1018F00040F0EF807B681B68184603F0E3F903466D
:10190000002B00F0E5807B681B68184603F0DAF9CD
:10191000034603F40013B3F5001F04D17B681B6872
:101920004FF400125A617B681B68184603F0CAF92D
:10193000034603F48013B3F5801F04D17B681B6852
:101940004FF480125A617B681B68184603F0BAF99D
:10195000034603F08063B3F1806F04D17B681B689A
:101960004FF080625A617B681B68184603F0AAF941
:10197000034603F00203022B03D17B681B6802229B
:101980005A617B681B68184603F09CF9034603F014
:101990000053B3F1005F15D17B681B684FF0005214
:1019A0005A61FB6803F588631B6803F00103002B91
:1019B00008D1786808F0F2F97B681B6801211846A5
:1019C00003F048FA7B681B68184603F07BF903466E
:1019D00003F08073B3F1807F02D1786801F078F969
:1019E0007B681B68184603F06DF9034603F0080393
:1019F000082B06D1786808F0B5F97B681B680822C7
:101A00005A617B681B68184603F05CF9034603F0D3
:101A10001003102B01D1012300E00023002B12D072
:101A20007B681B689A697B681B6822F010029A61C8
:101A3000786801F07BF87B681B689A697B681B6893
:101A400042F010029A617B681B68184603F03AF96D
:101A5000034603F00073B3F1007F3AD17B681B6843
:101A6000184603F0A9FCB86000237B6125E07B6980
:101A700003F00F03BA6822FA03F303F00103002B0B
:101A800018D07B695A01FB68134403F5A0631B68F7
:101A900003F40043B3F5004F06D17B69DBB219466E
:101AA000786800F0A9F805E07B69DBB21946786830
:101AB00000F0A2FC7B6901337B617B689B687A69DB
:101AC0009A42D4D37B681B684FF000725A6100E0E1
:101AD00000BF1837BD4680BD80B582B000AF7860CA
:101AE0007B6893F8F832012B01D1022313E07B6865
:101AF000012283F8F8227B681B680121184603F055
:101B00000CFA7B681B68184602F09CFF7B68002279
:101B100083F8F822002318460837BD4680BD80B5FB
:101B200082B000AF78607B6893F8F832012B01D166
:101B300002230DE07B68012283F8F8227B681B6892
:101B4000184603F064FD7B68002283F8F822002326
:101B500018460837BD4680BD80B582B000AF7860BA
:101B60007B681B68184603F0AEF903461846083731
:101B7000BD4680BD80B483B000AF78600B46FB707B
:101B8000FB787A682C2101FB03F3134460331B7844
:101B900018460C37BD4680BC704780B483B000AF98
:101BA00078600B46FB70FB787A682C2101FB03F30D
:101BB000134450331B6818460C37BD4680BC704731
:101BC00080B582B000AF78607B681B68184603F070
:101BD000F2F9034618460837BD4680BD80B582B08D
:101BE00000AF78607B681B68184603F0CEF90346A7
:101BF00018460837BD4680BD80B586B000AF786016
:101C00000B46FB707B681B687B617B693B61FB78E3
:101C1000FB60FB685A013B69134403F5A0639B68B2
:101C200003F00403042B19D1FB685A013B691344E8
:101C300003F5A0631A4604239360FB685A013B69CD
:101C4000134403F5A063DB68FA6851013A690A445A
:101C500002F5A06243F00203D36001E1FB685A0180
:101C60003B69134403F5A0639B6803F48073B3F5E9
:101C7000807F2BD1FB685A013B69134403F5A063B5
:101C80001A464FF4807393607A68FB682C2101FB3D
:101C900003F31344613307221A70FB685A013B694E
:101CA000134403F5A063DB68FA6851013A690A44FA
:101CB00002F5A06243F00203D3607B681B68FA68F8
:101CC000D2B21146184603F087FBC9E0FB685A01FF
:101CD0003B69134403F5A0639B6803F02003202BAA
:101CE00009D1FB685A013B69134403F5A0631A4606
:101CF00020239360B4E0FB685A013B69134403F569
:101D0000A0639B6803F00803082B33D1FB685A01DA
:101D10003B69134403F5A063DB68FA6851013A6933
:101D20000A4402F5A06243F00203D3607A68FB68BC
:101D30002C2101FB03F31344613305221A70FB6865
:101D40005A013B69134403F5A0631A4610239360BC
:101D5000FB685A013B69134403F5A0631A46082344
:101D600093607B681B68FA68D2B21146184603F08C
:101D700033FB75E0FB685A013B69134403F5A0632C
:101D80009B6803F48063B3F5806F34D1FB685A011C
:101D90003B69134403F5A063DB68FA6851013A69B3
:101DA0000A4402F5A06243F00203D3607A68FB683C
:101DB0002C2101FB03F31344613308221A70FB68E2
:101DC0005A013B69134403F5A0631A46102393603C
:101DD000FB685A013B69134403F5A0631A464FF4AC
:101DE000806393607B681B68FA68D2B2114618461C
:101DF00003F0F2FA34E0FB685A013B69134403F53F
:101E0000A0639B6803F08003802B29D1FB685A01F3
:101E10003B69134403F5A063DB68FA6851013A6932
:101E20000A4402F5A06243F00203D3607A68FB68BB
:101E30002C2101FB03F31344613306221A707B68E3
:101E40001B68FA68D2B21146184603F0C5FAFB685F
:101E50005A013B69134403F5A0631A46802393603B
:101E6000FB685A013B69134403F5A0639B6803F4C4
:101E70000073B3F5007F22D1FB685A013B6913441C
:101E800003F5A063DB68FA6851013A690A4402F578
:101E9000A06243F00203D3607B681B68FA68D2B289
:101EA0001146184603F098FAFB685A013B6913443F
:101EB00003F5A0631A464FF40073936098E2FB6841
:101EC0005A013B69134403F5A0639B6803F00103C7
:101ED000012B40F0FD807A68FB682C2101FB03F3A5
:101EE0001344613301221A707A68FB682C2101FBCC
:101EF00003F313445C3300221A60FB685A013B6908
:101F0000134403F5A0631A46012393607A68FB68C3
:101F10002C2101FB03F313443F331B78002B09D022
:101F20007A68FB682C2101FB03F313443F331B78D1
:101F3000022B21D1FB685A013B69134403F5A063CE
:101F4000DB68FA6851013A690A4402F5A06243F07D
:101F50000203D3607B681B68FA68D2B21146184648
:101F600003F03AFAFB685A013B69134403F5A06396
:101F70001A461023936066E07A68FB682C2101FB07
:101F800003F313443F331B78032B27D1FB685A011B
:101F90003B69134403F5A0631B68FA6851013A6971
:101FA0000A4402F5A06243F0005313607A68FB68AC
:101FB0002C2101FB03F31344603301221A70FB68E8
:101FC000D9B27A68FB682C2000FB03F3134460331A
:101FD0001B781A46786807F0EFFE34E07A68FB68F1
:101FE0002C2101FB03F313443F331B78012B2AD12F
:101FF0007A68FB682C2101FB03F313446033012250
:102000001A707A68FB682C2101FB03F313445433E4
:102010001B7883F00103D8B27A68FB682C2101FB9E
:1020200003F31344543302461A70FB68D9B27A683A
:10203000FB682C2000FB03F3134460331B781A4623
:10204000786807F0B9FE7B681B69012B2BD17A6891
:10205000FB682C2101FB03F3134448331B687968A8
:10206000FA682C2000FB02F20A4440321288B3FBCB
:10207000F2F303F00103002B00F0BA817A68FB68E9
:102080002C2101FB03F3134454331B7883F0010329
:10209000D8B27A68FB682C2101FB03F31344543354
:1020A00002461A70A4E17A68FB682C2101FB03F355
:1020B000134454331B7883F00103D8B27A68FB6869
:1020C0002C2101FB03F31344543302461A708FE1B1
:1020D000FB685A013B69134403F5A0639B6803F056
:1020E0000203022B40F00681FB685A013B6913444E
:1020F00003F5A063DB68FA6851013A690A4402F506
:10210000A06223F00203D3607A68FB682C2101FBF4
:1021100003F3134461331B78012B09D17A68FB6800
:102120002C2101FB03F31344603301221A70C9E030
:102130007A68FB682C2101FB03F3134461331B789D
:10214000052B09D17A68FB682C2101FB03F31344AA
:10215000603305221A70B5E07A68FB682C2101FB18
:1021600003F3134461331B78062B09D07A68FB68AC
:102170002C2101FB03F3134461331B78082B50D14E
:102180007A68FB682C2101FB03F313445C331B6862
:102190005A1C7968FB682C2000FB03F30B445C336A
:1021A0001A607A68FB682C2101FB03F313445C334B
:1021B0001B68022B12D97A68FB682C2101FB03F300
:1021C00013445C3300221A607A68FB682C2101FBFF
:1021D00003F31344603304221A7073E07A68FB68D7
:1021E0002C2101FB03F31344603302221A70FB68B5
:1021F0005A013B69134403F5A0631B68BB60BB68CD
:1022000023F08043BB60BB6843F00043BB60FB68C6
:102210005A013B69134403F5A0631A46BB68136077
:1022200050E07A68FB682C2101FB03F3134461330F
:102230001B78032B22D17A68FB682C2101FB03F366
:102240001344603302221A70FB685A013B6913443D
:1022500003F5A0631B68BB60BB6823F08043BB60D1
:10226000BB6843F00043BB60FB685A013B69134401
:1022700003F5A0631A46BB68136023E07A68FB6825
:102280002C2101FB03F3134461331B78072B19D175
:102290007A68FB682C2101FB03F313445C331B6851
:1022A0005A1C7968FB682C2000FB03F30B445C3359
:1022B0001A607A68FB682C2101FB03F31344603336
:1022C00004221A70FB685A013B69134403F5A063AA
:1022D0001A4602239360FB68D9B27A68FB682C2007
:1022E00000FB03F3134460331B781A46786807F049
:1022F00063FD7DE0FB685A013B69134403F5A0636D
:102300009B6803F01003102B72D17A68FB682C21B4
:1023100001FB03F313443F331B78032B21D17A686D
:10232000FB682C2101FB03F313445C3300221A6089
:10233000FB685A013B69134403F5A063DB68FA6844
:1023400051013A690A4402F5A06243F00203D360E6
:102350007B681B68FA68D2B21146184603F03CF855
:102360003DE07A68FB682C2101FB03F313443F3303
:102370001B78002B09D07A68FB682C2101FB03F342
:1023800013443F331B78022B29D17A68FB682C2138
:1023900001FB03F313445C3300221A607A68FB6884
:1023A0002C2101FB03F31344613303221A70FB68F1
:1023B0005A013B69134403F5A063DB68FA685101D5
:1023C0003A690A4402F5A06243F00203D3607B68D5
:1023D0001B68FA68D2B21146184602F0FDFFFB688E
:1023E0005A013B69134403F5A0631A461023936016
:1023F00000BF1837BD4680BD80B588B000AF78609B
:102400000B46FB707B681B68FB61FB69BB61FB785B
:102410007B617B695A01BB69134403F5A0639B6828
:1024200003F00403042B19D17B695A01BB691344DF
:1024300003F5A0631A46042393607B695A01BB69C4
:10244000134403F5A063DB687A695101BA690A4451
:1024500002F5A06243F00203D36063E37B695A0193
:10246000BB69134403F5A0639B6803F02003202B92
:102470003ED17B695A01BB69134403F5A0631A4638
:10248000202393607A687B692C2101FB03F31344BA
:102490003D331B78012B40F045837A687B692C2102
:1024A00001FB03F313443D3300221A707A687B6901
:1024B0002C2101FB03F31344603302221A707B6961
:1024C0005A01BB69134403F5A063DB687A695101C3
:1024D000BA690A4402F5A06243F00203D3607B6844
:1024E0001B687A69D2B21146184602F075FF19E3EB
:1024F0007B695A01BB69134403F5A0639B6803F42D
:102500000073B3F5007F22D17B695A01BB69134484
:1025100003F5A063DB687A695101BA690A4402F5E0
:10252000A06243F00203D3607B681B687A69D2B271
:102530001146184602F050FF7B695A01BB691344EB
:1025400003F5A0631A464FF400739360EAE27B69D7
:102550005A01BB69134403F5A0639B6803F00103B0
:10256000012B50D17A687B692C2101FB03F31344C2
:102570005C3300221A607B695A01BB69134403F57E
:10258000A0639B6803F04003402B11D17A687B69FC
:102590002C2101FB03F313443D3301221A707B69A4
:1025A0005A01BB69134403F5A0631A4640239360A4
:1025B0007B695A01BB69134403F5A063DB687A6940
:1025C0005101BA690A4402F5A06243F00203D360E4
:1025D0007B681B687A69D2B21146184602F0FCFE8D
:1025E0007B695A01BB69134403F5A0631A460123B2
:1025F00093607A687B692C2101FB03F313446133F8
:1026000001221A708EE27B695A01BB69134403F5FB
:10261000A0639B6803F04003402B3CD17A687B6940
:102620002C2101FB03F31344613304221A707A68EE
:102630007B692C2101FB03F313443D3301221A7003
:102640007A687B692C2101FB03F313445C3300227D
:102650001A607B695A01BB69134403F5A063DB6808
:102660007A695101BA690A4402F5A06243F0020393
:10267000D3607B681B687A69D2B21146184602F0B3
:10268000ABFE7B695A01BB69134403F5A0631A468C
:102690004023936046E27B695A01BB69134403F50A
:1026A000A0639B6803F00803082B2AD17B695A01B9
:1026B000BB69134403F5A0631A46082393607B6942
:1026C0005A01BB69134403F5A063DB687A695101C1
:1026D000BA690A4402F5A06243F00203D3607B6842
:1026E0001B687A69D2B21146184602F075FE7A6804
:1026F0007B692C2101FB03F31344613305221A701B
:1027000010E27B695A01BB69134403F5A0639B681F
:1027100003F01003102B33D17A687B692C2101FB65
:1027200003F313445C3300221A607A687B692C211E
:1027300001FB03F31344613303221A707B695A01CE
:10274000BB69134403F5A063DB687A695101BA6978
:102750000A4402F5A06243F00203D3607B681B6861
:102760007A69D2B21146184602F036FE7B695A01E8
:10277000BB69134403F5A0631A4610239360D1E1AB
:102780007B695A01BB69134403F5A0639B6803F09E
:102790008003802B2AD17A687B692C2101FB03F30B
:1027A0001344613306221A707B695A01BB691344D2
:1027B00003F5A063DB687A695101BA690A4402F53E
:1027C000A06243F00203D3607B681B687A69D2B2CF
:1027D0001146184602F000FE7B695A01BB6913449A
:1027E00003F5A0631A46802393609BE17B695A013D
:1027F000BB69134403F5A0639B6803F48063B3F5DE
:10280000806F34D17B695A01BB69134403F5A0631F
:10281000DB687A695101BA690A4402F5A06243F0A3
:102820000203D3607B681B687A69D2B211461846EE
:1028300002F0D2FD7B695A01BB69134403F5A06322
:102840001A46102393607B695A01BB69134403F550
:10285000A0631A464FF4806393607A687B692C21E9
:1028600001FB03F31344613308221A705AE17B69B8
:102870005A01BB69134403F5A0639B6803F002038C
:10288000022B40F04F817B695A01BB69134403F569
:10289000A063DB687A695101BA690A4402F5A06253
:1028A00023F00203D3607A687B692C2101FB03F3D8
:1028B000134461331B78012B7DD17A687B692C210D
:1028C00001FB03F31344603301221A707A687B69B9
:1028D0002C2101FB03F313443F331B78022B0AD056
:1028E0007A687B692C2101FB03F313443F331B7887
:1028F000032B40F000817B681B69002B13D17A68A1
:102900007B692C2101FB03F3134455331B7883F0BF
:102910000103D8B27A687B692C2101FB03F31344CD
:10292000553302461A707B681B69012B40F0E38027
:102930007A687B692C2101FB03F313444C331B6839
:10294000002B00F0D8807A687B692C2101FB03F30F
:1029500013444C331B6879687A692C2000FB02F21F
:102960000A44403212881344013B79687A692C206A
:1029700000FB02F20A4440321288B3FBF2F3FB6020
:10298000FB6803F00103002B00F0B5807A687B69D7
:102990002C2101FB03F3134455331B7883F001030F
:1029A000D8B27A687B692C2101FB03F313445533B9
:1029B00002461A709FE07A687B692C2101FB03F3C1
:1029C000134461331B78032B09D17A687B692C216E
:1029D00001FB03F31344603302221A708BE07A6820
:1029E0007B692C2101FB03F3134461331B78042B17
:1029F00009D17A687B692C2101FB03F3134460330E
:102A000002221A7077E07A687B692C2101FB03F3BC
:102A1000134461331B78052B09D17A687B692C211B
:102A200001FB03F31344603305221A7063E07A68F4
:102A30007B692C2101FB03F3134461331B78062BC4
:102A400009D07A687B692C2101FB03F313446133BD
:102A50001B78082B4FD17A687B692C2101FB03F38B
:102A600013445C331B685A1C79687B692C2000FB7B
:102A700003F30B445C331A607A687B692C2101FBF9
:102A800003F313445C331B68022B12D97A687B6909
:102A90002C2101FB03F313445C3300221A607A6893
:102AA0007B692C2101FB03F31344603304221A7069
:102AB00021E07A687B692C2101FB03F31344603326
:102AC00002221A707B695A01BB69134403F5A063A3
:102AD0001B683B613B6923F080433B613B6943F0EA
:102AE00000433B617B695A01BB69134403F5A06352
:102AF0001A463B6913607B695A01BB69134403F5AD
:102B0000A0631A46022393607B69D9B27A687B6915
:102B10002C2000FB03F3134460331B781A467868BB
:102B200007F04AF900BF2037BD4680BD80B58AB0A6
:102B300000AF78607B681B687B627B6A3B627B6866
:102B40001B681B6AFB61FB6903F00F03BB61FB6938
:102B50005B0C03F00F037B61FB691B09C3F30A03E2
:102B60003B617B69022B04D07B69052B00F0A980B7
:102B7000AAE03B69002B00F0A6807A68BB692C2193
:102B800001FB03F3134444331B68002B00F09B80CC
:102B90007A68BB692C2101FB03F3134450331A6894
:102BA0003B691A447968BB692C2000FB03F30B4492
:102BB0004C331B689A427AD87B6818687A68BB697C
:102BC0002C2101FB03F3134444331B683A6992B28E
:102BD000194602F020F87A68BB692C2101FB03F347
:102BE000134444331A683B691A447968BB692C2042
:102BF00000FB03F30B4444331A607A68BB692C2151
:102C000001FB03F3134450331A683B691A44796893
:102C1000BB692C2000FB03F30B4450331A60BB69E3
:102C20005A013B6A134403F5A0631B69DB0CC3F331
:102C30000903FB607A68BB692C2101FB03F3134491
:102C400040331B881A463B6993423CD1FB68002BFA
:102C500039D0BB695A013B6A134403F5A0631B6872
:102C6000BB60BB6823F08043BB60BB6843F000439C
:102C7000BB60BB695A013B6A134403F5A0631A4663
:102C8000BB6813607A68BB692C2101FB03F3134412
:102C900054331B7883F00103D8B27A68BB692C21C6
:102CA00001FB03F31344543302461A700BE07A68B5
:102CB000BB692C2101FB03F31344603304221A7017
:102CC00001E000BF00E000BF00BF2837BD4680BD67
:102CD00080B586B000AF78607B681B687B617B69DC
:102CE0003B613B6903F588631B68FB603B6903F547
:102CF00088631B68BB60BB6823F02E03BB60FB6866
:102D000003F00203022B0BD1FB6803F00103012B3C
:102D100002D1786807F034F8BB6843F00203BB6067
:102D2000FB6803F00803082B32D1BB6843F00803AB
:102D3000BB60FB6803F00403042B26D17B689B690E
:102D4000022B13D1FB6803F4C023B3F5802F06D107
:102D50007B681B680221184602F07CF811E07B6852
:102D60001B680121184602F075F80AE07B68DB68F1
:102D7000012B06D13B6903F580631A464EF66023AA
:102D80005360786807F02AF802E0786807F034F8B2
:102D9000FB6803F02003202B03D1BB6843F0200322
:102DA000BB603B6903F588631A46BB68136000BFCC
:102DB0001837BD4680BD000080B586B000AF786092
:102DC0007B68002B01D1012304E37B681B6803F0BF
:102DD0000103002B00F08780924B5B6803F00C032B
:102DE000042B0CD08F4B5B6803F00C03082B12D123
:102DF0008C4B5B6803F48033B3F5803F0BD1894B78
:102E00001B6803F40033002B6CD07B689B68002B9D
:102E100068D10123DEE27B689B68B3F5803F06D171
:102E2000804B1B687F4A43F4803313602EE07B683D
:102E30009B68002B0CD17B4B1B687A4A23F48033B0
:102E40001360784B1B68774A23F4802313601DE0DE
:102E50007B689B68B3F5A02F0CD1724B1B68714A3D
:102E600043F4802313606F4B1B686E4A43F4803336
:102E700013600BE06B4B1B686A4A23F480331360CA
:102E8000684B1B68674A23F4802313607B689B6848
:102E9000002B13D0FDF7CAFE386108E0FDF7C6FE2F
:102EA00002463B69D31A642B01D9032392E25D4B9E
:102EB0001B6803F40033002BF0D014E0FDF7B6FEDE
:102EC000386108E0FDF7B2FE02463B69D31A642B75
:102ED00001D903237EE2534B1B6803F40033002B1C
:102EE000F0D100E000BF7B681B6803F00203002BF9
:102EF00063D04C4B5B6803F00C03002B0BD0494BA9
:102F00005B6803F00C03082B1CD1464B5B6803F491
:102F10008033002B16D1434B1B6803F00203002BB8
:102F200005D07B685B69012B01D0012352E23D4B48
:102F30001B6823F0F8027B689B69DB003949134367
:102F40000B603AE07B685B69002B20D0364B012296
:102F50001A60FDF76BFE386108E0FDF767FE024678
:102F60003B69D31A022B01D9032333E22D4B1B6893
:102F700003F00203002BF0D02A4B1B6823F0F80269
:102F80007B689B69DB00274913430B6015E0264BE8
:102F900000221A60FDF74AFE386108E0FDF746FEA0
:102FA00002463B69D31A022B01D9032312E21D4BBF
:102FB0001B6803F00203002BF0D17B681B6803F051
:102FC0000803002B3AD07B68DB69002B19D0174B24
:102FD00001221A60FDF72AFE386108E0FDF726FE9F
:102FE00002463B69D31A022B01D90323F2E10D4BB0
:102FF0005B6A03F00203002BF0D0012000F01CFC00
:103000001CE00A4B00221A60FDF710FE38610FE049
:10301000FDF70CFE02463B69D31A022B08D90323A5
:10302000D8E100BF0010024000004242800442424A
:103030009B4B5B6A03F00203002BE9D17B681B68A2
:1030400003F00403002B00F0A6800023FB75944BD3
:10305000DB6903F08053002B0DD1914BDB69904A63
:1030600043F08053D3618E4BDB6903F08053BB6028
:10307000BB680123FB758B4B1B6803F48073002B2B
:1030800018D1884B1B68874A43F480731360FDF79F
:10309000CDFD386108E0FDF7C9FD02463B69D31A52
:1030A000642B01D9032395E17E4B1B6803F48073E5
:1030B000002BF0D07B681B69012B06D1784B1B6A73
:1030C000774A43F0010313622DE07B681B69002BF4
:1030D0000CD1734B1B6A724A23F001031362704BCD
:1030E0001B6A6F4A23F0040313621CE07B681B69B0
:1030F000052B0CD16A4B1B6A694A43F00403136227
:10310000674B1B6A664A43F0010313620BE0644B92
:103110001B6A634A23F001031362614B1B6A604A16
:1031200023F0040313627B681B69002B15D0FDF7A5
:103130007DFD38610AE0FDF779FD02463B69D31A4F
:1031400041F28832934201D9032343E1544B1B6A75
:1031500003F00203002BEED014E0FDF767FD3861A9
:103160000AE0FDF763FD02463B69D31A41F288325B
:10317000934201D903232DE1494B1B6A03F002035B
:10318000002BEED1FB7D012B05D1454BDB69444A79
:1031900023F08053D3617B68DB6A002B00F08C80C6
:1031A0003F4B5B6803F48033B3F5803F0ED13C4B5B
:1031B0005B6803F00C03082B08D1394BDB6A03F47E
:1031C0008033B3F5803F01D1012303E17B68DB6AE3
:1031D000022B4ED1324B1B6803F08053002B09D0D9
:1031E0002F4BDB6A03F0F0027B685B6B9A4201D0E5
:1031F0000123EFE02C4B00221A60FDF717FD386128
:1032000008E0FDF713FD02463B69D31A642B01D990
:103210000323DFE0224B1B6803F00063002BF0D197
:103220001F4BDB6A23F0F0027B685B6B1C49134386
:10323000CB621B4BDB6A23F470627B681B6B184903
:103240001343CB62184B01221A60FDF7EFFC386183
:1032500008E0FDF7EBFC02463B69D31A642B01D969
:103260000323B7E00E4B1B6803F00063002BF0D084
:1032700022E00B4BDB6A0A4A23F48033D3620A4B09
:1032800000221A60FDF7D2FC38610FE0FDF7CEFC9A
:1032900002463B69D31A642B08D903239AE000BF86
:1032A0000010024000700040680042424B4B1B6817
:1032B00003F00063002BE9D17B681B6A002B00F050
:1032C0008880464B5B6803F00C03082B68D07B6852
:1032D0001B6A022B4DD1424B00221A60FDF7A6FC5F
:1032E000386108E0FDF7A2FC02463B69D31A022BC5
:1032F00001D903236EE0394B1B6803F00073002BE8
:10330000F0D17B685B6AB3F5803F0FD1334BDA6A4B
:103310007B685B6831491343CB62304BDB6A23F037
:103320000F027B68DB682D491343CB622B4B5B6834
:1033300023F474127B68596A7B689B6A0B432749A4
:1033400013434B60264B01221A60FDF76FFC386176
:1033500008E0FDF76BFC02463B69D31A022B01D94A
:10336000032337E01D4B1B6803F00073002BF0D0E4
:103370002FE01B4B00221A60FDF758FC386108E073
:10338000FDF754FC02463B69D31A022B01D90323F3
:1033900020E0124B1B6803F00073002BF0D118E003
:1033A0007B681B6A012B01D1012313E00B4B5B6887
:1033B000FB60FB6803F480327B685B6A9A4206D14B
:1033C000FB6803F470127B689B6A9A4201D0012368
:1033D00000E0002318461837BD4680BD00100240AB
:1033E0006000424280B584B000AF786039607B688D
:1033F000002B01D10123D0E06A4B1B6803F00703C7
:103400003A689A4210D9674B1B6823F00702654956
:103410003B6813430B60634B1B6803F007033A6878
:103420009A4201D00123B8E07B681B6803F00203D5
:10343000002B20D07B681B6803F00403002B05D011
:10344000594B5B68584A43F4E06353607B681B68E0
:1034500003F00803002B05D0534B5B68524A43F43A
:1034600060535360504B5B6823F0F0027B689B68AD
:103470004D4913434B607B681B6803F00103002B2D
:1034800040D07B685B68012B07D1474B1B6803F476
:103490000033002B15D101237FE07B685B68022B92
:1034A00007D1414B1B6803F00073002B09D10123A6
:1034B00073E03D4B1B6803F00203002B01D1012395
:1034C0006BE0394B5B6823F003027B685B6836492D
:1034D00013434B60FDF7AAFBF8600AE0FDF7A6FB7B
:1034E0000246FB68D31A41F28832934201D9032382
:1034F00053E02D4B5B6803F00C027B685B689B001C
:103500009A42EBD1274B1B6803F007033A689A42B3
:1035100010D2244B1B6823F0070222493B68134357
:103520000B60204B1B6803F007033A689A4201D0F6
:10353000012332E07B681B6803F00403002B08D0F2
:10354000194B5B6823F4E0627B68DB681649134320
:103550004B607B681B6803F00803002B09D0124BFB
:103560005B6823F460527B681B69DB000E491343E0
:103570004B6000F021F802460B4B5B681B0903F01F
:103580000F030A49CB5C22FA03F3094A1360094B83
:103590001B681846FDF734FA002318461037BD465D
:1035A00080BD00BF002002400010024070A500084E
:1035B00000000020040000202DE9F04F99B000AF7A
:1035C000664B07F134040FCB07C42380644B07F12B
:1035D00024040FCB84E80F0000237B6500233B65A8
:1035E0000023FB650023FB640023BB650023BB6451
:1035F00000237B645B4B5B687B657B6D03F00C0396
:10360000042B02D0082B03D09FE0574BBB659FE0F3
:103610007B6D9B0C03F00F03403307F12002134432
:1036200013F82C3CFB647B6D03F48033002B00F01B
:1036300084804C4BDB6A03F00F03403307F1200218
:10364000134413F83C3C3B65464BDB6A03F4803380
:10365000002B60D0434BDB6A1B0903F00F030133DF
:10366000BB64404BDB6A1B0A03F00F0302337B642D
:103670007B6C00223B617A61FB6C0022BB61FA61CA
:10368000D7E904342246D7E9060184460CFB02F24E
:10369000C7E906018C4618462146034603FB0CF396
:1036A00013440246B969A2FB01894B4499462E4B4B
:1036B00003FB09F2002303FB08F313442A4AA8FB87
:1036C00002AB5B449B46BB6C0022BB60FA603B6D67
:1036D00000223B607A60D7E902342246D7E90089AC
:1036E000414601FB02F2CC4618462146034603FB45
:1036F0000CF3134402464146A2FB015633441E46D6
:103700002A46334650465946FCF792FD02460B4680
:103710001346FB6507E0FB6C134A03FB02F23B6DAB
:10372000B2FBF3F3FB6597F841301A46FB6C93420A
:1037300008D1FB6D5B08FB6504E0FB6C0B4A02FBE8
:1037400003F3FB65FB6DBB6502E0094BBB6500BF86
:10375000BB6D18466437BD46BDE8F08F0CA5000868
:103760001CA50008001002408096980000093D004A
:1037700000127A0080B400AF024B1B681846BD46A9
:1037800080BC70470000002080B500AFFFF7F2FF5B
:103790000246054B5B681B0A03F007030349CB5C39
:1037A00022FA03F3184680BD0010024080A50008ED
:1037B00080B500AFFFF7DEFF0246054B5B68DB0A12
:1037C00003F007030349CB5C22FA03F3184680BDDC
:1037D0000010024080A5000880B483B000AF78607C
:1037E00039607B680F221A60114B5B6803F003029B
:1037F0007B685A600E4B5B6803F0F0027B689A604E
:103800000B4B5B6803F4E0627B68DA60084B5B6833
:10381000DB0803F4E0627B681A61064B1B6803F067
:1038200007023B681A6000BF0C37BD4680BC70477A
:10383000001002400020024080B485B000AF7860E4
:103840000A4B1B680A4AA2FB03235B0A7A6802FB45
:1038500003F3FB6000BFFB685A1EFA60002BF9D12E
:1038600000BF00BF1437BD4680BC70470000002079
:10387000D34D621080B588B000AF786000237B61C3
:1038800000233B610023FB617B681B6803F001039D
:10389000002B7DD00023FB768B4BDB6903F080533C
:1038A000002B0DD1884BDB69874A43F08053D361ED
:1038B000854BDB6903F08053FB60FB680123FB76DB
:1038C000824B1B6803F48073002B18D17F4B1B685D
:1038D0007E4A43F480731360FDF7A8F9786108E02D
:1038E000FDF7A4F902467B69D31A642B01D903239F
:1038F000E5E0764B1B6803F48073002BF0D0724B2D
:103900001B6A03F440733B613B69002B2ED07B683C
:103910005B6803F440733A699A4227D06A4B1B6A8A
:1039200023F440733B616A4B01221A60684B00220A
:103930001A60654A3B6913623B6903F00103002B7F
:1039400014D0FDF773F978610AE0FDF76FF90246CC
:103950007B69D31A41F28832934201D90323AEE046
:10396000594B1B6A03F00203002BEED0564B1B6A27
:1039700023F440727B685B68534913430B62FB7E00
:10398000012B05D1504BDB694F4A23F08053D361A3
:103990007B681B6803F00203002B08D04A4B5B686E
:1039A00023F440427B689B68474913434B607B6824
:1039B0001B6803F00403002B08D0434BDB6A23F49D
:1039C00000327B68DB6840491343CB627B681B682D
:1039D00003F00803002B08D03B4BDB6A23F4802262
:1039E0007B681B6938491343CB62374BDB6A03F4AE
:1039F0000033002B05D1344BDB6A03F48023002B0A
:103A000001D00123FB61FB69012B48D12E4B1B68C0
:103A100003F08053002B38D12B4B1B6803F08063DD
:103A2000002B09D0284BDB6A03F0F0027B689B690E
:103A30009A4201D0012342E0234BDB6A23F0F002DB
:103A40007B689B6920491343CB621F4BDB6A23F4DD
:103A500070427B685B691C491343CB621D4B01229A
:103A60001A60FDF7E3F8786108E0FDF7DFF8024639
:103A70007B69D31A642B01D9032320E0124B1B6806
:103A800003F00053002BF0D009E00F4BDB6A03F486
:103A900070427B685B699A4201D001230FE07B682A
:103AA0001B6803F01003002B08D0074B5B6823F45E
:103AB00080027B68DB69044913434B60002318468E
:103AC0002037BD4680BD00BF00100240007000409E
:103AD000400442427000424280B582B000AF78603C
:103AE0007B68002B01D1012341E07B6893F83D30D6
:103AF000DBB2002B06D17B68002283F83C2078687B
:103B000000F039F87B68022283F83D207B681A6850
:103B10007B6804331946104600F0BCF97B6801222B
:103B200083F846207B68012283F83E207B680122CF
:103B300083F83F207B68012283F840207B680122C4
:103B400083F841207B68012283F842207B680122B0
:103B500083F843207B68012283F844207B6801229C
:103B600083F845207B68012283F83D200023184616
:103B70000837BD4680BD80B483B000AF786000BF19
:103B80000C37BD4680BC704780B485B000AF78600C
:103B90007B6893F83D30DBB2012B01D001233FE07D
:103BA0007B68022283F83D207B681B68DA687B68AB
:103BB0001B6842F00102DA607B681B681B4A934273
:103BC00013D07B681B68B3F1804F0ED07B681B68F5
:103BD000174A934209D07B681B68164A934204D067
:103BE0007B681B68144A934211D17B681B689B68F1
:103BF00003F00703FB60FB68062B10D07B681B6893
:103C00001A687B681B6842F001021A6007E07B6853
:103C10001B681A687B681B6842F001021A60002367
:103C200018461437BD4680BC704700BF002C0140C9
:103C30000004004000080040000C004080B582B045
:103C400000AF78607B681B681B6903F00203022BDE
:103C500022D17B681B68DB6803F00203022B1BD1B7
:103C60007B681B686FF002021A617B6801221A7779
:103C70007B681B689B6903F00303002B03D0786803
:103C800000F0EDF805E0786800F0E0F8786800F002
:103C9000EFF87B6800221A777B681B681B6903F0CA
:103CA0000403042B22D17B681B68DB6803F0040348
:103CB000042B1BD17B681B686FF004021A617B68C0
:103CC00002221A777B681B689B6903F44073002B00
:103CD00003D0786800F0C3F805E0786800F0B6F823
:103CE000786800F0C5F87B6800221A777B681B684B
:103CF0001B6903F00803082B22D17B681B68DB6873
:103D000003F00803082B1BD17B681B686FF00802C7
:103D10001A617B6804221A777B681B68DB6903F0F1
:103D20000303002B03D0786800F099F805E0786869
:103D300000F08CF8786800F09BF87B6800221A7716
:103D40007B681B681B6903F01003102B22D17B6872
:103D50001B68DB6803F01003102B1BD17B681B680A
:103D60006FF010021A617B6808221A777B681B6863
:103D7000DB6903F44073002B03D0786800F06FF820
:103D800005E0786800F062F8786800F071F87B6808
:103D900000221A777B681B681B6903F00103012B63
:103DA0000ED17B681B68DB6803F00103012B07D190
:103DB0007B681B686FF001021A617868FCF77CFD74
:103DC0007B681B681B6903F08003802B0ED17B6826
:103DD0001B68DB6803F08003802B07D17B681B68BE
:103DE0006FF080021A61786800F0C9F87B681B6880
:103DF0001B6903F04003402B0ED17B681B68DB6816
:103E000003F04003402B07D17B681B686FF0400232
:103E10001A61786800F035F87B681B681B6903F04D
:103E20002003202B0ED17B681B68DB6803F0200386
:103E3000202B07D17B681B686FF020021A6178681D
:103E400000F094F800BF0837BD4680BD80B483B051
:103E500000AF786000BF0C37BD4680BC704780B4AF
:103E600083B000AF786000BF0C37BD4680BC7047A0
:103E700080B483B000AF786000BF0C37BD4680BC13
:103E8000704780B483B000AF786000BF0C37BD4688
:103E900080BC704780B485B000AF786039607B68C3
:103EA0001B68FB607B682D4A93420FD07B68B3F19F
:103EB000804F0BD07B682A4A934207D07B68294AFF
:103EC000934203D07B68284A934208D1FB6823F0D1
:103ED0007003FB603B685B68FA681343FB607B68B8
:103EE0001E4A93420FD07B68B3F1804F0BD07B68A2
:103EF0001B4A934207D07B681A4A934203D07B68DF
:103F0000194A934208D1FB6823F44073FB603B6875
:103F1000DB68FA681343FB60FB6823F080023B68B0
:103F20005B691343FB607B68FA681A603B689A68B8
:103F30007B68DA623B681A687B689A627B68074A2A
:103F4000934203D13B681A697B681A637B6801223C
:103F50005A6100BF1437BD4680BC7047002C014039
:103F60000004004000080040000C004080B483B012
:103F700000AF786000BF0C37BD4680BC704780B48E
:103F800083B000AF786000BF0C37BD4680BC70477F
:103F900080B582B000AF78607B68002B01D101232F
:103FA0003FE07B6893F83D30DBB2002B06D17B68A5
:103FB000002283F83C207868FCF7CEFC7B68242242
:103FC00083F83D207B681B68DA687B681B6822F4F5
:103FD0000052DA60786800F085FC7B681B681A691B
:103FE0007B681B6822F490421A617B681B685A69DF
:103FF0007B681B6822F02A025A617B681B68DA68BA
:104000007B681B6842F40052DA607B6800221A6405
:104010007B68202283F83D207B68202283F83E20A5
:10402000002318460837BD4680BD80B58AB002AF70
:10403000F860B9603B601346FB8000237B61FB683E
:1040400093F83D30DBB2202B7CD1BB68002B02D033
:10405000FB88002B01D1012375E0FB6893F83C300D
:10406000012B01D102236EE0FB68012283F83C2082
:10407000FB6800221A64FB68212283F83D20FCF7CC
:10408000D5FD7861FB68FA889A84FB68FA88DA843F
:10409000FB689B68B3F5805F08D1FB681B69002B48
:1040A00004D10023FB61BB68BB6103E0BB68FB611B
:1040B0000023BB61FB68002283F83C202AE03B68B8
:1040C00000937B6900228021F86800F038FA0346EB
:1040D000002B01D0032336E0FB69002B0BD1BB6919
:1040E0001B881A46FB681B68C2F308025A60BB694A
:1040F0000233BB6107E0FB691A78FB681B685A60F2
:10410000FB690133FB61FB68DB8C9BB2013B9AB21C
:10411000FB68DA84FB68DB8C9BB2002BCFD13B6859
:1041200000937B6900224021F86800F008FA0346FA
:10413000002B01D0032306E0FB68202283F83D20FA
:10414000002300E0022318462037BD4680BD80B51D
:1041500084B000AFF860B9601346FB80FB6893F849
:104160003E30DBB2202B1DD1BB68002B02D0FB8878
:10417000002B01D1012316E0FB6893F83C30012BA2
:1041800001D102230FE0FB68012283F83C20FB6889
:1041900000221A63FB881A46B968F86800F019FA19
:1041A000034600E0022318461037BD4680BD0000DC
:1041B00080B58AB000AF78607B681B681B687B6243
:1041C0007B681B68DB683B627B681B685B69FB6123
:1041D0000023BB6100237B617B6A03F00F03BB619B
:1041E000BB69002B0DD17B6A03F02003002B08D0A4
:1041F0003B6A03F02003002B03D0786800F0C9FA73
:104200007BE1BB69002B00F0B180FB6903F0010387
:10421000002B05D13B6A03F49073002B00F0A680BD
:104220007B6A03F00103002B0AD03B6A03F480731E
:10423000002B05D07B681B6C43F001027B681A647D
:104240007B6A03F00403002B0AD0FB6903F001032F
:10425000002B05D07B681B6C43F002027B681A645C
:104260007B6A03F00203002B0AD0FB6903F0010311
:10427000002B05D07B681B6C43F004027B681A643A
:104280007B6A03F00803002B0FD03B6A03F0200386
:10429000002B04D1FB6903F00103002B05D07B68E0
:1042A0001B6C43F008027B681A647B681B6C002B54
:1042B00000F01E817B6A03F02003002B07D03B6ACD
:1042C00003F02003002B02D0786800F062FA7B68CC
:1042D0001B685B6903F04003002B14BF012300231C
:1042E000DBB27B617B681B6C03F00803002B02D1FF
:1042F0007B69002B31D0786800F0A4F97B681B68DB
:104300005B6903F04003002B23D07B681B685A696C
:104310007B681B6822F040025A617B689B6B002B14
:1043200013D07B689B6B764A5A637B689B6B1846FD
:10433000FCF7C4FD0346002B16D07B689B6B5B6BC0
:104340007A68926B104698470EE0786800F0E3F8C0
:104350000AE0786800F0DFF806E0786800F0DBF843
:104360007B6800221A64C3E000BFC1E07B681B6B5E
:10437000012B40F0A1807B6A03F01003002B00F0BA
:104380009B803B6A03F01003002B00F09580002314
:10439000FB607B681B681B68FB607B681B685B6855
:1043A000FB60FB687B681B685B6903F04003002BC4
:1043B0004ED07B689B6B1B685B683B823B8A002B03
:1043C00000F098807B689B8D3A8A9A4280F09280B8
:1043D0007B683A8ADA857B689B6B9B69202B2BD0A4
:1043E0007B681B68DA687B681B6822F48072DA607D
:1043F0007B681B685A697B681B6822F001025A615E
:104400007B681B685A697B681B6822F040025A610E
:104410007B68202283F83E207B6800221A637B6839
:104420001B68DA687B681B6822F01002DA607B6820
:104430009B6B1846FCF707FD7B689A8D7B68DB8DCC
:104440009BB2D31A9BB21946786800F06DF851E020
:104450007B689A8D7B68DB8D9BB2D31A7B827B68ED
:10446000DB8D9BB2002B47D07B8A002B44D07B682E
:104470001B68DA687B681B6822F49072DA607B68DC
:104480001B685A697B681B6822F001025A617B68CD
:10449000202283F83E207B6800221A637B681B6819
:1044A000DA687B681B6822F01002DA607B8A1946A2
:1044B000786800F039F81FE07B6A03F08003002B76
:1044C00008D03B6A03F08003002B03D0786800F02B
:1044D000F9F812E07B6A03F04003002B0DD03B6A31
:1044E00003F04003002B08D0786800F03AF904E0AC
:1044F00000BF02E000BF00E000BF2837BD4680BD1E
:104500009D46000880B483B000AF786000BF0C37D0
:10451000BD4680BC704780B483B000AF786000BFF8
:104520000C37BD4680BC704780B483B000AF786064
:104530000B467B8000BF0C37BD4680BC704780B502
:1045400084B000AFF860B9603B601346FB712CE0AB
:10455000BB69B3F1FF3F28D0BB69002B07D0FCF744
:1045600065FB02463B68D31ABA699A421DD2FB68C2
:104570001B68DA68FB681B6822F4D072DA60FB689B
:104580001B685A69FB681B6822F001025A61FB68CC
:10459000202283F83D20FB68202283F83E20FB6820
:1045A000002283F83C2003230FE0FB681B681A6895
:1045B000BB681340BA689A420CBF01230023DBB2E8
:1045C0001A46FB799A42C3D0002318461037BD46DD
:1045D00080BD80B485B000AFF860B9601346FB8041
:1045E000FB68BA689A62FB68FA889A85FB68FA8861
:1045F000DA85FB6800221A64FB68222283F83E20D9
:10460000FB68002283F83C20FB681B68DA68FB68C3
:104610001B6842F48072DA60FB681B685A69FB68A9
:104620001B6842F001025A61FB681B68DA68FB688C
:104630001B6842F02002DA60002318461437BD469A
:1046400080BC704780B483B000AF78607B681B6823
:10465000DA687B681B6822F49072DA607B681B68FA
:104660005A697B681B6822F001025A617B681B6BE8
:10467000012B07D17B681B68DA687B681B6822F016
:104680001002DA607B68202283F83E207B680022DB
:104690001A6300BF0C37BD4680BC704780B584B03C
:1046A00000AF78607B685B6AFB60FB680022DA859C
:1046B000FB680022DA84F868FFF72DFF00BF10378F
:1046C000BD4680BD80B485B000AF78607B6893F84C
:1046D0003D30DBB2212B3ED17B689B68B3F5805F18
:1046E00014D17B681B69002B10D17B681B6AFB60AF
:1046F000FB681B881A467B681B68C2F308025A6075
:104700007B681B6A9A1C7B681A6208E07B681B6ADC
:10471000591C7A6811621A787B681B685A607B683A
:10472000DB8C9BB2013B9BB27A681946D184002B8B
:104730000FD17B681B68DA687B681B6822F08002F7
:10474000DA607B681B68DA687B681B6842F04002AD
:10475000DA60002300E0022318461437BD4680BC0F
:10476000704780B582B000AF78607B681B68DA68FC
:104770007B681B6822F04002DA607B68202283F8A5
:104780003D207868FFF7BEFE002318460837BD4677
:1047900080BD80B586B000AF78607B6893F83E300E
:1047A000DBB2222B40F099807B689B68B3F5805F79
:1047B00017D17B681B69002B13D100237B617B68B9
:1047C0009B6A3B617B681B685B689BB2C3F3080311
:1047D0009AB23B691A807B689B6A9A1C7B689A62D2
:1047E00026E07B689B6A7B6100233B617B689B685A
:1047F000B3F5805F07D07B689B68002B0AD17B688C
:104800001B69002B06D17B681B685B68DAB27B6989
:104810001A7008E07B681B685B68DBB203F07F03FB
:10482000DAB27B691A707B689B6A5A1C7B689A6251
:104830007B68DB8D9BB2013B9BB27A681946D185C0
:10484000002B48D17B681B68DA687B681B6822F004
:104850002002DA607B681B68DA687B681B6822F4D8
:104860008072DA607B681B685A697B681B6822F07B
:1048700001025A617B68202283F83E207B681B6B13
:10488000012B23D17B6800221A637B681B68DA68DE
:104890007B681B6822F01002DA607B681B681B686B
:1048A00003F01003102B0AD10023FB607B681B6808
:1048B0001B68FB607B681B685B68FB60FB687B6850
:1048C0009B8D19467868FFF72FFE02E07868FBF7AA
:1048D0008BFF002302E0002300E002231846183774
:1048E000BD4680BD80B584B000AF78607B681B6832
:1048F0001B6923F440517B68DA687B681B680A43B4
:104900001A617B689A687B681B691A437B685B69DC
:104910001343BB607B681B68DB6823F4B05323F050
:104920000C037A681268B9680B43D3607B681B6814
:104930005B6923F440717B689A697B681B680A4352
:104940005A617B681B682C4A934203D1FEF730FF03
:10495000F86002E0FEF718FFF860FA6813469B0063
:1049600013449A001A447B685B689B00B2FBF3F324
:10497000224AA2FB03235B091901FA6813469B0034
:1049800013449A001A447B685B689B00B2FBF3F205
:104990001A4BA3FB02035B09642000FB03F3D31A49
:1049A0001B013233154AA2FB03235B0903F0F0031A
:1049B0001944FA6813469B0013449A001A447B6812
:1049C0005B689B00B2FBF3F20C4BA3FB02035B0999
:1049D000642000FB03F3D31A1B013233074AA2FB06
:1049E00003235B0903F00F027B681B680A449A608B
:1049F00000BF1037BD4680BD003801401F85EB5118
:104A000084B080B584B000AF786007F11C0080E806
:104A10000E007B68DB6843F040027B68DA607868F0
:104A200000F070F90346FB737B689B6B43F48032A4
:104A30007B689A63FB7B18461037BD46BDE8804013
:104A400004B0704780B483B000AF78607B689B6827
:104A500043F001027B689A60002318460C37BD467C
:104A600080BC704780B483B000AF78607B689B687F
:104A700023F001027B689A60002318460C37BD467C
:104A800080BC704780B584B000AF78600B46FB7087
:104A90000023FB607B68DB6823F0C0427B68DA6040
:104AA000FB78012B15D17B68DB6843F000527B68F3
:104AB000DA600120FCF7C4F8FB680133FB6078681A
:104AC00000F012F90346012B1ED0FB68312BF0D900
:104AD0001AE0FB78002B15D17B68DB6843F080423D
:104AE0007B68DA600120FCF7ABF8FB680133FB6000
:104AF000786800F0F9F80346002B05D0FB68312BED
:104B0000F0D901E0012305E0FB68322B01D101233C
:104B100000E0002318461037BD4680BD80B485B044
:104B200000AF786039600023FB603B689B0143F075
:104B300020027B681A61FB680133FB60FB68084A4E
:104B4000934201D9032306E07B681B6903F020032D
:104B5000202BF0D0002318461437BD4680BC704788
:104B6000400D030080B485B000AF78600023FB6087
:104B70007B6810221A61FB680133FB60FB68084AFE
:104B8000934201D9032306E07B681B6903F01003FD
:104B9000102BF0D0002318461437BD4680BC704758
:104BA000400D030080B489B000AFF860B9601146D1
:104BB0001A460B46FB711346BB80FB687B61BB68E2
:104BC000FB61BB8803339B083B610023BB6118E09A
:104BD000FB791A037B69134403F580531A46FB697A
:104BE0001B681360FB690133FB61FB690133FB61E7
:104BF000FB690133FB61FB690133FB61BB69013375
:104C0000BB61BA693B699A42E2D300231846243754
:104C1000BD4680BC704780B48BB000AFF860B9600F
:104C20001346FB80FB68BB61BB687B62FB889B080B
:104C30009BB27B61FB8803F00303FB8300233B6291
:104C400014E0BB6903F580531A687B6A1A607B6ABB
:104C500001337B627B6A01337B627B6A01337B6257
:104C60007B6A01337B623B6A01333B623A6A7B6950
:104C70009A42E6D3FB8B002B1ED000233B62BB691C
:104C800003F580531A4607F1100312681A603A6957
:104C90003B6ADBB2DB0022FA03F3DAB27B6A1A70FA
:104CA0003B6A01333B627B6A01337B62FB8B013BD6
:104CB000FB83FB8B002BEAD17B6A18462C37BD4661
:104CC00080BC704780B485B000AF78607B685B695A
:104CD000FB607B689B69FA681340FB60FB681846C1
:104CE0001437BD4680BC704780B483B000AF786095
:104CF0007B685B6903F0010318460C37BD4680BC36
:104D00007047000080B485B000AF78600023FB607E
:104D1000FB680133FB60FB68124A934201D903230D
:104D20001BE07B681B69002BF2DA0023FB607B68C9
:104D30001B6943F001027B681A61FB680133FB6069
:104D4000FB68084A934201D9032306E07B681B698C
:104D500003F00103012BF0D0002318461437BD46A1
:104D600080BC7047400D030084B080B584B000AFB4
:104D7000786007F11C0080E80E007B68BB60BB68B0
:104D800003F560631A46002313607B689B6B23F472
:104D900080227B689A637B689B6B23F400227B688C
:104DA0009A63BB6803F580631B68BA6802F580628A
:104DB00023F00403136010217868FFF7AFFE7868D2
:104DC000FFF7D0FE0023FB6015E0FB685A01BB68CB
:104DD000134403F5A0631A464FF0FF339360FB685A
:104DE0005A01BB68134403F5A0631A460023D3603D
:104DF000FB680133FB603B6AFA689A42E5D37B6843
:104E000000229A617B684FF0FF325A617B688022F2
:104E10005A627B680C4A9A627B680C4AC3F800218C
:104E20007B689B6943F010027B689A617B689A6992
:104E3000074B13437A689361002318461037BD4629
:104E4000BDE8804004B0704780006000E000400092
:104E5000080020A380B485B000AF78600B46FB70DB
:104E60007B68FB60FB6803F580631B68FA6802F5EA
:104E7000806223F003031360FB6803F580631A6804
:104E8000FB7803F00303F96801F5806113430B60BD
:104E9000FB78012B07D1FB6803F580631A464BF6BC
:104EA0008033536009E0FB78022B06D1FB6803F5E1
:104EB00080631A4641F2707353600023184614371A
:104EC000BD4680BC704780B584B000AF78607B6819
:104ED000FB600023BB60FB6803F588631B68BB6055
:104EE000BB6823F02E03BB60BB68FA6802F58862DA
:104EF00043F4807313606420FBF7A2FEBB68FA687A
:104F000002F5886223F4807313600A20FBF798FE91
:104F1000002318461037BD4680BD80B485B000AF71
:104F200078600B46FB707B68FB600023BB60FB680E
:104F300003F588631B68BB60BB6823F02E03BB606E
:104F4000BB6803F48053002B09D1FB78012B06D1F9
:104F5000BB68FA6802F5886243F480531360BB684B
:104F600003F48053B3F5805F09D1FB78002B06D1A1
:104F7000BB68FA6802F5886223F48053136000234B
:104F800018461437BD4680BC704780B485B000AF6A
:104F900078607B68FB600023BB60FB6803F5886377
:104FA0001B68BB60BB685B0C03F003031846143737
:104FB000BD4680BC704780B485B000AF78607B6828
:104FC000FB60FB6803F580639B689BB2184614374F
:104FD000BD4680BC7047000080B588B000AF7860E7
:104FE000084611461A460346FB700B46BB70134633
:104FF0007B700023FB777B683B61FB785A013B6940
:10500000134403F5A0631A464FF0FF33936097F8FB
:105010002C30032B67D801A252F823F02D50000842
:10502000A95000082D5000086B500008FB785A0169
:105030003B69134403F5A0631A4640F29D43D360D5
:1050400097F90230002B51DAFB785A013B6913447F
:1050500003F5A063DB68FA7851013A690A4402F566
:10506000A06243F48073D36040E0FB785A013B694F
:10507000134403F5A0631A4640F29D63D36097F989
:105080000230002B34DAFB785A013B69134403F5F4
:10509000A063DB68FA7851013A690A4402F5A0621C
:1050A00043F48073D36023E0FB785A013B691344D7
:1050B00003F5A0631A4640F22523D36097F9023026
:1050C000002B17DAFB785A013B69134403F5A06300
:1050D000DB68FA7851013A690A4402F5A06243F4A8
:1050E000C073D36006E00123FB7704E000BF02E059
:1050F00000BF00E000BF3B6903F580639A69FB785D
:1051000003F00F03012101FA03F3396901F580610E
:1051100013438B617B689B6943F000727B689A61E3
:1051200097F90230002B03DA4FF40043BB6101E032
:105130000023BB617868FFF728FFF86097F82830F4
:10514000022B06D1FB68022B03D04FF400337B61A6
:1051500001E000237B617B789B0503F0FE52BB7866
:10516000DB0203F4F0431A4397F82C309B0403F45A
:1051700040231A433B8EC3F30A031A43BB691A4305
:10518000FB7859013B690B4403F5A06319467B6921
:1051900013430B6097F82C30032B0FD1FB785A0187
:1051A0003B69134403F5A0631B68FA7851013A691F
:1051B0000A4402F5A06243F000531360FB7F1846D7
:1051C0002037BD4680BD00BF80B588B000AF786095
:1051D00039607B68BB613B685B787B614FF48073AF
:1051E0007B823B685B69002B18D03B685B693A683F
:1051F00012891344013B3A681289B3FBF2F3FB8333
:10520000FA8B7B8A9A420BD97B8AFB83FB8B3A68A9
:10521000128903FB02F23B681A6101E00123FB8360
:105220003B68DB78002B07D0FB8B3A68128903FBC5
:1052300002F23B681A6103E03B685A693B681A61F5
:105240003B681B69C3F31202FB8BD904594B0B401B
:105250001A433B689B7A5B0703F0C04379694801B6
:10526000B969014401F5A06113430B61BB6903F502
:1052700080639B6803F00103002B0CBF0123002314
:10528000DBB27B747B695A01BB69134403F5A063ED
:105290001B687A695101BA690A4402F5A06223F0D9
:1052A000005313607B695A01BB69134403F5A06383
:1052B0001A687B7C5B0779694801B969014401F58B
:1052C000A06113430B607B695A01BB69134403F56A
:1052D000A0631B68BB60BB6823F08043BB603B6876
:1052E000DB78002B04D0BB6843F40043BB6003E0D1
:1052F000BB6823F40043BB60BB6843F00043BB6062
:105300007B695A01BB69134403F5A0631A46BB6865
:1053100013603B68DB78002B47D13B685B69002B4F
:1053200043D03B68DB79032B30D801A252F823F03D
:1053300041530008655300084153000865530008B5
:105340003B685B6903339B08FB81FA897B68DB6AF6
:105350009BB29A421CD97B689B6943F020027B6810
:105360009A6115E03B685B6903339B08FB81FA890E
:10537000BB6903F580631B699BB29A420AD97B68BB
:105380009B6943F080627B689A6103E000BF02E0A2
:1053900000BF00E000BF3B68D9683B685A783B68B3
:1053A0005B699BB27868FFF7FDFB00231846203746
:1053B000BD4680BD0000F81F80B485B000AF7860A6
:1053C0007B68FB60FB6803F580635B699BB21846F2
:1053D0001437BD4680BC704780B489B000AF786098
:1053E0000B46FB707B68BB61FB787B610023FB6134
:1053F0007B695A01BB69134403F5A0631B689B0CCE
:1054000003F003033B617B695A01BB69134403F555
:10541000A0631B68DB0F03F00103FB607B689B68E4
:1054200003F02003202B04D1FB68002B01D10023C3
:10543000E8E03B69002B02D03B69022B73D17B690A
:105440005A01BB69134403F5A0631B687A695101D3
:10545000BA690A4402F5A06243F0804313607B6896
:105460009B6803F02003002B40F0CB807B68DB6A55
:1054700003F47F03002B43D17B695A01BB691344BA
:1054800003F5A0631B687A695101BA690A4402F501
:10549000A06223F0004313607B695A01BB69134487
:1054A00003F5A0631B687A695101BA690A4402F5E1
:1054B000A06243F0004313607B695A01BB69134447
:1054C00003F5A0631B687A695101BA690A4402F5C1
:1054D000A06223F400431360FB690133FB61FB69A5
:1054E000B3F57A7F1DD87B695A01BB69134403F574
:1054F000A0631B6803F00043B3F1004FECD080E0E1
:105500007B695A01BB69134403F5A0631B687A6980
:105510005101BA690A4402F5A06243F000431360E6
:105520006FE000BF6DE07B695A01BB69134403F56E
:10553000A0631B687A695101BA690A4402F5A06246
:1055400043F080431360BB6903F580631B6903F478
:105550007F03002B43D17B695A01BB69134403F5D8
:10556000A0631B687A695101BA690A4402F5A06216
:1055700023F0004313607B695A01BB69134403F5B0
:10558000A0631B687A695101BA690A4402F5A062F6
:1055900043F0004313607B695A01BB69134403F570
:1055A000A0631B687A695101BA690A4402F5A062D6
:1055B00023F400431360FB690133FB61FB69B3F51E
:1055C0007A7F1DD87B695A01BB69134403F5A06338
:1055D0001B6803F00043B3F1004FECD011E07B698E
:1055E0005A01BB69134403F5A0631B687A69510132
:1055F000BA690A4402F5A06243F00043136000E078
:1056000000BF002318462437BD4680BC704780B5D4
:1056100086B000AF78607B68FB6000237B617868B0
:10562000FFF720FA10217868FFF778FA7868FFF71B
:1056300099FA00233B611FE03B695A01FB68134460
:1056400003F5A0631B68BB60BB6843F08043BB608D
:10565000BB6823F00043BB60BB6823F40043BB601E
:105660003B695A01FB68134403F5A0631A46BB6803
:1056700013603B6901333B613B690F2BDCD900238D
:105680003B6134E03B695A01FB68134403F5A063B6
:105690001B68BB60BB6843F08043BB60BB6843F0E2
:1056A0000043BB60BB6823F40043BB603B695A0105
:1056B000FB68134403F5A0631A46BB6813607B695B
:1056C00001337B617B69B3F57A7F0CD83B695A0162
:1056D000FB68134403F5A0631B6803F00043B3F1B8
:1056E000004FECD000E000BF3B6901333B613B69F8
:1056F0000F2BC7D9FB6803F580631A464FF0FF33C1
:1057000053617B684FF0FF325A6100231846183707
:10571000BD4680BD90B589B004AF786001230222F8
:105720000221786800F00EFD0346FB73FB7BFF2B24
:1057300002D0FB7B012B01D902233DE1FB7B194603
:10574000786800F0E4FC0346BB73BB7B002B01D000
:10575000022331E17B68D3F87C43502004F072FDD2
:105760000346E3617B68D3F87C33DB69BB60BB68CD
:10577000002B01D102231FE150220021B86804F060
:105780007FFDFB7B7A681A2101FB03F3134403F5C9
:1057900053731B785BB2002B15DAFB7B7A681A21F6
:1057A00001FB03F3134403F553731A78BB685A7073
:1057B000FB7B7A681A2101FB03F3134403F24E3397
:1057C0001A88BB685A81BB685B781946786801F013
:1057D000A6FF03461A46BB681A70BB681978BB68F7
:1057E00058787B6893F81C437B6893F81D33BA683C
:1057F000528902920322019200932346024678685E
:1058000001F05EFFBB681B7800221946786804F03F
:105810006DFC002300220A21786800F093FC034607
:10582000FB73FB7BFF2B02D0FB7B012B01D90223F7
:10583000C2E0FB7B7A681A2101FB03F3134403F5F2
:1058400053731B785BB2002B16DAFB7B7A681A2144
:1058500001FB03F3134403F553731A78BB68DA733F
:10586000FB7B7A681A2101FB03F3134403F24E33E6
:105870001A88BB685A8315E0FB7B7A681A2101FB02
:1058800003F3134403F553731A78BB689A73FB7BD5
:105890007A681A2101FB03F3134403F24E331A888A
:1058A000BB681A83FB7B7A681A2101FB03F313445C
:1058B00003F555731B785BB2002B16DAFB7B7A6815
:1058C0001A2101FB03F3134403F555731A78BB68DF
:1058D000DA73FB7B7A681A2101FB03F3134403F2AA
:1058E00056331A88BB685A8315E0FB7B7A681A2105
:1058F00001FB03F3134403F555731A78BB689A73DD
:10590000FB7B7A681A2101FB03F3134403F256333D
:105910001A88BB681A83BB689B7B1946786801F0BC
:10592000FEFE03461A46BB685A73BB68DB7B19460A
:10593000786801F0F4FE03461A46BB681A73BB6828
:10594000597BBB68987B7B6893F81C437B6893F812
:105950001D33BA68128B02920222019200932346F1
:105960000246786801F0ACFEBB68197BBB68D87B47
:105970007B6893F81C437B6893F81D33BA68528B9D
:10598000029202220192009323460246786801F0B7
:1059900097FEBB68002283F84C20BB685B7B00222B
:1059A0001946786804F0A2FBBB681B7B00221946ED
:1059B000786804F09BFB002318461437BD4690BD61
:1059C00080B584B000AF78607B68D3F87C33DB6946
:1059D000FB60FB681B78002B0ED0FB681B78194618
:1059E000786801F08CFEFB681B781946786801F036
:1059F000B7FEFB6800221A70FB681B7B002B0ED0E1
:105A0000FB681B7B1946786801F079FEFB681B7BFD
:105A10001946786801F0A4FEFB6800221A73FB683F
:105A20005B7B002B0ED0FB685B7B1946786801F02E
:105A300066FEFB685B7B1946786801F091FEFB68A7
:105A400000225A737B68D3F87C33DB69002B0BD0C0
:105A50007B68D3F87C33DB69184604F0FBFB7B687A
:105A6000D3F87C330022DA61002318461037BD4694
:105A700080BD80B584B000AF78600223FB737B6883
:105A8000D3F87C33DB69BB60BB6840331946786868
:105A900000F0B0F80346FB73FB7B002B05D17B685D
:105AA000D3F8D033022178689847FB7B184610372B
:105AB000BD4680BD80B584B000AF78600123FB7324
:105AC0000023BB737B68D3F87C33DB69BB60BB68A6
:105AD00093F84C30042B77D801A252F823F000BF82
