:020000040800F2
:1000000000000120FD240008792400087F24000856
:10001000852400088B2400089124000800000000BB
:10002000000000000000000000000000972400080D
:10003000A324000800000000AF240008BB2400082F
:1000400045250008452500084525000845250008E8
:1000500045250008452500084525000845250008D8
:1000600045250008452500084525000845250008C8
:1000700045250008452500084525000845250008B8
:1000800045250008452500084525000845250008A8
:100090004525000845250008452500084525000898
:1000A0004525000845250008452500084525000888
:1000B0004525000845250008452500084525000878
:1000C0004525000845250008452500084525000868
:1000D00045250008C92400084525000845250008D5
:1000E00045250008452500084525000800000000BA
:1000F0000000000000000000000000000000000000
:10010000000000000000000045250008452500080B
:1001100045250008DD240008452500084525000880
:100120004525000845250008452500084525000807
:1001300045250008452500084525000845250008F7
:1001400045250008452500084525000845250008E7
:10015000000000000000000000000000000000009F
:10016000000000000000000000000000000000008F
:10017000000000000000000000000000000000007F
:10018000000000000000000000000000000000006F
:10019000000000000000000000000000000000005F
:1001A000000000000000000000000000000000004F
:1001B000000000000000000000000000000000003F
:1001C000000000000000000000000000000000002F
:1001D000000000000000000000000000000000001F
:0401E0005FF8E0F1F3
:1001E40010B5054C237833B9044B13B10448AFF36D
:1001F40000800123237010BD0C00002000000000CB
:10020400A025000808B5034B1BB103490348AFF30D
:10021400008008BD0000000010000020A025000898
:1002240053B94AB9002908BF00281CBF4FF0FF3159
:100234004FF0FF3000F06EB9ADF1080C6DE904CE5B
:1002440000F006F8DDF804E0DDE9022304B07047AD
:100254002DE9F047089E0D4604468E46002B40F0DB
:1002640083808A42174647D9B2FA82F34BB1C3F16D
:10027400200105FA03FE20FA01F19F4041EA0E0E27
:100284009C404FEA1748BEFBF8FC1FFA87F908FBAD
:100294001CE20CFB09F0210C41EA024290420AD90B
:1002A400BA180CF1FF3180F01881904240F21581A8
:1002B400ACF1020C3A44121AB2FBF8F008FB10221B
:1002C40000FB09F1A4B244EA0244A14209D93C1951
:1002D40000F1FF3280F00381A14240F20081023834
:1002E4003C44641A002140EA0C401EB10022DC4068
:1002F400C6E90042BDE8F08702B9FFDEB2FA82F334
:10030400002B4FD18D1A01214FEA124E1FFA82F8A9
:10031400B5FBFEFC0EFB1C5508FB0CF0220C42EA5C
:100324000545A84207D97D190CF1FF3202D2A84233
:1003340000F2E98094462D1AB5FBFEF00EFB105531
:1003440008FB00F8A4B244EA0544A04507D93C19C7
:1003540000F1FF3202D2A04500F2D9801046A4EB8E
:10036400080440EA0C40C0E78B4208D9002E00F094
:10037400B1800021C6E900050846BDE8F087B3FA5C
:1003840083F100294BD1AB4202D3824200F2B980FF
:10039400841A65EB030301209E46002EAAD0C6E909
:1003A400004EA7E79F40C3F12002D1404FEA174E09
:1003B400B1FBFEF01FFA87F80EFB101124FA02F2CB
:1003C4009D4000FB08FC2A43150C45EA0145AC4559
:1003D40004FA03F409D97D1900F1FF3180F08F800C
:1003E400AC4540F28C8002383D44A5EB0C05B5FBCE
:1003F400FEF10EFB115C01FB08F995B245EA0C45D0
:10040400A94507D97D1901F1FF3274D2A94572D9E2
:1004140002393D44A5EB090541EA004178E7C1F101
:1004240020078B4022FA07FC4CEA030C25FA07F458
:100434004FEA1C4EB4FBFEF91FFA8CF80EFB19446C
:1004440020FA07F309FB08FA8D401D432B0C43EAFD
:100454000444A24502FA01F200FA01F309D91CEBA3
:10046400040409F1FF3048D2A24546D9A9F1020992
:100474006444A4EB0A04B4FBFEF00EFB104400FB3E
:1004840008FAADB245EA0444A24508D91CEB0404B9
:1004940000F1FF352DD2A2452BD90238644440EA3D
:1004A4000940A0FB0289A4EB0A044C45C6464D460C
:1004B40019D316D05EB1B3EB0E0264EB050404FA53
:1004C40007F722FA01F31F43CC40C6E90074002168
:1004D400BDE8F087314630460CE78C46EBE6104623
:1004E400FFE64345E6D2B8EB020E69EB0C05013892
:1004F400E0E72846D3E711468CE78146B9E708468A
:1005040073E7084649E7ACF1020C3D4413E70238AF
:100514003C4424E7704700BF80B500AF084B1B681C
:10052400074A43F010031360032000F047F900204A
:1005340000F008F801F0C6FE0023184680BD00BF95
:100544000020024080B582B000AF7860124B1A6878
:10055400124B1B7819464FF47A73B3FBF1F3B2FBD9
:10056400F3F3184600F05FF90346002B01D0012392
:100574000EE07B680F2B0AD8002279684FF0FF3019
:1005840000F027F9064A7B681360002300E001238A
:1005940018460837BD4680BD08000020040000202E
:1005A4000000002080B400AF054B1B781A46054BB1
:1005B4001B681344034A136000BFBD4680BC7047E8
:1005C400040000202800002080B400AF024B1B6808
:1005D4001846BD4680BC70472800002080B584B012
:1005E40000AF7860FFF7F0FFB8607B68FB60FB68E2
:1005F400B3F1FF3F05D00A4B1B781A46FB6813443E
:10060400FB6000BFFFF7E0FF0246BB68D31AFA683D
:100614009A42F7D800BF00BF1037BD4680BD00BF67
:100624000400002080B485B000AF78607B6803F0DC
:100634000703FB600C4BDB68BB60BA684FF6FF0333
:100644001340BB60FB681A02BB68134343F0BF63EB
:1006540043F40033BB60044ABB68D36000BF143763
:10066400BD4680BC704700BF00ED00E080B400AF21
:10067400044BDB681B0A03F007031846BD4680BC25
:10068400704700BF00ED00E080B483B000AF0346C4
:10069400FB7197F90730002B0BDBFB7903F01F028A
:1006A400064997F907305B09012000FA02F241F884
:1006B400232000BF0C37BD4680BC704700E100E03A
:1006C40080B483B000AF03463960FB7197F90730FB
:1006D400002B0ADB3B68DAB20C4997F907301201A8
:1006E400D2B20B4483F800230AE03B68DAB208492B
:1006F400FB7903F00F03043B1201D2B20B441A76C8
:1007040000BF0C37BD4680BC704700BF00E100E06D
:1007140000ED00E080B489B000AFF860B9607A60A1
:10072400FB6803F00703FB61FB69C3F10703042BB8
:1007340028BF0423BB61FB690433062B02D9FB6980
:10074400033B00E000237B614FF0FF32BB6902FAF8
:1007540003F3DA43BB681A407B699A404FF0FF31D8
:100764007B6901FA03F3D9437B680B4013431846B2
:100774002437BD4680BC704780B582B000AF786036
:100784007B68013BB3F1807F01D301230FE00A4A68
:100794007B68013B53600F214FF0FF30FFF790FF60
:1007A400054B00229A60044B07221A600023184666
:1007B4000837BD4680BD00BF10E000E080B582B0C0
:1007C40000AF78607868FFF72DFF00BF0837BD469B
:1007D40080BD80B586B000AF0346B9607A60FB7314
:1007E40000237B61FFF742FF78617A68B968786912
:1007F400FFF790FF024697F90F3011461846FFF7AE
:100804005FFF00BF1837BD4680BD80B582B000AF22
:100814000346FB7197F907301846FFF735FF00BF11
:100824000837BD4680BD80B582B000AF7860786877
:10083400FFF7A2FF034618460837BD4680BD0000F7
:1008440080B584B000AF78600023FB737B6893F8B5
:100854002130022B05D07B6804229A630123FB73A9
:10086400D6E07B681B681A687B681B6822F00E025E
:100874001A607B681B681A687B681B6822F0010297
:100884001A607B681B681A46644B9A4258D97B6885
:100894001B68634A93424FD07B681B68614A93424A
:1008A40048D07B681B68604A934240D07B681B68D1
:1008B4005E4A934238D07B681B685D4A934230D0CD
:1008C4007B681B685B4A934228D07B681B68534A49
:1008D400934220D07B681B68574A934219D07B68A7
:1008E4001B68564A934212D07B681B68544A934251
:1008F4000AD07B681B68534A934202D14FF4805359
:100904001BE04FF4803318E04FF4807315E010239C
:1009140013E0012311E04FF080730EE04FF48013D5
:100924000BE04FF4803308E04FF4805305E04FF4BC
:10093400807302E0102300E00123434A536057E030
:100944007B681B68364A93424FD07B681B68354AE4
:10095400934248D07B681B68334A934240D07B68FB
:100964001B68324A934238D07B681B68304A9342F2
:1009740030D07B681B682F4A934228D07B681B6861
:10098400264A934220D07B681B682B4A934219D095
:100994007B681B68294A934212D07B681B68284AEB
:1009A40093420AD07B681B68264A934202D14FF4D3
:1009B40080531BE04FF4803318E04FF4807315E04C
:1009C400102313E0012311E04FF080730EE04FF485
:1009D40080130BE04FF4803308E04FF4805305E0BC
:1009E4004FF4807302E0102300E00123174A5360A0
:1009F4007B68012283F821207B68002283F8202071
:100A04007B685B6B002B03D07B685B6B78689847D3
:100A1400FB7B18461037BD4680BD00BF80000240F6
:100A2400080002401C000240300002404400024022
:100A3400580002406C000240080402401C040240BA
:100A4400300402404404024000040240000002401A
:100A540080B48BB000AF7860396000237B620023E0
:100A64003B6269E101227B6A02FA03F3FB613B68A2
:100A74001B68FA691340BB61BA69FB699A4240F08A
:100A840058813B685B689A4A93425ED0984A934285
:100A940075D8984A934258D0964A93426FD8964A4A
:100AA400934252D0944A934269D8944A93424CD088
:100AB400924A934263D8924A934246D0904A9342D0
:100AC4005DD8122B2AD8122B59D801A252F823F040
:100AD4004F0B0008290B00083B0B00087D0B000896
:100AE400830B0008830B0008830B0008830B0008AA
:100AF400830B0008830B0008830B0008830B00089A
:100B0400830B0008830B0008830B0008830B000889
:100B1400830B0008310B0008450B0008794A934207
:100B240013D02CE03B68DB683B6229E03B68DB6860
:100B340004333B6224E03B68DB6808333B621FE01C
:100B44003B68DB680C333B621AE03B689B68002B14
:100B540002D104233B6213E03B689B68012B05D15F
:100B640008233B627B68FA691A6109E008233B6247
:100B74007B68FA695A6103E000233B6200E000BF2E
:100B8400BB69FF2B01D87B6801E07B6804337B6180
:100B9400BB69FF2B02D87B6A9B0002E07B6A083B9F
:100BA4009B003B617B691A680F213B6901FA03F3DF
:100BB400DB431A40396A3B6901FA03F31A437B6940
:100BC4001A603B685B6803F08053002B00F0B1802F
:100BD4004D4B9B694C4A43F0010393614A4B9B691B
:100BE40003F00103BB60BB68484A7B6A9B0802337D
:100BF40052F82330FB607B6A03F003039B000F224F
:100C040002FA03F3DB43FA681340FB607B68404A53
:100C1400934213D07B683F4A93420DD07B683E4A8F
:100C2400934207D07B683D4A934201D1032306E0F7
:100C3400042304E0022302E0012300E000237A6A93
:100C440002F0030292009340FA681343FB602F49B9
:100C54007B6A9B080233FA6841F823203B685B688F
:100C640003F48033002B06D02D4B1A682C49BB6942
:100C740013430B6006E02A4B1A68BB69DB4328491F
:100C840013400B603B685B6803F40033002B06D011
:100C9400234B5A682249BB6913434B6006E0204B3F
:100CA4005A68BB69DB431E4913404B603B685B6871
:100CB40003F48013002B06D0194B9A681849BB69BA
:100CC40013438B6006E0164B9A68BB69DB431449F7
:100CD40013408B603B685B6803F40013002B21D046
:100CE4000F4BDA680E49BB691343CB6021E000BFA8
:100CF400000032100000311000002210000021100A
:100D04000000121000001110001002400000014009
:100D140000080140000C0140001001400014014093
:100D2400000401400B4BDA68BB69DB4309491340FB
:100D3400CB607B6A01337B623B681A687B6A22FA68
:100D440003F3002B7FF48EAE00BF00BF2C37BD46EB
:100D540080BC70470004014080B586B000AF786065
:100D64007B68002B01D1012304E37B681B6803F03B
:100D74000103002B00F08780924B5B6803F00C03A7
:100D8400042B0CD08F4B5B6803F00C03082B12D19F
:100D94008C4B5B6803F48033B3F5803F0BD1894BF4
:100DA4001B6803F40033002B6CD07B689B68002B1A
:100DB40068D10123DEE27B689B68B3F5803F06D1EE
:100DC400804B1B687F4A43F4803313602EE07B68BA
:100DD4009B68002B0CD17B4B1B687A4A23F480332D
:100DE4001360784B1B68774A23F4802313601DE05B
:100DF4007B689B68B3F5A02F0CD1724B1B68714ABA
:100E040043F4802313606F4B1B686E4A43F48033B2
:100E140013600BE06B4B1B686A4A23F48033136046
:100E2400684B1B68674A23F4802313607B689B68C4
:100E3400002B13D0FFF7C8FB386108E0FFF7C4FBB1
:100E440002463B69D31A642B01D9032392E25D4B1A
:100E54001B6803F40033002BF0D014E0FFF7B4FB5D
:100E6400386108E0FFF7B0FB02463B69D31A642BF4
:100E740001D903237EE2534B1B6803F40033002B98
:100E8400F0D100E000BF7B681B6803F00203002B75
:100E940063D04C4B5B6803F00C03002B0BD0494B25
:100EA4005B6803F00C03082B1CD1464B5B6803F40E
:100EB4008033002B16D1434B1B6803F00203002B35
:100EC40005D07B685B69012B01D0012352E23D4BC5
:100ED4001B6823F0F8027B689B69DB0039491343E4
:100EE4000B603AE07B685B69002B20D0364B012213
:100EF4001A60FFF769FB386108E0FFF765FB0246FB
:100F04003B69D31A022B01D9032333E22D4B1B680F
:100F140003F00203002BF0D02A4B1B6823F0F802E5
:100F24007B689B69DB00274913430B6015E0264B64
:100F340000221A60FFF748FB386108E0FFF744FB22
:100F440002463B69D31A022B01D9032312E21D4B3B
:100F54001B6803F00203002BF0D17B681B6803F0CD
:100F64000803002B3AD07B68DB69002B19D0174BA0
:100F740001221A60FFF728FB386108E0FFF724FB21
:100F840002463B69D31A022B01D90323F2E10D4B2C
:100F94005B6A03F00203002BF0D0012000F0CAFBCF
:100FA4001CE00A4B00221A60FFF70EFB38610FE0C9
:100FB400FFF70AFB02463B69D31A022B08D9032325
:100FC400D8E100BF001002400000424280044242C7
:100FD4009B4B5B6A03F00203002BE9D17B681B681F
:100FE40003F00403002B00F0A6800023FB75944B50
:100FF400DB6903F08053002B0DD1914BDB69904AE0
:1010040043F08053D3618E4BDB6903F08053BB60A4
:10101400BB680123FB758B4B1B6803F48073002BA7
:1010240018D1884B1B68874A43F480731360FFF719
:10103400CBFA386108E0FFF7C7FA02463B69D31AD6
:10104400642B01D9032395E17E4B1B6803F4807361
:10105400002BF0D07B681B69012B06D1784B1B6AEF
:10106400774A43F0010313622DE07B681B69002B70
:101074000CD1734B1B6A724A23F001031362704B49
:101084001B6A6F4A23F0040313621CE07B681B692C
:10109400052B0CD16A4B1B6A694A43F004031362A3
:1010A400674B1B6A664A43F0010313620BE0644B0F
:1010B4001B6A634A23F001031362614B1B6A604A93
:1010C40023F0040313627B681B69002B15D0FFF720
:1010D4007BFA38610AE0FFF777FA02463B69D31AD4
:1010E40041F28832934201D9032343E1544B1B6AF2
:1010F40003F00203002BEED014E0FFF765FA386129
:101104000AE0FFF761FA02463B69D31A41F28832DA
:10111400934201D903232DE1494B1B6A03F00203D7
:10112400002BEED1FB7D012B05D1454BDB69444AF5
:1011340023F08053D3617B68DB6A002B00F08C8042
:101144003F4B5B6803F48033B3F5803F0ED13C4BD7
:101154005B6803F00C03082B08D1394BDB6A03F4FA
:101164008033B3F5803F01D1012303E17B68DB6A5F
:10117400022B4ED1324B1B6803F08053002B09D055
:101184002F4BDB6A03F0F0027B685B6B9A4201D061
:101194000123EFE02C4B00221A60FFF715FA3861A7
:1011A40008E0FFF711FA02463B69D31A642B01D910
:1011B4000323DFE0224B1B6803F00063002BF0D114
:1011C4001F4BDB6A23F0F0027B685B6B1C49134303
:1011D400CB621B4BDB6A23F470627B681B6B184980
:1011E4001343CB62184B01221A60FFF7EDF9386103
:1011F40008E0FFF7E9F902463B69D31A642B01D9E9
:101204000323B7E00E4B1B6803F00063002BF0D000
:1012140022E00B4BDB6A0A4A23F48033D3620A4B85
:1012240000221A60FFF7D0F938610FE0FFF7CCF91C
:1012340002463B69D31A642B08D903239AE000BF02
:101244000010024000700040680042424B4B1B6893
:1012540003F00063002BE9D17B681B6A002B00F0CC
:101264008880464B5B6803F00C03082B68D07B68CE
:101274001B6A022B4DD1424B00221A60FFF7A4F9DE
:10128400386108E0FFF7A0F902463B69D31A022B44
:1012940001D903236EE0394B1B6803F00073002B64
:1012A400F0D17B685B6AB3F5803F0FD1334BDA6AC8
:1012B4007B685B6831491343CB62304BDB6A23F0B4
:1012C4000F027B68DB682D491343CB622B4B5B68B1
:1012D40023F474127B68596A7B689B6A0B43274921
:1012E40013434B60264B01221A60FFF76DF93861F6
:1012F40008E0FFF769F902463B69D31A022B01D9CA
:10130400032337E01D4B1B6803F00073002BF0D060
:101314002FE01B4B00221A60FFF756F9386108E0F2
:10132400FFF752F902463B69D31A022B01D9032372
:1013340020E0124B1B6803F00073002BF0D118E07F
:101344007B681B6A012B01D1012313E00B4B5B6803
:10135400FB60FB6803F480327B685B6A9A4206D1C7
:10136400FB6803F470127B689B6A9A4201D00123E4
:1013740000E0002318461837BD4680BD0010024027
:101384006000424280B584B000AF786039607B6809
:10139400002B01D10123D0E06A4B1B6803F0070343
:1013A4003A689A4210D9674B1B6823F007026549D3
:1013B4003B6813430B60634B1B6803F007033A68F5
:1013C4009A4201D00123B8E07B681B6803F0020352
:1013D400002B20D07B681B6803F00403002B05D08E
:1013E400594B5B68584A43F4E06353607B681B685D
:1013F40003F00803002B05D0534B5B68524A43F4B7
:1014040060535360504B5B6823F0F0027B689B6829
:101414004D4913434B607B681B6803F00103002BA9
:1014240040D07B685B68012B07D1474B1B6803F4F2
:101434000033002B15D101237FE07B685B68022B0E
:1014440007D1414B1B6803F00073002B09D1012322
:1014540073E03D4B1B6803F00203002B01D1012311
:101464006BE0394B5B6823F003027B685B683649A9
:1014740013434B60FFF7A8F8F8600AE0FFF7A4F8FD
:101484000246FB68D31A41F28832934201D90323FE
:1014940053E02D4B5B6803F00C027B685B689B0098
:1014A4009A42EBD1274B1B6803F007033A689A4230
:1014B40010D2244B1B6823F0070222493B681343D4
:1014C4000B60204B1B6803F007033A689A4201D073
:1014D400012332E07B681B6803F00403002B08D06F
:1014E400194B5B6823F4E0627B68DB68164913439D
:1014F4004B607B681B6803F00803002B09D0124B78
:101504005B6823F460527B681B69DB000E4913435C
:101514004B6000F021F802460B4B5B681B0903F09B
:101524000F030A49CB5C22FA03F3094A1360094BFF
:101534001B681846FFF706F8002318461037BD4607
:1015440080BD00BF0020024000100240E8250008D2
:101554000800002000000020F0B591B000AF564B09
:1015640007F114040FCB07C42380544B3C1D0FCB4D
:1015740084E80F0000237B6300233B630023FB63A9
:101584000023FB620023BB630023BB6200237B6256
:101594004B4B5B687B637B6B03F00C03042B02D027
:1015A400082B03D080E0474BBB6380E07B6B9B0C34
:1015B40003F00F0307F14002134413F82C3CFB62C1
:1015C4007B6B03F48033002B66D03D4BDB6A03F066
:1015D4000F0307F14002134413F83C3C3B63384BC0
:1015E400DB6A03F48033002B44D0354BDB6A1B09E0
:1015F40003F00F030133BB62314BDB6A1B0A03F0B8
:101604000F0302337B627B6A18464FF00001FB6ACA
:101614001A464FF0000302FB01F500FB03F42C44CF
:10162400A0FB0223E1180B46264901FB03F000212D
:1016340001FB02F101442348A2FB00454B191D465E
:10164400BB6A18464FF000013B6B1A464FF000038B
:1016540002FB01FC00FB03F66644A0FB0223F11825
:101664000B4620462946FEF7DBFD02460B46134691
:10167400FB6307E0FB6A134A02FB03F23B6BB2FB1A
:10168400F3F3FB6397F821301A46FB6A934208D1BF
:10169400FB6B5B08FB6304E0FB6A0B4A02FB03F38E
:1016A400FB63FB6BBB6302E0084BBB6300BFBB6B1C
:1016B40018464437BD46F0BDB8250008C8250008C3
:1016C4000010024040787D0100093D0000127A00BC
:1016D40080B400AF024B1B681846BD4680BC7047FF
:1016E4000800002080B500AFFFF7F2FF0246054B6B
:1016F4005B681B0A03F007030349CB5C22FA03F37C
:10170400184680BD00100240F825000880B500AFDF
:10171400FFF7DEFF0246054B5B68DB0A03F00703B5
:101724000349CB5C22FA03F3184680BD0010024043
:10173400F825000880B485B000AF78600A4B1B68B8
:101744000A4AA2FB03235B0A7A6802FB03F3FB60E9
:1017540000BFFB685A1EFA60002BF9D100BF00BF1E
:101764001437BD4680BC704708000020D34D62107A
:1017740080B582B000AF78607B68002B01D1012373
:101784003FE07B6893F83930DBB2002B06D17B68ED
:10179400002283F83820786800F0C6FD7B68242294
:1017A40083F839207B681B68DA687B681B6822F43D
:1017B4000052DA60786800F0D7FB7B681B681A690E
:1017C4007B681B6822F490421A617B681B685A6923
:1017D4007B681B6822F02A025A617B681B68DA68FE
:1017E4007B681B6842F40052DA607B680022DA638B
:1017F4007B68202283F839207B68202283F83A20F2
:10180400002318460837BD4680BD80B58AB002AFB4
:10181400F860B9603B601346FB8000237B61FB6882
:1018240093F83930DBB2202B7CD1BB68002B02D07B
:10183400FB88002B01D1012375E0FB6893F8383055
:10184400012B01D102236EE0FB68012283F83820CA
:10185400FB680022DA63FB68212283F83920FEF753
:10186400B3FE7861FB68FA889A84FB68FA88DA84A4
:10187400FB689B68B3F5805F08D1FB681B69002B8C
:1018840004D10023FB61BB68BB6103E0BB68FB615F
:101894000023BB61FB68002283F838202AE03B6800
:1018A40000937B6900228021F86800F0FAF903466E
:1018B400002B01D0032336E0FB69002B0BD1BB695D
:1018C4001B881A46FB681B68C2F308025A60BB698E
:1018D4000233BB6107E0FB691A78FB681B685A6036
:1018E400FB690133FB61FB68DB8C9BB2013B9AB261
:1018F400FB68DA84FB68DB8C9BB2002BCFD13B689E
:1019040000937B6900224021F86800F0CAF903467D
:10191400002B01D0032306E0FB68202283F8392042
:10192400002300E0022318462037BD4680BD80B561
:101934008AB002AFF860B9603B601346FB800023B5
:101944007B61FB6893F83A30DBB2202B40F089804E
:10195400BB68002B02D0FB88002B01D1012381E05E
:10196400FB6893F83830012B01D102237AE0FB683D
:10197400012283F83820FB680022DA63FB68222204
:1019840083F83A20FEF720FE7861FB68FA889A858E
:10199400FB68FA88DA85FB689B68B3F5805F08D139
:1019A400FB681B69002B04D10023FB61BB68BB618E
:1019B40003E0BB68FB610023BB61FB68002283F882
:1019C400382043E03B6800937B6900222021F868BB
:1019D40000F067F90346002B01D0032342E0FB69C2
:1019E400002B0CD1FB681B685B689BB2C3F3080334
:1019F4009AB2BB691A80BB690233BB611FE0FB6802
:101A04009B68B3F5805F07D0FB689B68002B0AD105
:101A1400FB681B69002B06D1FB681B685B68DAB2A4
:101A2400FB691A7008E0FB681B685B68DBB203F0B3
:101A34007F03DAB2FB691A70FB690133FB61FB684F
:101A4400DB8D9BB2013B9AB2FB68DA85FB68DB8DC8
:101A54009BB2002BB6D1FB68202283F83A200023E6
:101A640000E0022318462037BD4680BD80B588B00B
:101A740000AF78607B681B681B68FB617B681B6830
:101A8400DB68BB617B681B685B697B6100233B612E
:101A94000023FB60FB6903F00F033B613B69002BF0
:101AA4000DD1FB6903F02003002B08D0BB6903F0C0
:101AB4002003002B03D0786800F0D5F9D0E03B690F
:101AC400002B00F0B0807B6903F00103002B05D1EB
:101AD400BB6903F49073002B00F0A580FB6903F04D
:101AE4000103002B0AD0BB6903F48073002B05D0DB
:101AF4007B68DB6B43F001027B68DA63FB6903F00C
:101B04000403002B0AD07B6903F00103002B05D0EA
:101B14007B68DB6B43F002027B68DA63FB6903F0EA
:101B24000203002B0AD07B6903F00103002B05D0CC
:101B34007B68DB6B43F004027B68DA63FB6903F0C8
:101B44000803002B0FD0BB6903F02003002B04D142
:101B54007B6903F00103002B05D07B68DB6B43F04A
:101B640008027B68DA637B68DB6B002B77D0FB6948
:101B740003F02003002B07D0BB6903F02003002BE4
:101B840002D0786800F06FF97B681B685B6903F02A
:101B94004003002B14BF01230023DBB2FB607B68EE
:101BA400DB6B03F00803002B02D1FB68002B31D060
:101BB400786800F0C0F87B681B685B6903F0400339
:101BC400002B23D07B681B685A697B681B6822F052
:101BD40040025A617B685B6B002B13D07B685B6BA4
:101BE400214A5A637B685B6B1846FEF729FE03465D
:101BF400002B16D07B685B6B5B6B7A68526B10466C
:101C040098470EE0786800F043F80AE0786800F03E
:101C14003FF806E0786800F03BF87B680022DA635E
:101C24001DE000BF1BE0FB6903F08003002B08D01C
:101C3400BB6903F08003002B03D0786800F0ACF894
:101C44000EE0FB6903F04003002B09D0BB6903F0ED
:101C54004003002B04D0786800F0EDF800E000BFEA
:101C64002037BD4680BD00BF751D000880B483B019
:101C740000AF786000BF0C37BD4680BC704780B4AD
:101C840083B000AF786000BF0C37BD4680BC70479E
:101C940080B483B000AF786000BF0C37BD4680BC11
:101CA400704780B584B000AFF860B9603B601346FC
:101CB400FB712CE0BB69B3F1FF3F28D0BB69002B5B
:101CC40007D0FEF781FC02463B68D31ABA699A42F0
:101CD4001DD2FB681B68DA68FB681B6822F4D072AB
:101CE400DA60FB681B685A69FB681B6822F0010212
:101CF4005A61FB68202283F83920FB68202283F88C
:101D04003A20FB68002283F8382003230FE0FB68A5
:101D14001B681A68BB681340BA689A420CBF012357
:101D24000023DBB21A46FB799A42C3D0002318463B
:101D34001037BD4680BD80B483B000AF78607B6847
:101D44001B68DA687B681B6822F49072DA607B682F
:101D54001B685A697B681B6822F001025A617B6820
:101D6400202283F83A2000BF0C37BD4680BC704760
:101D740080B584B000AF78607B685B6AFB60FB6809
:101D84000022DA85FB680022DA84F868FFF780FF16
:101D940000BF1037BD4680BD80B485B000AF786009
:101DA4007B6893F83930DBB2212B3ED17B689B688A
:101DB400B3F5805F14D17B681B69002B10D17B685D
:101DC4001B6AFB60FB681B881A467B681B68C2F3AE
:101DD40008025A607B681B6A9A1C7B681A6208E0D6
:101DE4007B681B6A591C7A6811621A787B681B68C5
:101DF4005A607B68DB8C9BB2013B9BB27A681946C4
:101E0400D184002B0FD17B681B68DA687B681B6860
:101E140022F08002DA607B681B68DA687B681B68E2
:101E240042F04002DA60002300E00223184614372F
:101E3400BD4680BC704780B582B000AF78607B68D7
:101E44001B68DA687B681B6822F04002DA607B68F2
:101E5400202283F839207868FFF708FF002318460A
:101E64000837BD4680BD80B584B000AF78607B681C
:101E740093F83A30DBB2222B70D17B689B68B3F5C0
:101E8400805F17D17B681B69002B13D10023FB6093
:101E94007B689B6ABB607B681B685B689BB2C3F30F
:101EA40008039AB2BB681A807B689B6A9A1C7B6899
:101EB4009A6226E07B689B6AFB600023BB607B68B8
:101EC4009B68B3F5805F07D07B689B68002B0AD1C1
:101ED4007B681B69002B06D17B681B685B68DAB2E0
:101EE400FB681A7008E07B681B685B68DBB203F070
:101EF4007F03DAB2FB681A707B689B6A5A1C7B68A2
:101F04009A627B68DB8D9BB2013B9BB27A6819466F
:101F1400D185002B20D17B681B68DA687B681B683D
:101F240022F02002DA607B681B68DA687B681B6831
:101F340022F48072DA607B681B685A697B681B68CC
:101F440022F001025A617B68202283F83A207868E3
:101F5400FFF795FE002302E0002300E00223184669
:101F64001037BD4680BD000080B584B000AF7860F6
:101F74007B681B681B6923F440517B68DA687B68C3
:101F84001B680A431A617B689A687B681B691A4359
:101F94007B685B691343BB607B681B68DB6823F465
:101FA400B05323F00C037A681268B9680B43D3600A
:101FB4007B681B685B6923F440717B689A697B6862
:101FC4001B680A435A617B681B682C4A934203D1FD
:101FD400FFF79CFBF86002E0FFF784FBF860FA6807
:101FE40013469B0013449A001A447B685B689B0069
:101FF400B2FBF3F3224AA2FB03235B091901FA683B
:1020040013469B0013449A001A447B685B689B0048
:10201400B2FBF3F21A4BA3FB02035B09642000FB3F
:1020240003F3D31A1B013233154AA2FB03235B09C2
:1020340003F0F0031944FA6813469B0013449A0012
:102044001A447B685B689B00B2FBF3F20C4BA3FB66
:1020540002035B09642000FB03F3D31A1B01323330
:10206400074AA2FB03235B0903F00F027B681B688A
:102074000A449A6000BF1037BD4680BD0038014055
:102084001F85EB5180B582B000AFFEF745FA00F032
:102094003DF800F0E3F800F08DF800F0B5F841F2F7
:1020A4008830FEF79BFA6423052214491448FFF78D
:1020B400ACFB6423052213491348FFF7A6FBF91D63
:1020C400642301221048FFF732FC0346002B05D19C
:1020D400F91D642301220A48FFF797FBF91D6423C5
:1020E40001220748FFF723FC0346002BE7D1F91D23
:1020F400642301220448FFF788FBE0E7D8250008A1
:102104002C000020E02500086C00002080B594B06D
:1021140000AF07F1180338220021184600F036FA00
:102124003B1D00221A605A609A60DA601A6101232A
:10213400BB614FF480333B6204237B620123FB6267
:102144004FF48033FB610223BB634FF48033FB63A2
:102154004FF4E0133B6402237B644FF4C063BB641D
:102164004023FB6407F118031846FEF7F5FD034608
:10217400002B01D000F0A0F80F237B600223BB608A
:102184000023FB604FF480633B6100237B613B1DB4
:1021940002211846FFF7F6F80346002B01D000F0A1
:1021A4008BF8034B01221A6000BF5037BD4680BD37
:1021B4007000424280B500AF114B124A1A60104BB6
:1021C4004FF4E1325A600E4B00229A600C4B00220D
:1021D400DA600B4B00221A61094B0C225A61084B3E
:1021E40000229A61064B0022DA610548FFF7C0FA23
:1021F4000346002B01D000F05FF800BF80BD00BF94
:102204002C0000200050004080B500AF114B124A52
:102214001A60104B4FF4E1325A600E4B00229A6060
:102224000C4B0022DA600B4B00221A61094B0C2282
:102234005A61084B00229A61064B0022DA61054874
:10224400FFF796FA0346002B01D000F035F800BFE3
:1022540080BD00BF6C0000200038014080B485B010
:1022640000AF144B9B69134A43F010039361114B65
:102274009B6903F01003FB60FB680E4B9B690D4ADE
:1022840043F0200393610B4B9B6903F02003BB6075
:10229400BB68084B9B69074A43F004039361054BF1
:1022A4009B6903F004037B607B6800BF1437BD4661
:1022B40080BC70470010024080B400AF72B600BF0B
:1022C400FEE7000080B485B000AF154B9B69144A4B
:1022D40043F001039361124B9B6903F00103BB605C
:1022E400BB680F4BDB690E4A43F08053D3610C4B40
:1022F400DB6903F080537B607B680A4B5B68FB609F
:10230400FB6823F0E063FB60FB6843F00073FB6051
:10231400044AFB68536000BF1437BD4680BC704755
:10232400001002400000014080B58CB000AF78601E
:1023340007F1200300221A605A609A60DA607B6811
:102344001B68464A934245D1454BDB69444A43F4F2
:102354008013D361424BDB6903F48013FB61FB6997
:102364003F4B9B693E4A43F0100393613C4B9B698E
:1023740003F01003BB61BB69394B9B69384A43F0D6
:1023840020039361364B9B6903F020037B617B69D7
:102394004FF480533B6202237B620323FB6207F109
:1023A400200319462F48FEF753FB04233B62002306
:1023B4007B620023BB6207F1200319462A48FEF71B
:1023C40047FB002200213520FEF703FA3520FEF7F3
:1023D4001CFA3EE07B681B68244A934239D1204BA7
:1023E4009B691F4A43F4804393611D4B9B6903F42B
:1023F40080433B613B691A4B9B69194A43F00403D0
:102404009361174B9B6903F00403FB60FB684FF473
:1024140000733B6202237B620323FB6207F1200308
:1024240019461348FEF714FB4FF480633B62002304
:102434007B620023BB6207F1200319460C48FEF7B8
:1024440007FB002200212520FEF7C3F92520FEF713
:10245400DCF900BF3037BD4680BD00BF00500040EE
:1024640000100240001001400014014000380140F7
:102474000008014080B400AFFEE780B400AFFEE77F
:1024840080B400AFFEE780B400AFFEE780B400AFD5
:10249400FEE780B400AF00BFBD4680BC704780B487
:1024A40000AF00BFBD4680BC704780B400AF00BF22
:1024B400BD4680BC704780B500AFFEF773F800BF1F
:1024C40080BD000080B500AF0248FFF7CFFA00BF1F
:1024D40080BD00BF6C00002080B500AF0248FFF74C
:1024E400C5FA00BF80BD00BF2C00002080B400AF3F
:1024F40000BFBD4680BC7047002103E00B4B5B5816
:10250400435004310A480B4B42189A42F6D30A4A04
:1025140002E0002342F8043B084B9A42F9D3FFF748
:10252400E5FF00F00FF8FFF7ADFD70471026000837
:10253400000000200C0000200C000020AC00002053
:10254400FEE7000070B500260C4D0D4C641BA41072
:10255400A64209D100F022F800260A4D0A4C641B59
:10256400A410A64205D170BD55F8043B9847013626
:10257400EEE755F8043B98470136F2E708260008D1
:1025840008260008082600080C2600080346024412
:10259400934200D1704703F8011BF9E7F8B500BF77
:1025A400F8BC08BC9E467047F8B500BFF8BC08BC30
:0425B4009E46704788
:1025B800000004050607080900000000000D0000DF
:1025C8000102030405060708090A0B0C0D0E0F107B
:1025D8005541525435000000554152543100000015
:1025E80000000000000000000102030406070809BB
:0825F8000000000001020304D1
:0826000054DCFF7F0100000023
:0426080009020008BB
:04260C00E5010008DC
:0C26100010000000010000000024F40095
:04000005080024FDCE
:00000001FF
