:020000040800F2
:1000000000000220412D00083D2900084329000876
:10001000492900084F290008552900080000000060
:100020000000000000000000000000001133010883
:100030005B2900080000000061350108C93501088E
:10004000912D0008912D0008912D0008912D000898
:10005000912D0008912D0008912D0008912D000888
:10006000912D0008912D0008912D0008912D000878
:10007000912D0008912D0008912D0008912D000868
:10008000912D0008912D0008912D0008912D000858
:10009000912D0008912D0008912D0008912D000848
:1000A000912D000869290008912D0008912D000864
:1000B0007D290008912D0008912D0008912D000840
:1000C000912D0008912D0008912D0008912900081C
:1000D000912D0008A5290008912D0008912D0008F8
:1000E000912D0008912D0008912D0008912D0008F8
:1000F000912D0008912D0008912D0008912D0008E8
:10010000912D0008912D0008912D0008912D0008D7
:10011000912D0008912D0008912D0008912D0008C7
:10012000912D0008912D0008912D0008B929000893
:10013000912D00080000000000000000912D000833
:10014000912D0008912D0008912D0008CD2900085F
:10015000912D0008912D0008912D0008912D000887
:10016000912D0008912D0008912D0008912D000877
:10017000912D0008912D00080000000000000000F3
:08018000912D0008912D0008EB
:1001900010B5054C237833B9044B13B10448AFF3C1
:1001A00000800123237010BD7803002000000000B0
:1001B000486B010808B5034B1BB103490348AFF373
:1001C000008008BD000000007C030020486B01088F
:1001D00010F8012B11F8013B012A28BF9A42F7D0F1
:1001E000D01A7047034613F8012B002AFBD1181AC6
:1001F000013870470000000000000000000000000F
:1002000001F0FF01102A2BDB10F0070F08D010F8C7
:10021000013B013A8B422DD010F0070F42B3F6D1CB
:10022000F0B441EA012141EA014122F007047FF0E4
:1002300000070023F0E80256083C85EA010586EA3B
:10024000010685FA47F5A3FA87F586FA47F6A5FA77
:1002500087F68EB9EED1F0BC01F0FF0102F0070283
:1002600032B110F8013B013A83EA010313B1F8D12E
:100270000020704701387047002D06BF354603380F
:10028000073815F0010F07D1013015F4807F02BF48
:10029000013015F4C03F0130F0BC0138704700BF99
:1002A00053B94AB9002908BF00281CBF4FF0FF31DD
:1002B0004FF0FF3000F074B9ADF1080C6DE904CED9
:1002C00000F006F8DDF804E0DDE9022304B0704731
:1002D0002DE9F047089D04468E46002B4DD18A42F9
:1002E000944669D9B2FA82F252B101FA02F3C2F12C
:1002F000200120FA01F10CFA02FC41EA030E9440BD
:100300004FEA1C48210CBEFBF8F61FFA8CF708FBDD
:1003100016E341EA034306FB07F199420AD91CEBB5
:10032000030306F1FF3080F01F81994240F21C81E7
:10033000023E63445B1AA4B2B3FBF8F008FB10332F
:1003400044EA034400FB07F7A7420AD91CEB040464
:1003500000F1FF3380F00A81A74240F20781644434
:10036000023840EA0640E41B00261DB1D4400023B9
:10037000C5E900433146BDE8F0878B4209D9002D1D
:1003800000F0EF800026C5E9000130463146BDE8A7
:10039000F087B3FA83F6002E4AD18B4202D3824211
:1003A00000F2F980841A61EB030301209E46002DC0
:1003B000E0D0C5E9004EDDE702B9FFDEB2FA82F215
:1003C000002A40F09280A1EB0C014FEA1C471FFA73
:1003D0008CFE0126200CB1FBF7F307FB131140EA5A
:1003E00001410EFB03F0884208D91CEB010103F127
:1003F000FF3802D2884200F2CB804346091AA4B2E9
:10040000B1FBF7F007FB101144EA01440EFB00FEBC
:10041000A64508D91CEB040400F1FF3102D2A64521
:1004200000F2BB800846A4EB0E0440EA03409CE7C0
:10043000C6F12007B34022FA07FC4CEA030C20FA6D
:1004400007F401FA06F31C43F9404FEA1C4900FA8D
:1004500006F3B1FBF9F8200C1FFA8CFE09FB18110A
:1004600040EA014108FB0EF0884202FA06F20BD97D
:100470001CEB010108F1FF3A80F08880884240F2CD
:100480008580A8F102086144091AA4B2B1FBF9F011
:1004900009FB101144EA014100FB0EFE8E4508D90C
:1004A0001CEB010100F1FF346CD28E456AD9023891
:1004B000614440EA0840A0FB0294A1EB0E01A14276
:1004C000C846A64656D353D05DB1B3EB080261EBE4
:1004D0000E0101FA07F722FA06F3F1401F43C5E9BE
:1004E000007100263146BDE8F087C2F12003D840F4
:1004F0000CFA02FC21FA03F3914001434FEA1C4736
:100500001FFA8CFEB3FBF7F007FB10360B0C43EA27
:10051000064300FB0EF69E4204FA02F408D91CEBD7
:10052000030300F1FF382FD29E422DD902386344D5
:100530009B1B89B2B3FBF7F607FB163341EA034175
:1005400006FB0EF38B4208D91CEB010106F1FF38C4
:1005500016D28B4214D9023E6144C91A46EA0046BB
:1005600038E72E46284605E70646E3E61846F8E64D
:100570004B45A9D2B9EB020864EB0C0E0138A3E796
:100580004646EAE7204694E74046D1E7D0467BE777
:10059000023B614432E7304609E76444023842E7EF
:1005A000704700BFB0B596B000AF7860786800F0D3
:1005B00067F9204B07F148040FCB84E80F0007F1DF
:1005C00048030021184611F05EF802467B689A60E5
:1005D000194B07F138040FCB84E80F0007F13803FB
:1005E0000021184611F04FF802467B681A60134B41
:1005F00007F128040FCB84E80F0007F1280300213E
:10060000184611F040F802467B685A600C4B07F11F
:100610000C041D460FCD0FC495E8070084E80700C1
:1006200007F10C037968184610F0CDFF00BF58376A
:10063000BD46B0BD746B0108846B0108946B010862
:10064000A46B010880B584B000AF78607B681B683C
:1006500007F10A014FF0FF32184611F079FC03460A
:10066000002BF3D07B680E337A891344FB60F96862
:10067000786800F0C7F8E9E780B582B000AF78602D
:100680000B46FB707B685B7B0A2B60D1FB78002BF1
:100690005DD07B68B3F80E349BB21A467B68134476
:1006A000FA789A73FB780D2B32D17B68B3F80E344D
:1006B0009BB21A467B68134400229A737B681868C1
:1006C0007B68B3F810349BB20022194611F004F88D
:1006D0007B68B3F80E349BB2B3F5407F07D97B68D3
:1006E000002283F80E24002283F80F2408E07B68A0
:1006F000B3F80E349BB201339AB27B68A3F80E2490
:100700007B68B3F80E349AB27B68A3F8102408E033
:100710007B68B3F80E349BB201339AB27B68A3F8BE
:100720000E247B68B3F80E349BB2B3F5806F1DD1F5
:100730007B68002283F80E24002283F80F247B6854
:10074000B3F80E349AB27B68A3F810240EE07B68ED
:10075000002283F80E24002283F80F247B68B3F86C
:100760000E349AB27B68A3F8102400BF00BF08378C
:10077000BD4680BD80B586B000AF786039607B68CB
:10078000596807F10C030022184610F0E5FFFB68DA
:10079000102B05D13B69DAB23B681A70002300E0E8
:1007A000012318461837BD4680BD80B586B000AF1E
:1007B000F8600B467A60FB727B683B61FB7A002B2A
:1007C0001AD0012B00D018E000237B610EE0FB68FB
:1007D00058683B691A687B6913441B784FF0FF32F5
:1007E000194610F079FF7B6901337B613B695A68D8
:1007F0007B699A42EBD800E000BF00BF1837BD46C6
:1008000080BD000090B585B000AF786039601949AF
:10081000386814F03BFAB8600023FB6022E0164A07
:10082000FB6852F823301946B868FFF7D1FC03463D
:10083000002B14D1114AFB6852F82340B868FFF727
:10084000D1FC03460133BA68134419467868A047BF
:100850000346002B01D1002308E0012306E0FB68DA
:100860000133FB60FB68032BD9DD012318461437E5
:10087000BD4690BDC06B0108A40300209403002076
:1008800080B483B000AF78600E4B0F4A1A600D4BF6
:100890000E4A5A600B4B0E4A9A600A4B0D4ADA60B8
:1008A0000D4B0E4A1A600C4B0D4A5A600A4B0D4A0A
:1008B0009A60094B0C4ADA6000BF0C37BD465DF800
:1008C000047B704794030020D10B0008B509000891
:1008D0001D090008ED080008A4030020C46B0108EE
:1008E000C86B0108D06B0108D86B010880B586B0D1
:1008F00000AF786039600849002014F0C7F97861CA
:100900007B689B6801220321184610F0E5FE002356
:1009100018461837BD4680BDC06B010880B586B04B
:1009200000AF786039601F49002014F0AFF978619A
:100930001D497869FFF74CFC0346002B26D11B4B61
:100940001B6A00221A70002242F07D025A700022B7
:100950009A700022DA70154B1B6A002242F01802CE
:100960001A7100225A7100229A710022DA710F4B1B
:100970001B6A002242F078021A7200225A72002288
:100980009A720022DA720A4801F0DAFA7B689B68F0
:1009900001220221184610F09FFE00231846183746
:1009A000BD4680BDC06B0108E06B01080008002057
:1009B000040E0020F0B58DB008AF7860396075493D
:1009C000002014F063F9B8607349B868FFF700FCC1
:1009D0000346002B34D1714B1B7F1E466F4B1B8887
:1009E0009C466E4B5B7F1D466C4B1B6A9B686B4A3B
:1009F000126A52686949096A09686848806A674CDE
:100A0000646A079406900591049203930295644BDF
:100A10000193644B0093634632466349634814F084
:100A2000CFF8634B614A1A606048FFF7DBFB03466F
:100A30005F4A53605E4A01217868FFF7B6FE9CE08A
:100A40005C49B868FFF7C4FB0346002B46D1574BFF
:100A500000221A700023FB602EE05448FFF7C2FB0F
:100A60000346524A9818544AFB684FF4117101FB2F
:100A700003F3134403F50E731B781D464E4AFB68BF
:100A80004FF4117101FB03F3134403F50F731B685B
:100A90004949FA684FF4117404FB02F20A4402F562
:100AA00010721268019200932B46FA68434914F0C1
:100AB00087F8FB680133FB60FB68032BCDDD3C4B03
:100AC0003A4A1A603948FFF78DFB0346384A5360AB
:100AD000374A01217868FFF768FE4EE03849B86868
:100AE000FFF776FB0346002B35D1304B00221A70FE
:100AF000344801F087FA334B1B781E46314B5B7844
:100B00009C46304B9B7819462E4B9B7D18462D4BAF
:100B10005B7D1C462B4BDB7D1D462A4BD3E9062310
:100B20001346049303950294019000916346324664
:100B300025491E4814F044F81D4B1C4A1A601B48F6
:100B4000FFF750FB03461A4A5360194A012178689F
:100B5000FFF72BFE11E01D49144814F031F8144B37
:100B6000124A1A601148FFF73DFB0346104A5360D2
:100B70000F4A01217868FFF718FE7B689B68012205
:100B80000121184610F0A8FD002318461437BD4671
:100B9000F0BD00BFC06B0108EC6B0108000800202D
:100BA0000A08002002080020F46B0108BC030020A2
:100BB000B4030020946C0108240E00209C6C0108F2
:100BC000D06C0108101B0020D86C0108F86C0108DB
:100BD00080B584B000AF786039603349002014F0EC
:100BE00055F8F8603149F868FFF7F2FA0346002B30
:100BF0004DD12F49002014F049F8F860F86813F03F
:100C0000C3FA0346DAB22B4B1A702949002014F0BC
:100C10003DF8F860F86813F0B7FA0346DAB2254BEE
:100C20005A702149002014F031F8F860F86813F088
:100C3000ABFA0346DAB21F4B9A701F49002014F03A
:100C400025F8F860F86813F09FFA0346DAB2194BFA
:100C50009A751949002014F019F8F860F86813F033
:100C600093FA0346DAB2134B5A750F49002014F079
:100C70000DF8F860F86813F087FA0346DAB20D4B06
:100C8000DA750C4B01221A750A4801F0F5F97B68F8
:100C90009B6801220021184610F01EFD0023184613
:100CA0001037BD4680BD00BFC06B0108D06C010885
:100CB000106D0108101B0020146D010880B485B070
:100CC00000AF03460A46FB711346BB80BB885AB28D
:100CD00097F9073053405BB2FB73BB881B0A9AB28B
:100CE000FB7B064931F813305340BB80BB88184664
:100CF0001437BD465DF8047B704700BF000000203C
:100D000080B584B000AF78600B467B800023FB8108
:100D10000023BB600DE0BB687A6813441B78FA8936
:100D200011461846FFF7CAFF0346FB81BB68013333
:100D3000BB607B88BA689A42EDDBFB8918461037A6
:100D4000BD4680BD80B582B000AF786039600122B9
:100D5000396878680FF012F80346002B01D10023A0
:100D600000E0012318460837BD4680BD80B58CB031
:100D700000AF78607B68002283F810297B6800222E
:100D800083F818297B68012283F8192908F0F6FEF8
:100D90000023FB6280E007F11403FA6A5349184606
:100DA00013F00EFFFB6A4FF4117202FB03F37A6833
:100DB000134407F1140211461846FFF7C3FF034618
:100DC000002B5BD17A68FB6A4FF4117101FB03F3CE
:100DD000134403F50E7300221A707B6893F81839D8
:100DE0000133DAB27B6883F8182907F10C0207F1A6
:100DF000100107F11403184610F08FF90346002B79
:100E000047D17A68FB6A4FF4117101FB03F3134475
:100E10001C331B68023B7968FA6A4FF4117000FBBF
:100E200002F20A440A32128802FB03F37B627A68F8
:100E3000FB6A4FF4117101FB03F313440A331B885F
:100E40001A463B6902FB03F33B627B6A5A087968E6
:100E5000FB6A4FF4117000FB03F30B4403F50F73AF
:100E60001A603B6A5A087968FB6A4FF4117000FBFC
:100E700003F30B4403F510731A600AE07A68FB6A07
:100E80004FF4117101FB03F3134403F50E730122B8
:100E90001A70FB6A0133FB62FB6A032B7FF77BAF9F
:100EA0000023BB6219E07A68BB6A4FF4117101FB41
:100EB00003F3134403F50E731B78002B0AD1BB6AAE
:100EC000DAB27B6883F810297B68002283F819293D
:100ED000002306E0BB6A0133BB62BB6A032BE2DD81
:100EE000012318463037BD4680BD00BF186D01088C
:100EF00080B485B000AFF8607B600B46FB72134690
:100F00003B81FB7A08493A8921F83320FB7A064A6B
:100F1000DB0013447A685A60002318461437BD4634
:100F20005DF8047B704700BF381B002080B485B09B
:100F300000AF78607B6893F810390133FB6015E0EF
:100F40007A68FB684FF4117101FB03F3134403F556
:100F50000E731B78002B06D1FB68DAB27B6883F82E
:100F60001029002306E0FB680133FB60FB68032BBC
:100F7000E6DD012318461437BD465DF8047B704753
:100F800080B485B000AFF860B9607A60FB68074A4A
:100F90001A60BB68064A1A607B6880221A6000BF2C
:100FA0001437BD465DF8047B704700BF4C05002038
:100FB0000006002080B582B000AF78607B68012217
:100FC0005A777B680A3312220021184613F024FA5C
:100FD0007B68023308220021184613F01DFA7B6853
:100FE00000221A807B6800221A777B6800225A62EE
:100FF0007B6800229A6200BF0837BD4680BD80B57D
:1010000082B000AF78600B46FB707B682A221A70B2
:101010007B6843225A707B68FA781A717B680022D9
:1010200042F001029A700022DA7005217868FFF719
:1010300067FE03461A467B68A3F8052000BF083701
:10104000BD4680BD80B582B000AF78607B682A2243
:101050001A707B6845225A707B6800229A700022C1
:10106000DA7004217868FFF74BFE03461A467B6866
:101070009A8000BF0837BD4680BD80B588B000AFFC
:10108000F860B9607A603B60FB68FB61FB68BB613C
:10109000FB687B61FB695B889BB20433FA6813448D
:1010A0001B887B82FB691B782A2B72D1FB695A78DB
:1010B0007B681A70FB695B78432B33D0452B66D174
:1010C000FB695B889BB204339BB21946F868FFF753
:1010D00017FE03461A467B8A934221D1BB6993F8D7
:1010E0002120BB685A77BB6803F10A00BB690E3345
:1010F0001222194613F082F9BB68981CBB690633AB
:101100000822194613F07AF9BB699B889AB2BB682A
:101110001A80BB6993F82020BB681A77002339E056
:10112000012337E07B695B889BB2012B24D9BB6824
:101130005B6A01337A69B2F8052092B2934208D013
:10114000BB685B6A002B04D0BB689B6A5A1CBB68F7
:101150009A627B69B3F805309BB21A46BB685A6243
:101160003B68FA681A607B695B889BB204331A4655
:101170003B685A6000230DE03B6800221A71002290
:101180005A7100229A710022DA71002302E00123D1
:1011900000E0012318462037BD4680BDB0B5ACB095
:1011A00000AF01F0F7FD00F0CDF800F05DFA00F0BF
:1011B0008FF900F00FFA00F037FA00F0BFF900F0F5
:1011C0002DF94C48FFF7EEF901224B494B4806F048
:1011D00061FD0B214A4800F041FE4A4B0B221A7078
:1011E000494B07F1A0040FCB84E80F0007F1A003DF
:1011F0000021184610F047FA0346444A1360444B56
:1012000007F190040FCB84E80F0007F19003002151
:10121000184610F038FA03463E4A13603C4B07F17B
:1012200080040FCB84E80F0007F1800300211846EB
:1012300010F029FA0346384A1360384B07F170045E
:101240000FCB84E80F0007F170030021184610F05F
:101250001AFA0346324A1360324B07F154041D4612
:101260000FCD0FC495E8070084E8070007F1540389
:101270000021184610F0A7F903462B4A13602B4BA8
:1012800007F138041D460FCD0FC495E8070084E828
:10129000070007F138030021184610F094F90346BF
:1012A000234A1360234B07F11C041D460FCD0FC4C6
:1012B00095E8070084E8070007F11C0300211846A1
:1012C00010F081F903461C4A13601C4B3C461D4636
:1012D0000FCD0FC495E8070084E807003B460021C6
:1012E000184610F070F90346154A136010F064F9BF
:1012F000FEE700BFF0090020FC0900204C09002097
:10130000040E0020F81A0020486D0108A0090020F2
:10131000586D0108A4090020A8090020686D010883
:10132000AC090020786D010890090020946D010837
:1013300094090020B06D010898090020CC6D0108C7
:101340009C09002080B594B000AF07F12003302243
:101350000021184613F060F807F10C0300221A6010
:101360005A609A60DA601A610023BB60294B1B6CDB
:10137000284A43F080531364264B1B6C03F08053C0
:10138000BB60BB6800237B60234B1B68224A43F48D
:1013900080431360204B1B6803F480437B607B68B1
:1013A00005233B624FF480337B620123BB6202233F
:1013B000BB634FF48003FB630F233B6490237B6488
:1013C0000223BB640523FB6407F12003184604F0E5
:1013D0003DFA0346002B01D000F03AFD0F23FB60DD
:1013E00002233B6100237B614FF4A053BB614FF4A8
:1013F0008053FB6107F10C030321184604F09EFCA7
:101400000346002B01D000F023FD00BF5037BD463E
:1014100080BD00BF003802400070004080B586B03B
:1014200000AF3B1D00221A605A609A60DA601A61B0
:1014300000233B60244B254A1A60234B00225A604C
:10144000214B7F229A60204BFF22DA601E4B002244
:101450001A611D4B00225A611B4B00229A611A48E7
:1014600004F060FF0346002B01D000F0F1FC0023E4
:101470003B7100237B710023BB7100233B61002380
:101480007B613B1D002219460F4804F0C1FF034653
:10149000002B01D000F0DCFC01233B7001237B70AA
:1014A0000123BB700023FB703B460022194606480F
:1014B00005F0A6F80346002B01D000F0C9FC00BFE0
:1014C0001837BD4680BD00BF2C0800200028004012
:1014D00080B500AF174B184A1A60164B4FF4827252
:1014E0005A60144B00229A60124B0022DA60114BB2
:1014F00000221A610F4B00225A610E4B4FF400720A
:101500009A610C4B0822DA610A4B00221A62094BDD
:1015100000225A62074B00229A62064B0A22DA62C4
:10152000044805F0FDF90346002B01D000F090FCC3
:1015300000BF80BD4C0800200030014080B586B05F
:1015400000AF07F1080300221A605A609A60DA605F
:101550003B4600221A605A601D4B4FF080421A60D1
:101560001B4B00225A601A4B00229A60184B4FF016
:10157000FF32DA60164B00221A61154B00229A6185
:10158000134805F0E1FD0346002B01D000F060FC9C
:101590004FF48053BB6007F1080319460C4805F06F
:1015A0009BFF0346002B01D000F052FC00233B6060
:1015B00000237B603B461946054806F0B7F9034611
:1015C000002B01D000F044FC00BF1837BD4680BDA1
:1015D0000409002080B500AF114B124A1A60104B6D
:1015E0004FF4E1325A600E4B00229A600C4B0022FD
:1015F000DA600B4B00221A61094B0C225A61084B2E
:1016000000229A61064B0022DA61054806F01EFAB4
:101610000346002B01D000F01BFC00BF80BD00BFC3
:101620004C0900200010014080B582B000AF0023BB
:101630007B600C4B1B6B0B4A43F480031363094B19
:101640001B6B03F480037B607B68002205213B2039
:1016500001F0BEFC3B2001F0D7FC00BF0837BD46BF
:1016600080BD00BF0038024080B58AB000AF07F1EE
:10167000140300221A605A609A60DA601A6100232B
:101680003B61394B1B6B384A43F004031363364B01
:101690001B6B03F004033B613B690023FB60324B8F
:1016A0001B6B314A43F0800313632F4B1B6B03F01A
:1016B0008003FB60FB680023BB602B4B1B6B2A4A3B
:1016C00043F001031363284B1B6B03F00103BB6062
:1016D000BB6800237B60244B1B6B234A43F002034F
:1016E0001363214B1B6B03F002037B607B680122B9
:1016F00002211E4802F086FC012286211C4802F0CD
:1017000081FC012201211B4802F07CFC02237B6149
:101710000123BB610123FB6102233B6207F1140338
:101720001946124802F0D2FA86237B610123BB617D
:101730000123FB6102233B6207F1140319460C48A5
:1017400002F0C4FA01237B610123BB610023FB612A
:1017500000233B6207F114031946064802F0B6FA6B
:1017600000BF2837BD4680BD003802400008024057
:10177000000002400004024080B582B000AF7860F3
:101780007B680B4A93420ED10A4B1B780A2B0AD175
:10179000094B1B7B19460848FEF76EFF01220749DB
:1017A000034806F077FA00BF0837BD4680BD00BF8A
:1017B0004C090020F81A0020F0090020FC09002044
:1017C00080B582B000AF78607B68094A93420BD144
:1017D00008490948FEF7CEFF0346002B04D1012239
:1017E0000449034806F011FA00BF0837BD4680BD22
:1017F0004C0900200C1B0020F009002080B500AF30
:101800000A4B0B4A1A60094B07225A60094B0A4AD5
:101810001A60084B06225A6020210548FFF7EFFBAB
:101820000548FFF70FFC00BF80BD00BFE0090020A6
:10183000E8090020B0090020B8090020F0B58FB0F9
:1018400006AF2C4B1B6A5B68DB082A4A126A1268D7
:1018500002FB03F3274A126A926802FB03F32C3B54
:10186000254A1360254800F0CDFB254B93F810392D
:101870001E46224B1B789C46204B5B781A461F4B1A
:101880009B7819461D4B9B7D1C461C4B5B7D1D4662
:101890001A4BDB7D38460493039502940191009224
:1018A00063463246174913F08BF9134B1B689A0AAB
:1018B000154B1B689A4218D20E4B1B6A5A680D4B87
:1018C0001B6A1B68394601200090104801F060F93E
:1018D0000346002B09D10C4B1A68074B1B689B0A67
:1018E000D31A094A1360002300E001231846243765
:1018F000BD46F0BD00080020FC1A0020101B00208F
:10190000240E0020E86D0108001B00204017002075
:1019100080B586B000AF786012F02EF9394800F03B
:10192000EFFA0346002B2AD0374B1B6A00221A70AD
:10193000002242F07D025A7000229A700022DA7072
:10194000314B1B6A002242F018021A7100225A71B0
:1019500000229A710022DA712B4B1B6A002242F09E
:1019600078021A7200225A7200229A720022DA72E7
:10197000244800F0E5FA02E001200FF070FE234B4E
:1019800093F81939012BF7D1214B0A221A70214BF8
:10199000196807F10C034FF0FF3218460FF0DCFE18
:1019A000FB68102B29D13B69032B06D0032B26D8CB
:1019B000012B1FD0022B04D021E01348FFF7FAFAC5
:1019C0001EE041F288300FF04AFE0F48FFF7F2FAAE
:1019D0000D4B00225A77104B1B6810490022184605
:1019E0000FF07AFE0C4B1B680D49002218460FF0D1
:1019F00073FE05E012F092F802E000BFC7E700BFF7
:101A0000C5E700BF040E002000080020240E0020BF
:101A1000F81A0020A0090020A8090020B009002021
:101A2000E009002080B5A0B000AF78604FF4FA70F4
:101A30000FF015FE07F118038F49184613F0C0F890
:101A400007F118031846FEF7CDFB03469AB207F1DB
:101A500018016423894806F046F8894B02220021C8
:101A60008848FFF745FA864B042201218548FFF795
:101A70003FFA854B022202218248FFF739FA804B58
:101A8000802203217F48FFF733FA03E04FF47A7096
:101A90000FF0E5FD7B48FFF769F90346002BF5D110
:101AA000784B93F818391A4607F118037749184606
:101AB00013F086F807F118031846FEF793FB034668
:101AC0009AB207F1180164236C4806F00CF86D4BCC
:101AD000D3F81439D3F840326D4A1360FFF7AEFEE5
:101AE0000346012B16D107F118036A49184613F073
:101AF00067F807F118031846FEF774FB03469AB21D
:101B000007F1180164235D4805F0EDFF01200FF097
:101B1000A6FDFBE7604B196807F10C034FF0FF329D
:101B200018460FF019FEFB68102BF3D13B69FB67D9
:101B3000FB6F5A68594B1B689A422CD2FB6F19688D
:101B4000FB6F5B681A46564801F0D7F80346002B36
:101B500007D1524B1A68FB6F5B68D31A4F4A136068
:101B6000D8E74F4801F098F807F118034D49184697
:101B700013F026F807F118031846FEF733FB034667
:101B80009AB207F1180164233C4805F0ACFF01202C
:101B90000FF065FDFBE7424801F07EF8FFF74EFECF
:101BA0000346002B28D03748FFF7C0F90346002B27
:101BB00016D007F118033C49184613F001F807F155
:101BC00018031846FEF70EFB03469AB207F11801F8
:101BD00064232A4805F087FF01200FF040FDFBE752
:101BE000284BD3F81439D3F84032294A1360FFF751
:101BF00025FE0346002BD6D107F118032B491846C2
:101C000012F0DEFF07F118031846FEF7EBFA034661
:101C10009AB207F118016423184805F064FFFB6FBE
:101C20001968FB6F5B681A461D4801F066F80346A9
:101C3000002B07D1194B1A68FB6F5B68D31A174A40
:101C4000136067E7164801F027F807F118031549F4
:101C5000184612F0B5FF07F118031846FEF7C2FA4E
:101C600003469AB207F118016423044805F03BFFCC
:101C700001200FF0F4FCFBE70C6E01084C0900207A
:101C800000000240240E002000080240286E0108D7
:101C9000001B00203C6E0108AC090020FC1A00204B
:101CA000401700205C6E01086C6E0108886E010808
:101CB00080B5A0B000AF7861002387F87F30FFF7D0
:101CC0009DFD3B4B3B4A1A623948FFF773F93A4B8B
:101CD000196807F118034FF0FF3218460FF03CFD6A
:101CE000334B5B7F002BF2D1BB69102B09D1FB6911
:101CF000BB67BB6F1A68BB6F5B681946104611F073
:101D0000DDFE2E4B19683B46142218460FF024FDC9
:101D100007F118033A4607CA83E80700BB69102B8E
:101D2000D5D1FB69184697F87F3007F12402DB0014
:101D3000134407F177021E49FFF79FF90346002B72
:101D4000C5D197F87730432BC1D197F87F30DB00AE
:101D500080333B4453F8583C072B1DD9184B186867
:101D600097F87F3007F12402DB0013440022194664
:101D70000FF0B2FC97F87F30013387F87F3097F887
:101D80007F20104BA3FB0213D9080B469B000B448A
:101D90005B00D31A87F87F300F200FF060FC064BF2
:101DA0001B680949002218460FF096FC8FE700BF18
:101DB00000080020100E0020A8090020A40900201F
:101DC000AC090020CDCCCCCCE009002080B584B09B
:101DD00000AF786002E001200FF041FC104B1B784F
:101DE0000A2BF8D10F4B0A225A730F4B93F83D3050
:101DF000DBB2212B0FD007F10F0319460948FEF77C
:101E0000B9FC0346002B06D107F10F030122194646
:101E1000054805F0FAFE01200FF021FCE5E700BFC0
:101E2000F81A0020F00900204C09002080B582B08B
:101E300000AF78607B681B68044A934201D100F0D0
:101E4000CBFF00BF0837BD4680BD00BF000001408A
:101E500080B400AF72B600BFFEE7000080B487B068
:101E600000AF7860396000237B6100233B613B68F1
:101E70000B2B3DD87B683A685A600023FB6009E071
:101E80001E4AFB6852F823307A6913447B61FB6871
:101E90000133FB60FB683A689A42F1D87B6903F52D
:101EA00000339A027B681A6012233B617B68002230
:101EB0001A7200225A7200229A720022DA727B6829
:101EC0005B68BB600EE03A690C49BB6851F823308F
:101ED000D31A3B617B689B685A1C7B689A60BB681D
:101EE0000133BB60BB680B2B02DC3B69002BEADCD7
:101EF00000BF1C37BD465DF8047B70470002002020
:101F000090B583B000AF78607B6803F10C007B680C
:101F10001B681222194612F071FA7B689B8B9CB2E7
:101F20007B680C3310211846FEF7EAFE03469C42FC
:101F300001D1002300E0012318460C37BD4690BDB7
:101F4000B0B58CB000AF78600023FB6200233B6229
:101F50007B680C337B627B680C3310211846FEF7DC
:101F6000CFFE03461A467B689A8301F02BFC07F1EB
:101F70000C0300221A605A609A60DA601A617B686A
:101F80005B687B617B689B68BB6107F1200207F19E
:101F90000C031146184601F077FD3B6AB3F1FF3F91
:101FA00027D001F031FC29E07A6AFB6A13441B78E0
:101FB0007B85FB6A0133112B0BD8FB6A01337A6AEC
:101FC00013441B781B021AB2B7F92A3013431BB211
:101FD0007B857B681A68FB6AD1187B8D00221C46C2
:101FE000154622462B46012001F098FBFB6A02337E
:101FF000FB62FB6A112BD7D901F006FC3037BD46D6
:10200000B0BD000080B58CB000AF78607B68002266
:102010001946184804F096FA7B68143300221946D2
:10202000144804F071FB7B681B787B617B685B78EC
:102030003B617B689B78FB607B689B7DBB617B68B9
:102040005B7D013BFB617B68DB7D64333B6207F1B9
:102050000C03184612F0C0FA02460B467968C1E933
:1020600006237B68D3E90623104619463037BD4660
:1020700080BD00BF2C08002080B582B000AF786022
:102080007B6800221946084804F0C2F97B681433C3
:1020900000221946044804F0B3FA00BF104619465E
:1020A0000837BD4680BD00BF2C08002080B483B037
:1020B00000AF0346FB71FB79084A32F83320084B26
:1020C0001A80FB79054ADB0013445B68054A1360FC
:1020D00000BF0C37BD465DF8047B7047381B0020FD
:1020E000321B0020341B002080B500AF044B1B685E
:1020F000044A11880022184601F084FF00BF80BD09
:10210000341B0020321B002080B500AF044B1B683D
:10211000044A11880122184601F074FF00BF80BDF7
:10212000341B0020321B002080B584B000AF034672
:102130003960FB7197F90730002B0EDAFB7903F059
:102140007F03FB7100217720FFF7EEFF0346BB738F
:10215000BB7B012B01D9BB7B43E0FFF7D5FF00F030
:102160006AF9FFF7C1FF00F066F9FB79184600F045
:1021700055F93B681B0EDBB2184600F04FF93B687F
:102180001B0CDBB2184600F049F93B681B0ADBB2B6
:10219000184600F043F93B68DBB2184600F03EF900
:1021A0000123FB73FB79402B01D19523FB73FB7952
:1021B000482B01D18723FB73FB7B184600F02EF9D7
:1021C0000A23FB7300F037F90346BB7397F90E300F
:1021D000002B05DAFB7B013BFB73FB7B002BF1D172
:1021E000BB7B18461037BD4680BD000090B583B05C
:1021F00000AF574B00221A70FFF776FF00214020F6
:10220000FFF792FF0346012B40F09A8000F020F97F
:102210004FF4D5714820FFF787FF0346012B57D1B4
:102220000023FB710CE0FC7900F005F903461A4627
:1022300004F108033B4403F8082CFB790133FB71DC
:10224000FB79032BEFD9BB78012B7BD1FB78AA2B31
:1022500078D142F6E063BB8005E0B7F904309BB269
:10226000013B9BB2BB80B7F90430002B07D04FF085
:102270008041E920FFF758FF0346002BEDD1B7F965
:102280000430002B5ED000217A20FFF74DFF03467B
:10229000002B57D10023FB710CE0FC7900F0CBF848
:1022A00003461A4604F108033B4403F8082CFB7963
:1022B0000133FB71FB79032BEFD93B7803F040032B
:1022C000002B01D00C2200E00422214B1A7039E0CF
:1022D0000021E920FFF728FF0346012B05D81C4BFE
:1022E00002221A70E923BB7104E0194B01221A7013
:1022F0004123BB7146F2A813BB8005E0B7F9043057
:102300009BB2013B9BB2BB80B7F90430002B07D0D6
:10231000BB7900211846FFF707FF0346002BEDD1DC
:10232000B7F90430002B07D04FF400715020FFF7AD
:10233000FBFE0346002B05D0054B00221A7001E07E
:10234000012300E0002318460C37BD4690BD00BFB6
:10235000301B002080B400AF00BFBD465DF8047B99
:10236000704780B582B000AF0023FB8000F063F8B7
:1023700003467B71FB880133FB807B79FF2B04D004
:10238000FB884FF6FF729342F0D1FB884FF6FF7245
:10239000934201D1012300E07B7918460837BD46FE
:1023A00080BD000080B584B002AF786039603B68C2
:1023B0009BB24FF0FF320092074A7968074804F059
:1023C00038FB0346002B01D1002300E0012318460F
:1023D0000837BD4680BD00BF581B00204C080020B8
:1023E00080B586B002AF0346FB710023FB7307F193
:1023F0000F02F91D4FF4805300930123064804F0A7
:1024000018FB0346002B01D0FFF7A4FFFB7B184607
:102410001037BD4680BD00BF4C08002080B582B09B
:1024200000AF0346FB71FB791846FFF7D9FF00BFE9
:102430000837BD4680BD80B582B000AFFF20FFF7F2
:10244000CFFF0346FB71FB7918460837BD4680BDB8
:1024500080B500AFFF20FFF7C3FF00BF80BD90B580
:1024600085B000AF7860396039685120FFF75CFEB5
:1024700003467B737B7B002B01D005232FE0FFF706
:10248000E7FF0023FB81FFF7D6FF03467B73FB8941
:102490000133FB817B7BFE2B04D0FB894FF6FF725F
:1024A0009342F0D1FB894FF6FF72934201D105238D
:1024B00015E00023FB8109E0FB897A68D418FFF757
:1024C000BAFF03462370FB890133FB81FB89B3F517
:1024D000007FF1D3FFF7BCFFFFF7BAFF00231846D8
:1024E0001437BD4690BD000080B588B000AFF860DD
:1024F000B9601346FB8010F08DFA0346394A136029
:10250000B9685920FFF710FE0346FB75FB7D002BD1
:1025100001D0062361E0FFF79BFF0023BB6135E09C
:10252000FC20FFF77BFF4FF40071F868FFF73AFFDC
:10253000FB6803F50073FB60FFF78AFFFFF788FF76
:10254000FFF779FF0346FB75FB7D03F01F03052BA7
:1025500001D0062341E00023FB83FFF76CFF034615
:10256000FB75FB8B0133FB83FB7DFF2B04D0FB8BC7
:102570004FF6FF729342F0D1FB8B4FF6FF729342FE
:1025800001D1062329E0BB690133BB61FB88BA692D
:102590009A42C5DBFD20FFF741FFFFF759FF0023FB
:1025A000FB83FFF748FF0346FB75FB8B0133FB837F
:1025B000FB7DFF2B04D0FB8B4FF6FF729342F0D1D3
:1025C000FB8B4FF6FF72934201D1062305E010F01A
:1025D00021FA0346044A1360002318462037BD46FB
:1025E00080BD00BF041B0020081B002080B582B006
:1025F00000AF00237B60124B5B6C114A43F48043B5
:1026000053640F4B5B6C03F480437B607B68002357
:102610003B600B4B1B6C0A4A43F080531364084B1E
:102620001B6C03F080533B603B6800220F216FF06E
:10263000010000F0CDFC00BF0837BD4680BD00BFE3
:102640000038024080B586B000AF786007F108031B
:1026500000221A605A609A60DA607B681B680C4A34
:10266000934211D10223BB604FF480737B6107F169
:102670000803184603F074FD0346002B01D0FFF752
:10268000E7FB044B01221A6000BF1837BD4680BD2E
:10269000002800403C0E474280B58AB000AF786009
:1026A00007F1140300221A605A609A60DA601A6116
:1026B0007B681B68344A934262D100233B61334BF1
:1026C0005B6C324A43F480535364304B5B6C03F4CD
:1026D00080533B613B690023FB602C4B1B6B2B4AF7
:1026E00043F002031363294B1B6B03F00203FB60EF
:1026F000FB6838237B610223BB610123FB61032359
:102700003B6205237B6207F114031946204801F060
:10271000DDFA204B204A1A601E4B4FF0C0625A600F
:102720001C4B40229A601B4B0022DA60194B4FF47D
:1027300080621A61174B00225A61164B00229A617F
:10274000144B0022DA61134B4FF480321A62114BA2
:1027500000225A620F4800F065FC0346002B01D0AE
:10276000FFF776FB7B680B4A9A640A4A7B6893639F
:1027700000220521232000F02BFC232000F044FC44
:1027800000BF2837BD4680BD003001400038024000
:1027900000040240A40800205864024080B584B0C0
:1027A00000AF78607B681B68B3F1804F15D10023C0
:1027B000FB600C4B1B6C0B4A43F001031364094B89
:1027C0001B6C03F00103FB60FB68002205211C2049
:1027D00000F0FEFB1C2000F017FC00BF1037BD46C8
:1027E00080BD00BF0038024080B58AB000AF78607D
:1027F00007F1140300221A605A609A60DA601A61C5
:102800007B681B681D4A934234D100233B611C4BFB
:102810005B6C1B4A43F010035364194B5B6C03F071
:1028200010033B613B690023FB60154B1B6B144A93
:1028300043F001031363124B1B6B03F00103FB60B6
:10284000FB684FF4C0637B610223BB610023FB6123
:1028500003233B6207237B6207F1140319460948EF
:1028600001F034FA00220521252000F0B1FB2520DB
:1028700000F0CAFB00BF2837BD4680BD00100140F4
:10288000003802400000024080B58CB000AF786094
:102890000023FB620023BB6200227968192000F04C
:1028A00097FB192000F0B0FB0023FB601F4B5B6C13
:1028B0001E4A43F0010353641C4B5B6C03F001039D
:1028C000FB60FB6807F1100207F11403114618467C
:1028D00003F014FC03F0FEFB03465B00FB62FB6AA3
:1028E000134AA2FB03239B0C013BBB62114B124A10
:1028F0001A60104B40F2E732DA600E4ABB6A53604E
:102900000C4B00221A610B4B00229A60094804F01C
:102910001BFC0346002B04D1064804F065FC03466B
:1029200000E0012318463037BD4680BD0038024024
:1029300083DE1B43581D00200000014080B400AF1F
:10294000FEE780B400AFFEE780B400AFFEE780B4DE
:1029500000AFFEE780B400AFFEE780B400AF00BF79
:10296000BD465DF8047B704780B500AF024804F0B7
:10297000ABFC00BF80BD00BF581D002080B500AF7C
:10298000024804F0A1FC00BF80BD00BF0409002084
:1029900080B500AF024804F0EFF900BF80BD00BF72
:1029A0004C08002080B500AF024805F0A3F900BF35
:1029B00080BD00BF4C09002080B500AF024800F088
:1029C00071FC00BF80BD00BFA408002080B500AF2F
:1029D000024801F09BFD00BF80BD00BF48BC002045
:1029E00080B400AF01231846BD465DF8047B7047F4
:1029F00080B582B000AF7860396011F0C9FB034642
:102A000016221A604FF0FF3318460837BD4680BDC6
:102A100080B582B000AF78604FF0FF317868FFF783
:102A2000E7FFFEE780B586B000AFF860B9607A6076
:102A300000237B610AE0AFF300800146BB685A1CAB
:102A4000BA60CAB21A707B6901337B617A697B68AC
:102A50009A42F0DB7B6818461837BD4680BD80B5CA
:102A600086B000AFF860B9607A6000237B6109E04E
:102A7000BB685A1CBA601B781846AFF300807B69AC
:102A800001337B617A697B689A42F1DB7B68184687
:102A90001837BD4680BD80B483B000AF78604FF07A
:102AA000FF3318460C37BD465DF8047B704780B491
:102AB00083B000AF786039603B684FF400525A60D1
:102AC000002318460C37BD465DF8047B704780B480
:102AD00083B000AF7860012318460C37BD465DF81F
:102AE000047B704780B485B000AFF860B9607A604D
:102AF000002318461437BD465DF8047B704700007C
:102B000080B586B000AF7860144A154BD31A7B614C
:102B10007B693B61134B1B68002B02D1114B124A9E
:102B20001A60104B1A687B6813443A699A4207D2BC
:102B300011F02EFB03460C221A604FF0FF3309E020
:102B4000084B1B68FB60074B1A687B681344054AF7
:102B50001360FB6818461837BD4680BD0000022090
:102B600000040000A41D002088BF002080B400AF36
:102B7000064BD3F88830054A43F47003C2F8883016
:102B800000BFBD465DF8047B704700BF00ED00E06C
:102B900080B584B000AFF860B9607A603B60FB68D4
:102BA00004223949184611F029FCFB680833042235
:102BB0003649184611F022FCFB680C3304223449D4
:102BC000184611F01BFCFB68002242F010021A7438
:102BD00000225A7400229A740022DA74FB680022E0
:102BE00042F001021A7500225A753B7E9AB2FB68C8
:102BF000DA82FB683A689A617B689AB2FB685A8409
:102C00003B7E3A6802FB03F37A68D20803FB02F2C8
:102C1000FB68DA613B7E9AB27B68DB089BB212FBF1
:102C200003F39AB2FB681A84FB682433042219491F
:102C3000184611F0E3FBFB68002283F82C200022E9
:102C400083F82D20002283F82E20002283F82F20E5
:102C5000FB6830330A22B96818460DF0D5F80346F0
:102C6000002B0BD1FB6803F130014FF02C024FF029
:102C7000000308460DF085FE002300E001231846FE
:102C80001037BD4680BD00BF986E0108A06E0108D8
:102C9000A86E0108B06E010880B582B000AF786000
:102CA0007B68DA6A7B689A627B68DB6A03F12402DC
:102CB0007B685A607B6803F130014FF000024FF0EF
:102CC000000308460DF05DFE7B6803F13000796873
:102CD0007B6803F56A732C220DF057FB0346002B2B
:102CE00006D17B68303318460DF021FE002300E04A
:102CF000012318460837BD4680BD80B586B000AFB9
:102D0000F860B9607A60FB68DA6A7B681A44FB682D
:102D1000DA62FB6803F13000FB6803F56A737A68D6
:102D2000B9680DF032FB0346FB75FB7D002B01D12A
:102D3000002300E0012318461837BD4680BD00007F
:102D4000DFF834D00D480E490E4A002302E0D45873
:102D5000C4500433C4188C42F9D30B4A0B4C0023E3
:102D600001E013600432A242FBD3FFF7FFFE11F033
:102D70000BFBFEF713FA7047000002200000002052
:102D8000780300203C7701087803002084BF0020EE
:102D9000FEE7000080B500AF0E4B1B680D4A43F400
:102DA000007313600B4B1B680A4A43F48063136083
:102DB000084B1B68074A43F480731360032000F03C
:102DC000FCF80F20FFF760FDFFF710FC002318460A
:102DD00080BD00BF003C024080B400AF064B1B78B2
:102DE0001A46064B1B681344044A136000BFBD46D5
:102DF0005DF8047B704700BF3C020020A81D002046
:102E000080B400AF034B1B681846BD465DF8047BD9
:102E1000704700BFA81D002080B584B000AF786067
:102E2000FFF7EEFFB8607B68FB60FB68B3F1FF3F24
:102E300005D00A4B1B781A46FB681344FB6000BFA1
:102E4000FFF7DEFF0246BB68D31AFA689A42F7D84A
:102E500000BF00BF1037BD4680BD00BF3C02002050
:102E600080B485B000AF78607B6803F00703FB6037
:102E70000C4BDB68BB60BA684FF6FF031340BB60C6
:102E8000FB681A02BB68134343F0BF6343F400338B
:102E9000BB60044ABB68D36000BF1437BD465DF811
:102EA000047B704700ED00E080B400AF044BDB68AA
:102EB0001B0A03F007031846BD465DF8047B704704
:102EC00000ED00E080B483B000AF0346FB7197F9DA
:102ED0000730002B0BDBFB7903F01F02074997F942
:102EE00007305B09012000FA02F241F8232000BFFD
:102EF0000C37BD465DF8047B704700BF00E100E081
:102F000080B483B000AF03463960FB7197F9073096
:102F1000002B0ADB3B68DAB20C4997F90730120143
:102F2000D2B20B4483F800230AE03B68DAB20849C6
:102F3000FB7903F00F03043B1201D2B20B441A7663
:102F400000BF0C37BD465DF8047B704700E100E030
:102F500000ED00E080B489B000AFF860B9607A603D
:102F6000FB6803F00703FB61FB69C3F10703042B54
:102F700028BF0423BB61FB690433062B02D9FB691C
:102F8000033B00E000237B614FF0FF32BB6902FA94
:102F900003F3DA43BB681A407B699A404FF0FF3174
:102FA0007B6901FA03F3D9437B680B40134318464E
:102FB0002437BD465DF8047B704780B582B000AF12
:102FC00078607868FFF74CFF00BF0837BD4680BDCA
:102FD00080B586B000AF0346B9607A60FB7300230A
:102FE0007B61FFF761FF78617A68B9687869FFF7FC
:102FF000B1FF024697F90F3011461846FFF780FFE0
:1030000000BF1837BD4680BD80B582B000AF034613
:10301000FB7197F907301846FFF754FF00BF0837D8
:10302000BD4680BD80B586B000AF786000237B616F
:10303000FFF7E6FE38617B68002B01D1012399E0A0
:103040007B68022283F835207B68002283F83420D5
:103050007B681B681A687B681B6822F001021A6093
:103060000FE0FFF7CDFE02463B69D31A052B08D9C6
:103070007B6820225A657B68032283F8352003236E
:1030800078E07B681B681B6803F00103002BE8D124
:103090007B681B681B687B617A69384B13407B61D6
:1030A0007B685A687B689B681A437B68DB681A43B5
:1030B0007B681B691A437B685B691A437B689B6961
:1030C0001A437B68DB691A437B681B6A13437A697E
:1030D00013437B617B685B6A042B07D17B68DA6AE8
:1030E0007B681B6B13437A6913437B617B681B68A6
:1030F0007A691A607B681B685B697B617B6923F076
:1031000007037B617B685B6A7A6913437B617B6839
:103110005B6A042B17D17B689B6A7A6913437B61D6
:103120007B68DB6A002B0ED0786800F07BFA0346E0
:10313000002B08D07B6840225A657B68012283F807
:103140003520012316E07B681B687A695A6178682C
:1031500000F032FA0346FB607B68DB6D3F229A4049
:10316000FB689A607B6800225A657B68012283F8BD
:103170003520002318461837BD4680BD3F8010F02B
:1031800080B584B000AF78607B689B6DFB60FFF713
:1031900037FEB8607B6893F83530DBB2022B08D07D
:1031A0007B6880225A657B68002283F834200123E3
:1031B00052E07B681B681A687B681B6822F0160265
:1031C0001A607B681B685A697B681B6822F0800262
:1031D0005A617B681B6C002B03D17B689B6C002BB6
:1031E00007D07B681B681A687B681B6822F008029E
:1031F0001A607B681B681A687B681B6822F00102F2
:103200001A6013E0FFF7FCFD0246BB68D31A052BDA
:103210000CD97B6820225A657B68032283F835200D
:103220007B68002283F83420032315E07B681B6849
:103230001B6803F00103002BE4D17B68DB6D3F22A8
:103240009A40FB689A607B68012283F835207B688E
:10325000002283F83420002318461037BD4680BD75
:1032600080B483B000AF78607B6893F83530DBB210
:10327000022B04D07B6880225A6501230CE07B6816
:10328000052283F835207B681B681A687B681B68F9
:1032900022F001021A60002318460C37BD465DF883
:1032A000047B704780B586B000AF78600023BB60B8
:1032B0008E4B1B688E4AA2FB03239B0A7B617B68B3
:1032C0009B6D3B613B691B68FB607B68DB6D082283
:1032D0009A40FB681340002B1AD07B681B681B6860
:1032E00003F00403002B13D07B681B681A687B680B
:1032F0001B6822F004021A607B68DB6D08229A408A
:103300003B699A607B685B6D43F001027B685A659C
:103310007B68DB6D01229A40FB681340002B12D0C2
:103320007B681B685B6903F08003002B0BD07B6814
:10333000DB6D01229A403B699A607B685B6D43F0CC
:1033400002027B685A657B68DB6D04229A40FB6849
:103350001340002B12D07B681B681B6803F002032C
:10336000002B0BD07B68DB6D04229A403B699A608E
:103370007B685B6D43F004027B685A657B68DB6D9C
:1033800010229A40FB681340002B43D07B681B68D7
:103390001B6803F00803002B3CD07B68DB6D102218
:1033A0009A403B699A607B681B681B6803F4802322
:1033B000002B18D07B681B681B6803F40023002BCC
:1033C00008D17B681B6C002B24D07B681B6C786851
:1033D00098471FE07B689B6C002B1BD07B689B6C25
:1033E0007868984716E07B681B681B6803F4807355
:1033F000002B07D17B681B681A687B681B6822F06A
:1034000008021A607B681B6C002B03D07B681B6C66
:10341000786898477B68DB6D20229A40FB681340F0
:10342000002B00F08F807B681B681B6803F0100383
:10343000002B00F087807B68DB6D20229A403B697F
:103440009A607B6893F83530DBB2052B36D17B6808
:103450001B681A687B681B6822F016021A607B687A
:103460001B685A697B681B6822F080025A617B687E
:103470001B6C002B03D17B689B6C002B07D07B68F7
:103480001B681A687B681B6822F008021A607B6858
:10349000DB6D3F229A403B699A607B68012283F88A
:1034A00035207B68002283F834207B681B6D002B5D
:1034B0007ED07B681B6D7868984779E07B681B68D5
:1034C0001B6803F48023002B1DD07B681B681B68DE
:1034D00003F40023002B0DD17B685B6C002B31D0F3
:1034E0007B685B6C786898472CE000BF3402002052
:1034F000B5814E1B7B68DB6B002B23D07B68DB6BBD
:10350000786898471EE07B681B681B6803F480732B
:10351000002B0FD17B681B681A687B681B6822F040
:1035200010021A607B68012283F835207B68002234
:1035300083F834207B68DB6B002B03D07B68DB6B6C
:10354000786898477B685B6D002B32D07B685B6D39
:1035500003F00103002B22D07B68052283F835207D
:103560007B681B681A687B681B6822F001021A607E
:10357000BB680133BB607A699A4207D37B681B68DA
:103580001B6803F00103002BF2D100E000BF7B6851
:10359000012283F835207B68002283F834207B6881
:1035A000DB6C002B05D07B68DB6C7868984700E00B
:1035B00000BF1837BD4680BD80B485B000AF7860CD
:1035C0007B681B68DBB2103B144AA2FB03231B0978
:1035D000FB60134AFB6813441B781A467B68DA6564
:1035E000FB68032B09D97B681B6823F47F7323F0E6
:1035F00003031A1D7B689A6507E07B681B6823F448
:103600007F7323F003037A6893657B689B6D18468C
:103610001437BD465DF8047B704700BFABAAAAAA69
:10362000806F010880B485B000AF78600023FB7321
:103630007B689B6ABB607B689B69002B1FD1BB6862
:10364000032B56D801A252F823F000BF5D360008C4
:103650006F3600085D360008F33600087B68DB6AC9
:1036600003F08073002B46D00123FB7343E07B689B
:10367000DB6AB3F1C07F40D10123FB733DE07B687F
:103680009B69B3F5005F21D1BB68032B37D801A23A
:1036900052F823F0A5360008AB360008A53600081E
:1036A000BD3600080123FB7330E07B68DB6A03F062
:1036B0008073002B25D00123FB7322E07B68DB6A3B
:1036C000B3F1C07F1FD10123FB731CE0BB68022B49
:1036D00003D9BB68032B03D018E00123FB7315E06B
:1036E0007B68DB6A03F08073002B0ED00123FB7331
:1036F0000BE000BF0AE000BF08E000BF06E000BF2B
:1037000004E000BF02E000BF00E000BFFB7B184602
:103710001437BD465DF8047B704700BF80B586B0A6
:1037200000AFF860B960C7E900230123FB75234BA4
:103730001B7E012B01D102233BE0204B01221A7694
:103740004CF2503000F070F80346FB75FB7D002B07
:103750002BD1FB68002B05D13B781946B86800F0E7
:103760001BF916E0FB68012B05D13B881946B868A8
:1037700000F0EEF80DE0FB68022B05D13B6819461E
:10378000B86800F0C3F804E0D7E90023B86800F097
:103790008BF84CF2503000F047F80346FB75084BAD
:1037A0001B69074A23F001031361044B00221A76B8
:1037B000FB7D18461837BD4680BD00BFAC1D0020FC
:1037C000003C024080B483B000AF0023FB710B4B80
:1037D0001B69002B0BDA094B094A5A60074B094A4F
:1037E0005A60064B1B69002B01DA0123FB71FB7940
:1037F00018460C37BD465DF8047B7047003C02401C
:1038000023016745AB89EFCD80B400AF054B1B6941
:10381000044A43F00043136100231846BD465DF897
:10382000047B7047003C024080B584B000AF7860F4
:103830000023FB601A4B0022DA61FFF7E1FAF8601F
:1038400010E07B68B3F1FF3F0CD07B68002B07D002
:10385000FFF7D6FA0246FB68D31A7A689A4201D279
:10386000032319E00F4BDB6803F48033002BE8D10E
:103870000C4BDB6803F00103002B02D0094B012243
:10388000DA60084BDB6803F0F203002B03D000F092
:10389000A5F8012300E0002318461037BD4680BD7F
:1038A000AC1D0020003C024080B485B000AFF86041
:1038B000C7E90023144B1B69134A23F440731361B7
:1038C000114B1B69104A43F4407313610E4B1B6983
:1038D0000D4A43F001031361FB683A681A60BFF3B5
:1038E0006F8F00BFD7E900014FF000024FF00003D7
:1038F0000A000023F968043113460B6000BF143737
:10390000BD465DF8047B7047003C024080B483B044
:1039100000AF786039600D4B1B690C4A23F440738B
:1039200013610A4B1B69094A43F400731361074B87
:103930001B69064A43F0010313617B683A681A6009
:1039400000BF0C37BD465DF8047B7047003C024069
:1039500080B483B000AF78600B467B800D4B1B6951
:103960000C4A23F4407313610A4B1B69094A43F460
:1039700080731361074B1B69064A43F0010313610F
:103980007B687A881A8000BF0C37BD465DF8047BDF
:10399000704700BF003C024080B483B000AF786045
:1039A0000B46FB700C4B1B690B4A23F440731361ED
:1039B000094B094A1B691361074B1B69064A43F00F
:1039C000010313617B68FA781A7000BF0C37BD469B
:1039D0005DF8047B704700BF003C024080B400AF3C
:1039E000274BDB6803F01003002B08D0254BDB6965
:1039F00043F01003234AD361214B1022DA60204B9D
:103A0000DB6803F02003002B08D01E4BDB6943F07A
:103A100008031C4AD3611A4B2022DA60184BDB687A
:103A200003F04003002B08D0164BDB6943F004037E
:103A3000144AD361124B4022DA60114BDB6803F069
:103A40008003002B08D00F4BDB6943F002030D4AC3
:103A5000D3610B4B8022DA60094BDB6803F0020371
:103A6000002B08D0074BDB6943F02003054AD361E4
:103A7000034B0222DA6000BFBD465DF8047B70474D
:103A8000003C0240AC1D002080B584B000AF7860DF
:103A900039600123FB730023BB60314B1B7E012B7C
:103AA00001D1022358E02E4B01221A764CF25030FD
:103AB000FFF7BAFE0346FB73FB7B002B48D13B6844
:103AC0004FF0FF321A607B681B68012B15D17B68B1
:103AD0001B69DAB27B685B681946104600F044F84F
:103AE0004CF25030FFF7A0FE0346FB731D4B1B69E1
:103AF0001C4A23F00403136128E07B689B68BB60C9
:103B00001CE07B681B69DBB21946B86800F050F80E
:103B10004CF25030FFF788FE0346FB73114B1B69D4
:103B2000104A23F0FA031361FB7B002B03D03B68A0
:103B3000BA681A600AE0BB680133BB607B68DA6868
:103B40007B689B681344BA689A42DAD300F078F82D
:103B5000034B00221A76FB7B18461037BD4680BD0A
:103B6000AC1D0020003C024080B483B000AF03468F
:103B70003960FB710D4B1B690C4A23F440731361D0
:103B80000A4B1B69094A43F004031361074B1A6986
:103B9000FB791B021343054A43F48033136100BFD2
:103BA0000C37BD465DF8047B704700BF003C024007
:103BB00080B485B000AF78600B46FB700023FB60DB
:103BC000FB78002B02D10023FB6010E0FB78012B77
:103BD00003D14FF48073FB6009E0FB78022B03D123
:103BE0004FF40073FB6002E04FF44073FB60134B33
:103BF0001B69124A23F440731361104B1A690F4971
:103C0000FB6813430B610D4B1B690C4A23F0F8034F
:103C100013610A4B1A697B68DB001343074A43F0C0
:103C200002031361054B1B69044A43F4803313619B
:103C300000BF1437BD465DF8047B7047003C02406E
:103C400080B400AF204B1B6803F40073002B17D027
:103C50001D4B1B681C4A23F4007313601A4B1B682E
:103C6000194A43F400631360174B1B68164A23F488
:103C700000631360144B1B68134A43F40073136012
:103C8000114B1B6803F48063002B17D00E4B1B688D
:103C90000D4A23F4806313600B4B1B680A4A43F4FC
:103CA00080531360084B1B68074A23F4805313604A
:103CB000054B1B68044A43F48063136000BFBD4694
:103CC0005DF8047B704700BF003C024080B489B0BF
:103CD00000AF7860396000237B6100233B610023E3
:103CE000BB610023FB616BE10122FB6902FA03F374
:103CF0007B613B681B687A6913403B613A697B6969
:103D00009A4240F05A813B685B6803F00303012B41
:103D100005D03B685B6803F00303022B30D17B685E
:103D20009B68BB61FB695B00032202FA03F3DB4380
:103D3000BA691340BB613B68DA68FB695B0002FA51
:103D400003F3BA691343BB617B68BA699A607B6805
:103D50005B68BB610122FB6902FA03F3DB43BA69CA
:103D60001340BB613B685B681B0903F00102FB6900
:103D700002FA03F3BA691343BB617B68BA695A60FC
:103D80003B685B6803F00303032B17D07B68DB6899
:103D9000BB61FB695B00032202FA03F3DB43BA69F0
:103DA0001340BB613B689A68FB695B0002FA03F34E
:103DB000BA691343BB617B68BA69DA603B685B68C8
:103DC00003F00303022B23D1FB69DA087B68083276
:103DD00053F82230BB61FB6903F007039B000F22FD
:103DE00002FA03F3DB43BA691340BB613B681A690B
:103DF000FB6903F007039B0002FA03F3BA6913435C
:103E0000BB61FB69DA087B680832B96943F82210A4
:103E10007B681B68BB61FB695B00032202FA03F34A
:103E2000DB43BA691340BB613B685B6803F0030284
:103E3000FB695B0002FA03F3BA691343BB617B6859
:103E4000BA691A603B685B6803F44033002B00F0EA
:103E5000B4800023FB60604B5B6C5F4A43F480439B
:103E600053645D4B5B6C03F48043FB60FB685B4A0F
:103E7000FB699B08023352F82330BB61FB6903F0F6
:103E800003039B000F2202FA03F3DB43BA691340DA
:103E9000BB617B68524A93422BD07B68514A934264
:103EA00025D07B68504A93421FD07B684F4A93428B
:103EB00019D07B684E4A934213D07B684D4A934297
:103EC0000DD07B684C4A934207D07B684B4A9342A3
:103ED00001D107230EE008230CE006230AE00523A6
:103EE00008E0042306E0032304E0022302E00123A8
:103EF00000E00023FA6902F0030292009340BA69DD
:103F00001343BB613549FB699B080233BA6941F829
:103F100023203B4B9B68BB613B69DB43BA69134081
:103F2000BB613B685B6803F48013002B03D0BA6964
:103F30003B691343BB61324ABB699360304BDB681A
:103F4000BB613B69DB43BA691340BB613B685B689B
:103F500003F40013002B03D0BA693B691343BB6120
:103F6000274ABB69D360264B5B68BB613B69DB4377
:103F7000BA691340BB613B685B6803F40033002BF4
:103F800003D0BA693B691343BB611D4ABB695360E7
:103F90001B4B1B68BB613B69DB43BA691340BB61C8
:103FA0003B685B6803F48033002B03D0BA693B693C
:103FB0001343BB61124ABB691360FB690133FB61A8
:103FC000FB690F2B7FF690AE00BF00BF2437BD46C4
:103FD0005DF8047B704700BF0038024000380140A4
:103FE000000002400004024000080240000C0240B1
:103FF000001002400014024000180240001C024061
:10400000003C014080B483B000AF78600B467B80F9
:1040100013467B707B78002B03D07A887B689A618B
:1040200003E07B881A047B689A6100BF0C37BD46A9
:104030005DF8047B7047F0B58FB00AAF78607B689D
:10404000002B01D1012354E07B681B68FB607B6877
:1040500093F8F932DBB2002B06D17B68002283F89B
:10406000F82278680FF0F0FD7B68032283F8F922CC
:10407000FB68DB6B03F48073002B02D17B680022AA
:104080001A617B681B68184604F004FE7B681B6895
:104090003B607E686D4606F110040FCC0FC50FCC57
:1040A0000FC594E8030085E80300331D0ECB386884
:1040B00004F07EFD7B681B680121184604F0FBFDBF
:1040C0007B681B683B607E686D4606F110040FCC70
:1040D0000FC50FCC0FC594E8030085E80300331D1E
:1040E0000ECB386804F084FF7B68012283F8F92244
:1040F000002318461437BD46F0BD90B589B004AF13
:104100007860084611461A460346FB700B46BB70A2
:1041100013467B707B6893F8F832012B01D10223A0
:1041200076E07B68012283F8F822FB787A682C21FC
:1041300001FB03F313443D3300221A70FB787A68C5
:104140002C2101FB03F3134438337A781A70FB787F
:104150007A682C2101FB03F3134440333A8D1A8013
:10416000FB787A682C2101FB03F313443933FA7886
:104170001A70FB787A682C2101FB03F313443F3358
:1041800097F824201A70FB78BA7802F07F02D0B238
:104190007A682C2101FB03F313443A3302461A7068
:1041A00097F90230002B09DAFB787A682C2101FBA1
:1041B00003F313443B3301221A7008E0FB787A685A
:1041C0002C2101FB03F313443B3300221A70FB78CC
:1041D0007A682C2101FB03F313443C3397F8202029
:1041E0001A707B6818687C78BA78F9783B8D0293EE
:1041F00097F82430019397F820300093234605F078
:104200007DF80346FB737B68002283F8F822FB7B72
:1042100018461437BD4690BD80B584B000AF7860B5
:104220000B46FB700023FB737B6893F8F832012B7D
:1042300001D102230FE07B68012283F8F8227B681A
:104240001B68FA781146184605F0CDFA7B68002203
:1042500083F8F822FB7B18461037BD4680BD00006E
:1042600080B582B000AF7860084611461A46034612
:10427000FB700B46BB7013467B70FB787A682C2171
:1042800001FB03F313443B33BA781A70FB787A6866
:104290002C2101FB03F313443F337A781A703B7CE3
:1042A000002B12D1FB787A682C2101FB03F3134415
:1042B000423303221A70FB787A682C2101FB03F346
:1042C00013443D333A7F1A7008E0FB787A682C215A
:1042D00001FB03F31344423302221A707B78032B51
:1042E00000F2C68001A252F823F000BFFD42000890
:1042F0005D44000861430008DF4300083B7C012B5C
:1043000040F0B880BB78002B40F0B4803B8B002B92
:1043100008D1FB787A682C2101FB03F31344553351
:1043200001221A70FB787A682C2101FB03F31344F5
:1043300055331B78002B09D1FB787A682C2101FBBF
:1043400003F31344423300221A7093E0FB787A6837
:104350002C2101FB03F31344423302221A7089E03B
:10436000BB78002B1DD1FB787A682C2101FB03F36D
:10437000134455331B78002B09D1FB787A682C2124
:1043800001FB03F31344423300221A7073E0FB78FD
:104390007A682C2101FB03F31344423302221A7082
:1043A00069E0FB787A682C2101FB03F31344543352
:1043B0001B78002B09D1FB787A682C2101FB03F3D1
:1043C0001344423300221A7055E0FB787A682C219E
:1043D00001FB03F31344423302221A704BE0BB7813
:1043E000002B1DD1FB787A682C2101FB03F31344C9
:1043F00055331B78002B09D1FB787A682C2101FBFF
:1044000003F31344423300221A7034E0FB787A68D5
:104410002C2101FB03F31344423302221A702AE0D9
:10442000FB787A682C2101FB03F3134454331B7887
:10443000002B09D1FB787A682C2101FB03F313448C
:10444000423300221A7016E0FB787A682C2101FBB7
:1044500003F31344423302221A700CE0FB787A68AB
:104460002C2101FB03F31344423300221A7002E0B3
:1044700000BF00E000BFFB787A682C2101FB03F34A
:10448000134444337A691A60FB783A8B79682C209C
:1044900000FB03F30B444C331A60FB787A682C2141
:1044A00001FB03F31344603300221A70FB787A682F
:1044B0002C2101FB03F31344503300221A60FB78D4
:1044C0007A682C2101FB03F313443933FA781A700C
:1044D000FB787A682C2101FB03F31344613300223B
:1044E0001A707B681868FB782C2202FB03F33833C0
:1044F0007A68D1187B681B69DBB21A4605F020F890
:10450000034618460837BD4680BD00BF80B586B05B
:1045100000AF78607B681B683B613B69FB607B6830
:104520001B68184604F021FD0346012B40F0F6807D
:104530007B681B68184604F005FD0346002B00F05D
:10454000EC807B681B68184604F0FCFC034603F40F
:104550000013B3F5001F04D17B681B684FF40012F1
:104560005A617B681B68184604F0ECFC034603F4B0
:104570008013B3F5801F04D17B681B684FF4801251
:104580005A617B681B68184604F0DCFC034603F0A4
:104590008063B3F1806F04D17B681B684FF0806249
:1045A0005A617B681B68184604F0CCFC034603F094
:1045B0000203022B03D17B681B6802225A617B68CD
:1045C0001B68184604F0BEFC034603F00053B3F129
:1045D000005F1CD17B681B684FF000525A61FB687A
:1045E00003F588631B6803F00103002B0FD1102132
:1045F000386904F0ADFB386904F0DEFB7B681B68AA
:104600000121184604F0B4FD78680FF08DFB7B683B
:104610001B68184604F096FC034603F08073B3F160
:10462000807F02D1786801F09EF87B681B6818468D
:1046300004F088FC034603F00803082B06D17868D1
:104640000FF056FB7B681B6808225A617B681B6869
:10465000184604F077FC034603F01003102B01D139
:10466000012300E00023002B12D07B681B689A69AD
:104670007B681B6822F010029A61786800F0A1FF45
:104680007B681B689A697B681B6842F010029A611C
:104690007B681B68184604F055FC034603F0007362
:1046A000B3F1007F3AD17B681B68184605F08AF8A1
:1046B000B86000237B6125E07B6903F00F03BA68D3
:1046C00022FA03F303F00103002B18D07B695A018F
:1046D000FB68134403F5A0631B6803F40043B3F5C0
:1046E000004F06D17B69DBB21946786800F0ABF861
:1046F00005E07B69DBB21946786800F0F9FB7B695D
:1047000001337B617B689B687A699A42D4D37B686A
:104710001B684FF000725A6100E000BF1837BD46B9
:1047200080BD80B582B000AF78607B6893F8F832C6
:10473000012B01D1022313E07B68012283F8F822C8
:104740007B681B680121184604F076FD7B681B68B6
:10475000184604F08EFA7B68002283F8F8220023C2
:1047600018460837BD4680BD80B582B000AF78607E
:104770007B6893F8F832012B01D102230DE07B68AE
:10478000012283F8F8227B681B68184605F064F95B
:104790007B68002283F8F822002318460837BD46BC
:1047A00080BD80B582B000AF78607B681B6818461A
:1047B00004F018FD034618460837BD4680BD80B496
:1047C00083B000AF78600B46FB70FB787A682C21D1
:1047D00001FB03F3134460331B7818460C37BD46C6
:1047E0005DF8047B704780B483B000AF78600B46FF
:1047F000FB70FB787A682C2101FB03F313445033E0
:104800001B6818460C37BD465DF8047B704780B5C1
:1048100082B000AF78607B681B68184604F05CFDCE
:10482000034618460837BD4680BD80B582B000AF4C
:1048300078607B681B68184604F037FD034618460D
:104840000837BD4680BD80B586B000AF78600B46A6
:10485000FB707B681B687B617B693B61FB78FB605D
:10486000FB685A013B69134403F5A0639B6803F09E
:104870000403042B1AD1FB685A013B69134403F566
:10488000A0631A46042393607A68FB682C2101FB1D
:1048900003F31344613306221A707B681B68FA68BD
:1048A000D2B21146184604F09EFFAFE0FB685A01F1
:1048B0003B69134403F5A0639B6803F48073B3F56D
:1048C000807F1BD1FB685A013B69134403F5A06349
:1048D0001A464FF4807393607A68FB682C2101FBC1
:1048E00003F31344613307221A707B681B68FA686C
:1048F000D2B21146184604F076FF87E0FB685A01F1
:104900003B69134403F5A0639B6803F02003202B4D
:1049100009D1FB685A013B69134403F5A0631A46A9
:104920002023936072E0FB685A013B69134403F54E
:10493000A0639B6803F00803082B1AD1FB685A0197
:104940003B69134403F5A0631A46082393607A6811
:10495000FB682C2101FB03F31344613305221A7019
:104960007B681B68FA68D2B21146184604F03BFF18
:104970004CE0FB685A013B69134403F5A0639B6854
:1049800003F48063B3F5806F1BD1FB685A013B6968
:10499000134403F5A0631A464FF4806393607A686A
:1049A000FB682C2101FB03F31344613308221A70C6
:1049B0007B681B68FA68D2B21146184604F013FFF0
:1049C00024E0FB685A013B69134403F5A0639B682C
:1049D00003F08003802B19D1FB685A013B69134413
:1049E00003F5A0631A46802393607A68FB682C2144
:1049F00001FB03F31344613306221A707B681B68C2
:104A0000FA68D2B21146184604F0EDFEFB685A016E
:104A10003B69134403F5A0639B6803F40073B3F58B
:104A2000007F12D17B681B68FA68D2B21146184623
:104A300004F0D9FEFB685A013B69134403F5A063F7
:104A40001A464FF4007393604EE2FB685A013B69CB
:104A5000134403F5A0639B6803F00103012B40F0AE
:104A6000DF807B681B69002B19D07A68FB682C21DA
:104A700001FB03F3134448331A68FB6859013B698F
:104A80000B4403F5A0631B69C3F31203D21A7968C0
:104A9000FB682C2000FB03F30B4450331A607A6848
:104AA000FB682C2101FB03F31344613301221A70CC
:104AB0007A68FB682C2101FB03F313445C3300226A
:104AC0001A60FB685A013B69134403F5A0631A4658
:104AD000012393607A68FB682C2101FB03F31344E4
:104AE0003F331B78002B09D07A68FB682C2101FB2F
:104AF00003F313443F331B78022B11D17B681B68EF
:104B0000FA68D2B21146184604F06DFEFB685A01ED
:104B10003B69134403F5A0631A46102393603AE0FF
:104B20007A68FB682C2101FB03F313443F331B78A5
:104B3000032B09D07A68FB682C2101FB03F3134493
:104B40003F331B78012B26D1FB685A013B69134484
:104B500003F5A0631B68FA6851013A690A4402F53B
:104B6000A06243F0005313607A68FB682C2101FBBC
:104B700003F31344603301221A70FB68D9B27A68D8
:104B8000FB682C2000FB03F3134460331B781A46A8
:104B900078680FF0D7F87B681B69012B2BD17A68F6
:104BA000FB682C2101FB03F3134448331B6879682D
:104BB000FA682C2000FB02F20A4440321288B3FB50
:104BC000F2F303F00103002B00F08E817A68FB689A
:104BD0002C2101FB03F3134454331B7883F00103AE
:104BE000D8B27A68FB682C2101FB03F313445433D9
:104BF00002461A7078E17A68FB682C2101FB03F306
:104C0000134454331B7883F00103D8B27A68FB68ED
:104C10002C2101FB03F31344543302461A7063E161
:104C2000FB685A013B69134403F5A0639B6803F0DA
:104C30000203022B40F0F6807A68FB682C2101FB0E
:104C400003F3134461331B78012B09D17A68FB68A5
:104C50002C2101FB03F31344603301221A70C9E0D5
:104C60007A68FB682C2101FB03F3134461331B7842
:104C7000052B09D17A68FB682C2101FB03F313444F
:104C8000603305221A70B5E07A68FB682C2101FBBD
:104C900003F3134461331B78062B09D07A68FB6851
:104CA0002C2101FB03F3134461331B78082B50D1F3
:104CB0007A68FB682C2101FB03F313445C331B6807
:104CC0005A1C7968FB682C2000FB03F30B445C330F
:104CD0001A607A68FB682C2101FB03F313445C33F0
:104CE0001B68022B12D97A68FB682C2101FB03F3A5
:104CF00013445C3300221A607A68FB682C2101FBA4
:104D000003F31344603304221A7073E07A68FB687B
:104D10002C2101FB03F31344603302221A70FB6859
:104D20005A013B69134403F5A0631B68BB60BB6871
:104D300023F08043BB60BB6843F00043BB60FB686B
:104D40005A013B69134403F5A0631A46BB6813601C
:104D500050E07A68FB682C2101FB03F313446133B4
:104D60001B78032B22D17A68FB682C2101FB03F30B
:104D70001344603302221A70FB685A013B691344E2
:104D800003F5A0631B68BB60BB6823F08043BB6076
:104D9000BB6843F00043BB60FB685A013B691344A6
:104DA00003F5A0631A46BB68136023E07A68FB68CA
:104DB0002C2101FB03F3134461331B78072B19D11A
:104DC0007A68FB682C2101FB03F313445C331B68F6
:104DD0005A1C7968FB682C2000FB03F30B445C33FE
:104DE0001A607A68FB682C2101FB03F313446033DB
:104DF00004221A70FB685A013B69134403F5A0634F
:104E00001A4602239360FB68D9B27A68FB682C20AB
:104E100000FB03F3134460331B781A4678680EF0E6
:104E200091FF61E0FB685A013B69134403F5A063FD
:104E30009B6803F01003102B56D17A68FB682C2175
:104E400001FB03F313443F331B78032B11D17A6822
:104E5000FB682C2101FB03F313445C3300221A602E
:104E60007B681B68FA68D2B21146184604F0BBFC96
:104E700031E07A68FB682C2101FB03F313443F33D4
:104E80001B78002B09D07A68FB682C2101FB03F307
:104E900013443F331B78022B1DD17A68FB682C2109
:104EA00001FB03F313445C3300221A607B681B6927
:104EB000002B10D17A68FB682C2101FB03F313440B
:104EC000613303221A707B681B68FA68D2B21146FC
:104ED000184604F088FCFB685A013B69134403F54B
:104EE000A0631A461023936000BF1837BD4680BDEB
:104EF00080B588B000AF78600B46FB707B681B689C
:104F0000FB61FB69BB61FB787B617B695A01BB6913
:104F1000134403F5A0639B6803F00403042B1AD128
:104F20007B695A01BB69134403F5A0631A46042345
:104F300093607A687B692C2101FB03F3134461338E
:104F400006221A707B681B687A69D2B2114618462D
:104F500004F049FC31E37B695A01BB69134403F552
:104F6000A0639B6803F02003202B2ED17B695A019C
:104F7000BB69134403F5A0631A46202393607A6843
:104F80007B692C2101FB03F313443D331B78012B78
:104F900040F013837A687B692C2101FB03F31344EF
:104FA0003D3300221A707A687B692C2101FB03F3E0
:104FB0001344603302221A707B681B687A69D2B28C
:104FC0001146184604F00FFCF7E27B695A01BB69F1
:104FD000134403F5A0639B6803F40073B3F5007FEB
:104FE00012D17B695A01BB69134403F5A0631A46C9
:104FF0004FF4007393607B681B687A69D2B21146E4
:10500000184604F0F0FBD8E27B695A01BB691344EF
:1050100003F5A0639B6803F00103012B40D17A687C
:105020007B692C2101FB03F313445C3300221A60DB
:105030007B695A01BB69134403F5A0639B6803F0C5
:105040004003402B11D17A687B692C2101FB03F3CB
:1050500013443D3301221A707B695A01BB69134422
:1050600003F5A0631A46402393607B695A01BB692C
:10507000134403F5A0631A46012393607A687B69A1
:105080002C2101FB03F31344613301221A707B6866
:105090001B687A69D2B21146184604F0A4FB8CE270
:1050A0007B695A01BB69134403F5A0639B6803F055
:1050B0004003402B2CD17A687B692C2101FB03F340
:1050C0001344613304221A707A687B692C2101FB36
:1050D00003F313443D3301221A707A687B692C2153
:1050E00001FB03F313445C3300221A607B681B68E6
:1050F0007A69D2B21146184604F075FB7B695A01F1
:10510000BB69134403F5A0631A464023936054E23D
:105110007B695A01BB69134403F5A0639B6803F0E4
:105120000803082B1AD17B695A01BB69134403F5A4
:10513000A0631A46082393607A687B692C2101FBDF
:1051400003F31344613305221A707B681B687A6984
:10515000D2B21146184604F046FB2EE27B695A0192
:10516000BB69134403F5A0639B6803F01003102B85
:1051700040D17A687B692C2101FB03F313445C3333
:1051800000221A607A687B692C2101FB03F3134427
:10519000613303221A707A687B692C2101FB03F3C7
:1051A00013443D331B78002B12D17A687B692C2184
:1051B00001FB03F313443C331B78002B08D17A68BE
:1051C0007B692C2101FB03F313443D3301221A7048
:1051D0007B681B687A69D2B21146184604F003FB5B
:1051E0007B695A01BB69134403F5A0631A46102377
:1051F0009360E2E17B695A01BB69134403F5A06344
:105200009B6803F08003802B64D17B681B69002BB3
:1052100011D17A687B692C2101FB03F313446133BC
:1052200006221A707B681B687A69D2B2114618464A
:1052300004F0D9FA44E07A687B692C2101FB03F37E
:1052400013445C331B685A1C79687B692C2000FB73
:1052500003F30B445C331A607A687B692C2101FBF1
:1052600003F313445C331B68022B20D97A687B69F3
:105270002C2101FB03F313445C3300221A607A688B
:105280007B692C2101FB03F31344603304221A7061
:105290007B69D9B27A687B692C2000FB03F3134445
:1052A00060331B781A4678680EF04CFD08E07A6887
:1052B0007B692C2101FB03F31344603302221A7033
:1052C0007B695A01BB69134403F5A0631A46802326
:1052D000936072E17B695A01BB69134403F5A063D3
:1052E0009B6803F48063B3F5806F1BD17A687B6998
:1052F0002C2101FB03F31344613308221A707B68ED
:105300001B687A69D2B21146184604F06CFA7B69C0
:105310005A01BB69134403F5A0631A464FF4806336
:1053200093604AE17B695A01BB69134403F5A063AA
:105330009B6803F00203022B40F03F817A687B698F
:105340002C2101FB03F3134461331B78012B7DD126
:105350007A687B692C2101FB03F31344603301223B
:105360001A707A687B692C2101FB03F313443F33E5
:105370001B78022B0AD07A687B692C2101FB03F38E
:1053800013443F331B78032B40F000817B681B697B
:10539000002B13D17A687B692C2101FB03F31344A2
:1053A00055331B7883F00103D8B27A687B692C21CE
:1053B00001FB03F31344553302461A707B681B69E3
:1053C000012B40F0E3807A687B692C2101FB03F319
:1053D00013444C331B68002B00F0D8807A687B693B
:1053E0002C2101FB03F313444C331B6879687A6961
:1053F0002C2000FB02F20A44403212881344013B85
:1054000079687A692C2000FB02F20A444032128843
:10541000B3FBF2F3FB60FB6803F00103002B00F029
:10542000B5807A687B692C2101FB03F31344553363
:105430001B7883F00103D8B27A687B692C2101FBC9
:1054400003F31344553302461A709FE07A687B6970
:105450002C2101FB03F3134461331B78032B09D187
:105460007A687B692C2101FB03F313446033022229
:105470001A708BE07A687B692C2101FB03F31344DB
:1054800061331B78042B09D17A687B692C2101FBDD
:1054900003F31344603302221A7077E07A687B6961
:1054A0002C2101FB03F3134461331B78052B09D135
:1054B0007A687B692C2101FB03F3134460330522D6
:1054C0001A7063E07A687B692C2101FB03F31344B3
:1054D00061331B78062B09D07A687B692C2101FB8C
:1054E00003F3134461331B78082B4FD17A687B692F
:1054F0002C2101FB03F313445C331B685A1C7968AD
:105500007B692C2000FB03F30B445C331A607A6840
:105510007B692C2101FB03F313445C331B68022BD2
:1055200012D97A687B692C2101FB03F313445C33A5
:1055300000221A607A687B692C2101FB03F3134473
:10554000603304221A7021E07A687B692C2101FB08
:1055500003F31344603302221A707B695A01BB695A
:10556000134403F5A0631B683B613B6923F0804350
:105570003B613B6943F000433B617B695A01BB6976
:10558000134403F5A0631A463B6913607B695A0113
:10559000BB69134403F5A0631A46022393607B6939
:1055A000D9B27A687B692C2000FB03F31344603383
:1055B0001B781A4678680EF0C5FB00BF2037BD4641
:1055C00080BD80B58AB000AF78607B681B687B6265
:1055D0007B6A3B627B681B681B6AFB61FB6903F0AB
:1055E0000F03BB61FB695B0C03F00F037B61FB697D
:1055F0001B09C3F30A033B617B69022B04D07B695F
:10560000052B00F0A980AAE03B69002B00F0A680E2
:105610007A68BB692C2101FB03F3134444331B68F4
:10562000002B00F09B807A68BB692C2101FB03F3FF
:10563000134450331A683B691A447968BB692C20BB
:1056400000FB03F30B444C331B689A427AD87B6807
:1056500018687A68BB692C2101FB03F313444433B7
:105660001B683A6992B2194603F014FC7A68BB6968
:105670002C2101FB03F3134444331A683B691A4499
:105680007968BB692C2000FB03F30B4444331A6098
:105690007A68BB692C2101FB03F3134450331A6869
:1056A0003B691A447968BB692C2000FB03F30B4467
:1056B00050331A60BB695A013B6A134403F5A06377
:1056C0001B69DB0CC3F30903FB607A68BB692C21FF
:1056D00001FB03F3134440331B881A463B69934292
:1056E0003CD1FB68002B39D0BB695A013B6A13449B
:1056F00003F5A0631B68BB60BB6823F08043BB60FD
:10570000BB6843F00043BB60BB695A013B6A13446A
:1057100003F5A0631A46BB6813607A68BB692C2145
:1057200001FB03F3134454331B7883F00103D8B215
:105730007A68BB692C2101FB03F3134454330246FE
:105740001A700BE07A68BB692C2101FB03F3134448
:10575000603304221A7001E000BF00E000BF00BF08
:105760002837BD4680BD80B586B000AF78607B68C5
:105770001B687B617B693B613B6903F588631B6840
:10578000FB603B6903F588631B68BB60BB6823F063
:105790002E03BB60FB6803F00203022B0BD1FB68F6
:1057A00003F00103012B02D178680EF0AFFABB6859
:1057B00043F00203BB60FB6803F00803082B32D1FF
:1057C000BB6843F00803BB60FB6803F00403042BD1
:1057D00026D17B689B69022B13D1FB6803F4C0239D
:1057E000B3F5802F06D17B681B680221184603F0B1
:1057F000BFFC11E07B681B680121184603F0B8FC70
:105800000AE07B68DB68012B06D13B6903F5806306
:105810001A464EF66023536078680EF0A5FA02E04F
:1058200078680EF0AFFAFB6803F02003202B03D159
:10583000BB6843F02003BB603B6903F588631A46ED
:10584000BB68136000BF1837BD4680BD80B586B009
:1058500000AF78607B68002B01D1012367E27B6891
:105860001B6803F00103002B75D0884B9B6803F085
:105870000C03042B0CD0854B9B6803F00C03082B06
:1058800012D1824B5B6803F48003B3F5800F0BD118
:105890007E4B1B6803F40033002B5BD07B685B6896
:1058A000002B57D1012342E27B685B68B3F5803F50
:1058B00006D1764B1B68754A43F4803313601DE0B4
:1058C0007B685B68B3F5A02F0CD1704B1B686F4AE7
:1058D00043F4802313606D4B1B686C4A43F48033A0
:1058E00013600BE0694B1B68684A23F48033136034
:1058F000664B1B68654A23F4802313607B685B68F2
:10590000002B13D0FDF77CFA386108E0FDF778FA38
:1059100002463B69D31A642B01D9032307E25B4B90
:105920001B6803F40033002BF0D014E0FDF768FA95
:10593000386108E0FDF764FA02463B69D31A642B2C
:1059400001D90323F3E1514B1B6803F40033002B0F
:10595000F0D100E000BF7B681B6803F00203002B5E
:1059600063D04A4B9B6803F00C03002B0BD0474BD2
:105970009B6803F00C03082B1CD1444B5B6803F4B9
:105980008003002B16D1414B1B6803F00203002B50
:1059900005D07B68DB68012B01D00123C7E13B4BBD
:1059A0001B6823F0F8027B681B69DB00374913434F
:1059B0000B603AE07B68DB68002B20D0344B01227F
:1059C0001A60FDF71DFA386108E0FDF719FA024682
:1059D0003B69D31A022B01D90323A8E12B4B1B6887
:1059E00003F00203002BF0D0284B1B6823F0F802D1
:1059F0007B681B69DB00254913430B6015E0244BD2
:105A000000221A60FDF7FCF9386108E0FDF7F8F9AB
:105A100002463B69D31A022B01D9032387E11B4BB2
:105A20001B6803F00203002BF0D17B681B6803F0B6
:105A30000803002B36D07B685B69002B16D0154B12
:105A400001221A60FDF7DCF9386108E0FDF7D8F9AA
:105A500002463B69D31A022B01D9032367E10B4BA2
:105A60005B6F03F00203002BF0D01BE0094B002218
:105A70001A60FDF7C5F938610EE0FDF7C1F902467D
:105A80003B69D31A022B07D9032350E100380240A7
:105A900000004742800E4742884B5B6F03F00203D1
:105AA000002BEAD17B681B6803F00403002B00F095
:105AB00097800023FB75814B1B6C03F08053002BF8
:105AC0000FD10023BB607D4B1B6C7C4A43F080539D
:105AD00013647A4B1B6C03F08053BB60BB680123DB
