:020000040800F2
:1000000000000220FD28000861250008672500087F
:100010006D25000873250008792500080000000000
:10002000000000000000000000000000D12C0108CA
:100030007F25000800000000212F0108892F0108FA
:100040004D2900084D2900084D2900084D290008B8
:100050004D2900084D2900084D2900084D290008A8
:100060004D2900084D2900084D2900084D29000898
:100070004D2900084D2900084D2900084D29000888
:100080004D2900084D2900084D2900084D29000878
:100090004D2900084D2900084D2900084D29000868
:1000A0004D2900088D2500084D2900084D2900081C
:1000B000A12500084D2900084D2900084D290008F8
:1000C0004D2900084D2900084D290008B5250008D4
:1000D0004D290008C92500084D2900084D290008B0
:1000E0004D2900084D2900084D2900084D29000818
:1000F0004D2900084D2900084D2900084D29000808
:100100004D2900084D2900084D2900084D290008F7
:100110004D2900084D2900084D2900084D290008E7
:100120004D2900084D2900084D290008DD2500084B
:100130004D29000800000000000000004D290008C3
:100140004D2900084D2900084D290008F125000817
:100150004D2900084D2900084D2900084D290008A7
:100160004D2900084D2900084D2900084D29000897
:100170004D2900084D290008000000000000000083
:080180004D2900084D2900087B
:1001900010B5054C237833B9044B13B10448AFF3C1
:1001A00000800123237010BD7803002000000000B0
:1001B0000865010808B5034B1BB103490348AFF3B9
:1001C000008008BD000000007C03002008650108D5
:1001D00010F8012B11F8013B012A28BF9A42F7D0F1
:1001E000D01A7047034613F8012B002AFBD1181AC6
:1001F000013870470000000000000000000000000F
:1002000001F0FF01102A2BDB10F0070F08D010F8C7
:10021000013B013A8B422DD010F0070F42B3F6D1CB
:10022000F0B441EA012141EA014122F007047FF0E4
:1002300000070023F0E80256083C85EA010586EA3B
:10024000010685FA47F5A3FA87F586FA47F6A5FA77
:1002500087F68EB9EED1F0BC01F0FF0102F0070283
:1002600032B110F8013B013A83EA010313B1F8D12E
:100270000020704701387047002D06BF354603380F
:10028000073815F0010F07D1013015F4807F02BF48
:10029000013015F4C03F0130F0BC0138704700BF99
:1002A00053B94AB9002908BF00281CBF4FF0FF31DD
:1002B0004FF0FF3000F074B9ADF1080C6DE904CED9
:1002C00000F006F8DDF804E0DDE9022304B0704731
:1002D0002DE9F047089D04468E46002B4DD18A42F9
:1002E000944669D9B2FA82F252B101FA02F3C2F12C
:1002F000200120FA01F10CFA02FC41EA030E9440BD
:100300004FEA1C48210CBEFBF8F61FFA8CF708FBDD
:1003100016E341EA034306FB07F199420AD91CEBB5
:10032000030306F1FF3080F01F81994240F21C81E7
:10033000023E63445B1AA4B2B3FBF8F008FB10332F
:1003400044EA034400FB07F7A7420AD91CEB040464
:1003500000F1FF3380F00A81A74240F20781644434
:10036000023840EA0640E41B00261DB1D4400023B9
:10037000C5E900433146BDE8F0878B4209D9002D1D
:1003800000F0EF800026C5E9000130463146BDE8A7
:10039000F087B3FA83F6002E4AD18B4202D3824211
:1003A00000F2F980841A61EB030301209E46002DC0
:1003B000E0D0C5E9004EDDE702B9FFDEB2FA82F215
:1003C000002A40F09280A1EB0C014FEA1C471FFA73
:1003D0008CFE0126200CB1FBF7F307FB131140EA5A
:1003E00001410EFB03F0884208D91CEB010103F127
:1003F000FF3802D2884200F2CB804346091AA4B2E9
:10040000B1FBF7F007FB101144EA01440EFB00FEBC
:10041000A64508D91CEB040400F1FF3102D2A64521
:1004200000F2BB800846A4EB0E0440EA03409CE7C0
:10043000C6F12007B34022FA07FC4CEA030C20FA6D
:1004400007F401FA06F31C43F9404FEA1C4900FA8D
:1004500006F3B1FBF9F8200C1FFA8CFE09FB18110A
:1004600040EA014108FB0EF0884202FA06F20BD97D
:100470001CEB010108F1FF3A80F08880884240F2CD
:100480008580A8F102086144091AA4B2B1FBF9F011
:1004900009FB101144EA014100FB0EFE8E4508D90C
:1004A0001CEB010100F1FF346CD28E456AD9023891
:1004B000614440EA0840A0FB0294A1EB0E01A14276
:1004C000C846A64656D353D05DB1B3EB080261EBE4
:1004D0000E0101FA07F722FA06F3F1401F43C5E9BE
:1004E000007100263146BDE8F087C2F12003D840F4
:1004F0000CFA02FC21FA03F3914001434FEA1C4736
:100500001FFA8CFEB3FBF7F007FB10360B0C43EA27
:10051000064300FB0EF69E4204FA02F408D91CEBD7
:10052000030300F1FF382FD29E422DD902386344D5
:100530009B1B89B2B3FBF7F607FB163341EA034175
:1005400006FB0EF38B4208D91CEB010106F1FF38C4
:1005500016D28B4214D9023E6144C91A46EA0046BB
:1005600038E72E46284605E70646E3E61846F8E64D
:100570004B45A9D2B9EB020864EB0C0E0138A3E796
:100580004646EAE7204694E74046D1E7D0467BE777
:10059000023B614432E7304609E76444023842E7EF
:1005A000704700BFB0B596B000AF7860786800F0D3
:1005B00067F9204B07F148040FCB84E80F0007F1DF
:1005C00048030021184610F044FD02467B689A60FB
:1005D000194B07F138040FCB84E80F0007F13803FB
:1005E0000021184610F035FD02467B681A60134B57
:1005F00007F128040FCB84E80F0007F1280300213E
:10060000184610F026FD02467B685A600C4B07F135
:100610000C041D460FCD0FC495E8070084E80700C1
:1006200007F10C037968184610F0B3FC00BF583787
:10063000BD46B0BD34650108446501085465010834
:100640006465010880B584B000AF78607B681B6882
:1006500007F10A014FF0FF32184611F05FF9034627
:10066000002BF3D07B680E337A891344FB60F96862
:10067000786800F0C7F8E9E780B582B000AF78602D
:100680000B46FB707B685B7B0A2B60D1FB78002BF1
:100690005DD07B68B3F80E349BB21A467B68134476
:1006A000FA789A73FB780D2B32D17B68B3F80E344D
:1006B0009BB21A467B68134400229A737B681868C1
:1006C0007B68B3F810349BB20022194610F0EAFCA4
:1006D0007B68B3F80E349BB2B3F5407F07D97B68D3
:1006E000002283F80E24002283F80F2408E07B68A0
:1006F000B3F80E349BB201339AB27B68A3F80E2490
:100700007B68B3F80E349AB27B68A3F8102408E033
:100710007B68B3F80E349BB201339AB27B68A3F8BE
:100720000E247B68B3F80E349BB2B3F5806F1DD1F5
:100730007B68002283F80E24002283F80F247B6854
:10074000B3F80E349AB27B68A3F810240EE07B68ED
:10075000002283F80E24002283F80F247B68B3F86C
:100760000E349AB27B68A3F8102400BF00BF08378C
:10077000BD4680BD80B586B000AF786039607B68CB
:10078000596807F10C030022184610F0CBFCFB68F7
:10079000102B05D13B69DAB23B681A70002300E0E8
:1007A000012318461837BD4680BD80B586B000AF1E
:1007B000F8600B467A60FB727B683B61FB7A002B2A
:1007C0001AD0012B00D018E000237B610EE0FB68FB
:1007D00058683B691A687B6913441B784FF0FF32F5
:1007E000194610F05FFC7B6901337B613B695A68F5
:1007F0007B699A42EBD800E000BF00BF1837BD46C6
:1008000080BD000090B585B000AF786039601949AF
:10081000386813F01BFFB8600023FB6022E0164A23
:10082000FB6852F823301946B868FFF7D1FC03463D
:10083000002B14D1114AFB6852F82340B868FFF727
:10084000D1FC03460133BA68134419467868A047BF
:100850000346002B01D1002308E0012306E0FB68DA
:100860000133FB60FB68032BD9DD012318461437E5
:10087000BD4690BD80650108A403002094030020BC
:1008800080B483B000AF78600E4B0F4A1A600D4BF6
:100890000E4A5A600B4B0E4A9A600A4B0D4ADA60B8
:1008A0000D4B0E4A1A600C4B0D4A5A600A4B0D4A0A
:1008B0009A60094B0C4ADA6000BF0C37BD465DF800
:1008C000047B704794030020C50B0008B50900089D
:1008D0001D090008ED080008A40300208465010834
:1008E00088650108906501089865010880B586B0A3
:1008F00000AF786039600849002013F0A7FE7861E6
:100900007B689B6801220321184610F0CBFB002373
:1009100018461837BD4680BD8065010880B586B091
:1009200000AF786039601F49002013F08FFE7861B6
:100930001D497869FFF74CFC0346002B26D11B4B61
:100940001B6A00221A70002242F07D025A700022B7
:100950009A700022DA70154B1B6A002242F01802CE
:100960001A7100225A7100229A710022DA710F4B1B
:100970001B6A002242F001021A7200225A720022FF
:100980009A720022DA720A4801F0ECF87B689B68E0
:1009900001220221184610F085FB00231846183763
:1009A000BD4680BD80650108A065010800080020E3
:1009B000CC0D0020F0B58BB006AF7860396072497D
:1009C000002013F043FEB8607049B868FFF700FCE0
:1009D0000346002B2ED16E4B1B7F1C466C4B1B8895
:1009E0001D466B4B5B7F1846694B1B6A9B68684AC8
:1009F000126A52686649096A09680591049203936C
:100A00000290644B0193644B00932B46224663494A
:100A1000634813F0B5FD634B614A1A606048FFF705
:100A2000E1FB03465F4A53605E4A01217868FFF7A5
:100A3000BCFE9CE05C49B868FFF7CAFB0346002B8C
:100A400046D1574B00221A700023FB602EE0544819
:100A5000FFF7C8FB0346524A9818544AFB684FF404
:100A6000117101FB03F3134403F50E731B781D464C
:100A70004E4AFB684FF4117101FB03F3134403F575
:100A80000F731B684949FA684FF4117404FB02F2B2
:100A90000A4402F510721268019200932B46FA681C
:100AA000434913F06DFDFB680133FB60FB68032BCA
:100AB000CDDD3C4B3A4A1A603948FFF793FB0346B9
:100AC000384A5360374A01217868FFF76EFE4EE0DE
:100AD0003849B868FFF77CFB0346002B35D1304B13
:100AE00000221A70344801F09FF8334B1B781E46E1
:100AF000314B5B789C46304B9B7819462E4B9B7D47
:100B000018462D4B5B7D1C462B4BDB7D1D462A4B2F
:100B1000D3E90623134604930395029401900091B0
:100B20006346324625491E4813F02AFD1D4B1C4AD8
:100B30001A601B48FFF756FB03461A4A5360194ACE
:100B400001217868FFF731FE11E01D49144813F0C8
:100B500017FD144B124A1A601148FFF743FB034676
:100B6000104A53600F4A01217868FFF71EFE7B6828
:100B70009B6801220121184610F094FA00231846C0
:100B80001437BD46F0BD00BF80650108AC650108A3
:100B9000000800200A08002002080020B4650108AF
:100BA000BC030020B403002038660108EC0D0020CF
:100BB0004066010874660108C81A00207C660108B6
:100BC0009C66010880B584B000AF78603960334915
:100BD000002013F03BFDF8603149F868FFF7F8FAA0
:100BE0000346002B4DD12F49002013F02FFDF86054
:100BF000F86812F0A9FF0346DAB22B4B1A702949A4
:100C0000002013F023FDF860F86812F09DFF034602
:100C1000DAB2254B5A702149002013F017FDF86015
:100C2000F86812F091FF0346DAB21F4B9A701F4921
:100C3000002013F00BFDF860F86812F085FF034602
:100C4000DAB2194B9A751949002013F0FFFCF860CD
:100C5000F86812F079FF0346DAB2134B5A750F4960
:100C6000002013F0F3FCF860F86812F06DFF034603
:100C7000DAB20D4BDA750C4B01221A750A4801F0F5
:100C80000DF87B689B6801220021184610F00AFAD3
:100C9000002318461037BD4680BD00BF806501089F
:100CA00074660108B4660108C81A0020B866010815
:100CB00080B485B000AF03460A46FB711346BB8083
:100CC000BB885AB297F9073053405BB2FB73BB88BD
:100CD0001B0A9AB2FB7B064931F813305340BB80A4
:100CE000BB8818461437BD465DF8047B704700BFCB
:100CF0000000002080B584B000AF78600B467B8098
:100D00000023FB810023BB600DE0BB687A681344BD
:100D10001B78FA8911461846FFF7CAFF0346FB8184
:100D2000BB680133BB607B88BA689A42EDDBFB8904
:100D300018461037BD4680BD80B582B000AF7860E0
:100D400039600122396878680EF0FEFC0346002BFA
:100D500001D1002300E0012318460837BD4680BDBD
:100D600080B58CB000AF78607B68002283F81029D2
:100D700008F0E2FB0023FB6278E007F11403FA6A53
:100D80004C49184613F0FCFBFB6A4FF4117202FB4E
:100D900003F37A68134407F1140211461846FFF76B
:100DA000CBFF0346002B53D17A68FB6A4FF41171D5
:100DB00001FB03F3134403F50E7300221A7007F1CD
:100DC0000C0207F1100107F1140318460FF08BFE17
:100DD0000346002B47D17A68FB6A4FF4117101FB7F
:100DE00003F313441C331B68023B7968FA6A4FF41F
:100DF000117000FB02F20A440A32128802FB03F36C
:100E00007B627A68FB6A4FF4117101FB03F31344B0
:100E10000A331B881A463B6902FB03F33B627B6A79
:100E20005A087968FB6A4FF4117000FB03F30B4416
:100E300003F50F731A603B6A5A087968FB6A4FF42E
:100E4000117000FB03F30B4403F510731A600AE002
:100E50007A68FB6A4FF4117101FB03F3134403F545
:100E60000E7301221A70FB6A0133FB62FB6A032BCB
:100E700083DD0023BB6215E07A68BB6A4FF4117111
:100E800001FB03F3134403F50E731B78002B06D10B
:100E9000BB6ADAB27B6883F81029002306E0BB6ADC
:100EA0000133BB62BB6A032BE6DD012318463037F2
:100EB000BD4680BDBC66010880B485B000AFF86057
:100EC0007B600B46FB7213463B81FB7A08493A89EB
:100ED00021F83320FB7A064ADB0013447A685A6013
:100EE000002318461437BD465DF8047B704700BFE9
:100EF000F01A002080B485B000AF78607B6893F86A
:100F000010390133FB6015E07A68FB684FF411710A
:100F100001FB03F3134403F50E731B78002B06D17A
:100F2000FB68DAB27B6883F81029002306E0FB68CF
:100F30000133FB60FB68032BE6DD01231846143701
:100F4000BD465DF8047B704780B485B000AFF860A3
:100F5000B9607A60FB68074A1A60BB68064A1A6083
:100F60007B6880221A6000BF1437BD465DF8047BA1
:100F7000704700BF4C0500200006002080B582B0FD
:100F800000AF78600B46FB707B682A221A707B6882
:100F900043225A707B68FA781A717B68002242F00B
:100FA00001029A700022DA7005217868FFF7A2FE2C
:100FB00003461A467B68A3F8052000BF0837BD46E4
:100FC00080BD000080B586B000AF786039607B6876
:100FD0007B617B683B617B695B889BB204337A6889
:100FE00013441B88FB817B691B782A2B4AD17B69C0
:100FF0005B78432B33D0452B46D17B695B889BB212
:1010000004339BB219467868FFF774FE03461A460C
:10101000FB89934221D13B6993F821203B685A77A1
:101020003B6803F10A003B690E331222194612F0A5
:10103000C5FE3B68981C3B6906330822194612F02E
:10104000BDFE3B699B889AB23B681A803B6993F866
:1010500020203B681A77002317E0012315E00D4A92
:101060007B6813607B695B889BB206331A46094B29
:101070005A60094B1B6807490022184610F012F805
:10108000002302E0012300E0012318461837BD4683
:1010900080BD00BF24080020AC090020B0B5ACB072
:1010A00000AF01F055FC00F0C7F800F057FA00F06F
:1010B00089F900F009FA00F031FA00F0B9F900F00E
:1010C00027F94A48FFF76EFA01224949494806F0D4
:1010D0002DFB0B21484800F0D3FC484B07F1A0043E
:1010E0000FCB84E80F0007F1A003002118460FF092
:1010F000B0FF0346424A1360424B07F190040FCB06
:1011000084E80F0007F19003002118460FF0A1FFBB
:1011100003463D4A13603B4B07F180040FCB84E844
:101120000F0007F18003002118460FF092FF0346DD
:10113000364A1360364B07F170040FCB84E80F007A
:1011400007F17003002118460FF083FF0346314A70
:101150001360314B07F154041D460FCD0FC495E8C1
:10116000070084E8070007F15403002118460FF038
:1011700010FF0346294A1360294B07F138041D4626
:101180000FCD0FC495E8070084E8070007F1380386
:10119000002118460FF0FDFE0346224A1360224B41
:1011A00007F11C041D460FCD0FC495E8070084E825
:1011B000070007F11C03002118460FF0EAFE034662
:1011C0001A4A13601A4B3C461D460FCD0FC495E8D2
:1011D000070084E807003B46002118460FF0D9FEBF
:1011E0000346144A13600FF0CDFEFEE7B809002055
:1011F000C40900204C090020CC0D0020E86601083D
:10120000A0090020F8660108A4090020A809002010
:1012100008670108AC090020186701089009002040
:1012200034670108940900205067010898090020DC
:101230006C6701089C09002080B594B000AF07F1ED
:10124000200330220021184612F0C6FD07F10C03DE
:1012500000221A605A609A60DA601A610023BB604B
:10126000294B1B6C284A43F080531364264B1B6C9C
:1012700003F08053BB60BB6800237B60234B1B687B
:10128000224A43F480431360204B1B6803F48043DD
:101290007B607B6805233B624FF480337B620123D4
:1012A000BB620223BB634FF48003FB630F233B64E9
:1012B00090237B640223BB640523FB6407F12003B6
:1012C000184604F0A1F80346002B01D000F0D2FB31
:1012D0000F23FB6002233B6100237B614FF4A0538B
:1012E000BB614FF48053FB6107F10C0303211846E7
:1012F00004F002FB0346002B01D000F0BBFB00BF53
:101300005037BD4680BD00BF00380240007000402D
:1013100080B586B000AF3B1D00221A605A609A600B
:10132000DA601A6100233B60244B254A1A60234B84
:1013300000225A60214B7F229A60204BFF22DA6004
:101340001E4B00221A611D4B00225A611B4B0022CA
:101350009A611A4804F0C4FD0346002B01D000F046
:1013600089FB00233B7100237B710023BB710023A9
:101370003B6100237B613B1D002219460F4804F0AE
:1013800025FE0346002B01D000F074FB01233B70C7
:1013900001237B700123BB700023FB703B460022BE
:1013A0001946064804F00AFF0346002B01D000F05E
:1013B00061FB00BF1837BD4680BD00BF2C08002070
:1013C0000028004080B500AF174B184A1A60164B32
:1013D0004FF482725A60144B00229A60124B002222
:1013E000DA60114B00221A610F4B00225A610E4B3A
:1013F0004FF400729A610C4B0822DA610A4B00220A
:101400001A62094B00225A62074B00229A62064B6D
:101410000A22DA62044805F061F80346002B01D085
:1014200000F028FB00BF80BD4C08002000300140C8
:1014300080B586B000AF07F1080300221A605A6039
:101440009A60DA603B4600221A605A601D4B4FF0EA
:1014500080421A601B4B00225A601A4B00229A608D
:10146000184B4FF0FF32DA60164B00221A61154B11
:1014700000229A61134805F045FC0346002B01D079
:1014800000F0F8FA4FF48053BB6007F108031946E7
:101490000C4805F0FFFD0346002B01D000F0EAFAEE
:1014A00000233B6000237B603B461946054806F05D
:1014B0001BF80346002B01D000F0DCFA00BF183700
:1014C000BD4680BD0409002080B500AF114B124A13
:1014D0001A60104B4FF4E1325A600E4B00229A60B2
:1014E0000C4B0022DA600B4B00221A61094B0C22D4
:1014F0005A61084B00229A61064B0022DA610548C6
:1015000006F082F80346002B01D000F0B3FA00BFCA
:1015100080BD00BF4C0900200010014080B582B0A2
:1015200000AF00237B600C4B1B6B0B4A43F4800322
:101530001363094B1B6B03F480037B607B68002201
:1015400005213B2001F022FB3B2001F03BFB00BFCB
:101550000837BD4680BD00BF0038024080B58AB064
:1015600000AF07F1140300221A605A609A60DA6033
:101570001A6100233B61394B1B6B384A43F004036B
:101580001363364B1B6B03F004033B613B69002381
:10159000FB60324B1B6B314A43F0800313632F4BCC
:1015A0001B6B03F08003FB60FB680023BB602B4BCD
:1015B0001B6B2A4A43F001031363284B1B6B03F098
:1015C0000103BB60BB6800237B60244B1B6B234A79
:1015D00043F002031363214B1B6B03F002037B6098
:1015E0007B68012202211E4802F0EAFA01228621CC
:1015F0001C4802F0E5FA012201211B4802F0E0FA42
:1016000002237B610123BB610123FB6102233B6257
:1016100007F114031946124802F036F986237B615C
:101620000123BB610123FB6102233B6207F1140329
:1016300019460C4802F028F901237B610123BB61A4
:101640000023FB6100233B6207F11403194606489F
:1016500002F01AF900BF2837BD4680BD00380240AD
:1016600000080240000002400004024080B582B041
:1016700000AF78607B68094A93420AD1084B1B7B14
:1016800019460748FEF7F8FF01220649034806F00D
:101690004DF800BF0837BD4680BD00BF4C09002093
:1016A000B8090020C409002080B582B000AF78607E
:1016B0007B68094A93420BD108490948FFF75AF859
:1016C0000346002B04D101220449034805F0E9FF39
:1016D00000BF0837BD4680BD4C090020C41A002059
:1016E000B809002080B586B000AF786011F024FF03
:1016F000174B196807F10C034FF0FF3218460FF033
:1017000011FDFB68102B1FD13B69032B06D0032B67
:101710001CD8012B15D0022B04D017E00D4B012251
:101720005A7714E041F288300FF07FFC094B002219
:101730005A77094B1B680949002218460FF0B2FC82
:1017400005E011F0CBFE02E000BFD1E700BFCFE71C
:10175000A009002000080020A8090020B0090020EE
:1017600090B593B000AF78604FF4FA700FF05DFC65
:1017700007F12C037B6264237B64534B022200211C
:101780005248FFF799FB504B042201214F48FFF7C5
:1017900093FB4F4B022202214C48FFF78DFB4A4B33
:1017A000802203214948FFF787FB03E04FF47A705A
:1017B0000FF03BFC4548FFF7D3FA0346002BF5D169
:1017C000424B93F810391C46424800F02DFA03466C
:1017D00007F114002246404912F0D2FE07F114032B
:1017E00019463E4800F0E6FF0346002B09D1374B6F
:1017F00093F810391A4607F12C033949184612F0AC
:10180000BFFE7B6A1846FEF7EDFC0346BB6207F19C
:1018100024031A4601213348FEF7C7FF324B1968EB
:1018200007F108034FF0FF3218460FF07BFCBB684E
:10183000102BF3D17B6C002BF0DDFB683B643B6C21
:1018400019683B6C5B681A46244801F034F87B6CDD
:10185000012B2AD1214800F0FDFF1C48FFF74AFB6D
:101860000346002B1DD1194B93F810391C4619481B
:1018700000F0DAF9034607F114002246164912F087
:101880007FFE07F114031946144800F093FF034646
:10189000002B02D164237B640AE07B6C013B7B64F8
:1018A00006E07B6C013B7B6402E07B6C013B7B646C
:1018B00023200FF0BAFB0D4B1B680D490022184680
:1018C0000FF0F0FBAAE700BF00000240EC0D002083
:1018D00000080240C81A0020886701080417002089
:1018E00094670108B8090020AC090020A80900206D
:1018F000B009002080B58CB000AF78613B4B3C4A0A
:101900001A6207F1240320211846FFF737FB394AF2
:1019100007F124031360374B07225A60364800F062
:1019200001F90346002B26D0304B1B6A00221A70A7
:10193000002242F07D025A7000229A700022DA7072
:101940002A4B1B6A002242F018021A7100225A71B7
:1019500000229A710022DA71244B1B6A002242F0A5
:1019600001021A7200225A7200229A720022DA725E
:10197000214800F0F7F81D4B01225A7702E00120C0
:101980000FF053FB194B5B7F012BF8D0174B5B7F9C
:10199000002BFBD1194B196807F118034FF0FF32E8
:1019A00018460FF0BFFBBB69102B09D1FB69FB6226
:1019B000FB6A1A68FB6A5B681946104611F05EFD07
:1019C0000F4B19683B460A2218460FF0ABFB07F194
:1019D00018033A4607CA83E80700BB69102BD5D124
:1019E000FB6902491846FFF7EDFACFE7000800202F
:1019F000D80D0020B0090020CC0D0020A80900203F
:101A0000A409002080B584B000AF78600E4B0A2294
:101A10005A730E4B93F83D30DBB2212B0FD007F1F8
:101A20000F0319460848FEF7A5FE0346002B06D112
:101A300007F10F0301221946044805F032FE012088
:101A40000FF0F3FAE5E700BFB80900204C090020C9
:101A500080B582B000AF78607B681B68044A93420F
:101A600001D100F097FF00BF0837BD4680BD00BF21
:101A70000000014080B400AF72B600BFFEE7000076
:101A800080B487B000AF7860396000237B610023A9
:101A90003B613B680B2B3DD87B683A685A6000235A
:101AA000FB6009E01E4AFB6852F823307A69134450
:101AB0007B61FB680133FB60FB683A689A42F1D8AE
:101AC0007B6903F500339A027B681A6012233B613D
:101AD0007B6800221A7200225A7200229A72002237
:101AE000DA727B685B68BB600EE03A690C49BB68E0
:101AF00051F82330D31A3B617B689B685A1C7B6882
:101B00009A60BB680133BB60BB680B2B02DC3B698E
:101B1000002BEADC00BF1C37BD465DF8047B704734
:101B20000002002090B583B000AF78607B6803F1BD
:101B30000C007B681B681222194612F03FF97B6883
:101B40009B8B9CB27B680C3310211846FFF7D2F8B0
:101B500003469C4201D1002300E0012318460C37C4
:101B6000BD4690BDB0B58CB000AF78600023FB627D
:101B700000233B627B680C337B627B680C33102153
:101B80001846FFF7B7F803461A467B689A8301F0B8
:101B9000F7FB07F10C0300221A605A609A60DA60C2
:101BA0001A617B685B687B617B689B68BB6107F13E
:101BB000200207F10C031146184601F043FD3B6A71
:101BC000B3F1FF3F27D001F0FDFB29E07A6AFB6A01
:101BD00013441B787B85FB6A0133112B0BD8FB6AFE
:101BE00001337A6A13441B781B021AB2B7F92A3000
:101BF00013431BB27B857B681A68FB6AD1187B8D07
:101C000000221C46154622462B46012001F064FBAB
:101C1000FB6A0233FB62FB6A112BD7D901F0D2FBBE
:101C20003037BD46B0BD000080B58CB000AF7860E5
:101C30007B6800221946184804F062FA7B68143366
:101C400000221946144804F03DFB7B681B787B6139
:101C50007B685B783B617B689B78FB607B689B7DE6
:101C6000BB617B685B7D013BFB617B68DB7D643333
:101C70003B6207F10C03184612F08EF902460B4640
:101C80007968C1E906237B68D3E906231046194623
:101C90003037BD4680BD00BF2C08002080B582B023
:101CA00000AF78607B6800221946084804F08EF97E
:101CB0007B68143300221946044804F07FFA00BF01
:101CC000104619460837BD4680BD00BF2C080020CD
:101CD00080B483B000AF0346FB71FB79084A32F849
:101CE0003320084B1A80FB79054ADB0013445B68FC
:101CF000054A136000BF0C37BD465DF8047B704792
:101D0000F01A0020EA1A0020EC1A002080B500AF7B
:101D1000044B1B68044A11880022184601F050FF4A
:101D200000BF80BDEC1A0020EA1A002080B500AF89
:101D3000044B1B68044A11880122184601F040FF39
:101D400000BF80BDEC1A0020EA1A002080B584B0E4
:101D500000AF03463960FB7197F90730002B0EDAAC
:101D6000FB7903F07F03FB7100217720FFF7EEFF83
:101D70000346BB73BB7B012B01D9BB7B43E0FFF761
:101D8000D5FF00F06AF9FFF7C1FF00F066F9FB79B3
:101D9000184600F055F93B681B0EDBB2184600F000
:101DA0004FF93B681B0CDBB2184600F049F93B6861
:101DB0001B0ADBB2184600F043F93B68DBB2184659
:101DC00000F03EF90123FB73FB79402B01D19523F1
:101DD000FB73FB79482B01D18723FB73FB7B1846F0
:101DE00000F02EF90A23FB7300F037F90346BB73AA
:101DF00097F90E30002B05DAFB7B013BFB73FB7B75
:101E0000002BF1D1BB7B18461037BD4680BD0000CA
:101E100090B583B000AF574B00221A70FFF776FFE2
:101E200000214020FFF792FF0346012B40F09A80EB
:101E300000F020F94FF4D5714820FFF787FF0346E3
:101E4000012B57D10023FB710CE0FC7900F005F960
:101E500003461A4604F108033B4403F8082CFB79B7
:101E60000133FB71FB79032BEFD9BB78012B7BD1BD
:101E7000FB78AA2B78D142F6E063BB8005E0B7F986
:101E800004309BB2013B9BB2BB80B7F90430002BFE
:101E900007D04FF08041E920FFF758FF0346002BA1
:101EA000EDD1B7F90430002B5ED000217A20FFF786
:101EB0004DFF0346002B57D10023FB710CE0FC794A
:101EC00000F0CBF803461A4604F108033B4403F83C
:101ED000082CFB790133FB71FB79032BEFD93B789D
:101EE00003F04003002B01D00C2200E00422214B20
:101EF0001A7039E00021E920FFF728FF0346012B83
:101F000005D81C4B02221A70E923BB7104E0194B5F
:101F100001221A704123BB7146F2A813BB8005E071
:101F2000B7F904309BB2013B9BB2BB80B7F90430D8
:101F3000002B07D0BB7900211846FFF707FF0346A7
:101F4000002BEDD1B7F90430002B07D04FF400710E
:101F50005020FFF7FBFE0346002B05D0054B002267
:101F60001A7001E0012300E0002318460C37BD463B
:101F700090BD00BFE81A002080B400AF00BFBD468E
:101F80005DF8047B704780B582B000AF0023FB8012
:101F900000F063F803467B71FB880133FB807B799B
:101FA000FF2B04D0FB884FF6FF729342F0D1FB88E1
:101FB0004FF6FF72934201D1012300E07B7918466E
:101FC0000837BD4680BD000080B584B002AF7860A0
:101FD00039603B689BB24FF0FF320092074A796844
:101FE000074804F004FB0346002B01D1002300E066
:101FF000012318460837BD4680BD00BF101B0020D6
:102000004C08002080B586B002AF0346FB71002368
:10201000FB7307F10F02F91D4FF480530093012366
:10202000064804F0E4FA0346002B01D0FFF7A4FFB2
:10203000FB7B18461037BD4680BD00BF4C08002012
:1020400080B582B000AF0346FB71FB791846FFF7FD
:10205000D9FF00BF0837BD4680BD80B582B000AF54
:10206000FF20FFF7CFFF0346FB71FB7918460837C7
:10207000BD4680BD80B500AFFF20FFF7C3FF00BFA6
:1020800080BD90B585B000AF786039603968512067
:10209000FFF75CFE03467B737B7B002B01D005239F
:1020A0002FE0FFF7E7FF0023FB81FFF7D6FF034692
:1020B0007B73FB890133FB817B7BFE2B04D0FB8987
:1020C0004FF6FF729342F0D1FB894FF6FF729342B5
:1020D00001D1052315E00023FB8109E0FB897A6823
:1020E000D418FFF7BAFF03462370FB890133FB8145
:1020F000FB89B3F5007FF1D3FFF7BCFFFFF7BAFF11
:10210000002318461437BD4690BD000080B588B046
:1021100000AFF860B9601346FB8010F061F9034628
:10212000394A1360B9685920FFF710FE0346FB7562
:10213000FB7D002B01D0062361E0FFF79BFF00230E
:10214000BB6135E0FC20FFF77BFF4FF40071F868BE
:10215000FFF73AFFFB6803F50073FB60FFF78AFFA8
:10216000FFF788FFFFF779FF0346FB75FB7D03F060
:102170001F03052B01D0062341E00023FB83FFF75B
:102180006CFF0346FB75FB8B0133FB83FB7DFF2B51
:1021900004D0FB8B4FF6FF729342F0D1FB8B4FF6CE
:1021A000FF72934201D1062329E0BB690133BB6171
:1021B000FB88BA699A42C5DBFD20FFF741FFFFF7B4
:1021C00059FF0023FB83FFF748FF0346FB75FB8B9A
:1021D0000133FB83FB7DFF2B04D0FB8B4FF6FF729B
:1021E0009342F0D1FB8B4FF6FF72934201D106234D
:1021F00005E010F0F5F80346044A13600023184682
:102200002037BD4680BD00BFBC1A0020C01A002088
:1022100080B582B000AF00237B60124B5B6C114A2B
:1022200043F4804353640F4B5B6C03F480437B6047
:102230007B6800233B600B4B1B6C0A4A43F08053C6
:102240001364084B1B6C03F080533B603B68002217
:102250000F216FF0010000F099FC00BF0837BD4668
:1022600080BD00BF0038024080B586B000AF786006
:1022700007F1080300221A605A609A60DA607B68EE
:102280001B680C4A934211D10223BB604FF4807348
:102290007B6107F10803184603F040FD0346002B5D
:1022A00001D0FFF7E7FB044B01221A6000BF18378B
:1022B000BD4680BD002800403C0E474280B58AB034
:1022C00000AF786007F1140300221A605A609A6028
:1022D000DA601A617B681B68344A934262D100233A
:1022E0003B61334B5B6C324A43F480535364304B55
:1022F0005B6C03F480533B613B690023FB602C4B18
:102300001B6B2B4A43F002031363294B1B6B03F037
:102310000203FB60FB6838237B610223BB6101235E
:10232000FB6103233B6205237B6207F1140319461B
:10233000204801F0A9FA204B204A1A601E4B4FF0AA
:10234000C0625A601C4B40229A601B4B0022DA602C
:10235000194B4FF480621A61174B00225A61164BD9
:1023600000229A61144B0022DA61134B4FF4803241
:102370001A62114B00225A620F4800F031FC0346EA
:10238000002B01D0FFF776FB7B680B4A9A640A4A60
:102390007B68936300220521232000F0F7FB2320B4
:1023A00000F010FC00BF2837BD4680BD0030014062
:1023B0000038024000040240A40800205864024093
:1023C00080B584B000AF78607B681B68B3F1804F44
:1023D00015D10023FB600C4B1B6C0B4A43F001032F
:1023E0001364094B1B6C03F00103FB60FB680022C4
:1023F00005211C2000F0CAFB1C2000F0E3FB00BFFD
:102400001037BD4680BD00BF0038024080B58AB09D
:1024100000AF786007F1140300221A605A609A60D6
:10242000DA601A617B681B681D4A934234D100232D
:102430003B611C4B5B6C1B4A43F010035364194B0C
:102440005B6C03F010033B613B690023FB60154BA1
:102450001B6B144A43F001031363124B1B6B03F015
:102460000103FB60FB684FF4C0637B610223BB6127
:102470000023FB6103233B6207237B6207F1140304
:102480001946094801F000FA00220521252000F034
:102490007DFB252000F096FB00BF2837BD4680BDA0
:1024A00000100140003802400000024080B58CB0AE
:1024B00000AF78600023FB620023BB6200227968D2
:1024C000192000F063FB192000F07CFB0023FB6067
:1024D0001F4B5B6C1E4A43F0010353641C4B5B6C47
:1024E00003F00103FB60FB6807F1100207F114031E
:1024F0001146184603F0E0FB03F0CAFB03465B00FD
:10250000FB62FB6A134AA2FB03239B0C013BBB62E9
:10251000114B124A1A60104B40F2E732DA600E4A51
:10252000BB6A53600C4B00221A610B4B00229A606D
:10253000094804F0E7FB0346002B04D1064804F0E9
:1025400031FC034600E0012318463037BD4680BD0C
:102550000038024083DE1B43101D002000000140B4
:1025600080B400AFFEE780B400AFFEE780B400AFF8
:10257000FEE780B400AFFEE780B400AFFEE780B4B2
:1025800000AF00BFBD465DF8047B704780B500AF6B
:10259000024804F077FC00BF80BD00BF101D002082
:1025A00080B500AF024804F06DFC00BF80BD00BFE5
:1025B0000409002080B500AF024804F0BBF900BF59
:1025C00080BD00BF4C08002080B500AF024805F078
:1025D000DDF800BF80BD00BF4C09002080B500AF12
:1025E000024800F03DFC00BF80BD00BFA4080020F1
:1025F00080B500AF024801F067FD00BF80BD00BF9D
:10260000ACC9002080B400AF01231846BD465DF878
:10261000047B704780B582B000AF7860396011F0FC
:1026200097FA034616221A604FF0FF331846083710
:10263000BD4680BD80B582B000AF78604FF0FF31FD
:102640007868FFF7E7FFFEE780B586B000AFF86077
:10265000B9607A6000237B610AE0AFF30080014635
:10266000BB685A1CBA60CAB21A707B6901337B61BD
:102670007A697B689A42F0DB7B6818461837BD465A
:1026800080BD80B586B000AFF860B9607A60002385
:102690007B6109E0BB685A1CBA601B781846AFF32F
:1026A00000807B6901337B617A697B689A42F1DB48
:1026B0007B6818461837BD4680BD80B483B000AF34
:1026C00078604FF0FF3318460C37BD465DF8047B49
:1026D000704780B483B000AF786039603B684FF4D6
:1026E00000525A60002318460C37BD465DF8047B43
:1026F000704780B483B000AF7860012318460C3770
:10270000BD465DF8047B704780B485B000AFF860CB
:10271000B9607A60002318461437BD465DF8047B23
:102720007047000080B586B000AF7860144A154B42
:10273000D31A7B617B693B61134B1B68002B02D171
:10274000114B124A1A60104B1A687B6813443A699D
:102750009A4207D211F0FCF903460C221A604FF09E
:10276000FF3309E0084B1B68FB60074B1A687B6866
:102770001344054A1360FB6818461837BD4680BDF0
:1027800000000220000400005C1D0020E8CC0020B6
:1027900080B400AF064BD3F88830054A43F4700389
:1027A000C2F8883000BFBD465DF8047B704700BFAB
:1027B00000ED00E080B582B000AF786039607B68E2
:1027C00004222049184611F0F9FA7B6808330422E4
:1027D0001D49184611F0F2FA7B680C3304221B499C
:1027E000184611F0EBFA7B68243304221849184686
:1027F00011F0E4FA7B68002283F82C20002283F891
:102800002D20002283F82E20002283F82F207B68C1
:1028100030330A22396818460CF0DCFF0346002BDF
:102820000BD17B6803F130014FF02C024FF0000315
:1028300008460DF08CFD002300E001231846083700
:10284000BD4680BDA0670108A8670108B067010800
:10285000B867010880B582B000AF78607B68DA6A3B
:102860007B689A627B68DB6A03F124027B685A60AA
:102870007B6803F130014FF000024FF0000308467F
:102880000DF065FD7B6803F1300079687B6803F526
:102890006A732C220DF05FFA0346002B06D17B6889
:1028A000303318460DF029FD002300E001231846BF
:1028B0000837BD4680BD80B586B000AFF860B9600E
:1028C0007A60FB68DA6A7B681A44FB68DA62FB6844
:1028D00003F13000FB6803F56A737A68B9680DF09C
:1028E0003AFA0346FB75FB7D002B01D1002300E083
:1028F000012318461837BD4680BD0000DFF834D0EC
:102900000D480E490E4A002302E0D458C450043347
:10291000C4188C42F9D30B4A0B4C002301E013601E
:102920000432A242FBD3FFF733FF11F00DFAFEF79A
:10293000B5FB704700000220000000207803002053
:102940004470010878030020E8CC0020FEE7000076
:1029500080B500AF0E4B1B680D4A43F40073136043
:102960000B4B1B680A4A43F480631360084B1B68D7
:10297000074A43F480731360032000F0FCF80F2033
:10298000FFF794FDFFF744FC0023184680BD00BF0D
:10299000003C024080B400AF064B1B781A46064B41
:1029A0001B681344044A136000BFBD465DF8047BF6
:1029B000704700BF3C020020601D002080B400AFC3
:1029C000034B1B681846BD465DF8047B704700BF8B
:1029D000601D002080B584B000AF7860FFF7EEFF87
:1029E000B8607B68FB60FB68B3F1FF3F05D00A4B22
:1029F0001B781A46FB681344FB6000BFFFF7DEFF3D
:102A00000246BB68D31AFA689A42F7D800BF00BFE3
:102A10001037BD4680BD00BF3C02002080B485B0A9
:102A200000AF78607B6803F00703FB600C4BDB684A
:102A3000BB60BA684FF6FF031340BB60FB681A0225
:102A4000BB68134343F0BF6343F40033BB60044AE5
:102A5000BB68D36000BF1437BD465DF8047B704788
:102A600000ED00E080B400AF044BDB681B0A03F00C
:102A700007031846BD465DF8047B704700ED00E093
:102A800080B483B000AF0346FB7197F90730002B89
:102A90000BDBFB7903F01F02074997F907305B094D
:102AA000012000FA02F241F8232000BF0C37BD4696
:102AB0005DF8047B704700BF00E100E080B483B0A4
:102AC00000AF03463960FB7197F90730002B0ADB32
:102AD0003B68DAB20C4997F907301201D2B20B44C5
:102AE00083F800230AE03B68DAB20849FB7903F077
:102AF0000F03043B1201D2B20B441A7600BF0C370D
:102B0000BD465DF8047B704700E100E000ED00E0A9
:102B100080B489B000AFF860B9607A60FB6803F0F8
:102B20000703FB61FB69C3F10703042B28BF0423E0
:102B3000BB61FB690433062B02D9FB69033B00E050
:102B400000237B614FF0FF32BB6902FA03F3DA43E3
:102B5000BB681A407B699A404FF0FF317B6901FAEC
:102B600003F3D9437B680B40134318462437BD4613
:102B70005DF8047B704780B582B000AF78607868FC
:102B8000FFF74CFF00BF0837BD4680BD80B586B05B
:102B900000AF0346B9607A60FB7300237B61FFF7E7
:102BA00061FF78617A68B9687869FFF7B1FF02461A
:102BB00097F90F3011461846FFF780FF00BF18370E
:102BC000BD4680BD80B582B000AF0346FB7197F96A
:102BD00007301846FFF754FF00BF0837BD4680BDD9
:102BE00080B586B000AF786000237B61FFF7E6FE1A
:102BF00038617B68002B01D1012399E07B680222B8
:102C000083F835207B68002283F834207B681B68BA
:102C10001A687B681B6822F001021A600FE0FFF758
:102C2000CDFE02463B69D31A052B08D97B682022CA
:102C30005A657B68032283F83520032378E07B689C
:102C40001B681B6803F00103002BE8D17B681B683D
:102C50001B687B617A69384B13407B617B685A68DB
:102C60007B689B681A437B68DB681A437B681B6937
:102C70001A437B685B691A437B689B691A437B68CC
:102C8000DB691A437B681B6A13437A6913437B61D0
:102C90007B685B6A042B07D17B68DA6A7B681B6BF5
:102CA00013437A6913437B617B681B687A691A60F6
:102CB0007B681B685B697B617B6923F007037B6131
:102CC0007B685B6A7A6913437B617B685B6A042B70
:102CD00017D17B689B6A7A6913437B617B68DB6AE7
:102CE000002B0ED0786800F07BFA0346002B08D04A
:102CF0007B6840225A657B68012283F835200123D6
:102D000016E07B681B687A695A61786800F032FACD
:102D10000346FB607B68DB6D3F229A40FB689A604C
:102D20007B6800225A657B68012283F835200023E6
:102D300018461837BD4680BD3F8010F080B584B07E
:102D400000AF78607B689B6DFB60FFF737FEB86073
:102D50007B6893F83530DBB2022B08D07B68802289
:102D60005A657B68002283F83420012352E07B6897
:102D70001B681A687B681B6822F016021A607B6861
:102D80001B685A697B681B6822F080025A617B6865
:102D90001B6C002B03D17B689B6C002B07D07B68DE
:102DA0001B681A687B681B6822F008021A607B683F
:102DB0001B681A687B681B6822F001021A6013E026
:102DC000FFF7FCFD0246BB68D31A052B0CD97B68C4
:102DD00020225A657B68032283F835207B68002215
:102DE00083F83420032315E07B681B681B6803F01D
:102DF0000103002BE4D17B68DB6D3F229A40FB6826
:102E00009A607B68012283F835207B68002283F872
:102E10003420002318461037BD4680BD80B483B0EF
:102E200000AF78607B6893F83530DBB2022B04D0BA
:102E30007B6880225A6501230CE07B68052283F8B9
:102E400035207B681B681A687B681B6822F00102CA
:102E50001A60002318460C37BD465DF8047B7047A6
:102E600080B586B000AF78600023BB608E4B1B68D6
:102E70008E4AA2FB03239B0A7B617B689B6D3B61AF
:102E80003B691B68FB607B68DB6D08229A40FB682E
:102E90001340002B1AD07B681B681B6803F00403E7
:102EA000002B13D07B681B681A687B681B6822F0B4
:102EB00004021A607B68DB6D08229A403B699A60C5
:102EC0007B685B6D43F001027B685A657B68DB6D54
:102ED00001229A40FB681340002B12D07B681B68CC
:102EE0005B6903F08003002B0BD07B68DB6D012254
:102EF0009A403B699A607B685B6D43F002027B6895
:102F00005A657B68DB6D04229A40FB681340002BF6
:102F100012D07B681B681B6803F00203002B0BD0E8
:102F20007B68DB6D04229A403B699A607B685B6D2D
:102F300043F004027B685A657B68DB6D10229A407F
:102F4000FB681340002B43D07B681B681B6803F0B1
:102F50000803002B3CD07B68DB6D10229A403B6954
:102F60009A607B681B681B6803F48023002B18D0D1
:102F70007B681B681B6803F40023002B08D17B6867
:102F80001B6C002B24D07B681B6C786898471FE073
:102F90007B689B6C002B1BD07B689B6C7868984788
:102FA00016E07B681B681B6803F48073002B07D155
:102FB0007B681B681A687B681B6822F008021A602D
:102FC0007B681B6C002B03D07B681B6C7868984770
:102FD0007B68DB6D20229A40FB681340002B00F0D9
:102FE0008F807B681B681B6803F01003002B00F0C8
:102FF00087807B68DB6D20229A403B699A607B6802
:1030000093F83530DBB2052B36D17B681B681A6824
:103010007B681B6822F016021A607B681B685A697D
:103020007B681B6822F080025A617B681B6C002B56
:1030300003D17B689B6C002B07D07B681B681A68E8
:103040007B681B6822F008021A607B68DB6D3F22F8
:103050009A403B699A607B68012283F835207B683F
:10306000002283F834207B681B6D002B7ED07B68A8
:103070001B6D7868984779E07B681B681B6803F4D0
:103080008023002B1DD07B681B681B6803F4002382
:10309000002B0DD17B685B6C002B31D07B685B6CA7
:1030A000786898472CE000BF34020020B5814E1BA1
:1030B0007B68DB6B002B23D07B68DB6B78689847E1
:1030C0001EE07B681B681B6803F48073002B0FD124
:1030D0007B681B681A687B681B6822F010021A6004
:1030E0007B68012283F835207B68002283F8342036
:1030F0007B68DB6B002B03D07B68DB6B78689847C1
:103100007B685B6D002B32D07B685B6D03F0010345
:10311000002B22D07B68052283F835207B681B6852
:103120001A687B681B6822F001021A60BB680133D1
:10313000BB607A699A4207D37B681B681B6803F0FF
:103140000103002BF2D100E000BF7B68012283F86D
:1031500035207B68002283F834207B68DB6C002BF1
:1031600005D07B68DB6C7868984700E000BF1837B3
:10317000BD4680BD80B485B000AF78607B681B68B9
:10318000DBB2103B144AA2FB03231B09FB60134A6A
:10319000FB6813441B781A467B68DA65FB68032BCF
:1031A00009D97B681B6823F47F7323F003031A1D7E
:1031B0007B689A6507E07B681B6823F47F7323F0C4
:1031C00003037A6893657B689B6D18461437BD4688
:1031D0005DF8047B704700BFABAAAAAA8868010803
:1031E00080B485B000AF78600023FB737B689B6A76
:1031F000BB607B689B69002B1FD1BB68032B56D833
:1032000001A252F823F000BF193200082B32000847
:1032100019320008AF3200087B68DB6A03F0807364
:10322000002B46D00123FB7343E07B68DB6AB3F1DC
:10323000C07F40D10123FB733DE07B689B69B3F500
:10324000005F21D1BB68032B37D801A252F823F0CD
:1032500061320008673200086132000879320008E4
:103260000123FB7330E07B68DB6A03F08073002B83
:1032700025D00123FB7322E07B68DB6AB3F1C07FBA
:103280001FD10123FB731CE0BB68022B03D9BB6871
:10329000032B03D018E00123FB7315E07B68DB6A86
:1032A00003F08073002B0ED00123FB730BE000BFF3
:1032B0000AE000BF08E000BF06E000BF04E000BF76
:1032C00002E000BF00E000BFFB7B18461437BD469C
:1032D0005DF8047B704700BF80B586B000AFF86032
:1032E000B960C7E900230123FB75234B1B7E012B2B
:1032F00001D102233BE0204B01221A764CF25030E0
:1033000000F070F80346FB75FB7D002B2BD1FB68AA
:10331000002B05D13B781946B86800F01BF916E080
:10332000FB68012B05D13B881946B86800F0EEF820
:103330000DE0FB68022B05D13B681946B86800F028
:10334000C3F804E0D7E90023B86800F08BF84CF22A
:10335000503000F047F80346FB75084B1B69074ADD
:1033600023F001031361044B00221A76FB7D1846FB
:103370001837BD4680BD00BF641D0020003C0240E0
:1033800080B483B000AF0023FB710B4B1B69002B93
:103390000BDA094B094A5A60074B094A5A60064B37
:1033A0001B69002B01DA0123FB71FB7918460C37EE
:1033B000BD465DF8047B7047003C02402301674531
:1033C000AB89EFCD80B400AF054B1B69044A43F0D5
:1033D0000043136100231846BD465DF8047B704727
:1033E000003C024080B584B000AF78600023FB60F1
:1033F0001A4B0022DA61FFF7E1FAF86010E07B680F
:10340000B3F1FF3F0CD07B68002B07D0FFF7D6FA53
:103410000246FB68D31A7A689A4201D2032319E064
:103420000F4BDB6803F48033002BE8D10C4BDB68D7
:1034300003F00103002B02D0094B0122DA60084B94
:10344000DB6803F0F203002B03D000F0A5F80123A2
:1034500000E0002318461037BD4680BD641D0020E3
:10346000003C024080B485B000AFF860C7E900239B
:10347000144B1B69134A23F440731361114B1B69EE
:10348000104A43F4407313610E4B1B690D4A43F01D
:1034900001031361FB683A681A60BFF36F8F00BFC6
:1034A000D7E900014FF000024FF000030A000023AB
:1034B000F968043113460B6000BF1437BD465DF850
:1034C000047B7047003C024080B483B000AF78605A
:1034D00039600D4B1B690C4A23F4407313610A4B8E
:1034E0001B69094A43F400731361074B1B69064AC1
:1034F00043F0010313617B683A681A6000BF0C3720
:10350000BD465DF8047B7047003C024080B483B048
:1035100000AF78600B467B800D4B1B690C4A23F48F
:10352000407313610A4B1B69094A43F480731361AA
:10353000074B1B69064A43F0010313617B687A88D5
:103540001A8000BF0C37BD465DF8047B704700BF92
:10355000003C024080B483B000AF78600B46FB7043
:103560000C4B1B690B4A23F440731361094B094A46
:103570001B691361074B1B69064A43F00103136182
:103580007B68FA781A7000BF0C37BD465DF8047B83
:10359000704700BF003C024080B400AF274BDB689F
:1035A00003F01003002B08D0254BDB6943F0100318
:1035B000234AD361214B1022DA60204BDB6803F0F1
:1035C0002003002B08D01E4BDB6943F008031C4A84
:1035D000D3611A4B2022DA60184BDB6803F04003FA
:1035E000002B08D0164BDB6943F00403144AD36167
:1035F000124B4022DA60114BDB6803F08003002B92
:1036000008D00F4BDB6943F002030D4AD3610B4B2B
:103610008022DA60094BDB6803F00203002B08D03C
:10362000074BDB6943F02003054AD361034B0222B9
:10363000DA6000BFBD465DF8047B7047003C024085
:10364000641D002080B584B000AF7860396001232C
:10365000FB730023BB60314B1B7E012B01D1022386
:1036600058E02E4B01221A764CF25030FFF7BAFE8A
:103670000346FB73FB7B002B48D13B684FF0FF32C6
:103680001A607B681B68012B15D17B681B69DAB255
:103690007B685B681946104600F044F84CF25030E5
:1036A000FFF7A0FE0346FB731D4B1B691C4A23F06A
:1036B0000403136128E07B689B68BB601CE07B68A7
:1036C0001B69DBB21946B86800F050F84CF2503074
:1036D000FFF788FE0346FB73114B1B69104A23F06A
:1036E000FA031361FB7B002B03D03B68BA681A60B6
:1036F0000AE0BB680133BB607B68DA687B689B6863
:103700001344BA689A42DAD300F078F8034B0022E7
:103710001A76FB7B18461037BD4680BD641D00201D
:10372000003C024080B483B000AF03463960FB71B7
:103730000D4B1B690C4A23F4407313610A4B1B6940
:10374000094A43F004031361074B1A69FB791B0212
:103750001343054A43F48033136100BF0C37BD4661
:103760005DF8047B704700BF003C024080B485B028
:1037700000AF78600B46FB700023FB60FB78002BEA
:1037800002D10023FB6010E0FB78012B03D14FF442
:103790008073FB6009E0FB78022B03D14FF40073C8
:1037A000FB6002E04FF44073FB60134B1B69124A4D
:1037B00023F440731361104B1A690F49FB681343DC
:1037C0000B610D4B1B690C4A23F0F80313610A4B84
:1037D0001A697B68DB001343074A43F00203136155
:1037E000054B1B69044A43F48033136100BF14374F
:1037F000BD465DF8047B7047003C024080B400AFDA
:10380000204B1B6803F40073002B17D01D4B1B6863
:103810001C4A23F4007313601A4B1B68194A43F4C3
:1038200000631360174B1B68164A23F40063136090
:10383000144B1B68134A43F400731360114B1B684D
:1038400003F48063002B17D00E4B1B680D4A23F442
:10385000806313600B4B1B680A4A43F48053136068
:10386000084B1B68074A23F480531360054B1B6801
:10387000044A43F48063136000BFBD465DF8047BD7
:10388000704700BF003C024080B489B000AF786050
:10389000396000237B6100233B610023BB6100236F
:1038A000FB616BE10122FB6902FA03F37B613B6878
:1038B0001B687A6913403B613A697B699A4240F020
:1038C0005A813B685B6803F00303012B05D03B681A
:1038D0005B6803F00303022B30D17B689B68BB61FC
:1038E000FB695B00032202FA03F3DB43BA6913406E
:1038F000BB613B68DA68FB695B0002FA03F3BA69F3
:103900001343BB617B68BA699A607B685B68BB6183
:103910000122FB6902FA03F3DB43BA691340BB617E
:103920003B685B681B0903F00102FB6902FA03F3C1
:10393000BA691343BB617B68BA695A603B685B68CC
:1039400003F00303032B17D07B68DB68BB61FB69C3
:103950005B00032202FA03F3DB43BA691340BB6145
:103960003B689A68FB695B0002FA03F3BA69134388
:10397000BB617B68BA69DA603B685B6803F003038C
:10398000022B23D1FB69DA087B68083253F8223016
:10399000BB61FB6903F007039B000F2202FA03F3EC
:1039A000DB43BA691340BB613B681A69FB6903F0EA
:1039B00007039B0002FA03F3BA691343BB61FB6977
:1039C000DA087B680832B96943F822107B681B6803
:1039D000BB61FB695B00032202FA03F3DB43BA69B4
:1039E0001340BB613B685B6803F00302FB695B004B
:1039F00002FA03F3BA691343BB617B68BA691A60C0
:103A00003B685B6803F44033002B00F0B480002374
:103A1000FB60604B5B6C5F4A43F4804353645D4BD7
:103A20005B6C03F48043FB60FB685B4AFB699B08AB
:103A3000023352F82330BB61FB6903F003039B00A0
:103A40000F2202FA03F3DB43BA691340BB617B68C0
:103A5000524A93422BD07B68514A934225D07B68CF
:103A6000504A93421FD07B684F4A934219D07B68DB
:103A70004E4A934213D07B684D4A93420DD07B68E7
:103A80004C4A934207D07B684B4A934201D10723AB
:103A90000EE008230CE006230AE0052308E00423D7
:103AA00006E0032304E0022302E0012300E00023F8
:103AB000FA6902F0030292009340BA691343BB61B2
:103AC0003549FB699B080233BA6941F823203B4B17
:103AD0009B68BB613B69DB43BA691340BB613B68D0
:103AE0005B6803F48013002B03D0BA693B6913436E
:103AF000BB61324ABB699360304BDB68BB613B6999
:103B0000DB43BA691340BB613B685B6803F4001395
:103B1000002B03D0BA693B691343BB61274ABB69D9
:103B2000D360264B5B68BB613B69DB43BA691340DA
:103B3000BB613B685B6803F40033002B03D0BA69B8
:103B40003B691343BB611D4ABB6953601B4B1B6838
:103B5000BB613B69DB43BA691340BB613B685B688F
:103B600003F48033002B03D0BA693B691343BB6174
:103B7000124ABB691360FB690133FB61FB690F2BC0
:103B80007FF690AE00BF00BF2437BD465DF8047BD2
:103B9000704700BF0038024000380140000002407A
:103BA0000004024000080240000C024000100240E5
:103BB0000014024000180240001C0240003C01407A
:103BC00080B483B000AF78600B467B8013467B7077
:103BD0007B78002B03D07A887B689A6103E07B882E
:103BE0001A047B689A6100BF0C37BD465DF8047B00
:103BF0007047F0B58FB00AAF78607B68002B01D1B9
:103C0000012354E07B681B68FB607B6893F8F93202
:103C1000DBB2002B06D17B68002283F8F82278689B
:103C20000FF0F2FC7B68032283F8F922FB68DB6B60
:103C300003F48073002B02D17B6800221A617B6839
:103C40001B68184604F004FD7B681B683B607E68B7
:103C50006D4606F110040FCC0FC50FCC0FC594E8CC
:103C6000030085E80300331D0ECB386804F07EFCAA
:103C70007B681B680121184604F0FBFC7B681B680D
:103C80003B607E686D4606F110040FCC0FC50FCC6B
:103C90000FC594E8030085E80300331D0ECB386898
:103CA00004F084FE7B68012283F8F9220023184681
:103CB0001437BD46F0BD90B589B004AF78600846B2
:103CC00011461A460346FB700B46BB7013467B70C9
:103CD0007B6893F8F832012B01D1022376E07B68F0
:103CE000012283F8F822FB787A682C2101FB03F388
:103CF00013443D3300221A70FB787A682C2101FBB3
:103D000003F3134438337A781A70FB787A682C21DD
:103D100001FB03F3134440333A8D1A80FB787A6831
:103D20002C2101FB03F313443933FA781A70FB7822
:103D30007A682C2101FB03F313443F3397F82420C6
:103D40001A70FB78BA7802F07F02D0B27A682C2120
:103D500001FB03F313443A3302461A7097F9023019
:103D6000002B09DAFB787A682C2101FB03F313445A
:103D70003B3301221A7008E0FB787A682C2101FBA2
:103D800003F313443B3300221A70FB787A682C212A
:103D900001FB03F313443C3397F820201A707B682F
:103DA00018687C78BA78F9783B8D029397F82430BC
:103DB000019397F820300093234604F07DFF0346DB
:103DC000FB737B68002283F8F822FB7B18461437CC
:103DD000BD4690BD80B584B000AF78600B46FB70E7
:103DE0000023FB737B6893F8F832012B01D1022387
:103DF0000FE07B68012283F8F8227B681B68FA7861
:103E00001146184605F0CDF97B68002283F8F822A8
:103E1000FB7B18461037BD4680BD000080B582B0E0
:103E200000AF7860084611461A460346FB700B4601
:103E3000BB7013467B70FB787A682C2101FB03F37F
:103E400013443B33BA781A70FB787A682C2101FB53
:103E500003F313443F337A781A703B7C002B12D162
:103E6000FB787A682C2101FB03F3134442330322CD
:103E70001A70FB787A682C2101FB03F313443D335D
:103E80003A7F1A7008E0FB787A682C2101FB03F373
:103E90001344423302221A707B78032B00F2C6804F
:103EA00001A252F823F000BFB93E000819400008F3
:103EB0001D3F00089B3F00083B7C012B40F0B88071
:103EC000BB78002B40F0B4803B8B002B08D1FB78F3
:103ED0007A682C2101FB03F31344553301221A7035
:103EE000FB787A682C2101FB03F3134455331B78CC
:103EF000002B09D1FB787A682C2101FB03F31344D2
:103F0000423300221A7093E0FB787A682C2101FB7F
:103F100003F31344423302221A7089E0BB78002B6A
:103F20001DD1FB787A682C2101FB03F31344553330
:103F30001B78002B09D1FB787A682C2101FB03F355
:103F40001344423300221A7073E0FB787A682C2104
:103F500001FB03F31344423302221A7069E0FB7839
:103F60007A682C2101FB03F3134454331B78002B94
:103F700009D1FB787A682C2101FB03F31344423307
:103F800000221A7055E0FB787A682C2101FB03F3BC
:103F90001344423302221A704BE0BB78002B1DD130
:103FA000FB787A682C2101FB03F3134455331B780B
:103FB000002B09D1FB787A682C2101FB03F3134411
:103FC000423300221A7034E0FB787A682C2101FB1E
:103FD00003F31344423302221A702AE0FB787A6812
:103FE0002C2101FB03F3134454331B78002B09D11C
:103FF000FB787A682C2101FB03F31344423300223F
:104000001A7016E0FB787A682C2101FB03F3134445
:10401000423302221A700CE0FB787A682C2101FBF3
:1040200003F31344423300221A7002E000BF00E0A1
:1040300000BFFB787A682C2101FB03F3134444335F
:104040007A691A60FB783A8B79682C2000FB03F3BD
:104050000B444C331A60FB787A682C2101FB03F384
:104060001344603300221A70FB787A682C2101FB1C
:1040700003F31344503300221A60FB787A682C2132
:1040800001FB03F313443933FA781A70FB787A682A
:104090002C2101FB03F31344613300221A707B6867
:1040A0001868FB782C2202FB03F338337A68D118A6
:1040B0007B681B69DBB21A4604F020FF03461846F2
:1040C0000837BD4680BD00BF80B586B000AF7860C0
:1040D0007B681B683B613B69FB607B681B6818461B
:1040E00004F021FC0346012B40F0F6807B681B683E
:1040F000184604F005FC0346002B00F0EC807B68BA
:104100001B68184604F0FCFB034603F40013B3F5E8
:10411000001F04D17B681B684FF400125A617B6852
:104120001B68184604F0ECFB034603F48013B3F558
:10413000801F04D17B681B684FF480125A617B6832
:104140001B68184604F0DCFB034603F08063B3F100
:10415000806F04D17B681B684FF080625A617B6876
:104160001B68184604F0CCFB034603F00203022B45
:1041700003D17B681B6802225A617B681B68184662
:1041800004F0BEFB034603F00053B3F1005F1CD103
:104190007B681B684FF000525A61FB6803F5886327
:1041A0001B6803F00103002B0FD11021386904F0C4
:1041B000ADFA386904F0DEFA7B681B680121184605
:1041C00004F0B4FC78680FF08FFA7B681B6818461F
:1041D00004F096FB034603F08073B3F1807F02D1B5
:1041E000786801F09EF87B681B68184604F088FB2D
:1041F000034603F00803082B06D178680FF058FA3D
:104200007B681B6808225A617B681B68184604F0AB
:1042100077FB034603F01003102B01D1012300E0CC
:104220000023002B12D07B681B689A697B681B688F
:1042300022F010029A61786800F0A1FF7B681B6889
:104240009A697B681B6842F010029A617B681B6860
:10425000184604F055FB034603F00073B3F1007FEA
:104260003AD17B681B68184604F08AFFB8600023C7
:104270007B6125E07B6903F00F03BA6822FA03F340
:1042800003F00103002B18D07B695A01FB6813442B
:1042900003F5A0631B6803F40043B3F5004F06D198
:1042A0007B69DBB21946786800F0ABF805E07B6902
:1042B000DBB21946786800F0F9FB7B6901337B615A
:1042C0007B689B687A699A42D4D37B681B684FF0FD
:1042D00000725A6100E000BF1837BD4680BD80B54E
:1042E00082B000AF78607B6893F8F832012B01D17F
:1042F000022313E07B68012283F8F8227B681B68A5
:104300000121184604F076FC7B681B68184604F00F
:104310008EF97B68002283F8F822002318460837BC
:10432000BD4680BD80B582B000AF78607B6893F8F1
:10433000F832012B01D102230DE07B68012283F8C2
:10434000F8227B681B68184605F064F87B68002239
:1043500083F8F822002318460837BD4680BD80B593
:1043600082B000AF78607B681B68184604F018FCC8
:10437000034618460837BD4680BD80B483B000AF01
:1043800078600B46FB70FB787A682C2101FB03F305
:10439000134460331B7818460C37BD465DF8047B28
:1043A000704780B483B000AF78600B46FB70FB7839
:1043B0007A682C2101FB03F3134450331B68184621
:1043C0000C37BD465DF8047B704780B582B000AF06
:1043D00078607B681B68184604F05CFC034618464E
:1043E0000837BD4680BD80B582B000AF78607B687D
:1043F0001B68184604F037FC034618460837BD46CC
:1044000080BD80B586B000AF78600B46FB707B68DE
:104410001B687B617B693B61FB78FB60FB685A0131
:104420003B69134403F5A0639B6803F00403042B6A
:104430001AD1FB685A013B69134403F5A0631A467D
:10444000042393607A68FB682C2101FB03F3134477
:10445000613306221A707B681B68FA68D2B2114673
:10446000184604F09EFEAFE0FB685A013B69134416
:1044700003F5A0639B6803F48073B3F5807F1BD1C1
:10448000FB685A013B69134403F5A0631A464FF4D5
:10449000807393607A68FB682C2101FB03F313445B
:1044A000613307221A707B681B68FA68D2B2114622
:1044B000184604F076FE87E0FB685A013B69134416
:1044C00003F5A0639B6803F02003202B09D1FB6850
:1044D0005A013B69134403F5A0631A4620239360F5
:1044E00072E0FB685A013B69134403F5A0639B68C3
:1044F00003F00803082B1AD1FB685A013B691344E7
:1045000003F5A0631A46082393607A68FB682C21A0
:1045100001FB03F31344613305221A707B681B68A7
:10452000FA68D2B21146184604F03BFE4CE0FB6834
:104530005A013B69134403F5A0639B6803F480634D
:10454000B3F5806F1BD1FB685A013B69134403F537
:10455000A0631A464FF4806393607A68FB682C214D
:1045600001FB03F31344613308221A707B681B6854
:10457000FA68D2B21146184604F013FE24E0FB6834
:104580005A013B69134403F5A0639B6803F0800361
:10459000802B19D1FB685A013B69134403F5A063D2
:1045A0001A46802393607A68FB682C2101FB03F391
:1045B0001344613306221A707B681B68FA68D2B212
:1045C0001146184604F0EDFDFB685A013B6913449F
:1045D00003F5A0639B6803F40073B3F5007F12D169
:1045E0007B681B68FA68D2B21146184604F0D9FD00
:1045F000FB685A013B69134403F5A0631A464FF464
:10460000007393604EE2FB685A013B69134403F563
:10461000A0639B6803F00103012B40F0DF807B68FF
:104620001B69002B19D07A68FB682C2101FB03F36E
:10463000134448331A68FB6859013B690B4403F57E
:10464000A0631B69C3F31203D21A7968FB682C209C
:1046500000FB03F30B4450331A607A68FB682C218B
:1046600001FB03F31344613301221A707A68FB687B
:104670002C2101FB03F313445C3300221A60FB6816
:104680005A013B69134403F5A0631A460123936062
:104690007A68FB682C2101FB03F313443F331B783A
:1046A000002B09D07A68FB682C2101FB03F313442B
:1046B0003F331B78022B11D17B681B68FA68D2B29A
:1046C0001146184604F06DFDFB685A013B6913441E
:1046D00003F5A0631A46102393603AE07A68FB68FA
:1046E0002C2101FB03F313443F331B78032B09D028
:1046F0007A68FB682C2101FB03F313443F331B78DA
:10470000012B26D1FB685A013B69134403F5A063D2
:104710001B68FA6851013A690A4402F5A06243F045
:10472000005313607A68FB682C2101FB03F31344E8
:10473000603301221A70FB68D9B27A68FB682C20BA
:1047400000FB03F3134460331B781A4678680EF0BD
:10475000D9FF7B681B69012B2BD17A68FB682C2160
:1047600001FB03F3134448331B687968FA682C2073
:1047700000FB02F20A4440321288B3FBF2F303F06A
:104780000103002B00F08E817A68FB682C2101FB6D
:1047900003F3134454331B7883F00103D8B27A68CF
:1047A000FB682C2101FB03F31344543302461A70B7
:1047B00078E17A68FB682C2101FB03F3134454333E
:1047C0001B7883F00103D8B27A68FB682C2101FBC7
:1047D00003F31344543302461A7063E1FB685A0131
:1047E0003B69134403F5A0639B6803F00203022BAB
:1047F00040F0F6807A68FB682C2101FB03F3134438
:1048000061331B78012B09D17A68FB682C2101FBED
:1048100003F31344603301221A70C9E07A68FB681D
:104820002C2101FB03F3134461331B78052B09D1C1
:104830007A68FB682C2101FB03F3134460330522E3
:104840001A70B5E07A68FB682C2101FB03F313446E
:1048500061331B78062B09D07A68FB682C2101FB99
:1048600003F3134461331B78082B50D17A68FB683B
:104870002C2101FB03F313445C331B685A1C796839
:10488000FB682C2000FB03F30B445C331A607A684E
:10489000FB682C2101FB03F313445C331B68022BE0
:1048A00012D97A68FB682C2101FB03F313445C33B3
:1048B00000221A607A68FB682C2101FB03F3134481
:1048C000603304221A7073E07A68FB682C2101FBC4
:1048D00003F31344603302221A70FB685A013B69E8
:1048E000134403F5A0631B68BB60BB6823F08043DF
:1048F000BB60BB6843F00043BB60FB685A013B6987
:10490000134403F5A0631A46BB68136050E07A684D
:10491000FB682C2101FB03F3134461331B78032B49
:1049200022D17A68FB682C2101FB03F31344603326
:1049300002221A70FB685A013B69134403F5A06315
:104940001B68BB60BB6823F08043BB60BB6843F05F
:104950000043BB60FB685A013B69134403F5A06345
:104960001A46BB68136023E07A68FB682C2101FBC0
:1049700003F3134461331B78072B19D17A68FB6862
:104980002C2101FB03F313445C331B685A1C796828
:10499000FB682C2000FB03F30B445C331A607A683D
:1049A000FB682C2101FB03F31344603304221A70CB
:1049B000FB685A013B69134403F5A0631A460223BE
:1049C0009360FB68D9B27A68FB682C2000FB03F384
:1049D000134460331B781A4678680EF093FE61E04A
:1049E000FB685A013B69134403F5A0639B6803F01D
:1049F0001003102B56D17A68FB682C2101FB03F3BE
:104A000013443F331B78032B11D17A68FB682C21A8
:104A100001FB03F313445C3300221A607B681B68BC
:104A2000FA68D2B21146184604F0BBFB31E07A684E
:104A3000FB682C2101FB03F313443F331B78002B4D
:104A400009D07A68FB682C2101FB03F313443F3340
:104A50001B78022B1DD17A68FB682C2101FB03F324
:104A600013445C3300221A607B681B69002B10D151
:104A70007A68FB682C2101FB03F3134461330322A2
:104A80001A707B681B68FA68D2B21146184604F0A7
:104A900088FBFB685A013B69134403F5A0631A467F
:104AA0001023936000BF1837BD4680BD80B588B025
:104AB00000AF78600B46FB707B681B68FB61FB698D
:104AC000BB61FB787B617B695A01BB69134403F5C9
:104AD000A0639B6803F00403042B1AD17B695A017D
:104AE000BB69134403F5A0631A46042393607A68F4
:104AF0007B692C2101FB03F31344613306221A70F6
:104B00007B681B687A69D2B21146184604F049FBEB
:104B100031E37B695A01BB69134403F5A0639B68C9
:104B200003F02003202B2ED17B695A01BB6913446B
:104B300003F5A0631A46202393607A687B692C21D1
:104B400001FB03F313443D331B78012B40F0138327
:104B50007A687B692C2101FB03F313443D33002267
:104B60001A707A687B692C2101FB03F313446033CC
:104B700002221A707B681B687A69D2B21146184605
:104B800004F00FFBF7E27B695A01BB69134403F59C
:104B9000A0639B6803F40073B3F5007F12D17B69B7
:104BA0005A01BB69134403F5A0631A464FF400731E
:104BB00093607B681B687A69D2B21146184604F08C
:104BC000F0FAD8E27B695A01BB69134403F5A0638C
:104BD0009B6803F00103012B40D17A687B692C218B
:104BE00001FB03F313445C3300221A607B695A0112
:104BF000BB69134403F5A0639B6803F04003402B9B
:104C000011D17A687B692C2101FB03F313443D33F6
:104C100001221A707B695A01BB69134403F5A06332
:104C20001A46402393607B695A01BB69134403F51C
:104C3000A0631A46012393607A687B692C2101FBEB
:104C400003F31344613301221A707B681B687A698D
:104C5000D2B21146184604F0A4FA8CE27B695A01DC
:104C6000BB69134403F5A0639B6803F04003402B2A
:104C70002CD17A687B692C2101FB03F31344613347
:104C800004221A707A687B692C2101FB03F3134418
:104C90003D3301221A707A687B692C2101FB03F3F2
:104CA00013445C3300221A607B681B687A69D2B2B5
:104CB0001146184604F075FA7B695A01BB69134422
:104CC00003F5A0631A464023936054E27B695A01BE
:104CD000BB69134403F5A0639B6803F00803082B2A
:104CE0001AD17B695A01BB69134403F5A0631A46C4
:104CF000082393607A687B692C2101FB03F313443A
:104D0000613305221A707B681B687A69D2B211463A
:104D1000184604F046FA2EE27B695A01BB69134437
:104D200003F5A0639B6803F01003102B40D17A6851
:104D30007B692C2101FB03F313445C3300221A60CE
:104D40007A687B692C2101FB03F31344613303224E
:104D50001A707A687B692C2101FB03F313443D33FD
:104D60001B78002B12D17A687B692C2101FB03F39D
:104D700013443C331B78002B08D17A687B692C21C3
:104D800001FB03F313443D3301221A707B681B6857
:104D90007A69D2B21146184604F003FA7B695A01C7
:104DA000BB69134403F5A0631A4610239360E2E144
:104DB0007B695A01BB69134403F5A0639B6803F048
:104DC0008003802B64D17B681B69002B11D17A682A
:104DD0007B692C2101FB03F31344613306221A7013
:104DE0007B681B687A69D2B21146184604F0D9F97B
:104DF00044E07A687B692C2101FB03F313445C33A4
:104E00001B685A1C79687B692C2000FB03F30B4458
:104E10005C331A607A687B692C2101FB03F313442D
:104E20005C331B68022B20D97A687B692C2101FB3B
:104E300003F313445C3300221A607A687B692C21E7
:104E400001FB03F31344603304221A707B69D9B267
:104E50007A687B692C2000FB03F3134460331B78D2
:104E60001A4678680EF04EFC08E07A687B692C21BF
:104E700001FB03F31344603302221A707B695A0169
:104E8000BB69134403F5A0631A468023936072E163
:104E90007B695A01BB69134403F5A0639B6803F463
:104EA0008063B3F5806F1BD17A687B692C2101FB8D
:104EB00003F31344613308221A707B681B687A6914
:104EC000D2B21146184604F06CF97B695A01BB69ED
:104ED000134403F5A0631A464FF4806393604AE1DC
:104EE0007B695A01BB69134403F5A0639B6803F017
:104EF0000203022B40F03F817A687B692C2101FB81
:104F000003F3134461331B78012B7DD17A687B69ED
:104F10002C2101FB03F31344603301221A707A68D9
:104F20007B692C2101FB03F313443F331B78022BD5
:104F30000AD07A687B692C2101FB03F313443F33C9
:104F40001B78032B40F000817B681B69002B13D179
:104F50007A687B692C2101FB03F3134455331B78DA
:104F600083F00103D8B27A687B692C2101FB03F33B
:104F70001344553302461A707B681B69012B40F0BD
:104F8000E3807A687B692C2101FB03F313444C33E3
:104F90001B68002B00F0D8807A687B692C2101FB0C
:104FA00003F313444C331B6879687A692C2000FBA7
:104FB00002F20A44403212881344013B79687A694C
:104FC0002C2000FB02F20A4440321288B3FBF2F3B9
:104FD000FB60FB6803F00103002B00F0B5807A68EA
:104FE0007B692C2101FB03F3134455331B7883F0B9
:104FF0000103D8B27A687B692C2101FB03F31344C7
:10500000553302461A709FE07A687B692C2101FBB8
:1050100003F3134461331B78032B09D17A687B694E
:105020002C2101FB03F31344603302221A708BE03E
:105030007A687B692C2101FB03F3134461331B78ED
:10504000042B09D17A687B692C2101FB03F31344FB
:10505000603302221A7077E07A687B692C2101FBA9
:1050600003F3134461331B78052B09D17A687B69FC
:105070002C2101FB03F31344603305221A7063E013
:105080007A687B692C2101FB03F3134461331B789D
:10509000062B09D07A687B692C2101FB03F31344AA
:1050A00061331B78082B4FD17A687B692C2101FB77
:1050B00003F313445C331B685A1C79687B692C200A
:1050C00000FB03F30B445C331A607A687B692C2184
:1050D00001FB03F313445C331B68022B12D97A687B
:1050E0007B692C2101FB03F313445C3300221A601B
:1050F0007A687B692C2101FB03F31344603304229B
:105100001A7021E07A687B692C2101FB03F31344B8
:10511000603302221A707B695A01BB69134403F59C
:10512000A0631B683B613B6923F080433B613B69A3
:1051300043F000433B617B695A01BB69134403F5AB
:10514000A0631A463B6913607B695A01BB6913442B
:1051500003F5A0631A46022393607B69D9B27A688B
:105160007B692C2000FB03F3134460331B781A4641
:1051700078680EF0C7FA00BF2037BD4680BD80B505
:105180008AB000AF78607B681B687B627B6A3B6299
:105190007B681B681B6AFB61FB6903F00F03BB6143
:1051A000FB695B0C03F00F037B61FB691B09C3F315
:1051B0000A033B617B69022B04D07B69052B00F05D
:1051C000A980AAE03B69002B00F0A6807A68BB6941
:1051D0002C2101FB03F3134444331B68002B00F024
:1051E0009B807A68BB692C2101FB03F31344503385
:1051F0001A683B691A447968BB692C2000FB03F3E9
:105200000B444C331B689A427AD87B6818687A68DA
:10521000BB692C2101FB03F3134444331B683A6937
:1052200092B2194603F014FB7A68BB692C2101FB8A
:1052300003F3134444331A683B691A447968BB6921
:105240002C2000FB03F30B4444331A607A68BB69DB
:105250002C2101FB03F3134450331A683B691A44B1
:105260007968BB692C2000FB03F30B4450331A60B0
:10527000BB695A013B6A134403F5A0631B69DB0C4D
:10528000C3F30903FB607A68BB692C2101FB03F3BC
:10529000134440331B881A463B6993423CD1FB6858
:1052A000002B39D0BB695A013B6A134403F5A06354
:1052B0001B68BB60BB6823F08043BB60BB6843F0E6
:1052C0000043BB60BB695A013B6A134403F5A0630A
:1052D0001A46BB6813607A68BB692C2101FB03F393
:1052E000134454331B7883F00103D8B27A68BB6946
:1052F0002C2101FB03F31344543302461A700BE0D4
:105300007A68BB692C2101FB03F313446033042248
:105310001A7001E000BF00E000BF00BF2837BD46A3
:1053200080BD80B586B000AF78607B681B687B610C
:105330007B693B613B6903F588631B68FB603B69E4
:1053400003F588631B68BB60BB6823F02E03BB605A
:10535000FB6803F00203022B0BD1FB6803F001038F
:10536000012B02D178680EF0B1F9BB6843F002035B
:10537000BB60FB6803F00803082B32D1BB6843F025
:105380000803BB60FB6803F00403042B26D17B6891
:105390009B69022B13D1FB6803F4C023B3F5802F64
:1053A00006D17B681B680221184603F0BFFB11E0A1
:1053B0007B681B680121184603F0B8FB0AE07B6894
:1053C000DB68012B06D13B6903F580631A464EF674
:1053D0006023536078680EF0A7F902E078680EF059
:1053E000B1F9FB6803F02003202B03D1BB6843F025
:1053F0002003BB603B6903F588631A46BB681360F2
:1054000000BF1837BD4680BD80B586B000AF78605C
:105410007B68002B01D1012367E27B681B6803F0E6
:105420000103002B75D0884B9B6803F00C03042B01
:105430000CD0854B9B6803F00C03082B12D1824BD8
:105440005B6803F48003B3F5800F0BD17E4B1B68C0
:1054500003F40033002B5BD07B685B68002B57D1D3
:10546000012342E27B685B68B3F5803F06D1764B4F
:105470001B68754A43F4803313601DE07B685B68EA
:10548000B3F5A02F0CD1704B1B686F4A43F48023F7
:1054900013606D4B1B686C4A43F4803313600BE060
:1054A000694B1B68684A23F480331360664B1B68A2
:1054B000654A23F4802313607B685B68002B13D05C
:1054C000FDF77CFA386108E0FDF778FA02463B699F
:1054D000D31A642B01D9032307E25B4B1B6803F447
:1054E0000033002BF0D014E0FDF768FA386108E0D3
:1054F000FDF764FA02463B69D31A642B01D90323F2
:10550000F3E1514B1B6803F40033002BF0D100E0B2
:1055100000BF7B681B6803F00203002B63D04A4B7B
:105520009B6803F00C03002B0BD0474B9B6803F0E8
:105530000C03082B1CD1444B5B6803F48003002B45
:1055400016D1414B1B6803F00203002B05D07B688A
:10555000DB68012B01D00123C7E13B4B1B6823F023
:10556000F8027B681B69DB00374913430B603AE0A4
:105570007B68DB68002B20D0344B01221A60FDF7DA
:105580001DFA386108E0FDF719FA02463B69D31AA3
:10559000022B01D90323A8E12B4B1B6803F0020364
:1055A000002BF0D0284B1B6823F0F8027B681B69A6
:1055B000DB00254913430B6015E0244B00221A60E1
:1055C000FDF7FCF9386108E0FDF7F8F902463B69A0
:1055D000D31A022B01D9032387E11B4B1B6803F06D
:1055E0000203002BF0D17B681B6803F00803002B3B
:1055F00036D07B685B69002B16D0154B01221A60F0
:10560000FDF7DCF9386108E0FDF7D8F902463B699F
:10561000D31A022B01D9032367E10B4B5B6F03F015
:105620000203002BF0D01BE0094B00221A60FDF7AB
:10563000C5F938610EE0FDF7C1F902463B69D31A9E
:10564000022B07D9032350E10038024000004742F3
:10565000800E4742884B5B6F03F00203002BEAD1B8
:105660007B681B6803F00403002B00F09780002385
:10567000FB75814B1B6C03F08053002B0FD1002373
:10568000BB607D4B1B6C7C4A43F0805313647A4BA8
:105690001B6C03F08053BB60BB680123FB75774B29
:1056A0001B6803F48073002B18D1744B1B68734A7A
:1056B00043F480731360FDF781F9386108E0FDF76A
:1056C0007DF902463B69D31A022B01D903230CE171
:1056D0006A4B1B6803F48073002BF0D07B689B68D7
:1056E000012B06D1644B1B6F634A43F00103136720
:1056F0001CE07B689B68052B0CD15F4B1B6F5E4ADF
:1057000043F0040313675C4B1B6F5B4A43F00103D8
:1057100013670BE0584B1B6F574A23F001031367C5
:10572000554B1B6F544A23F0040313677B689B6837
:10573000002B15D0FDF742F938610AE0FDF73EF97C
:1057400002463B69D31A41F28832934201D90323BE
:10575000CBE0494B1B6F03F00203002BEED014E0AB
:10576000FDF72CF938610AE0FDF728F902463B699C
:10577000D31A41F28832934201D90323B5E03E4B5C
:105780001B6F03F00203002BEED1FB7D012B05D133
:10579000394B1B6C384A23F0805313647B689B6938
:1057A000002B00F0A180344B9B6803F00C03082B06
:1057B0005CD07B689B69022B41D1314B00221A607F
:1057C000FDF7FCF8386108E0FDF7F8F802463B69A0
:1057D000D31A022B01D9032387E0274B1B6803F060
:1057E0000073002BF0D17B68DA697B681B6A1A436F
:1057F0007B685B6A9B011A437B689B6A5B08013B81
:105800001B041A437B68DB6A1B061B4913434B606E
:105810001B4B01221A60FDF7D1F8386108E0FDF753
:10582000CDF802463B69D31A022B01D903235CE071
:10583000114B1B6803F00073002BF0D054E0104BA9
:1058400000221A60FDF7BAF8386108E0FDF7B6F8F3
:1058500002463B69D31A022B01D9032345E0064BCC
:105860001B6803F00073002BF0D13DE07B689B695F
:10587000012B07D1012338E00038024000700040BE
:10588000600047421B4B5B68FB607B689B69012B98
:1058900028D0FB6803F480027B68DB699A4221D13F
:1058A000FB6803F03F027B681B6A9A421AD1FA68D0
:1058B00047F6C07313407A68526A9201934211D13D
:1058C000FB6803F440327B689B6A5B08013B1B0466
:1058D0009A4207D1FB6803F070627B68DB6A1B06A3
:1058E0009A4201D0012300E0002318461837BD4634
:1058F00080BD00BF0038024080B584B000AF786042
:1059000039607B68002B01D10123CCE0684B1B6818
:1059100003F007033A689A420CD9654B3A68D2B251
:105920001A70634B1B6803F007033A689A4201D070
:105930000123B8E07B681B6803F00203002B20D032
:105940007B681B6803F00403002B05D0594B9B6850
:10595000584A43F4E05393607B681B6803F00803E4
:10596000002B05D0534B9B68524A43F4604393602D
:10597000504B9B6823F0F0027B689B684D491343B2
:105980008B607B681B6803F00103002B44D07B68AD
:105990005B68012B07D1474B1B6803F40033002BD6
:1059A00019D101237FE07B685B68022B03D07B6801
:1059B0005B68032B07D13F4B1B6803F00073002B80
:1059C00009D101236FE03B4B1B6803F00203002B5E
:1059D00001D1012367E0374B9B6823F003027B680A
:1059E0005B68344913438B60FCF7E8FFF8600AE01A
:1059F000FCF7E4FF0246FB68D31A41F28832934277
:105A000001D903234FE02B4B9B6803F00C027B680A
:105A10005B689B009A42EBD1254B1B6803F00703A0
:105A20003A689A420CD2224B3A68D2B21A70204B92
:105A30001B6803F007033A689A4201D0012332E061
:105A40007B681B6803F00403002B08D0194B9B688C
:105A500023F4E0527B68DB68164913438B607B6854
:105A60001B6803F00803002B09D0124B9B6823F43A
:105A700060427B681B69DB000E4913438B6000F0BA
:105A800021F802460B4B9B681B0903F00F030A49E0
:105A9000CB5C22FA03F3094A1360094B1B681846D2
:105AA000FCF704FD002318461037BD4680BD00BF3B
:105AB000003C0240003802407068010834020020B7
:105AC000380200202DE9B04F90B000AF00237B6377
:105AD0000023FB6300233B630023BB63594B9B689C
