:020000040800F2
:10000000000001204D0B0008D90A0008DF0A000893
:10001000E50A0008EB0A0008F10A000800000000E9
:100020000000000000000000000000004144000843
:10003000F70A000800000000214600086946000891
:10004000950B0008950B0008950B0008950B000810
:10005000950B0008950B0008950B0008950B000800
:10006000950B0008950B0008950B0008950B0008F0
:10007000950B0008950B0008950B0008950B0008E0
:10008000950B0008950B0008950B0008950B0008D0
:10009000950B0008950B0008950B0008950B0008C0
:1000A000950B0008050B0008950B0008950B000840
:1000B000950B0008950B0008950B0008950B0008A0
:1000C000950B0008950B0008950B0008190B00080C
:1000D000950B00082D0B0008950B0008950B0008E8
:1000E000950B0008950B0008950B00080000000018
:1000F0000000000000000000000000000000000000
:100100000000000000000000950B0008950B00089F
:10011000950B0008950B0008950B0008950B00083F
:10012000950B0008950B0008950B0008950B00082F
:10013000950B0008950B0008950B0008950B00081F
:10014000950B0008950B0008950B0008950B00080F
:10015000000000000000000000000000000000009F
:10016000000000000000000000000000000000008F
:10017000000000000000000000000000000000007F
:10018000000000000000000000000000000000006F
:10019000000000000000000000000000000000005F
:1001A000000000000000000000000000000000004F
:1001B000000000000000000000000000000000003F
:1001C000000000000000000000000000000000002F
:1001D000000000000000000000000000000000001F
:0401E0005FF8E0F1F3
:1001F00010B5054C237833B9044B13B10448AFF361
:1002000000800123237010BD1000002000000000BA
:10021000F84A000808B5034B1BB103490348AFF384
:10022000008008BD0000000014000020F84A00080B
:1002300053B94AB9002908BF00281CBF4FF0FF314D
:100240004FF0FF3000F06EB9ADF1080C6DE904CE4F
:1002500000F006F8DDF804E0DDE9022304B07047A1
:100260002DE9F047089E0D4604468E46002B40F0CF
:1002700083808A42174647D9B2FA82F34BB1C3F161
:10028000200105FA03FE20FA01F19F4041EA0E0E1B
:100290009C404FEA1748BEFBF8FC1FFA87F908FBA1
:1002A0001CE20CFB09F0210C41EA024290420AD9FF
:1002B000BA180CF1FF3180F01881904240F215819C
:1002C000ACF1020C3A44121AB2FBF8F008FB10220F
:1002D00000FB09F1A4B244EA0244A14209D93C1945
:1002E00000F1FF3280F00381A14240F20081023828
:1002F0003C44641A002140EA0C401EB10022DC405C
:10030000C6E90042BDE8F08702B9FFDEB2FA82F327
:10031000002B4FD18D1A01214FEA124E1FFA82F89D
:10032000B5FBFEFC0EFB1C5508FB0CF0220C42EA50
:100330000545A84207D97D190CF1FF3202D2A84227
:1003400000F2E98094462D1AB5FBFEF00EFB105525
:1003500008FB00F8A4B244EA0544A04507D93C19BB
:1003600000F1FF3202D2A04500F2D9801046A4EB82
:10037000080440EA0C40C0E78B4208D9002E00F088
:10038000B1800021C6E900050846BDE8F087B3FA50
:1003900083F100294BD1AB4202D3824200F2B980F3
:1003A000841A65EB030301209E46002EAAD0C6E9FD
:1003B000004EA7E79F40C3F12002D1404FEA174EFD
:1003C000B1FBFEF01FFA87F80EFB101124FA02F2BF
:1003D0009D4000FB08FC2A43150C45EA0145AC454D
:1003E00004FA03F409D97D1900F1FF3180F08F8000
:1003F000AC4540F28C8002383D44A5EB0C05B5FBC2
:10040000FEF10EFB115C01FB08F995B245EA0C45C3
:10041000A94507D97D1901F1FF3274D2A94572D9D6
:1004200002393D44A5EB090541EA004178E7C1F1F5
:1004300020078B4022FA07FC4CEA030C25FA07F44C
:100440004FEA1C4EB4FBFEF91FFA8CF80EFB194460
:1004500020FA07F309FB08FA8D401D432B0C43EAF1
:100460000444A24502FA01F200FA01F309D91CEB97
:10047000040409F1FF3048D2A24546D9A9F1020986
:100480006444A4EB0A04B4FBFEF00EFB104400FB32
:1004900008FAADB245EA0444A24508D91CEB0404AD
:1004A00000F1FF352DD2A2452BD90238644440EA31
:1004B0000940A0FB0289A4EB0A044C45C6464D4600
:1004C00019D316D05EB1B3EB0E0264EB050404FA47
:1004D00007F722FA01F31F43CC40C6E9007400215C
:1004E000BDE8F087314630460CE78C46EBE6104617
:1004F000FFE64345E6D2B8EB020E69EB0C05013886
:10050000E0E72846D3E711468CE78146B9E708467D
:1005100073E7084649E7ACF1020C3D4413E70238A3
:100520003C4424E7704700BF80B485B000AFF8605A
:10053000B9607A60FB68064A1A60BB68054A1A60AF
:100540007B6880221A6000BF1437BD4680BC7047AC
:100550002C00002080000020B0B588B000AF00F073
:100560001BFB00F01FF800F0CBF800F069F800F07A
:100570009DF80A4B3C1D1D460FCD0FC495E80700A2
:1005800084E807003B1D0021184603F0CDF8034620
:10059000034A136003F0C1F8FEE700BF1C4B0008DC
:1005A000CC13002080B594B000AF07F118033822B7
:1005B0000021184604F098FA3B1D00221A605A6088
:1005C0009A60DA601A610123BB614FF480333B62A9
:1005D00001237B620123FB620023FB610223BB63D7
:1005E0004FF48033FB634FF480133B6400237B6440
:1005F00007F11803184600F085FE0346002B01D0D2
:1006000000F020F90F237B600223BB600023FB6016
:1006100000233B6100237B613B1D0121184601F053
:1006200087F90346002B01D000F00CF9034B01229F
:100630001A6000BF5037BD4680BD00BF7000424207
:1006400080B500AF174B184A1A60164B4FF48272F0
:100650005A60144B00229A60124B0022DA60114B50
:1006600000221A610F4B00225A610E4B4FF40072A8
:100670009A610C4B0022DA610A4B00221A62094B84
:1006800000225A62074B00229A62064B0A22DA6263
:10069000044801F073FB0346002B01D000F0D2F8B0
:1006A00000BF80BD101400200030014080B500AFB5
:1006B000114B124A1A60104B4FF4E1325A600E4B44
:1006C00000229A600C4B0022DA600B4B00221A6168
:1006D000094B0C225A61084B00229A61064B0022FA
:1006E000DA61054802F016FC0346002B01D000F049
:1006F000A9F800BF80BD00BFD01300200038014022
:1007000080B588B000AF07F1100300221A605A606C
:100710009A60DA60244B9B69234A43F0200393617B
:10072000214B9B6903F02003FB60FB681E4B9B6918
:100730001D4A43F0040393611B4B9B6903F00403C0
:10074000BB60BB68184B9B69174A43F01003936169
:10075000154B9B6903F010037B607B68124B9B6910
:10076000114A43F0080393610F4B9B6903F00803A0
:100770003B603B6800224FF480610C4800F0AAFD0A
:100780004FF480633B6101237B610023BB61012344
:10079000FB6107F110031946044800F017FC00BF85
:1007A0002037BD4680BD00BF001002400010014050
:1007B00080B584B000AF78609F23FB7301224FF4B3
:1007C0008061144800F086FD00224FF480611148DA
:1007D00000F080FD07F10F01C82301220E4801F04F
:1007E00051FB07F10801C82304220B4801F086FCE5
:1007F00007F1080164230422084802F0D8FB012213
:100800004FF48061034800F065FD4FF4FA6002F098
:10081000D7FFD9E70010014010140020D0130020AA
:1008200080B582B000AF78607B681B68044A934251
:1008300001D100F0C7F900BF0837BD4680BD00BF39
:10084000002C014080B400AF72B600BFFEE700008C
:1008500080B584B000AF184B9B69174A43F0010381
:100860009361154B9B6903F00103BB60BB68124B9E
:10087000DB69114A43F08053D3610F4BDB6903F00E
:1008800080537B607B6800220F216FF0010000F035
:100890006AFA0A4B5B68FB60FB6823F0E063FB606D
:1008A000FB6843F00073FB60044AFB68536000BFC1
:1008B0001037BD4680BD00BF00100240000001405F
:1008C00080B58AB000AF786007F1140300221A6087
:1008D0005A609A60DA607B681B68264A934245D169
:1008E000254B9B69244A43F480539361224B9B69B7
:1008F00003F480533B613B691F4B9B691E4A43F0E5
:10090000080393611C4B9B6903F00803FB60FB68C1
:1009100028237B610223BB6103233B6207F114039D
:100920001946164800F052FB10237B610023BB617F
:100930000023FB6107F114031946104800F046FB41
:100940000F4B5B687B627B6A43F0E0637B627B6A90
:1009500043F001037B620A4A7B6A5360002205214F
:10096000232000F000FA232000F019FA00BF2837F6
:10097000BD4680BD0030014000100240000C014027
:100980000000014080B588B000AF786007F1100327
:1009900000221A605A609A60DA607B681B68204AFD
:1009A000934239D11F4B9B691E4A43F480439361A4
:1009B0001C4B9B6903F48043FB60FB68194B9B69EC
:1009C000184A43F004039361164B9B6903F0040338
:1009D000BB60BB684FF400733B6102237B61032360
:1009E000FB6107F1100319460F4800F0EFFA4FF4CE
:1009F00080633B6100237B610023BB6107F110032F
:100A00001946094800F0E2FA00220521252000F0ED
:100A1000AAF9252000F0C3F900BF2037BD4680BDEC
:100A200000380140001002400008014080B58CB041
:100A300000AF78600023FB620023BB62002279686C
:100A4000192000F090F9192000F0A9F91E4B9B69BC
:100A50001D4A43F4006393611B4B9B6903F40063DD
:100A6000FB60FB6807F1100207F1140311461846FA
:100A700001F036F901F020F9F862FB6A134AA2FB93
:100A800003239B0C013BBB62114B124A1A60104BB3
:100A900040F2E732DA600E4ABB6A53600C4B002228
:100AA0001A610B4B00229A60094801F0D7FF0346F8
:100AB000002B04D1064802F029F8034600E0012388
:100AC00018463037BD4680BD0010024083DE1B4310
:100AD00068140020002C014080B400AFFEE780B411
:100AE00000AFFEE780B400AFFEE780B400AFFEE7E2
:100AF00080B400AFFEE780B400AF00BFBD4680BC4D
:100B00007047000080B500AF024802F059F800BFFE
:100B100080BD00BF6814002080B500AF024801F01E
:100B2000A1FD00BF80BD00BF1014002080B500AF44
:100B3000024802F0CFFA00BF80BD00BFD0130020F2
:100B400080B400AF00BFBD4680BC7047002103E009
:100B50000B4B5B58435004310A480B4B42189A42E6
:100B6000F6D30A4A02E0002342F8043B084B9A42BB
:100B7000F9D3FFF7E5FF03F093FFFFF7EDFC7047B4
:100B8000884B00080000002010000020100000200A
:100B9000B4140020FEE7000080B500AF084B1B68CE
:100BA000074A43F010031360032000F0D1F800203F
:100BB000FFF73CFFFFF74CFE0023184680BD00BF47
:100BC0000020024080B400AF054B1B781A46054B4D
:100BD0001B681344034A136000BFBD4680BC7047C6
:100BE00008000020B014002080B400AF024B1B6846
:100BF0001846BD4680BC7047B014002080B485B054
:100C000000AF78607B6803F00703FB600C4BDB6888
:100C1000BB60BA684FF6FF031340BB60FB681A0263
:100C2000BB68134343F0BF6343F40033BB60044A23
:100C3000BB68D36000BF1437BD4680BC704700BF9F
:100C400000ED00E080B400AF044BDB681B0A03F04A
:100C500007031846BD4680BC704700BF00ED00E0AA
:100C600080B483B000AF0346FB7197F90730002BC7
:100C70000BDBFB7903F01F02064997F907305B098C
:100C8000012000FA02F241F8232000BF0C37BD46D4
:100C900080BC704700E100E080B483B000AF034641
:100CA0003960FB7197F90730002B0ADB3B68DAB239
:100CB0000C4997F907301201D2B20B4483F8002394
:100CC0000AE03B68DAB20849FB7903F00F03043B02
:100CD0001201D2B20B441A7600BF0C37BD4680BC5D
:100CE000704700BF00E100E000ED00E080B489B093
:100CF00000AFF860B9607A60FB6803F00703FB613E
:100D0000FB69C3F10703042B28BF0423BB61FB6904
:100D10000433062B02D9FB69033B00E000237B610F
:100D20004FF0FF32BB6902FA03F3DA43BB681A40A3
:100D30007B699A404FF0FF317B6901FA03F3D94395
:100D40007B680B40134318462437BD4680BC704770
:100D500080B582B000AF78607868FFF74FFF00BFC2
:100D60000837BD4680BD80B586B000AF0346B96088
:100D70007A60FB7300237B61FFF764FF78617A6818
:100D8000B9687869FFF7B2FF024697F90F3011464C
:100D90001846FFF781FF00BF1837BD4680BD80B5FC
:100DA00082B000AF0346FB7197F907301846FFF792
:100DB00057FF00BF0837BD4680BD000080B584B036
:100DC00000AF78600023FB737B6893F82130022B1F
:100DD00005D07B6804229A630123FB73D6E07B680D
:100DE0001B681A687B681B6822F00E021A607B6819
:100DF0001B681A687B681B6822F001021A607B6816
:100E00001B681A46644B9A4258D97B681B68634A30
:100E100093424FD07B681B68614A934248D07B68FD
:100E20001B68604A934240D07B681B685E4A9342CD
:100E300038D07B681B685D4A934230D07B681B6862
:100E40005B4A934228D07B681B68534A934220D068
:100E50007B681B68574A934219D07B681B68564AC7
:100E6000934212D07B681B68544A93420AD07B6835
:100E70001B68534A934202D14FF480531BE04FF456
:100E8000803318E04FF4807315E0102313E0012342
:100E900011E04FF080730EE04FF480130BE04FF43D
:100EA000803308E04FF4805305E04FF4807302E094
:100EB000102300E00123434A536057E07B681B681E
:100EC000364A93424FD07B681B68354A934248D0DC
:100ED0007B681B68334A934240D07B681B68324A68
:100EE000934238D07B681B68304A934230D07B688D
:100EF0001B682F4A934228D07B681B68264A93427E
:100F000020D07B681B682B4A934219D07B681B68F2
:100F1000294A934212D07B681B68284A93420AD020
:100F20007B681B68264A934202D14FF480531BE032
:100F30004FF4803318E04FF4807315E0102313E072
:100F4000012311E04FF080730EE04FF480130BE0AB
:100F50004FF4803308E04FF4805305E04FF4807382
:100F600002E0102300E00123174A53607B6801224E
:100F700083F821207B68002283F820207B685B6B4C
:100F8000002B03D07B685B6B78689847FB7B184627
:100F90001037BD4680BD00BF8000024008000240FF
:100FA0001C00024030000240440002405800024051
:100FB0006C000240080402401C040240300402405D
:100FC00044040240000402400000024080B48BB0A0
:100FD00000AF7860396000237B6200233B6269E1E7
:100FE00001227B6A02FA03F3FB613B681B68FA6922
:100FF0001340BB61BA69FB699A4240F058813B6873
:101000005B689A4A93425ED0984A934275D8984A50
:10101000934258D0964A93426FD8964A934252D000
:10102000944A934269D8944A93424CD0924A93424C
:1010300063D8924A934246D0904A93425DD8122B8D
:101040002AD8122B59D801A252F823F0C710000851
:10105000A1100008B3100008F5100008FB100008EC
:10106000FB100008FB100008FB100008FB10000834
:10107000FB100008FB100008FB100008FB10000824
:10108000FB100008FB100008FB100008FB10000814
:10109000A9100008BD100008794A934213D02CE033
:1010A0003B68DB683B6229E03B68DB6804333B62FA
:1010B00024E03B68DB6808333B621FE03B68DB6889
:1010C0000C333B621AE03B689B68002B02D104237F
:1010D0003B6213E03B689B68012B05D108233B6210
:1010E0007B68FA691A6109E008233B627B68FA6948
:1010F0005A6103E000233B6200E000BFBB69FF2BA5
:1011000001D87B6801E07B6804337B61BB69FF2BFE
:1011100002D87B6A9B0002E07B6A083B9B003B6134
:101120007B691A680F213B6901FA03F3DB431A401C
:10113000396A3B6901FA03F31A437B691A603B6819
:101140005B6803F08053002B00F0B1804D4B9B692E
:101150004C4A43F0010393614A4B9B6903F001033E
:10116000BB60BB68484A7B6A9B08023352F8233055
:10117000FB607B6A03F003039B000F2202FA03F378
:10118000DB43FA681340FB607B68404A934213D00C
:101190007B683F4A93420DD07B683E4A934207D01A
:1011A0007B683D4A934201D1032306E0042304E017
:1011B000022302E0012300E000237A6A02F0030226
:1011C00092009340FA681343FB602F497B6A9B08A7
:1011D0000233FA6841F823203B685B6803F48033EC
:1011E000002B06D02D4B1A682C49BB6913430B60AA
:1011F00006E02A4B1A68BB69DB43284913400B60A1
:101200003B685B6803F40033002B06D0234B5A681D
:101210002249BB6913434B6006E0204B5A68BB6907
:10122000DB431E4913404B603B685B6803F480134B
:10123000002B06D0194B9A681849BB6913438B6081
:1012400006E0164B9A68BB69DB43144913408B6078
:101250003B685B6803F40013002B21D00F4BDA6866
:101260000E49BB691343CB6021E000BF0000321080
:1012700000003110000022100000211000001210A8
:101280000000111000100240000001400008014061
:10129000000C014000100140001401400004014016
:1012A0000B4BDA68BB69DB4309491340CB607B6AAF
:1012B00001337B623B681A687B6A22FA03F3002BD6
:1012C0007FF48EAE00BF00BF2C37BD4680BC704798
:1012D0000004014080B483B000AF78600B467B808F
:1012E00013467B707B78002B03D07A887B681A6169
:1012F00003E07B881A047B681A6100BF0C37BD4687
:1013000080BC704780B586B000AF78607B68002BEA
:1013100001D1012304E37B681B6803F00103002B68
:1013200000F08780924B5B6803F00C03042B0CD019
:101330008F4B5B6803F00C03082B12D18C4B5B685E
:1013400003F48033B3F5803F0BD1894B1B6803F462
:101350000033002B6CD07B689B68002B68D1012385
:10136000DEE27B689B68B3F5803F06D1804B1B684B
:101370007F4A43F4803313602EE07B689B68002B28
:101380000CD17B4B1B687A4A23F480331360784B73
:101390001B68774A23F4802313601DE07B689B68F9
:1013A000B3F5A02F0CD1724B1B68714A43F4802314
:1013B00013606F4B1B686E4A43F4803313600BE07D
:1013C0006B4B1B686A4A23F480331360684B1B68BD
:1013D000674A23F4802313607B689B68002B13D03B
:1013E000FFF702FC386108E0FFF7FEFB02463B69AD
:1013F000D31A642B01D9032392E25D4B1B6803F4DB
:101400000033002BF0D014E0FFF7EEFB386108E06A
:10141000FFF7EAFB02463B69D31A642B01D9032389
:101420007EE2534B1B6803F40033002BF0D100E045
:1014300000BF7B681B6803F00203002B63D04C4B9A
:101440005B6803F00C03002B0BD0494B5B6803F087
:101450000C03082B1CD1464B5B6803F48033002B34
:1014600016D1434B1B6803F00203002B05D07B68A9
:101470005B69012B01D0012352E23D4B1B6823F035
:10148000F8027B689B69DB00394913430B603AE043
:101490007B685B69002B20D0364B01221A60FFF776
:1014A000A3FB386108E0FFF79FFB02463B69D31AB4
:1014B000022B01D9032333E22D4B1B6803F00203F7
:1014C000002BF0D02A4B1B6823F0F8027B689B6945
:1014D000DB00274913430B6015E0264B00221A60FE
:1014E000FFF782FB386108E0FFF77EFB02463B69AD
:1014F000D31A022B01D9032312E21D4B1B6803F000
:101500000203002BF0D17B681B6803F00803002B5B
:101510003AD07B68DB69002B19D0174B01221A6087
:10152000FFF762FB386108E0FFF75EFB02463B69AC
:10153000D31A022B01D90323F2E10D4B5B6A03F0AE
:101540000203002BF0D0012000F0FAFB1CE00A4B54
:1015500000221A60FFF748FB38610FE0FFF744FBF9
:1015600002463B69D31A022B08D90323D8E100BFF6
:101570000010024000004242800442429B4B5B6AE2
:1015800003F00203002BE9D17B681B6803F004031E
:10159000002B00F0A6800023FB75944BDB6903F061
:1015A0008053002B0DD1914BDB69904A43F080535F
:1015B000D3618E4BDB6903F08053BB60BB680123B2
:1015C000FB758B4B1B6803F48073002B18D1884B81
:1015D0001B68874A43F480731360FFF705FB38618B
:1015E00008E0FFF701FB02463B69D31A642B01D9DF
:1015F000032395E17E4B1B6803F48073002BF0D02E
:101600007B681B69012B06D1784B1B6A774A43F034
:10161000010313622DE07B681B69002B0CD1734B17
:101620001B6A724A23F001031362704B1B6A6F4AF4
:1016300023F0040313621CE07B681B69052B0CD1AB
:101640006A4B1B6A694A43F004031362674B1B6AC7
:10165000664A43F0010313620BE0644B1B6A634A62
:1016600023F001031362614B1B6A604A23F00403F9
:1016700013627B681B69002B15D0FFF7B5FA386140
:101680000AE0FFF7B1FA02463B69D31A41F2883209
:10169000934201D9032343E1544B1B6A03F0020335
:1016A000002BEED014E0FFF79FFA38610AE0FFF755
:1016B0009BFA02463B69D31A41F28832934201D920
:1016C00003232DE1494B1B6A03F00203002BEED1EB
:1016D000FB7D012B05D1454BDB69444A23F0805348
:1016E000D3617B68DB6A002B00F08C803F4B5B682A
:1016F00003F48033B3F5803F0ED13C4B5B6803F0BD
:101700000C03082B08D1394BDB6A03F48033B3F5A3
:10171000803F01D1012303E17B68DB6A022B4ED1BC
:10172000324B1B6803F08053002B09D02F4BDB6A30
:1017300003F0F0027B685B6B9A4201D00123EFE07B
:101740002C4B00221A60FFF74FFA386108E0FFF7D0
:101750004BFA02463B69D31A642B01D90323DFE01D
:10176000224B1B6803F00063002BF0D11F4BDB6A98
:1017700023F0F0027B685B6B1C491343CB621B4B6D
:10178000DB6A23F470627B681B6B18491343CB62DE
:10179000184B01221A60FFF727FA386108E0FFF7BB
:1017A00023FA02463B69D31A642B01D90323B7E01D
:1017B0000E4B1B6803F00063002BF0D022E00B4BB4
:1017C000DB6A0A4A23F48033D3620A4B00221A6090
:1017D000FFF70AFA38610FE0FFF706FA02463B69A5
:1017E000D31A642B08D903239AE000BF00100240EB
:1017F00000700040680042424B4B1B6803F00063DE
:10180000002BE9D17B681B6A002B00F08880464BD7
:101810005B6803F00C03082B68D07B681B6A022B03
:101820004DD1424B00221A60FFF7DEF9386108E023
:10183000FFF7DAF902463B69D31A022B01D90323D9
:101840006EE0394B1B6803F00073002BF0D17B680E
:101850005B6AB3F5803F0FD1334BDA6A7B685B6814
:1018600031491343CB62304BDB6A23F00F027B68B4
:10187000DB682D491343CB622B4B5B6823F4741256
:101880007B68596A7B689B6A0B43274913434B600B
:10189000264B01221A60FFF7A7F9386108E0FFF72D
:1018A000A3F902463B69D31A022B01D9032337E07F
:1018B0001D4B1B6803F00073002BF0D02FE01B4B77
:1018C00000221A60FFF790F9386108E0FFF78CF901
:1018D00002463B69D31A022B01D9032320E0124BA5
:1018E0001B6803F00073002BF0D118E07B681B6AC3
:1018F000012B01D1012313E00B4B5B68FB60FB68FC
:1019000003F480327B685B6A9A4206D1FB6803F479
:1019100070127B689B6A9A4201D0012300E0002389
:1019200018461837BD4680BD001002406000424294
:1019300080B584B000AF786039607B68002B01D13E
:101940000123D0E06A4B1B6803F007033A689A4210
:1019500010D9674B1B6823F0070265493B681343A6
:101960000B60634B1B6803F007033A689A4201D08F
:101970000123B8E07B681B6803F00203002B20D032
:101980007B681B6803F00403002B05D0594B5B6890
:10199000584A43F4E06353607B681B6803F0080314
:1019A000002B05D0534B5B68524A43F4605353609D
:1019B000504B5B6823F0F0027B689B684D491343F2
:1019C0004B607B681B6803F00103002B40D07B68F1
:1019D0005B68012B07D1474B1B6803F40033002BD6
:1019E00015D101237FE07B685B68022B07D1414B57
:1019F0001B6803F00073002B09D1012373E03D4BFA
:101A00001B6803F00203002B01D101236BE0394B6B
:101A10005B6823F003027B685B68364913434B60C5
:101A2000FFF7E2F8F8600AE0FFF7DEF80246FB682D
:101A3000D31A41F28832934201D9032353E02D4B4C
:101A40005B6803F00C027B685B689B009A42EBD1F9
:101A5000274B1B6803F007033A689A4210D2244BC5
:101A60001B6823F0070222493B6813430B60204B9D
:101A70001B6803F007033A689A4201D0012332E061
:101A80007B681B6803F00403002B08D0194B5B68CC
:101A900023F4E0627B68DB68164913434B607B6884
:101AA0001B6803F00803002B09D0124B5B6823F47A
:101AB00060527B681B69DB000E4913434B6000F0EA
:101AC00021F802460B4B5B681B0903F00F030A4920
:101AD000CB5C22FA03F3094A1360094B1B681846D2
:101AE000FEF7A4FF002318461037BD4680BD00BF97
:101AF0000020024000100240604B0008000000205F
:101B000004000020F0B591B000AF564B07F114046B
:101B10000FCB07C42380544B3C1D0FCB84E80F0030
:101B200000237B6300233B630023FB630023FB62F2
:101B30000023BB630023BB6200237B624B4B5B68CB
:101B40007B637B6B03F00C03042B02D0082B03D0C8
:101B500080E0474BBB6380E07B6B9B0C03F00F0383
:101B600007F14002134413F82C3CFB627B6B03F437
:101B70008033002B66D03D4BDB6A03F00F0307F187
:101B80004002134413F83C3C3B63384BDB6A03F4DC
:101B90008033002B44D0354BDB6A1B0903F00F0365
:101BA0000133BB62314BDB6A1B0A03F00F030233C4
:101BB0007B627B6A18464FF00001FB6A1A464FF0C1
:101BC000000302FB01F500FB03F42C44A0FB0223FD
:101BD000E1180B46264901FB03F0002101FB02F14D
:101BE00001442348A2FB00454B191D46BB6A184619
:101BF0004FF000013B6B1A464FF0000302FB01FC63
:101C000000FB03F66644A0FB0223F1180B462046B6
:101C10002946FEF70DFB02460B461346FB6307E021
:101C2000FB6A134A02FB03F23B6BB2FBF3F3FB6369
:101C300097F821301A46FB6A934208D1FB6B5B0888
:101C4000FB6304E0FB6A0B4A02FB03F3FB63FB6BE1
:101C5000BB6302E0084BBB6300BFBB6B1846443755
:101C6000BD46F0BD384B0008484B0008001002404C
:101C70008096980000093D0000127A0080B400AF01
:101C8000024B1B681846BD4680BC70470000002010
:101C900080B500AFFFF7F2FF0246054B5B681B0AF9
:101CA00003F007030349CB5C22FA03F3184680BD17
:101CB00000100240704B000880B500AFFFF7DEFF58
:101CC0000246054B5B68DB0A03F007030349CB5C64
:101CD00022FA03F3184680BD00100240704B000842
:101CE00080B483B000AF786039607B680F221A60DF
:101CF000114B5B6803F003027B685A600E4B5B6814
:101D000003F0F0027B689A600B4B5B6803F4E062BF
:101D10007B68DA60084B5B68DB0803F4E0627B6891
:101D20001A61064B1B6803F007023B681A6000BF8C
:101D30000C37BD4680BC70470010024000200240B6
:101D400080B485B000AF78600A4B1B680A4AA2FBDA
:101D500003235B0A7A6802FB03F3FB6000BFFB68A6
:101D60005A1EFA60002BF9D100BF00BF1437BD46E0
:101D700080BC704700000020D34D621080B582B057
:101D800000AF78607B68002B01D1012376E07B688F
:101D90005B6A002B08D17B685B68B3F5827F09D052
:101DA0007B680022DA6105E07B6800221A617B68AB
:101DB00000225A617B6800229A627B6893F8513056
:101DC000DBB2002B06D17B68002283F850207868B4
:101DD000FEF776FD7B68022283F851207B681B6842
:101DE0001A687B681B6822F040021A607B685B6897
:101DF00003F482727B689B6803F404431A437B6894
:101E0000DB6803F400631A437B681B6903F0020379
:101E10001A437B685B6903F001031A437B689B6983
:101E200003F400731A437B68DB6903F038031A4339
:101E30007B681B6A03F0800342EA03017B689B6AAC
:101E400003F400527B681B680A431A607B689B6935
:101E50001A0C7B681B6802F004025A607B681B68DE
:101E6000DA697B681B6822F40062DA617B68002211
:101E70005A657B68012283F85120002318460837F1
:101E8000BD4680BD80B588B000AFF860B9603B60EA
:101E90001346FB800023FB77FB6893F85030012B3F
:101EA00001D1022326E1FB68012283F85020FEF7CE
:101EB0009BFEB861FB88FB82FB6893F85130DBB274
:101EC000012B02D00223FB770BE1BB68002B02D071
:101ED000FB88002B02D10123FB7702E1FB68032280
:101EE00083F85120FB6800225A65FB68BA681A63C0
:101EF000FB68FA889A86FB68FA88DA86FB68002213
:101F00009A63FB6800229A87FB680022DA87FB68E5
:101F100000225A64FB6800221A64FB689B68B3F5D0
:101F2000004F0FD1FB681B681A68FB681B6822F022
:101F300040021A60FB681B681A68FB681B6842F461
:101F400080421A60FB681B681B6803F04003402B4B
:101F500007D0FB681B681A68FB681B6842F04002E8
:101F60001A60FB68DB68B3F5006F4BD1FB685B68F8
:101F7000002B02D0FB8A012B3ED1FB681B6B1A8819
:101F8000FB681B68DA60FB681B6B9A1CFB681A63B2
:101F9000FB68DB8E9BB2013B9AB2FB68DA862BE0D2
:101FA000FB681B689B6803F00203022B12D1FB68DD
:101FB0001B6B1A88FB681B68DA60FB681B6B9A1C3A
:101FC000FB681A63FB68DB8E9BB2013B9AB2FB682D
:101FD000DA8611E0FEF708FE0246BB69D31A3A68BA
:101FE0009A4203D83B68B3F1FF3F02D13B68002B14
:101FF00002D10323FB7774E0FB68DB8E9BB2002BDE
:10200000CED14CE0FB685B68002B02D0FB8A012B31
:1020100040D1FB681A6BFB681B680C3312781A708E
:10202000FB681B6B5A1CFB681A63FB68DB8E9BB258
:10203000013B9AB2FB68DA862CE0FB681B689B6860
:1020400003F00203022B13D1FB681A6BFB681B68B9
:102050000C3312781A70FB681B6B5A1CFB681A63EE
:10206000FB68DB8E9BB2013B9AB2FB68DA8611E01B
:10207000FEF7BAFD0246BB69D31A3A689A4203D802
:102080003B68B3F1FF3F02D13B68002B02D1032331
:10209000FB7726E0FB68DB8E9BB2002BCDD1BA69C3
:1020A0003968F86800F0BCFC0346002B02D0FB68DE
:1020B00020225A65FB689B68002B0AD100233B61F4
:1020C000FB681B68DB683B61FB681B689B683B61C6
:1020D0003B69FB685B6D002B02D00123FB7700E0BE
:1020E00000BFFB68012283F85120FB68002283F8BF
:1020F0005020FB7F18462037BD4680BD80B588B094
:1021000002AFF860B9603B601346FB800023FB75AB
:10211000FB685B68B3F5827F12D1FB689B68002B7C
:102120000ED1FB68042283F85120FA883B680093A3
:102130001346BA68B968F86800F0F1F80346EAE0B7
:10214000FB6893F85030012B01D10223E3E0FB68D8
:10215000012283F85020FEF747FD3861FB6893F8B1
:102160005130DBB2012B02D00223FB75CAE0BB6801
:10217000002B02D0FB88002B02D10123FB75C1E0AC
:10218000FB68042283F85120FB6800225A65FB6833
:10219000BA689A63FB68FA889A87FB68FA88DA87D4
:1021A000FB6800221A63FB6800229A86FB68002203
:1021B000DA86FB6800221A64FB6800225A64FB6816
:1021C0009B68B3F5004F0FD1FB681B681A68FB686A
:1021D0001B6822F040021A60FB681B681A68FB68E3
:1021E0001B6822F480421A60FB681B681B6803F0BE
:1021F0004003402B07D0FB681B681A68FB681B680C
:1022000042F040021A60FB68DB68002B62D12EE0CE
:10221000FB681B689B6803F00103012B15D1FB6869
:102220001B6803F10C02FB689B6B1278D2B21A7028
:10223000FB689B6B5A1CFB689A63FB68DB8F9BB245
:10224000013B9AB2FB68DA8711E0FEF7CDFC02464B
:102250003B69D31A3A689A4203D83B68B3F1FF3F0F
:1022600002D13B68002B02D10323FB754AE0FB68D7
:10227000DB8F9BB2002BCBD131E0FB681B689B68E6
:1022800003F00103012B13D1FB681B68DA68FB68BC
:102290009B6B92B21A80FB689B6B9A1CFB689A63DB
:1022A000FB68DB8F9BB2013B9AB2FB68DA8711E0D7
:1022B000FEF79AFC02463B69D31A3A689A4203D861
:1022C0003B68B3F1FF3F02D13B68002B02D10323EF
:1022D000FB7517E0FB68DB8F9BB2002BCDD13A6911
:1022E0003968F86800F04AFB0346002B02D0FB680F
:1022F00020225A65FB685B6D002B02D00123FB7521
:1023000000E000BFFB68012283F85120FB68002237
:1023100083F85020FB7D18461837BD4680BD80B538
:102320008CB000AFF860B9607A607B800123FB62FB
:10233000002387F82B30FB6893F85030012B01D134
:1023400002238AE1FB68012283F85020FEF74CFC4F
:102350007862FB6893F8513087F82330FB685B683C
:10236000FB617B887B8397F82330012B0FD0FB69BF
:10237000B3F5827F07D1FB689B68002B03D197F8E8
:102380002330042B03D0022387F82B305BE1BB689A
:10239000002B05D07B68002B02D07B88002B03D15B
:1023A000012387F82B304EE1FB6893F85130DBB204
:1023B000042B03D0FB68052283F85120FB68002220
:1023C0005A65FB687A689A63FB687A88DA87FB68E3
:1023D0007A889A87FB68BA681A63FB687A88DA8613
:1023E000FB687A889A86FB6800221A64FB680022E0
:1023F0005A64FB681B681B6803F04003402B07D03E
:10240000FB681B681A68FB681B6842F040021A6090
:10241000FB68DB68B3F5006F78D1FB685B68002B65
:1024200002D07B8B012B66D1FB681B6B1A88FB6883
:102430001B68DA60FB681B6B9A1CFB681A63FB68FD
:10244000DB8E9BB2013B9AB2FB68DA8653E0FB68F5
:102450001B689B6803F00203022B1BD1FB68DB8E19
:102460009BB2002B16D0FB6A012B13D1FB681B6BB0
:102470001A88FB681B68DA60FB681B6B9A1CFB6898
:102480001A63FB68DB8E9BB2013B9AB2FB68DA866B
:102490000023FB62FB681B689B6803F00103012BB0
:1024A00019D1FB68DB8F9BB2002B14D0FB681B6833
:1024B000DA68FB689B6B92B21A80FB689B6B9A1C74
:1024C000FB689A63FB68DB8F9BB2013B9AB2FB68A7
:1024D000DA870123FB62FEF787FB02467B6AD31A89
:1024E000BA6B9A4207D8BB6BB3F1FF3F03D003230B
:1024F00087F82B30A7E0FB68DB8E9BB2002BA6D1C0
:10250000FB68DB8F9BB2002BA1D17CE0FB685B6892
:10251000002B02D07B8B012B6BD1FB681A6BFB6805
:102520001B680C3312781A70FB681B6B5A1CFB6813
:102530001A63FB68DB8E9BB2013B9AB2FB68DA86BA
:1025400057E0FB681B689B6803F00203022B1CD159
:10255000FB68DB8E9BB2002B17D0FB6A012B14D1DA
:10256000FB681A6BFB681B680C3312781A70FB68E7
:102570001B6B5A1CFB681A63FB68DB8E9BB2013B2A
:102580009AB2FB68DA860023FB62FB681B689B68D3
:1025900003F00103012B19D1FB68DB8F9BB2002BE9
:1025A00014D0FB681B68DA68FB689B6BD2B21A70A8
:1025B000FB689B6B5A1CFB689A63FB68DB8F9BB2C2
:1025C000013B9AB2FB68DA870123FB62FEF70CFB42
:1025D00002467B6AD31ABA6B9A4203D8BB6BB3F13B
:1025E000FF3F02D1BB6B002B03D1032387F82B30B5
:1025F00029E0FB68DB8E9BB2002BA2D1FB68DB8F4E
:102600009BB2002B9DD17A6AB96BF86800F008FA8A
:102610000346002B06D0012387F82B30FB682022CD
:102620005A6510E0FB689B68002B0BD100237B618F
:10263000FB681B68DB687B61FB681B689B687B61D0
:102640007B6900E000BFFB68012283F85120FB6832
:10265000002283F8502097F82B3018463037BD46BB
:1026600080BD000080B588B000AF78607B681B68D3
:102670005B68FB617B681B689B68BB61BB699B09EE
:1026800003F00103002B0FD1BB6903F00103002B02
:102690000AD0FB699B0903F00103002B04D07B687F
:1026A0001B6C78689847BEE0BB695B0803F00103C8
:1026B000002B0AD0FB69DB0903F00103002B04D0D7
:1026C0007B685B6C78689847ADE0BB695B0903F099
:1026D0000103002B06D1BB699B0903F00103002B0A
:1026E00000F0A180FB695B0903F00103002B00F0FF
:1026F0009A80BB699B0903F00103002B23D07B6800
:1027000093F85130DBB2032B11D07B685B6D43F043
:1027100004027B685A6500237B617B681B68DB6869
:102720007B617B681B689B687B617B690BE0002396
:102730003B617B681B68DB683B617B681B689B684F
:102740003B613B696FE0BB695B0903F00103002B50
:1027500014D07B685B6D43F001027B685A650023EF
:10276000FB607B681B689B68FB607B681B681A6862
:102770007B681B6822F040021A60FB687B685B6D17
:10278000002B4FD07B681B685A687B681B6822F05F
:10279000E0025A607B68012283F85120FB6903F054
:1027A0000203002B04D1FB6903F00103002B34D09A
:1027B0007B681B685A687B681B6822F003025A60BA
:1027C0007B68DB6C002B11D07B68DB6C174A5A638B
:1027D0007B68DB6C1846FEF7F1FA0346002B05D048
:1027E0007B685B6D43F040027B685A657B689B6C3D
:1027F000002B16D07B689B6C0C4A5A637B689B6CE1
:102800001846FEF7DBFA0346002B0AD07B685B6DA7
:1028100043F040027B685A6503E0786800F008F8EE
:1028200000E000BF00BF2037BD4680BD4328000840
:1028300080B483B000AF786000BF0C37BD4680BC69
:10284000704780B584B000AF78607B685B6AFB60DE
:10285000FB680022DA87FB680022DA86F868FFF757
:10286000E7FF00BF1037BD4680BD000080B588B0CF
:1028700000AFF860B9603B601346FB71FEF7B4F936
:102880000246BB6A9B1A3A681344FB61FEF7ACF937
:10289000B861394B1B685B011B0DFA6902FB03F33E
:1028A0007B6154E03B68B3F1FF3F50D0FEF79CF9E9
:1028B0000246BB69D31AFA699A4202D9FB69002B16
:1028C0003DD1FB681B685A68FB681B6822F0E00278
:1028D0005A60FB685B68B3F5827F11D1FB689B6827
:1028E000B3F5004F04D0FB689B68B3F5806F07D148
:1028F000FB681B681A68FB681B6822F040021A60BC
:10290000FB689B6AB3F5005F0FD1FB681B681A6810
:10291000FB681B6822F400521A60FB681B681A6887
:10292000FB681B6842F400521A60FB68012283F8BE
:102930005120FB68002283F85020032317E07B69B5
:10294000002B01D10023FB617B69013B7B61FB68AC
:102950001B689A68BB681340BA689A420CBF01238F
:102960000023DBB21A46FB799A429BD1002318461A
:102970002037BD4680BD00BF0000002080B586B076
:1029800002AFF860B9607A60FB685B68B3F5827F7C
:1029900011D1FB689B68B3F5004F04D0FB689B68BE
:1029A000B3F5806F07D1FB681B681A68FB681B686A
:1029B00022F040021A60FB685B68B3F5827F17D192
:1029C000FB689B68B3F5806F12D17B680093BB688E
:1029D00000220121F868FFF749FF0346002B1AD0B7
:1029E000FB685B6D43F02002FB685A65032313E02C
:1029F0007B680093BB6800228021F868FFF736FFF0
:102A00000346002B07D0FB685B6D43F02002FB6898
:102A10005A65032300E0002318461037BD4680BDE9
:102A200080B586B002AFF860B9607A607B680093C9
:102A3000BB6800228021F868FFF718FF0346002BCF
:102A400007D0FB685B6D43F02002FB685A650323E7
:102A500000E0002318461037BD4680BD80B582B027
:102A600000AF78607B68002B01D1012341E07B68D7
:102A700093F83D30DBB2002B06D17B68002283F84F
:102A80003C20786800F039F87B68022283F83D200A
:102A90007B681A687B6804331946104600F0BCF95D
:102AA0007B68012283F846207B68012283F83E2060
:102AB0007B68012283F83F207B68012283F8402055
:102AC0007B68012283F841207B68012283F8422041
:102AD0007B68012283F843207B68012283F844202D
:102AE0007B68012283F845207B68012283F83D2022
:102AF000002318460837BD4680BD80B483B000AFC0
:102B0000786000BF0C37BD4680BC704780B485B08C
:102B100000AF78607B6893F83D30DBB2012B01D0C9
:102B200001233FE07B68022283F83D207B681B681D
:102B3000DA687B681B6842F00102DA607B681B6818
:102B40001B4A934213D07B681B68B3F1804F0ED0B1
:102B50007B681B68174A934209D07B681B68164A3A
:102B6000934204D07B681B68144A934211D17B685E
:102B70001B689B6803F00703FB60FB68062B10D003
:102B80007B681B681A687B681B6842F001021A6048
:102B900007E07B681B681A687B681B6842F00102CB
:102BA0001A60002318461437BD4680BC704700BF2A
:102BB000002C01400004004000080040000C0040D0
:102BC00080B582B000AF78607B681B681B6903F03A
:102BD0000203022B22D17B681B68DB6803F002032F
:102BE000022B1BD17B681B686FF002021A617B68A5
:102BF00001221A777B681B689B6903F00303002B93
:102C000003D0786800F0EDF805E0786800F0E0F8AF
:102C1000786800F0EFF87B6800221A777B681B6801
:102C20001B6903F00403042B22D17B681B68DB685B
:102C300003F00403042B1BD17B681B686FF00402B4
:102C40001A617B6802221A777B681B689B6903F410
:102C50004073002B03D0786800F0C3F805E0786873
:102C600000F0B6F8786800F0C5F87B6800221A77A3
:102C70007B681B681B6903F00803082B22D17B6863
:102C80001B68DB6803F00803082B1BD17B681B68FB
:102C90006FF008021A617B6804221A777B681B6850
:102CA000DB6903F00303002B03D0786800F099F888
:102CB00005E0786800F08CF8786800F09BF87B6895
:102CC00000221A777B681B681B6903F01003102B26
:102CD00022D17B681B68DB6803F01003102B1BD12B
:102CE0007B681B686FF010021A617B6808221A77F4
:102CF0007B681B68DB6903F44073002B03D07868A2
:102D000000F06FF805E0786800F062F8786800F08D
:102D100071F87B6800221A777B681B681B6903F0D7
:102D20000103012B0ED17B681B68DB6803F00103F4
:102D3000012B07D17B681B686FF001021A6178686C
:102D4000FDF76EFD7B681B681B6903F08003802B19
:102D50000ED17B681B68DB6803F08003802B07D1F2
:102D60007B681B686FF080021A61786800F0C9F810
:102D70007B681B681B6903F04003402B0ED17B6806
:102D80001B68DB6803F04003402B07D17B681B689E
:102D90006FF040021A61786800F035F87B681B68B4
:102DA0001B6903F02003202B0ED17B681B68DB68B6
:102DB00003F02003202B07D17B681B686FF02002F3
:102DC0001A61786800F094F800BF0837BD4680BDEE
:102DD00080B483B000AF786000BF0C37BD4680BCC4
:102DE000704780B483B000AF786000BF0C37BD4639
:102DF00080BC704780B483B000AF786000BF0C37F0
:102E0000BD4680BC704780B483B000AF786000BF1F
:102E10000C37BD4680BC704780B485B000AF786089
:102E200039607B681B68FB607B682D4A93420FD03A
:102E30007B68B3F1804F0BD07B682A4A934207D05E
:102E40007B68294A934203D07B68284A934208D181
:102E5000FB6823F07003FB603B685B68FA68134310
:102E6000FB607B681E4A93420FD07B68B3F1804FB2
:102E70000BD07B681B4A934207D07B681A4A934267
:102E800003D07B68194A934208D1FB6823F440734E
:102E9000FB603B68DB68FA681343FB60FB6823F068
:102EA00080023B685B691343FB607B68FA681A60C9
:102EB0003B689A687B68DA623B681A687B689A624A
:102EC0007B68074A934203D13B681A697B681A639F
:102ED0007B6801225A6100BF1437BD4680BC704731
:102EE000002C01400004004000080040000C00409D
:102EF00080B483B000AF786000BF0C37BD4680BCA3
:102F0000704780B483B000AF786000BF0C37BD4617
:102F100080BC704780B582B000AF78607B68002BC2
:102F200001D101233FE07B6893F83930DBB2002BFD
:102F300006D17B68002283F838207868FDF722FDEF
:102F40007B68242283F839207B681B68DA687B68F9
:102F50001B6822F40052DA60786800F039FB7B6865
:102F60001B681A697B681B6822F490421A617B68AF
:102F70001B685A697B681B6822F02A025A617B68C9
:102F80001B68DA687B681B6842F40052DA607B6871
:102F90000022DA637B68202283F839207B682022B4
:102FA00083F83A20002318460837BD4680BD80B517
:102FB0008AB002AFF860B9603B601346FB80002323
:102FC0007B61FB6893F83930DBB2202B7CD1BB6886
:102FD000002B02D0FB88002B01D1012375E0FB6898
:102FE00093F83830012B01D102236EE0FB680122F7
:102FF00083F83820FB680022DA63FB68212283F81B
:103000003920FDF7F1FD7861FB68FA889A84FB6846
:10301000FA88DA84FB689B68B3F5805F08D1FB68A7
:103020001B69002B04D10023FB61BB68BB6103E07B
:10303000BB68FB610023BB61FB68002283F838207A
:103040002AE03B6800937B6900228021F86800F049
:103050005CF90346002B01D0032336E0FB69002B0B
:103060000BD1BB691B881A46FB681B68C2F30802B8
:103070005A60BB690233BB6107E0FB691A78FB68E1
:103080001B685A60FB690133FB61FB68DB8C9BB2F8
:10309000013B9AB2FB68DA84FB68DB8C9BB2002BA5
:1030A000CFD13B6800937B6900224021F86800F093
:1030B0002CF90346002B01D0032306E0FB682022F5
:1030C00083F83920002300E0022318462037BD464C
:1030D00080BD000080B588B000AF78607B681B6859
:1030E0001B68FB617B681B68DB68BB617B681B68D6
:1030F0005B697B6100233B610023FB60FB6903F09C
:103100000F033B613B69002B0DD1FB6903F02003EA
:10311000002B08D0BB6903F02003002B03D0786894
:1031200000F0D5F9D0E03B69002B00F0B0807B695E
:1031300003F00103002B05D1BB6903F49073002B4E
:1031400000F0A580FB6903F00103002B0AD0BB69E6
:1031500003F48073002B05D07B68DB6B43F0010226
:103160007B68DA63FB6903F00403002B0AD07B69F8
:1031700003F00103002B05D07B68DB6B43F00202F8
:103180007B68DA63FB6903F00203002B0AD07B69DA
:1031900003F00103002B05D07B68DB6B43F00402D6
:1031A0007B68DA63FB6903F00803002B0FD0BB696F
:1031B00003F02003002B04D17B6903F00103002BF3
:1031C00005D07B68DB6B43F008027B68DA637B68C1
:1031D000DB6B002B77D0FB6903F02003002B07D0BB
:1031E000BB6903F02003002B02D0786800F06FF970
:1031F0007B681B685B6903F04003002B14BF01234D
:103200000023DBB2FB607B68DB6B03F00803002B61
:1032100002D1FB68002B31D0786800F0C0F87B68E1
:103220001B685B6903F04003002B23D07B681B689D
:103230005A697B681B6822F040025A617B685B6BAD
:10324000002B13D07B685B6B214A5A637B685B6BF6
:103250001846FDF7B3FD0346002B16D07B685B6B69
:103260005B6B7A68526B104698470EE0786800F006
:1032700043F80AE0786800F03FF806E0786800F06C
:103280003BF87B680022DA631DE000BF1BE0FB69AE
:1032900003F08003002B08D0BB6903F08003002BF0
:1032A00003D0786800F0ACF80EE0FB6903F040034F
:1032B000002B09D0BB6903F04003002B04D07868D1
:1032C00000F0EDF800E000BF2037BD4680BD00BF34
:1032D000D933000880B483B000AF786000BF0C37EA
:1032E000BD4680BC704780B483B000AF786000BF3B
:1032F0000C37BD4680BC704780B483B000AF7860A7
:1033000000BF0C37BD4680BC704780B584B000AFAD
:10331000F860B9603B601346FB712CE0BB69B3F108
:10332000FF3F28D0BB69002B07D0FDF75DFC0246AC
:103330003B68D31ABA699A421DD2FB681B68DA68E7
:10334000FB681B6822F4D072DA60FB681B685A695C
:10335000FB681B6822F001025A61FB68202283F897
:103360003920FB68202283F83A20FB68002283F88A
:10337000382003230FE0FB681B681A68BB68134002
:10338000BA689A420CBF01230023DBB21A46FB79CC
:103390009A42C3D0002318461037BD4680BD80B482
:1033A00083B000AF78607B681B68DA687B681B6855
:1033B00022F49072DA607B681B685A697B681B682C
:1033C00022F001025A617B68202283F83A2000BF74
:1033D0000C37BD4680BC704780B584B000AF7860C4
:1033E0007B685B6AFB60FB680022DA85FB68002271
:1033F000DA84F868FFF780FF00BF1037BD4680BD54
:1034000080B485B000AF78607B6893F83930DBB268
:10341000212B3ED17B689B68B3F5805F14D17B681C
:103420001B69002B10D17B681B6AFB60FB681B8843
:103430001A467B681B68C2F308025A607B681B6AE5
:103440009A1C7B681A6208E07B681B6A591C7A68C0
:1034500011621A787B681B685A607B68DB8C9BB2B0
:10346000013B9BB27A681946D184002B0FD17B684F
:103470001B68DA687B681B6822F08002DA607B6870
:103480001B68DA687B681B6842F04002DA60002340
:1034900000E0022318461437BD4680BC704780B553
:1034A00082B000AF78607B681B68DA687B681B6855
:1034B00022F04002DA607B68202283F839207868A5
:1034C000FFF708FF002318460837BD4680BD80B5CA
:1034D00084B000AF78607B6893F83A30DBB2222B7F
:1034E00070D17B689B68B3F5805F17D17B681B69DF
:1034F000002B13D10023FB607B689B6ABB607B6859
:103500001B685B689BB2C3F308039AB2BB681A805E
:103510007B689B6A9A1C7B689A6226E07B689B6A40
:10352000FB600023BB607B689B68B3F5805F07D0BE
:103530007B689B68002B0AD17B681B69002B06D136
:103540007B681B685B68DAB2FB681A7008E07B680E
:103550001B685B68DBB203F07F03DAB2FB681A70AA
:103560007B689B6A5A1C7B689A627B68DB8D9BB286
:10357000013B9BB27A681946D185002B20D17B682C
:103580001B68DA687B681B6822F02002DA607B68BF
:103590001B68DA687B681B6822F48072DA607B68DB
:1035A0001B685A697B681B6822F001025A617B68BC
:1035B000202283F83A207868FFF795FE002302E086
:1035C000002300E0022318461037BD4680BD0000EE
:1035D00080B584B000AF78607B681B681B6923F4FA
:1035E00040517B68DA687B681B680A431A617B6814
:1035F0009A687B681B691A437B685B691343BB60ED
:103600007B681B68DB6823F4B05323F00C037A68F3
:103610001268B9680B43D3607B681B685B6923F44D
:1036200040717B689A697B681B680A435A617B68B2
:103630001B682C4A934203D1FEF73EFBF86002E080
:10364000FEF726FBF860FA6813469B0013449A00C5
:103650001A447B685B689B00B2FBF3F3224AA2FB2F
:1036600003235B091901FA6813469B0013449A006F
:103670001A447B685B689B00B2FBF3F21A4BA3FB16
:1036800002035B09642000FB03F3D31A1B013233EE
:10369000154AA2FB03235B0903F0F0031944FA68FF
:1036A00013469B0013449A001A447B685B689B0096
:1036B000B2FBF3F20C4BA3FB02035B09642000FB9B
:1036C00003F3D31A1B013233074AA2FB03235B091E
:1036D00003F00F027B681B680A449A6000BF103732
:1036E000BD4680BD003801401F85EB5180B485B0D8
:1036F00000AF0346FB800023FB60B7F90630842B44
:1037000005D0B7F90620FB6813440333FB60FB6860
:1037100018461437BD4680BC704780B500AF00F036
:10372000D1FA0023184680BDF0B589B004AF7860A7
:1037300039607B685B69002B20D07B689B69002B1C
:103740001CD07B685C687B681D687B681E697B6831
:10375000B3F908301846FFF7C9FF01467B685B697B
:103760007A6892690292019300913B683246294639
:10377000204600F0E8F80346FB601CE07B685C68CC
:103780007B681D687B681B699EB27B68B3F9083053
:103790001846FFF7ABFF024607F10C0301930092B6
:1037A0003B6832462946204600F029F90346012BA2
:1037B00001D0002300E0FB6818461437BD46F0BD79
:1037C00080B584B000AF78607B68FB60FB68002B3D
:1037D00001D0FB6800E00123184600F03FFA002307
:1037E00018461037BD4680BD80B483B000AF786006
:1037F0007B6803F108027B685A607B684FF0FF32F8
:103800009A607B6803F108027B68DA607B6803F1E9
:1038100008027B681A617B6800221A6000BF0C37BF
:10382000BD4680BC704780B483B000AF78607B68D1
:1038300000221A6100BF0C37BD4680BC704780B4BF
:1038400085B000AF786039607B685B68FB603B687F
:10385000FA685A60FB689A683B689A60FB689B68E4
:103860003A685A60FB683A689A603B687A681A61FD
:103870007B681B685A1C7B681A6000BF1437BD4602
:1038800080BC704780B485B000AF786039603B6819
:103890001B68BB60BB68B3F1FF3F03D17B681B694A
:1038A000FB600CE07B680833FB6002E0FB685B6850
:1038B000FB60FB685B681B68BA689A42F6D2FB68DB
:1038C0005A683B685A603B685B683A689A603B6834
:1038D000FA689A60FB683A685A603B687A681A61CD
:1038E0007B681B685A1C7B681A6000BF1437BD4692
:1038F00080BC704780B485B000AF78607B681B697E
:10390000FB607B685B687A6892689A607B689B68FA
:103910007A6852685A60FB685B687A689A4203D199
:103920007B689A68FB685A607B6800221A61FB68B2
:103930001B685A1EFB681A60FB681B681846143720
:10394000BD4680BC704780B58EB004AFF860B960EA
:103950007A603B607B6B002B0AD14FF0500383F3FE
:103960001188BFF36F8FBFF34F8F3B6200BFFEE73D
:10397000BB6B002B0AD14FF0500383F31188BFF3C8
:103980006F8FBFF34F8FFB6100BFFEE754233B6196
:103990003B69542B0AD04FF0500383F31188BFF3D7
:1039A0006F8FBFF34F8FBB6100BFFEE7BB6B002B78
:1039B0001ED07B6B002B1BD0BB6B7B627B6A7A6B50
:1039C0001A637B6A022283F85120002303937B6AE7
:1039D000029307F1140301933B6B00933B687A68F1
:1039E000B968F86800F050F8786A00F0CDF801E0A6
:1039F00000237B617B6918462837BD4680BD80B5B2
:103A00008CB004AFF860B9603B601346FB80FB8864
:103A10009B00184600F06CFE78617B69002B0ED08D
:103A2000542000F065FEF861FB69002B03D0FB69B0
:103A30007A691A6305E0786900F01EFF01E000234F
:103A4000FB61FB69002B17D0FB69002283F8512032
:103A5000FA8800230393FB690293FB6A0193BB6A14
:103A600000933B68B968F86800F00EF8F86900F058
:103A70008BF80123BB6102E04FF0FF33BB61BB69F0
:103A800018462037BD4680BD80B588B000AFF860CD
:103A9000B9607A603B603B6B1A6B7B6803F18043D3
:103AA000013B9B001344BB61BB6923F00703BB616F
:103AB000BB6903F00703002B0AD04FF0500383F3D8
:103AC0001188BFF36F8FBFF34F8F7B6100BFFEE79D
:103AD0000023FB6112E0BA68FB69134419783A6B62
:103AE000FB69134434330A461A70BA68FB691344FD
:103AF0001B78002B06D0FB690133FB61FB690F2BA0
:103B0000E9D900E000BF3B6B002283F84320BB6A89
:103B1000062B01D90623BB623B6BBA6ADA623B6BA8
:103B2000BA6A5A643B6B00229A643B6B04331846B2
:103B3000FFF779FE3B6B18331846FFF774FE3B6BBB
:103B40003A6B1A61BB6AC3F107023B6B9A613B6B2C
:103B50003A6B5A623B6B0022DA643B6B002283F8BB
:103B600050203A68F968B86900F00EFC02463B6BD9
:103B70001A60FB6A002B02D0FB6A3A6B1A6000BF26
:103B80002037BD4680BD000080B582B000AF7860B0
:103B900000F0ECFC2A4B1B680133294A1360294BC7
:103BA0001B68002B09D1274A7B681360244B1B68D4
:103BB000012B10D100F0C0FA0DE0234B1B68002B45
:103BC00009D1204B1B68DA6A7B68DB6A9A4202D80B
:103BD0001C4A7B6813601D4B1B6801331B4A136032
:103BE0007B68DB6A01229A40194B1B681343184A11
:103BF00013607B68DA6A13469B0013449B00154AE6
:103C00001A447B68043319461046FFF718FE00F08B
:103C1000DDFC0D4B1B68002B0ED00A4B1B68DA6ACB
:103C20007B68DB6A9A4207D20B4B4FF080521A60D6
:103C3000BFF34F8FBFF36F8F00BF0837BD4680BD06
:103C400080030020800200208C0300209C030020C1
:103C5000880300208402002004ED00E080B584B0D9
:103C600000AF78600023FB607B68002B17D0134BFC
:103C70001B68002B0AD04FF0500383F31188BFF369
:103C80006F8FBFF34F8FBB6000BFFEE700F07AF885
:103C90000021786800F012FB00F082F8F860FB6801
:103CA000002B07D1064B4FF080521A60BFF34F8FA5
:103CB000BFF36F8F00BF1037BD4680BDA803002043
:103CC00004ED00E080B58AB004AF0023BB600023A0
:103CD0007B603A46391D07F108031846FCF724FCBF
:103CE00039687B68BA68029201930023009300232D
:103CF0000A461E491E48FFF726FE03461D4A13606A
:103D00001C4B1B68002B02D001237B6101E00023C8
:103D10007B617B69012B16D14FF0500383F311882F
:103D2000BFF36F8FBFF34F8F3B6100BF124B4FF05C
:103D3000FF321A60114B01221A60114B00221A60E7
:103D400000F0A2FB0EE07B69B3F1FF3F0AD14FF018
:103D5000500383F31188BFF36F8FBFF34F8FFB6066
:103D600000BFFEE700BF1837BD4680BD584B0008B6
:103D700009410008A4030020A00300208C030020B8
:103D80008403002080B400AF044B1B680133034A56
:103D9000136000BFBD4680BC704700BFA803002071
:103DA00080B584B000AF0023FB600023BB60414BB3
:103DB0001B68002B0AD14FF0500383F31188BFF327
:103DC0006F8FBFF34F8F3B6000BFFEE700F0CEFB6D
:103DD000384B1B68013B374A1360364B1B68002B7E
:103DE00061D1354B1B68002B5DD02EE0334BDB6877
:103DF000DB68FB60FB6818331846FFF77BFDFB6848
:103E000004331846FFF776FDFB68DB6A01229A400F
:103E10002B4B1B6813432A4A1360FB68DA6A13466C
:103E20009B0013449B00274A1A44FB68043319463D
:103E30001046FFF704FDFB68DA6A234B1B68DB6A58
:103E40009A4202D3214B01221A601C4B1B68002BA3
:103E5000CCD1FB68002B01D000F00CFA1C4B1B6886
:103E60007B607B68002B10D000F036F80346002BF7
:103E700002D0164B01221A607B68013B7B607B6895
:103E8000002BF1D1124B00221A60104B1B68002B43
:103E900009D00123BB600F4B4FF080521A60BFF373
:103EA0004F8FBFF36F8F00F091FBBB681846103740
:103EB000BD4680BDA80300208003002040030020F1
:103EC0008803002084020020800200209403002048
:103ED0009003002004ED00E080B586B000AF002321
:103EE0007B61514B1B68002B40F08D804F4B1B6852
:103EF00001333B614D4A3B6913603B69002B20D184
:103F00004B4B1B681B68002B0AD04FF0500383F308
:103F10001188BFF36F8FBFF34F8F3B6000BFFEE789
:103F2000434B1B68FB60434B1B68414A1360414A8B
:103F3000FB681360404B1B6801333F4A136000F07D
:103F400099F93E4B1B683A699A424DD3384B1B682E
:103F50001B68002B01D1012300E00023002B04D0BB
:103F6000364B4FF0FF321A603EE0314B1B68DB6886
:103F7000DB68BB60BB685B687B603A697B689A42C0
:103F800003D22E4A7B6813602EE0BB6804331846C8
:103F9000FFF7B0FCBB689B6A002B04D0BB681833EA
:103FA0001846FFF7A7FCBB68DB6A01229A40244B46
:103FB0001B681343224A1360BB68DA6A13469B00EE
:103FC00013449B001F4A1A44BB6804331946104629
:103FD000FFF735FCBB68DA6A1B4B1B68DB6A9A4249
:103FE000B4D301237B61B1E7174B1B68DA6A15492B
:103FF00013469B0013449B000B441B68012B07D9FD
:1040000001237B6104E0114B1B6801330F4A1360ED
:104010000F4B1B68002B01D001237B617B69184685
:104020001837BD4680BD00BFA803002084030020D0
:10403000380300203C03002098030020A003002048
:1040400088030020840200208002002090030020CA
:104050009403002080B487B000AF264B1B68002B70
:1040600003D0254B01221A603FE0234B00221A6047
:10407000224B1B68FB60FB68B3FA83F3FB72FB7A8D
:10408000C3F11F037B611E497A6913469B001344E9
:104090009B000B441B68002B0AD14FF0500383F3A5
:1040A0001188BFF36F8FBFF34F8F7B6000BFFEE7B8
:1040B0007A6913469B0013449B00114A13443B61E9
:1040C0003B695B685A683B695A603B695A683B695F
:1040D00008339A4204D13B695B685A683B695A606D
:1040E0003B695B68DB68074A136000BF1C37BD464D
:1040F00080BC7047A80300209403002088030020A0
:10410000840200208002002080B582B000AF786079
:1041100000F052F8064B1B68012BF9D9054B4FF004
:1041200080521A60BFF34F8FBFF36F8FF0E700BF6D
:104130008402002004ED00E080B582B000AF0023CF
:104140007B600CE07A6813469B0013449B00124A84
:1041500013441846FFF748FB7B6801337B607B689C
:10416000062BEFD90D48FFF73FFB0D48FFF73CFB4F
:104170000C48FFF739FB0C48FFF736FB0B48FFF7FD
:1041800033FB0B4B054A1A600A4B054A1A6000BF05
:104190000837BD4680BD00BF840200201003002008
:1041A0002403002040030020540300206C0300205F
:1041B000380300203C03002080B582B000AF19E036
:1041C00000F0D4F9104BDB68DB687B607B6804335C
:1041D0001846FFF78FFB0D4B1B68013B0B4A136022
:1041E0000B4B1B68013B0A4A136000F0EFF978683B
:1041F00000F010F8064B1B68002BE1D100BF00BF98
:104200000837BD4680BD00BF540300208003002056
:104210006803002080B584B000AF78607B6893F8B5
:104220005130002B08D17B681B6B184600F024FB33
:10423000786800F021FB18E07B6893F85130012B7F
:1042400003D1786800F018FB0FE07B6893F85130D9
:10425000022B0AD04FF0500383F31188BFF36F8F06
:10426000BFF34F8FFB6000BFFEE700BF1037BD46B6
:1042700080BD000080B483B000AF0E4B1B681B688C
:10428000002B01D1012300E00023002B04D00A4BB6
:104290004FF0FF321A6008E0064B1B68DB68DB68F2
:1042A0007B607B685B68044A136000BF0C37BD46C7
:1042B00080BC704738030020A003002080B584B084
:1042C00000AF78603960294B1B68FB60284B1B6886
:1042D00004331846FFF70EFB0346002B0BD1244B8B
:1042E0001B68DB6A012202FA03F3DA43214B1B68E5
:1042F0001340204A13607B68B3F1FF3F0AD13B684B
:10430000002B07D01A4B1B68043319461A48FFF7D5
:1043100096FA26E0FA687B681344BB60144B1B686E
:10432000BA685A60BA68FB689A4209D2134B1A6895
:104330000F4B1B68043319461046FFF7A3FA10E031
:104340000F4B1A680A4B1B68043319461046FFF7D7
:1043500099FA0C4B1B68BA689A4202D2094ABB68A8
:10436000136000BF1037BD4680BD00BF840300202E
:1043700080020020880300206C0300203C03002002
:1043800038030020A003002080B485B000AFF8609F
:10439000B9607A60FB68043BFB60FB684FF0807299
:1043A0001A60FB68043BFB60BB6823F00102FB68FA
:1043B0001A60FB68043BFB60084AFB681A60FB68F4
:1043C000143BFB607A68FB681A60FB68203BFB606B
:1043D000FB6818461437BD4680BC7047E1430008AF
:1043E00080B485B000AF00237B60124B1B68B3F133
:1043F000FF3F0AD04FF0500383F31188BFF36F8F54
:10440000BFF34F8FFB6000BFFEE74FF0500383F315
:104410001188BFF36F8FBFF34F8FBB6000BF00BF2A
:104420007B68002BFCD000BF00BF1437BD4680BCAA
:10443000704700BF0C0000200000000000000000DA
:10444000074B19680868B0E8F00F80F30988BFF3DC
:104450006F8F4FF0000080F311884EF00D0E704703
:104460008002002000BF00BF06480068006880F39B
:10447000088862B661B6BFF34F8FBFF36F8F00DF5E
:1044800000BF00BF08ED00E080B584B000AF324B44
:10449000FB60FB681B78DBB27B60FB68FF221A7055
:1044A000FB681B78DBB2FB70FB78DBB203F05003D8
:1044B000DAB22A4B1A702A4B07221A6009E0284BFD
:1044C0001B68013B264A1360FB78DBB25B00DBB262
:1044D000FB70FB78DBB203F08003802BEFD0204B26
:1044E0001B68C3F10703042B0AD04FF0500383F37A
:1044F0001188BFF36F8FBFF34F8FBB6000BFFEE724
:10450000174B1B681B02164A1360154B1B6803F4FC
:10451000E063134A13607B68DAB2FB681A70114BD0
:104520001B68104A43F4700313600E4B1B680D4A5E
:1045300043F07043136000F0B9F80B4B00221A608F
:10454000FFF792FFFFF786FDFFF74AFF00231846AB
:104550001037BD4680BD00BF00E400E0AC03002082
:10456000B003002020ED00E00C00002080B483B0F8
:1045700000AF4FF0500383F31188BFF36F8FBFF389
:104580004F8F7B6000BF0F4B1B6801330D4A1360D8
:104590000C4B1B68012B0FD10B4B1B68DBB2002BA4
:1045A0000AD04FF0500383F31188BFF36F8FBFF32E
:1045B0004F8F3B6000BFFEE700BF0C37BD4680BC9D
:1045C000704700BF0C00002004ED00E080B483B011
:1045D00000AF114B1B68002B0AD14FF0500383F33F
:1045E0001188BFF36F8FBFF34F8F7B6000BFFEE773
:1045F000094B1B68013B084A1360074B1B68002BE3
:1046000005D100233B603B6883F3118800BF00BFE6
:104610000C37BD4680BC70470C0000200000000035
:10462000EFF30980BFF36F8F0D4B1A6820E9F00F8D
:1046300010602DE908404FF0500080F31188FFF71B
:1046400009FD4FF0000080F31188BDE808401968AB
:104650000868B0E8F00F80F30988BFF36F8F7047E8
:104660008002002000BF00BF80B582B000AF4FF0D5
:10467000500383F31188BFF36F8FBFF34F8F7B60BD
:1046800000BFFFF729FC0346002B03D0064B4FF079
:1046900080521A6000233B603B6883F3118800BF9F
:1046A00000BF0837BD4680BD04ED00E080B400AF18
:1046B0000A4B00221A600A4B00221A60094B1B6841
:1046C000094AA2FB03239B09084A013B1360034BE1
:1046D00007221A6000BFBD4680BC704710E000E0B2
:1046E00018E000E000000020D34D621014E000E06C
:1046F00080B58AB000AF78600023FB61FFF742FB12
:10470000584B1B68002B01D100F010F9564B1A686A
:104710007B681340002B40F08E807B68002B1DD0FF
:1047200008227B6813447B607B6803F00703002B3F
:1047300014D07B6823F0070308337B607B6803F0A9
:104740000703002B0AD04FF0500383F31188BFF307
:104750006F8FBFF34F8F7B6100BFFEE77B68002B3D
:1047600069D0424B1B687A689A4264D8404B3B62DE
:104770003F4B1B687B6204E07B6A3B627B6A1B6881
:104780007B627B6A5B687A689A4203D97B6A1B68A2
:10479000002BF1D1334B1B687A6A9A424BD03B6AAB
:1047A0001B6808221344FB617B6A1A683B6A1A6023
:1047B0007B6A5A687B68D21A08235B009A421FD929
:1047C0007A6A7B681344BB61BB6903F00703002B63
:1047D0000AD04FF0500383F31188BFF36F8FBFF3FC
:1047E0004F8F3B6100BFFEE77B6A5A687B68D21A35
:1047F000BB695A607B6A7A685A60B86900F0F8F859
:104800001A4B1A687B6A5B68D31A184A1360174BF5
:104810001A68184B1B689A4203D2144B1B68154A3E
:1048200013607B6A5A68104B1B681A437B6A5A6094
:104830007B6A00221A60FFF7B3FAFB6903F00703F3
:10484000002B0AD04FF0500383F31188BFF36F8F12
:10485000BFF34F8FFB6000BFFEE7FB6918462837A8
:10486000BD4680BDBC130020C8130020C01300202B
:10487000B4130020C413002080B586B000AF786068
:104880007B687B617B68002B48D008235B427A6998
:1048900013447B617B693B613B695A68214B1B6810
:1048A0001340002B0AD14FF0500383F31188BFF35C
:1048B0006F8FBFF34F8FFB6000BFFEE73B691B6844
:1048C000002B0AD04FF0500383F31188BFF36F8F92
:1048D000BFF34F8FBB6000BFFEE73B695A68114BC7
:1048E0001B681340002B19D03B691B68002B15D1A6
:1048F0003B695A680B4B1B68DB431A403B695A60A3
:10490000FFF740FA3B695A68074B1B681344064A95
:104910001360386900F06CF8FFF742FA00BF1837EF
:10492000BD4680BDC8130020C013002080B485B0F0
:1049300000AF4FF48053BB60274BFB60FB6803F074
:104940000703002B0CD0FB680733FB60FB6823F0E8
:104950000703FB60BA68FB68D31A1F4A1344BB60A5
:10496000FB687B601D4A7B6813601C4B00225A6009
:104970007B68BA681344FB600822FB689B1AFB60E3
:10498000FB6823F00703FB60FB68154A1360144BB8
:104990001B6800225A60124B1B6800221A607B6859
:1049A0003B603B68FA68D21A3B685A600C4B1A6845
:1049B0003B681A603B685B680A4A13603B685B6847
:1049C000094A1360094B4FF000421A6000BF1437C8
:1049D000BD4680BC704700BFB4030020B413002064
:1049E000BC130020C4130020C0130020C8130020F3
:1049F00080B485B000AF7860274BFB6002E0FB68B5
:104A00001B68FB60FB681B687A689A42F7D8FB68F2
:104A1000BB60FB685B68BA6813447A689A4208D145
:104A2000FB685A687B685B681A44FB685A60FB68DD
:104A30007B607B68BB607B685B68BA681A44FB6814
:104A40001B689A4218D1FB681A68144B1B689A427B
:104A50000DD07B685A68FB681B685B681A447B68EA
:104A60005A60FB681B681A687B681A6008E00B4B89
:104A70001A687B681A6003E0FB681A687B681A6032
:104A8000FA687B689A4202D0FB687A681A6000BFB5
:104A90001437BD4680BC7047B4130020BC130020FF
:104AA00070B500260C4D0D4C641BA410A64209D114
:104AB00000F022F800260A4D0A4C641BA410A642FE
:104AC00005D170BD55F8043B98470136EEE755F81F
:104AD000043B98470136F2E7804B0008804B000802
:104AE000804B0008844B000803460244934200D1E7
:104AF000704703F8011BF9E7F8B500BFF8BC08BC24
:104B00009E467047F8B500BFF8BC08BC9E4670478B
:104B100064656661756C745461736B00104B0008BA
:104B2000B107000800000000000000008000000045
:104B3000000000000000000000000405060708094E
:104B400000000000000D0000010203040506070834
:104B5000090A0B0C0D0E0F1049444C4500000000D3
:104B6000000000000000000001020304060708091D
:084B7000000000000102030433
:084B7800E8B6FF7F0100000018
:044B80001502000812
:044B8400F101000833
:104B88000024F4001000000001000000AAAAAAAA4C
:0400000508000B4D97
:00000001FF
