:020000040800F2
:1000000000000220FD1F00082D1C0008331C000802
:10001000391C00083F1C0008451C000800000000B7
:1000200000000000000000000000000061730008F4
:100030004B1C000800000000B1750008197600088C
:100040004D2000084D2000084D2000084D200008DC
:100050004D2000084D2000084D2000084D200008CC
:100060004D2000084D2000084D2000084D200008BC
:100070004D2000084D2000084D2000084D200008AC
:100080004D2000084D2000084D2000084D2000089C
:100090004D2000084D2000084D2000084D2000088C
:1000A0004D200008591C00084D2000084D20000874
:1000B0006D1C00084D2000084D2000084D20000850
:1000C0004D2000084D2000084D2000084D2000085C
:1000D0004D200008811C00084D2000084D2000081C
:1000E0004D2000084D2000084D2000084D2000083C
:1000F0004D2000084D2000084D2000084D2000082C
:100100004D2000084D2000084D2000084D2000081B
:100110004D2000084D2000084D2000084D2000080B
:100120004D2000084D2000084D2000084D200008FB
:100130004D20000800000000000000004D200008D5
:100140004D2000084D2000084D2000084D200008DB
:100150004D2000084D200008951C00084D20000887
:100160004D2000084D2000084D2000084D200008BB
:100170004D2000084D200008000000000000000095
:080180004D2000084D2000088D
:1001900010B5054C237833B9044B13B10448AFF3C1
:1001A00000800123237010BDC40000200000000067
:1001B000189F000808B5034B1BB103490348AFF370
:1001C000008008BD00000000C8000020189F000843
:1001D00010F8012B11F8013B012A28BF9A42F7D0F1
:1001E000D01A7047034613F8012B002AFBD1181AC6
:1001F000013870470000000000000000000000000F
:1002000001F0FF01102A2BDB10F0070F08D010F8C7
:10021000013B013A8B422DD010F0070F42B3F6D1CB
:10022000F0B441EA012141EA014122F007047FF0E4
:1002300000070023F0E80256083C85EA010586EA3B
:10024000010685FA47F5A3FA87F586FA47F6A5FA77
:1002500087F68EB9EED1F0BC01F0FF0102F0070283
:1002600032B110F8013B013A83EA010313B1F8D12E
:100270000020704701387047002D06BF354603380F
:10028000073815F0010F07D1013015F4807F02BF48
:10029000013015F4C03F0130F0BC0138704700BF99
:1002A00053B94AB9002908BF00281CBF4FF0FF31DD
:1002B0004FF0FF3000F06EB9ADF1080C6DE904CEDF
:1002C00000F006F8DDF804E0DDE9022304B0704731
:1002D0002DE9F047089D04468C46002B40F08380B2
:1002E0008A42174647D9B2FA82F242B1C2F12000DF
:1002F00024FA00F09140974040EA010C94404FEA04
:100300001748230CBCFBF8F61FFA87FE08FB16C142
:1003100043EA014306FB0EF1994209D9FB1806F1A5
:10032000FF3080F01981994240F21681023E3B4431
:100330005B1AA4B2B3FBF8F008FB103344EA0344A1
:1003400000FB0EFEA64509D93C1900F1FF3380F0F1
:100350000581A64540F2028102383C4440EA06404D
:10036000A4EB0E0400261DB1D4400023C5E90043D0
:100370003146BDE8F08702B9FFDEB2FA82F2002A08
:1003800050D1CB1B4FEA174E1FFA87F80126B3FB5B
:10039000FEFC210C0EFB1C3341EA034108FB0CF36D
:1003A0008B4207D979180CF1FF3002D28B4200F250
:1003B000E9808446C91AA3B2B1FBFEF00EFB10110E
:1003C00043EA014408FB00F8A04507D93C1900F1B5
:1003D000FF3302D2A04500F2D9801846A4EB0804EE
:1003E00040EA0C40BFE78B4209D9002D00F0B180F4
:1003F0000026C5E9000130463146BDE8F087B3FA72
:1004000083F6002E4AD18B4202D3824200F2B8809A
:10041000841A61EB030101208C46002DA8D0C5E9A8
:10042000004CA5E7C2F1200320FA03F6974001FA39
:1004300002F04FEA174ED9403043030CB1FBFEF6F1
:100440001FFA87F80EFB161143EA014306FB08F179
:10045000994204FA02F409D9FB1806F1FF3C80F036
:100460008D80994240F28A80023E3B445B1A81B201
:10047000B3FBFEF00EFB103341EA034100FB08F32F
:100480008B4207D9791800F1FF3C73D28B4271D9A6
:1004900002383944CB1A40EA064678E7C6F1200C08
:1004A00003FA06F422FA0CF31C4320FA0CF701FAC3
:1004B00006F34FEA144E21FA0CF11F433B0CB1FB3B
:1004C000FEF91FFA84F80EFB191143EA014109FBFA
:1004D00008FA8A4502FA06F200FA06F308D961180A
:1004E00009F1FF3048D28A4546D9A9F102092144D1
:1004F000A1EB0A01BFB2B1FBFEF00EFB101147EAFF
:10050000014700FB08F8B84507D9E71900F1FF31AA
:100510002ED2B8452CD90238274440EA0940A7EB2F
:100520000807A0FB02894F45C64649461AD317D093
:100530005DB1B3EB0E0267EB010707FA0CFCF2406A
:100540004CEA0202F740C5E9002700263146BDE823
:10055000F0872E4628460BE70646E9E61846FDE6F4
:100560004345E5D2B8EB020E69EB04010138DFE741
:100570000846D2E760468DE78146B9E7664675E7EB
:1005800030464AE7ACF1020C394413E702383C44E8
:1005900024E700BF704700BF80B483B000AF78602D
:1005A000044A7B68136000BF0C37BD465DF8047BCE
:1005B000704700BFF440002080B500AF034800F052
:1005C00007F84FF47A7005F05EF9F7E7F440002081
:1005D00080B584B002AF78607B6818687B681A1DAC
:1005E0004FF47A7300930223692102F0B1FC00BF3B
:1005F0000837BD4680BD000080B582B000AF03461D
:10060000FB71FB79012B0ED1094B00221A76084BA6
:100610000022DA64064B1B690021184605F064FAD3
:1006200000F09CFB00BF00BF0837BD4680BD00BF87
:10063000FC40002080B582B000AF0346FB714B4BFD
:1006400093F8A030032B00F28C8001A252F823F023
:1006500061060008C1060008DF0600083F07000821
:10066000424BD3F8B830414A134493F8A130FA7999
:100670009A421BD13D4BD3F8B83001333B4AC2F804
:10068000B8303A4BD3F8B830062B67D1374B00223D
:10069000C3F8B820354B012283F8A020334BD3F8A0
:1006A000BC304B21184601F083FC57E02F4BD3F8A8
:1006B000B830002B52D02D4B0022C3F8B8204DE0AB
:1006C0002A4BD3F8BC30184601F088FC274B002297
:1006D000C3F8B820254B002283F8A02041E0234B2B
:1006E000D3F8B830214A134493F8A730FA799A42E4
:1006F0001BD11E4BD3F8B83001331C4AC2F8B830B6
:100700001A4BD3F8B830062B2AD1184B0022C3F865
:10071000B820164B032283F8A020144BD3F8C03026
:100720003221184601F044FC1AE0104BD3F8B830DF
:10073000002B15D00D4B0022C3F8B82010E00B4B56
:10074000D3F8C030184601F049FC084B0022C3F82A
:10075000B820064B002283F8A02002E000BF00E092
:1007600000BF002318460837BD4680BDFC4000206E
:1007700080B400AF084B93F8A030012B07D1064B93
:10078000022283F8A020044B0022C3F8B82000BF47
:10079000BD465DF8047B7047FC40002080B400AF8C
:1007A0000D4B93F8A030032B11D10B4B002283F893
:1007B000A020094B0022C3F8B820074B1B68064A4B
:1007C00012691A63044B1B68012283F83C2000BFA6
:1007D000BD465DF8047B7047FC40002080B584B0C6
:1007E00000AFF860B9607A6000F05CF8264AFB68F8
:1007F0001360254ABB681361234B1868224B1969A3
:10080000224B142201F068F81F4B0022DA641E4BC1
:10081000002283F850201C4A7B6853611A4B1B68E6
:100820001B4A9A63184B40F2EE22C3F8B020164BD5
:100830004FF4FA72C3F8B020134B164AA133106874
:10084000186092889A80104B134AA733106818607A
:1008500092889A800C4B002283F8A0200A4B002239
:10086000C3F8B8200D4801F00DFB0346064AC2F854
:10087000BC300B4801F006FB0346034AC2F8C03007
:1008800000BF1037BD4680BDFC400020F9050008C0
:1008900035060008EC9F0008F49F00087107000867
:1008A0009D07000880B400AF1B4B1C4A5A651A4BC9
:1008B0001B4A9A65184B1B4ADA65174B1A4A1A6687
:1008C000154B1A4A5A66144B194A9A66124B194A22
:1008D000DA66114B184A1A670F4B184A5A670E4BC3
:1008E000174A9A670C4B174ADA670B4B164AC3F83C
:1008F0008020094B154AC3F88420074B144ADA605C
:10090000054B60225A60044B00229A60002318466F
:10091000BD465DF8047B7047FC400020E50B0008F5
:10092000AD0C0008BD0C0008CD0C0008DD0C000863
:10093000F90C0008410D00085D0D0008790D000854
:10094000890D0008990D0008A90D0008B90D0008CF
:1009500058A1000880B582B000AF0C4B1B69F91D8F
:100960000122184605F094FB0346012B09D1074BE1
:1009700093F85030002B05D1FB79184600F008F8A9
:1009800000E000BF012004F07EFFE6E7FC4000200D
:1009900080B586B000AF0346FB71FB79184600F0C6
:1009A00035F80346002B26D100237B6108E0144A6A
:1009B0007B692233002142F823107B6901337B617C
:1009C0007B69052BF3DD0F490F4800F055F80C4B00
:1009D000D3F88830184600F077F803463B613B694E
:1009E0000D2B08D0064A3B6914339B0013445B6807
:1009F00098470346FB73002318461837BD4680BD51
:100A0000FC400020FC9F00088441002080B483B09B
:100A100000AF0346FB71FB790D2B0AD1144BDB6C45
:100A2000134A134400221A76114B0022DA64002381
:100A300017E00F4BDB6C0E4A1344FA791A760C4B15
:100A4000DB6C01330A4AD364094BDA6C094BA3FB14
:100A500002131B09322101FB03F3D31A044AD364A6
:100A6000012318460C37BD465DF8047B704700BF74
:100A7000FC4000201F85EB5180B584B000AF78604A
:100A8000396039680F4808F0F5F9F8607B68FA6852
:100A90001A600123BB600DE03968002008F0EAF914
:100AA000F860BB689B007A681344FA681A60BB68F8
:100AB0000133BB60FB68002BEED1002318461037D2
:100AC000BD4680BD1441002080B584B000AF786081
:100AD0000023FB6010E00C4AFB6852F82330796871
:100AE0001846FFF775FB0346002B02D1FB68DBB20B
:100AF00006E0FB680133FB60FB680C2BEBDD0D238C
:100B000018461037BD4680BD0000002090B585B066
:100B100000AF78600A2007F0E5FF0346FB607A68C3
:100B20000C49F86808F028F90B4B1C68F868FFF7C7
:100B300059FB03469AB20023F968204600F09AFE5A
:100B40000346002B02D0F86807F0D4FF00BF14372B
:100B5000BD4690BD00A00008FC40002080B586B0D6
:100B600000AFF860B9601346FB710B4B1868BB68A7
:100B70009AB2FB79F96800F07DFE0346FB75FB7DB8
:100B8000002B05D0FB79002B02D1F86807F0B2FFEB
:100B900000BF1837BD4680BDFC40002090B585B031
:100BA00000AF78600B46FB700D4B1C687868FFF750
:100BB00019FB03469AB2FB787968204600F05AFE8A
:100BC0000346FB73FB7B002B05D0FB78002B02D187
:100BD000786807F08FFF00BF1437BD4690BD00BF97
:100BE000FC40002080B584B000AF2D4BD3F88C3092
:100BF000184607F04FFE0346BB60BB68B3F5806F35
:100C000040D8BB680233184607F06CFF03467B6090
:100C10007B685B221A70BB6801337A6813445D22DB
:100C20001A707B68002B25D00123FB601EE01C4B53
:100C3000DA681B4B9B681A44FB6879680B4412788E
:100C40001A70174B9B680133154A9360144B9968CF
:100C5000144BA3FB01239A0913465B0013445B0169
:100C6000CA1A0F4B9A60FB680133FB60FB68BA68D5
:100C70009A42DCD2BB680233002219467868FFF73B
:100C80006DFF05E0084B1B6801211846FFF786FF42
:100C900000F064F8062318461037BD4680BD00BF3B
:100CA000FC400020ABAAAAAA3400002080B400AF08
:100CB00006231846BD465DF8047B704780B400AF3C
:100CC00006231846BD465DF8047B704780B400AF2C
:100CD00006231846BD465DF8047B704780B500AF1B
:100CE000044B9B681846FFF711FF00F037F8062306
:100CF000184680BDFC40002080B582B000AF0E4B8E
:100D0000D3F88C30184607F0C5FD03467B607B683E
:100D10005F2B06D9094B5B6801211846FFF73EFFA0
:100D200002E0054A7B68936000F018F80623184635
:100D30000837BD4680BD00BFFC40002034000020C5
:100D400080B500AF044B5B681846FFF7DFFE00F08C
:100D500005F80623184680BDFC40002080B500AF92
:100D6000044B1B6801211846FFF718FF062318469D
:100D700080BD00BF4C00002080B400AF06231846A1
:100D8000BD465DF8047B704780B400AF062318466B
:100D9000BD465DF8047B704780B400AF062318465B
:100DA000BD465DF8047B704780B400AF062318464B
:100DB000BD465DF8047B704780B400AF062318463B
:100DC000BD465DF8047B704780B582B000AF7860A7
:100DD0003960094A7B681360074A3B685360064BD9
:100DE0001868054B5968054B0A2200F075FD00BFD5
:100DF0000837BD4680BD00BFF4410020010E000849
:100E000080B582B000AF0346FB71FB79012B0CD19A
:100E1000084B0022DA63074B00221A72054B5B680D
:100E20000021184604F060FE00BF00BF0837BD4631
:100E300080BD00BFF441002080B582B000AF03E068
:100E4000FB79184600F010F8064B5B68F91D01228B
:100E5000184605F01DF90346012BF1D0012004F0DE
:100E600012FDF1E7F441002080B586B000AF0346E3
:100E7000FB71154B3B6100237B610023FB60FB7919
:100E8000184600F079F80346002B17D10F4B104A93
:100E90005A640E4B5B6C1846FFF7A4F903460B4AE5
:100EA000936407F10C0207F110030A49184607F092
:100EB00081F8FB68012B01D100F00EF800231846E1
:100EC0001837BD4680BD00BF04A00008F4410020D3
:100ED000FC4100203842002098B500AF1F4B204A4B
:100EE0005A641E4B2D229A641D4B00221A701D4815
:100EF00006F00CFE1B4806F04DFE01221A49194867
:100F000006F084FE194B9B881A461949154806F0CD
:100F10007DFE144806F05CFE124806F015FE1048EF
:100F2000FFF760F903461A460D4B134411491A4660
:100F30000B461B881380094B1C680948FFF752F9C0
:100F400003469AB201230649204600F093FC044B65
:100F5000002283F8312000BF98BD00BFF44100207B
:100F6000C0410020384200200CA00008F4400020BE
:100F700018A0000824A0000880B483B000AF034686
:100F8000FB71FB790D2B0AD1144BDB6B134A134415
:100F900000221A72114B0022DA63002317E00F4B74
:100FA000DB6B0E4A1344FA791A720C4BDB6B01337C
:100FB0000A4AD363094BDA6B094BA3FB02131B09E3
:100FC000322101FB03F3D31A044AD36301231846E9
:100FD0000C37BD465DF8047B704700BFF44100202C
:100FE0001F85EB5180B485B000AFF860B9607A60BE
:100FF000FB68074A1A60BB68064A1A607B68802251
:101000001A6000BF1437BD465DF8047B704700BF0F
:10101000E00000209401002080B582B000AF78602D
:10102000396001223968786803F040FD00BF083755
:10103000BD4680BD80B584B000AF78600023FB6002
:1010400027E0184AFB6852F823301B687A689A42F6
:101050001CD1144AFB6852F823305868114AFB68C7
:1010600052F823301B7A0122194604F049FC0D4A3C
:10107000FB6852F823301A680A49FB6851F823309C
:10108000083319461046FFF7C7FF08E0FB68013335
:10109000FB60044B1B7B1A46FB689342D1DB103785
:1010A000BD4680BDB043002080B584B000AF7860FD
:1010B0000023FB602AE01A4AFB6852F823301B68C1
:1010C0007A689A421FD1164AFB6852F823301B698E
:1010D0009B79002B08D1124AFB6852F823301B6918
:1010E0001B68184607F006FD0D4AFB6852F82330CE
:1010F0001B69184607F0FEFC094AFB6852F82330CA
:1011000000221A7508E0FB680133FB60044B1B7B6F
:101110001A46FB689342CEDB1037BD4680BD00BF48
:10112000B0430020B0B5B4B000AF00F091FF00F0C4
:10113000C9F800F0F5F900F0D3F900F0A7F900F0D4
:1011400029F900F055F94E4B07F1C0040FCB84E8A4
:101150000F0007F1C0030021184604F0A8FB034666
:10116000484A1360484B07F1B0040FCB84E80F00E6
:1011700007F1B0030021184604F099FB0346434AE7
:101180001360434B07F1A0040FCB84E80F0007F175
:10119000A0030021184604F08AFB03463D4A136071
:1011A0003B4B07F190040FCB84E80F0007F190034D
:1011B0000021184604F07BFB0346374A1360374B87
:1011C00007F174041D460FCD0FC495E8070084E8AD
:1011D000070007F174030021184604F008FB0346DA
:1011E0002F4A13602F4B07F158041D460FCD0FC433
:1011F00095E8070084E8070007F158030021184626
:1012000004F0F5FA0346284A1360284B07F13C0422
:101210001D460FCD0FC495E8070084E8070007F1CD
:101220003C030021184604F0E2FA0346204A13600A
:10123000204B07F120041D460FCD0FC495E8070091
:1012400084E8070007F120030021184604F0CFFAD4
:101250000346194A1360194B3C1D1D460FCD0FC4A0
:1012600095E8070084E807003B1D0021184604F0BC
:10127000BEFA0346124A136004F0B2FAFEE700BF5A
:101280005CA00008AC4300206CA000085042002085
:101290007CA00008A8430020484200208CA0000841
:1012A0004C420020A8A00008A8420020C4A00008CA
:1012B000A4430020E0A0000858430020FCA0000840
:1012C0000C43002080B594B000AF07F1200330221A
:1012D0000021184607F024FC07F10C0300221A60D5
:1012E0005A609A60DA601A610023BB60274B1B6C5E
:1012F000264A43F080531364244B1B6C03F0805345
:10130000BB60BB6800237B60214B1B68204A43F411
:10131000804313601E4B1B6803F480437B607B6833
:1013200001233B624FF480337B620223BB634FF4A3
:101330008003FB6319233B64A0237B640223BB640B
:101340000423FB6407F12003184602F021FA034648
:10135000002B01D000F0C6F90F23FB6002233B6194
:1013600000237B614FF48053BB610023FB6107F1D5
:101370000C030221184602F083FC0346002B01D027
:1013800000F0B0F900BF5037BD4680BD00380240C4
:101390000070004080B500AF124B134A1A60114B29
:1013A000124A5A600F4B00229A600E4B0022DA60FC
:1013B0000C4B4FF480421A610A4B00225A61094BD0
:1013C00000229A61074B0022DA61064B00221A6262
:1013D000044801F079FC0346002B01D000F082F9AB
:1013E00000BF80BD5442002000540040A086010090
:1013F00080B586B000AF07F1080300221A605A607A
:101400009A60DA603B4600221A605A601D4B4FF02A
:1014100080421A601B4B00225A601A4B00229A60CD
:10142000184B194ADA60174B00221A61154B00223B
:101430009A61144802F026FE0346002B01D000F00A
:1014400051F94FF48053BB6007F1080319460D486A
:1014500002F0E0FF0346002B01D000F043F9002327
:101460003B6000237B603B461946064803F0FCF9CD
:101470000346002B01D000F035F900BF1837BD46F8
:1014800080BD00BF5C43002000350C0080B500AF7C
:10149000114B124A1A60104B4FF4E1325A600E4B56
:1014A00000229A600C4B0022DA600B4B00221A617A
:1014B000094B0C225A61084B00229A61064B00220C
:1014C000DA61054803F060FA0346002B01D000F012
:1014D00009F900BF80BD00BF10430020001001408B
:1014E00080B582B000AF00237B600C4B1B6B0B4AB6
:1014F00043F480031363094B1B6B03F480037B608D
:101500007B6800220521462000F09CFE462000F06A
:10151000B5FE00BF0837BD4680BD00BF00380240A1
:1015200080B485B000AF0023FB60174B1B6B164ADD
:1015300043F080031363144B1B6B03F08003FB60C9
:10154000FB680023BB60104B1B6B0F4A43F0010389
:1015500013630D4B1B6B03F00103BB60BB680023DF
:101560007B60094B1B6B084A43F002031363064B75
:101570001B6B03F002037B607B6800BF1437BD4622
:101580005DF8047B704700BF0038024080B582B030
:1015900000AF78607868FFF74DFD00BF0837BD46A3
:1015A00080BD80B582B000AF78607868FFF77CFDC1
:1015B00000BF0837BD4680BD80B588B000AF7860F9
:1015C000144800F049FC00F093F8134B1B68134AD1
:1015D00012681946124800F097F80346114A136042
:1015E000104B1B68104A1168104A12681846FFF722
:1015F000F5F80C4B1B680D4A126811461846FFF7A8
:10160000E3FB0B48FEF7C8FF4FF47A7004F03BF998
:10161000FAE700BF5C430020AC43002050420020AA
:101620001043002054430020A843002048420020DB
:101630005442002080B582B000AF78604FF4FA7059
:1016400004F021F9044B1B68184600F0A7F800BF0E
:101650000837BD4680BD00BF5443002080B582B02E
:1016600000AF78604FF4FA7004F00DF9FFF772F9EB
:1016700000BF0837BD4680BD80B582B000AF78603E
:101680004FF4FA7004F0FFF8FFF7D6FB00BF0837FD
:10169000BD4680BD80B582B000AF78604FF4FA706F
:1016A00004F0F1F8FEF788FF00BF0837BD4680BDA3
:1016B00080B582B000AF78607B681B68084A9342AF
:1016C00002D100F0E7FC06E07B681B68B3F1804FB5
:1016D00001D100F00FFC00BF0837BD4680BD00BF40
:1016E0000000014080B400AF72B600BFFEE700000A
:1016F00080B400AF034B00221A7300BFBD465DF8F3
:10170000047B7047B043002080B586B000AFF8601E
:10171000B9607A60204B1B7B022B38D8402007F041
:10172000E1F903467B611C4B1B7B19461A4A7B6916
:1017300042F821307B69FA681A607B69BA685A609E
:101740007B697A68DA607B6900221A617B69002212
:101750001A757B69002283F834207B6900221A63A2
:101760007B6900229A637B69002283F83C200A4B44
:101770001B7B0133DAB2084B1A737B691A687B69E9
:10178000083319461046FFF747FC7B6900E0002349
:1017900018461837BD4680BDB043002080B584B0E0
:1017A00000AF78607B6893F83C30002B2DD000238D
:1017B000FB600DE07A68FB6808339B0013445B68AC
:1017C0007A6892F83C2010469847FB680133FB602A
:1017D0007B6893F834301A46FB689342EADB7B68F7
:1017E000002283F83C2010E07B689B6B002B04D028
:1017F0007B689B6BFA7A104698477B681B6BFA7A7A
:1018000011460122184604F07BF87B685B6807F1FB
:101810000B010122184604F03BFC0346012BE3D0E8
:101820001CE07B681B7D002B18D17B68D8687B6827
:1018300010330122194604F02BFC0346012B0DD175
:101840007B6801221A757B6818687B681B691968B8
:101850007B681B699B881A4603F0E3F87B68DB68AA
:10186000184604F0F5FC0346002BDAD1012004F001
:101870000AF897E780B586B000AFF860B960114606
:101880001A460B46FB8013467B71FB88002B1ED04B
:10189000082007F027F903467B617B69BA681A6064
:1018A0007B69FA889A807B697A799A71FB68DB6830
:1018B00079690122184604F023F80346002B01D170
:1018C000002305E0786907F015F9012300E0012302
:1018D00018461837BD4680BD80B485B000AFF860AB
:1018E000B9603B601346FB71FB6893F83430022B00
:1018F00021D8FB6893F834301A46FB680632B96881
:1019000043F82210FB790A2B02D1FB68BA681A63EC
:10191000FB6893F83430FA6808339B0013443A6844
:101920005A60FB6893F834300133DAB2FB6883F80D
:101930003420002300E0012318461437BD465DF82B
:10194000047B704780B582B000AF00237B60124BF0
:101950005B6C114A43F4804353640F4B5B6C03F49C
:1019600080437B607B6800233B600B4B1B6C0A4A07
:1019700043F080531364084B1B6C03F080533B60AF
:101980003B6800220F216FF0010000F05BFC00BFFC
:101990000837BD4680BD00BF0038024080B58AB020
:1019A00000AF786007F1140300221A605A609A6051
:1019B000DA601A617B681B68194A93422BD10023B5
:1019C0003B61184B1B6B174A43F002031363154B23
:1019D0001B6B03F002033B613B69C0237B61122355
:1019E000BB610123FB6103233B6204237B6207F19C
:1019F000140319460C4800F0CBFF0023FB60094B91
:101A00001B6C084A43F400131364064B1B6C03F46D
:101A10000013FB60FB6800BF2837BD4680BD00BFD8
:101A200000540040003802400004024080B584B0F9
:101A300000AF78607B681B68B3F1804F15D100233D
:101A4000FB600C4B1B6C0B4A43F001031364094B06
:101A50001B6C03F00103FB60FB68002205211C20C6
:101A600000F0F0FB1C2000F009FC00BF1037BD4661
:101A700080BD00BF0038024080B58AB000AF7860FA
:101A800007F1140300221A605A609A60DA601A6142
:101A90007B681B68344A934262D100233B61334B1D
:101AA0005B6C324A43F010035364304B5B6C03F0C1
:101AB00010033B613B690023FB602C4B1B6B2B4AE3
:101AC00043F001031363294B1B6B03F00103FB601D
:101AD000FB684FF4C0637B610223BB610023FB61A1
:101AE00003233B6207237B6207F114031946204856
:101AF00000F04EFF1F4B204A1A601E4B4FF0006251
:101B00005A601C4B40229A601A4B0022DA60194B33
:101B10004FF480621A61174B00225A61154B002264
:101B20009A61144B0022DA61124B00221A62114BA7
:101B300000225A620F4800F0AFFB0346002B01D091
:101B4000FFF7D0FD7B680B4A5A630A4A7B689363B0
:101B500000220521252000F075FB252000F08EFBDA
:101B600000BF2837BD4680BD00100140003802404C
:101B700000000240AC420020B864024080B58CB046
:101B800000AF78600023FB620023BB62002279680B
:101B9000192000F057FB192000F070FB0023FB60B8
:101BA0001E4B5B6C1D4A43F0010353641B4B5B6C83
:101BB00003F00103FB60FB6807F1100207F1140357
:101BC0001146184602F02CFA02F016FAF862FB6A87
:101BD000134AA2FB03239B0C013BBB62114B124A2D
:101BE0001A60104B40F2E732DA600E4ABB6A53606B
:101BF0000C4B00221A610B4B00229A60094802F03C
:101C000041FA0346002B04D1064802F08BFA034642
:101C100000E0012318463037BD4680BD0038024041
:101C200083DE1B43C04300200000014080B400AFAE
:101C3000FEE780B400AFFEE780B400AFFEE780B4FB
:101C400000AFFEE780B400AFFEE780B400AF00BF96
:101C5000BD465DF8047B704780B500AF024802F0D6
:101C6000D1FA00BF80BD00BFC043002080B500AFE7
:101C7000024802F0C7FA00BF80BD00BF5C430020ED
:101C800080B500AF024802F041FF00BF80BD00BF39
:101C90001043002080B500AF024800F03DFC00BFBB
:101CA00080BD00BFAC42002080B400AF01231846C5
:101CB000BD465DF8047B704780B582B000AF7860A8
:101CC000396006F0EBFD034616221A604FF0FF3331
:101CD00018460837BD4680BD80B582B000AF786039
:101CE0004FF0FF317868FFF7E7FFFEE780B586B079
:101CF00000AFF860B9607A6000237B610AE0AFF35F
:101D000000800146BB685A1CBA60CAB21A707B696F
:101D100001337B617A697B689A42F0DB7B68184605
:101D20001837BD4680BD80B586B000AFF860B96099
:101D30007A6000237B6109E0BB685A1CBA601B789B
:101D40001846AFF300807B6901337B617A697B6859
:101D50009A42F1DB7B6818461837BD4680BD80B4D7
:101D600083B000AF78604FF0FF3318460C37BD46A4
:101D70005DF8047B704780B483B000AF7860396051
:101D80003B684FF400525A60002318460C37BD469A
:101D90005DF8047B704780B483B000AF78600123A6
:101DA00018460C37BD465DF8047B704780B485B09B
:101DB00000AFF860B9607A60002318461437BD465A
:101DC0005DF8047B7047000080B586B000AF786096
:101DD000144A154BD31A7B617B693B61134B1B681B
:101DE000002B02D1114B124A1A60104B1A687B6803
:101DF00013443A699A4207D206F050FD03460C227A
:101E00001A604FF0FF3309E0084B1B68FB60074B7B
:101E10001A687B681344054A1360FB681846183734
:101E2000BD4680BD00000220000400009403002095
:101E30006844002080B400AF064BD3F88830054AD0
:101E400043F47003C2F8883000BFBD465DF8047BE0
:101E5000704700BF00ED00E080B582B000AF786051
:101E6000074B00221A75064A7B689361044B9B69F5
:101E7000184602F057F900BF0837BD4680BD00BFC5
:101E80000844002080B584B000AF7860184B1B7DFB
:101E9000042B28D8102006F025FE0346FB60144BC7
:101EA0001B7D1946124AFB6842F82130FB6800226C
:101EB0009A60FB6800225A60FB6800221A607B6807
:101EC000002B03D0FB687A68DA6004E000237B60B3
:101ED000FB687A68DA60064B1B7D0133DAB2044B8B
:101EE0001A75FB6800E0002318461037BD4680BD18
:101EF0000844002080B582B000AF00237B6049E039
:101F00002A4A7B6852F823309B68022B16D1274A55
:101F10007B6852F8232025497B6851F823301268EA
:101F20005A60224A7B6852F8233000221A601F4A06
:101F30007B6852F8233001229A6028E01B4A7B68B4
:101F400052F823309B68002B21D0184A7B6852F846
:101F500023309B68012B1AD1144A7B6852F8233036
:101F60005B68002B0CD1114A7B6852F823300022A9
:101F70009A600E4A7B6852F82330DB68984706E087
:101F80000A4A7B6852F823305A68013A5A607B68E3
:101F900001337B60054B1B7D1A467B689342AFDBA8
:101FA00000BF00BF0837BD4680BD00BF0844002009
:101FB00080B483B000AF7860396000BF7B689B68F5
:101FC000022BFBD07B683A681A607B6802229A6019
:101FD00000BF0C37BD465DF8047B704780B483B00A
:101FE00000AF78607B6800225A607B6800229A60AC
:101FF00000BF0C37BD465DF8047B7047DFF834D076
:102000000D480E490E4A002302E0D458C450043350
:10201000C4188C42F9D30B4A0B4C002301E0136027
:102020000432A242FBD3FFF705FF06F033FDFFF7B2
:1020300079F870470000022000000020C400002052
:1020400034A40008C400002068440020FEE700001B
:1020500080B500AF0E4B1B680D4A43F4007313604C
:102060000B4B1B680A4A43F480631360084B1B68E0
:10207000074A43F480731360032000F0D8F800206F
:10208000FFF77CFDFFF75EFC0023184680BD00BF14
:10209000003C024080B400AF064B1B781A46064B4A
:1020A0001B681344044A136000BFBD465DF8047BFF
:1020B000704700BF580000202444002080B400AFC7
:1020C000034B1B681846BD465DF8047B704700BF94
:1020D0002444002080B485B000AF78607B6803F0B2
:1020E0000703FB600C4BDB68BB60BA684FF6FF036D
:1020F0001340BB60FB681A02BB68134343F0BF6325
:1021000043F40033BB60044ABB68D36000BF14379C
:10211000BD465DF8047B704700ED00E080B400AF81
:10212000044BDB681B0A03F007031846BD465DF845
:10213000047B704700ED00E080B483B000AF03463D
:10214000FB7197F90730002B0BDBFB7903F01F02C3
:10215000074997F907305B09012000FA02F241F8BC
:10216000232000BF0C37BD465DF8047B704700BFDD
:1021700000E100E080B483B000AF03463960FB713A
:1021800097F90730002B0ADB3B68DAB20C4997F964
:1021900007301201D2B20B4483F800230AE03B68F7
:1021A000DAB20849FB7903F00F03043B1201D2B203
:1021B0000B441A7600BF0C37BD465DF8047B7047B0
:1021C00000E100E000ED00E080B489B000AFF8600D
:1021D000B9607A60FB6803F00703FB61FB69C3F138
:1021E0000703042B28BF0423BB61FB690433062BC0
:1021F00002D9FB69033B00E000237B614FF0FF3213
:10220000BB6902FA03F3DA43BB681A407B699A4060
:102210004FF0FF317B6901FA03F3D9437B680B4030
:10222000134318462437BD465DF8047B704780B5DC
:1022300082B000AF78607868FFF74CFF00BF0837C6
:10224000BD4680BD80B586B000AF0346B9607A60F8
:10225000FB7300237B61FFF761FF78617A68B968DF
:102260007869FFF7B1FF024697F90F30114618461B
:10227000FFF780FF00BF1837BD4680BD80B582B034
:1022800000AF0346FB7197F907301846FFF754FF7C
:1022900000BF0837BD4680BD80B586B000AF78600E
:1022A00000237B61FFF70AFF38617B68002B01D1B7
:1022B000012399E07B68022283F835207B680022A5
:1022C00083F834207B681B681A687B681B6822F0DF
:1022D00001021A600FE0FFF7F1FE02463B69D31AD4
:1022E000052B08D97B6820225A657B68032283F876
:1022F0003520032378E07B681B681B6803F001032B
:10230000002BE8D17B681B681B687B617A69384BBE
:1023100013407B617B685A687B689B681A437B68C3
:10232000DB681A437B681B691A437B685B691A4345
:102330007B689B691A437B68DB691A437B681B6A6D
:1023400013437A6913437B617B685B6A042B07D173
:102350007B68DA6A7B681B6B13437A6913437B6182
:102360007B681B687A691A607B681B685B697B61A4
:102370007B6923F007037B617B685B6A7A6913439F
:102380007B617B685B6A042B17D17B689B6A7A69E7
:1023900013437B617B68DB6A002B0ED0786800F00A
:1023A0007BFA0346002B08D07B6840225A657B6885
:1023B000012283F83520012316E07B681B687A69C7
:1023C0005A61786800F032FA0346FB607B68DB6D87
:1023D0003F229A40FB689A607B6800225A657B68BE
:1023E000012283F83520002318461837BD4680BDEA
:1023F0003F8010F080B584B000AF78607B689B6D43
:10240000FB60FFF75BFEB8607B6893F83530DBB2AA
:10241000022B08D07B6880225A657B68002283F8F3
:102420003420012352E07B681B681A687B681B68B4
:1024300022F016021A607B681B685A697B681B6869
:1024400022F080025A617B681B6C002B03D17B68F1
:102450009B6C002B07D07B681B681A687B681B6825
:1024600022F008021A607B681B681A687B681B6888
:1024700022F001021A6013E0FFF720FE0246BB685B
:10248000D31A052B0CD97B6820225A657B6803225E
:1024900083F835207B68002283F83420032315E07D
:1024A0007B681B681B6803F00103002BE4D17B6889
:1024B000DB6D3F229A40FB689A607B68012283F8BB
:1024C00035207B68002283F834200023184610371B
:1024D000BD4680BD80B483B000AF78607B6893F860
:1024E0003530DBB2022B04D07B6880225A65012391
:1024F0000CE07B68052283F835207B681B681A682E
:102500007B681B6822F001021A60002318460C3712
:10251000BD465DF8047B704780B586B000AF78603B
:102520000023BB60924B1B68924AA2FB03239B0AC9
:102530007B617B689B6D3B613B691B68FB607B68D3
:10254000DB6D08229A40FB681340002B1AD07B6891
:102550001B681B6803F00403002B13D07B681B6807
:102560001A687B681B6822F004021A607B68DB6DC6
:1025700008229A403B699A607B685B6D43F00102D8
:102580007B685A657B68DB6D01229A40FB681340CB
:10259000002B12D07B681B685B6903F08003002B63
:1025A0000BD07B68DB6D01229A403B699A607B68A7
:1025B0005B6D43F002027B685A657B68DB6D042229
:1025C0009A40FB681340002B12D07B681B681B6885
:1025D00003F00203002B0BD07B68DB6D04229A40D2
:1025E0003B699A607B685B6D43F004027B685A65C7
:1025F0007B68DB6D10229A40FB681340002B43D0B0
:102600007B681B681B6803F00803002B3CD07B68C9
:10261000DB6D10229A403B699A607B681B681B68DF
:1026200003F48023002B18D07B681B681B6803F41D
:102630000023002B08D17B681B6C002B24D07B6807
:102640001B6C786898471FE07B689B6C002B1BD045
:102650007B689B6C7868984716E07B681B681B68F2
:1026600003F48073002B07D17B681B681A687B68B2
:102670001B6822F008021A607B681B6C002B03D0D9
:102680007B681B6C786898477B68DB6D20229A40DA
:10269000FB681340002B00F08E807B681B681B6872
:1026A00003F01003002B00F086807B68DB6D202296
:1026B0009A403B699A607B6893F83530DBB2052B12
:1026C00036D17B681B681A687B681B6822F016028B
:1026D0001A607B681B685A697B681B6822F080025D
:1026E0005A617B681B6C002B03D17B689B6C002BB1
:1026F00007D07B681B681A687B681B6822F0080299
:102700001A607B68DB6D3F229A403B699A607B6868
:10271000012283F835207B68002283F834207B680F
:102720001B6D002B7DD07B681B6D7868984778E027
:102730007B681B681B6803F48023002B1CD07B681C
:102740001B681B6803F40023002B08D17B685B6CBB
:10275000002B30D07B685B6C786898472BE07B68F7
:10276000DB6B002B27D07B68DB6B7868984722E017
:1027700050000020B5814E1B7B681B681B6803F46A
:102780008073002B0FD17B681B681A687B681B68FD
:1027900022F010021A607B68012283F835207B68E2
:1027A000002283F834207B68DB6B002B03D07B682E
:1027B000DB6B786898477B685B6D002B32D07B6859
:1027C0005B6D03F00103002B22D07B68052283F8A8
:1027D00035207B681B681A687B681B6822F0010241
:1027E0001A60BB680133BB607A699A4207D37B6881
:1027F0001B681B6803F00103002BF2D100E000BF4F
:102800007B68012283F835207B68002283F834201E
:102810007B68DB6C002B05D07B68DB6C78689847A5
:1028200000E000BF1837BD4680BD00BF80B485B052
:1028300000AF78607B681B68DBB2103B144AA2FBD8
:1028400003231B09FB60134AFB6813441B781A46D9
:102850007B68DA65FB68032B09D97B681B6823F466
:102860007F7323F003031A1D7B689A6507E07B687A
:102870001B6823F47F7323F003037A6893657B68F6
:102880009B6D18461437BD465DF8047B704700BF4A
:10289000ABAAAAAAD0A1000880B485B000AF786026
:1028A0000023FB737B689B6ABB607B689B69002B82
:1028B0001FD1BB68032B56D801A252F823F000BFEA
:1028C000D1280008E3280008D1280008672900085B
:1028D0007B68DB6A03F08073002B46D00123FB7317
:1028E00043E07B68DB6AB3F1C07F40D10123FB7317
:1028F0003DE07B689B69B3F5005F21D1BB68032B8A
:1029000037D801A252F823F0192900081F2900081E
:1029100019290008312900080123FB7330E07B6886
:10292000DB6A03F08073002B25D00123FB7322E0C8
:102930007B68DB6AB3F1C07F1FD10123FB731CE00E
:10294000BB68022B03D9BB68032B03D018E001231B
:10295000FB7315E07B68DB6A03F08073002B0ED0FD
:102960000123FB730BE000BF0AE000BF08E000BFDB
:1029700006E000BF04E000BF02E000BF00E000BFCF
:10298000FB7B18461437BD465DF8047B704700BFDB
:1029900080B489B000AF7860396000237B61002388
:1029A0003B610023BB610023FB616BE10122FB69FA
:1029B00002FA03F37B613B681B687A6913403B6151
:1029C0003A697B699A4240F05A813B685B6803F040
:1029D0000303012B05D03B685B6803F00303022B64
:1029E00030D17B689B68BB61FB695B00032202FA04
:1029F00003F3DB43BA691340BB613B68DA68FB69E8
:102A00005B0002FA03F3BA691343BB617B68BA69DE
:102A10009A607B685B68BB610122FB6902FA03F381
:102A2000DB43BA691340BB613B685B681B0903F079
:102A30000102FB6902FA03F3BA691343BB617B68C5
:102A4000BA695A603B685B6803F00303032B17D035
:102A50007B68DB68BB61FB695B00032202FA03F35E
:102A6000DB43BA691340BB613B689A68FB695B0052
:102A700002FA03F3BA691343BB617B68BA69DA608F
:102A80003B685B6803F00303022B23D1FB69DA0880
:102A90007B68083253F82230BB61FB6903F00703FF
:102AA0009B000F2202FA03F3DB43BA691340BB61B8
:102AB0003B681A69FB6903F007039B0002FA03F302
:102AC000BA691343BB61FB69DA087B680832B969EC
:102AD00043F822107B681B68BB61FB695B00032223
:102AE00002FA03F3DB43BA691340BB613B685B68DE
:102AF00003F00302FB695B0002FA03F3BA691343B4
:102B0000BB617B68BA691A603B685B6803F4403359
:102B1000002B00F0B4800023FB60604B5B6C5F4ACD
:102B200043F4804353645D4B5B6C03F48043FB6070
:102B3000FB685B4AFB699B08023352F82330BB6198
:102B4000FB6903F003039B000F2202FA03F3DB434C
:102B5000BA691340BB617B68524A93422BD07B68B1
:102B6000514A934225D07B68504A93421FD07B68DC
:102B70004F4A934219D07B684E4A934213D07B68E8
:102B80004D4A93420DD07B684C4A934207D07B68F4
:102B90004B4A934201D107230EE008230CE00623A1
:102BA0000AE0052308E0042306E0032304E00223EF
:102BB00002E0012300E00023FA6902F00302920020
:102BC0009340BA691343BB613549FB699B080233E3
:102BD000BA6941F823203B4B1B68BB613B69DB436F
:102BE000BA691340BB613B685B6803F48033002B18
:102BF00003D0BA693B691343BB61324ABB691360B6
:102C0000304B5B68BB613B69DB43BA691340BB6116
:102C10003B685B6803F40033002B03D0BA693B695F
:102C20001343BB61274ABB695360264B9B68BB615A
:102C30003B69DB43BA691340BB613B685B6803F4E3
:102C40008013002B03D0BA693B691343BB611D4A53
:102C5000BB6993601B4BDB68BB613B69DB43BA69B3
:102C60001340BB613B685B6803F40013002B03D087
:102C7000BA693B691343BB61124ABB69D360FB6904
:102C80000133FB61FB690F2B7FF690AE00BF00BFE5
:102C90002437BD465DF8047B704700BF0038024012
:102CA00000380140000002400004024000080240D9
:102CB000000C0240001002400014024000180240C4
:102CC000001C0240003C014080B584B000AF786039
:102CD0007B68002B01D101232BE17B6893F83D3009
:102CE000DBB2002B06D17B68002283F83C20786899
:102CF000FEF754FE7B68242283F83D207B681B6826
:102D00001A687B681B6822F001021A607B681B68E6
:102D10001A687B681B6842F400421A607B681B6873
:102D20001A687B681B6822F400421A6001F050F9AF
:102D3000F8607B685B68814A934207D8FB68804AE9
:102D4000934294BF01230023DBB206E0FB687D4A77
:102D5000934294BF01230023DBB2002B01D0012357
:102D6000E7E0FB68784AA2FB03239B0CBB607B680F
:102D70001B685B6823F03F017B681B68BA680A43E5
:102D80005A607B681B681B6A23F03F017B685B68A5
:102D90006A4A934202D8BB68013309E0BB684FF42A
:102DA000967202FB03F3694AA2FB03239B090133DA
:102DB0007A6812680B4313627B681B68DB6923F433
:102DC0004F4222F0FF027B685B685C498B4219D856
:102DD000FB68591E7B685B685B00B1FBF3F3591C11
:102DE00040F6FC730B40002B0AD0FB68591E7B6831
:102DF0005B685B00B1FBF3F30133C3F30B0351E0FA
:102E000004234FE07B689B68002B11D1FB68581EA0
:102E10007B6859680B465B000B44B0FBF3F301334E
:102E2000C3F30B03002B0CBF01230023DBB212E022
:102E3000FB68581E7B6859680B469B000B44990041
:102E40000B44B0FBF3F30133C3F30B03002B0CBFB4
:102E500001230023DBB2002B01D0012322E07B6899
:102E60009B68002B0ED1FB68581E7B6859680B4687
:102E70005B000B44B0FBF3F30133C3F30B0343F4E8
:102E800000430FE0FB68581E7B6859680B469B00A7
:102E90000B4499000B44B0FBF3F30133C3F30B0372
:102EA00043F44043796809681343CB617B681B682E
:102EB0001B6823F0C0017B68DA697B681B6A1A43D0
:102EC0007B681B680A431A607B681B689B6823F455
:102ED000034323F0FF037A6811697A68D2681143CB
:102EE0007A6812680B4393607B681B68DB6823F089
:102EF000FF017B685A697B689B691A437B681B6882
:102F00000A43DA607B681B681A687B681B6842F0BA
:102F100001021A607B6800221A647B68202283F811
:102F20003D207B6800221A637B68002283F83E20E4
:102F3000002318461037BD4680BD00BFA0860100A3
:102F40007F841E00FF083D0083DE1B43D34D6210CB
:102F500080B58CB002AFF8607A601A460B467B8170
:102F600013463B81FFF7AAF87862FB6893F83D307F
:102F7000DBB2202B40F00B827B6A009319230122E5
:102F80007C49F86800F0D8FA0346002B01D00223F0
:102F9000FEE1FB6893F83C30012B01D10223F7E1FD
:102FA000FB68012283F83C20FB681B681B6803F068
:102FB0000103012B07D0FB681B681A68FB681B68BC
:102FC00042F001021A60FB681B681A68FB681B6804
:102FD00022F400621A60FB68222283F83D20FB681D
:102FE000102283F83E20FB6800221A64FB687A688E
:102FF0005A62FB683A895A85FB685B8D9AB2FB6816
:103000001A85FB685C4ADA6279897B6A3A6BF868F0
:1030100000F0C4F90346002B01D00123B8E1FB689E
:103020001B8D002B13D100233B62FB681B685B697F
:103030003B62FB681B689B693B623B6AFB681B68E1
:103040001A68FB681B6842F400721A608CE1FB6826
:103050001B8D012B1BD1FB681B681A68FB681B6862
:1030600022F480621A600023FB61FB681B685B69C5
:10307000FB61FB681B689B69FB61FB69FB681B6864
:103080001A68FB681B6842F400721A606CE1FB6806
:103090001B8D022B1BD1FB681B681A68FB681B6821
:1030A00022F480621A60FB681B681A68FB681B6860
:1030B00042F400621A600023BB61FB681B685B6915
:1030C000BB61FB681B689B69BB61BB694CE1FB682A
:1030D0001B681A68FB681B6842F480621A60002350
:1030E0007B61FB681B685B697B61FB681B689B6994
:1030F0007B617B6938E1FB681B8D032B00F2F1805B
:10310000FB681B8D012B23D17A6A396BF86800F0BC
:10311000E9FA0346002B01D0012339E1FB681B6863
:103120001A69FB685B6AD2B21A70FB685B6A5A1C48
:10313000FB685A62FB681B8D013B9AB2FB681A85DB
:10314000FB685B8D9BB2013B9AB2FB685A850BE131
:10315000FB681B8D022B4ED17B6A00933B6B0022D8
:103160000649F86800F0E8F90346002B08D001236F
:103170000EE100BF020010000000FFFF040001008C
:10318000FB681B681A68FB681B6842F400721A60CF
:10319000FB681B681A69FB685B6AD2B21A70FB682D
:1031A0005B6A5A1CFB685A62FB681B8D013B9AB232
:1031B000FB681A85FB685B8D9BB2013B9AB2FB688A
:1031C0005A85FB681B681A69FB685B6AD2B21A7081
:1031D000FB685B6A5A1CFB685A62FB681B8D013BEB
:1031E0009AB2FB681A85FB685B8D9BB2013B9AB271
:1031F000FB685A85B8E07B6A00933B6B0022664906
:10320000F86800F099F90346002B01D00123BFE0D4
:10321000FB681B681A68FB681B6822F480621A60EE
:10322000FB681B681A69FB685B6AD2B21A70FB689C
:103230005B6A5A1CFB685A62FB681B8D013B9AB2A1
:10324000FB681A85FB685B8D9BB2013B9AB2FB68F9
:103250005A857B6A00933B6B00224F49F86800F067
:103260006BF90346002B01D0012391E0FB681B683A
:103270001A68FB681B6842F400721A60FB681B68DE
:103280001A69FB685B6AD2B21A70FB685B6A5A1CE7
:10329000FB685A62FB681B8D013B9AB2FB681A857A
:1032A000FB685B8D9BB2013B9AB2FB685A85FB6859
:1032B0001B681A69FB685B6AD2B21A70FB685B6AAA
:1032C0005A1CFB685A62FB681B8D013B9AB2FB6873
:1032D0001A85FB685B8D9BB2013B9AB2FB685A85ED
:1032E00042E07A6A396BF86800F0FCF90346002B7B
:1032F00001D001234CE0FB681B681A69FB685B6A1C
:10330000D2B21A70FB685B6A5A1CFB685A62FB688F
:103310001B8D013B9AB2FB681A85FB685B8D9BB2E3
:10332000013B9AB2FB685A85FB681B685B6903F036
:103330000403042B18D1FB681B681A69FB685B6ADD
:10334000D2B21A70FB685B6A5A1CFB685A62FB684F
:103350001B8D013B9AB2FB681A85FB685B8D9BB2A3
:10336000013B9AB2FB685A85FB681B8D002B7FF4EA
:10337000C2AEFB68202283F83D20FB68002283F860
:103380003E20FB68002283F83C20002300E002235B
:1033900018462837BD4680BD0400010080B588B0BE
:1033A00002AFF8607A603B600B467B81FB68DB6AAA
:1033B0007B61FB681B681A68FB681B6842F48062CB
:1033C0001A607B69082B06D07B69012B03D07B69CF
:1033D00013F5803F08D1FB681B681A68FB681B68FF
:1033E00042F480721A600BE0FB681B6B112B07D153
:1033F000FB681B681A68FB681B6842F480721A60DD
:103400003B6800937B6800224FF00111F86800F0E0
:1034100093F80346002B0DD0FB681B681B6803F470
:103420008073B3F5807F03D1FB684FF400721A6498
:10343000032379E0FB681B69B3F5804F08D17B89D2
:10344000DBB243F00103DAB2FB681B681A615FE08C
:103450007B89DB11DBB203F00603DBB263F00F0301
:10346000DAB2FB681B681A613B687A683049F86811
:1034700000F0B9F80346002B01D0012354E07B890A
:10348000DAB2FB681B681A613B687A682949F868F8
:1034900000F0A9F80346002B01D0012344E00023EB
:1034A0003B61FB681B685B693B61FB681B689B6950
:1034B0003B613B69FB681B681A68FB681B6842F448
:1034C00080721A603B6800937B6800224FF0011104
:1034D000F86800F031F80346002B0DD0FB681B683C
:1034E0001B6803F48073B3F5807F03D1FB684FF44E
:1034F00000721A64032317E07B89DB11DBB203F04F
:103500000603DBB263F00E03DAB2FB681B681A61D4
:103510003B687A680749F86800F065F80346002BB5
:1035200001D0012300E0002318461837BD4680BDB6
:10353000080001000200010080B584B000AFF8600F
:10354000B9603B601346FB7125E03B68B3F1FF3F78
:1035500021D0FEF7B3FD0246BB69D31A3A689A42FE
:1035600002D33B68002B16D1FB6800221A63FB686C
:10357000202283F83D20FB68002283F83E20FB6870
:103580001B6C43F02002FB681A64FB68002283F87E
:103590003C20012323E0BB681B0CDBB2012B0DD1C7
:1035A000FB681B685B69DA43BB6813409BB2002B66
:1035B0000CBF01230023DBB21A460CE0FB681B683A
:1035C0009B69DA43BB6813409BB2002B0CBF0123FD
:1035D0000023DBB21A46FB799A42B6D00023184684
:1035E0001037BD4680BD80B584B000AFF860B960CB
:1035F0007A603B6051E0FB681B685B6903F48063A1
:10360000B3F5806F23D1FB681B681A68FB681B68E1
:1036100042F400721A60FB681B686FF480625A61A2
:10362000FB6800221A63FB68202283F83D20FB68B8
:10363000002283F83E20FB681B6C43F00402FB6809
:103640001A64FB68002283F83C20012346E07B6873
:10365000B3F1FF3F21D0FEF731FD02463B68D31A9C
:103660007A689A4202D37B68002B16D1FB6800224D
:103670001A63FB68202283F83D20FB68002283F850
:103680003E20FB681B6C43F02002FB681A64FB6859
:10369000002283F83C20012320E0BB681B0CDBB236
:1036A000012B0CD1FB681B685B69DA43BB681340D4
:1036B0009BB2002B14BF01230023DBB20BE0FB689D
:1036C0001B689B69DA43BB6813409BB2002B14BF95
:1036D00001230023DBB2002B8DD1002318461037C5
:1036E000BD4680BD80B584B000AFF860B9607A6037
:1036F00042E0FB681B685B6903F01003102B19D1D3
:10370000FB681B686FF010025A61FB6800221A63A5
:10371000FB68202283F83D20FB68002283F83E20CE
:10372000FB681A6CFB681A64FB68002283F83C2073
:10373000012329E0FEF7C2FC02467B68D31ABA686F
:103740009A4202D3BB68002B16D1FB6800221A6391
:10375000FB68202283F83D20FB68002283F83E208E
:10376000FB681B6C43F02002FB681A64FB680022B4
:1037700083F83C20012307E0FB681B685B6903F0CA
:103780004003402BB5D1002318461037BD4680BDFD
:1037900080B586B000AF78607B68002B01D1012333
:1037A00064E27B681B6803F00103002B75D0A34B18
:1037B0009B6803F00C03042B0CD0A04B9B6803F018
:1037C0000C03082B12D19D4B5B6803F48003B3F507
:1037D000800F0BD1994B1B6803F40033002B5BD097
:1037E0007B685B68002B57D101233FE27B685B68F5
:1037F000B3F5803F06D1914B1B68904A43F4803368
:1038000013601DE07B685B68B3F5A02F0CD18B4B78
:103810001B688A4A43F480231360884B1B68874ADD
:1038200043F4803313600BE0844B1B68834A23F41A
:1038300080331360814B1B68804A23F4802313601C
:103840007B685B68002B13D0FEF738FC386108E01A
:10385000FEF734FC02463B69D31A642B01D90323DB
:1038600004E2764B1B6803F40033002BF0D014E025
:10387000FEF724FC386108E0FEF720FC02463B69B5
:10388000D31A642B01D90323F0E16C4B1B6803F4BA
:103890000033002BF0D100E000BF7B681B6803F011
:1038A0000203002B63D0654B9B6803F00C03002BD5
:1038B0000BD0624B9B6803F00C03082B1CD15F4BB1
:1038C0005B6803F48003002B16D15C4B1B6803F08C
:1038D0000203002B05D07B68DB68012B01D001239C
:1038E000C4E1564B1B6823F0F8027B681B69DB00C0
:1038F000524913430B603AE07B68DB68002B20D011
:103900004F4B01221A60FEF7D9FB386108E0FEF741
:10391000D5FB02463B69D31A022B01D90323A5E14B
:10392000464B1B6803F00203002BF0D0434B1B688F
:1039300023F0F8027B681B69DB00404913430B60EE
:1039400015E03F4B00221A60FEF7B8FB386108E033
:10395000FEF7B4FB02463B69D31A022B01D90323BD
:1039600084E1364B1B6803F00203002BF0D17B6827
:103970001B6803F00803002B30D07B685B69002BC9
:1039800016D0304B01221A60FEF798FB386108E030
:10399000FEF794FB02463B69D31A022B01D903239D
:1039A00064E1264B5B6F03F00203002BF0D015E0BF
:1039B000244B00221A60FEF781FB386108E0FEF715
:1039C0007DFB02463B69D31A022B01D903234DE14B
:1039D0001A4B5B6F03F00203002BF0D17B681B686E
:1039E00003F00403002B00F0A0800023FB75134BB1
:1039F0001B6C03F08053002B0FD10023BB600F4BD7
:103A00001B6C0E4A43F0805313640C4B1B6C03F089
:103A10008053BB60BB680123FB750B4B1B6803F431
:103A20008073002B21D1084B1B68074A43F4807335
:103A30001360FEF743FB386111E000BF003802401D
:103A400000004742800E474200700040FEF736FB00
:103A500002463B69D31A022B01D9032306E1854BA9
:103A60001B6803F48073002BF0D07B689B68012BEC
:103A700006D1814B1B6F804A43F0010313671CE0A2
:103A80007B689B68052B0CD17B4B1B6F7A4A43F0FC
:103A900004031367784B1B6F774A43F001031367E6
:103AA0000BE0754B1B6F744A23F001031367724BD5
:103AB0001B6F714A23F0040313677B689B68002B1C
:103AC00015D0FEF7FBFA38610AE0FEF7F7FA024676
:103AD0003B69D31A41F28832934201D90323C5E0EE
:103AE000654B1B6F03F00203002BEED014E0FEF7D2
:103AF000E5FA38610AE0FEF7E1FA02463B69D31ABB
:103B000041F28832934201D90323AFE05A4B1B6F35
:103B100003F00203002BEED1FB7D012B05D1564BA8
:103B20001B6C554A23F0805313647B689B69002B00
:103B300000F09B80504B9B6803F00C03082B5CD07B
:103B40007B689B69022B41D14C4B00221A60FEF727
:103B5000B5FA386108E0FEF7B1FA02463B69D31ABC
:103B6000022B01D9032381E0434B1B6803F0007350
:103B7000002BF0D17B68DA697B681B6A1A437B688B
:103B80005B6A9B011A437B689B6A5B08013B1B04D1
:103B90001A437B68DB6A1B06374913434B60374B7C
:103BA00001221A60FEF78AFA386108E0FEF786FA09
:103BB00002463B69D31A022B01D9032356E02E4B50
:103BC0001B6803F00073002BF0D04EE02B4B00225B
:103BD0001A60FEF773FA386108E0FEF76FFA0246E2
:103BE0003B69D31A022B01D903233FE0224B1B6808
:103BF00003F00073002BF0D137E07B689B69012B49
:103C000001D1012332E01C4B5B68FB607B689B6940
:103C1000012B28D0FB6803F480027B68DB699A42A1
:103C200021D1FB6803F03F027B681B6A9A421AD1DC
:103C3000FA6847F6C07313407A68526A9201934259
:103C400011D1FB6803F440327B689B6A5B08013B3F
:103C50001B049A4207D1FB6803F070627B68DB6A41
:103C60001B069A4201D0012300E0002318461837B2
:103C7000BD4680BD007000400038024060004742F1
:103C800080B584B000AF786039607B68002B01D1CB
:103C90000123CCE0684B1B6803F007033A689A42A3
:103CA0000CD9654B3A68D2B21A70634B1B6803F0AB
:103CB00007033A689A4201D00123B8E07B681B6889
:103CC00003F00203002B20D07B681B6803F0040381
:103CD000002B05D0594B9B68584A43F4E05393603E
:103CE0007B681B6803F00803002B05D0534B9B68CF
:103CF000524A43F460439360504B9B6823F0F002B8
:103D00007B689B684D4913438B607B681B6803F09D
:103D10000103002B44D07B685B68012B07D1474B24
:103D20001B6803F40033002B19D101237FE07B686B
:103D30005B68022B03D07B685B68032B07D13F4B8A
:103D40001B6803F00073002B09D101236FE03B4B8C
:103D50001B6803F00203002B01D1012367E0374BFE
:103D60009B6823F003027B685B68344913438B60D4
:103D7000FEF7A4F9F8600AE0FEF7A0F90246FB6836
:103D8000D31A41F28832934201D903234FE02B4BDF
:103D90009B6803F00C027B685B689B009A42EBD146
:103DA000254B1B6803F007033A689A420CD2224B5A
:103DB0003A68D2B21A70204B1B6803F007033A68C6
:103DC0009A4201D0012332E07B681B6803F00403B0
:103DD000002B08D0194B9B6823F4E0527B68DB680A
:103DE000164913438B607B681B6803F00803002BA4
:103DF00009D0124B9B6823F460427B681B69DB008F
:103E00000E4913438B6000F021F802460B4B9B6870
:103E10001B0903F00F030A49CB5C22FA03F3094A9A
:103E20001360094B1B681846FDF7A8FE00231846CF
:103E30001037BD4680BD00BF003C02400038024044
:103E4000B8A100085000002054000020B0B584B094
:103E500000AF002179600021F96000213960002164
:103E6000B9605249896801F00C0108290DD0082970
:103E700000F29480002902D0042903D08EE04C4B3C
:103E8000BB608EE04B4BBB608BE04849496801F05A
:103E90003F0179604549496801F48001002924D037
:103EA00042494968890908464FF0000140F2FF1471
:103EB0004FF0000500EA040201EA05033D4901FB59
:103EC00003F0002101FB02F144183A49A2FB010171
:103ED000631819467B681A464FF00003FCF7E0F9B7
:103EE00002460B461346FB604AE0304B5B689B0979
:103EF0001A464FF0000340F2FF104FF0000102EAB3
:103F0000000403EA0105204629464FF000024FF065
:103F100000034B0143EAD063420110461946001BDF
:103F200061EB05014FF000024FF000038B0143EA03
:103F300090638201121A63EB01034FF000004FF00F
:103F40000001D90041EA5271D00002460B46121915
:103F500045EB03034FF000004FF00001990241EAE6
:103F60009251900202460B46104619467B681A464B
:103F70004FF00003FCF794F902460B461346FB6032
:103F80000A4B5B681B0C03F0030301335B003B60CF
:103F9000FA683B68B2FBF3F3BB6002E0044BBB6022
:103FA00000BFBB6818461037BD46B0BD00380240A0
:103FB0000024F40040787D0180B400AF034B1B68FF
:103FC0001846BD465DF8047B704700BF50000020D6
:103FD00080B500AFFFF7F0FF0246054B9B689B0AD8
:103FE00003F007030349CB5C22FA03F3184680BDB4
:103FF00000380240C8A1000880B500AFFFF7DCFF21
:104000000246054B9B685B0B03F007030349CB5C3F
:1040100022FA03F3184680BD00380240C8A1000808
:1040200080B483B000AF786039607B680F221A607B
:10403000124B9B6803F003027B685A600F4B9B682E
:1040400003F0F0027B689A600C4B9B6803F4E0522B
:104050007B68DA60094B9B68DB0803F4E0527B68FD
:104060001A61074B1B6803F007023B681A6000BF28
:104070000C37BD465DF8047B704700BF0038024036
:10408000003C024080B582B000AF78607B68002BB6
:1040900001D1012341E07B6893F83D30DBB2002B76
:1040A00006D17B68002283F83C207868FDF7BEFCCF
:1040B0007B68022283F83D207B681A687B680433A2
:1040C0001946104600F096FA7B68012283F84620D4
:1040D0007B68012283F83E207B68012283F83F2021
:1040E0007B68012283F840207B68012283F841200D
:1040F0007B68012283F842207B68012283F84320F9
:104100007B68012283F844207B68012283F84520E4
:104110007B68012283F83D20002318460837BD46FE
:1041200080BD000080B485B000AF78607B6893F8F4
:104130003D30DBB2012B01D001234EE07B6802222F
:1041400083F83D207B681B68DA687B681B6842F057
:104150000102DA607B681B68234A934222D07B68A5
:104160001B68B3F1804F1DD07B681B681F4A9342C8
:1041700018D07B681B681E4A934213D07B681B686B
:104180001C4A93420ED07B681B681B4A934209D09D
:104190007B681B68194A934204D07B681B68184AE5
:1041A000934211D17B681B689B6803F00703FB6097
:1041B000FB68062B10D07B681B681A687B681B683D
:1041C00042F001021A6007E07B681B681A687B688E
:1041D0001B6842F001021A60002318461437BD46DE
:1041E0005DF8047B704700BF000001400004004000
:1041F00000080040000C0040000401400040014065
:104200000018004080B582B000AF78607B681B6802
:104210001B6903F00203022B22D17B681B68DB6859
:1042200003F00203022B1BD17B681B686FF00202B4
:104230001A617B6801221A777B681B689B6903F00F
:104240000303002B03D0786800F0B5F905E0786827
:1042500000F0A7F9786800F0B8F97B6800221A77B7
:104260007B681B681B6903F00403042B22D17B6865
:104270001B68DB6803F00403042B1BD17B681B68FD
:104280006FF004021A617B6802221A777B681B6850
:104290009B6903F44073002B03D0786800F08BF91E
:1042A00005E0786800F07DF9786800F08EF97B68A9
:1042B00000221A777B681B681B6903F00803082B30
:1042C00022D17B681B68DB6803F00803082B1BD135
:1042D0007B681B686FF008021A617B6804221A77FA
:1042E0007B681B68DB6903F00303002B03D078684D
:1042F00000F061F905E0786800F053F9786800F0A3
:1043000064F97B6800221A777B681B681B6903F0DD
:104310001003102B22D17B681B68DB6803F01003AD
:10432000102B1BD17B681B686FF010021A617B6831
:1043300008221A777B681B68DB6903F44073002B43
:1043400003D0786800F037F905E0786800F029F9C3
:10435000786800F03AF97B6800221A777B681B685E
:104360001B6903F00103012B0ED17B681B68DB681E
:1043700003F00103012B07D17B681B686FF001027A
:104380001A617868FDF794F97B681B681B6903F074
:104390008003802B0ED17B681B68DB6803F08003F1
:1043A000802B07D17B681B686FF080021A617868E8
:1043B00000F0E0FA7B681B681B6903F04003402BA8
:1043C0000ED17B681B68DB6803F04003402B07D1EC
:1043D0007B681B686FF040021A61786800F0FFF894
:1043E0007B681B681B6903F02003202B0ED17B68C0
:1043F0001B68DB6803F02003202B07D17B681B6858
:104400006FF020021A61786800F0AAFA00BF08373E
:10441000BD4680BD80B584B000AF786039600023B0
:10442000FB737B6893F83C30012B01D10223B4E08D
:104430007B68012283F83C207B68022283F83D20C0
:104440007B681B689B68BB60BB6823F07703BB601D
:10445000BB6823F47F43BB607B681B68BA689A60C3
:104460003B681B68B3F5005F3ED0B3F5005F00F218
:104470008780B3F5805F00F08680B3F5805F7FD8DA
:10448000702B1AD0702B7BD8602B50D0602B77D834
:10449000502B3CD0502B73D8402B58D0402B6FD88A
:1044A000302B64D0302B6BD8202B60D0202B67D8DA
:1044B000002B5CD0102B5AD062E07B6818683B68F8
:1044C00099683B685A683B68DB6800F0ADF97B6827
:1044D0001B689B68BB60BB6843F07703BB607B686D
:1044E0001B68BA689A604FE07B6818683B689968F7
:1044F0003B685A683B68DB6800F096F97B681B688C
:104500009A687B681B6842F480429A603CE07B6852
:1045100018683B6859683B68DB681A4600F00AF97E
:104520007B681B685021184600F063F92CE07B681B
:1045300018683B6859683B68DB681A4600F029F93F
:104540007B681B686021184600F053F91CE07B680B
:1045500018683B6859683B68DB681A4600F0EAF85F
:104560007B681B684021184600F043F90CE07B682B
:104570001A683B681B681946104600F03AF903E0D8
:104580000123FB7300E000BF7B68012283F83D201C
:104590007B68002283F83C20FB7B18461037BD4621
:1045A00080BD80B483B000AF786000BF0C37BD46DB
:1045B0005DF8047B704780B483B000AF786000BFC3
:1045C0000C37BD465DF8047B704780B483B000AF04
:1045D000786000BF0C37BD465DF8047B704780B43F
:1045E00083B000AF786000BF0C37BD465DF8047B38
:1045F0007047000080B485B000AF786039607B6898
:104600001B68FB607B68404A934213D07B68B3F120
:10461000804F0FD07B683D4A93420BD07B683C4A69
:10462000934207D07B683B4A934203D07B683A4A67
:10463000934208D1FB6823F07003FB603B685B6822
:10464000FA681343FB607B682F4A93422BD07B6848
:10465000B3F1804F27D07B682C4A934223D07B68EC
:104660002B4A93421FD07B682A4A93421BD07B6817
:10467000294A934217D07B68284A934213D07B681B
:10468000274A93420FD07B68264A93420BD07B681F
:10469000254A934207D07B68244A934203D07B6823
:1046A000234A934208D1FB6823F44073FB603B68C4
:1046B000DB68FA681343FB60FB6823F080023B6809
:1046C0005B691343FB607B68FA681A603B689A6811
:1046D0007B68DA623B681A687B689A627B680A4A80
:1046E000934203D07B680C4A934203D13B681A691A
:1046F0007B681A637B6801225A6100BF1437BD468C
:104700005DF8047B704700BF0000014000040040DA
:1047100000080040000C004000040140004001403F
:10472000004401400048014000180040001C0040C7
:104730000020004080B487B000AFF860B9607A60B4
:10474000FB681B6A7B61FB681B6A23F00102FB6844
:104750001A62FB689B693B613B6923F0F0033B6194
:104760007B681B013A6913433B617B6923F00A03B1
:104770007B617A69BB6813437B61FB683A699A6124
:10478000FB687A691A6200BF1C37BD465DF8047B7E
:10479000704780B487B000AFF860B9607A60FB689A
:1047A0001B6A23F01002FB681A62FB689B697B613D
:1047B000FB681B6A3B617B6923F470437B617B6808
:1047C0001B037A6913437B613B6923F0A0033B61C0
:1047D000BB681B013A6913433B61FB687A699A61C4
:1047E000FB683A691A6200BF1C37BD465DF8047B5E
:1047F000704780B485B000AF786039607B689B6893
:10480000FB60FB6823F07003FB603A68FB681343AE
:1048100043F00703FB607B68FA689A6000BF1437B7
:10482000BD465DF8047B704780B487B000AFF86088
:10483000B9607A603B60FB689B687B617B6923F4AD
:104840007F437B613B681A027B681A43BB68134352
:104850007A6913437B61FB687A699A6000BF1C37F1
:10486000BD465DF8047B704780B485B000AF7860CA
:1048700039607B6893F83C30012B01D102235AE068
:104880007B68012283F83C207B68022283F83D206C
:104890007B681B685B68FB607B681B689B68BB6010
:1048A000FB6823F07003FB603B681B68FA681343E6
:1048B000FB607B681B68FA685A607B681B68214A4A
:1048C000934222D07B681B68B3F1804F1DD07B6878
:1048D0001B681D4A934218D07B681B681B4A934291
:1048E00013D07B681B681A4A93420ED07B681B6802
:1048F000184A934209D07B681B68174A934204D038
:104900007B681B68154A93420CD1BB6823F0800377
:10491000BB603B685B68BA681343BB607B681B681D
:10492000BA689A607B68012283F83D207B68002288
:1049300083F83C20002318461437BD465DF8047BFD
:10494000704700BF00000140000400400008004024
:10495000000C0040000401400040014000180040ED
:1049600080B483B000AF786000BF0C37BD465DF8FF
:10497000047B704780B483B000AF786000BF0C3711
:10498000BD465DF8047B704780B582B000AF7860AB
:104990007B68002B01D101233FE07B6893F83D3019
:1049A000DBB2002B06D17B68002283F83C207868BC
:1049B000FDF762F87B68242283F83D207B681B6842
:1049C000DA687B681B6822F40052DA60786800F0CD
:1049D00015FD7B681B681A697B681B6822F490428E
:1049E0001A617B681B685A697B681B6822F02A027F
:1049F0005A617B681B68DA687B681B6842F4005266
:104A0000DA607B6800221A647B68202283F83D20EC
:104A10007B68202283F83E20002318460837BD46D5
:104A200080BD80B485B000AFF860B9601346FB80EC
:104A3000FB6893F83D30DBB2202B30D1BB68002BF4
:104A400002D0FB88002B01D1012329E0FB6893F8F9
:104A50003C30012B01D1022322E0FB68012283F8C4
:104A60003C20FB68BA681A62FB68FA889A84FB6883
:104A7000FA88DA84FB6800221A64FB68212283F832
:104A80003D20FB68002283F83C20FB681B68DA6845
:104A9000FB681B6842F08002DA60002300E002231A
:104AA00018461437BD465DF8047B704780B584B066
:104AB00000AFF860B9601346FB80FB6893F83E30A6
:104AC000DBB2202B1DD1BB68002B02D0FB88002B52
:104AD00001D1012316E0FB6893F83C30012B01D192
:104AE00002230FE0FB68012283F83C20FB680022D0
:104AF0001A63FB881A46B968F86800F0ABFA0346F7
:104B000000E0022318461037BD4680BD80B5BAB01C
:104B100000AF78607B681B681B68C7F8E4307B686F
:104B20001B68DB68C7F8E0307B681B685B69C7F807
:104B3000DC300023C7F8D8300023C7F8D430D7F8CA
:104B4000E43003F00F03C7F8D830D7F8D830002B83
:104B50000FD1D7F8E43003F02003002B09D0D7F8A9
:104B6000E03003F02003002B03D0786800F08BFBCB
:104B700056E2D7F8D830002B00F0DE80D7F8DC30D2
:104B800003F00103002B06D1D7F8E03003F4907353
:104B9000002B00F0D180D7F8E43003F00103002BA4
:104BA0000BD0D7F8E03003F48073002B05D07B687E
:104BB0001B6C43F001027B681A64D7F8E43003F001
:104BC0000403002B0BD0D7F8DC3003F00103002BDB
:104BD00005D07B681B6C43F002027B681A64D7F82F
:104BE000E43003F00203002B0BD0D7F8DC3003F0E5
:104BF0000103002B05D07B681B6C43F004027B682B
:104C00001A64D7F8E43003F00803002B11D0D7F86A
:104C1000E03003F02003002B05D1D7F8DC3003F09F
:104C20000103002B05D07B681B6C43F008027B68F6
:104C30001A647B681B6C002B00F0ED81D7F8E43020
:104C400003F02003002B08D0D7F8E03003F0200356
:104C5000002B02D0786800F016FB7B681B685B694C
:104C600003F04003402B0CBF01230023DBB2C7F845
:104C7000D4307B681B6C03F00803002B03D1D7F8FA
:104C8000D430002B4FD0786800F01EFA7B681B6888
:104C90005B6903F04003402B41D17B681B681433F0
:104CA000C7F89C30D7F89C3053E8003FC7F89830DD
:104CB000D7F8983023F04003C7F8D0307B681B68E2
:104CC0001433D7F8D020C7F8A820C7F8A430D7F8F5
:104CD000A410D7F8A82041E80023C7F8A030D7F8DF
:104CE000A030002BD9D17B689B6B002B13D07B6845
:104CF0009B6B7D4A1A657B689B6B1846FDF7EAFB48
:104D00000346002B16D07B689B6B1B6D7A68926BF9
:104D1000104698470EE0786800F086F90AE0786857
:104D200000F082F906E0786800F07EF97B680022E6
:104D30001A6470E100BF6EE17B681B6B012B40F0D1
:104D40004A81D7F8E43003F01003002B00F04381D0
:104D5000D7F8E03003F01003002B00F03C81002373
:104D6000BB607B681B681B68BB607B681B685B68FB
:104D7000BB60BB687B681B685B6903F04003402B2A
:104D800040F0B4807B689B6B1B685B68A7F8BE3003
:104D9000B7F8BE30002B00F040817B689B8DB7F8E0
:104DA000BE209A4280F039817B68B7F8BE20DA8550
:104DB0007B689B6BDB69B3F5807F00F088807B6844
:104DC0001B680C33C7F88830D7F8883053E8003FA9
:104DD000C7F88430D7F8843023F48073C7F8B8302C
:104DE0007B681B680C33D7F8B820C7F89420C7F845
:104DF0009030D7F89010D7F8942041E80023C7F8F6
:104E00008C30D7F88C30002BD9D17B681B681433D9
:104E10007B677B6F53E8003F3B673B6F23F00103E9
:104E2000C7F8B4307B681B681433D7F8B420C7F8D0
:104E30008020FB67F96FD7F8802041E80023BB672B
:104E4000BB6F002BE1D17B681B6814333B663B6E64
:104E500053E8003FFB65FB6D23F04003C7F8B0301B
:104E60007B681B681433D7F8B020FA66BB66B96E4E
:104E7000FA6E41E800237B667B6E002BE3D17B68F2
:104E8000202283F83E207B6800221A637B681B681F
:104E90000C33FB64FB6C53E8003FBB64BB6C23F03A
:104EA0001003C7F8AC307B681B680C33D7F8AC2014
:104EB000BA657B65796DBA6D41E800233B653B6D52
:104EC000002BE3D17B689B6B1846FDF793FA7B6858
:104ED0009A8D7B68DB8D9BB2D31A9BB2194678689A
:104EE00000F0ACF899E000BF8F5100087B689A8D04
:104EF0007B68DB8D9BB2D31AA7F8CE307B68DB8D45
:104F00009BB2002B00F08B80B7F8CE30002B00F066
:104F100086807B681B680C33BB63BB6B53E8003F28
:104F20007B637B6B23F49073C7F8C8307B681B6886
:104F30000C33D7F8C8207A643B64396C7A6C41E84A
:104F40000023FB63FB6B002BE3D17B681B681433EE
:104F50007B627B6A53E8003F3B623B6A23F00103BC
:104F6000C7F8C4307B681B681433D7F8C4203A6391
:104F7000FB62F96A3A6B41E80023BB62BB6A002B13
:104F8000E3D17B68202283F83E207B6800221A63ED
:104F90007B681B680C333B613B6953E8003FFB6057
:104FA000FB6823F01003C7F8C0307B681B680C3324
:104FB000D7F8C020FA61BB61B969FA6941E80023FA
:104FC0007B617B69002BE3D1B7F8CE301946786856
:104FD00000F034F823E0D7F8E43003F08003002B2E
:104FE00009D0D7F8E03003F08003002B03D07868B5
:104FF00000F0E1F814E0D7F8E43003F04003002BB0
:105000000ED0D7F8E03003F04003002B08D07868CA
:1050100000F021F904E000BF02E000BF00E000BFA3
:10502000E837BD4680BD00BF80B483B000AF786074
:1050300000BF0C37BD465DF8047B704780B483B079
:1050400000AF78600B467B8000BF0C37BD465DF833
:10505000047B704780B485B000AFF860B960134638
:10506000FB80FB68BA689A62FB68FA889A85FB68DD
:10507000FA88DA85FB6800221A64FB68222283F82A
:105080003E20FB68002283F83C20FB681B68DA683E
:10509000FB681B6842F48072DA60FB681B685A691F
:1050A000FB681B6842F001025A61FB681B68DA6802
:1050B000FB681B6842F02002DA60002318461437B0
:1050C000BD465DF8047B704780B495B000AF786052
:1050D0007B681B680C337B637B6B53E8003F3B634F
:1050E0003B6B23F49073FB647B681B680C33FA6C96
:1050F0003A64FB63F96B3A6C41E80023BB63BB6B1A
:10510000002BE5D17B681B6814333B623B6A53E894
:10511000003FFB61FB6923F00103BB647B681B68F4
:105120001433BA6CFA62BB62B96AFA6A41E80023C6
:105130007B627B6A002BE5D17B681B6B012B19D14D
:105140007B681B680C33FB60FB6853E8003FBB6067
:10515000BB6823F010037B647B681B680C337A6C9C
:10516000BA617B617969BA6941E800233B613B69B7
:10517000002BE5D17B68202283F83E207B6800224B
:105180001A6300BF5437BD465DF8047B704780B595
:1051900084B000AF78607B689B6BFB60FB6800228B
:1051A000DA85FB680022DA84F868FFF73DFF00BF6C
:1051B0001037BD4680BD80B485B000AF78607B6895
:1051C00093F83D30DBB2212B3ED17B689B68B3F571
:1051D000805F14D17B681B69002B10D17B681B6A30
:1051E000FB60FB681B881A467B681B68C2F30802D9
:1051F0005A607B681B6A9A1C7B681A6208E07B68AD
:105200001B6A591C7A6811621A787B681B685A609D
:105210007B68DB8C9BB2013B9BB27A681946D184D8
:10522000002B0FD17B681B68DA687B681B6822F053
:105230008002DA607B681B68DA687B681B6842F072
:105240004002DA60002300E0022318461437BD460E
:105250005DF8047B704780B582B000AF78607B68F2
:105260001B68DA687B681B6822F04002DA607B68A2
:10527000202283F83D207868FCF793F90023184634
:105280000837BD4680BD80B58CB000AF78607B68C4
:1052900093F83E30DBB2222B40F0AB807B689B68FA
:1052A000B3F5805F17D17B681B69002B13D10023F6
:1052B000FB627B689B6ABB627B681B685B689BB216
:1052C000C3F308039AB2BB6A1A807B689B6A9A1C74
:1052D0007B689A6226E07B689B6AFB620023BB6264
:1052E0007B689B68B3F5805F07D07B689B68002B69
:1052F0000AD17B681B69002B06D17B681B685B6841
:10530000DAB2FB6A1A7008E07B681B685B68DBB284
:1053100003F07F03DAB2FB6A1A707B689B6A5A1C3F
:105320007B689A627B68DB8D9BB2013B9BB27A689B
:105330001946D185002B5AD17B681B68DA687B68D7
:105340001B6822F02002DA607B681B68DA687B68E1
:105350001B6822F48072DA607B681B685A697B687C
:105360001B6822F001025A617B68202283F83E20EC
:105370007B681B6B012B35D17B6800221A637B682D
:105380001B680C337B617B6953E8003F3B613B69E1
:1053900023F010037B627B681B680C337A6A3A62E5
:1053A000FB61F9693A6A41E80023BB61BB69002BE4
:1053B000E5D17B681B681B6803F01003102B0AD132
:1053C0000023FB607B681B681B68FB607B681B68B5
:1053D0005B68FB60FB687B689B8D19467868FFF70C
:1053E0002DFE02E07868FCF7D1F8002302E00023EC
:1053F00000E0022318463037BD4680BD2DE9F04F4E
:105400009FB000AFF866FB6E1B681B6923F4405029
:10541000FB6ED968FB6E1A6840EA01031361FB6EEC
:105420009A68FB6E1B691A43FB6E5B691A43FB6E3D
:10543000DB6913433B67FB6E1B68DB6823F4164193
:1054400021F00C01FB6E1A683B6F0B43D360FB6EBF
:105450001B685B6923F44070FB6E9969FB6E1A68E8
:1054600040EA01035361FB6E1A68C54B9A4204D0AF
:10547000FB6E1A68C34B9A4203D1FEF7BDFD7867F5
:1054800002E0FEF7A5FD7867FB6EDB69B3F5004F20
:1054900040F0B6807B6F1C464FF0000522462B463D
:1054A000911839645B417B64D7E91023121945EBED
:1054B00003034FF000004FF00001D90041EA5271A0
:1054C000D00002460B46111939666B417B66FB6EB4
:1054D0005B681A464FF000039118B9635B41FB63A8
:1054E000D7E90E23D7E91801FAF7DAFE02460B4690
:1054F000A54BA3FB02235B091E017B6F1C464FF0EB
:10550000000522462B46911839635B417B63D7E93E
:105510000C23121945EB03034FF000004FF000017C
:10552000D90041EA5271D00002460B461119B96503
:105530006B41FB65FB6E5B681A464FF000039118E8
:10554000B9625B41FB62D7E90A23D7E91601FAF792
:10555000A7FE02460B468C4BA3FB02135B0964219A
:1055600001FB03F3D31ADB003233874AA2FB032388
:105570005B095B0003F4F8731E447B6F18464FF021
:10558000000102460B4694183C625B417B62D7E9FE
:105590000823121841EB03034FF000044FF00005FD
:1055A000DD0045EA5275D40022462B4614183C65AE
:1055B0004B417B65FB6E5B681A464FF00003911808
:1055C000B9615B41FB61D7E90623D7E91401FAF71A
:1055D00067FE02460B466C4BA3FB02135B0964217A
:1055E00001FB03F3D31ADB003233674AA2FB032328
:1055F0005B0903F00702FB6E1B6832449A60B9E056
:105600007B6F1C464FF0000522462B4691183961EE
:105610005B417B61D7E90423121945EB03034FF08B
:1056200000004FF00001D90041EA5271D00002465B
:105630000B4612EB040843EB0509FB6E5B6818464A
:105640004FF000014FF000024FF000038B0043EADF
:105650009073820040464946FAF722FE02460B4606
:10566000494BA3FB02235B091E017B6F18464FF0D9
:10567000000102460B469418BC605B41FB60D7E911
:105680000223121841EB03034FF000044FF0000512
:10569000DD0045EA5275D40022462B461418BC643E
:1056A0004B41FB64FB6E5B6818464FF000014FF006
:1056B00000024FF000038B0043EA90738200D7E9A9
:1056C0001201FAF7EDFD02460B462F4BA3FB021326
:1056D0005B09642101FB03F3D31A1B0132332A4A0D
:1056E000A2FB03235B0903F0F0031E447B6F184603
:1056F0004FF0000102460B4694183C605B417B6012
:10570000D7E90023121841EB03034FF000044FF0D8
:105710000005DD0045EA5275D40022462B4612EB07
:10572000000A43EB010BFB6E5B6818464FF000016B
:105730004FF000024FF000038B0043EA90738200A9
:1057400050465946FAF7ACFD02460B460E4BA3FBFA
:1057500002135B09642101FB03F3D31A1B013233EB
:10576000094AA2FB03235B0903F00F02FB6E1B68CF
:1057700032449A6000BF7C37BD46BDE8F08F00BF61
:1057800000100140001401401F85EB5180B485B02A
:1057900000AF0346FB800023FB60B7F90630842B83
:1057A00005D0B7F90620FB6813440333FB60FB68A0
:1057B00018461437BD465DF8047B704780B483B04B
:1057C00000AFEFF305837B607B68002B14BF0123E0
:1057D0000023DBB218460C37BD465DF8047B7047EA
:1057E00080B500AF01F040F80023184680BDF0B549
:1057F00089B004AF786039607B685B69002B20D08A
:105800007B689B69002B1CD07B685C687B681D688B
:105810007B681E697B68B3F908301846FFF7B6FF4E
:1058200001467B685B697A689269029201930091F4
:105830003B6832462946204600F038FE0346FB60AE
:105840001CE07B685C687B681D687B681B699EB296
:105850007B68B3F908301846FFF798FF024607F156
:105860000C03019300923B6832462946204600F023
:105870007AFE0346012B01D0002300E0FB681846A6
:105880001437BD46F0BD80B584B000AF78607B684A
:10589000FB60FB68002B01D0FB6800E00123184689
:1058A00000F0AEFF002318461037BD4680BD90B50E
:1058B00085B002AF786039607B689B68002B11D09F
:1058C0007B68DB68002B0DD07B6818687B685968A3
:1058D0007B689A687B68DB680024009400F06CF9B0
:1058E000034608E07B6818687B685B6800221946FD
:1058F00000F0DAF9034618460C37BD4690BD0000AB
:1059000080B586B000AFF860B9607A6000233B6173
:105910007B687B617B69002B01D101237B61FFF7F1
:105920004DFF0346002B18D007F1100207F10801C4
:105930000023F86800F010FB0346012B01D0FF2381
:1059400018E03B69002B14D00C4B4FF080521A60CA
:10595000BFF34F8FBFF36F8F0BE007F108010023F8
:105960007A69F86800F0FAF90346012B01D0FF23A9
:1059700000E0002318461837BD4680BD04ED00E066
:1059800080B483B000AF78607B6803F108027B6865
:105990005A607B684FF0FF329A607B6803F108021F
:1059A0007B68DA607B6803F108027B681A617B68B8
:1059B00000221A6000BF0C37BD465DF8047B7047BB
:1059C00080B483B000AF78607B6800221A6100BFAA
:1059D0000C37BD465DF8047B704780B485B000AFDE
:1059E000786039607B685B68FB603B68FA685A6086
:1059F000FB689A683B689A60FB689B683A685A60E3
:105A0000FB683A689A603B687A681A617B681B6831
:105A10005A1C7B681A6000BF1437BD465DF8047BD2
:105A2000704780B485B000AF786039603B681B6810
:105A3000BB60BB68B3F1FF3F03D17B681B69FB60B0
:105A40000CE07B680833FB6002E0FB685B68FB608E
:105A5000FB685B681B68BA689A42F6D2FB685A68B2
:105A60003B685A603B685B683A689A603B68FA68D2
:105A70009A60FB683A685A603B687A681A617B688A
:105A80001B685A1C7B681A6000BF1437BD465DF85E
:105A9000047B704780B485B000AF78607B681B6979
:105AA000FB607B685B687A6892689A607B689B6839
:105AB0007A6852685A60FB685B687A689A4203D1D8
:105AC0007B689A68FB685A607B6800221A61FB68F1
:105AD0001B685A1EFB681A60FB681B68184614375F
